{
  "abi": [
    {
      "inputs": [
        {
          "internalType": "contract IWorld",
          "name": "_world",
          "type": "address"
        },
        {
          "internalType": "address",
          "name": "_components",
          "type": "address"
        }
      ],
      "stateMutability": "nonpayable",
      "type": "constructor"
    },
    {
      "inputs": [],
      "name": "Ownable__NotOwner",
      "type": "error"
    },
    {
      "inputs": [],
      "name": "Ownable__NotTransitiveOwner",
      "type": "error"
    },
    {
      "anonymous": false,
      "inputs": [
        {
          "indexed": true,
          "internalType": "address",
          "name": "previousOwner",
          "type": "address"
        },
        {
          "indexed": true,
          "internalType": "address",
          "name": "newOwner",
          "type": "address"
        }
      ],
      "name": "OwnershipTransferred",
      "type": "event"
    },
    {
      "inputs": [
        {
          "components": [
            {
              "internalType": "int32",
              "name": "x",
              "type": "int32"
            },
            {
              "internalType": "int32",
              "name": "y",
              "type": "int32"
            }
          ],
          "internalType": "struct Coord",
          "name": "coord",
          "type": "tuple"
        },
        {
          "internalType": "uint256",
          "name": "attackEntity",
          "type": "uint256"
        }
      ],
      "name": "attack",
      "outputs": [
        {
          "internalType": "uint8",
          "name": "",
          "type": "uint8"
        }
      ],
      "stateMutability": "nonpayable",
      "type": "function"
    },
    {
      "inputs": [
        {
          "internalType": "bytes",
          "name": "args",
          "type": "bytes"
        }
      ],
      "name": "execute",
      "outputs": [
        {
          "internalType": "bytes",
          "name": "",
          "type": "bytes"
        }
      ],
      "stateMutability": "nonpayable",
      "type": "function"
    },
    {
      "inputs": [
        {
          "components": [
            {
              "internalType": "int32",
              "name": "x",
              "type": "int32"
            },
            {
              "internalType": "int32",
              "name": "y",
              "type": "int32"
            }
          ],
          "internalType": "struct Coord",
          "name": "coord",
          "type": "tuple"
        },
        {
          "components": [
            {
              "internalType": "int32",
              "name": "x",
              "type": "int32"
            },
            {
              "internalType": "int32",
              "name": "y",
              "type": "int32"
            }
          ],
          "internalType": "struct Coord",
          "name": "targetCoord",
          "type": "tuple"
        }
      ],
      "name": "executeTyped",
      "outputs": [
        {
          "internalType": "bytes",
          "name": "",
          "type": "bytes"
        }
      ],
      "stateMutability": "nonpayable",
      "type": "function"
    },
    {
      "inputs": [],
      "name": "owner",
      "outputs": [
        {
          "internalType": "address",
          "name": "",
          "type": "address"
        }
      ],
      "stateMutability": "view",
      "type": "function"
    },
    {
      "inputs": [
        {
          "internalType": "address",
          "name": "account",
          "type": "address"
        }
      ],
      "name": "transferOwnership",
      "outputs": [],
      "stateMutability": "nonpayable",
      "type": "function"
    }
  ],
  "bytecode": {
    "object": "0x60806040523480156200001157600080fd5b5060405162001ac138038062001ac183398101604081905262000034916200022c565b818162000041336200010f565b6001600160a01b03811615620000585780620000bd565b816001600160a01b031663ba62fbe46040518163ffffffff1660e01b8152600401602060405180830381865afa15801562000097573d6000803e3d6000fd5b505050506040513d601f19601f82011682018060405250810190620000bd91906200026b565b600080546001600160a01b03199081166001600160a01b0393841690811790925560018054909116928516928317905562000105919062000183602090811b62000ffb17901c565b5050505062000292565b600062000126620001ef60201b6200108c1760201c565b80546040519192506001600160a01b03808516929116907f8be0079c531659141344cd1fd0a4f28419497f9722a3daafe3b4186f6b6457e090600090a380546001600160a01b0319166001600160a01b0392909216919091179055565b7ff67304f10c7772c78e439bc5cb07781db345424de8878c18100fdaa64d197a8780546001600160a01b039384166001600160a01b0319918216179091557ff67304f10c7772c78e439bc5cb07781db345424de8878c18100fdaa64d197a868054929093169116179055565b7f8a22373512790c48b83a1fe2efdd2888d4a917bcdc24d0adf63e60f67168046090565b6001600160a01b03811681146200022957600080fd5b50565b600080604083850312156200024057600080fd5b82516200024d8162000213565b6020840151909250620002608162000213565b809150509250929050565b6000602082840312156200027e57600080fd5b81516200028b8162000213565b9392505050565b61181f80620002a26000396000f3fe608060405234801561001057600080fd5b50600436106100675760003560e01c8063a5cf4fdb11610050578063a5cf4fdb146100c2578063aac25b73146100e7578063f2fde38b146100fa57600080fd5b806309c5eabe1461006c5780638da5cb5b14610095575b600080fd5b61007f61007a3660046113d7565b61010f565b60405161008c919061148a565b60405180910390f35b61009d6106dc565b60405173ffffffffffffffffffffffffffffffffffffffff909116815260200161008c565b6100d56100d0366004611547565b610721565b60405160ff909116815260200161008c565b61007f6100f5366004611572565b610f4c565b61010d6101083660046115a7565b610f7f565b005b6060600080838060200190518101906101289190611614565b9150915060006040518060a0016040528061018660008054906101000a900473ffffffffffffffffffffffffffffffffffffffff167f49a4584d9706380e35459e1f31e673445371b5bac20aa516f8ba8650b184310660001c6110b0565b73ffffffffffffffffffffffffffffffffffffffff90811682526000546020909201916101d491167f30f1c358b0a577824afcc8e464bcbd763eba254820a547b425765e75cc511f1e6110b0565b73ffffffffffffffffffffffffffffffffffffffff908116825260005460209092019161022291167faf90be6cd7aa92d6569a9ae629178b74e1b0fbdd1097c27ec1dfffd2dc4c75406110b0565b73ffffffffffffffffffffffffffffffffffffffff908116825260005460209092019161027091167fe95fc307e3922a4ed7e1a9d135b2e79aad91e806428d8c7ec9a376dfc8aede5e6110b0565b73ffffffffffffffffffffffffffffffffffffffff90811682526000546020909201916102be91167f2fc9fa89c3e33fdaa5feead211018b3d0b1d3edd613228f7f320915fddd8d0396110b0565b73ffffffffffffffffffffffffffffffffffffffff1681525090506000816000015173ffffffffffffffffffffffffffffffffffffffff1663bf3bf26a856040518263ffffffff1660e01b81526004016103189190611640565b600060405180830381865afa158015610335573d6000803e3d6000fd5b505050506040513d6000823e601f3d9081017fffffffffffffffffffffffffffffffffffffffffffffffffffffffffffffffe016820160405261037b9190810190611661565b90508051600114610413576040517f08c379a000000000000000000000000000000000000000000000000000000000815260206004820152602f60248201527f5b41747461636b53797374656d5d2043616e6e6f742061747461636b2066726f60448201527f6d20616e20656d7074792074696c65000000000000000000000000000000000060648201526084015b60405180910390fd5b6000826020015173ffffffffffffffffffffffffffffffffffffffff16630ff4c9168360008151811061044857610448611707565b60200260200101516040518263ffffffff1660e01b815260040161046e91815260200190565b602060405180830381865afa15801561048b573d6000803e3d6000fd5b505050506040513d601f19601f820116820180604052508101906104af9190611736565b90507f9d47592473d41327e0ccb0bb0dc69c74c6ac29b77beb0fc78a1c84d6f0bcf87b8114610560576040517f08c379a000000000000000000000000000000000000000000000000000000000815260206004820152603160248201527f5b41747461636b53797374656d5d2043616e6e6f742061747461636b2066726f60448201527f6d2061206e6f6e2d73696c6f2074696c65000000000000000000000000000000606482015260840161040a565b6000836040015173ffffffffffffffffffffffffffffffffffffffff16630ff4c9168460008151811061059557610595611707565b60200260200101516040518263ffffffff1660e01b81526004016105bb91815260200190565b602060405180830381865afa1580156105d8573d6000803e3d6000fd5b505050506040513d601f19601f820116820180604052508101906105fc9190611736565b905033811461068d576040517f08c379a000000000000000000000000000000000000000000000000000000000815260206004820152603760248201527f5b41747461636b53797374656d5d2043616e6e6f742061747461636b2066726f60448201527f6d20612074696c6520796f7520646f206e6f74206f776e000000000000000000606482015260840161040a565b6106b185846000815181106106a4576106a4611707565b6020026020010151610721565b6040805160ff9092166020830152016040516020818303038152906040529650505050505050919050565b600061071c7f8a22373512790c48b83a1fe2efdd2888d4a917bcdc24d0adf63e60f6716804605473ffffffffffffffffffffffffffffffffffffffff1690565b905090565b6040805160a08101909152600080549091829181906107769073ffffffffffffffffffffffffffffffffffffffff167f49a4584d9706380e35459e1f31e673445371b5bac20aa516f8ba8650b18431066110b0565b73ffffffffffffffffffffffffffffffffffffffff90811682526000546020909201916107c491167f30f1c358b0a577824afcc8e464bcbd763eba254820a547b425765e75cc511f1e6110b0565b73ffffffffffffffffffffffffffffffffffffffff908116825260005460209092019161081291167faf90be6cd7aa92d6569a9ae629178b74e1b0fbdd1097c27ec1dfffd2dc4c75406110b0565b73ffffffffffffffffffffffffffffffffffffffff908116825260005460209092019161086091167fe95fc307e3922a4ed7e1a9d135b2e79aad91e806428d8c7ec9a376dfc8aede5e6110b0565b73ffffffffffffffffffffffffffffffffffffffff90811682526000546020909201916108ae91167f2fc9fa89c3e33fdaa5feead211018b3d0b1d3edd613228f7f320915fddd8d0396110b0565b73ffffffffffffffffffffffffffffffffffffffff90811690915260008054929350916108fc91167ffba48a04766694c16713a414735f83be9cb20bbb29b5e18846cc8f15106408456110b0565b90506000826000015173ffffffffffffffffffffffffffffffffffffffff1663bf3bf26a876040518263ffffffff1660e01b815260040161093d9190611640565b600060405180830381865afa15801561095a573d6000803e3d6000fd5b505050506040513d6000823e601f3d9081017fffffffffffffffffffffffffffffffffffffffffffffffffffffffffffffffe01682016040526109a09190810190611661565b90508051600103610f3e576000836040015173ffffffffffffffffffffffffffffffffffffffff16630ff4c916836000815181106109e0576109e0611707565b60200260200101516040518263ffffffff1660e01b8152600401610a0691815260200190565b602060405180830381865afa158015610a23573d6000803e3d6000fd5b505050506040513d601f19601f82011682018060405250810190610a479190611736565b9050338114610f31576000610a7c7f4952f11b5e88ffd88b7a0231ee67228cf0d58eb081bf31517c674f44264c783f886111fc565b6040517fcccf7a8e0000000000000000000000000000000000000000000000000000000081526004810182905290915073ffffffffffffffffffffffffffffffffffffffff85169063cccf7a8e90602401602060405180830381865afa158015610aea573d6000803e3d6000fd5b505050506040513d601f19601f82011682018060405250810190610b0e919061174f565b15610c5d576040517f0ff4c9160000000000000000000000000000000000000000000000000000000081526004810182905260009073ffffffffffffffffffffffffffffffffffffffff861690630ff4c91690602401602060405180830381865afa158015610b81573d6000803e3d6000fd5b505050506040513d601f19601f82011682018060405250810190610ba59190611736565b90508015610c485773ffffffffffffffffffffffffffffffffffffffff8516631ab06ee583610bd5600185611771565b6040517fffffffff0000000000000000000000000000000000000000000000000000000060e085901b16815260048101929092526024820152604401600060405180830381600087803b158015610c2b57600080fd5b505af1158015610c3f573d6000803e3d6000fd5b50505050610c57565b60009650505050505050610f46565b50610c6b565b600095505050505050610f46565b846080015173ffffffffffffffffffffffffffffffffffffffff1663cccf7a8e84600081518110610c9e57610c9e611707565b60200260200101516040518263ffffffff1660e01b8152600401610cc491815260200190565b602060405180830381865afa158015610ce1573d6000803e3d6000fd5b505050506040513d601f19601f82011682018060405250810190610d05919061174f565b15610e6b576000856080015173ffffffffffffffffffffffffffffffffffffffff16630ff4c91685600081518110610d3f57610d3f611707565b60200260200101516040518263ffffffff1660e01b8152600401610d6591815260200190565b602060405180830381865afa158015610d82573d6000803e3d6000fd5b505050506040513d601f19601f82011682018060405250810190610da69190611736565b90508015610e6557856080015173ffffffffffffffffffffffffffffffffffffffff16631ab06ee585600081518110610de157610de1611707565b6020026020010151601484610df69190611771565b6040517fffffffff0000000000000000000000000000000000000000000000000000000060e085901b16815260048101929092526024820152604401600060405180830381600087803b158015610e4c57600080fd5b505af1158015610e60573d6000803e3d6000fd5b505050505b50610f23565b846080015173ffffffffffffffffffffffffffffffffffffffff16631ab06ee584600081518110610e9e57610e9e611707565b602002602001015160146064610eb49190611771565b6040517fffffffff0000000000000000000000000000000000000000000000000000000060e085901b16815260048101929092526024820152604401600060405180830381600087803b158015610f0a57600080fd5b505af1158015610f1e573d6000803e3d6000fd5b505050505b600195505050505050610f46565b6000945050505050610f46565b600093505050505b92915050565b6060610f788383604051602001610f649291906117ab565b60405160208183030381529060405261010f565b9392505050565b7f8a22373512790c48b83a1fe2efdd2888d4a917bcdc24d0adf63e60f6716804605473ffffffffffffffffffffffffffffffffffffffff163314610fef576040517f2f7a8ee100000000000000000000000000000000000000000000000000000000815260040160405180910390fd5b610ff88161127c565b50565b7ff67304f10c7772c78e439bc5cb07781db345424de8878c18100fdaa64d197a87805473ffffffffffffffffffffffffffffffffffffffff9384167fffffffffffffffffffffffff0000000000000000000000000000000000000000918216179091557ff67304f10c7772c78e439bc5cb07781db345424de8878c18100fdaa64d197a868054929093169116179055565b7f8a22373512790c48b83a1fe2efdd2888d4a917bcdc24d0adf63e60f67168046090565b6040517ffbdfa1ea00000000000000000000000000000000000000000000000000000000815260048101829052600090819073ffffffffffffffffffffffffffffffffffffffff85169063fbdfa1ea90602401600060405180830381865afa158015611120573d6000803e3d6000fd5b505050506040513d6000823e601f3d9081017fffffffffffffffffffffffffffffffffffffffffffffffffffffffffffffffe01682016040526111669190810190611661565b905080516000036111d3576040517f08c379a000000000000000000000000000000000000000000000000000000000815260206004820152601160248201527f6964206e6f742072656769737465726564000000000000000000000000000000604482015260640161040a565b6111f4816000815181106111e9576111e9611707565b602002602001015190565b949350505050565b6000828260405160200161123f92919091825260601b7fffffffffffffffffffffffffffffffffffffffff00000000000000000000000016602082015260340190565b604080517fffffffffffffffffffffffffffffffffffffffffffffffffffffffffffffffe081840301815291905280516020909101209392505050565b7f8a22373512790c48b83a1fe2efdd2888d4a917bcdc24d0adf63e60f6716804608054604051610ff8928492909173ffffffffffffffffffffffffffffffffffffffff8085169216907f8be0079c531659141344cd1fd0a4f28419497f9722a3daafe3b4186f6b6457e090600090a380547fffffffffffffffffffffffff00000000000000000000000000000000000000001673ffffffffffffffffffffffffffffffffffffffff92909216919091179055565b7f4e487b7100000000000000000000000000000000000000000000000000000000600052604160045260246000fd5b6040805190810167ffffffffffffffff8111828210171561138257611382611330565b60405290565b604051601f82017fffffffffffffffffffffffffffffffffffffffffffffffffffffffffffffffe016810167ffffffffffffffff811182821017156113cf576113cf611330565b604052919050565b600060208083850312156113ea57600080fd5b823567ffffffffffffffff8082111561140257600080fd5b818501915085601f83011261141657600080fd5b81358181111561142857611428611330565b611458847fffffffffffffffffffffffffffffffffffffffffffffffffffffffffffffffe0601f84011601611388565b9150808252868482850101111561146e57600080fd5b8084840185840137600090820190930192909252509392505050565b600060208083528351808285015260005b818110156114b75785810183015185820160400152820161149b565b5060006040828601015260407fffffffffffffffffffffffffffffffffffffffffffffffffffffffffffffffe0601f8301168501019250505092915050565b8060030b8114610ff857600080fd5b60006040828403121561151757600080fd5b61151f61135f565b9050813561152c816114f6565b8152602082013561153c816114f6565b602082015292915050565b6000806060838503121561155a57600080fd5b6115648484611505565b946040939093013593505050565b6000806080838503121561158557600080fd5b61158f8484611505565b915061159e8460408501611505565b90509250929050565b6000602082840312156115b957600080fd5b813573ffffffffffffffffffffffffffffffffffffffff81168114610f7857600080fd5b6000604082840312156115ef57600080fd5b6115f761135f565b90508151611604816114f6565b8152602082015161153c816114f6565b6000806080838503121561162757600080fd5b61163184846115dd565b915061159e84604085016115dd565b60408101610f468284805160030b8252602081015160030b60208301525050565b6000602080838503121561167457600080fd5b825167ffffffffffffffff8082111561168c57600080fd5b818501915085601f8301126116a057600080fd5b8151818111156116b2576116b2611330565b8060051b91506116c3848301611388565b81815291830184019184810190888411156116dd57600080fd5b938501935b838510156116fb578451825293850193908501906116e2565b98975050505050505050565b7f4e487b7100000000000000000000000000000000000000000000000000000000600052603260045260246000fd5b60006020828403121561174857600080fd5b5051919050565b60006020828403121561176157600080fd5b81518015158114610f7857600080fd5b81810381811115610f46577f4e487b7100000000000000000000000000000000000000000000000000000000600052601160045260246000fd5b608081016117cc8285805160030b8252602081015160030b60208301525050565b8251600390810b60408401526020840151900b6060830152610f7856fea26469706673582212207a592a343a7b8d1c59bda94108810edd4b5d09abf10ae777b7ab0ed0eed772b864736f6c63430008110033",
    "linkReferences": {}
  },
  "methodIdentifiers": {
    "attack((int32,int32),uint256)": "a5cf4fdb",
    "execute(bytes)": "09c5eabe",
    "executeTyped((int32,int32),(int32,int32))": "aac25b73",
    "owner()": "8da5cb5b",
    "transferOwnership(address)": "f2fde38b"
  },
  "id": 106
}