{
  "abi": [
    {
      "inputs": [
        {
          "internalType": "contract IWorld",
          "name": "_world",
          "type": "address"
        },
        {
          "internalType": "address",
          "name": "_components",
          "type": "address"
        }
      ],
      "stateMutability": "nonpayable",
      "type": "constructor"
    },
    {
      "inputs": [],
      "name": "Ownable__NotOwner",
      "type": "error"
    },
    {
      "inputs": [],
      "name": "Ownable__NotTransitiveOwner",
      "type": "error"
    },
    {
      "anonymous": false,
      "inputs": [
        {
          "indexed": true,
          "internalType": "address",
          "name": "previousOwner",
          "type": "address"
        },
        {
          "indexed": true,
          "internalType": "address",
          "name": "newOwner",
          "type": "address"
        }
      ],
      "name": "OwnershipTransferred",
      "type": "event"
    },
    {
      "inputs": [
        {
          "internalType": "bytes",
          "name": "args",
          "type": "bytes"
        }
      ],
      "name": "execute",
      "outputs": [
        {
          "internalType": "bytes",
          "name": "",
          "type": "bytes"
        }
      ],
      "stateMutability": "nonpayable",
      "type": "function"
    },
    {
      "inputs": [
        {
          "internalType": "uint256",
          "name": "buildingType",
          "type": "uint256"
        },
        {
          "internalType": "int32[]",
          "name": "blueprint",
          "type": "int32[]"
        }
      ],
      "name": "executeTyped",
      "outputs": [
        {
          "internalType": "bytes",
          "name": "",
          "type": "bytes"
        }
      ],
      "stateMutability": "nonpayable",
      "type": "function"
    },
    {
      "inputs": [
        {
          "internalType": "uint256",
          "name": "buildingType",
          "type": "uint256"
        },
        {
          "components": [
            {
              "internalType": "int32",
              "name": "x",
              "type": "int32"
            },
            {
              "internalType": "int32",
              "name": "y",
              "type": "int32"
            }
          ],
          "internalType": "struct Coord[]",
          "name": "blueprint",
          "type": "tuple[]"
        }
      ],
      "name": "executeTyped",
      "outputs": [
        {
          "internalType": "bytes",
          "name": "",
          "type": "bytes"
        }
      ],
      "stateMutability": "nonpayable",
      "type": "function"
    },
    {
      "inputs": [],
      "name": "owner",
      "outputs": [
        {
          "internalType": "address",
          "name": "",
          "type": "address"
        }
      ],
      "stateMutability": "view",
      "type": "function"
    },
    {
      "inputs": [
        {
          "internalType": "address",
          "name": "account",
          "type": "address"
        }
      ],
      "name": "transferOwnership",
      "outputs": [],
      "stateMutability": "nonpayable",
      "type": "function"
    }
  ],
  "bytecode": {
    "object": "0x60806040523480156200001157600080fd5b506040516200118b3803806200118b8339810160408190526200003491620001e0565b8181818162000043336200014d565b6001600160a01b038116156200005a5780620000bf565b816001600160a01b031663ba62fbe46040518163ffffffff1660e01b8152600401602060405180830381865afa15801562000099573d6000803e3d6000fd5b505050506040513d601f19601f82011682018060405250810190620000bf91906200021f565b600080546001600160a01b039283166001600160a01b0319918216811790925560018054938616938216841790557ff67304f10c7772c78e439bc5cb07781db345424de8878c18100fdaa64d197a87805482169093179092557ff67304f10c7772c78e439bc5cb07781db345424de8878c18100fdaa64d197a86805490921617905550505050505062000246565b7f8a22373512790c48b83a1fe2efdd2888d4a917bcdc24d0adf63e60f67168046080546040516001600160a01b038481169216907f8be0079c531659141344cd1fd0a4f28419497f9722a3daafe3b4186f6b6457e090600090a380546001600160a01b0319166001600160a01b0392909216919091179055565b6001600160a01b0381168114620001dd57600080fd5b50565b60008060408385031215620001f457600080fd5b82516200020181620001c7565b60208401519092506200021481620001c7565b809150509250929050565b6000602082840312156200023257600080fd5b81516200023f81620001c7565b9392505050565b610f3580620002566000396000f3fe608060405234801561001057600080fd5b50600436106100675760003560e01c80638da5cb5b116100505780638da5cb5b146100a85780639ca3a833146100d5578063f2fde38b146100e857600080fd5b806309c5eabe1461006c5780638437c39814610095575b600080fd5b61007f61007a3660046108d7565b6100fd565b60405161008c919061098a565b60405180910390f35b61007f6100a3366004610a29565b610284565b6100b06102d0565b60405173ffffffffffffffffffffffffffffffffffffffff909116815260200161008c565b61007f6100e3366004610ad4565b610315565b6100fb6100f6366004610ba7565b610348565b005b6060600080838060200190518101906101169190610bdd565b9150915060008151600261012a9190610ccf565b67ffffffffffffffff81111561014257610142610830565b60405190808252806020026020018201604052801561016b578160200160208202803683370190505b50905060005b82518110156102385782818151811061018c5761018c610ce6565b602002602001015160000151828260026101a69190610ccf565b815181106101b6576101b6610ce6565b602002602001019060030b908160030b815250508281815181106101dc576101dc610ce6565b602002602001015160200151828260026101f69190610ccf565b610201906001610d15565b8151811061021157610211610ce6565b602002602001019060030b908160030b81525050808061023090610d28565b915050610171565b5061026c6102657fb84d25cdc4ffa2de4c7839395955c6a5acd26f202b5866d8f70fe2c7795c1b836103c4565b84836103e8565b50506040805160008152602081019091529392505050565b60606102b96102b27fb84d25cdc4ffa2de4c7839395955c6a5acd26f202b5866d8f70fe2c7795c1b836103c4565b84846103e8565b506040805160008152602081019091525b92915050565b60006103107f8a22373512790c48b83a1fe2efdd2888d4a917bcdc24d0adf63e60f6716804605473ffffffffffffffffffffffffffffffffffffffff1690565b905090565b6060610341838360405160200161032d929190610d60565b6040516020818303038152906040526100fd565b9392505050565b7f8a22373512790c48b83a1fe2efdd2888d4a917bcdc24d0adf63e60f6716804605473ffffffffffffffffffffffffffffffffffffffff1633146103b8576040517f2f7a8ee100000000000000000000000000000000000000000000000000000000815260040160405180910390fd5b6103c18161062f565b50565b600080546102ca9073ffffffffffffffffffffffffffffffffffffffff1683610638565b600281516103f69190610dc0565b15610488576040517f08c379a000000000000000000000000000000000000000000000000000000000815260206004820152602360248201527f5b426c75657072696e7453797374656d5d3a206f6464206172726179206c656e60448201527f677468000000000000000000000000000000000000000000000000000000000060648201526084015b60405180910390fd5b6040517fcccf7a8e0000000000000000000000000000000000000000000000000000000081526004810183905273ffffffffffffffffffffffffffffffffffffffff84169063cccf7a8e90602401602060405180830381865afa1580156104f3573d6000803e3d6000fd5b505050506040513d601f19601f820116820180604052508101906105179190610dfb565b156105a4576040517f08c379a000000000000000000000000000000000000000000000000000000000815260206004820152603360248201527f5b426c75657072696e7453797374656d5d3a206275696c64696e6720616c726560448201527f61647920686173206120626c75657072696e7400000000000000000000000000606482015260840161047f565b6040517fc3efb53700000000000000000000000000000000000000000000000000000000815273ffffffffffffffffffffffffffffffffffffffff84169063c3efb537906105f89085908590600401610e1d565b600060405180830381600087803b15801561061257600080fd5b505af1158015610626573d6000803e3d6000fd5b50505050505050565b6103c181610784565b6040517ffbdfa1ea00000000000000000000000000000000000000000000000000000000815260048101829052600090819073ffffffffffffffffffffffffffffffffffffffff85169063fbdfa1ea90602401600060405180830381865afa1580156106a8573d6000803e3d6000fd5b505050506040513d6000823e601f3d9081017fffffffffffffffffffffffffffffffffffffffffffffffffffffffffffffffe01682016040526106ee9190810190610e6e565b9050805160000361075b576040517f08c379a000000000000000000000000000000000000000000000000000000000815260206004820152601160248201527f6964206e6f742072656769737465726564000000000000000000000000000000604482015260640161047f565b61077c8160008151811061077157610771610ce6565b602002602001015190565b949350505050565b7f8a22373512790c48b83a1fe2efdd2888d4a917bcdc24d0adf63e60f671680460805460405173ffffffffffffffffffffffffffffffffffffffff8481169216907f8be0079c531659141344cd1fd0a4f28419497f9722a3daafe3b4186f6b6457e090600090a380547fffffffffffffffffffffffff00000000000000000000000000000000000000001673ffffffffffffffffffffffffffffffffffffffff92909216919091179055565b7f4e487b7100000000000000000000000000000000000000000000000000000000600052604160045260246000fd5b6040805190810167ffffffffffffffff8111828210171561088257610882610830565b60405290565b604051601f82017fffffffffffffffffffffffffffffffffffffffffffffffffffffffffffffffe016810167ffffffffffffffff811182821017156108cf576108cf610830565b604052919050565b600060208083850312156108ea57600080fd5b823567ffffffffffffffff8082111561090257600080fd5b818501915085601f83011261091657600080fd5b81358181111561092857610928610830565b610958847fffffffffffffffffffffffffffffffffffffffffffffffffffffffffffffffe0601f84011601610888565b9150808252868482850101111561096e57600080fd5b8084840185840137600090820190930192909252509392505050565b600060208083528351808285015260005b818110156109b75785810183015185820160400152820161099b565b5060006040828601015260407fffffffffffffffffffffffffffffffffffffffffffffffffffffffffffffffe0601f8301168501019250505092915050565b600067ffffffffffffffff821115610a1057610a10610830565b5060051b60200190565b8060030b81146103c157600080fd5b60008060408385031215610a3c57600080fd5b8235915060208084013567ffffffffffffffff811115610a5b57600080fd5b8401601f81018613610a6c57600080fd5b8035610a7f610a7a826109f6565b610888565b81815260059190911b82018301908381019088831115610a9e57600080fd5b928401925b82841015610ac5578335610ab681610a1a565b82529284019290840190610aa3565b80955050505050509250929050565b6000806040808486031215610ae857600080fd5b8335925060208085013567ffffffffffffffff811115610b0757600080fd5b8501601f81018713610b1857600080fd5b8035610b26610a7a826109f6565b81815260069190911b82018301908381019089831115610b4557600080fd5b928401925b82841015610b975785848b031215610b625760008081fd5b610b6a61085f565b8435610b7581610a1a565b815284860135610b8481610a1a565b8187015282529285019290840190610b4a565b8096505050505050509250929050565b600060208284031215610bb957600080fd5b813573ffffffffffffffffffffffffffffffffffffffff8116811461034157600080fd5b6000806040808486031215610bf157600080fd5b8351925060208085015167ffffffffffffffff811115610c1057600080fd5b8501601f81018713610c2157600080fd5b8051610c2f610a7a826109f6565b81815260069190911b82018301908381019089831115610c4e57600080fd5b928401925b82841015610b975785848b031215610c6b5760008081fd5b610c7361085f565b8451610c7e81610a1a565b815284860151610c8d81610a1a565b8187015282529285019290840190610c53565b7f4e487b7100000000000000000000000000000000000000000000000000000000600052601160045260246000fd5b80820281158282048414176102ca576102ca610ca0565b7f4e487b7100000000000000000000000000000000000000000000000000000000600052603260045260246000fd5b808201808211156102ca576102ca610ca0565b60007fffffffffffffffffffffffffffffffffffffffffffffffffffffffffffffffff8203610d5957610d59610ca0565b5060010190565b6000604080830185845260208281860152818651808452606087019150828801935060005b81811015610db25784518051600390810b855290850151900b848401529383019391850191600101610d85565b509098975050505050505050565b600082610df6577f4e487b7100000000000000000000000000000000000000000000000000000000600052601260045260246000fd5b500690565b600060208284031215610e0d57600080fd5b8151801515811461034157600080fd5b6000604082018483526020604081850152818551808452606086019150828701935060005b81811015610e6157845160030b83529383019391830191600101610e42565b5090979650505050505050565b60006020808385031215610e8157600080fd5b825167ffffffffffffffff811115610e9857600080fd5b8301601f81018513610ea957600080fd5b8051610eb7610a7a826109f6565b81815260059190911b82018301908381019087831115610ed657600080fd5b928401925b82841015610ef457835182529284019290840190610edb565b97965050505050505056fea2646970667358221220f7cad8cb5ddb5c6bbcf3b875dc8a00ee5dba840aabf0245b8af388b9a9cd4bbe64736f6c63430008130033",
    "linkReferences": {}
  },
  "methodIdentifiers": {
    "execute(bytes)": "09c5eabe",
    "executeTyped(uint256,(int32,int32)[])": "9ca3a833",
    "executeTyped(uint256,int32[])": "8437c398",
    "owner()": "8da5cb5b",
    "transferOwnership(address)": "f2fde38b"
  },
  "id": 153
}