{
  "abi": [
    {
      "inputs": [
        {
          "internalType": "contract IWorld",
          "name": "_world",
          "type": "address"
        },
        {
          "internalType": "address",
          "name": "_components",
          "type": "address"
        }
      ],
      "stateMutability": "nonpayable",
      "type": "constructor"
    },
    {
      "inputs": [],
      "name": "Ownable__NotOwner",
      "type": "error"
    },
    {
      "inputs": [],
      "name": "Ownable__NotTransitiveOwner",
      "type": "error"
    },
    {
      "anonymous": false,
      "inputs": [
        {
          "indexed": true,
          "internalType": "address",
          "name": "previousOwner",
          "type": "address"
        },
        {
          "indexed": true,
          "internalType": "address",
          "name": "newOwner",
          "type": "address"
        }
      ],
      "name": "OwnershipTransferred",
      "type": "event"
    },
    {
      "inputs": [
        {
          "internalType": "bytes",
          "name": "args",
          "type": "bytes"
        }
      ],
      "name": "execute",
      "outputs": [
        {
          "internalType": "bytes",
          "name": "",
          "type": "bytes"
        }
      ],
      "stateMutability": "nonpayable",
      "type": "function"
    },
    {
      "inputs": [
        {
          "internalType": "uint256",
          "name": "blockType",
          "type": "uint256"
        },
        {
          "components": [
            {
              "internalType": "int32",
              "name": "x",
              "type": "int32"
            },
            {
              "internalType": "int32",
              "name": "y",
              "type": "int32"
            }
          ],
          "internalType": "struct Coord",
          "name": "coord",
          "type": "tuple"
        }
      ],
      "name": "executeTyped",
      "outputs": [
        {
          "internalType": "bytes",
          "name": "",
          "type": "bytes"
        }
      ],
      "stateMutability": "nonpayable",
      "type": "function"
    },
    {
      "inputs": [],
      "name": "owner",
      "outputs": [
        {
          "internalType": "address",
          "name": "",
          "type": "address"
        }
      ],
      "stateMutability": "view",
      "type": "function"
    },
    {
      "inputs": [
        {
          "internalType": "address",
          "name": "account",
          "type": "address"
        }
      ],
      "name": "transferOwnership",
      "outputs": [],
      "stateMutability": "nonpayable",
      "type": "function"
    }
  ],
  "bytecode": {
    "object": "0x60806040523480156200001157600080fd5b5060405162003ac338038062003ac38339810160408190526200003491620001dc565b8181620000413362000149565b6001600160a01b03811615620000585780620000bd565b816001600160a01b031663ba62fbe46040518163ffffffff1660e01b8152600401602060405180830381865afa15801562000097573d6000803e3d6000fd5b505050506040513d601f19601f82011682018060405250810190620000bd91906200021b565b600080546001600160a01b039283166001600160a01b0319918216811790925560018054938616938216841790557ff67304f10c7772c78e439bc5cb07781db345424de8878c18100fdaa64d197a87805482169093179092557ff67304f10c7772c78e439bc5cb07781db345424de8878c18100fdaa64d197a8680549092161790555050505062000242565b7f8a22373512790c48b83a1fe2efdd2888d4a917bcdc24d0adf63e60f67168046080546040516001600160a01b038481169216907f8be0079c531659141344cd1fd0a4f28419497f9722a3daafe3b4186f6b6457e090600090a380546001600160a01b0319166001600160a01b0392909216919091179055565b6001600160a01b0381168114620001d957600080fd5b50565b60008060408385031215620001f057600080fd5b8251620001fd81620001c3565b60208401519092506200021081620001c3565b809150509250929050565b6000602082840312156200022e57600080fd5b81516200023b81620001c3565b9392505050565b61387180620002526000396000f3fe608060405234801561001057600080fd5b506004361061004c5760003560e01c806309c5eabe146100515780638da5cb5b1461007a578063f2f9a0ab146100a7578063f2fde38b146100ba575b600080fd5b61006461005f366004613403565b6100cf565b60405161007191906134b6565b60405180910390f35b6100826120bd565b60405173ffffffffffffffffffffffffffffffffffffffff9091168152602001610071565b6100646100b5366004613531565b612102565b6100cd6100c83660046135b0565b612156565b005b6060600080838060200190518101906100e891906135ed565b60008054929450909250906101339073ffffffffffffffffffffffffffffffffffffffff167f30f1c358b0a577824afcc8e464bcbd763eba254820a547b425765e75cc511f1e6121d2565b600080549192509061017b9073ffffffffffffffffffffffffffffffffffffffff167faf90be6cd7aa92d6569a9ae629178b74e1b0fbdd1097c27ec1dfffd2dc4c75406121d2565b60008054919250906101c39073ffffffffffffffffffffffffffffffffffffffff167f3ee10300fdf6d2b8c2d0e95fa7b5b8c50aa50e011ba55c2da6a5bccfeafb03406121d2565b600080549192509061020b9073ffffffffffffffffffffffffffffffffffffffff167f260499b7630a3093f2f4ce16a340a578c70fc65603511dac57ee1b24a87e1ecd6121d2565b60008054919250906102539073ffffffffffffffffffffffffffffffffffffffff167ffba48a04766694c16713a414735f83be9cb20bbb29b5e18846cc8f15106408456121d2565b90506000610296876040518060400160405280600881526020017f6275696c64696e6700000000000000000000000000000000000000000000000081525061231e565b6040517fcccf7a8e0000000000000000000000000000000000000000000000000000000081526004810182905290915073ffffffffffffffffffffffffffffffffffffffff87169063cccf7a8e90602401602060405180830381865afa158015610304573d6000803e3d6000fd5b505050506040513d601f19601f82011682018060405250810190610328919061365c565b156103ba576040517f08c379a000000000000000000000000000000000000000000000000000000000815260206004820152603460248201527f5b4275696c6453797374656d5d2043616e6e6f74206275696c64206f6e20612060448201527f6e6f6e2d656d70747920636f6f7264696e61746500000000000000000000000060648201526084015b60405180910390fd5b7fa46f07eacbf4d6e00c069dad9b4c9bc8743bfbbc08b881083f59c909623871dd88148061040757507f15acbad8bb5d229c84e3aaeb8cbd8e364b5d0451254865ef4b5f206d4df1a4c588145b8061043157507f7c2b38e44a35ee8d16b0c3780dc10b14624e0dfc9c7d997bd7b2017018c0bdfd88145b8061045b57507f02fcfa4b1578384291174d276cbf45b9ac04481dd20e0e1051d17c6fa0028ce388145b8061048557507fc21aa058984e15d171bb2700beb69b4647d2526ebb432e9a3aee422dd64f038f88145b806104af57507f9d47592473d41327e0ccb0bb0dc69c74c6ac29b77beb0fc78a1c84d6f0bcf87b88145b156104be57611ef2565b611ef2565b7f2e6aeb9730616b6b2a8fcc7abab3fc9310bd984b40af25951e4bdc63a056b92d88016106eb57600080546105299073ffffffffffffffffffffffffffffffffffffffff167fe458f11f65f682a3ca2a47dc42132280325cc5080104dfc7fadff5901e10856e6121d2565b6040517fcccf7a8e00000000000000000000000000000000000000000000000000000000815233600482015290915073ffffffffffffffffffffffffffffffffffffffff82169063cccf7a8e90602401602060405180830381865afa158015610596573d6000803e3d6000fd5b505050506040513d601f19601f820116820180604052508101906105ba919061365c565b15610647576040517f08c379a000000000000000000000000000000000000000000000000000000000815260206004820152603d60248201527f5b4275696c6453797374656d5d2043616e6e6f74206275696c64206d6f72652060448201527f7468616e206f6e65206d61696e2062617365207065722077616c6c657400000060648201526084016103b1565b73ffffffffffffffffffffffffffffffffffffffff811663dcb14c2f336040517fffffffff0000000000000000000000000000000000000000000000000000000060e084901b16815260048101919091528a51600390810b602483015260208c0151900b6044820152606401600060405180830381600087803b1580156106cd57600080fd5b505af11580156106e1573d6000803e3d6000fd5b5050505050611ef2565b7fae4bf9b0cea56d7abe77e850b446c874cf8b84a081e286bec3a38fca387c1d7f880161073f576104b9827f88897217b7ca352fa62012bfb0aa451ebca6a6ff9208f9698f717331232152a76064336123b0565b7fa23d1e8ee3ca4469243bbe16572d35969a79c221937efce820859a82b96585ad8801610793576104b9827f88897217b7ca352fa62012bfb0aa451ebca6a6ff9208f9698f717331232152a76032336123b0565b7fa17e13ed5573d44bb6c31de0ca200a9408b9a9d27140ee7a4bd4e8c437f4353288016108c1576107e5837f235c0901ecb2d6be3116bd81303b4c1c88c7ea0f2bfbce19266cc8d1854d757f33612542565b610871576040517f08c379a000000000000000000000000000000000000000000000000000000000815260206004820152603460248201527f5b4275696c6453797374656d5d20596f752068617665206e6f7420726573656160448201527f726368656420506c6174696e67466163746f727900000000000000000000000060648201526084016103b1565b6104b9827f88897217b7ca352fa62012bfb0aa451ebca6a6ff9208f9698f717331232152a760647f9182d0838cda5b8b8d04b7fdb048ae0d49c90dd4f4ef46ab0958cf6328dfb2ca6032336126a0565b7f686b79f3319ede76c69d24576b62bceeb3460b8f9cea7bad57b6a260be53eb0688016109ef57610913837f4f040f57979596afd571cde8f3c29efd19e1326e0844c8426e782921dda5911033612542565b61099f576040517f08c379a000000000000000000000000000000000000000000000000000000000815260206004820152603960248201527f5b4275696c6453797374656d5d20596f752068617665206e6f7420726573656160448201527f726368656420426173696342617474657279466163746f72790000000000000060648201526084016103b1565b6104b9827f7deaae6bb7615fd1b4e86953f0141ba774ea3adbdd6e2ee244147bfb86aaace560147f9182d0838cda5b8b8d04b7fdb048ae0d49c90dd4f4ef46ab0958cf6328dfb2ca6032336126a0565b7f35da92fd100f97347b744295369046a467523ac692d291a0738a1ca30d5ee2c68801610b4057610a41837fea204a6ce29dba9c40f28e8975853a12b8cb6347ab8709032307f46064f0112c33612542565b610acd576040517f08c379a000000000000000000000000000000000000000000000000000000000815260206004820152603b60248201527f5b4275696c6453797374656d5d20596f752068617665206e6f7420726573656160448201527f7263686564204b696e657469634d697373696c65466163746f7279000000000060648201526084016103b1565b6104b9827f7deaae6bb7615fd1b4e86953f0141ba774ea3adbdd6e2ee244147bfb86aaace560647f17025afdea42119548a0a5f9ec0cdbdcb19e7a9f4b475913071021a3cdbb5bfd60327fbbf0e151801f18e0d112665520a2c0dc8c9590ce85e2851f7f78de30c4c6d51a600a33612931565b7f3a4d8dc360a14145b642fb77fb0948bd80c2e2eb01d22218657c974b98c639648801610c6d57610b92837fffd1fcb03374404e7de4d818d237d911fe2e1d80cf3879d71f2626b819d4b87533612542565b610c1e576040517f08c379a000000000000000000000000000000000000000000000000000000000815260206004820152603860248201527f5b4275696c6453797374656d5d20596f752068617665206e6f7420726573656160448201527f72636865642050726f6a656374696c654c61756e63686572000000000000000060648201526084016103b1565b6104b9827f7deaae6bb7615fd1b4e86953f0141ba774ea3adbdd6e2ee244147bfb86aaace560647f416cd867e38826680c4261f20f5285dd44a10270a8118bdeec1383c9a089cf0481336126a0565b7f7c03320da83e439de71c1696b404fbacc53d2d8a0a4734b9db88590fd25651258801610dbe57610cbf837fb95924e6875f04c5a3a4f2d0229e2b96e1ed5a8d3e46cf904aef2780d874cb8a33612542565b610d4b576040517f08c379a000000000000000000000000000000000000000000000000000000000815260206004820152603360248201527f5b4275696c6453797374656d5d20596f752068617665206e6f7420726573656160448201527f72636865642048617264656e65644472696c6c0000000000000000000000000060648201526084016103b1565b6104b9827f416cd867e38826680c4261f20f5285dd44a10270a8118bdeec1383c9a089cf0460647f7deaae6bb7615fd1b4e86953f0141ba774ea3adbdd6e2ee244147bfb86aaace5600a7fbbf0e151801f18e0d112665520a2c0dc8c9590ce85e2851f7f78de30c4c6d51a600533612931565b7f32b37c391b455299fd771766ecb47b741bc2daf141a9c5ca58bbf01906bdf25f8801610f3257610e10837ffc26536609d31ba7df64ebe6672ae6bfb37e36e18e66208d8a58b89a70b633c833612542565b610e9c576040517f08c379a000000000000000000000000000000000000000000000000000000000815260206004820152603860248201527f5b4275696c6453797374656d5d20596f752068617665206e6f7420726573656160448201527f72636865642044656e73654d6574616c526566696e657279000000000000000060648201526084016103b1565b6104b9827f6c4cf968092a55522769ad001f5a4d068bbdc6ea30a7d8f460833f83e9c9727c60327f416cd867e38826680c4261f20f5285dd44a10270a8118bdeec1383c9a089cf0460647f7deaae6bb7615fd1b4e86953f0141ba774ea3adbdd6e2ee244147bfb86aaace5601e7fbbf0e151801f18e0d112665520a2c0dc8c9590ce85e2851f7f78de30c4c6d51a600a33612cc6565b7f40e911ba600baf1e6d790e75adab097699d145aed1eef91057c1577929177de4880161108357610f84837fd1c83bdf63c0b447986d120a774ab7ac5386de233bb9e439ba87c015cdd62b0033612542565b611010576040517f08c379a000000000000000000000000000000000000000000000000000000000815260206004820152603c60248201527f5b4275696c6453797374656d5d20596f752068617665206e6f7420726573656160448201527f726368656420416476616e63656442617474657279466163746f72790000000060648201526084016103b1565b6104b9827f6c4cf968092a55522769ad001f5a4d068bbdc6ea30a7d8f460833f83e9c9727c60967f416cd867e38826680c4261f20f5285dd44a10270a8118bdeec1383c9a089cf0460327fbbf0e151801f18e0d112665520a2c0dc8c9590ce85e2851f7f78de30c4c6d51a601433612931565b7fbdafcbe24f4e703f51ff58c70e95148801afa615e1bf67487b7747f82bf72a9288016111d3576110d5837fd54023cead523bcfdb7c93c7143ba493534ec0f442756a4d1e6089ce015fc65933612542565b611161576040517f08c379a000000000000000000000000000000000000000000000000000000000815260206004820152603560248201527f5b4275696c6453797374656d5d20596f752068617665206e6f7420726573656160448201527f7263686564204869676854656d70466f756e647279000000000000000000000060648201526084016103b1565b6104b9827ff22d62753c9bef149557affda667bdaa3aff1e69179b0c09e101bfc462bf4fae60327f5affe8a57277a7102b0bbaade99cebaf060fa104c6f9b2ef54bc3d0b5009e463817f19ddbba09381803c7aefa2731f58c344a8370583a0b53b4213e30ce69a4c85c0601433612931565b7fec5b7e9ce45edb6538af2d52ef70875736a939902e29d32d3f4bb95c379a44d5880161132357611225837f87292eb387cbbcd9a9067691107c920d7d17fd8dfe1437fa5e832d66aedbacf633612542565b6112b1576040517f08c379a000000000000000000000000000000000000000000000000000000000815260206004820152603f60248201527f5b4275696c6453797374656d5d20596f752068617665206e6f7420726573656160448201527f726368656420507265636973696f6e4d616368696e657279466163746f72790060648201526084016103b1565b6104b9827fb533b87fd579e6a4bd7adf53c6573acece50e469a2a3480b5694a32c710af29160327f86e73de3ac620e292e280fd2df5d7acbc4c214f5d881d6a384e0de3ad7d91cd5817f19ddbba09381803c7aefa2731f58c344a8370583a0b53b4213e30ce69a4c85c0600a33612931565b7fcd1907853155b3d2ce6ea6ada1b053832e83c1b31121e98a66cfc42e2a088d62880161145157611375837ff13245ed83494d4c6fe95d3843c0970f02232874bb3f7cff30407434d0401eb133612542565b611401576040517f08c379a000000000000000000000000000000000000000000000000000000000815260206004820152603c60248201527f5b4275696c6453797374656d5d20596f752068617665206e6f7420726573656160448201527f7263686564204972696469756d4472696c6c626974466163746f72790000000060648201526084016103b1565b6104b9827f86e73de3ac620e292e280fd2df5d7acbc4c214f5d881d6a384e0de3ad7d91cd560327fcb4b1a16e996a77db534cc9953e3a609aaf28bd5d6665555df84fa08ffc034656005336126a0565b7fe9e48dffd496547e5dae41d617fc9075a75598b7ac63e38f961378ad710bedd988016115a1576114a3837fc4dbe14fc0f902efdf42c54f2c8cf5cd4d716e2a5eb275acc5beff21e1f5f1a933612542565b61152f576040517f08c379a000000000000000000000000000000000000000000000000000000000815260206004820152603d60248201527f5b4275696c6453797374656d5d20596f752068617665206e6f7420726573656160448201527f726368656420507265636973696f6e506e65756d617469634472696c6c00000060648201526084016103b1565b6104b9827ff22d62753c9bef149557affda667bdaa3aff1e69179b0c09e101bfc462bf4fae60647f6c4cf968092a55522769ad001f5a4d068bbdc6ea30a7d8f460833f83e9c9727c817fcb4b1a16e996a77db534cc9953e3a609aaf28bd5d6665555df84fa08ffc03465600533612931565b7f2759bc05ce7247533776bf1465353daa5c1b0ab7168a7f1480d2221f4a349eea88016116f2576115f3837fa9cb069084fa4d92fd4210cdfeb9cdfc2024d4b88cc9ca025fee1218a909fd9633612542565b61167f576040517f08c379a000000000000000000000000000000000000000000000000000000000815260206004820152603760248201527f5b4275696c6453797374656d5d20596f752068617665206e6f7420726573656160448201527f72636865642050656e65747261746f72466163746f727900000000000000000060648201526084016103b1565b6104b9827f6c4cf968092a55522769ad001f5a4d068bbdc6ea30a7d8f460833f83e9c9727c60c87f7deaae6bb7615fd1b4e86953f0141ba774ea3adbdd6e2ee244147bfb86aaace560327f19ddbba09381803c7aefa2731f58c344a8370583a0b53b4213e30ce69a4c85c0600a33612931565b7f0639fa347eb62f5175a2632f66ba513e772d5eac88988a8d4ade404f41a37f13880161184457611744837fe157609bd85da8e39a6f459aa0211b3efc77ae500757df7a10f6366fe0b7a65f33612542565b6117d0576040517f08c379a000000000000000000000000000000000000000000000000000000000815260206004820152603f60248201527f5b4275696c6453797374656d5d20596f752068617665206e6f7420726573656160448201527f72636865642050656e6574726174696e674d697373696c65466163746f72790060648201526084016103b1565b6104b9827f6c4cf968092a55522769ad001f5a4d068bbdc6ea30a7d8f460833f83e9c9727c61012c7f416cd867e38826680c4261f20f5285dd44a10270a8118bdeec1383c9a089cf0460647f19ddbba09381803c7aefa2731f58c344a8370583a0b53b4213e30ce69a4c85c0600f33612931565b7fda9365807ba5c5ee234ae3ea6277aa8ffa5ffa598631932ef5a7c4fd7162c975880161197157611896837f896a57760f9c98d29b2620819cea7ed21e44fbb91677668899fb4930870380fb33612542565b611922576040517f08c379a000000000000000000000000000000000000000000000000000000000815260206004820152603a60248201527f5b4275696c6453797374656d5d20596f752068617665206e6f7420726573656160448201527f7263686564204d697373696c654c61756e6368436f6d706c657800000000000060648201526084016103b1565b6104b9827f86e73de3ac620e292e280fd2df5d7acbc4c214f5d881d6a384e0de3ad7d91cd560647f6c4cf968092a55522769ad001f5a4d068bbdc6ea30a7d8f460833f83e9c9727c81336126a0565b7f304a91d15cb7babf8c0392b01bdd5a69c2364e4189380b1b194373021c652d478801611ac1576119c3837fac9deee200a44d5f4210ac7c1da068ad17b9083e8a7f14172f6a25b4f3460d3133612542565b611a4f576040517f08c379a000000000000000000000000000000000000000000000000000000000815260206004820152603c60248201527f5b4275696c6453797374656d5d20596f752068617665206e6f7420726573656160448201527f72636865642048696768456e657267794c61736572466163746f72790000000060648201526084016103b1565b6104b9827f411675c9d4275dfb3010259013ee279130ee32a3a7d9b6372c9b3a0cf2fe007c60327f5affe8a57277a7102b0bbaade99cebaf060fa104c6f9b2ef54bc3d0b5009e46360647f19ddbba09381803c7aefa2731f58c344a8370583a0b53b4213e30ce69a4c85c08333612931565b7f3d6eee3e4fc13c94812898bd3b641c1ba38b8d0a323bfc9147cd9c70c2dc0a538801611c1257611b13837f187eed5b6ee1a8a71730c9ced07e70fc9a7b2e61ad2958ab8e225726ae5f5b4933612542565b611b9f576040517f08c379a000000000000000000000000000000000000000000000000000000000815260206004820152603f60248201527f5b4275696c6453797374656d5d20596f752068617665206e6f7420726573656160448201527f726368656420546865726d6f626172696357617268656164466163746f72790060648201526084016103b1565b6104b9827f5affe8a57277a7102b0bbaade99cebaf060fa104c6f9b2ef54bc3d0b5009e46360c87f411675c9d4275dfb3010259013ee279130ee32a3a7d9b6372c9b3a0cf2fe007c60647fcb4b1a16e996a77db534cc9953e3a609aaf28bd5d6665555df84fa08ffc03465600a33612931565b7fd767df16a593c30c6a66a29d7c70f4445ea59138ad58916c34684867859396cb8801611d6257611c64837f6af32c86ed1659c55ab853a935afe62bba1e42db9f98b210a164802c3e56824e33612542565b611cf0576040517f08c379a000000000000000000000000000000000000000000000000000000000815260206004820152603f60248201527f5b4275696c6453797374656d5d20596f752068617665206e6f7420726573656160448201527f726368656420546865726d6f62617269634d697373696c65466163746f72790060648201526084016103b1565b6104b9827f411675c9d4275dfb3010259013ee279130ee32a3a7d9b6372c9b3a0cf2fe007c60647f86e73de3ac620e292e280fd2df5d7acbc4c214f5d881d6a384e0de3ad7d91cd5817fcb4b1a16e996a77db534cc9953e3a609aaf28bd5d6665555df84fa08ffc03465601433612931565b7f7cab7eb400c7f57eb5563db5578f15875cf780008cb8b9a1e3f303db315efecd8801611e9057611db4837f93db5cedec79d00f6b02e8013d875b5a214b76ef307fb53397239429d6c54cee33612542565b611e40576040517f08c379a000000000000000000000000000000000000000000000000000000000815260206004820152603f60248201527f5b4275696c6453797374656d5d20596f752068617665206e6f7420726573656160448201527f7263686564204b696d6265726c697465436174616c797374466163746f72790060648201526084016103b1565b6104b9827f411675c9d4275dfb3010259013ee279130ee32a3a7d9b6372c9b3a0cf2fe007c60c87fcb4b1a16e996a77db534cc9953e3a609aaf28bd5d6665555df84fa08ffc034656014336126a0565b6040517f08c379a000000000000000000000000000000000000000000000000000000000815260206004820181905260248201527f5b4275696c6453797374656d5d20496e76616c696420626c6f636b207479706560448201526064016103b1565b6040517f1ab06ee5000000000000000000000000000000000000000000000000000000008152600481018290526024810189905273ffffffffffffffffffffffffffffffffffffffff871690631ab06ee590604401600060405180830381600087803b158015611f6157600080fd5b505af1158015611f75573d6000803e3d6000fd5b50505073ffffffffffffffffffffffffffffffffffffffff86169050631ab06ee582336040517fffffffff0000000000000000000000000000000000000000000000000000000060e085901b16815260048101929092526024820152604401600060405180830381600087803b158015611fee57600080fd5b505af1158015612002573d6000803e3d6000fd5b50506040517f1ab06ee50000000000000000000000000000000000000000000000000000000081526004810184905243602482015273ffffffffffffffffffffffffffffffffffffffff87169250631ab06ee59150604401600060405180830381600087803b15801561207457600080fd5b505af1158015612088573d6000803e3d6000fd5b505050508060405160200161209f91815260200190565b60405160208183030381529060405298505050505050505050919050565b60006120fd7f8a22373512790c48b83a1fe2efdd2888d4a917bcdc24d0adf63e60f6716804605473ffffffffffffffffffffffffffffffffffffffff1690565b905090565b606061214d83836040516020016121399291909182528051600390810b60208085019190915290910151900b604082015260600190565b6040516020818303038152906040526100cf565b90505b92915050565b7f8a22373512790c48b83a1fe2efdd2888d4a917bcdc24d0adf63e60f6716804605473ffffffffffffffffffffffffffffffffffffffff1633146121c6576040517f2f7a8ee100000000000000000000000000000000000000000000000000000000815260040160405180910390fd5b6121cf8161317b565b50565b6040517ffbdfa1ea00000000000000000000000000000000000000000000000000000000815260048101829052600090819073ffffffffffffffffffffffffffffffffffffffff85169063fbdfa1ea90602401600060405180830381865afa158015612242573d6000803e3d6000fd5b505050506040513d6000823e601f3d9081017fffffffffffffffffffffffffffffffffffffffffffffffffffffffffffffffe0168201604052612288919081019061367e565b905080516000036122f5576040517f08c379a000000000000000000000000000000000000000000000000000000000815260206004820152601160248201527f6964206e6f74207265676973746572656400000000000000000000000000000060448201526064016103b1565b6123168160008151811061230b5761230b613724565b602002602001015190565b949350505050565b6000826000015160e01b836020015160e01b8361233a90613753565b604080517fffffffff0000000000000000000000000000000000000000000000000000000094851660208201529390921660248401527fffffffffffffffffffffffffffffffffffffffffffffffff00000000000000001660288301520160405160208183030381529060405261214d906137a3565b604080516020808201869052818301849052825180830384018152606090920190925280519101206000906123eb908690613184565b613184565b90508281101561247d576040517f08c379a000000000000000000000000000000000000000000000000000000000815260206004820152602260248201527f5b4275696c6453797374656d5d204e6f7420656e6f756768207265736f75726360448201527f657300000000000000000000000000000000000000000000000000000000000060648201526084016103b1565b6040805160208082018790528183018590528251808303840181526060909201909252805191012073ffffffffffffffffffffffffffffffffffffffff861690631ab06ee5906124cd86856137e8565b6040517fffffffff0000000000000000000000000000000000000000000000000000000060e085901b16815260048101929092526024820152604401600060405180830381600087803b15801561252357600080fd5b505af1158015612537573d6000803e3d6000fd5b505050505050505050565b6040805160208082018590528183018490528251808303840181526060909201909252805191012060009081906040517fcccf7a8e0000000000000000000000000000000000000000000000000000000081526004810182905290915073ffffffffffffffffffffffffffffffffffffffff86169063cccf7a8e90602401602060405180830381865afa1580156125dd573d6000803e3d6000fd5b505050506040513d601f19601f82011682018060405250810190612601919061365c565b801561269757506040517f0ff4c9160000000000000000000000000000000000000000000000000000000081526004810182905273ffffffffffffffffffffffffffffffffffffffff861690630ff4c91690602401602060405180830381865afa158015612673573d6000803e3d6000fd5b505050506040513d601f19601f82011682018060405250810190612697919061365c565b95945050505050565b604080516020808201889052818301849052825180830384018152606090920190925280519101206000906126d6908890613184565b9050600061270f886123e68786604080516020808201949094528082019290925280518083038201815260609092019052805191012090565b90508582108061271e57508381105b156127ab576040517f08c379a000000000000000000000000000000000000000000000000000000000815260206004820152602260248201527f5b4275696c6453797374656d5d204e6f7420656e6f756768207265736f75726360448201527f657300000000000000000000000000000000000000000000000000000000000060648201526084016103b1565b6040805160208082018a90528183018690528251808303840181526060909201909252805191012073ffffffffffffffffffffffffffffffffffffffff891690631ab06ee5906127fb89866137e8565b6040517fffffffff0000000000000000000000000000000000000000000000000000000060e085901b16815260048101929092526024820152604401600060405180830381600087803b15801561285157600080fd5b505af1158015612865573d6000803e3d6000fd5b50506040805160208082018a90528183018890528251808303840181526060909201909252805191012073ffffffffffffffffffffffffffffffffffffffff8b169250631ab06ee591506128b987856137e8565b6040517fffffffff0000000000000000000000000000000000000000000000000000000060e085901b16815260048101929092526024820152604401600060405180830381600087803b15801561290f57600080fd5b505af1158015612923573d6000803e3d6000fd5b505050505050505050505050565b6040805160208082018a905281830184905282518083038401815260609092019092528051910120600090612967908a90613184565b905060006129a08a6123e68986604080516020808201949094528082019290925280518083038201815260609092019052805191012090565b905060006129d98b6123e68887604080516020808201949094528082019290925280518083038201815260609092019052805191012090565b9050888310806129e857508682105b806129f257508481105b15612a7f576040517f08c379a000000000000000000000000000000000000000000000000000000000815260206004820152602260248201527f5b4275696c6453797374656d5d204e6f7420656e6f756768207265736f75726360448201527f657300000000000000000000000000000000000000000000000000000000000060648201526084016103b1565b6040805160208082018d90528183018790528251808303840181526060909201909252805191012073ffffffffffffffffffffffffffffffffffffffff8c1690631ab06ee590612acf8c876137e8565b6040517fffffffff0000000000000000000000000000000000000000000000000000000060e085901b16815260048101929092526024820152604401600060405180830381600087803b158015612b2557600080fd5b505af1158015612b39573d6000803e3d6000fd5b50506040805160208082018d90528183018990528251808303840181526060909201909252805191012073ffffffffffffffffffffffffffffffffffffffff8e169250631ab06ee59150612b8d8a866137e8565b6040517fffffffff0000000000000000000000000000000000000000000000000000000060e085901b16815260048101929092526024820152604401600060405180830381600087803b158015612be357600080fd5b505af1158015612bf7573d6000803e3d6000fd5b50506040805160208082018b90528183018990528251808303840181526060909201909252805191012073ffffffffffffffffffffffffffffffffffffffff8e169250631ab06ee59150612c4b88856137e8565b6040517fffffffff0000000000000000000000000000000000000000000000000000000060e085901b16815260048101929092526024820152604401600060405180830381600087803b158015612ca157600080fd5b505af1158015612cb5573d6000803e3d6000fd5b505050505050505050505050505050565b6040805160208082018c905281830184905282518083038401815260609092019092528051910120600090612cfc908c90613184565b90506000612d358c6123e68b86604080516020808201949094528082019290925280518083038201815260609092019052805191012090565b90506000612d6e8d6123e68a87604080516020808201949094528082019290925280518083038201815260609092019052805191012090565b90506000612da78e6123e68988604080516020808201949094528082019290925280518083038201815260609092019052805191012090565b90508b841080612db657508983105b80612dc057508782105b80612dca57508581105b15612e57576040517f08c379a000000000000000000000000000000000000000000000000000000000815260206004820152602260248201527f5b4275696c6453797374656d5d204e6f7420656e6f756768207265736f75726360448201527f657300000000000000000000000000000000000000000000000000000000000060648201526084016103b1565b8d73ffffffffffffffffffffffffffffffffffffffff16631ab06ee5612ea48f88604080516020808201949094528082019290925280518083038201815260609092019052805191012090565b612eae8f886137e8565b6040517fffffffff0000000000000000000000000000000000000000000000000000000060e085901b16815260048101929092526024820152604401600060405180830381600087803b158015612f0457600080fd5b505af1158015612f18573d6000803e3d6000fd5b505050508d73ffffffffffffffffffffffffffffffffffffffff16631ab06ee5612f698d88604080516020808201949094528082019290925280518083038201815260609092019052805191012090565b612f738d876137e8565b6040517fffffffff0000000000000000000000000000000000000000000000000000000060e085901b16815260048101929092526024820152604401600060405180830381600087803b158015612fc957600080fd5b505af1158015612fdd573d6000803e3d6000fd5b505050508d73ffffffffffffffffffffffffffffffffffffffff16631ab06ee561302e8b88604080516020808201949094528082019290925280518083038201815260609092019052805191012090565b6130388b866137e8565b6040517fffffffff0000000000000000000000000000000000000000000000000000000060e085901b16815260048101929092526024820152604401600060405180830381600087803b15801561308e57600080fd5b505af11580156130a2573d6000803e3d6000fd5b505050508d73ffffffffffffffffffffffffffffffffffffffff16631ab06ee56130f38988604080516020808201949094528082019290925280518083038201815260609092019052805191012090565b6130fd89856137e8565b6040517fffffffff0000000000000000000000000000000000000000000000000000000060e085901b16815260048101929092526024820152604401600060405180830381600087803b15801561315357600080fd5b505af1158015613167573d6000803e3d6000fd5b505050505050505050505050505050505050565b6121cf816132b0565b6040517fcccf7a8e0000000000000000000000000000000000000000000000000000000081526004810182905260009073ffffffffffffffffffffffffffffffffffffffff84169063cccf7a8e90602401602060405180830381865afa1580156131f2573d6000803e3d6000fd5b505050506040513d601f19601f82011682018060405250810190613216919061365c565b61322157600061214d565b6040517f0ff4c9160000000000000000000000000000000000000000000000000000000081526004810183905273ffffffffffffffffffffffffffffffffffffffff841690630ff4c91690602401602060405180830381865afa15801561328c573d6000803e3d6000fd5b505050506040513d601f19601f8201168201806040525081019061214d9190613822565b7f8a22373512790c48b83a1fe2efdd2888d4a917bcdc24d0adf63e60f671680460805460405173ffffffffffffffffffffffffffffffffffffffff8481169216907f8be0079c531659141344cd1fd0a4f28419497f9722a3daafe3b4186f6b6457e090600090a380547fffffffffffffffffffffffff00000000000000000000000000000000000000001673ffffffffffffffffffffffffffffffffffffffff92909216919091179055565b7f4e487b7100000000000000000000000000000000000000000000000000000000600052604160045260246000fd5b6040805190810167ffffffffffffffff811182821017156133ae576133ae61335c565b60405290565b604051601f82017fffffffffffffffffffffffffffffffffffffffffffffffffffffffffffffffe016810167ffffffffffffffff811182821017156133fb576133fb61335c565b604052919050565b6000602080838503121561341657600080fd5b823567ffffffffffffffff8082111561342e57600080fd5b818501915085601f83011261344257600080fd5b8135818111156134545761345461335c565b613484847fffffffffffffffffffffffffffffffffffffffffffffffffffffffffffffffe0601f840116016133b4565b9150808252868482850101111561349a57600080fd5b8084840185840137600090820190930192909252509392505050565b600060208083528351808285015260005b818110156134e3578581018301518582016040015282016134c7565b5060006040828601015260407fffffffffffffffffffffffffffffffffffffffffffffffffffffffffffffffe0601f8301168501019250505092915050565b8060030b81146121cf57600080fd5b600080828403606081121561354557600080fd5b8335925060407fffffffffffffffffffffffffffffffffffffffffffffffffffffffffffffffe08201121561357957600080fd5b5061358261338b565b602084013561359081613522565b815260408401356135a081613522565b6020820152919491935090915050565b6000602082840312156135c257600080fd5b813573ffffffffffffffffffffffffffffffffffffffff811681146135e657600080fd5b9392505050565b600080828403606081121561360157600080fd5b8351925060407fffffffffffffffffffffffffffffffffffffffffffffffffffffffffffffffe08201121561363557600080fd5b5061363e61338b565b602084015161364c81613522565b815260408401516135a081613522565b60006020828403121561366e57600080fd5b815180151581146135e657600080fd5b6000602080838503121561369157600080fd5b825167ffffffffffffffff808211156136a957600080fd5b818501915085601f8301126136bd57600080fd5b8151818111156136cf576136cf61335c565b8060051b91506136e08483016133b4565b81815291830184019184810190888411156136fa57600080fd5b938501935b83851015613718578451825293850193908501906136ff565b98975050505050505050565b7f4e487b7100000000000000000000000000000000000000000000000000000000600052603260045260246000fd5b6000815160208301517fffffffffffffffffffffffffffffffffffffffffffffffff00000000000000008082169350601883101561379b5780818460180360031b1b83161693505b505050919050565b805160208083015191908110156137e2577fffffffffffffffffffffffffffffffffffffffffffffffffffffffffffffffff8160200360031b1b821691505b50919050565b81810381811115612150577f4e487b7100000000000000000000000000000000000000000000000000000000600052601160045260246000fd5b60006020828403121561383457600080fd5b505191905056fea26469706673582212206a84edf7f0ab8d5c64d76ac1d27ce5366b55273e3f90462ba95533eee26c162a64736f6c63430008130033",
    "linkReferences": {}
  },
  "methodIdentifiers": {
    "execute(bytes)": "09c5eabe",
    "executeTyped(uint256,(int32,int32))": "f2f9a0ab",
    "owner()": "8da5cb5b",
    "transferOwnership(address)": "f2fde38b"
  },
  "id": 113
}