{
  "abi": [
    {
      "inputs": [
        {
          "internalType": "contract IWorld",
          "name": "_world",
          "type": "address"
        },
        {
          "internalType": "address",
          "name": "_components",
          "type": "address"
        }
      ],
      "stateMutability": "nonpayable",
      "type": "constructor"
    },
    {
      "inputs": [],
      "name": "Ownable__NotOwner",
      "type": "error"
    },
    {
      "inputs": [],
      "name": "Ownable__NotTransitiveOwner",
      "type": "error"
    },
    {
      "anonymous": false,
      "inputs": [
        {
          "indexed": true,
          "internalType": "address",
          "name": "previousOwner",
          "type": "address"
        },
        {
          "indexed": true,
          "internalType": "address",
          "name": "newOwner",
          "type": "address"
        }
      ],
      "name": "OwnershipTransferred",
      "type": "event"
    },
    {
      "inputs": [
        {
          "internalType": "bytes",
          "name": "args",
          "type": "bytes"
        }
      ],
      "name": "execute",
      "outputs": [
        {
          "internalType": "bytes",
          "name": "",
          "type": "bytes"
        }
      ],
      "stateMutability": "nonpayable",
      "type": "function"
    },
    {
      "inputs": [
        {
          "internalType": "address",
          "name": "playerAddress",
          "type": "address"
        },
        {
          "internalType": "uint256",
          "name": "fromBuildingEntity",
          "type": "uint256"
        },
        {
          "internalType": "uint256",
          "name": "toBuildingEntity",
          "type": "uint256"
        }
      ],
      "name": "executeTyped",
      "outputs": [
        {
          "internalType": "bytes",
          "name": "",
          "type": "bytes"
        }
      ],
      "stateMutability": "nonpayable",
      "type": "function"
    },
    {
      "inputs": [],
      "name": "owner",
      "outputs": [
        {
          "internalType": "address",
          "name": "",
          "type": "address"
        }
      ],
      "stateMutability": "view",
      "type": "function"
    },
    {
      "inputs": [
        {
          "internalType": "address",
          "name": "account",
          "type": "address"
        }
      ],
      "name": "transferOwnership",
      "outputs": [],
      "stateMutability": "nonpayable",
      "type": "function"
    }
  ],
  "bytecode": {
    "object": "0x60806040523480156200001157600080fd5b5060405162002c8a38038062002c8a8339810160408190526200003491620001e0565b8181818162000043336200014d565b6001600160a01b038116156200005a5780620000bf565b816001600160a01b031663ba62fbe46040518163ffffffff1660e01b8152600401602060405180830381865afa15801562000099573d6000803e3d6000fd5b505050506040513d601f19601f82011682018060405250810190620000bf91906200021f565b600080546001600160a01b039283166001600160a01b0319918216811790925560018054938616938216841790557ff67304f10c7772c78e439bc5cb07781db345424de8878c18100fdaa64d197a87805482169093179092557ff67304f10c7772c78e439bc5cb07781db345424de8878c18100fdaa64d197a86805490921617905550505050505062000246565b7f8a22373512790c48b83a1fe2efdd2888d4a917bcdc24d0adf63e60f67168046080546040516001600160a01b038481169216907f8be0079c531659141344cd1fd0a4f28419497f9722a3daafe3b4186f6b6457e090600090a380546001600160a01b0319166001600160a01b0392909216919091179055565b6001600160a01b0381168114620001dd57600080fd5b50565b60008060408385031215620001f457600080fd5b82516200020181620001c7565b60208401519092506200021481620001c7565b809150509250929050565b6000602082840312156200023257600080fd5b81516200023f81620001c7565b9392505050565b612a3480620002566000396000f3fe608060405234801561001057600080fd5b506004361061004c5760003560e01c806309c5eabe146100515780638da5cb5b1461007a578063ed08141e146100a7578063f2fde38b146100ba575b600080fd5b61006461005f3660046124c6565b6100cf565b6040516100719190612579565b60405180910390f35b6100826108f6565b60405173ffffffffffffffffffffffffffffffffffffffff9091168152602001610071565b6100646100b5366004612607565b61093b565b6100cd6100c836600461263c565b61098d565b005b606061018b600160009054906101000a900473ffffffffffffffffffffffffffffffffffffffff1673ffffffffffffffffffffffffffffffffffffffff16630d59332e6040518163ffffffff1660e01b8152600401602060405180830381865afa158015610141573d6000803e3d6000fd5b505050506040513d601f19601f820116820180604052508101906101659190612659565b7f9d56d809d9533f83d16954f67b7304a365b59083abb67bc9d95ee7ab809e9554610a09565b73ffffffffffffffffffffffffffffffffffffffff163373ffffffffffffffffffffffffffffffffffffffff1614610270576040517f08c379a000000000000000000000000000000000000000000000000000000000815260206004820152604760248201527f4275696c645061746846726f6d4d696e65546f466163746f72793a204f6e6c7960448201527f204275696c645061746853797374656d2063616e2063616c6c2074686973206660648201527f756e6374696f6e00000000000000000000000000000000000000000000000000608482015260a4015b60405180910390fd5b6000806000848060200190518101906102899190612676565b9194509250905060006104236102be7f30f1c358b0a577824afcc8e464bcbd763eba254820a547b425765e75cc511f1e610b57565b73ffffffffffffffffffffffffffffffffffffffff16630ff4c916846040518263ffffffff1660e01b81526004016102f891815260200190565b602060405180830381865afa158015610315573d6000803e3d6000fd5b505050506040513d601f19601f8201168201806040525081019061033991906126ad565b60005461037c9073ffffffffffffffffffffffffffffffffffffffff167ff79fe0c9ac8ebbe25f4c70b53af3a544460171cd0578bf2b3c5291c3d98a47ec610a09565b73ffffffffffffffffffffffffffffffffffffffff16630ff4c916856040518263ffffffff1660e01b81526004016103b691815260200190565b602060405180830381865afa1580156103d3573d6000803e3d6000fd5b505050506040513d601f19601f820116820180604052508101906103f791906126ad565b604080516020808201949094528082019290925280518083038201815260609092019052805191012090565b905060006104507f98ae6e39b6a858b1e7ad1d701d4818f1fd32693c155ff6b2221a4140af0d7919610b57565b73ffffffffffffffffffffffffffffffffffffffff16630ff4c916836040518263ffffffff1660e01b815260040161048a91815260200190565b6040805180830381865afa1580156104a6573d6000803e3d6000fd5b505050506040513d601f19601f820116820180604052508101906104ca91906126c6565b5160015490915061050e9073ffffffffffffffffffffffffffffffffffffffff166105088773ffffffffffffffffffffffffffffffffffffffff1690565b83610b7b565b61051884846113a1565b6105a4576040517f08c379a000000000000000000000000000000000000000000000000000000000815260206004820152603b60248201527f5b4275696c645061746853797374656d5d2043616e6e6f74206275696c64207060448201527f61746820746f2061207468652074617267657420666163746f727900000000006064820152608401610267565b6105cd7fcabc06205c984db0f3ebca7b107980eafab5163e9a8d77445f085dc3030950b9610b57565b73ffffffffffffffffffffffffffffffffffffffff1663cccf7a8e846040518263ffffffff1660e01b815260040161060791815260200190565b602060405180830381865afa158015610624573d6000803e3d6000fd5b505050506040513d601f19601f8201168201806040525081019061064891906126f8565b80156106f357506106787f0d469bcaf5f43a6290ca2906ecdeb5ef80d7723e8cad27045bddb6e1eb9da435610b57565b73ffffffffffffffffffffffffffffffffffffffff1663cccf7a8e846040518263ffffffff1660e01b81526004016106b291815260200190565b602060405180830381865afa1580156106cf573d6000803e3d6000fd5b505050506040513d601f19601f820116820180604052508101906106f391906126f8565b1561080d5773ffffffffffffffffffffffffffffffffffffffff8516600061073a7f98ae6e39b6a858b1e7ad1d701d4818f1fd32693c155ff6b2221a4140af0d7919610b57565b73ffffffffffffffffffffffffffffffffffffffff16630ff4c916856040518263ffffffff1660e01b815260040161077491815260200190565b6040805180830381865afa158015610790573d6000803e3d6000fd5b505050506040513d601f19601f820116820180604052508101906107b491906126c6565b60015481519192506107e09173ffffffffffffffffffffffffffffffffffffffff909116908490610b7b565b6001805461080a9173ffffffffffffffffffffffffffffffffffffffff9091169084908790611b2f565b50505b6108367f0d469bcaf5f43a6290ca2906ecdeb5ef80d7723e8cad27045bddb6e1eb9da435610b57565b6040517f1ab06ee5000000000000000000000000000000000000000000000000000000008152600481018690526024810185905273ffffffffffffffffffffffffffffffffffffffff9190911690631ab06ee590604401600060405180830381600087803b1580156108a757600080fd5b505af11580156108bb573d6000803e3d6000fd5b5050505083836040516020016108db929190918252602082015260400190565b60405160208183030381529060405295505050505050919050565b60006109367f8a22373512790c48b83a1fe2efdd2888d4a917bcdc24d0adf63e60f6716804605473ffffffffffffffffffffffffffffffffffffffff1690565b905090565b6040805173ffffffffffffffffffffffffffffffffffffffff85166020820152908101839052606081810183905290610985906080016040516020818303038152906040526100cf565b949350505050565b7f8a22373512790c48b83a1fe2efdd2888d4a917bcdc24d0adf63e60f6716804605473ffffffffffffffffffffffffffffffffffffffff1633146109fd576040517f2f7a8ee100000000000000000000000000000000000000000000000000000000815260040160405180910390fd5b610a0681611dac565b50565b6040517ffbdfa1ea00000000000000000000000000000000000000000000000000000000815260048101829052600090819073ffffffffffffffffffffffffffffffffffffffff85169063fbdfa1ea90602401600060405180830381865afa158015610a79573d6000803e3d6000fd5b505050506040513d6000823e601f3d9081017fffffffffffffffffffffffffffffffffffffffffffffffffffffffffffffffe0168201604052610abf919081019061278f565b90508051600003610b2c576040517f08c379a000000000000000000000000000000000000000000000000000000000815260206004820152601160248201527f6964206e6f7420726567697374657265640000000000000000000000000000006044820152606401610267565b610b4d81600081518110610b4257610b426127c4565b602002602001015190565b9150505b92915050565b60008054610b519073ffffffffffffffffffffffffffffffffffffffff1683610a09565b6040517f4f27da180000000000000000000000000000000000000000000000000000000081527f28af5d27f505af4c2623e23765f78ddc3a122099072ad9e28ef93b476bccb6c7600482015260009073ffffffffffffffffffffffffffffffffffffffff851690634f27da1890602401602060405180830381865afa158015610c08573d6000803e3d6000fd5b505050506040513d601f19601f82011682018060405250810190610c2c9190612659565b6040517f4f27da180000000000000000000000000000000000000000000000000000000081527fe95fc307e3922a4ed7e1a9d135b2e79aad91e806428d8c7ec9a376dfc8aede5e600482015290915060009073ffffffffffffffffffffffffffffffffffffffff861690634f27da1890602401602060405180830381865afa158015610cbc573d6000803e3d6000fd5b505050506040513d601f19601f82011682018060405250810190610ce09190612659565b6040517f4f27da180000000000000000000000000000000000000000000000000000000081527f9f85518fa78d19707d21ed71beac799d54132f94e1d11ffd9d00557724d9b47f600482015290915060009073ffffffffffffffffffffffffffffffffffffffff871690634f27da1890602401602060405180830381865afa158015610d70573d6000803e3d6000fd5b505050506040513d601f19601f82011682018060405250810190610d949190612659565b6040517f4f27da180000000000000000000000000000000000000000000000000000000081527fd76fe4a121a9b3538dd84ce7c5dcb89d64902d545f492b90d7d3123d5c4f6125600482015290915060009073ffffffffffffffffffffffffffffffffffffffff881690634f27da1890602401602060405180830381865afa158015610e24573d6000803e3d6000fd5b505050506040513d601f19601f82011682018060405250810190610e489190612659565b6040517f4f27da180000000000000000000000000000000000000000000000000000000081527ffba48a04766694c16713a414735f83be9cb20bbb29b5e18846cc8f1510640845600482015290915060009073ffffffffffffffffffffffffffffffffffffffff891690634f27da1890602401602060405180830381865afa158015610ed8573d6000803e3d6000fd5b505050506040513d601f19601f82011682018060405250810190610efc9190612659565b6040805160208082018a90528183018b9052825180830384018152606090920190925280519101209091506000906040517fcccf7a8e0000000000000000000000000000000000000000000000000000000081526004810182905290915073ffffffffffffffffffffffffffffffffffffffff86169063cccf7a8e90602401602060405180830381865afa158015610f98573d6000803e3d6000fd5b505050506040513d601f19601f82011682018060405250810190610fbc91906126f8565b611051576040517f1ab06ee50000000000000000000000000000000000000000000000000000000081526004810182905243602482015273ffffffffffffffffffffffffffffffffffffffff861690631ab06ee590604401600060405180830381600087803b15801561102e57600080fd5b505af1158015611042573d6000803e3d6000fd5b50505050505050505050505050565b6040517f0ff4c91600000000000000000000000000000000000000000000000000000000815260048101829052439073ffffffffffffffffffffffffffffffffffffffff871690630ff4c91690602401602060405180830381865afa1580156110be573d6000803e3d6000fd5b505050506040513d601f19601f820116820180604052508101906110e291906126ad565b036110f257505050505050505050565b60006110fe8483611db5565b90506000811161119a576040517f1ab06ee50000000000000000000000000000000000000000000000000000000081526004810183905243602482015273ffffffffffffffffffffffffffffffffffffffff871690631ab06ee590604401600060405180830381600087803b15801561117657600080fd5b505af115801561118a573d6000803e3d6000fd5b5050505050505050505050505050565b60006111a886858c8c611ee8565b905060008111611245576040517f1ab06ee50000000000000000000000000000000000000000000000000000000081526004810184905243602482015273ffffffffffffffffffffffffffffffffffffffff881690631ab06ee590604401600060405180830381600087803b15801561122057600080fd5b505af1158015611234573d6000803e3d6000fd5b505050505050505050505050505050565b60006112518885611db5565b61125b9043612822565b6112659084612835565b61126f8a86611db5565b611279919061284c565b9050808210156112865750805b6040517f1ab06ee50000000000000000000000000000000000000000000000000000000081526004810185905243602482015273ffffffffffffffffffffffffffffffffffffffff891690631ab06ee590604401600060405180830381600087803b1580156112f457600080fd5b505af1158015611308573d6000803e3d6000fd5b50506040517f1ab06ee5000000000000000000000000000000000000000000000000000000008152600481018790526024810184905273ffffffffffffffffffffffffffffffffffffffff8c169250631ab06ee59150604401600060405180830381600087803b15801561137b57600080fd5b505af115801561138f573d6000803e3d6000fd5b50505050505050505050505050505050565b6000806113cd7fcabc06205c984db0f3ebca7b107980eafab5163e9a8d77445f085dc3030950b9610b57565b905060006113fa7ff79fe0c9ac8ebbe25f4c70b53af3a544460171cd0578bf2b3c5291c3d98a47ec610b57565b905060006114277f30f1c358b0a577824afcc8e464bcbd763eba254820a547b425765e75cc511f1e610b57565b905060006114547fdbbb43f7c304f27b650b6c25931b38d1b1bdbcb20267416d2e00833479fb75e3610b57565b6040517fcccf7a8e0000000000000000000000000000000000000000000000000000000081526004810188905290915073ffffffffffffffffffffffffffffffffffffffff85169063cccf7a8e90602401602060405180830381865afa1580156114c2573d6000803e3d6000fd5b505050506040513d601f19601f820116820180604052508101906114e691906126f8565b156114f8576000945050505050610b51565b6040517f0ff4c9160000000000000000000000000000000000000000000000000000000081526004810187905260009073ffffffffffffffffffffffffffffffffffffffff851690630ff4c91690602401602060405180830381865afa158015611566573d6000803e3d6000fd5b505050506040513d601f19601f8201168201806040525081019061158a91906126ad565b6040517f0ff4c91600000000000000000000000000000000000000000000000000000000815260048101899052909150600190600090819073ffffffffffffffffffffffffffffffffffffffff861690630ff4c91690602401600060405180830381865afa158015611600573d6000803e3d6000fd5b505050506040513d6000823e601f3d9081017fffffffffffffffffffffffffffffffffffffffffffffffffffffffffffffffe0168201604052611646919081019061285f565b905060005b816020015151811015611900576040517f0ff4c916000000000000000000000000000000000000000000000000000000008152600481018d905273ffffffffffffffffffffffffffffffffffffffff881690630ff4c91690602401602060405180830381865afa1580156116c3573d6000803e3d6000fd5b505050506040513d601f19601f820116820180604052508101906116e791906126ad565b82518051839081106116fb576116fb6127c4565b6020026020010151036118c357600082602001518281518110611720576117206127c4565b60200260200101511161173f5760009950505050505050505050610b51565b81602001518181518110611755576117556127c4565b60200260200101805180919061176a906128f0565b9052506040517f1540894100000000000000000000000000000000000000000000000000000000815273ffffffffffffffffffffffffffffffffffffffff8716906315408941906117c1908e908690600401612960565b600060405180830381600087803b1580156117db57600080fd5b505af11580156117ef573d6000803e3d6000fd5b505050506001925060008260200151828151811061180f5761180f6127c4565b6020026020010151111561182257600093505b6040517f0ff4c916000000000000000000000000000000000000000000000000000000008152600481018d9052859073ffffffffffffffffffffffffffffffffffffffff8a1690630ff4c91690602401602060405180830381865afa15801561188f573d6000803e3d6000fd5b505050506040513d601f19601f820116820180604052508101906118b391906126ad565b10156118be57600093505b6118ee565b6000826020015182815181106118db576118db6127c4565b602002602001015111156118ee57600093505b806118f8816129c6565b91505061164b565b50600061192c7f0d469bcaf5f43a6290ca2906ecdeb5ef80d7723e8cad27045bddb6e1eb9da435610b57565b73ffffffffffffffffffffffffffffffffffffffff1663fbdfa1ea8c6040518263ffffffff1660e01b815260040161196691815260200190565b600060405180830381865afa158015611983573d6000803e3d6000fd5b505050506040513d6000823e601f3d9081017fffffffffffffffffffffffffffffffffffffffffffffffffffffffffffffffe01682016040526119c9919081019061278f565b905060005b8151811015611a9757858973ffffffffffffffffffffffffffffffffffffffff16630ff4c916848481518110611a0657611a066127c4565b60200260200101516040518263ffffffff1660e01b8152600401611a2c91815260200190565b602060405180830381865afa158015611a49573d6000803e3d6000fd5b505050506040513d601f19601f82011682018060405250810190611a6d91906126ad565b1015611a855750919850610b51975050505050505050565b80611a8f816129c6565b9150506119ce565b508315611b1f576040517f60fe47b1000000000000000000000000000000000000000000000000000000008152600481018c905273ffffffffffffffffffffffffffffffffffffffff8a16906360fe47b190602401600060405180830381600087803b158015611b0657600080fd5b505af1158015611b1a573d6000803e3d6000fd5b505050505b50909a9950505050505050505050565b6040517f4f27da180000000000000000000000000000000000000000000000000000000081527fd76fe4a121a9b3538dd84ce7c5dcb89d64902d545f492b90d7d3123d5c4f6125600482015260009073ffffffffffffffffffffffffffffffffffffffff861690634f27da1890602401602060405180830381865afa158015611bbc573d6000803e3d6000fd5b505050506040513d601f19601f82011682018060405250810190611be09190612659565b6040517f4f27da180000000000000000000000000000000000000000000000000000000081527f98ae6e39b6a858b1e7ad1d701d4818f1fd32693c155ff6b2221a4140af0d7919600482015290915060009073ffffffffffffffffffffffffffffffffffffffff871690634f27da1890602401602060405180830381865afa158015611c70573d6000803e3d6000fd5b505050506040513d601f19601f82011682018060405250810190611c949190612659565b6040517f0ff4c9160000000000000000000000000000000000000000000000000000000081526004810186905290915060009073ffffffffffffffffffffffffffffffffffffffff831690630ff4c916906024016040805180830381865afa158015611d04573d6000803e3d6000fd5b505050506040513d601f19601f82011682018060405250810190611d2891906126c6565b8051604080516020808201939093528082018a905281518082038301815260609091019091528051910120909150600085611d7b578260200151611d6c8684611db5565b611d769190612822565b611d94565b8260200151611d8a8684611db5565b611d94919061284c565b9050611da1898383611f5d565b505050505050505050565b610a068161233d565b6040517fcccf7a8e0000000000000000000000000000000000000000000000000000000081526004810182905260009073ffffffffffffffffffffffffffffffffffffffff84169063cccf7a8e90602401602060405180830381865afa158015611e23573d6000803e3d6000fd5b505050506040513d601f19601f82011682018060405250810190611e4791906126f8565b611e52576000611ee1565b6040517f0ff4c9160000000000000000000000000000000000000000000000000000000081526004810183905273ffffffffffffffffffffffffffffffffffffffff841690630ff4c91690602401602060405180830381865afa158015611ebd573d6000803e3d6000fd5b505050506040513d601f19601f82011682018060405250810190611ee191906126ad565b9392505050565b600080611ef68685856123e9565b90506000611f3486611f2f8688604080516020808201949094528082019290925280518083038201815260609092019052805191012090565b611db5565b9050808211611f4857600092505050610985565b611f528183612822565b979650505050505050565b6040517f4f27da180000000000000000000000000000000000000000000000000000000081527fd76fe4a121a9b3538dd84ce7c5dcb89d64902d545f492b90d7d3123d5c4f6125600482015260009073ffffffffffffffffffffffffffffffffffffffff851690634f27da1890602401602060405180830381865afa158015611fea573d6000803e3d6000fd5b505050506040513d601f19601f8201168201806040525081019061200e9190612659565b6040517f4f27da180000000000000000000000000000000000000000000000000000000081527fe95fc307e3922a4ed7e1a9d135b2e79aad91e806428d8c7ec9a376dfc8aede5e600482015290915060009073ffffffffffffffffffffffffffffffffffffffff861690634f27da1890602401602060405180830381865afa15801561209e573d6000803e3d6000fd5b505050506040513d601f19601f820116820180604052508101906120c29190612659565b9050600083116121c9576040517f4cc822150000000000000000000000000000000000000000000000000000000081526004810185905273ffffffffffffffffffffffffffffffffffffffff821690634cc8221590602401600060405180830381600087803b15801561213457600080fd5b505af1158015612148573d6000803e3d6000fd5b50506040517f4cc822150000000000000000000000000000000000000000000000000000000081526004810187905273ffffffffffffffffffffffffffffffffffffffff85169250634cc8221591506024015b600060405180830381600087803b1580156121b557600080fd5b505af1158015611da1573d6000803e3d6000fd5b6040517fcccf7a8e0000000000000000000000000000000000000000000000000000000081526004810185905273ffffffffffffffffffffffffffffffffffffffff82169063cccf7a8e90602401602060405180830381865afa158015612234573d6000803e3d6000fd5b505050506040513d601f19601f8201168201806040525081019061225891906126f8565b6122e3576040517f1ab06ee50000000000000000000000000000000000000000000000000000000081526004810185905243602482015273ffffffffffffffffffffffffffffffffffffffff821690631ab06ee590604401600060405180830381600087803b1580156122ca57600080fd5b505af11580156122de573d6000803e3d6000fd5b505050505b6040517f1ab06ee5000000000000000000000000000000000000000000000000000000008152600481018590526024810184905273ffffffffffffffffffffffffffffffffffffffff831690631ab06ee59060440161219b565b7f8a22373512790c48b83a1fe2efdd2888d4a917bcdc24d0adf63e60f671680460805460405173ffffffffffffffffffffffffffffffffffffffff8481169216907f8be0079c531659141344cd1fd0a4f28419497f9722a3daafe3b4186f6b6457e090600090a380547fffffffffffffffffffffffff00000000000000000000000000000000000000001673ffffffffffffffffffffffffffffffffffffffff92909216919091179055565b60408051602080820184905281830185905282518083038401815260609092019092528051910120600090610985908590611db5565b7f4e487b7100000000000000000000000000000000000000000000000000000000600052604160045260246000fd5b6040805190810167ffffffffffffffff811182821017156124715761247161241f565b60405290565b604051601f82017fffffffffffffffffffffffffffffffffffffffffffffffffffffffffffffffe016810167ffffffffffffffff811182821017156124be576124be61241f565b604052919050565b600060208083850312156124d957600080fd5b823567ffffffffffffffff808211156124f157600080fd5b818501915085601f83011261250557600080fd5b8135818111156125175761251761241f565b612547847fffffffffffffffffffffffffffffffffffffffffffffffffffffffffffffffe0601f84011601612477565b9150808252868482850101111561255d57600080fd5b8084840185840137600090820190930192909252509392505050565b600060208083528351808285015260005b818110156125a65785810183015185820160400152820161258a565b5060006040828601015260407fffffffffffffffffffffffffffffffffffffffffffffffffffffffffffffffe0601f8301168501019250505092915050565b73ffffffffffffffffffffffffffffffffffffffff81168114610a0657600080fd5b60008060006060848603121561261c57600080fd5b8335612627816125e5565b95602085013595506040909401359392505050565b60006020828403121561264e57600080fd5b8135611ee1816125e5565b60006020828403121561266b57600080fd5b8151611ee1816125e5565b60008060006060848603121561268b57600080fd5b8351612696816125e5565b602085015160409095015190969495509392505050565b6000602082840312156126bf57600080fd5b5051919050565b6000604082840312156126d857600080fd5b6126e061244e565b82518152602083015160208201528091505092915050565b60006020828403121561270a57600080fd5b81518015158114611ee157600080fd5b600082601f83011261272b57600080fd5b8151602067ffffffffffffffff8211156127475761274761241f565b8160051b612756828201612477565b928352848101820192828101908785111561277057600080fd5b83870192505b84831015611f5257825182529183019190830190612776565b6000602082840312156127a157600080fd5b815167ffffffffffffffff8111156127b857600080fd5b610b4d8482850161271a565b7f4e487b7100000000000000000000000000000000000000000000000000000000600052603260045260246000fd5b7f4e487b7100000000000000000000000000000000000000000000000000000000600052601160045260246000fd5b81810381811115610b5157610b516127f3565b8082028115828204841417610b5157610b516127f3565b80820180821115610b5157610b516127f3565b60006020828403121561287157600080fd5b815167ffffffffffffffff8082111561288957600080fd5b908301906040828603121561289d57600080fd5b6128a561244e565b8251828111156128b457600080fd5b6128c08782860161271a565b8252506020830151828111156128d557600080fd5b6128e18782860161271a565b60208301525095945050505050565b6000816128ff576128ff6127f3565b507fffffffffffffffffffffffffffffffffffffffffffffffffffffffffffffffff0190565b600081518084526020808501945080840160005b8381101561295557815187529582019590820190600101612939565b509495945050505050565b82815260406020820152600082516040808401526129816080840182612925565b905060208401517fffffffffffffffffffffffffffffffffffffffffffffffffffffffffffffffc08483030160608501526129bc8282612925565b9695505050505050565b60007fffffffffffffffffffffffffffffffffffffffffffffffffffffffffffffffff82036129f7576129f76127f3565b506001019056fea26469706673582212206aec0f3721f8e38a369d430b600a7b07be1638245007a282dce83558db9765a264736f6c63430008130033",
    "linkReferences": {}
  },
  "methodIdentifiers": {
    "execute(bytes)": "09c5eabe",
    "executeTyped(address,uint256,uint256)": "ed08141e",
    "owner()": "8da5cb5b",
    "transferOwnership(address)": "f2fde38b"
  },
  "id": 155
}