{
  "abi": [
    {
      "inputs": [
        {
          "internalType": "contract IWorld",
          "name": "_world",
          "type": "address"
        },
        {
          "internalType": "address",
          "name": "_components",
          "type": "address"
        }
      ],
      "stateMutability": "nonpayable",
      "type": "constructor"
    },
    {
      "inputs": [],
      "name": "Ownable__NotOwner",
      "type": "error"
    },
    {
      "inputs": [],
      "name": "Ownable__NotTransitiveOwner",
      "type": "error"
    },
    {
      "anonymous": false,
      "inputs": [
        {
          "indexed": true,
          "internalType": "address",
          "name": "previousOwner",
          "type": "address"
        },
        {
          "indexed": true,
          "internalType": "address",
          "name": "newOwner",
          "type": "address"
        }
      ],
      "name": "OwnershipTransferred",
      "type": "event"
    },
    {
      "inputs": [
        {
          "internalType": "bytes",
          "name": "args",
          "type": "bytes"
        }
      ],
      "name": "execute",
      "outputs": [
        {
          "internalType": "bytes",
          "name": "",
          "type": "bytes"
        }
      ],
      "stateMutability": "nonpayable",
      "type": "function"
    },
    {
      "inputs": [
        {
          "internalType": "address",
          "name": "playerAddress",
          "type": "address"
        },
        {
          "internalType": "uint256",
          "name": "fromBuildingEntity",
          "type": "uint256"
        },
        {
          "internalType": "uint256",
          "name": "toBuildingEntity",
          "type": "uint256"
        }
      ],
      "name": "executeTyped",
      "outputs": [
        {
          "internalType": "bytes",
          "name": "",
          "type": "bytes"
        }
      ],
      "stateMutability": "nonpayable",
      "type": "function"
    },
    {
      "inputs": [],
      "name": "owner",
      "outputs": [
        {
          "internalType": "address",
          "name": "",
          "type": "address"
        }
      ],
      "stateMutability": "view",
      "type": "function"
    },
    {
      "inputs": [
        {
          "internalType": "address",
          "name": "account",
          "type": "address"
        }
      ],
      "name": "transferOwnership",
      "outputs": [],
      "stateMutability": "nonpayable",
      "type": "function"
    }
  ],
  "bytecode": {
    "object": "0x60806040523480156200001157600080fd5b506040516200484a3803806200484a8339810160408190526200003491620001e0565b8181818162000043336200014d565b6001600160a01b038116156200005a5780620000bf565b816001600160a01b031663ba62fbe46040518163ffffffff1660e01b8152600401602060405180830381865afa15801562000099573d6000803e3d6000fd5b505050506040513d601f19601f82011682018060405250810190620000bf91906200021f565b600080546001600160a01b039283166001600160a01b0319918216811790925560018054938616938216841790557ff67304f10c7772c78e439bc5cb07781db345424de8878c18100fdaa64d197a87805482169093179092557ff67304f10c7772c78e439bc5cb07781db345424de8878c18100fdaa64d197a86805490921617905550505050505062000246565b7f8a22373512790c48b83a1fe2efdd2888d4a917bcdc24d0adf63e60f67168046080546040516001600160a01b038481169216907f8be0079c531659141344cd1fd0a4f28419497f9722a3daafe3b4186f6b6457e090600090a380546001600160a01b0319166001600160a01b0392909216919091179055565b6001600160a01b0381168114620001dd57600080fd5b50565b60008060408385031215620001f457600080fd5b82516200020181620001c7565b60208401519092506200021481620001c7565b809150509250929050565b6000602082840312156200023257600080fd5b81516200023f81620001c7565b9392505050565b6145f480620002566000396000f3fe608060405234801561001057600080fd5b506004361061004c5760003560e01c806309c5eabe146100515780638da5cb5b1461007a578063ed08141e146100a7578063f2fde38b146100ba575b600080fd5b61006461005f3660046140d7565b6100cf565b604051610071919061418a565b60405180910390f35b610082610734565b60405173ffffffffffffffffffffffffffffffffffffffff9091168152602001610071565b6100646100b5366004614218565b610779565b6100cd6100c836600461424d565b6107cd565b005b606061018b600160009054906101000a900473ffffffffffffffffffffffffffffffffffffffff1673ffffffffffffffffffffffffffffffffffffffff16630d59332e6040518163ffffffff1660e01b8152600401602060405180830381865afa158015610141573d6000803e3d6000fd5b505050506040513d601f19601f82011682018060405250810190610165919061426a565b7f9d56d809d9533f83d16954f67b7304a365b59083abb67bc9d95ee7ab809e9554610849565b73ffffffffffffffffffffffffffffffffffffffff163373ffffffffffffffffffffffffffffffffffffffff161461024a576040517f08c379a000000000000000000000000000000000000000000000000000000000815260206004820152603a60248201527f506f73745570677261646553797374656d3a204f6e6c79204275696c6453797360448201527f74656d2063616e2063616c6c20746869732066756e6374696f6e00000000000060648201526084015b60405180910390fd5b6000806000848060200190518101906102639190614287565b92509250925060006102888473ffffffffffffffffffffffffffffffffffffffff1690565b9050600061029d61029885610997565b610aae565b6001549091506102c49073ffffffffffffffffffffffffffffffffffffffff168383610b22565b60006102ef7f7562ebb298d855e68fb2922ace89e271e36c031fb473ee4be72f900215d523c56111f2565b73ffffffffffffffffffffffffffffffffffffffff16630ff4c916866040518263ffffffff1660e01b815260040161032991815260200190565b602060405180830381865afa158015610346573d6000803e3d6000fd5b505050506040513d601f19601f8201168201806040525081019061036a91906142be565b905060006104488261039b7fbd262b900b9f3e3d6078d7a8e45d1bee5f4fd9547063f524ac4cbf611d37b44e6111f2565b73ffffffffffffffffffffffffffffffffffffffff16630ff4c916896040518263ffffffff1660e01b81526004016103d591815260200190565b602060405180830381865afa1580156103f2573d6000803e3d6000fd5b505050506040513d601f19601f8201168201806040525081019061041691906142d7565b63ffffffff16604080516020808201949094528082019290925280518083038201815260609092019052805191012090565b905060006104757f3dfdde75f9971afc18a000a5725bade43b0032029a6a77c9c8039c28ed5ff0d06111f2565b604080516020808201889052818301899052825180830384018152606090920190925280519101209091506000906040517fcccf7a8e0000000000000000000000000000000000000000000000000000000081526004810185905290915073ffffffffffffffffffffffffffffffffffffffff83169063cccf7a8e90602401602060405180830381865afa158015610511573d6000803e3d6000fd5b505050506040513d601f19601f8201168201806040525081019061053591906142fd565b61059b576040517f08c379a000000000000000000000000000000000000000000000000000000000815260206004820152601b60248201527f4d696e65206c6576656c20656e74697479206e6f7420666f756e6400000000006044820152606401610241565b6001546040517f0ff4c916000000000000000000000000000000000000000000000000000000008152600481018590526106509173ffffffffffffffffffffffffffffffffffffffff908116918491861690630ff4c91690602401602060405180830381865afa158015610613573d6000803e3d6000fd5b505050506040513d601f19601f8201168201806040525081019061063791906142d7565b6106418686611216565b61064b919061434e565b611342565b6106797f0d469bcaf5f43a6290ca2906ecdeb5ef80d7723e8cad27045bddb6e1eb9da4356111f2565b6040517f1ab06ee5000000000000000000000000000000000000000000000000000000008152600481018a90526024810189905273ffffffffffffffffffffffffffffffffffffffff9190911690631ab06ee590604401600060405180830381600087803b1580156106ea57600080fd5b505af11580156106fe573d6000803e3d6000fd5b505050508760405160200161071591815260200190565b6040516020818303038152906040529950505050505050505050919050565b60006107747f8a22373512790c48b83a1fe2efdd2888d4a917bcdc24d0adf63e60f6716804605473ffffffffffffffffffffffffffffffffffffffff1690565b905090565b6040805173ffffffffffffffffffffffffffffffffffffffff851660208201529081018390526060818101839052906107c3906080016040516020818303038152906040526100cf565b90505b9392505050565b7f8a22373512790c48b83a1fe2efdd2888d4a917bcdc24d0adf63e60f6716804605473ffffffffffffffffffffffffffffffffffffffff16331461083d576040517f2f7a8ee100000000000000000000000000000000000000000000000000000000815260040160405180910390fd5b61084681611738565b50565b6040517ffbdfa1ea00000000000000000000000000000000000000000000000000000000815260048101829052600090819073ffffffffffffffffffffffffffffffffffffffff85169063fbdfa1ea90602401600060405180830381865afa1580156108b9573d6000803e3d6000fd5b505050506040513d6000823e601f3d9081017fffffffffffffffffffffffffffffffffffffffffffffffffffffffffffffffe01682016040526108ff9190810190614372565b9050805160000361096c576040517f08c379a000000000000000000000000000000000000000000000000000000000815260206004820152601160248201527f6964206e6f7420726567697374657265640000000000000000000000000000006044820152606401610241565b61098d8160008151811061098257610982614418565b602002602001015190565b9150505b92915050565b60408051808201825260008082526020808301829052835180820186905284518082039092018252600281860181815260a0830187529495929492909160600190803683370190505090506004816000815181106109f7576109f7614418565b602002602001019060ff16908160ff1681525050600481600181518110610a2057610a20614418565b602002602001019060ff16908160ff16815250506000610a408383611741565b9050604051806040016040528082600081518110610a6057610a60614418565b6020026020010151610a7190614447565b60e01c60030b815260200182600181518110610a8f57610a8f614418565b6020026020010151610aa090614447565b60e01d905295945050505050565b600080610aba836118fe565b90506000610ac784611a54565b90507fcd02281adf97b6f29c53f269ef4fa9ed4071a1b1a66cc6056f030582da6ec5f5811480610b1657507f07655375ce2096c9534da9ea3918fa68a1986fa233d1b950a00419dbbb15f5c082145b156107c6575092915050565b6040517f4f27da180000000000000000000000000000000000000000000000000000000081527f28af5d27f505af4c2623e23765f78ddc3a122099072ad9e28ef93b476bccb6c7600482015260009073ffffffffffffffffffffffffffffffffffffffff851690634f27da1890602401602060405180830381865afa158015610baf573d6000803e3d6000fd5b505050506040513d601f19601f82011682018060405250810190610bd3919061426a565b6040517f4f27da180000000000000000000000000000000000000000000000000000000081527fe95fc307e3922a4ed7e1a9d135b2e79aad91e806428d8c7ec9a376dfc8aede5e600482015290915060009073ffffffffffffffffffffffffffffffffffffffff861690634f27da1890602401602060405180830381865afa158015610c63573d6000803e3d6000fd5b505050506040513d601f19601f82011682018060405250810190610c87919061426a565b6040517f4f27da180000000000000000000000000000000000000000000000000000000081527f3dfdde75f9971afc18a000a5725bade43b0032029a6a77c9c8039c28ed5ff0d0600482015290915060009073ffffffffffffffffffffffffffffffffffffffff871690634f27da1890602401602060405180830381865afa158015610d17573d6000803e3d6000fd5b505050506040513d601f19601f82011682018060405250810190610d3b919061426a565b604080516020808201889052818301899052825180830384018152606090920190925280519101209091506000906040517fcccf7a8e0000000000000000000000000000000000000000000000000000000081526004810182905290915073ffffffffffffffffffffffffffffffffffffffff84169063cccf7a8e90602401602060405180830381865afa158015610dd7573d6000803e3d6000fd5b505050506040513d601f19601f82011682018060405250810190610dfb91906142fd565b610e8e576040517f1ab06ee50000000000000000000000000000000000000000000000000000000081526004810182905243602482015273ffffffffffffffffffffffffffffffffffffffff841690631ab06ee590604401600060405180830381600087803b158015610e6d57600080fd5b505af1158015610e81573d6000803e3d6000fd5b5050505050505050505050565b6040517f0ff4c91600000000000000000000000000000000000000000000000000000000815260048101829052439073ffffffffffffffffffffffffffffffffffffffff851690630ff4c91690602401602060405180830381865afa158015610efb573d6000803e3d6000fd5b505050506040513d601f19601f82011682018060405250810190610f1f91906142be565b03610f2d5750505050505050565b6000610f398383611216565b905060008163ffffffff1611610fd9576040517f1ab06ee50000000000000000000000000000000000000000000000000000000081526004810183905243602482015273ffffffffffffffffffffffffffffffffffffffff851690631ab06ee590604401600060405180830381600087803b158015610fb757600080fd5b505af1158015610fcb573d6000803e3d6000fd5b505050505050505050505050565b6000610fe6898989611d04565b905060008163ffffffff1611611087576040517f1ab06ee50000000000000000000000000000000000000000000000000000000081526004810184905243602482015273ffffffffffffffffffffffffffffffffffffffff861690631ab06ee590604401600060405180830381600087803b15801561106457600080fd5b505af1158015611078573d6000803e3d6000fd5b50505050505050505050505050565b60006110938685611e2b565b61109d9043614497565b6110a790846144aa565b6110b18886611216565b6110bb919061434e565b90508063ffffffff168263ffffffff1610156110d45750805b6040517f1ab06ee50000000000000000000000000000000000000000000000000000000081526004810185905243602482015273ffffffffffffffffffffffffffffffffffffffff871690631ab06ee590604401600060405180830381600087803b15801561114257600080fd5b505af1158015611156573d6000803e3d6000fd5b50506040517fd923c3c40000000000000000000000000000000000000000000000000000000081526004810187905263ffffffff8416602482015273ffffffffffffffffffffffffffffffffffffffff8a16925063d923c3c49150604401600060405180830381600087803b1580156111ce57600080fd5b505af11580156111e2573d6000803e3d6000fd5b5050505050505050505050505050565b600080546109919073ffffffffffffffffffffffffffffffffffffffff1683610849565b6040517fcccf7a8e0000000000000000000000000000000000000000000000000000000081526004810182905260009073ffffffffffffffffffffffffffffffffffffffff84169063cccf7a8e90602401602060405180830381865afa158015611284573d6000803e3d6000fd5b505050506040513d601f19601f820116820180604052508101906112a891906142fd565b6112b35760006107c6565b6040517f0ff4c9160000000000000000000000000000000000000000000000000000000081526004810183905273ffffffffffffffffffffffffffffffffffffffff841690630ff4c91690602401602060405180830381865afa15801561131e573d6000803e3d6000fd5b505050506040513d601f19601f820116820180604052508101906107c691906142d7565b6040517f4f27da180000000000000000000000000000000000000000000000000000000081527f3dfdde75f9971afc18a000a5725bade43b0032029a6a77c9c8039c28ed5ff0d0600482015260009073ffffffffffffffffffffffffffffffffffffffff851690634f27da1890602401602060405180830381865afa1580156113cf573d6000803e3d6000fd5b505050506040513d601f19601f820116820180604052508101906113f3919061426a565b6040517f4f27da180000000000000000000000000000000000000000000000000000000081527fe95fc307e3922a4ed7e1a9d135b2e79aad91e806428d8c7ec9a376dfc8aede5e600482015290915060009073ffffffffffffffffffffffffffffffffffffffff861690634f27da1890602401602060405180830381865afa158015611483573d6000803e3d6000fd5b505050506040513d601f19601f820116820180604052508101906114a7919061426a565b90508263ffffffff166000036115bf576040517f4cc822150000000000000000000000000000000000000000000000000000000081526004810185905273ffffffffffffffffffffffffffffffffffffffff821690634cc8221590602401600060405180830381600087803b15801561151f57600080fd5b505af1158015611533573d6000803e3d6000fd5b50506040517f4cc822150000000000000000000000000000000000000000000000000000000081526004810187905273ffffffffffffffffffffffffffffffffffffffff85169250634cc8221591506024015b600060405180830381600087803b1580156115a057600080fd5b505af11580156115b4573d6000803e3d6000fd5b505050505050505050565b6040517fcccf7a8e0000000000000000000000000000000000000000000000000000000081526004810185905273ffffffffffffffffffffffffffffffffffffffff82169063cccf7a8e90602401602060405180830381865afa15801561162a573d6000803e3d6000fd5b505050506040513d601f19601f8201168201806040525081019061164e91906142fd565b6116d9576040517f1ab06ee50000000000000000000000000000000000000000000000000000000081526004810185905243602482015273ffffffffffffffffffffffffffffffffffffffff821690631ab06ee590604401600060405180830381600087803b1580156116c057600080fd5b505af11580156116d4573d6000803e3d6000fd5b505050505b6040517fd923c3c40000000000000000000000000000000000000000000000000000000081526004810185905263ffffffff8416602482015273ffffffffffffffffffffffffffffffffffffffff83169063d923c3c490604401611586565b61084681611f57565b60606000825167ffffffffffffffff81111561175f5761175f614059565b60405190808252806020026020018201604052801561179257816020015b606081526020019060019003908161177d5790505b5090506000805b84518110156118f4578481815181106117b4576117b4614418565b602002602001015160ff1667ffffffffffffffff8111156117d7576117d7614059565b6040519080825280601f01601f191660200182016040528015611801576020820181803683370190505b5083828151811061181457611814614418565b602002602001018190525060005b85828151811061183457611834614418565b602002602001015160ff168110156118c757868184018151811061185a5761185a614418565b602001015160f81c60f81b84838151811061187757611877614418565b6020026020010151828151811061189057611890614418565b60200101907effffffffffffffffffffffffffffffffffffffffffffffffffffffffffffff1916908160001a905350600101611822565b508481815181106118da576118da614418565b602002602001015160ff1682019150600181019050611799565b5090949350505050565b60008061190a83612003565b9050601d811361193c57507f07655375ce2096c9534da9ea3918fa68a1986fa233d1b950a00419dbbb15f5c092915050565b6020811361196c57507fbbe3af883e8e9b61f4275c4dddebde9f04582fdecd30cec933ae16a656d990d592915050565b6023811361199c57507f1cafbee5c58b624d6bc95842fbec94d5a31096877e24b3a041942cfcdae9f0e992915050565b602781136119cc57507f67ed7cdaed36bf5a18e638f8f70dd7a0f79064f3b83c0f17fd7148ae5759c82f92915050565b603081136119fc57507f06898e103bcce6be68da6c0657f791e4087d9e86510ec0a8ef24308cb25b8ff592915050565b60338113611a2c57507f9c352c650b1492b243aae8b60c7c1c13d94ee1688465f2567227e23fefd04cc492915050565b507f9c352c650b1492b243aae8b60c7c1c13d94ee1688465f2567227e23fefd04cc492915050565b600080611a6083612054565b90506107088112158015611a76575061071c8113155b15611aa357507f9182d0838cda5b8b8d04b7fdb048ae0d49c90dd4f4ef46ab0958cf6328dfb2ca92915050565b6107d08112158015611ab757506107d68113155b15611ae457507f17025afdea42119548a0a5f9ec0cdbdcb19e7a9f4b475913071021a3cdbb5bfd92915050565b6109608112158015611af857506109728113155b15611b2557507f88897217b7ca352fa62012bfb0aa451ebca6a6ff9208f9698f717331232152a792915050565b6105468113611b5657507f416cd867e38826680c4261f20f5285dd44a10270a8118bdeec1383c9a089cf0492915050565b610a288112158015611b6a5750610a2a8113155b15611b9757507fb533b87fd579e6a4bd7adf53c6573acece50e469a2a3480b5694a32c710af29192915050565b610c178112158015611bab5750610c1c8113155b15611bd857507f6c4cf968092a55522769ad001f5a4d068bbdc6ea30a7d8f460833f83e9c9727c92915050565b610d488112158015611bec5750610d668113155b15611c1957507ff22d62753c9bef149557affda667bdaa3aff1e69179b0c09e101bfc462bf4fae92915050565b610aa08112158015611c2d5750610aa18113155b15611c5a57507fae6e54a2162e6ef6bb60a2555b10f3160acb04e5d6181837025ff5cdd9df7ff192915050565b610c948112158015611c6e5750610c968113155b15611c9b57507f32c232ca8907667a2c1ce8c69c3cc8ff5db78af1eff931677d8c7e80099fd7ad92915050565b610e248112158015611caf5750610e268113155b15611cdc57507f3d837ba14aa69d4ce9d10c4792c57f1e6daca62171e4c75025c4420d205804c492915050565b507fcd02281adf97b6f29c53f269ef4fa9ed4071a1b1a66cc6056f030582da6ec5f592915050565b600080611d1285858561208b565b6040517f4f27da180000000000000000000000000000000000000000000000000000000081527ffba48a04766694c16713a414735f83be9cb20bbb29b5e18846cc8f15106408456004820152909150600090611df79073ffffffffffffffffffffffffffffffffffffffff881690634f27da1890602401602060405180830381865afa158015611da6573d6000803e3d6000fd5b505050506040513d601f19601f82011682018060405250810190611dca919061426a565b6040805160208082018990528183018a905282518083038401815260609092019092528051910120611216565b90508063ffffffff168263ffffffff1611611e17576000925050506107c6565b611e2181836144ca565b9695505050505050565b6040517fcccf7a8e0000000000000000000000000000000000000000000000000000000081526004810182905260009073ffffffffffffffffffffffffffffffffffffffff84169063cccf7a8e90602401602060405180830381865afa158015611e99573d6000803e3d6000fd5b505050506040513d601f19601f82011682018060405250810190611ebd91906142fd565b611ec85760006107c6565b6040517f0ff4c9160000000000000000000000000000000000000000000000000000000081526004810183905273ffffffffffffffffffffffffffffffffffffffff841690630ff4c91690602401602060405180830381865afa158015611f33573d6000803e3d6000fd5b505050506040513d601f19601f820116820180604052508101906107c691906142be565b7f8a22373512790c48b83a1fe2efdd2888d4a917bcdc24d0adf63e60f671680460805460405173ffffffffffffffffffffffffffffffffffffffff8481169216907f8be0079c531659141344cd1fd0a4f28419497f9722a3daafe3b4186f6b6457e090600090a380547fffffffffffffffffffffffff00000000000000000000000000000000000000001673ffffffffffffffffffffffffffffffffffffffff92909216919091179055565b6000806120158361eb225b600c61216d565b90506000612026846201213561200e565b905060006120368561cf6461200e565b90506000612046866143ae61200e565b9050611e21848484846121ac565b6000806120668361eb225b600861216d565b90506000612077846201213561205f565b905061208382826121ea565b949350505050565b6040517f4f27da180000000000000000000000000000000000000000000000000000000081527f211ec405e276c4670499c53a5acad168c5576b06d549dd3a610b8d516174e2d960048201526000906107c39073ffffffffffffffffffffffffffffffffffffffff861690634f27da1890602401602060405180830381865afa15801561211c573d6000803e3d6000fd5b505050506040513d601f19601f82011682018060405250810190612140919061426a565b60408051602080820187905281830188905282518083038401815260609092019092528051910120611216565b6000806121a384866000015160030b61218691906144e7565b85876020015160030b61219991906144e7565b6000866040612217565b95945050505050565b6000806121cb6121c56121bf8888612780565b86612780565b84612780565b9050611e216121e382680500000000000000006127d5565b606461284d565b6000806121f78484612780565b905061098d61220f82680400000000000000006127d5565b61271061284d565b604080516102e081018252600080825260208201819052918101829052606081018290526080810182905260a0810182905260c0810182905260e08101829052610100810182905261012081018290526101408101829052610160810182905261018081018290526101a081018290526101c081018290526101e08101829052610200810182905261022081018290526102408101829052610260810182905261028081018290526102a081018290526102c081018290526122d9878561297f565b600f0b6102008201526122ec868561297f565b600f0b6102208201526122ff858561297f565b600f0b61024082015261020081015161231b90600f0b60401d90565b60ff1660010b8152610220810151600f0b60401d60ff1660010b6020820152610240810151600f0b60401d60ff1660010b60408201526102008101516123699061236481612a27565b612a41565b600f0b6102008201526102208101516123859061236481612a27565b600f0b6102208201526102408101516123a19061236481612a27565b600f0b6102408201526102008101516123b990612a95565b600f0b6102608201526102208101516123d190612a95565b600f0b6102808201526102408101516123e990612a95565b600f0b6102a082015280516123fd90612ae3565b60010b610120820181905260208201516124199160081d614507565b60010b6060820181905261242c90612ae3565b60010b610140820181905260408201516124489160081d614507565b60010b6080820152604081015161014082015160ff166124689190614507565b60010b60a0820152602081015161012082015160ff166124889190614507565b60010b60c0820181905261249b90612ae3565b60010b610160820181905260408201516124b79160081d614507565b60010b60e0820152604081015161016082015160ff166124d79190614507565b60010b61010082015260808101516124ee90612ae3565b60010b61018082015260a081015161250590612ae3565b60010b6101a082015260e081015161251c90612ae3565b60010b6101c082015261010081015161253490612ae3565b816101e0019060010b908160010b8152505061272f816102a0015161263f8361028001516125c685610260015161258d61257688610180015160010b60081d90565b8861020001518961022001518a6102400151612af1565b6125c16125a2896101c0015160010b60081d90565b6125b08a6102000151612c4f565b8a61022001518b6102400151612af1565b612c64565b6125c18661026001516126036125e4896101a0015160010b60081d90565b8961020001516125f88b6102200151612c4f565b8b6102400151612af1565b6125c16126188a6101e0015160010b60081d90565b6126268b6102000151612c4f565b6126348c6102200151612c4f565b8c6102400151612af1565b6125c18461028001516126b686610260015161268261266389610180015160ff1690565b8961020001518a610220015161267d8c6102400151612c4f565b612af1565b6125c16126948a6101c0015160ff1690565b6126a28b6102000151612c4f565b8b610220015161267d8d6102400151612c4f565b6125c18761026001516126f36126d18a6101a0015160ff1690565b8a61020001516126e58c6102200151612c4f565b61267d8d6102400151612c4f565b6125c16127058b6101e0015160ff1690565b6127138c6102000151612c4f565b6127218d6102200151612c4f565b61267d8e6102400151612c4f565b600f0b6102c0820152612743836040614547565b60ff16612770612761836102c0015168010000000000000000612780565b680200000000000000006127d5565b600f0b901d979650505050505050565b6000600f83810b9083900b017fffffffffffffffffffffffffffffffff8000000000000000000000000000000081128015906127cc57506f7fffffffffffffffffffffffffffffff8113155b6107c657600080fd5b600081600f0b6000036127e757600080fd5b600082600f0b604085600f0b901b8161280257612802614560565b0590507fffffffffffffffffffffffffffffffff8000000000000000000000000000000081128015906127cc57506f7fffffffffffffffffffffffffffffff8113156107c657600080fd5b60006f80000000000000000000000000000000600f84900b016128ca577fffffffffffffffff00000000000000000000000000000000000000000000000182121580156128b3575078010000000000000000000000000000000000000000000000008213155b6128bc57600080fd5b506000819003603f1b610991565b60008084600f0b12156128e257836000039350600190505b60008312156128f45760009290920391155b60006129008585612c7d565b90508115612941577f800000000000000000000000000000000000000000000000000000000000000081111561293557600080fd5b60000391506109919050565b7f7fffffffffffffffffffffffffffffffffffffffffffffffffffffffffffffff81111561296e57600080fd5b91506109919050565b505092915050565b60008160000361298e57600080fd5b6000808412156129a357836000039350600190505b60008312156129b55760009290920391155b60006129c18585612d02565b905081156129f8576f80000000000000000000000000000000816fffffffffffffffffffffffffffffffff16111561293557600080fd5b6f7fffffffffffffffffffffffffffffff816fffffffffffffffffffffffffffffffff16111561296e57600080fd5b6000610991612a3983600f0b60401d90565b60070b612e93565b6000600f82810b9084900b037fffffffffffffffffffffffffffffffff8000000000000000000000000000000081128015906127cc57506f7fffffffffffffffffffffffffffffff8113156107c657600080fd5b600061099182612acf84612acf86612acf612ad489612acf612ac08c68060000000000000000612edd565b680f0000000000000000612a41565b612edd565b680a0000000000000000612780565b60006109918260010b612f34565b6000600f85166007600182900b13612bb85760038160010b13612b675760018160010b13612b40578060010b600003612b3657612b2e8585612780565b915050612083565b612b2e8486612a41565b8060010b600203612b5557612b2e8585612a41565b612b2e612b6186614030565b85612a41565b60058160010b13612b91578060010b600403612b8757612b2e8584612780565b612b2e8386612a41565b8060010b600603612ba657612b2e8584612a41565b612b2e612bb286614030565b84612a41565b600b8160010b13612c0e5760098160010b13612bed578060010b600803612be357612b2e8484612780565b612b2e8385612a41565b8060010b600a03612c0257612b2e8484612a41565b612b2e612bb285614030565b600d8160010b13612c3a578060010b600c03612c2e57612b2e8486612780565b612b2e6121c585614030565b8060010b600e03612c0257612b2e8486612a41565b60006109918268010000000000000000612a41565b60006107c383612c7886612acf8688612a41565b612780565b600081600003612c8f57506000610991565b600083600f0b1215612ca057600080fd5b600f83900b6fffffffffffffffffffffffffffffffff8316810260401c90608084901c0277ffffffffffffffffffffffffffffffffffffffffffffffff811115612ce957600080fd5b60401b8119811115612cfa57600080fd5b019392505050565b600081600003612d1157600080fd5b600077ffffffffffffffffffffffffffffffffffffffffffffffff8411612d4d5782604085901b81612d4557612d45614560565b049050612e76565b60c084811c6401000000008110612d66576020918201911c5b620100008110612d78576010918201911c5b6101008110612d89576008918201911c5b60108110612d99576004918201911c5b60048110612da9576002918201911c5b60028110612db8576001820191505b60bf820360018603901c6001018260ff0387901b81612dd957612dd9614560565b0492506fffffffffffffffffffffffffffffffff831115612df957600080fd5b608085901c83026fffffffffffffffffffffffffffffffff8616840260c088901c604089901b82811015612e2e576001820391505b608084901b92900382811015612e45576001820391505b829003608084901c8214612e5b57612e5b61458f565b888181612e6a57612e6a614560565b04870196505050505050505b6fffffffffffffffffffffffffffffffff8111156107c657600080fd5b60007fffffffffffffffffffffffffffffffffffffffffffffffff80000000000000008212158015612ecd5750677fffffffffffffff8213155b612ed657600080fd5b5060401b90565b6000600f83810b9083900b0260401d7fffffffffffffffffffffffffffffffff8000000000000000000000000000000081128015906127cc57506f7fffffffffffffffffffffffffffffff8113156107c657600080fd5b60ff166000607f82136137b857603f821361338057601f821361316957600f82136130615760078213612fe15760038213612fa55760018213612f8b5781600003612f8257506197a0919050565b5061a089919050565b81600203612f9c575061895b919050565b50615b5a919050565b60058213612fc75781600403612fbe5750615a0f919050565b50610f83919050565b81600603612fd8575061830d919050565b50610dc9919050565b600b8213613025576009821361300b5781600803613002575061c95f919050565b50615f60919050565b81600a0361301c5750616035919050565b506135c2919050565b600d82136130475781600c0361303e575061c2e9919050565b5061e907919050565b81600e0361305857506107e1919050565b5061e18c919050565b601782136130e957601382136130ad5760118213613093578160100361308a5750618c24919050565b50612467919050565b816012036130a4575061671e919050565b50611e45919050565b601582136130cf57816014036130c6575061458e919050565b50618e08919050565b816016036130e05750610863919050565b50616325919050565b601b821361312d5760198213613113578160180361310a57506125f0919050565b5061f015919050565b81601a03613124575061150a919050565b50610a17919050565b601d821361314f5781601c0361314657506117be919050565b5061be06919050565b81601e036131605750610694919050565b506194f7919050565b602f821361327857602782136131f857602382136131bd57602182136131a3578160200361319a575061f778919050565b506178ea919050565b816022036131b4575061ea4b919050565b50614b00919050565b602582136131de57816024036131d55750601a919050565b50611ac5919050565b816026036131ef575061c53e919050565b50613e5e919050565b602b821361323c576029821361322257816028036132195750615efc919050565b5061fcdb919050565b81602a03613233575061dbcb919050565b5061cb75919050565b602d821361325e5781602c036132555750617523919050565b5061230b919050565b81602e0361326f5750610b20919050565b50612039919050565b6037821361330057603382136132c457603182136132aa57816030036132a157506139b1919050565b5061b121919050565b816032036132bb5750612158919050565b506158ed919050565b603582136132e657816034036132dd575061ed95919050565b50619538919050565b816036036132f75750613857919050565b506157ae919050565b603b8213613344576039821361332a5781603803613321575061ae14919050565b5061147d919050565b81603a0361333b5750617d88919050565b506188ab919050565b603d82136133665781603c0361335d575061aba8919050565b5061a844919050565b81603e0361337757506144af919050565b5061af4a919050565b605f82136135a057604f8213613498576047821361341857604382136133dc57604182136133c257816040036133b95750614aa5919050565b5061a547919050565b816042036133d35750614786919050565b5061868b919050565b604582136133fe57816044036133f55750618b30919050565b5061301b919050565b8160460361340f5750611ba6919050565b5061a64d919050565b604b821361345c576049821361344257816048036134395750614d92919050565b5061929e919050565b81604a036134535750619ee7919050565b5061e753919050565b604d821361347e5781604c03613475575061536f919050565b50616fe5919050565b81604e0361348f575061e57a919050565b50617a3c919050565b6057821361352057605382136134e457605182136134ca57816050036134c15750613cd3919050565b5061d385919050565b816052036134db57506185e6919050565b5061e6dc919050565b6055821361350657816054036134fd575061dc69919050565b5061695c919050565b816056036135175750615c29919050565b50612937919050565b605b8213613564576059821361354a5781605803613541575061372e919050565b50612ef5919050565b81605a0361355b575061f528919050565b506128f4919050565b605d82136135865781605c0361357d575061f466919050565b5061668f919050565b81605e036135975750618f36919050565b50613641919050565b606f82136136b0576067821361363057606382136135f457606182136135da57816060036135d15750614119919050565b5061193f919050565b816062036135eb5750613fa1919050565b5061a101919050565b60658213613616578160640361360d57506101d8919050565b5061d850919050565b816066036136275750615049919050565b506149d1919050565b606b8213613674576069821361365a5781606803613651575061d14c919050565b50614c84919050565b81606a0361366b57506184bb919050565b5061bbd0919050565b606d82136136965781606c0361368d575061d059919050565b50615912919050565b81606e036136a757506112a9919050565b5061a9c8919050565b6077821361373857607382136136fc57607182136136e257816070036136d9575061c8c4919050565b5061c487919050565b816072036136f35750618782919050565b50618274919050565b6075821361371e578160740361371557506174bc919050565b5061bc9f919050565b8160760361372f5750619f56919050565b506156a4919050565b607b821361377c57607982136137625781607803613759575061a464919050565b5061646d919050565b81607a036137735750616dc6919050565b5061c6ad919050565b607d821361379e5781607c03613795575061adba919050565b5061ba03919050565b81607e036137af5750610340919050565b50614034919050565b60bf8213613bf857609f82136139e057608f82136138d85760878213613858576083821361381c576081821361380257816080036137f957506134d9919050565b5061d9e2919050565b81608203613813575061e2fa919050565b5061fa7c919050565b6085821361383e57816084036138355750617c7b919050565b50617b05919050565b8160860361384f57506105ca919050565b5061ca26919050565b608b821361389c576089821361388257816088036138795750612693919050565b50619376919050565b81608a03613893575061767e919050565b50617eff919050565b608d82136138be5781608c036138b5575061ff52919050565b50615255919050565b81608e036138cf57506155d4919050565b5061d4cf919050565b609782136139605760938213613924576091821361390a5781609003613901575061cfce919050565b5061ce3b919050565b8160920361391b5750613be3919050565b5061e32f919050565b60958213613946578160940361393d5750612f10919050565b5061103a919050565b816096036139575750613a11919050565b506111b6919050565b609b82136139a4576099821361398a5781609803613981575061b6bd919050565b5061bd1c919050565b81609a0361399b5750611c2a919050565b50612adf919050565b609d82136139c65781609c036139bd575061dfb7919050565b5061b7aa919050565b81609e036139d7575061aad5919050565b5061d577919050565b60af8213613af05760a78213613a705760a38213613a345760a18213613a1a578160a003613a1157506177f8919050565b5061f898919050565b8160a203613a2b5750619802919050565b5061022c919050565b60a58213613a56578160a403613a4d5750612c9a919050565b50619aa3919050565b8160a603613a67575061a346919050565b506146dd919050565b60ab8213613ab45760a98213613a9a578160a803613a91575061dd99919050565b50619965919050565b8160aa03613aab575061659b919050565b50619ba7919050565b60ad8213613ad6578160ac03613acd575061a72b919050565b50612bac919050565b8160ae03613ae7575061ac09919050565b50610981919050565b60b78213613b785760b38213613b3c5760b18213613b22578160b003613b195750618116919050565b50611627919050565b8160b203613b3357506127fd919050565b5061fd13919050565b60b58213613b5e578160b403613b555750611362919050565b5061626c919050565b8160b603613b6f5750616c6e919050565b50616e4f919050565b60bb8213613bbc5760b98213613ba2578160b803613b995750614f71919050565b506171e0919050565b8160ba03613bb3575061e0e8919050565b5061e8b2919050565b60bd8213613bde578160bc03613bd5575061b2b9919050565b5061b970919050565b8160be03613bef5750617068919050565b506168da919050565b60df8213613e185760cf8213613d105760c78213613c905760c38213613c545760c18213613c3a578160c003613c31575061daf6919050565b5061f661919050565b8160c203613c4b57506161e4919050565b5061e4fb919050565b60c58213613c76578160c403613c6d575061fb22919050565b506122f2919050565b8160c603613c87575061f2c1919050565b5061c1ee919050565b60cb8213613cd45760c98213613cba578160c803613cb1575061eed2919050565b5061d290919050565b8160ca03613ccb575061900c919050565b50610cbf919050565b60cd8213613cf6578160cc03613ced575061bfb3919050565b5061b3a2919050565b8160ce03613d07575061a2f1919050565b5061f151919050565b60d78213613d985760d38213613d5c5760d18213613d42578160d003613d395750615133919050565b50613391919050565b8160d203613d5357506191eb919050565b5061ebf9919050565b60d58213613d7e578160d403613d75575061f90e919050565b50610eef919050565b8160d603613d8f575061ef6b919050565b50616b31919050565b60db8213613ddc5760d98213613dc2578160d803613db957506131c0919050565b5061c0d6919050565b8160da03613dd3575061d61f919050565b50611fb5919050565b60dd8213613dfe578160dc03613df5575061b5c7919050565b5061c76a919050565b8160de03613e0f5750616a9d919050565b50619db8919050565b60ef8213613f285760e78213613ea85760e38213613e6c5760e18213613e52578160e003613e49575061b854919050565b506154cc919050565b8160e203613e63575061ccb0919050565b5061b073919050565b60e58213613e8e578160e403613e855750617379919050565b50617932919050565b8160e603613e9f575061322d919050565b50612d7f919050565b60eb8213613eec5760e98213613ed2578160e803613ec95750617f04919050565b50610496919050565b8160ea03613ee357506196fe919050565b5061fe8a919050565b60ed8213613f0e578160ec03613f055750618aec919050565b5061eccd919050565b8160ee03613f1f575061cd5d919050565b50615dde919050565b60f78213613fb05760f38213613f745760f18213613f5a578160f003613f51575061de72919050565b50617243919050565b8160f203613f6b575061431d919050565b50611d18919050565b60f58213613f96578160f403613f8d5750611848919050565b506148f3919050565b8160f603613fa7575061f38d919050565b50618d80919050565b60fb8213613ff45760f98213613fda578160f803613fd157506180c3919050565b5061c34e919050565b8160fa03613feb5750614e42919050565b506142d7919050565b60fd8213614016578160fc0361400d575061d73d919050565b50613d9c919050565b8160fe036140275750619cb4919050565b5061b497919050565b60006f80000000000000000000000000000000600f83900b0161405257600080fd5b5060000390565b7f4e487b7100000000000000000000000000000000000000000000000000000000600052604160045260246000fd5b604051601f82017fffffffffffffffffffffffffffffffffffffffffffffffffffffffffffffffe016810167ffffffffffffffff811182821017156140cf576140cf614059565b604052919050565b600060208083850312156140ea57600080fd5b823567ffffffffffffffff8082111561410257600080fd5b818501915085601f83011261411657600080fd5b81358181111561412857614128614059565b614158847fffffffffffffffffffffffffffffffffffffffffffffffffffffffffffffffe0601f84011601614088565b9150808252868482850101111561416e57600080fd5b8084840185840137600090820190930192909252509392505050565b600060208083528351808285015260005b818110156141b75785810183015185820160400152820161419b565b5060006040828601015260407fffffffffffffffffffffffffffffffffffffffffffffffffffffffffffffffe0601f8301168501019250505092915050565b73ffffffffffffffffffffffffffffffffffffffff8116811461084657600080fd5b60008060006060848603121561422d57600080fd5b8335614238816141f6565b95602085013595506040909401359392505050565b60006020828403121561425f57600080fd5b81356107c6816141f6565b60006020828403121561427c57600080fd5b81516107c6816141f6565b60008060006060848603121561429c57600080fd5b83516142a7816141f6565b602085015160409095015190969495509392505050565b6000602082840312156142d057600080fd5b5051919050565b6000602082840312156142e957600080fd5b815163ffffffff811681146107c657600080fd5b60006020828403121561430f57600080fd5b815180151581146107c657600080fd5b7f4e487b7100000000000000000000000000000000000000000000000000000000600052601160045260246000fd5b63ffffffff81811683821601908082111561436b5761436b61431f565b5092915050565b6000602080838503121561438557600080fd5b825167ffffffffffffffff8082111561439d57600080fd5b818501915085601f8301126143b157600080fd5b8151818111156143c3576143c3614059565b8060051b91506143d4848301614088565b81815291830184019184810190888411156143ee57600080fd5b938501935b8385101561440c578451825293850193908501906143f3565b98975050505050505050565b7f4e487b7100000000000000000000000000000000000000000000000000000000600052603260045260246000fd5b6000815160208301517fffffffff000000000000000000000000000000000000000000000000000000008082169350600483101561448f5780818460040360031b1b83161693505b505050919050565b818103818111156109915761099161431f565b63ffffffff8181168382160280821691908281146129775761297761431f565b63ffffffff82811682821603908082111561436b5761436b61431f565b80820182811260008312801582168215821617156129775761297761431f565b600181810b9083900b01617fff81137fffffffffffffffffffffffffffffffffffffffffffffffffffffffffffff8000821217156109915761099161431f565b60ff82811682821603908111156109915761099161431f565b7f4e487b7100000000000000000000000000000000000000000000000000000000600052601260045260246000fd5b7f4e487b7100000000000000000000000000000000000000000000000000000000600052600160045260246000fdfea2646970667358221220b071c4f51fbf5ba648d8cc1cff38e97b9c728450ce76f94e5aeebee5043633d464736f6c63430008130033",
    "linkReferences": {}
  },
  "methodIdentifiers": {
    "execute(bytes)": "09c5eabe",
    "executeTyped(address,uint256,uint256)": "ed08141e",
    "owner()": "8da5cb5b",
    "transferOwnership(address)": "f2fde38b"
  },
  "id": 140
}