{
  "abi": [
    {
      "inputs": [
        {
          "internalType": "contract IWorld",
          "name": "_world",
          "type": "address"
        },
        {
          "internalType": "address",
          "name": "_components",
          "type": "address"
        }
      ],
      "stateMutability": "nonpayable",
      "type": "constructor"
    },
    {
      "inputs": [],
      "name": "Ownable__NotOwner",
      "type": "error"
    },
    {
      "inputs": [],
      "name": "Ownable__NotTransitiveOwner",
      "type": "error"
    },
    {
      "anonymous": false,
      "inputs": [
        {
          "indexed": true,
          "internalType": "address",
          "name": "previousOwner",
          "type": "address"
        },
        {
          "indexed": true,
          "internalType": "address",
          "name": "newOwner",
          "type": "address"
        }
      ],
      "name": "OwnershipTransferred",
      "type": "event"
    },
    {
      "inputs": [
        {
          "internalType": "bytes",
          "name": "args",
          "type": "bytes"
        }
      ],
      "name": "execute",
      "outputs": [
        {
          "internalType": "bytes",
          "name": "",
          "type": "bytes"
        }
      ],
      "stateMutability": "nonpayable",
      "type": "function"
    },
    {
      "inputs": [
        {
          "components": [
            {
              "internalType": "int32",
              "name": "x",
              "type": "int32"
            },
            {
              "internalType": "int32",
              "name": "y",
              "type": "int32"
            }
          ],
          "internalType": "struct Coord",
          "name": "coordStart",
          "type": "tuple"
        },
        {
          "components": [
            {
              "internalType": "int32",
              "name": "x",
              "type": "int32"
            },
            {
              "internalType": "int32",
              "name": "y",
              "type": "int32"
            }
          ],
          "internalType": "struct Coord",
          "name": "coordEnd",
          "type": "tuple"
        }
      ],
      "name": "executeTyped",
      "outputs": [
        {
          "internalType": "bytes",
          "name": "",
          "type": "bytes"
        }
      ],
      "stateMutability": "nonpayable",
      "type": "function"
    },
    {
      "inputs": [],
      "name": "owner",
      "outputs": [
        {
          "internalType": "address",
          "name": "",
          "type": "address"
        }
      ],
      "stateMutability": "view",
      "type": "function"
    },
    {
      "inputs": [
        {
          "internalType": "address",
          "name": "account",
          "type": "address"
        }
      ],
      "name": "transferOwnership",
      "outputs": [],
      "stateMutability": "nonpayable",
      "type": "function"
    }
  ],
  "bytecode": {
    "object": "0x60806040523480156200001157600080fd5b5060405162001b9338038062001b938339810160408190526200003491620001e0565b8181818162000043336200014d565b6001600160a01b038116156200005a5780620000bf565b816001600160a01b031663ba62fbe46040518163ffffffff1660e01b8152600401602060405180830381865afa15801562000099573d6000803e3d6000fd5b505050506040513d601f19601f82011682018060405250810190620000bf91906200021f565b600080546001600160a01b039283166001600160a01b0319918216811790925560018054938616938216841790557ff67304f10c7772c78e439bc5cb07781db345424de8878c18100fdaa64d197a87805482169093179092557ff67304f10c7772c78e439bc5cb07781db345424de8878c18100fdaa64d197a86805490921617905550505050505062000246565b7f8a22373512790c48b83a1fe2efdd2888d4a917bcdc24d0adf63e60f67168046080546040516001600160a01b038481169216907f8be0079c531659141344cd1fd0a4f28419497f9722a3daafe3b4186f6b6457e090600090a380546001600160a01b0319166001600160a01b0392909216919091179055565b6001600160a01b0381168114620001dd57600080fd5b50565b60008060408385031215620001f457600080fd5b82516200020181620001c7565b60208401519092506200021481620001c7565b809150509250929050565b6000602082840312156200023257600080fd5b81516200023f81620001c7565b9392505050565b61193d80620002566000396000f3fe608060405234801561001057600080fd5b506004361061004c5760003560e01c806309c5eabe146100515780638da5cb5b1461007a578063aac25b73146100a7578063f2fde38b146100ba575b600080fd5b61006461005f366004611473565b6100cf565b6040516100719190611517565b60405180910390f35b610082610ca4565b60405173ffffffffffffffffffffffffffffffffffffffff9091168152602001610071565b6100646100b53660046115b9565b610ce9565b6100cd6100c8366004611610565b610d1c565b005b6060600080838060200190518101906100e89190611664565b91509150806000015160030b826000015160030b1480156101165750806020015160030b826020015160030b145b156101ce576040517f08c379a000000000000000000000000000000000000000000000000000000000815260206004820152604260248201527f5b4275696c645061746853797374656d5d2043616e6e6f74207374617274206160448201527f6e6420656e642070617468206174207468652073616d6520636f6f7264696e6160648201527f7465000000000000000000000000000000000000000000000000000000000000608482015260a4015b60405180910390fd5b60006101d983610d98565b905060006101e683610d98565b90506101f28282610f58565b61027e576040517f08c379a000000000000000000000000000000000000000000000000000000000815260206004820152603460248201527f5b4275696c645061746853797374656d5d2043616e6e6f74206275696c64207060448201527f617468206f6e20756e6f776e65642074696c657300000000000000000000000060648201526084016101c5565b6102a77f0d469bcaf5f43a6290ca2906ecdeb5ef80d7723e8cad27045bddb6e1eb9da4356110d1565b73ffffffffffffffffffffffffffffffffffffffff1663cccf7a8e836040518263ffffffff1660e01b81526004016102e191815260200190565b602060405180830381865afa1580156102fe573d6000803e3d6000fd5b505050506040513d601f19601f820116820180604052508101906103229190611690565b156103d5576040517f08c379a000000000000000000000000000000000000000000000000000000000815260206004820152604860248201527f5b4275696c645061746853797374656d5d2043616e6e6f74207374617274206d60448201527f6f7265207468616e206f6e6520706174682066726f6d207468652073616d652060648201527f6275696c64696e67000000000000000000000000000000000000000000000000608482015260a4016101c5565b600080546104199073ffffffffffffffffffffffffffffffffffffffff167f30f1c358b0a577824afcc8e464bcbd763eba254820a547b425765e75cc511f1e6110fb565b6040517f0ff4c9160000000000000000000000000000000000000000000000000000000081526004810185905290915060009073ffffffffffffffffffffffffffffffffffffffff831690630ff4c91690602401602060405180830381865afa15801561048a573d6000803e3d6000fd5b505050506040513d601f19601f820116820180604052508101906104ae91906116b2565b6040517f0ff4c9160000000000000000000000000000000000000000000000000000000081526004810185905290915060009073ffffffffffffffffffffffffffffffffffffffff841690630ff4c91690602401602060405180830381865afa15801561051f573d6000803e3d6000fd5b505050506040513d601f19601f8201168201806040525081019061054391906116b2565b60008054919250906106389084906105919073ffffffffffffffffffffffffffffffffffffffff167ff79fe0c9ac8ebbe25f4c70b53af3a544460171cd0578bf2b3c5291c3d98a47ec6110fb565b73ffffffffffffffffffffffffffffffffffffffff16630ff4c916896040518263ffffffff1660e01b81526004016105cb91815260200190565b602060405180830381865afa1580156105e8573d6000803e3d6000fd5b505050506040513d601f19601f8201168201806040525081019061060c91906116b2565b604080516020808201949094528082019290925280518083038201815260609092019052805191012090565b60005490915061067e9073ffffffffffffffffffffffffffffffffffffffff167fd76fe4a121a9b3538dd84ce7c5dcb89d64902d545f492b90d7d3123d5c4f61256110fb565b73ffffffffffffffffffffffffffffffffffffffff1663cccf7a8e826040518263ffffffff1660e01b81526004016106b891815260200190565b602060405180830381865afa1580156106d5573d6000803e3d6000fd5b505050506040513d601f19601f820116820180604052508101906106f99190611690565b15610963577f2e6aeb9730616b6b2a8fcc7abab3fc9310bd984b40af25951e4bdc63a056b92d82016108a857600154604080517f0d59332e00000000000000000000000000000000000000000000000000000000815290516107e09273ffffffffffffffffffffffffffffffffffffffff1691630d59332e9160048083019260209291908290030181865afa158015610796573d6000803e3d6000fd5b505050506040513d601f19601f820116820180604052508101906107ba91906116cb565b7f4e09ef1c8459dfdb5bb8d7053cf6c18f5312f6a577e8f2afb36eb92db848dd5d6110fb565b6040517fed08141e000000000000000000000000000000000000000000000000000000008152336004820152602481018890526044810187905273ffffffffffffffffffffffffffffffffffffffff919091169063ed08141e906064016000604051808303816000875af115801561085c573d6000803e3d6000fd5b505050506040513d6000823e601f3d9081017fffffffffffffffffffffffffffffffffffffffffffffffffffffffffffffffe01682016040526108a291908101906116e8565b50610c7a565b600154604080517f0d59332e00000000000000000000000000000000000000000000000000000000815290516107e09273ffffffffffffffffffffffffffffffffffffffff1691630d59332e9160048083019260209291908290030181865afa158015610919573d6000803e3d6000fd5b505050506040513d601f19601f8201168201806040525081019061093d91906116cb565b7f585dc0687dfe17a75a34465523f2663303dafb61501c4a1aba14b65da49f33236110fb565b6000546109a69073ffffffffffffffffffffffffffffffffffffffff167fdbbb43f7c304f27b650b6c25931b38d1b1bdbcb20267416d2e00833479fb75e36110fb565b73ffffffffffffffffffffffffffffffffffffffff1663cccf7a8e826040518263ffffffff1660e01b81526004016109e091815260200190565b602060405180830381865afa1580156109fd573d6000803e3d6000fd5b505050506040513d601f19601f82011682018060405250810190610a219190611690565b15610c7a577fd1951468cf9e9494d5703385454c036cef4267b4bf50da6ae1b4239c5fa946d38214610afb576040517f08c379a000000000000000000000000000000000000000000000000000000000815260206004820152605660248201527f5b4275696c645061746853797374656d5d2043616e6e6f74206275696c64207060448201527f6174682066726f6d206120666163746f727920746f20616e79206275696c646960648201527f6e67206f74686572207468656e204d61696e4261736500000000000000000000608482015260a4016101c5565b600154604080517f0d59332e0000000000000000000000000000000000000000000000000000000081529051610bb69273ffffffffffffffffffffffffffffffffffffffff1691630d59332e9160048083019260209291908290030181865afa158015610b6c573d6000803e3d6000fd5b505050506040513d601f19601f82011682018060405250810190610b9091906116cb565b7f1884b69d0fe22df19a29cf51f7c22952ebb61f30fcaa5cb7a127f266d61d4cef6110fb565b6040517fed08141e000000000000000000000000000000000000000000000000000000008152336004820152602481018890526044810187905273ffffffffffffffffffffffffffffffffffffffff919091169063ed08141e906064016000604051808303816000875af1158015610c32573d6000803e3d6000fd5b505050506040513d6000823e601f3d9081017fffffffffffffffffffffffffffffffffffffffffffffffffffffffffffffffe0168201604052610c7891908101906116e8565b505b60408051602081018890520160405160208183030381529060405298505050505050505050919050565b6000610ce47f8a22373512790c48b83a1fe2efdd2888d4a917bcdc24d0adf63e60f6716804605473ffffffffffffffffffffffffffffffffffffffff1690565b905090565b6060610d158383604051602001610d0192919061175f565b6040516020818303038152906040526100cf565b9392505050565b7f8a22373512790c48b83a1fe2efdd2888d4a917bcdc24d0adf63e60f6716804605473ffffffffffffffffffffffffffffffffffffffff163314610d8c576040517f2f7a8ee100000000000000000000000000000000000000000000000000000000815260040160405180910390fd5b610d958161123f565b50565b600080548190610dde9073ffffffffffffffffffffffffffffffffffffffff167faf90be6cd7aa92d6569a9ae629178b74e1b0fbdd1097c27ec1dfffd2dc4c75406110fb565b90506000610e21846040518060400160405280600d81526020017f6275696c64696e672e74696c6500000000000000000000000000000000000000815250611248565b6040517fcccf7a8e0000000000000000000000000000000000000000000000000000000081526004810182905290915073ffffffffffffffffffffffffffffffffffffffff83169063cccf7a8e90602401602060405180830381865afa158015610e8f573d6000803e3d6000fd5b505050506040513d601f19601f82011682018060405250810190610eb39190611690565b610ec1575060009392505050565b6040517f0ff4c9160000000000000000000000000000000000000000000000000000000081526004810182905273ffffffffffffffffffffffffffffffffffffffff831690630ff4c91690602401602060405180830381865afa158015610f2c573d6000803e3d6000fd5b505050506040513d601f19601f82011682018060405250810190610f5091906116b2565b949350505050565b600080548190610f9e9073ffffffffffffffffffffffffffffffffffffffff167faf90be6cd7aa92d6569a9ae629178b74e1b0fbdd1097c27ec1dfffd2dc4c75406110fb565b9050336040517f0ff4c9160000000000000000000000000000000000000000000000000000000081526004810186905273ffffffffffffffffffffffffffffffffffffffff831690630ff4c91690602401602060405180830381865afa15801561100c573d6000803e3d6000fd5b505050506040513d601f19601f8201168201806040525081019061103091906116b2565b148015610f505750336040517f0ff4c9160000000000000000000000000000000000000000000000000000000081526004810185905273ffffffffffffffffffffffffffffffffffffffff831690630ff4c91690602401602060405180830381865afa1580156110a4573d6000803e3d6000fd5b505050506040513d601f19601f820116820180604052508101906110c891906116b2565b14949350505050565b600080546110f59073ffffffffffffffffffffffffffffffffffffffff16836110fb565b92915050565b6040517ffbdfa1ea00000000000000000000000000000000000000000000000000000000815260048101829052600090819073ffffffffffffffffffffffffffffffffffffffff85169063fbdfa1ea90602401600060405180830381865afa15801561116b573d6000803e3d6000fd5b505050506040513d6000823e601f3d9081017fffffffffffffffffffffffffffffffffffffffffffffffffffffffffffffffe01682016040526111b1919081019061179d565b9050805160000361121e576040517f08c379a000000000000000000000000000000000000000000000000000000000815260206004820152601160248201527f6964206e6f74207265676973746572656400000000000000000000000000000060448201526064016101c5565b610f508160008151811061123457611234611843565b602002602001015190565b610d95816112da565b6000826000015160e01b836020015160e01b8361126490611872565b604080517fffffffff0000000000000000000000000000000000000000000000000000000094851660208201529390921660248401527fffffffffffffffffffffffffffffffffffffffffffffffff000000000000000016602883015201604051602081830303815290604052610d15906118c2565b7f8a22373512790c48b83a1fe2efdd2888d4a917bcdc24d0adf63e60f671680460805460405173ffffffffffffffffffffffffffffffffffffffff8481169216907f8be0079c531659141344cd1fd0a4f28419497f9722a3daafe3b4186f6b6457e090600090a380547fffffffffffffffffffffffff00000000000000000000000000000000000000001673ffffffffffffffffffffffffffffffffffffffff92909216919091179055565b7f4e487b7100000000000000000000000000000000000000000000000000000000600052604160045260246000fd5b6040805190810167ffffffffffffffff811182821017156113d8576113d8611386565b60405290565b604051601f82017fffffffffffffffffffffffffffffffffffffffffffffffffffffffffffffffe016810167ffffffffffffffff8111828210171561142557611425611386565b604052919050565b600067ffffffffffffffff82111561144757611447611386565b50601f017fffffffffffffffffffffffffffffffffffffffffffffffffffffffffffffffe01660200190565b60006020828403121561148557600080fd5b813567ffffffffffffffff81111561149c57600080fd5b8201601f810184136114ad57600080fd5b80356114c06114bb8261142d565b6113de565b8181528560208385010111156114d557600080fd5b81602084016020830137600091810160200191909152949350505050565b60005b8381101561150e5781810151838201526020016114f6565b50506000910152565b60208152600082518060208401526115368160408501602087016114f3565b601f017fffffffffffffffffffffffffffffffffffffffffffffffffffffffffffffffe0169190910160400192915050565b8060030b8114610d9557600080fd5b60006040828403121561158957600080fd5b6115916113b5565b9050813561159e81611568565b815260208201356115ae81611568565b602082015292915050565b600080608083850312156115cc57600080fd5b6115d68484611577565b91506115e58460408501611577565b90509250929050565b73ffffffffffffffffffffffffffffffffffffffff81168114610d9557600080fd5b60006020828403121561162257600080fd5b8135610d15816115ee565b60006040828403121561163f57600080fd5b6116476113b5565b9050815161165481611568565b815260208201516115ae81611568565b6000806080838503121561167757600080fd5b611681848461162d565b91506115e5846040850161162d565b6000602082840312156116a257600080fd5b81518015158114610d1557600080fd5b6000602082840312156116c457600080fd5b5051919050565b6000602082840312156116dd57600080fd5b8151610d15816115ee565b6000602082840312156116fa57600080fd5b815167ffffffffffffffff81111561171157600080fd5b8201601f8101841361172257600080fd5b80516117306114bb8261142d565b81815285602083850101111561174557600080fd5b6117568260208301602086016114f3565b95945050505050565b608081016117808285805160030b8252602081015160030b60208301525050565b8251600390810b60408401526020840151900b6060830152610d15565b600060208083850312156117b057600080fd5b825167ffffffffffffffff808211156117c857600080fd5b818501915085601f8301126117dc57600080fd5b8151818111156117ee576117ee611386565b8060051b91506117ff8483016113de565b818152918301840191848101908884111561181957600080fd5b938501935b838510156118375784518252938501939085019061181e565b98975050505050505050565b7f4e487b7100000000000000000000000000000000000000000000000000000000600052603260045260246000fd5b6000815160208301517fffffffffffffffffffffffffffffffffffffffffffffffff0000000000000000808216935060188310156118ba5780818460180360031b1b83161693505b505050919050565b80516020808301519190811015611901577fffffffffffffffffffffffffffffffffffffffffffffffffffffffffffffffff8160200360031b1b821691505b5091905056fea264697066735822122017d998e57b9b917dabf1f82e4a84ea913891cd06701a4c7759901bf0a474df6d64736f6c63430008130033",
    "linkReferences": {}
  },
  "methodIdentifiers": {
    "execute(bytes)": "09c5eabe",
    "executeTyped((int32,int32),(int32,int32))": "aac25b73",
    "owner()": "8da5cb5b",
    "transferOwnership(address)": "f2fde38b"
  },
  "id": 157
}