{
  "abi": [
    {
      "inputs": [
        {
          "internalType": "contract IWorld",
          "name": "_world",
          "type": "address"
        },
        {
          "internalType": "address",
          "name": "_components",
          "type": "address"
        }
      ],
      "stateMutability": "nonpayable",
      "type": "constructor"
    },
    {
      "inputs": [],
      "name": "Ownable__NotOwner",
      "type": "error"
    },
    {
      "inputs": [],
      "name": "Ownable__NotTransitiveOwner",
      "type": "error"
    },
    {
      "anonymous": false,
      "inputs": [
        {
          "indexed": true,
          "internalType": "address",
          "name": "previousOwner",
          "type": "address"
        },
        {
          "indexed": true,
          "internalType": "address",
          "name": "newOwner",
          "type": "address"
        }
      ],
      "name": "OwnershipTransferred",
      "type": "event"
    },
    {
      "inputs": [
        {
          "components": [
            {
              "internalType": "int32",
              "name": "x",
              "type": "int32"
            },
            {
              "internalType": "int32",
              "name": "y",
              "type": "int32"
            }
          ],
          "internalType": "struct Coord",
          "name": "coord",
          "type": "tuple"
        },
        {
          "internalType": "uint256",
          "name": "originEntity",
          "type": "uint256"
        },
        {
          "internalType": "uint256",
          "name": "destination",
          "type": "uint256"
        }
      ],
      "name": "claimAdjacentBuildings",
      "outputs": [],
      "stateMutability": "nonpayable",
      "type": "function"
    },
    {
      "inputs": [
        {
          "components": [
            {
              "internalType": "int32",
              "name": "x",
              "type": "int32"
            },
            {
              "internalType": "int32",
              "name": "y",
              "type": "int32"
            }
          ],
          "internalType": "struct Coord",
          "name": "coord",
          "type": "tuple"
        },
        {
          "internalType": "uint256",
          "name": "originEntity",
          "type": "uint256"
        },
        {
          "internalType": "uint256",
          "name": "destination",
          "type": "uint256"
        }
      ],
      "name": "claimAdjacentConveyorTiles",
      "outputs": [],
      "stateMutability": "nonpayable",
      "type": "function"
    },
    {
      "inputs": [
        {
          "components": [
            {
              "internalType": "int32",
              "name": "x",
              "type": "int32"
            },
            {
              "internalType": "int32",
              "name": "y",
              "type": "int32"
            }
          ],
          "internalType": "struct Coord",
          "name": "coord",
          "type": "tuple"
        },
        {
          "internalType": "uint256",
          "name": "originEntity",
          "type": "uint256"
        },
        {
          "internalType": "uint256",
          "name": "destination",
          "type": "uint256"
        }
      ],
      "name": "claimBuilding",
      "outputs": [],
      "stateMutability": "nonpayable",
      "type": "function"
    },
    {
      "inputs": [
        {
          "components": [
            {
              "internalType": "int32",
              "name": "x",
              "type": "int32"
            },
            {
              "internalType": "int32",
              "name": "y",
              "type": "int32"
            }
          ],
          "internalType": "struct Coord",
          "name": "coord",
          "type": "tuple"
        },
        {
          "internalType": "uint256",
          "name": "originEntity",
          "type": "uint256"
        },
        {
          "internalType": "uint256",
          "name": "destination",
          "type": "uint256"
        }
      ],
      "name": "claimConveyorTile",
      "outputs": [],
      "stateMutability": "nonpayable",
      "type": "function"
    },
    {
      "inputs": [
        {
          "internalType": "bytes",
          "name": "args",
          "type": "bytes"
        }
      ],
      "name": "execute",
      "outputs": [
        {
          "internalType": "bytes",
          "name": "",
          "type": "bytes"
        }
      ],
      "stateMutability": "nonpayable",
      "type": "function"
    },
    {
      "inputs": [
        {
          "components": [
            {
              "internalType": "int32",
              "name": "x",
              "type": "int32"
            },
            {
              "internalType": "int32",
              "name": "y",
              "type": "int32"
            }
          ],
          "internalType": "struct Coord",
          "name": "coord",
          "type": "tuple"
        }
      ],
      "name": "executeTyped",
      "outputs": [
        {
          "internalType": "bytes",
          "name": "",
          "type": "bytes"
        }
      ],
      "stateMutability": "nonpayable",
      "type": "function"
    },
    {
      "inputs": [],
      "name": "owner",
      "outputs": [
        {
          "internalType": "address",
          "name": "",
          "type": "address"
        }
      ],
      "stateMutability": "view",
      "type": "function"
    },
    {
      "inputs": [
        {
          "internalType": "address",
          "name": "account",
          "type": "address"
        }
      ],
      "name": "transferOwnership",
      "outputs": [],
      "stateMutability": "nonpayable",
      "type": "function"
    }
  ],
  "bytecode": {
    "object": "0x60806040523480156200001157600080fd5b50604051620045413803806200454183398101604081905262000034916200022c565b818162000041336200010f565b6001600160a01b03811615620000585780620000bd565b816001600160a01b031663ba62fbe46040518163ffffffff1660e01b8152600401602060405180830381865afa15801562000097573d6000803e3d6000fd5b505050506040513d601f19601f82011682018060405250810190620000bd91906200026b565b600080546001600160a01b03199081166001600160a01b0393841690811790925560018054909116928516928317905562000105919062000183602090811b62002ef017901c565b5050505062000292565b600062000126620001ef60201b62002f811760201c565b80546040519192506001600160a01b03808516929116907f8be0079c531659141344cd1fd0a4f28419497f9722a3daafe3b4186f6b6457e090600090a380546001600160a01b0319166001600160a01b0392909216919091179055565b7ff67304f10c7772c78e439bc5cb07781db345424de8878c18100fdaa64d197a8780546001600160a01b039384166001600160a01b0319918216179091557ff67304f10c7772c78e439bc5cb07781db345424de8878c18100fdaa64d197a868054929093169116179055565b7f8a22373512790c48b83a1fe2efdd2888d4a917bcdc24d0adf63e60f67168046090565b6001600160a01b03811681146200022957600080fd5b50565b600080604083850312156200024057600080fd5b82516200024d8162000213565b6020840151909250620002608162000213565b809150509250929050565b6000602082840312156200027e57600080fd5b81516200028b8162000213565b9392505050565b61429f80620002a26000396000f3fe608060405234801561001057600080fd5b50600436106100885760003560e01c80638da5cb5b1161005b5780638da5cb5b146100f1578063cb6cbba71461011e578063dd83ed2b14610131578063f2fde38b1461014457600080fd5b806309c5eabe1461008d5780632542d63e146100b65780634c021bef146100cb57806352ada480146100de575b600080fd5b6100a061009b366004613de5565b610157565b6040516100ad9190613e98565b60405180910390f35b6100c96100c4366004613f76565b610ae0565b005b6100c96100d9366004613f76565b610ba1565b6100c96100ec366004613f76565b610c5d565b6100f9612866565b60405173ffffffffffffffffffffffffffffffffffffffff90911681526020016100ad565b6100a061012c366004613faa565b6128ab565b6100c961013f366004613f76565b6128f4565b6100c9610152366004613fc6565b612e74565b6040805160a08101909152600080546060929081906101ac9073ffffffffffffffffffffffffffffffffffffffff167f49a4584d9706380e35459e1f31e673445371b5bac20aa516f8ba8650b1843106612fa5565b73ffffffffffffffffffffffffffffffffffffffff90811682526000546020909201916101fa91167f30f1c358b0a577824afcc8e464bcbd763eba254820a547b425765e75cc511f1e612fa5565b73ffffffffffffffffffffffffffffffffffffffff908116825260005460209092019161024891167faf90be6cd7aa92d6569a9ae629178b74e1b0fbdd1097c27ec1dfffd2dc4c7540612fa5565b73ffffffffffffffffffffffffffffffffffffffff908116825260005460209092019161029691167fe95fc307e3922a4ed7e1a9d135b2e79aad91e806428d8c7ec9a376dfc8aede5e612fa5565b73ffffffffffffffffffffffffffffffffffffffff90811682526000546020909201916102e491167f2fc9fa89c3e33fdaa5feead211018b3d0b1d3edd613228f7f320915fddd8d039612fa5565b73ffffffffffffffffffffffffffffffffffffffff1681525090506000838060200190518101906103159190613ffc565b82516040517fbf3bf26a0000000000000000000000000000000000000000000000000000000081528251600390810b60048301526020840151900b602482015291925060009173ffffffffffffffffffffffffffffffffffffffff9091169063bf3bf26a90604401600060405180830381865afa15801561039a573d6000803e3d6000fd5b505050506040513d6000823e601f3d9081017fffffffffffffffffffffffffffffffffffffffffffffffffffffffffffffffe01682016040526103e0919081019061405b565b9050805160011461049e576040517f08c379a000000000000000000000000000000000000000000000000000000000815260206004820152604b60248201527f5b436c61696d46726f6d466163746f727953797374656d5d2043616e6e6f742060448201527f636c61696d2066726f6d20666163746f72696573206f6e20616e20656d70747960648201527f20636f6f7264696e617465000000000000000000000000000000000000000000608482015260a4015b60405180910390fd5b6000836040015173ffffffffffffffffffffffffffffffffffffffff16630ff4c916836000815181106104d3576104d3614101565b60200260200101516040518263ffffffff1660e01b81526004016104f991815260200190565b602060405180830381865afa158015610516573d6000803e3d6000fd5b505050506040513d601f19601f8201168201806040525081019061053a9190614130565b90503381146105f1576040517f08c379a000000000000000000000000000000000000000000000000000000000815260206004820152604d60248201527f5b436c61696d46726f6d466163746f727953797374656d5d2043616e6e6f742060448201527f636c61696d2066726f6d20666163746f72696573206f6e20612074696c65207960648201527f6f7520646f206e6f74206f776e00000000000000000000000000000000000000608482015260a401610495565b61061984608001518360008151811061060c5761060c614101565b60200260200101516130f1565b6106cb576040517f08c379a000000000000000000000000000000000000000000000000000000000815260206004820152604f60248201527f5b436c61696d46726f6d466163746f727953797374656d5d2043616e6e6f742060448201527f636c61696d2066726f6d20666163746f72696573206f6e20612074696c65207760648201527f697468207a65726f206865616c74680000000000000000000000000000000000608482015260a401610495565b6000439050846060015173ffffffffffffffffffffffffffffffffffffffff16631ab06ee58460008151811061070357610703614101565b6020026020010151836040518363ffffffff1660e01b8152600401610732929190918252602082015260400190565b600060405180830381600087803b15801561074c57600080fd5b505af1158015610760573d6000803e3d6000fd5b505050507fd1951468cf9e9494d5703385454c036cef4267b4bf50da6ae1b4239c5fa946d360001c856020015173ffffffffffffffffffffffffffffffffffffffff16630ff4c916856000815181106107bb576107bb614101565b60200260200101516040518263ffffffff1660e01b81526004016107e191815260200190565b602060405180830381865afa1580156107fe573d6000803e3d6000fd5b505050506040513d601f19601f820116820180604052508101906108229190614130565b0361086857610863848460008151811061083e5761083e614101565b60200260200101516100d93373ffffffffffffffffffffffffffffffffffffffff1690565b610ab9565b7f9d47592473d41327e0ccb0bb0dc69c74c6ac29b77beb0fc78a1c84d6f0bcf87b60001c856020015173ffffffffffffffffffffffffffffffffffffffff16630ff4c916856000815181106108bf576108bf614101565b60200260200101516040518263ffffffff1660e01b81526004016108e591815260200190565b602060405180830381865afa158015610902573d6000803e3d6000fd5b505050506040513d601f19601f820116820180604052508101906109269190614130565b036109755760008360008151811061094057610940614101565b6020026020010151905061096f858560008151811061096157610961614101565b602002602001015183610ba1565b50610ab9565b610a17856020015173ffffffffffffffffffffffffffffffffffffffff16630ff4c916856000815181106109ab576109ab614101565b60200260200101516040518263ffffffff1660e01b81526004016109d191815260200190565b602060405180830381865afa1580156109ee573d6000803e3d6000fd5b505050506040513d601f19601f82011682018060405250810190610a129190614130565b613229565b15610a315760008360008151811061094057610940614101565b6040517f08c379a000000000000000000000000000000000000000000000000000000000815260206004820152603c60248201527f5b436c61696d46726f6d466163746f727953797374656d5d2043616e6e6f742060448201527f73746f7265206974656d7320696e2073656c65637465642074696c65000000006064820152608401610495565b60408051600060208201520160405160208183030381529060405295505050505050919050565b610b19604051806040016040528060018660000151610aff9190614178565b60030b8152602001856020015160030b8152508383610c5d565b610b38604051806040016040528085600001516001610aff91906141ba565b610b706040518060400160405280856000015160030b815260200185602001516001610b6491906141ba565b60030b90528383610c5d565b610b9c6040518060400160405280856000015160030b815260200160018660200151610b649190614178565b505050565b610bda604051806040016040528060018660000151610bc09190614178565b60030b8152602001856020015160030b81525083836128f4565b610bf9604051806040016040528085600001516001610bc091906141ba565b610c316040518060400160405280856000015160030b815260200185602001516001610c2591906141ba565b60030b905283836128f4565b610b9c6040518060400160405280856000015160030b815260200160018660200151610c259190614178565b6040805160a08101909152600080549091908190610cb19073ffffffffffffffffffffffffffffffffffffffff167f49a4584d9706380e35459e1f31e673445371b5bac20aa516f8ba8650b1843106612fa5565b73ffffffffffffffffffffffffffffffffffffffff9081168252600054602090920191610cff91167f30f1c358b0a577824afcc8e464bcbd763eba254820a547b425765e75cc511f1e612fa5565b73ffffffffffffffffffffffffffffffffffffffff9081168252600054602090920191610d4d91167faf90be6cd7aa92d6569a9ae629178b74e1b0fbdd1097c27ec1dfffd2dc4c7540612fa5565b73ffffffffffffffffffffffffffffffffffffffff9081168252600054602090920191610d9b91167fe95fc307e3922a4ed7e1a9d135b2e79aad91e806428d8c7ec9a376dfc8aede5e612fa5565b73ffffffffffffffffffffffffffffffffffffffff9081168252600054602090920191610de991167f2fc9fa89c3e33fdaa5feead211018b3d0b1d3edd613228f7f320915fddd8d039612fa5565b73ffffffffffffffffffffffffffffffffffffffff1681525090506000604051806101400160405280610e5f60008054906101000a900473ffffffffffffffffffffffffffffffffffffffff167f98f0c8b62d21c4cef669697afa1f5e01ac9400dda73c1cc61acdee365361ebac60001c612fa5565b73ffffffffffffffffffffffffffffffffffffffff9081168252600054602090920191610eac91167eea6b38263d991f021369e569e8467f8f3cbea72100244a5f281e24bfda2951612fa5565b73ffffffffffffffffffffffffffffffffffffffff9081168252600054602090920191610efa91167f500b89d0d42372bc30164776b7f73c7b40c7739be2ff6847390b50a6df30ef04612fa5565b73ffffffffffffffffffffffffffffffffffffffff9081168252600054602090920191610f4891167fd187a1eaa929b0d8165b8f2565cc53668be1bde9279a4ac3327487ad8d44b82e612fa5565b73ffffffffffffffffffffffffffffffffffffffff9081168252600054602090920191610f9691167fbe8428e998d5d7c1ae38af5c80bff5ffee83321284ca39471b8a5b781a950b07612fa5565b73ffffffffffffffffffffffffffffffffffffffff9081168252600054602090920191610fe491167fc09a315aaed23a54ab125610397c87d26431e118184b9c88f80b861921833df0612fa5565b73ffffffffffffffffffffffffffffffffffffffff908116825260005460209092019161103291167f34cf43ef8ad03ea44a2ba9f6195982a9d85c9ab53eeb2c4312d2e7bbe42e007d612fa5565b73ffffffffffffffffffffffffffffffffffffffff908116825260005460209092019161108091167f9372649c816518b6dd0e3219cab061348a01565efb5c6c31efa3e18fd904867d612fa5565b73ffffffffffffffffffffffffffffffffffffffff90811682526000546020909201916110ce91167fbf38348b83d45b84f2b57fbdae696c9e53672fb7174959806fdd3336470fe8a4612fa5565b73ffffffffffffffffffffffffffffffffffffffff908116825260005460209092019161111c91167f7b68827cc57ac2713d48874791323aa88b5f07bf11b909e01db99acaeeebd27a612fa5565b73ffffffffffffffffffffffffffffffffffffffff90811690915283516040517fbf3bf26a0000000000000000000000000000000000000000000000000000000081528851600390810b600483015260208a0151900b602482015292935060009291169063bf3bf26a90604401600060405180830381865afa1580156111a6573d6000803e3d6000fd5b505050506040513d6000823e601f3d9081017fffffffffffffffffffffffffffffffffffffffffffffffffffffffffffffffe01682016040526111ec919081019061405b565b8051909150339060010361285d5761121584608001518360008151811061060c5761060c614101565b61127b576040517f08c379a000000000000000000000000000000000000000000000000000000000815260206004820152601260248201527f6865616c7468206973206e6f74207a65726f00000000000000000000000000006044820152606401610495565b858260008151811061128f5761128f614101565b6020026020010151036112a55750505050505050565b6000846040015173ffffffffffffffffffffffffffffffffffffffff16630ff4c916846000815181106112da576112da614101565b60200260200101516040518263ffffffff1660e01b815260040161130091815260200190565b602060405180830381865afa15801561131d573d6000803e3d6000fd5b505050506040513d601f19601f820116820180604052508101906113419190614130565b9050818114611354575050505050505050565b7f02fcfa4b1578384291174d276cbf45b9ac04481dd20e0e1051d17c6fa0028ce360001c856020015173ffffffffffffffffffffffffffffffffffffffff16630ff4c916856000815181106113ab576113ab614101565b60200260200101516040518263ffffffff1660e01b81526004016113d191815260200190565b602060405180830381865afa1580156113ee573d6000803e3d6000fd5b505050506040513d601f19601f820116820180604052508101906114129190614130565b03611492576000805461145b9073ffffffffffffffffffffffffffffffffffffffff167f2b1b2c311687f6d088e6878d29798bd311968672098eb007336cfa1029c1c3da612fa5565b905061148c85602001518660600151838760008151811061147e5761147e614101565b60200260200101518b613544565b5061285b565b7f5e81ec12aa8c2bb4493ce21f35dff56bf746562d8ebf1185b42b173bc80bcace60001c856020015173ffffffffffffffffffffffffffffffffffffffff16630ff4c916856000815181106114e9576114e9614101565b60200260200101516040518263ffffffff1660e01b815260040161150f91815260200190565b602060405180830381865afa15801561152c573d6000803e3d6000fd5b505050506040513d601f19601f820116820180604052508101906115509190614130565b036115c557600080546115999073ffffffffffffffffffffffffffffffffffffffff167f3ee5be4d005d8c712c96c9a76e0b5687b496c714ba631ab879a7fbce480d0301612fa5565b905061148c856060015182866000815181106115b7576115b7614101565b60200260200101518a613900565b7f9794860cce6121893962dba8949d43114cb9f47063158452a8495d9f41ac14fa60001c856020015173ffffffffffffffffffffffffffffffffffffffff16630ff4c9168560008151811061161c5761161c614101565b60200260200101516040518263ffffffff1660e01b815260040161164291815260200190565b602060405180830381865afa15801561165f573d6000803e3d6000fd5b505050506040513d601f19601f820116820180604052508101906116839190614130565b036116ef57600080546116cc9073ffffffffffffffffffffffffffffffffffffffff167f63918f516a057e384eaf1858a0b60cb81d0c2696ec79602dda05ad1057c9562c612fa5565b905061148c8560a001518660600151838760008151811061147e5761147e614101565b7fca256d02eff068cb848bbd6ac96fb95b98adc5396d2d6e5f8c75e35cf2a11d3a60001c856020015173ffffffffffffffffffffffffffffffffffffffff16630ff4c9168560008151811061174657611746614101565b60200260200101516040518263ffffffff1660e01b815260040161176c91815260200190565b602060405180830381865afa158015611789573d6000803e3d6000fd5b505050506040513d601f19601f820116820180604052508101906117ad9190614130565b0361187257600080546117f69073ffffffffffffffffffffffffffffffffffffffff167f63918f516a057e384eaf1858a0b60cb81d0c2696ec79602dda05ad1057c9562c612fa5565b600080549192509061183e9073ffffffffffffffffffffffffffffffffffffffff167f3fb4cb24943777045ea171f25676e53c604e34fef364bc21b495fbad4a7e79a1612fa5565b905061186b8660e0015183838860008151811061185d5761185d614101565b60200260200101518c613544565b505061285b565b7fcd4c83c6e4baad660288e899134b848be43d250ebe563a35a7440fe6f9420da160001c856020015173ffffffffffffffffffffffffffffffffffffffff16630ff4c916856000815181106118c9576118c9614101565b60200260200101516040518263ffffffff1660e01b81526004016118ef91815260200190565b602060405180830381865afa15801561190c573d6000803e3d6000fd5b505050506040513d601f19601f820116820180604052508101906119309190614130565b0361199757600080546119799073ffffffffffffffffffffffffffffffffffffffff167f0295352aba65a139b64bea22713672641830e824d7f6ed5f7b29cdf31b7f5159612fa5565b905061148c8560c0015182866000815181106115b7576115b7614101565b7fbf16ee459ff450e19286f18a5254f689662eba512e1106efa83ea886d6e8821c60001c856020015173ffffffffffffffffffffffffffffffffffffffff16630ff4c916856000815181106119ee576119ee614101565b60200260200101516040518263ffffffff1660e01b8152600401611a1491815260200190565b602060405180830381865afa158015611a31573d6000803e3d6000fd5b505050506040513d601f19601f82011682018060405250810190611a559190614130565b03611b5f5760008054611a9e9073ffffffffffffffffffffffffffffffffffffffff167f0295352aba65a139b64bea22713672641830e824d7f6ed5f7b29cdf31b7f5159612fa5565b6000805491925090611ae69073ffffffffffffffffffffffffffffffffffffffff167f63918f516a057e384eaf1858a0b60cb81d0c2696ec79602dda05ad1057c9562c612fa5565b6000805491925090611b2e9073ffffffffffffffffffffffffffffffffffffffff167f8ffb3ea5426544cc2974f7b2a963e8b36d1136a295fe59e4713c00881cc1e288612fa5565b9050611b5783838389600081518110611b4957611b49614101565b60200260200101518d613544565b50505061285b565b7fd8a643fa318db8acc88940eb9acac255a3e4f548e97580eb7f2ddde0b5cb611660001c856020015173ffffffffffffffffffffffffffffffffffffffff16630ff4c91685600081518110611bb657611bb6614101565b60200260200101516040518263ffffffff1660e01b8152600401611bdc91815260200190565b602060405180830381865afa158015611bf9573d6000803e3d6000fd5b505050506040513d601f19601f82011682018060405250810190611c1d9190614130565b03611cf65760008054611c669073ffffffffffffffffffffffffffffffffffffffff167f0295352aba65a139b64bea22713672641830e824d7f6ed5f7b29cdf31b7f5159612fa5565b6000805491925090611cae9073ffffffffffffffffffffffffffffffffffffffff167f8ffb3ea5426544cc2974f7b2a963e8b36d1136a295fe59e4713c00881cc1e288612fa5565b6000805491925090611b2e9073ffffffffffffffffffffffffffffffffffffffff167ff3c7430dad85a0ed77db5ddb335fbdcc763b5f0283a40a84786569af59e95cfe612fa5565b7ff9c605cb8149d0ae8a5d9cd09945aec188d2a15377677572b521bfb0be5c80ed60001c856020015173ffffffffffffffffffffffffffffffffffffffff16630ff4c91685600081518110611d4d57611d4d614101565b60200260200101516040518263ffffffff1660e01b8152600401611d7391815260200190565b602060405180830381865afa158015611d90573d6000803e3d6000fd5b505050506040513d601f19601f82011682018060405250810190611db49190614130565b03611e8d5760008054611dfd9073ffffffffffffffffffffffffffffffffffffffff167ff3c7430dad85a0ed77db5ddb335fbdcc763b5f0283a40a84786569af59e95cfe612fa5565b6000805491925090611e459073ffffffffffffffffffffffffffffffffffffffff167f3fb4cb24943777045ea171f25676e53c604e34fef364bc21b495fbad4a7e79a1612fa5565b6000805491925090611b2e9073ffffffffffffffffffffffffffffffffffffffff167f07287d2aeacf66eb7d9855979cb9ec53bafe8819b3168616167659c1087cbe82612fa5565b7f4250341db0b18fc0ae00a738f16aeb77fe5059ea1e4098b78488b807d408d56e60001c856020015173ffffffffffffffffffffffffffffffffffffffff16630ff4c91685600081518110611ee457611ee4614101565b60200260200101516040518263ffffffff1660e01b8152600401611f0a91815260200190565b602060405180830381865afa158015611f27573d6000803e3d6000fd5b505050506040513d601f19601f82011682018060405250810190611f4b9190614130565b03611fb35760008054611f949073ffffffffffffffffffffffffffffffffffffffff167fcc39c89142d83bc7392985df65ce41a0a8c7005e4485b37904e332d19f472aae612fa5565b905061148c85610100015182866000815181106115b7576115b7614101565b7f13a481631ba1249ac750d2ad108f78a8c956c66fd1d62cd2c0b446a3c865bb2b60001c856020015173ffffffffffffffffffffffffffffffffffffffff16630ff4c9168560008151811061200a5761200a614101565b60200260200101516040518263ffffffff1660e01b815260040161203091815260200190565b602060405180830381865afa15801561204d573d6000803e3d6000fd5b505050506040513d601f19601f820116820180604052508101906120719190614130565b036120d857600080546120ba9073ffffffffffffffffffffffffffffffffffffffff167f6be232756bbf00c33eabc74acda1c3360a8711ebd2ea6daadf7c63a4b074d504612fa5565b905061148c856040015182866000815181106115b7576115b7614101565b7f32e6f87aceaa4c2d319159525e4fac7cd17c3e4ceede167599303bd1d5f7729e60001c856020015173ffffffffffffffffffffffffffffffffffffffff16630ff4c9168560008151811061212f5761212f614101565b60200260200101516040518263ffffffff1660e01b815260040161215591815260200190565b602060405180830381865afa158015612172573d6000803e3d6000fd5b505050506040513d601f19601f820116820180604052508101906121969190614130565b0361226f57600080546121df9073ffffffffffffffffffffffffffffffffffffffff167f6be232756bbf00c33eabc74acda1c3360a8711ebd2ea6daadf7c63a4b074d504612fa5565b60008054919250906122279073ffffffffffffffffffffffffffffffffffffffff167fcc39c89142d83bc7392985df65ce41a0a8c7005e4485b37904e332d19f472aae612fa5565b6000805491925090611b2e9073ffffffffffffffffffffffffffffffffffffffff167ff5a0458017f3fa66c591b128df9a165121194030456baa8b1adcf1a6e9602a09612fa5565b7fcfb56e2ea348454073fc6d4fe422a5963dc9b1be76c7f4e4e6bc8cfde39ad2b960001c856020015173ffffffffffffffffffffffffffffffffffffffff16630ff4c916856000815181106122c6576122c6614101565b60200260200101516040518263ffffffff1660e01b81526004016122ec91815260200190565b602060405180830381865afa158015612309573d6000803e3d6000fd5b505050506040513d601f19601f8201168201806040525081019061232d9190614130565b0361240657600080546123769073ffffffffffffffffffffffffffffffffffffffff167f6be232756bbf00c33eabc74acda1c3360a8711ebd2ea6daadf7c63a4b074d504612fa5565b60008054919250906123be9073ffffffffffffffffffffffffffffffffffffffff167f8ffb3ea5426544cc2974f7b2a963e8b36d1136a295fe59e4713c00881cc1e288612fa5565b6000805491925090611b2e9073ffffffffffffffffffffffffffffffffffffffff167f68c5de33a475b7813a9f2742c6e5f771a555c65abf66d57c42d86e481ae2be82612fa5565b7fc29111c1b03ec36b7ed76742c49be3e45c7472f5cdc4036eb832638f3d23f5ad60001c856020015173ffffffffffffffffffffffffffffffffffffffff16630ff4c9168560008151811061245d5761245d614101565b60200260200101516040518263ffffffff1660e01b815260040161248391815260200190565b602060405180830381865afa1580156124a0573d6000803e3d6000fd5b505050506040513d601f19601f820116820180604052508101906124c49190614130565b0361259d576000805461250d9073ffffffffffffffffffffffffffffffffffffffff167ff5a0458017f3fa66c591b128df9a165121194030456baa8b1adcf1a6e9602a09612fa5565b60008054919250906125559073ffffffffffffffffffffffffffffffffffffffff167f68c5de33a475b7813a9f2742c6e5f771a555c65abf66d57c42d86e481ae2be82612fa5565b6000805491925090611b2e9073ffffffffffffffffffffffffffffffffffffffff167ff730e703f7010272dbf7d18203abbf9ca71d948effd568b95759454538d623de612fa5565b7f289820e95a6c3cf395995d62838f0bbba15a6ec752a76e93cb97b7987a6c693560001c856020015173ffffffffffffffffffffffffffffffffffffffff16630ff4c916856000815181106125f4576125f4614101565b60200260200101516040518263ffffffff1660e01b815260040161261a91815260200190565b602060405180830381865afa158015612637573d6000803e3d6000fd5b505050506040513d601f19601f8201168201806040525081019061265b9190614130565b0361273457600080546126a49073ffffffffffffffffffffffffffffffffffffffff167f07287d2aeacf66eb7d9855979cb9ec53bafe8819b3168616167659c1087cbe82612fa5565b60008054919250906126ec9073ffffffffffffffffffffffffffffffffffffffff167ff730e703f7010272dbf7d18203abbf9ca71d948effd568b95759454538d623de612fa5565b6000805491925090611b2e9073ffffffffffffffffffffffffffffffffffffffff167fa1b93d4f03ce40dca2cfb87e973b4740061c64542ab3297db2636aa1e59ad09e612fa5565b7f8354814bff380a814aa9c24aa870ea78a3087fff7347465e1c0cfc24cea1013360001c856020015173ffffffffffffffffffffffffffffffffffffffff16630ff4c9168560008151811061278b5761278b614101565b60200260200101516040518263ffffffff1660e01b81526004016127b191815260200190565b602060405180830381865afa1580156127ce573d6000803e3d6000fd5b505050506040513d601f19601f820116820180604052508101906127f29190614130565b0361285b576000805461283b9073ffffffffffffffffffffffffffffffffffffffff167fa417599b38e6583b46336250c0829bf4923a36c4b830c503f3787ea85fb75a3c612fa5565b9050612859856080015182866000815181106115b7576115b7614101565b505b505b50505050505050565b60006128a67f8a22373512790c48b83a1fe2efdd2888d4a917bcdc24d0adf63e60f6716804605473ffffffffffffffffffffffffffffffffffffffff1690565b905090565b60606128ee826040516020016128da91908151600390810b8252602092830151900b9181019190915260400190565b604051602081830303815290604052610157565b92915050565b600080546129389073ffffffffffffffffffffffffffffffffffffffff167f49a4584d9706380e35459e1f31e673445371b5bac20aa516f8ba8650b1843106612fa5565b60008054919250906129809073ffffffffffffffffffffffffffffffffffffffff167f30f1c358b0a577824afcc8e464bcbd763eba254820a547b425765e75cc511f1e612fa5565b60008054919250906129c89073ffffffffffffffffffffffffffffffffffffffff167f0d469bcaf5f43a6290ca2906ecdeb5ef80d7723e8cad27045bddb6e1eb9da435612fa5565b6000805491925090612a109073ffffffffffffffffffffffffffffffffffffffff167f2fc9fa89c3e33fdaa5feead211018b3d0b1d3edd613228f7f320915fddd8d039612fa5565b6040517fbf3bf26a0000000000000000000000000000000000000000000000000000000081528851600390810b600483015260208a0151900b602482015290915060009073ffffffffffffffffffffffffffffffffffffffff86169063bf3bf26a90604401600060405180830381865afa158015612a92573d6000803e3d6000fd5b505050506040513d6000823e601f3d9081017fffffffffffffffffffffffffffffffffffffffffffffffffffffffffffffffe0168201604052612ad8919081019061405b565b905080516001148015612c6357507f170729974eb622f2526fa4f92490a96d2ea29dc85bb4ce1e3d7b0f0a238a4ee560001c8473ffffffffffffffffffffffffffffffffffffffff16630ff4c91683600081518110612b3957612b39614101565b60200260200101516040518263ffffffff1660e01b8152600401612b5f91815260200190565b602060405180830381865afa158015612b7c573d6000803e3d6000fd5b505050506040513d601f19601f82011682018060405250810190612ba09190614130565b1480612c6357507f5dc2e1711c35bb96dbc441e9a8d2ca6965863dde6c810317df7a657d469a7a5360001c8473ffffffffffffffffffffffffffffffffffffffff16630ff4c91683600081518110612bfa57612bfa614101565b60200260200101516040518263ffffffff1660e01b8152600401612c2091815260200190565b602060405180830381865afa158015612c3d573d6000803e3d6000fd5b505050506040513d601f19601f82011682018060405250810190612c619190614130565b145b1561285b57612c7f828260008151811061060c5761060c614101565b612ce5576040517f08c379a000000000000000000000000000000000000000000000000000000000815260206004820152601260248201527f6865616c7468206973206e6f74207a65726f00000000000000000000000000006044820152606401610495565b612cf0888888610ae0565b60008373ffffffffffffffffffffffffffffffffffffffff1663fbdfa1ea83600081518110612d2157612d21614101565b60200260200101516040518263ffffffff1660e01b8152600401612d4791815260200190565b600060405180830381865afa158015612d64573d6000803e3d6000fd5b505050506040513d6000823e601f3d9081017fffffffffffffffffffffffffffffffffffffffffffffffffffffffffffffffe0168201604052612daa919081019061405b565b905060005b8151811015612e6857612e568773ffffffffffffffffffffffffffffffffffffffff16630ff4c916848481518110612de957612de9614101565b60200260200101516040518263ffffffff1660e01b8152600401612e0f91815260200190565b6040805180830381865afa158015612e2b573d6000803e3d6000fd5b505050506040513d601f19601f82011682018060405250810190612e4f9190613ffc565b8a8a6128f4565b80612e60816141fc565b915050612daf565b50505050505050505050565b7f8a22373512790c48b83a1fe2efdd2888d4a917bcdc24d0adf63e60f6716804605473ffffffffffffffffffffffffffffffffffffffff163314612ee4576040517f2f7a8ee100000000000000000000000000000000000000000000000000000000815260040160405180910390fd5b612eed81613b7f565b50565b7ff67304f10c7772c78e439bc5cb07781db345424de8878c18100fdaa64d197a87805473ffffffffffffffffffffffffffffffffffffffff9384167fffffffffffffffffffffffff0000000000000000000000000000000000000000918216179091557ff67304f10c7772c78e439bc5cb07781db345424de8878c18100fdaa64d197a868054929093169116179055565b7f8a22373512790c48b83a1fe2efdd2888d4a917bcdc24d0adf63e60f67168046090565b6040517ffbdfa1ea00000000000000000000000000000000000000000000000000000000815260048101829052600090819073ffffffffffffffffffffffffffffffffffffffff85169063fbdfa1ea90602401600060405180830381865afa158015613015573d6000803e3d6000fd5b505050506040513d6000823e601f3d9081017fffffffffffffffffffffffffffffffffffffffffffffffffffffffffffffffe016820160405261305b919081019061405b565b905080516000036130c8576040517f08c379a000000000000000000000000000000000000000000000000000000000815260206004820152601160248201527f6964206e6f7420726567697374657265640000000000000000000000000000006044820152606401610495565b6130e9816000815181106130de576130de614101565b602002602001015190565b949350505050565b6040517fcccf7a8e00000000000000000000000000000000000000000000000000000000815260048101829052600090819073ffffffffffffffffffffffffffffffffffffffff85169063cccf7a8e90602401602060405180830381865afa158015613161573d6000803e3d6000fd5b505050506040513d601f19601f820116820180604052508101906131859190614234565b61319057606461321f565b6040517f0ff4c9160000000000000000000000000000000000000000000000000000000081526004810184905273ffffffffffffffffffffffffffffffffffffffff851690630ff4c91690602401602060405180830381865afa1580156131fb573d6000803e3d6000fd5b505050506040513d601f19601f8201168201806040525081019061321f9190614130565b1515949350505050565b60007f02fcfa4b1578384291174d276cbf45b9ac04481dd20e0e1051d17c6fa0028ce382148061327857507f5e81ec12aa8c2bb4493ce21f35dff56bf746562d8ebf1185b42b173bc80bcace82145b806132a257507f9794860cce6121893962dba8949d43114cb9f47063158452a8495d9f41ac14fa82145b806132cc57507fca256d02eff068cb848bbd6ac96fb95b98adc5396d2d6e5f8c75e35cf2a11d3a82145b806132f657507fc5b2723c9f5ebeba49bd048804f6b7427f3d1d14fe2ddde79a8368b46739c69c82145b8061332057507f83fccdf257c1bc6218e3e9694bfb04533ac2d275f5b8cb462477a6f02da9aedb82145b8061334a57507fcd4c83c6e4baad660288e899134b848be43d250ebe563a35a7440fe6f9420da182145b8061337457507fbf16ee459ff450e19286f18a5254f689662eba512e1106efa83ea886d6e8821c82145b8061339e57507f4250341db0b18fc0ae00a738f16aeb77fe5059ea1e4098b78488b807d408d56e82145b806133c857507f13a481631ba1249ac750d2ad108f78a8c956c66fd1d62cd2c0b446a3c865bb2b82145b806133f257507f32e6f87aceaa4c2d319159525e4fac7cd17c3e4ceede167599303bd1d5f7729e82145b8061341c57507f161b72002b69ab81a251be29e8036f8a58aa6748539c1c7069ec87528ef4122782145b8061344657507fd8a643fa318db8acc88940eb9acac255a3e4f548e97580eb7f2ddde0b5cb611682145b8061347057507ff9c605cb8149d0ae8a5d9cd09945aec188d2a15377677572b521bfb0be5c80ed82145b8061349a57507f256c9a7f845a3a11dcb51c159d88557005a005a679ce6cd10a583b028e9d368b82145b806134c457507fcfb56e2ea348454073fc6d4fe422a5963dc9b1be76c7f4e4e6bc8cfde39ad2b982145b806134ee57507fc29111c1b03ec36b7ed76742c49be3e45c7472f5cdc4036eb832638f3d23f5ad82145b8061351857507f289820e95a6c3cf395995d62838f0bbba15a6ec752a76e93cb97b7987a6c693582145b806128ee5750507f8354814bff380a814aa9c24aa870ea78a3087fff7347465e1c0cfc24cea101331490565b60006135508684613b88565b9050600061355e8685613b88565b9050600061356c8686613b88565b9050600061357a8986613b88565b905060006135888987613b88565b905060006135968988613b88565b6040517f1ab06ee5000000000000000000000000000000000000000000000000000000008152600481018a90526000602482015290915073ffffffffffffffffffffffffffffffffffffffff8c1690631ab06ee590604401600060405180830381600087803b15801561360857600080fd5b505af115801561361c573d6000803e3d6000fd5b50506040517f1ab06ee5000000000000000000000000000000000000000000000000000000008152600481018b90526000602482015273ffffffffffffffffffffffffffffffffffffffff8d169250631ab06ee59150604401600060405180830381600087803b15801561368f57600080fd5b505af11580156136a3573d6000803e3d6000fd5b50506040517f1ab06ee5000000000000000000000000000000000000000000000000000000008152600481018b90526000602482015273ffffffffffffffffffffffffffffffffffffffff8c169250631ab06ee59150604401600060405180830381600087803b15801561371657600080fd5b505af115801561372a573d6000803e3d6000fd5b505050508a73ffffffffffffffffffffffffffffffffffffffff16631ab06ee58888866137579190614256565b6040517fffffffff0000000000000000000000000000000000000000000000000000000060e085901b16815260048101929092526024820152604401600060405180830381600087803b1580156137ad57600080fd5b505af11580156137c1573d6000803e3d6000fd5b505050508973ffffffffffffffffffffffffffffffffffffffff16631ab06ee58887856137ee9190614256565b6040517fffffffff0000000000000000000000000000000000000000000000000000000060e085901b16815260048101929092526024820152604401600060405180830381600087803b15801561384457600080fd5b505af1158015613858573d6000803e3d6000fd5b505050508873ffffffffffffffffffffffffffffffffffffffff16631ab06ee58886846138859190614256565b6040517fffffffff0000000000000000000000000000000000000000000000000000000060e085901b16815260048101929092526024820152604401600060405180830381600087803b1580156138db57600080fd5b505af11580156138ef573d6000803e3d6000fd5b505050505050505050505050505050565b600061390c8584613b88565b9050600061391a8585613b88565b905060006139288785613b88565b905060006139368786613b88565b6040517f1ab06ee5000000000000000000000000000000000000000000000000000000008152600481018890526000602482015290915073ffffffffffffffffffffffffffffffffffffffff891690631ab06ee590604401600060405180830381600087803b1580156139a857600080fd5b505af11580156139bc573d6000803e3d6000fd5b50506040517f1ab06ee5000000000000000000000000000000000000000000000000000000008152600481018990526000602482015273ffffffffffffffffffffffffffffffffffffffff8a169250631ab06ee59150604401600060405180830381600087803b158015613a2f57600080fd5b505af1158015613a43573d6000803e3d6000fd5b505050508773ffffffffffffffffffffffffffffffffffffffff16631ab06ee5868685613a709190614256565b6040517fffffffff0000000000000000000000000000000000000000000000000000000060e085901b16815260048101929092526024820152604401600060405180830381600087803b158015613ac657600080fd5b505af1158015613ada573d6000803e3d6000fd5b505050508673ffffffffffffffffffffffffffffffffffffffff16631ab06ee5868584613b079190614256565b6040517fffffffff0000000000000000000000000000000000000000000000000000000060e085901b16815260048101929092526024820152604401600060405180830381600087803b158015613b5d57600080fd5b505af1158015613b71573d6000803e3d6000fd5b505050505050505050505050565b612eed81613cbb565b6040517fcccf7a8e0000000000000000000000000000000000000000000000000000000081526004810182905260009073ffffffffffffffffffffffffffffffffffffffff84169063cccf7a8e90602401602060405180830381865afa158015613bf6573d6000803e3d6000fd5b505050506040513d601f19601f82011682018060405250810190613c1a9190614234565b613c25576000613cb4565b6040517f0ff4c9160000000000000000000000000000000000000000000000000000000081526004810183905273ffffffffffffffffffffffffffffffffffffffff841690630ff4c91690602401602060405180830381865afa158015613c90573d6000803e3d6000fd5b505050506040513d601f19601f82011682018060405250810190613cb49190614130565b9392505050565b7f8a22373512790c48b83a1fe2efdd2888d4a917bcdc24d0adf63e60f671680460805460405173ffffffffffffffffffffffffffffffffffffffff8481169216907f8be0079c531659141344cd1fd0a4f28419497f9722a3daafe3b4186f6b6457e090600090a380547fffffffffffffffffffffffff00000000000000000000000000000000000000001673ffffffffffffffffffffffffffffffffffffffff92909216919091179055565b7f4e487b7100000000000000000000000000000000000000000000000000000000600052604160045260246000fd5b604051601f82017fffffffffffffffffffffffffffffffffffffffffffffffffffffffffffffffe016810167ffffffffffffffff81118282101715613ddd57613ddd613d67565b604052919050565b60006020808385031215613df857600080fd5b823567ffffffffffffffff80821115613e1057600080fd5b818501915085601f830112613e2457600080fd5b813581811115613e3657613e36613d67565b613e66847fffffffffffffffffffffffffffffffffffffffffffffffffffffffffffffffe0601f84011601613d96565b91508082528684828501011115613e7c57600080fd5b8084840185840137600090820190930192909252509392505050565b600060208083528351808285015260005b81811015613ec557858101830151858201604001528201613ea9565b5060006040828601015260407fffffffffffffffffffffffffffffffffffffffffffffffffffffffffffffffe0601f8301168501019250505092915050565b8060030b8114612eed57600080fd5b600060408284031215613f2557600080fd5b6040516040810181811067ffffffffffffffff82111715613f4857613f48613d67565b6040529050808235613f5981613f04565b81526020830135613f6981613f04565b6020919091015292915050565b600080600060808486031215613f8b57600080fd5b613f958585613f13565b95604085013595506060909401359392505050565b600060408284031215613fbc57600080fd5b613cb48383613f13565b600060208284031215613fd857600080fd5b813573ffffffffffffffffffffffffffffffffffffffff81168114613cb457600080fd5b60006040828403121561400e57600080fd5b6040516040810181811067ffffffffffffffff8211171561403157614031613d67565b604052825161403f81613f04565b8152602083015161404f81613f04565b60208201529392505050565b6000602080838503121561406e57600080fd5b825167ffffffffffffffff8082111561408657600080fd5b818501915085601f83011261409a57600080fd5b8151818111156140ac576140ac613d67565b8060051b91506140bd848301613d96565b81815291830184019184810190888411156140d757600080fd5b938501935b838510156140f5578451825293850193908501906140dc565b98975050505050505050565b7f4e487b7100000000000000000000000000000000000000000000000000000000600052603260045260246000fd5b60006020828403121561414257600080fd5b5051919050565b7f4e487b7100000000000000000000000000000000000000000000000000000000600052601160045260246000fd5b600382810b9082900b037fffffffffffffffffffffffffffffffffffffffffffffffffffffffff800000008112637fffffff821317156128ee576128ee614149565b600381810b9083900b01637fffffff81137fffffffffffffffffffffffffffffffffffffffffffffffffffffffff80000000821217156128ee576128ee614149565b60007fffffffffffffffffffffffffffffffffffffffffffffffffffffffffffffffff820361422d5761422d614149565b5060010190565b60006020828403121561424657600080fd5b81518015158114613cb457600080fd5b808201808211156128ee576128ee61414956fea26469706673582212205d622480125690e59236b3fc725dabb650d76f3f96874e8604cf7655284172e464736f6c63430008110033",
    "linkReferences": {}
  },
  "methodIdentifiers": {
    "claimAdjacentBuildings((int32,int32),uint256,uint256)": "2542d63e",
    "claimAdjacentConveyorTiles((int32,int32),uint256,uint256)": "4c021bef",
    "claimBuilding((int32,int32),uint256,uint256)": "52ada480",
    "claimConveyorTile((int32,int32),uint256,uint256)": "dd83ed2b",
    "execute(bytes)": "09c5eabe",
    "executeTyped((int32,int32))": "cb6cbba7",
    "owner()": "8da5cb5b",
    "transferOwnership(address)": "f2fde38b"
  },
  "id": 164
}