{
  "abi": [
    {
      "inputs": [
        {
          "internalType": "contract IWorld",
          "name": "_world",
          "type": "address"
        },
        {
          "internalType": "address",
          "name": "_components",
          "type": "address"
        }
      ],
      "stateMutability": "nonpayable",
      "type": "constructor"
    },
    {
      "inputs": [],
      "name": "Ownable__NotOwner",
      "type": "error"
    },
    {
      "inputs": [],
      "name": "Ownable__NotTransitiveOwner",
      "type": "error"
    },
    {
      "anonymous": false,
      "inputs": [
        {
          "indexed": true,
          "internalType": "address",
          "name": "previousOwner",
          "type": "address"
        },
        {
          "indexed": true,
          "internalType": "address",
          "name": "newOwner",
          "type": "address"
        }
      ],
      "name": "OwnershipTransferred",
      "type": "event"
    },
    {
      "inputs": [
        {
          "components": [
            {
              "internalType": "int32",
              "name": "x",
              "type": "int32"
            },
            {
              "internalType": "int32",
              "name": "y",
              "type": "int32"
            }
          ],
          "internalType": "struct Coord",
          "name": "coord",
          "type": "tuple"
        },
        {
          "internalType": "uint256",
          "name": "originEntity",
          "type": "uint256"
        },
        {
          "internalType": "uint256",
          "name": "destination",
          "type": "uint256"
        }
      ],
      "name": "claimAdjacentBuildings",
      "outputs": [],
      "stateMutability": "nonpayable",
      "type": "function"
    },
    {
      "inputs": [
        {
          "components": [
            {
              "internalType": "int32",
              "name": "x",
              "type": "int32"
            },
            {
              "internalType": "int32",
              "name": "y",
              "type": "int32"
            }
          ],
          "internalType": "struct Coord",
          "name": "coord",
          "type": "tuple"
        },
        {
          "internalType": "uint256",
          "name": "originEntity",
          "type": "uint256"
        },
        {
          "internalType": "uint256",
          "name": "destination",
          "type": "uint256"
        }
      ],
      "name": "claimAdjacentNodeTiles",
      "outputs": [],
      "stateMutability": "nonpayable",
      "type": "function"
    },
    {
      "inputs": [
        {
          "components": [
            {
              "internalType": "int32",
              "name": "x",
              "type": "int32"
            },
            {
              "internalType": "int32",
              "name": "y",
              "type": "int32"
            }
          ],
          "internalType": "struct Coord",
          "name": "coord",
          "type": "tuple"
        },
        {
          "internalType": "uint256",
          "name": "originEntity",
          "type": "uint256"
        },
        {
          "internalType": "uint256",
          "name": "destination",
          "type": "uint256"
        }
      ],
      "name": "claimBuilding",
      "outputs": [],
      "stateMutability": "nonpayable",
      "type": "function"
    },
    {
      "inputs": [
        {
          "components": [
            {
              "internalType": "int32",
              "name": "x",
              "type": "int32"
            },
            {
              "internalType": "int32",
              "name": "y",
              "type": "int32"
            }
          ],
          "internalType": "struct Coord",
          "name": "coord",
          "type": "tuple"
        },
        {
          "internalType": "uint256",
          "name": "originEntity",
          "type": "uint256"
        },
        {
          "internalType": "uint256",
          "name": "destination",
          "type": "uint256"
        }
      ],
      "name": "claimNodeTile",
      "outputs": [],
      "stateMutability": "nonpayable",
      "type": "function"
    },
    {
      "inputs": [
        {
          "internalType": "bytes",
          "name": "args",
          "type": "bytes"
        }
      ],
      "name": "execute",
      "outputs": [
        {
          "internalType": "bytes",
          "name": "",
          "type": "bytes"
        }
      ],
      "stateMutability": "nonpayable",
      "type": "function"
    },
    {
      "inputs": [
        {
          "components": [
            {
              "internalType": "int32",
              "name": "x",
              "type": "int32"
            },
            {
              "internalType": "int32",
              "name": "y",
              "type": "int32"
            }
          ],
          "internalType": "struct Coord",
          "name": "coord",
          "type": "tuple"
        }
      ],
      "name": "executeTyped",
      "outputs": [
        {
          "internalType": "bytes",
          "name": "",
          "type": "bytes"
        }
      ],
      "stateMutability": "nonpayable",
      "type": "function"
    },
    {
      "inputs": [],
      "name": "owner",
      "outputs": [
        {
          "internalType": "address",
          "name": "",
          "type": "address"
        }
      ],
      "stateMutability": "view",
      "type": "function"
    },
    {
      "inputs": [
        {
          "internalType": "address",
          "name": "account",
          "type": "address"
        }
      ],
      "name": "transferOwnership",
      "outputs": [],
      "stateMutability": "nonpayable",
      "type": "function"
    }
  ],
  "bytecode": {
    "object": "0x60806040523480156200001157600080fd5b50604051620042d0380380620042d08339810160408190526200003491620001dc565b8181620000413362000149565b6001600160a01b03811615620000585780620000bd565b816001600160a01b031663ba62fbe46040518163ffffffff1660e01b8152600401602060405180830381865afa15801562000097573d6000803e3d6000fd5b505050506040513d601f19601f82011682018060405250810190620000bd91906200021b565b600080546001600160a01b039283166001600160a01b0319918216811790925560018054938616938216841790557ff67304f10c7772c78e439bc5cb07781db345424de8878c18100fdaa64d197a87805482169093179092557ff67304f10c7772c78e439bc5cb07781db345424de8878c18100fdaa64d197a8680549092161790555050505062000242565b7f8a22373512790c48b83a1fe2efdd2888d4a917bcdc24d0adf63e60f67168046080546040516001600160a01b038481169216907f8be0079c531659141344cd1fd0a4f28419497f9722a3daafe3b4186f6b6457e090600090a380546001600160a01b0319166001600160a01b0392909216919091179055565b6001600160a01b0381168114620001d957600080fd5b50565b60008060408385031215620001f057600080fd5b8251620001fd81620001c3565b60208401519092506200021081620001c3565b809150509250929050565b6000602082840312156200022e57600080fd5b81516200023b81620001c3565b9392505050565b61407e80620002526000396000f3fe608060405234801561001057600080fd5b50600436106100885760003560e01c8063cb6cbba71161005b578063cb6cbba71461010b578063e4146a971461011e578063f2fde38b14610131578063fbfd820f1461014457600080fd5b806309c5eabe1461008d5780632542d63e146100b657806352ada480146100cb5780638da5cb5b146100de575b600080fd5b6100a061009b366004613b22565b610157565b6040516100ad9190613bd5565b60405180910390f35b6100c96100c4366004613c92565b610916565b005b6100c96100d9366004613c92565b6109d7565b6100e6611f2b565b60405173ffffffffffffffffffffffffffffffffffffffff90911681526020016100ad565b6100a0610119366004613cc6565b611f70565b6100c961012c366004613c92565b611fb9565b6100c961013f366004613ce2565b612075565b6100c9610152366004613c92565b6120f1565b6040805160808101909152600080546060929081906101ac9073ffffffffffffffffffffffffffffffffffffffff167f30f1c358b0a577824afcc8e464bcbd763eba254820a547b425765e75cc511f1e612597565b73ffffffffffffffffffffffffffffffffffffffff90811682526000546020909201916101fa91167faf90be6cd7aa92d6569a9ae629178b74e1b0fbdd1097c27ec1dfffd2dc4c7540612597565b73ffffffffffffffffffffffffffffffffffffffff908116825260005460209092019161024891167fe95fc307e3922a4ed7e1a9d135b2e79aad91e806428d8c7ec9a376dfc8aede5e612597565b73ffffffffffffffffffffffffffffffffffffffff908116825260005460209092019161029691167f2fc9fa89c3e33fdaa5feead211018b3d0b1d3edd613228f7f320915fddd8d039612597565b73ffffffffffffffffffffffffffffffffffffffff1681525090506000838060200190518101906102c79190613d18565b9050600061030a826040518060400160405280600881526020017f6275696c64696e670000000000000000000000000000000000000000000000008152506126e3565b83516040517fcccf7a8e0000000000000000000000000000000000000000000000000000000081526004810183905291925073ffffffffffffffffffffffffffffffffffffffff169063cccf7a8e90602401602060405180830381865afa158015610379573d6000803e3d6000fd5b505050506040513d601f19601f8201168201806040525081019061039d9190613d59565b610454576040517f08c379a000000000000000000000000000000000000000000000000000000000815260206004820152604b60248201527f5b436c61696d46726f6d466163746f727953797374656d5d2043616e6e6f742060448201527f636c61696d2066726f6d20666163746f72696573206f6e20616e20656d70747960648201527f20636f6f7264696e617465000000000000000000000000000000000000000000608482015260a4015b60405180910390fd5b60208301516040517f0ff4c9160000000000000000000000000000000000000000000000000000000081526004810183905260009173ffffffffffffffffffffffffffffffffffffffff1690630ff4c91690602401602060405180830381865afa1580156104c6573d6000803e3d6000fd5b505050506040513d601f19601f820116820180604052508101906104ea9190613d7b565b90503381146105a1576040517f08c379a000000000000000000000000000000000000000000000000000000000815260206004820152604d60248201527f5b436c61696d46726f6d466163746f727953797374656d5d2043616e6e6f742060448201527f636c61696d2066726f6d20666163746f72696573206f6e20612074696c65207960648201527f6f7520646f206e6f74206f776e00000000000000000000000000000000000000608482015260a40161044b565b6105af84606001518361277c565b610661576040517f08c379a000000000000000000000000000000000000000000000000000000000815260206004820152604f60248201527f5b436c61696d46726f6d466163746f727953797374656d5d2043616e6e6f742060448201527f636c61696d2066726f6d20666163746f72696573206f6e20612074696c65207760648201527f697468207a65726f206865616c74680000000000000000000000000000000000608482015260a40161044b565b60408481015190517f1ab06ee50000000000000000000000000000000000000000000000000000000081526004810184905243602482018190529173ffffffffffffffffffffffffffffffffffffffff1690631ab06ee590604401600060405180830381600087803b1580156106d657600080fd5b505af11580156106ea573d6000803e3d6000fd5b505086516040517f0ff4c916000000000000000000000000000000000000000000000000000000008152600481018790527fd1951468cf9e9494d5703385454c036cef4267b4bf50da6ae1b4239c5fa946d3935073ffffffffffffffffffffffffffffffffffffffff9091169150630ff4c91690602401602060405180830381865afa15801561077e573d6000803e3d6000fd5b505050506040513d601f19601f820116820180604052508101906107a29190613d7b565b036107b7576107b2848433611fb9565b6108ef565b84516040517f0ff4c916000000000000000000000000000000000000000000000000000000008152600481018590526108509173ffffffffffffffffffffffffffffffffffffffff1690630ff4c91690602401602060405180830381865afa158015610827573d6000803e3d6000fd5b505050506040513d601f19601f8201168201806040525081019061084b9190613d7b565b6128b4565b156108675782610861858280611fb9565b506108ef565b6040517f08c379a000000000000000000000000000000000000000000000000000000000815260206004820152603c60248201527f5b436c61696d46726f6d466163746f727953797374656d5d2043616e6e6f742060448201527f73746f7265206974656d7320696e2073656c65637465642074696c6500000000606482015260840161044b565b60408051600060208201520160405160208183030381529060405295505050505050919050565b61094f6040518060400160405280600186600001516109359190613dc3565b60030b8152602001856020015160030b81525083836109d7565b61096e6040518060400160405280856000015160016109359190613e05565b6109a66040518060400160405280856000015160030b81526020018560200151600161099a9190613e05565b60030b905283836109d7565b6109d26040518060400160405280856000015160030b81526020016001866020015161099a9190613dc3565b505050565b6040805160808101909152600080549091908190610a2b9073ffffffffffffffffffffffffffffffffffffffff167f30f1c358b0a577824afcc8e464bcbd763eba254820a547b425765e75cc511f1e612597565b73ffffffffffffffffffffffffffffffffffffffff9081168252600054602090920191610a7991167faf90be6cd7aa92d6569a9ae629178b74e1b0fbdd1097c27ec1dfffd2dc4c7540612597565b73ffffffffffffffffffffffffffffffffffffffff9081168252600054602090920191610ac791167fe95fc307e3922a4ed7e1a9d135b2e79aad91e806428d8c7ec9a376dfc8aede5e612597565b73ffffffffffffffffffffffffffffffffffffffff9081168252600054602090920191610b1591167f2fc9fa89c3e33fdaa5feead211018b3d0b1d3edd613228f7f320915fddd8d039612597565b73ffffffffffffffffffffffffffffffffffffffff9081169091526000805492935091610b6391167ffba48a04766694c16713a414735f83be9cb20bbb29b5e18846cc8f1510640845612597565b90506000610ba6866040518060400160405280600881526020017f6275696c64696e670000000000000000000000000000000000000000000000008152506126e3565b905060003384516040517fcccf7a8e0000000000000000000000000000000000000000000000000000000081526004810185905291925073ffffffffffffffffffffffffffffffffffffffff169063cccf7a8e90602401602060405180830381865afa158015610c1a573d6000803e3d6000fd5b505050506040513d601f19601f82011682018060405250810190610c3e9190613d59565b15611f2257610c5184606001518361277c565b610cb7576040517f08c379a000000000000000000000000000000000000000000000000000000000815260206004820152601260248201527f6865616c7468206973206e6f74207a65726f0000000000000000000000000000604482015260640161044b565b858203610cc75750505050505050565b60208401516040517f0ff4c9160000000000000000000000000000000000000000000000000000000081526004810184905260009173ffffffffffffffffffffffffffffffffffffffff1690630ff4c91690602401602060405180830381865afa158015610d39573d6000803e3d6000fd5b505050506040513d601f19601f82011682018060405250810190610d5d9190613d7b565b9050818114610d70575050505050505050565b84516040517f0ff4c916000000000000000000000000000000000000000000000000000000008152600481018590527f02fcfa4b1578384291174d276cbf45b9ac04481dd20e0e1051d17c6fa0028ce39173ffffffffffffffffffffffffffffffffffffffff1690630ff4c91690602401602060405180830381865afa158015610dfe573d6000803e3d6000fd5b505050506040513d601f19601f82011682018060405250810190610e229190613d7b565b03610e9a57610e958484887f4952f11b5e88ffd88b7a0231ee67228cf0d58eb081bf31517c674f44264c783f7f88897217b7ca352fa62012bfb0aa451ebca6a6ff9208f9698f717331232152a77f9182d0838cda5b8b8d04b7fdb048ae0d49c90dd4f4ef46ab0958cf6328dfb2ca612c23565b611f20565b84516040517f0ff4c916000000000000000000000000000000000000000000000000000000008152600481018590527fc21aa058984e15d171bb2700beb69b4647d2526ebb432e9a3aee422dd64f038f9173ffffffffffffffffffffffffffffffffffffffff1690630ff4c91690602401602060405180830381865afa158015610f28573d6000803e3d6000fd5b505050506040513d601f19601f82011682018060405250810190610f4c9190613d7b565b03610fbf57610e958484887f7deaae6bb7615fd1b4e86953f0141ba774ea3adbdd6e2ee244147bfb86aaace57f88897217b7ca352fa62012bfb0aa451ebca6a6ff9208f9698f717331232152a77f9182d0838cda5b8b8d04b7fdb048ae0d49c90dd4f4ef46ab0958cf6328dfb2ca612c23565b84516040517f0ff4c916000000000000000000000000000000000000000000000000000000008152600481018590527f5e81ec12aa8c2bb4493ce21f35dff56bf746562d8ebf1185b42b173bc80bcace9173ffffffffffffffffffffffffffffffffffffffff1690630ff4c91690602401602060405180830381865afa15801561104d573d6000803e3d6000fd5b505050506040513d601f19601f820116820180604052508101906110719190613d7b565b036110c357610e958484887f7deaae6bb7615fd1b4e86953f0141ba774ea3adbdd6e2ee244147bfb86aaace57f88897217b7ca352fa62012bfb0aa451ebca6a6ff9208f9698f717331232152a76131f6565b84516040517f0ff4c916000000000000000000000000000000000000000000000000000000008152600481018590527f9794860cce6121893962dba8949d43114cb9f47063158452a8495d9f41ac14fa9173ffffffffffffffffffffffffffffffffffffffff1690630ff4c91690602401602060405180830381865afa158015611151573d6000803e3d6000fd5b505050506040513d601f19601f820116820180604052508101906111759190613d7b565b036111e857610e958484887fbbf0e151801f18e0d112665520a2c0dc8c9590ce85e2851f7f78de30c4c6d51a7f17025afdea42119548a0a5f9ec0cdbdcb19e7a9f4b475913071021a3cdbb5bfd7f88897217b7ca352fa62012bfb0aa451ebca6a6ff9208f9698f717331232152a7612c23565b84516040517f0ff4c916000000000000000000000000000000000000000000000000000000008152600481018590527fca256d02eff068cb848bbd6ac96fb95b98adc5396d2d6e5f8c75e35cf2a11d3a9173ffffffffffffffffffffffffffffffffffffffff1690630ff4c91690602401602060405180830381865afa158015611276573d6000803e3d6000fd5b505050506040513d601f19601f8201168201806040525081019061129a9190613d7b565b0361130d57610e958484887fec80ff155d880c151528d536ae07261be7e0f0ec79c8853fb5205684633239dc7fbbf0e151801f18e0d112665520a2c0dc8c9590ce85e2851f7f78de30c4c6d51a7f416cd867e38826680c4261f20f5285dd44a10270a8118bdeec1383c9a089cf04612c23565b84516040517f0ff4c916000000000000000000000000000000000000000000000000000000008152600481018590527fcd4c83c6e4baad660288e899134b848be43d250ebe563a35a7440fe6f9420da19173ffffffffffffffffffffffffffffffffffffffff1690630ff4c91690602401602060405180830381865afa15801561139b573d6000803e3d6000fd5b505050506040513d601f19601f820116820180604052508101906113bf9190613d7b565b0361141157610e958484887f5affe8a57277a7102b0bbaade99cebaf060fa104c6f9b2ef54bc3d0b5009e4637f6c4cf968092a55522769ad001f5a4d068bbdc6ea30a7d8f460833f83e9c9727c6131f6565b84516040517f0ff4c916000000000000000000000000000000000000000000000000000000008152600481018590527fbf16ee459ff450e19286f18a5254f689662eba512e1106efa83ea886d6e8821c9173ffffffffffffffffffffffffffffffffffffffff1690630ff4c91690602401602060405180830381865afa15801561149f573d6000803e3d6000fd5b505050506040513d601f19601f820116820180604052508101906114c39190613d7b565b0361153657610e958484887f19ddbba09381803c7aefa2731f58c344a8370583a0b53b4213e30ce69a4c85c07f5affe8a57277a7102b0bbaade99cebaf060fa104c6f9b2ef54bc3d0b5009e4637fbbf0e151801f18e0d112665520a2c0dc8c9590ce85e2851f7f78de30c4c6d51a612c23565b84516040517f0ff4c916000000000000000000000000000000000000000000000000000000008152600481018590527fd8a643fa318db8acc88940eb9acac255a3e4f548e97580eb7f2ddde0b5cb61169173ffffffffffffffffffffffffffffffffffffffff1690630ff4c91690602401602060405180830381865afa1580156115c4573d6000803e3d6000fd5b505050506040513d601f19601f820116820180604052508101906115e89190613d7b565b0361165b57610e958484887ff86d50efe05e7dda79c003b5d4de9920855994c36c1e10fc14b46aaa116073c67f5affe8a57277a7102b0bbaade99cebaf060fa104c6f9b2ef54bc3d0b5009e4637f19ddbba09381803c7aefa2731f58c344a8370583a0b53b4213e30ce69a4c85c0612c23565b84516040517f0ff4c916000000000000000000000000000000000000000000000000000000008152600481018590527ff9c605cb8149d0ae8a5d9cd09945aec188d2a15377677572b521bfb0be5c80ed9173ffffffffffffffffffffffffffffffffffffffff1690630ff4c91690602401602060405180830381865afa1580156116e9573d6000803e3d6000fd5b505050506040513d601f19601f8201168201806040525081019061170d9190613d7b565b0361178057610e958484887f0c3016c3f177a1aea6cba33a3ccb8e01cef39a514cc6bb0b1223aecdbbbd34927ff86d50efe05e7dda79c003b5d4de9920855994c36c1e10fc14b46aaa116073c67fec80ff155d880c151528d536ae07261be7e0f0ec79c8853fb5205684633239dc612c23565b84516040517f0ff4c916000000000000000000000000000000000000000000000000000000008152600481018590527f4250341db0b18fc0ae00a738f16aeb77fe5059ea1e4098b78488b807d408d56e9173ffffffffffffffffffffffffffffffffffffffff1690630ff4c91690602401602060405180830381865afa15801561180e573d6000803e3d6000fd5b505050506040513d601f19601f820116820180604052508101906118329190613d7b565b0361188457610e958484887f86e73de3ac620e292e280fd2df5d7acbc4c214f5d881d6a384e0de3ad7d91cd57ff22d62753c9bef149557affda667bdaa3aff1e69179b0c09e101bfc462bf4fae6131f6565b84516040517f0ff4c916000000000000000000000000000000000000000000000000000000008152600481018590527f13a481631ba1249ac750d2ad108f78a8c956c66fd1d62cd2c0b446a3c865bb2b9173ffffffffffffffffffffffffffffffffffffffff1690630ff4c91690602401602060405180830381865afa158015611912573d6000803e3d6000fd5b505050506040513d601f19601f820116820180604052508101906119369190613d7b565b0361198857610e958484887f411675c9d4275dfb3010259013ee279130ee32a3a7d9b6372c9b3a0cf2fe007c7fb533b87fd579e6a4bd7adf53c6573acece50e469a2a3480b5694a32c710af2916131f6565b84516040517f0ff4c916000000000000000000000000000000000000000000000000000000008152600481018590527f32e6f87aceaa4c2d319159525e4fac7cd17c3e4ceede167599303bd1d5f7729e9173ffffffffffffffffffffffffffffffffffffffff1690630ff4c91690602401602060405180830381865afa158015611a16573d6000803e3d6000fd5b505050506040513d601f19601f82011682018060405250810190611a3a9190613d7b565b03611aad57610e958484887fd9418932daa63d0584685e5e12e024d763737dd3d7987cba52901bb702a71eba7f411675c9d4275dfb3010259013ee279130ee32a3a7d9b6372c9b3a0cf2fe007c7f86e73de3ac620e292e280fd2df5d7acbc4c214f5d881d6a384e0de3ad7d91cd5612c23565b84516040517f0ff4c916000000000000000000000000000000000000000000000000000000008152600481018590527fcfb56e2ea348454073fc6d4fe422a5963dc9b1be76c7f4e4e6bc8cfde39ad2b99173ffffffffffffffffffffffffffffffffffffffff1690630ff4c91690602401602060405180830381865afa158015611b3b573d6000803e3d6000fd5b505050506040513d601f19601f82011682018060405250810190611b5f9190613d7b565b03611bd257610e958484887fcb4b1a16e996a77db534cc9953e3a609aaf28bd5d6665555df84fa08ffc034657f411675c9d4275dfb3010259013ee279130ee32a3a7d9b6372c9b3a0cf2fe007c7f19ddbba09381803c7aefa2731f58c344a8370583a0b53b4213e30ce69a4c85c0612c23565b84516040517f0ff4c916000000000000000000000000000000000000000000000000000000008152600481018590527fc29111c1b03ec36b7ed76742c49be3e45c7472f5cdc4036eb832638f3d23f5ad9173ffffffffffffffffffffffffffffffffffffffff1690630ff4c91690602401602060405180830381865afa158015611c60573d6000803e3d6000fd5b505050506040513d601f19601f82011682018060405250810190611c849190613d7b565b03611cf757610e958484887f91f93424fea36c7a4a1a3de34568499e2122a2870b9f421088a80c2566a347937fd9418932daa63d0584685e5e12e024d763737dd3d7987cba52901bb702a71eba7fcb4b1a16e996a77db534cc9953e3a609aaf28bd5d6665555df84fa08ffc03465612c23565b84516040517f0ff4c916000000000000000000000000000000000000000000000000000000008152600481018590527f289820e95a6c3cf395995d62838f0bbba15a6ec752a76e93cb97b7987a6c69359173ffffffffffffffffffffffffffffffffffffffff1690630ff4c91690602401602060405180830381865afa158015611d85573d6000803e3d6000fd5b505050506040513d601f19601f82011682018060405250810190611da99190613d7b565b03611e1c57610e958484887fdf054c8ff646f055efa75559586847c60a9365d45c0aa564f013bf3ad4f3621f7f0c3016c3f177a1aea6cba33a3ccb8e01cef39a514cc6bb0b1223aecdbbbd34927f91f93424fea36c7a4a1a3de34568499e2122a2870b9f421088a80c2566a34793612c23565b84516040517f0ff4c916000000000000000000000000000000000000000000000000000000008152600481018590527f8354814bff380a814aa9c24aa870ea78a3087fff7347465e1c0cfc24cea101339173ffffffffffffffffffffffffffffffffffffffff1690630ff4c91690602401602060405180830381865afa158015611eaa573d6000803e3d6000fd5b505050506040513d601f19601f82011682018060405250810190611ece9190613d7b565b03611f2057611f208484887feca34f2b0223a68bf924ac6039230f608d3402b84363c664fc8e2dadbef21f9e7fae6e54a2162e6ef6bb60a2555b10f3160acb04e5d6181837025ff5cdd9df7ff16131f6565b505b50505050505050565b6000611f6b7f8a22373512790c48b83a1fe2efdd2888d4a917bcdc24d0adf63e60f6716804605473ffffffffffffffffffffffffffffffffffffffff1690565b905090565b6060611fb382604051602001611f9f91908151600390810b8252602092830151900b9181019190915260400190565b604051602081830303815290604052610157565b92915050565b611ff2604051806040016040528060018660000151611fd89190613dc3565b60030b8152602001856020015160030b81525083836120f1565b612011604051806040016040528085600001516001611fd89190613e05565b6120496040518060400160405280856000015160030b81526020018560200151600161203d9190613e05565b60030b905283836120f1565b6109d26040518060400160405280856000015160030b81526020016001866020015161203d9190613dc3565b7f8a22373512790c48b83a1fe2efdd2888d4a917bcdc24d0adf63e60f6716804605473ffffffffffffffffffffffffffffffffffffffff1633146120e5576040517f2f7a8ee100000000000000000000000000000000000000000000000000000000815260040160405180910390fd5b6120ee816135c6565b50565b600080546121359073ffffffffffffffffffffffffffffffffffffffff167f30f1c358b0a577824afcc8e464bcbd763eba254820a547b425765e75cc511f1e612597565b600080549192509061217d9073ffffffffffffffffffffffffffffffffffffffff167f0d469bcaf5f43a6290ca2906ecdeb5ef80d7723e8cad27045bddb6e1eb9da435612597565b60008054919250906121c59073ffffffffffffffffffffffffffffffffffffffff167f2fc9fa89c3e33fdaa5feead211018b3d0b1d3edd613228f7f320915fddd8d039612597565b90506000612208876040518060400160405280600881526020017f6275696c64696e670000000000000000000000000000000000000000000000008152506126e3565b6040517fcccf7a8e0000000000000000000000000000000000000000000000000000000081526004810182905290915073ffffffffffffffffffffffffffffffffffffffff85169063cccf7a8e90602401602060405180830381865afa158015612276573d6000803e3d6000fd5b505050506040513d601f19601f8201168201806040525081019061229a9190613d59565b801561240c57506040517f0ff4c916000000000000000000000000000000000000000000000000000000008152600481018290527fa46f07eacbf4d6e00c069dad9b4c9bc8743bfbbc08b881083f59c909623871dd9073ffffffffffffffffffffffffffffffffffffffff861690630ff4c91690602401602060405180830381865afa15801561232e573d6000803e3d6000fd5b505050506040513d601f19601f820116820180604052508101906123529190613d7b565b148061240c57506040517f0ff4c916000000000000000000000000000000000000000000000000000000008152600481018290527f5dc2e1711c35bb96dbc441e9a8d2ca6965863dde6c810317df7a657d469a7a539073ffffffffffffffffffffffffffffffffffffffff861690630ff4c91690602401602060405180830381865afa1580156123e6573d6000803e3d6000fd5b505050506040513d601f19601f8201168201806040525081019061240a9190613d7b565b145b15611f225761241b828261277c565b612481576040517f08c379a000000000000000000000000000000000000000000000000000000000815260206004820152601260248201527f6865616c7468206973206e6f74207a65726f0000000000000000000000000000604482015260640161044b565b61248c878787610916565b6040517ffbdfa1ea0000000000000000000000000000000000000000000000000000000081526004810182905260009073ffffffffffffffffffffffffffffffffffffffff85169063fbdfa1ea90602401600060405180830381865afa1580156124fa573d6000803e3d6000fd5b505050506040513d6000823e601f3d9081017fffffffffffffffffffffffffffffffffffffffffffffffffffffffffffffffe01682016040526125409190810190613e47565b905060005b815181101561258c5761257a61257383838151811061256657612566613eed565b60200260200101516135cf565b89896120f1565b8061258481613f1c565b915050612545565b505050505050505050565b6040517ffbdfa1ea00000000000000000000000000000000000000000000000000000000815260048101829052600090819073ffffffffffffffffffffffffffffffffffffffff85169063fbdfa1ea90602401600060405180830381865afa158015612607573d6000803e3d6000fd5b505050506040513d6000823e601f3d9081017fffffffffffffffffffffffffffffffffffffffffffffffffffffffffffffffe016820160405261264d9190810190613e47565b905080516000036126ba576040517f08c379a000000000000000000000000000000000000000000000000000000000815260206004820152601160248201527f6964206e6f742072656769737465726564000000000000000000000000000000604482015260640161044b565b6126db816000815181106126d0576126d0613eed565b602002602001015190565b949350505050565b6000826000015160e01b836020015160e01b836126ff90613f54565b604080517fffffffff0000000000000000000000000000000000000000000000000000000094851660208201529390921660248401527fffffffffffffffffffffffffffffffffffffffffffffffff00000000000000001660288301520160405160208183030381529060405261277590613fa4565b9392505050565b6040517fcccf7a8e0000000000000000000000000000000000000000000000000000000081526004810182905260009073ffffffffffffffffffffffffffffffffffffffff84169063cccf7a8e90602401602060405180830381865afa1580156127ea573d6000803e3d6000fd5b505050506040513d601f19601f8201168201806040525081019061280e9190613d59565b61281a57506001611fb3565b6040517f0ff4c9160000000000000000000000000000000000000000000000000000000081526004810183905260009073ffffffffffffffffffffffffffffffffffffffff851690630ff4c91690602401602060405180830381865afa158015612888573d6000803e3d6000fd5b505050506040513d601f19601f820116820180604052508101906128ac9190613d7b565b119050611fb3565b60007f9d47592473d41327e0ccb0bb0dc69c74c6ac29b77beb0fc78a1c84d6f0bcf87b82148061290357507f02fcfa4b1578384291174d276cbf45b9ac04481dd20e0e1051d17c6fa0028ce382145b8061292d57507fc21aa058984e15d171bb2700beb69b4647d2526ebb432e9a3aee422dd64f038f82145b8061295757507f5e81ec12aa8c2bb4493ce21f35dff56bf746562d8ebf1185b42b173bc80bcace82145b8061298157507f9794860cce6121893962dba8949d43114cb9f47063158452a8495d9f41ac14fa82145b806129ab57507fca256d02eff068cb848bbd6ac96fb95b98adc5396d2d6e5f8c75e35cf2a11d3a82145b806129d557507fc5b2723c9f5ebeba49bd048804f6b7427f3d1d14fe2ddde79a8368b46739c69c82145b806129ff57507f83fccdf257c1bc6218e3e9694bfb04533ac2d275f5b8cb462477a6f02da9aedb82145b80612a2957507fcd4c83c6e4baad660288e899134b848be43d250ebe563a35a7440fe6f9420da182145b80612a5357507fbf16ee459ff450e19286f18a5254f689662eba512e1106efa83ea886d6e8821c82145b80612a7d57507f4250341db0b18fc0ae00a738f16aeb77fe5059ea1e4098b78488b807d408d56e82145b80612aa757507f13a481631ba1249ac750d2ad108f78a8c956c66fd1d62cd2c0b446a3c865bb2b82145b80612ad157507f32e6f87aceaa4c2d319159525e4fac7cd17c3e4ceede167599303bd1d5f7729e82145b80612afb57507f161b72002b69ab81a251be29e8036f8a58aa6748539c1c7069ec87528ef4122782145b80612b2557507fd8a643fa318db8acc88940eb9acac255a3e4f548e97580eb7f2ddde0b5cb611682145b80612b4f57507ff9c605cb8149d0ae8a5d9cd09945aec188d2a15377677572b521bfb0be5c80ed82145b80612b7957507f256c9a7f845a3a11dcb51c159d88557005a005a679ce6cd10a583b028e9d368b82145b80612ba357507fcfb56e2ea348454073fc6d4fe422a5963dc9b1be76c7f4e4e6bc8cfde39ad2b982145b80612bcd57507fc29111c1b03ec36b7ed76742c49be3e45c7472f5cdc4036eb832638f3d23f5ad82145b80612bf757507f289820e95a6c3cf395995d62838f0bbba15a6ec752a76e93cb97b7987a6c693582145b80611fb35750507f8354814bff380a814aa9c24aa870ea78a3087fff7347465e1c0cfc24cea101331490565b60408051602080820186905281830188905282518083038401815260609092019092528051910120600090612c5e9088906136e6565b6136e6565b90506000612c9788612c59868a604080516020808201949094528082019290925280518083038201815260609092019052805191012090565b90506000612cd089612c59868b604080516020808201949094528082019290925280518083038201815260609092019052805191012090565b90506000612d098a612c59898b604080516020808201949094528082019290925280518083038201815260609092019052805191012090565b90506000612d428b612c59898c604080516020808201949094528082019290925280518083038201815260609092019052805191012090565b90506000612d7b8c612c59898d604080516020808201949094528082019290925280518083038201815260609092019052805191012090565b6040805160208082018d90528183018f90528251808303840181526060909201909252805191012090915073ffffffffffffffffffffffffffffffffffffffff8d1690631ab06ee5906040517fffffffff0000000000000000000000000000000000000000000000000000000060e084901b168152600481019190915260006024820152604401600060405180830381600087803b158015612e1c57600080fd5b505af1158015612e30573d6000803e3d6000fd5b505050508b73ffffffffffffffffffffffffffffffffffffffff16631ab06ee5612e818a8e604080516020808201949094528082019290925280518083038201815260609092019052805191012090565b6040517fffffffff0000000000000000000000000000000000000000000000000000000060e084901b168152600481019190915260006024820152604401600060405180830381600087803b158015612ed957600080fd5b505af1158015612eed573d6000803e3d6000fd5b505050508b73ffffffffffffffffffffffffffffffffffffffff16631ab06ee5612f3e898e604080516020808201949094528082019290925280518083038201815260609092019052805191012090565b6040517fffffffff0000000000000000000000000000000000000000000000000000000060e084901b168152600481019190915260006024820152604401600060405180830381600087803b158015612f9657600080fd5b505af1158015612faa573d6000803e3d6000fd5b50506040805160208082018e90528183018f90528251808303840181526060909201909252805191012073ffffffffffffffffffffffffffffffffffffffff8f169250631ab06ee59150612ffe8987613fe9565b6040517fffffffff0000000000000000000000000000000000000000000000000000000060e085901b16815260048101929092526024820152604401600060405180830381600087803b15801561305457600080fd5b505af1158015613068573d6000803e3d6000fd5b50506040805160208082018d90528183018f90528251808303840181526060909201909252805191012073ffffffffffffffffffffffffffffffffffffffff8f169250631ab06ee591506130bc8886613fe9565b6040517fffffffff0000000000000000000000000000000000000000000000000000000060e085901b16815260048101929092526024820152604401600060405180830381600087803b15801561311257600080fd5b505af1158015613126573d6000803e3d6000fd5b50506040805160208082018c90528183018f90528251808303840181526060909201909252805191012073ffffffffffffffffffffffffffffffffffffffff8f169250631ab06ee5915061317a8785613fe9565b6040517fffffffff0000000000000000000000000000000000000000000000000000000060e085901b16815260048101929092526024820152604401600060405180830381600087803b1580156131d057600080fd5b505af11580156131e4573d6000803e3d6000fd5b50505050505050505050505050505050565b6040805160208082018590528183018790528251808303840181526060909201909252805191012060009061322c9087906136e6565b9050600061326587612c598589604080516020808201949094528082019290925280518083038201815260609092019052805191012090565b9050600061329e88612c598789604080516020808201949094528082019290925280518083038201815260609092019052805191012090565b905060006132d789612c59878a604080516020808201949094528082019290925280518083038201815260609092019052805191012090565b6040805160208082018a90528183018c90528251808303840181526060909201909252805191012090915073ffffffffffffffffffffffffffffffffffffffff8a1690631ab06ee5906040517fffffffff0000000000000000000000000000000000000000000000000000000060e084901b168152600481019190915260006024820152604401600060405180830381600087803b15801561337857600080fd5b505af115801561338c573d6000803e3d6000fd5b50506040805160208082018a90528183018d905282518083038401815260608301808552815191909201207f1ab06ee5000000000000000000000000000000000000000000000000000000009091526064820152600060848201819052915173ffffffffffffffffffffffffffffffffffffffff8e169450631ab06ee5935060a4808301939282900301818387803b15801561342757600080fd5b505af115801561343b573d6000803e3d6000fd5b50506040805160208082018b90528183018c90528251808303840181526060909201909252805191012073ffffffffffffffffffffffffffffffffffffffff8c169250631ab06ee5915061348f8786613fe9565b6040517fffffffff0000000000000000000000000000000000000000000000000000000060e085901b16815260048101929092526024820152604401600060405180830381600087803b1580156134e557600080fd5b505af11580156134f9573d6000803e3d6000fd5b50506040805160208082018a90528183018c90528251808303840181526060909201909252805191012073ffffffffffffffffffffffffffffffffffffffff8c169250631ab06ee5915061354d8685613fe9565b6040517fffffffff0000000000000000000000000000000000000000000000000000000060e085901b16815260048101929092526024820152604401600060405180830381600087803b1580156135a357600080fd5b505af11580156135b7573d6000803e3d6000fd5b50505050505050505050505050565b6120ee81613812565b60408051808201825260008082526020808301829052835180820186905284518082039092018252600281860181815260a08301875294959294929091606001908036833701905050905060048160008151811061362f5761362f613eed565b602002602001019060ff16908160ff168152505060048160018151811061365857613658613eed565b602002602001019060ff16908160ff1681525050600061367883836138be565b905060405180604001604052808260008151811061369857613698613eed565b60200260200101516136a990613ffc565b60e01c60030b8152602001826001815181106136c7576136c7613eed565b60200260200101516136d890613ffc565b60e01d905295945050505050565b6040517fcccf7a8e0000000000000000000000000000000000000000000000000000000081526004810182905260009073ffffffffffffffffffffffffffffffffffffffff84169063cccf7a8e90602401602060405180830381865afa158015613754573d6000803e3d6000fd5b505050506040513d601f19601f820116820180604052508101906137789190613d59565b613783576000612775565b6040517f0ff4c9160000000000000000000000000000000000000000000000000000000081526004810183905273ffffffffffffffffffffffffffffffffffffffff841690630ff4c91690602401602060405180830381865afa1580156137ee573d6000803e3d6000fd5b505050506040513d601f19601f820116820180604052508101906127759190613d7b565b7f8a22373512790c48b83a1fe2efdd2888d4a917bcdc24d0adf63e60f671680460805460405173ffffffffffffffffffffffffffffffffffffffff8481169216907f8be0079c531659141344cd1fd0a4f28419497f9722a3daafe3b4186f6b6457e090600090a380547fffffffffffffffffffffffff00000000000000000000000000000000000000001673ffffffffffffffffffffffffffffffffffffffff92909216919091179055565b60606000825167ffffffffffffffff8111156138dc576138dc613a7b565b60405190808252806020026020018201604052801561390f57816020015b60608152602001906001900390816138fa5790505b5090506000805b8451811015613a715784818151811061393157613931613eed565b602002602001015160ff1667ffffffffffffffff81111561395457613954613a7b565b6040519080825280601f01601f19166020018201604052801561397e576020820181803683370190505b5083828151811061399157613991613eed565b602002602001018190525060005b8582815181106139b1576139b1613eed565b602002602001015160ff16811015613a445786818401815181106139d7576139d7613eed565b602001015160f81c60f81b8483815181106139f4576139f4613eed565b60200260200101518281518110613a0d57613a0d613eed565b60200101907effffffffffffffffffffffffffffffffffffffffffffffffffffffffffffff1916908160001a90535060010161399f565b50848181518110613a5757613a57613eed565b602002602001015160ff1682019150600181019050613916565b5090949350505050565b7f4e487b7100000000000000000000000000000000000000000000000000000000600052604160045260246000fd5b6040805190810167ffffffffffffffff81118282101715613acd57613acd613a7b565b60405290565b604051601f82017fffffffffffffffffffffffffffffffffffffffffffffffffffffffffffffffe016810167ffffffffffffffff81118282101715613b1a57613b1a613a7b565b604052919050565b60006020808385031215613b3557600080fd5b823567ffffffffffffffff80821115613b4d57600080fd5b818501915085601f830112613b6157600080fd5b813581811115613b7357613b73613a7b565b613ba3847fffffffffffffffffffffffffffffffffffffffffffffffffffffffffffffffe0601f84011601613ad3565b91508082528684828501011115613bb957600080fd5b8084840185840137600090820190930192909252509392505050565b600060208083528351808285015260005b81811015613c0257858101830151858201604001528201613be6565b5060006040828601015260407fffffffffffffffffffffffffffffffffffffffffffffffffffffffffffffffe0601f8301168501019250505092915050565b8060030b81146120ee57600080fd5b600060408284031215613c6257600080fd5b613c6a613aaa565b90508135613c7781613c41565b81526020820135613c8781613c41565b602082015292915050565b600080600060808486031215613ca757600080fd5b613cb18585613c50565b95604085013595506060909401359392505050565b600060408284031215613cd857600080fd5b6127758383613c50565b600060208284031215613cf457600080fd5b813573ffffffffffffffffffffffffffffffffffffffff8116811461277557600080fd5b600060408284031215613d2a57600080fd5b613d32613aaa565b8251613d3d81613c41565b81526020830151613d4d81613c41565b60208201529392505050565b600060208284031215613d6b57600080fd5b8151801515811461277557600080fd5b600060208284031215613d8d57600080fd5b5051919050565b7f4e487b7100000000000000000000000000000000000000000000000000000000600052601160045260246000fd5b600382810b9082900b037fffffffffffffffffffffffffffffffffffffffffffffffffffffffff800000008112637fffffff82131715611fb357611fb3613d94565b600381810b9083900b01637fffffff81137fffffffffffffffffffffffffffffffffffffffffffffffffffffffff8000000082121715611fb357611fb3613d94565b60006020808385031215613e5a57600080fd5b825167ffffffffffffffff80821115613e7257600080fd5b818501915085601f830112613e8657600080fd5b815181811115613e9857613e98613a7b565b8060051b9150613ea9848301613ad3565b8181529183018401918481019088841115613ec357600080fd5b938501935b83851015613ee157845182529385019390850190613ec8565b98975050505050505050565b7f4e487b7100000000000000000000000000000000000000000000000000000000600052603260045260246000fd5b60007fffffffffffffffffffffffffffffffffffffffffffffffffffffffffffffffff8203613f4d57613f4d613d94565b5060010190565b6000815160208301517fffffffffffffffffffffffffffffffffffffffffffffffff000000000000000080821693506018831015613f9c5780818460180360031b1b83161693505b505050919050565b80516020808301519190811015613fe3577fffffffffffffffffffffffffffffffffffffffffffffffffffffffffffffffff8160200360031b1b821691505b50919050565b80820180821115611fb357611fb3613d94565b6000815160208301517fffffffff0000000000000000000000000000000000000000000000000000000080821693506004831015613f9c5760049290920360031b82901b16169291505056fea26469706673582212208736e73a9231c9996314e06608b5187ba04fa35d050b7c9547f542179ca54f0a64736f6c63430008130033",
    "linkReferences": {}
  },
  "methodIdentifiers": {
    "claimAdjacentBuildings((int32,int32),uint256,uint256)": "2542d63e",
    "claimAdjacentNodeTiles((int32,int32),uint256,uint256)": "e4146a97",
    "claimBuilding((int32,int32),uint256,uint256)": "52ada480",
    "claimNodeTile((int32,int32),uint256,uint256)": "fbfd820f",
    "execute(bytes)": "09c5eabe",
    "executeTyped((int32,int32))": "cb6cbba7",
    "owner()": "8da5cb5b",
    "transferOwnership(address)": "f2fde38b"
  },
  "id": 114
}