{
  "abi": [
    {
      "inputs": [
        {
          "internalType": "contract IWorld",
          "name": "_world",
          "type": "address"
        },
        {
          "internalType": "address",
          "name": "_components",
          "type": "address"
        }
      ],
      "stateMutability": "nonpayable",
      "type": "constructor"
    },
    {
      "inputs": [],
      "name": "Ownable__NotOwner",
      "type": "error"
    },
    {
      "inputs": [],
      "name": "Ownable__NotTransitiveOwner",
      "type": "error"
    },
    {
      "anonymous": false,
      "inputs": [
        {
          "indexed": true,
          "internalType": "address",
          "name": "previousOwner",
          "type": "address"
        },
        {
          "indexed": true,
          "internalType": "address",
          "name": "newOwner",
          "type": "address"
        }
      ],
      "name": "OwnershipTransferred",
      "type": "event"
    },
    {
      "inputs": [
        {
          "components": [
            {
              "internalType": "int32",
              "name": "x",
              "type": "int32"
            },
            {
              "internalType": "int32",
              "name": "y",
              "type": "int32"
            }
          ],
          "internalType": "struct Coord",
          "name": "coord",
          "type": "tuple"
        },
        {
          "internalType": "uint256",
          "name": "originEntity",
          "type": "uint256"
        },
        {
          "internalType": "uint256",
          "name": "destination",
          "type": "uint256"
        }
      ],
      "name": "claimAdjacentBuildings",
      "outputs": [],
      "stateMutability": "nonpayable",
      "type": "function"
    },
    {
      "inputs": [
        {
          "components": [
            {
              "internalType": "int32",
              "name": "x",
              "type": "int32"
            },
            {
              "internalType": "int32",
              "name": "y",
              "type": "int32"
            }
          ],
          "internalType": "struct Coord",
          "name": "coord",
          "type": "tuple"
        },
        {
          "internalType": "uint256",
          "name": "originEntity",
          "type": "uint256"
        },
        {
          "internalType": "uint256",
          "name": "destination",
          "type": "uint256"
        }
      ],
      "name": "claimAdjacentConveyorTiles",
      "outputs": [],
      "stateMutability": "nonpayable",
      "type": "function"
    },
    {
      "inputs": [
        {
          "components": [
            {
              "internalType": "int32",
              "name": "x",
              "type": "int32"
            },
            {
              "internalType": "int32",
              "name": "y",
              "type": "int32"
            }
          ],
          "internalType": "struct Coord",
          "name": "coord",
          "type": "tuple"
        },
        {
          "internalType": "uint256",
          "name": "originEntity",
          "type": "uint256"
        },
        {
          "internalType": "uint256",
          "name": "destination",
          "type": "uint256"
        }
      ],
      "name": "claimBuilding",
      "outputs": [],
      "stateMutability": "nonpayable",
      "type": "function"
    },
    {
      "inputs": [
        {
          "components": [
            {
              "internalType": "int32",
              "name": "x",
              "type": "int32"
            },
            {
              "internalType": "int32",
              "name": "y",
              "type": "int32"
            }
          ],
          "internalType": "struct Coord",
          "name": "coord",
          "type": "tuple"
        },
        {
          "internalType": "uint256",
          "name": "originEntity",
          "type": "uint256"
        },
        {
          "internalType": "uint256",
          "name": "destination",
          "type": "uint256"
        }
      ],
      "name": "claimConveyorTile",
      "outputs": [],
      "stateMutability": "nonpayable",
      "type": "function"
    },
    {
      "inputs": [
        {
          "internalType": "bytes",
          "name": "args",
          "type": "bytes"
        }
      ],
      "name": "execute",
      "outputs": [
        {
          "internalType": "bytes",
          "name": "",
          "type": "bytes"
        }
      ],
      "stateMutability": "nonpayable",
      "type": "function"
    },
    {
      "inputs": [
        {
          "components": [
            {
              "internalType": "int32",
              "name": "x",
              "type": "int32"
            },
            {
              "internalType": "int32",
              "name": "y",
              "type": "int32"
            }
          ],
          "internalType": "struct Coord",
          "name": "coord",
          "type": "tuple"
        }
      ],
      "name": "executeTyped",
      "outputs": [
        {
          "internalType": "bytes",
          "name": "",
          "type": "bytes"
        }
      ],
      "stateMutability": "nonpayable",
      "type": "function"
    },
    {
      "inputs": [],
      "name": "owner",
      "outputs": [
        {
          "internalType": "address",
          "name": "",
          "type": "address"
        }
      ],
      "stateMutability": "view",
      "type": "function"
    },
    {
      "inputs": [
        {
          "internalType": "address",
          "name": "account",
          "type": "address"
        }
      ],
      "name": "transferOwnership",
      "outputs": [],
      "stateMutability": "nonpayable",
      "type": "function"
    }
  ],
  "bytecode": {
    "object": "0x60806040523480156200001157600080fd5b506040516200555b3803806200555b83398101604081905262000034916200022c565b818162000041336200010f565b6001600160a01b03811615620000585780620000bd565b816001600160a01b031663ba62fbe46040518163ffffffff1660e01b8152600401602060405180830381865afa15801562000097573d6000803e3d6000fd5b505050506040513d601f19601f82011682018060405250810190620000bd91906200026b565b600080546001600160a01b03199081166001600160a01b0393841690811790925560018054909116928516928317905562000105919062000183602090811b62001c1017901c565b5050505062000292565b600062000126620001ef60201b62001ca11760201c565b80546040519192506001600160a01b03808516929116907f8be0079c531659141344cd1fd0a4f28419497f9722a3daafe3b4186f6b6457e090600090a380546001600160a01b0319166001600160a01b0392909216919091179055565b7ff67304f10c7772c78e439bc5cb07781db345424de8878c18100fdaa64d197a8780546001600160a01b039384166001600160a01b0319918216179091557ff67304f10c7772c78e439bc5cb07781db345424de8878c18100fdaa64d197a868054929093169116179055565b7f8a22373512790c48b83a1fe2efdd2888d4a917bcdc24d0adf63e60f67168046090565b6001600160a01b03811681146200022957600080fd5b50565b600080604083850312156200024057600080fd5b82516200024d8162000213565b6020840151909250620002608162000213565b809150509250929050565b6000602082840312156200027e57600080fd5b81516200028b8162000213565b9392505050565b6152b980620002a26000396000f3fe608060405234801561001057600080fd5b50600436106100885760003560e01c80638da5cb5b1161005b5780638da5cb5b146100f1578063cb6cbba71461011e578063dd83ed2b14610131578063f2fde38b1461014457600080fd5b806309c5eabe1461008d5780632542d63e146100b65780634c021bef146100cb57806352ada480146100de575b600080fd5b6100a061009b366004614cfe565b610157565b6040516100ad9190614db1565b60405180910390f35b6100c96100c4366004614e8f565b610ae1565b005b6100c96100d9366004614e8f565b610ba2565b6100c96100ec366004614e8f565b610c5e565b6100f9611585565b60405173ffffffffffffffffffffffffffffffffffffffff90911681526020016100ad565b6100a061012c366004614ec3565b6115ca565b6100c961013f366004614e8f565b611613565b6100c9610152366004614edf565b611b94565b6040805160a08101909152600080546060929081906101ac9073ffffffffffffffffffffffffffffffffffffffff167f49a4584d9706380e35459e1f31e673445371b5bac20aa516f8ba8650b1843106611cc5565b73ffffffffffffffffffffffffffffffffffffffff90811682526000546020909201916101fa91167f30f1c358b0a577824afcc8e464bcbd763eba254820a547b425765e75cc511f1e611cc5565b73ffffffffffffffffffffffffffffffffffffffff908116825260005460209092019161024891167faf90be6cd7aa92d6569a9ae629178b74e1b0fbdd1097c27ec1dfffd2dc4c7540611cc5565b73ffffffffffffffffffffffffffffffffffffffff908116825260005460209092019161029691167fe95fc307e3922a4ed7e1a9d135b2e79aad91e806428d8c7ec9a376dfc8aede5e611cc5565b73ffffffffffffffffffffffffffffffffffffffff90811682526000546020909201916102e491167f2fc9fa89c3e33fdaa5feead211018b3d0b1d3edd613228f7f320915fddd8d039611cc5565b73ffffffffffffffffffffffffffffffffffffffff1681525090506000838060200190518101906103159190614f15565b82516040517fbf3bf26a0000000000000000000000000000000000000000000000000000000081528251600390810b60048301526020840151900b602482015291925060009173ffffffffffffffffffffffffffffffffffffffff9091169063bf3bf26a90604401600060405180830381865afa15801561039a573d6000803e3d6000fd5b505050506040513d6000823e601f3d9081017fffffffffffffffffffffffffffffffffffffffffffffffffffffffffffffffe01682016040526103e09190810190614f74565b9050805160011461049f576040517f08c379a0000000000000000000000000000000000000000000000000000000008152602060048201526044602482018190527f5b436c61696d46726f6d4d696e6553797374656d5d2043616e6e6f7420636c61908201527f696d2066726f6d206d696e6573206f6e20616e20656d70747920636f6f72646960648201527f6e61746500000000000000000000000000000000000000000000000000000000608482015260a4015b60405180910390fd5b6000836040015173ffffffffffffffffffffffffffffffffffffffff16630ff4c916836000815181106104d4576104d461501a565b60200260200101516040518263ffffffff1660e01b81526004016104fa91815260200190565b602060405180830381865afa158015610517573d6000803e3d6000fd5b505050506040513d601f19601f8201168201806040525081019061053b9190615049565b90503381146105f2576040517f08c379a000000000000000000000000000000000000000000000000000000000815260206004820152604660248201527f5b436c61696d46726f6d4d696e6553797374656d5d2043616e6e6f7420636c6160448201527f696d2066726f6d206d696e6573206f6e20612074696c6520796f7520646f206e60648201527f6f74206f776e0000000000000000000000000000000000000000000000000000608482015260a401610496565b61061a84608001518360008151811061060d5761060d61501a565b6020026020010151611e11565b6106cc576040517f08c379a000000000000000000000000000000000000000000000000000000000815260206004820152604860248201527f5b436c61696d46726f6d4d696e6553797374656d5d2043616e6e6f7420636c6160448201527f696d2066726f6d206d696e6573206f6e20612074696c652077697468207a657260648201527f6f206865616c7468000000000000000000000000000000000000000000000000608482015260a401610496565b6000439050846060015173ffffffffffffffffffffffffffffffffffffffff16631ab06ee5846000815181106107045761070461501a565b6020026020010151836040518363ffffffff1660e01b8152600401610733929190918252602082015260400190565b600060405180830381600087803b15801561074d57600080fd5b505af1158015610761573d6000803e3d6000fd5b505050507fd1951468cf9e9494d5703385454c036cef4267b4bf50da6ae1b4239c5fa946d360001c856020015173ffffffffffffffffffffffffffffffffffffffff16630ff4c916856000815181106107bc576107bc61501a565b60200260200101516040518263ffffffff1660e01b81526004016107e291815260200190565b602060405180830381865afa1580156107ff573d6000803e3d6000fd5b505050506040513d601f19601f820116820180604052508101906108239190615049565b0361086957610864848460008151811061083f5761083f61501a565b60200260200101516100d93373ffffffffffffffffffffffffffffffffffffffff1690565b610aba565b7f9d47592473d41327e0ccb0bb0dc69c74c6ac29b77beb0fc78a1c84d6f0bcf87b60001c856020015173ffffffffffffffffffffffffffffffffffffffff16630ff4c916856000815181106108c0576108c061501a565b60200260200101516040518263ffffffff1660e01b81526004016108e691815260200190565b602060405180830381865afa158015610903573d6000803e3d6000fd5b505050506040513d601f19601f820116820180604052508101906109279190615049565b03610976576000836000815181106109415761094161501a565b6020026020010151905061097085856000815181106109625761096261501a565b602002602001015183610ba2565b50610aba565b610a18856020015173ffffffffffffffffffffffffffffffffffffffff16630ff4c916856000815181106109ac576109ac61501a565b60200260200101516040518263ffffffff1660e01b81526004016109d291815260200190565b602060405180830381865afa1580156109ef573d6000803e3d6000fd5b505050506040513d601f19601f82011682018060405250810190610a139190615049565b611f49565b15610a32576000836000815181106109415761094161501a565b6040517f08c379a000000000000000000000000000000000000000000000000000000000815260206004820152603960248201527f5b436c61696d46726f6d4d696e6553797374656d5d2043616e6e6f742073746f60448201527f7265206974656d7320696e2073656c65637465642074696c65000000000000006064820152608401610496565b60408051600060208201520160405160208183030381529060405295505050505050919050565b610b1a604051806040016040528060018660000151610b009190615091565b60030b8152602001856020015160030b8152508383610c5e565b610b39604051806040016040528085600001516001610b0091906150d3565b610b716040518060400160405280856000015160030b815260200185602001516001610b6591906150d3565b60030b90528383610c5e565b610b9d6040518060400160405280856000015160030b815260200160018660200151610b659190615091565b505050565b610bdb604051806040016040528060018660000151610bc19190615091565b60030b8152602001856020015160030b8152508383611613565b610bfa604051806040016040528085600001516001610bc191906150d3565b610c326040518060400160405280856000015160030b815260200185602001516001610c2691906150d3565b60030b90528383611613565b610b9d6040518060400160405280856000015160030b815260200160018660200151610c269190615091565b6040805160a08101909152600080549091908190610cb29073ffffffffffffffffffffffffffffffffffffffff167f49a4584d9706380e35459e1f31e673445371b5bac20aa516f8ba8650b1843106611cc5565b73ffffffffffffffffffffffffffffffffffffffff9081168252600054602090920191610d0091167f30f1c358b0a577824afcc8e464bcbd763eba254820a547b425765e75cc511f1e611cc5565b73ffffffffffffffffffffffffffffffffffffffff9081168252600054602090920191610d4e91167faf90be6cd7aa92d6569a9ae629178b74e1b0fbdd1097c27ec1dfffd2dc4c7540611cc5565b73ffffffffffffffffffffffffffffffffffffffff9081168252600054602090920191610d9c91167fe95fc307e3922a4ed7e1a9d135b2e79aad91e806428d8c7ec9a376dfc8aede5e611cc5565b73ffffffffffffffffffffffffffffffffffffffff9081168252600054602090920191610dea91167f2fc9fa89c3e33fdaa5feead211018b3d0b1d3edd613228f7f320915fddd8d039611cc5565b73ffffffffffffffffffffffffffffffffffffffff90811690915281516040517fbf3bf26a0000000000000000000000000000000000000000000000000000000081528751600390810b60048301526020890151900b602482015292935060009291169063bf3bf26a90604401600060405180830381865afa158015610e74573d6000803e3d6000fd5b505050506040513d6000823e601f3d9081017fffffffffffffffffffffffffffffffffffffffffffffffffffffffffffffffe0168201604052610eba9190810190614f74565b8051909150339060010361157d57610ee383608001518360008151811061060d5761060d61501a565b610f49576040517f08c379a000000000000000000000000000000000000000000000000000000000815260206004820152601260248201527f6865616c7468206973206e6f74207a65726f00000000000000000000000000006044820152606401610496565b8482600081518110610f5d57610f5d61501a565b602002602001015103610f7257505050505050565b6000836040015173ffffffffffffffffffffffffffffffffffffffff16630ff4c91684600081518110610fa757610fa761501a565b60200260200101516040518263ffffffff1660e01b8152600401610fcd91815260200190565b602060405180830381865afa158015610fea573d6000803e3d6000fd5b505050506040513d601f19601f8201168201806040525081019061100e9190615049565b90508181146110205750505050505050565b7f15acbad8bb5d229c84e3aaeb8cbd8e364b5d0451254865ef4b5f206d4df1a4c560001c846020015173ffffffffffffffffffffffffffffffffffffffff16630ff4c916856000815181106110775761107761501a565b60200260200101516040518263ffffffff1660e01b815260040161109d91815260200190565b602060405180830381865afa1580156110ba573d6000803e3d6000fd5b505050506040513d601f19601f820116820180604052508101906110de9190615049565b14806111a557507f7c2b38e44a35ee8d16b0c3780dc10b14624e0dfc9c7d997bd7b2017018c0bdfd60001c846020015173ffffffffffffffffffffffffffffffffffffffff16630ff4c9168560008151811061113c5761113c61501a565b60200260200101516040518263ffffffff1660e01b815260040161116291815260200190565b602060405180830381865afa15801561117f573d6000803e3d6000fd5b505050506040513d601f19601f820116820180604052508101906111a39190615049565b145b8061126b57507f51b4064f315a9285418817af4bb9378b30747b5f7e1d79413c5c7035c783e28160001c846020015173ffffffffffffffffffffffffffffffffffffffff16630ff4c916856000815181106112025761120261501a565b60200260200101516040518263ffffffff1660e01b815260040161122891815260200190565b602060405180830381865afa158015611245573d6000803e3d6000fd5b505050506040513d601f19601f820116820180604052508101906112699190615049565b145b8061133157507f13a481631ba1249ac750d2ad108f78a8c956c66fd1d62cd2c0b446a3c865bb2b60001c846020015173ffffffffffffffffffffffffffffffffffffffff16630ff4c916856000815181106112c8576112c861501a565b60200260200101516040518263ffffffff1660e01b81526004016112ee91815260200190565b602060405180830381865afa15801561130b573d6000803e3d6000fd5b505050506040513d601f19601f8201168201806040525081019061132f9190615049565b145b806113f757507f83fccdf257c1bc6218e3e9694bfb04533ac2d275f5b8cb462477a6f02da9aedb60001c846020015173ffffffffffffffffffffffffffffffffffffffff16630ff4c9168560008151811061138e5761138e61501a565b60200260200101516040518263ffffffff1660e01b81526004016113b491815260200190565b602060405180830381865afa1580156113d1573d6000803e3d6000fd5b505050506040513d601f19601f820116820180604052508101906113f59190615049565b145b1561157b57600061140788612264565b6060860151600080549293509161151691906114599073ffffffffffffffffffffffffffffffffffffffff167f260499b7630a3093f2f4ce16a340a578c70fc65603511dac57ee1b24a87e1ecd611cc5565b886020015173ffffffffffffffffffffffffffffffffffffffff16630ff4c9168960008151811061148c5761148c61501a565b60200260200101516040518263ffffffff1660e01b81526004016114b291815260200190565b602060405180830381865afa1580156114cf573d6000803e3d6000fd5b505050506040513d601f19601f820116820180604052508101906114f39190615049565b8586898b6000815181106115095761150961501a565b60200260200101516122df565b600054909150611570906115609073ffffffffffffffffffffffffffffffffffffffff167ffba48a04766694c16713a414735f83be9cb20bbb29b5e18846cc8f1510640845611cc5565b61156a848a612604565b83612684565b505050505050505050565b505b505050505050565b60006115c57f8a22373512790c48b83a1fe2efdd2888d4a917bcdc24d0adf63e60f6716804605473ffffffffffffffffffffffffffffffffffffffff1690565b905090565b606061160d826040516020016115f991908151600390810b8252602092830151900b9181019190915260400190565b604051602081830303815290604052610157565b92915050565b600080546116579073ffffffffffffffffffffffffffffffffffffffff167f49a4584d9706380e35459e1f31e673445371b5bac20aa516f8ba8650b1843106611cc5565b600080549192509061169f9073ffffffffffffffffffffffffffffffffffffffff167f30f1c358b0a577824afcc8e464bcbd763eba254820a547b425765e75cc511f1e611cc5565b60008054919250906116e79073ffffffffffffffffffffffffffffffffffffffff167f0d469bcaf5f43a6290ca2906ecdeb5ef80d7723e8cad27045bddb6e1eb9da435611cc5565b600080549192509061172f9073ffffffffffffffffffffffffffffffffffffffff167f2fc9fa89c3e33fdaa5feead211018b3d0b1d3edd613228f7f320915fddd8d039611cc5565b6040517fbf3bf26a0000000000000000000000000000000000000000000000000000000081528851600390810b600483015260208a0151900b602482015290915060009073ffffffffffffffffffffffffffffffffffffffff86169063bf3bf26a90604401600060405180830381865afa1580156117b1573d6000803e3d6000fd5b505050506040513d6000823e601f3d9081017fffffffffffffffffffffffffffffffffffffffffffffffffffffffffffffffe01682016040526117f79190810190614f74565b90508051600114801561198257507f170729974eb622f2526fa4f92490a96d2ea29dc85bb4ce1e3d7b0f0a238a4ee560001c8473ffffffffffffffffffffffffffffffffffffffff16630ff4c916836000815181106118585761185861501a565b60200260200101516040518263ffffffff1660e01b815260040161187e91815260200190565b602060405180830381865afa15801561189b573d6000803e3d6000fd5b505050506040513d601f19601f820116820180604052508101906118bf9190615049565b148061198257507f5dc2e1711c35bb96dbc441e9a8d2ca6965863dde6c810317df7a657d469a7a5360001c8473ffffffffffffffffffffffffffffffffffffffff16630ff4c916836000815181106119195761191961501a565b60200260200101516040518263ffffffff1660e01b815260040161193f91815260200190565b602060405180830381865afa15801561195c573d6000803e3d6000fd5b505050506040513d601f19601f820116820180604052508101906119809190615049565b145b15611b8a5761199e828260008151811061060d5761060d61501a565b611a04576040517f08c379a000000000000000000000000000000000000000000000000000000000815260206004820152601260248201527f6865616c7468206973206e6f74207a65726f00000000000000000000000000006044820152606401610496565b611a0f888888610ae1565b60008373ffffffffffffffffffffffffffffffffffffffff1663fbdfa1ea83600081518110611a4057611a4061501a565b60200260200101516040518263ffffffff1660e01b8152600401611a6691815260200190565b600060405180830381865afa158015611a83573d6000803e3d6000fd5b505050506040513d6000823e601f3d9081017fffffffffffffffffffffffffffffffffffffffffffffffffffffffffffffffe0168201604052611ac99190810190614f74565b905060005b8151811015611b8757611b758773ffffffffffffffffffffffffffffffffffffffff16630ff4c916848481518110611b0857611b0861501a565b60200260200101516040518263ffffffff1660e01b8152600401611b2e91815260200190565b6040805180830381865afa158015611b4a573d6000803e3d6000fd5b505050506040513d601f19601f82011682018060405250810190611b6e9190614f15565b8a8a611613565b80611b7f81615115565b915050611ace565b50505b5050505050505050565b7f8a22373512790c48b83a1fe2efdd2888d4a917bcdc24d0adf63e60f6716804605473ffffffffffffffffffffffffffffffffffffffff163314611c04576040517f2f7a8ee100000000000000000000000000000000000000000000000000000000815260040160405180910390fd5b611c0d81612723565b50565b7ff67304f10c7772c78e439bc5cb07781db345424de8878c18100fdaa64d197a87805473ffffffffffffffffffffffffffffffffffffffff9384167fffffffffffffffffffffffff0000000000000000000000000000000000000000918216179091557ff67304f10c7772c78e439bc5cb07781db345424de8878c18100fdaa64d197a868054929093169116179055565b7f8a22373512790c48b83a1fe2efdd2888d4a917bcdc24d0adf63e60f67168046090565b6040517ffbdfa1ea00000000000000000000000000000000000000000000000000000000815260048101829052600090819073ffffffffffffffffffffffffffffffffffffffff85169063fbdfa1ea90602401600060405180830381865afa158015611d35573d6000803e3d6000fd5b505050506040513d6000823e601f3d9081017fffffffffffffffffffffffffffffffffffffffffffffffffffffffffffffffe0168201604052611d7b9190810190614f74565b90508051600003611de8576040517f08c379a000000000000000000000000000000000000000000000000000000000815260206004820152601160248201527f6964206e6f7420726567697374657265640000000000000000000000000000006044820152606401610496565b611e0981600081518110611dfe57611dfe61501a565b602002602001015190565b949350505050565b6040517fcccf7a8e00000000000000000000000000000000000000000000000000000000815260048101829052600090819073ffffffffffffffffffffffffffffffffffffffff85169063cccf7a8e90602401602060405180830381865afa158015611e81573d6000803e3d6000fd5b505050506040513d601f19601f82011682018060405250810190611ea5919061514d565b611eb0576064611f3f565b6040517f0ff4c9160000000000000000000000000000000000000000000000000000000081526004810184905273ffffffffffffffffffffffffffffffffffffffff851690630ff4c91690602401602060405180830381865afa158015611f1b573d6000803e3d6000fd5b505050506040513d601f19601f82011682018060405250810190611f3f9190615049565b1515949350505050565b60007f02fcfa4b1578384291174d276cbf45b9ac04481dd20e0e1051d17c6fa0028ce3821480611f9857507f5e81ec12aa8c2bb4493ce21f35dff56bf746562d8ebf1185b42b173bc80bcace82145b80611fc257507f9794860cce6121893962dba8949d43114cb9f47063158452a8495d9f41ac14fa82145b80611fec57507fca256d02eff068cb848bbd6ac96fb95b98adc5396d2d6e5f8c75e35cf2a11d3a82145b8061201657507fc5b2723c9f5ebeba49bd048804f6b7427f3d1d14fe2ddde79a8368b46739c69c82145b8061204057507f83fccdf257c1bc6218e3e9694bfb04533ac2d275f5b8cb462477a6f02da9aedb82145b8061206a57507fcd4c83c6e4baad660288e899134b848be43d250ebe563a35a7440fe6f9420da182145b8061209457507fbf16ee459ff450e19286f18a5254f689662eba512e1106efa83ea886d6e8821c82145b806120be57507f4250341db0b18fc0ae00a738f16aeb77fe5059ea1e4098b78488b807d408d56e82145b806120e857507f13a481631ba1249ac750d2ad108f78a8c956c66fd1d62cd2c0b446a3c865bb2b82145b8061211257507f32e6f87aceaa4c2d319159525e4fac7cd17c3e4ceede167599303bd1d5f7729e82145b8061213c57507f161b72002b69ab81a251be29e8036f8a58aa6748539c1c7069ec87528ef4122782145b8061216657507fd8a643fa318db8acc88940eb9acac255a3e4f548e97580eb7f2ddde0b5cb611682145b8061219057507ff9c605cb8149d0ae8a5d9cd09945aec188d2a15377677572b521bfb0be5c80ed82145b806121ba57507f256c9a7f845a3a11dcb51c159d88557005a005a679ce6cd10a583b028e9d368b82145b806121e457507fcfb56e2ea348454073fc6d4fe422a5963dc9b1be76c7f4e4e6bc8cfde39ad2b982145b8061220e57507fc29111c1b03ec36b7ed76742c49be3e45c7472f5cdc4036eb832638f3d23f5ad82145b8061223857507f289820e95a6c3cf395995d62838f0bbba15a6ec752a76e93cb97b7987a6c693582145b8061160d5750507f8354814bff380a814aa9c24aa870ea78a3087fff7347465e1c0cfc24cea101331490565b6000806122708361272c565b9050600061227d84612882565b90507fcd02281adf97b6f29c53f269ef4fa9ed4071a1b1a66cc6056f030582da6ec5f58114806122cc57507f07655375ce2096c9534da9ea3918fa68a1986fa233d1b950a00419dbbb15f5c082145b156122d8575092915050565b9392505050565b6000600a6127107f15acbad8bb5d229c84e3aaeb8cbd8e364b5d0451254865ef4b5f206d4df1a4c588148061233357507f7c2b38e44a35ee8d16b0c3780dc10b14624e0dfc9c7d997bd7b2017018c0bdfd88145b1561234157600a91506123d9565b7fae4bf9b0cea56d7abe77e850b446c874cf8b84a081e286bec3a38fca387c1d7f88016123755750600190506103e86123d9565b7f7c03320da83e439de71c1696b404fbacc53d2d8a0a4734b9db88590fd256512588016123a95750600290506107d06123d9565b7fec5b7e9ce45edb6538af2d52ef70875736a939902e29d32d3f4bb95c379a44d588016123d9575060039050610bb85b6040517f0ff4c9160000000000000000000000000000000000000000000000000000000081526004810185905260009073ffffffffffffffffffffffffffffffffffffffff8c1690630ff4c91690602401602060405180830381865afa158015612447573d6000803e3d6000fd5b505050506040513d601f19601f8201168201806040525081019061246b9190615049565b905043600061247a8989612604565b90507f77768de84835cad059dfed404f55bae1435959006df70696708e8ccedcdead598a0115612545576040517fcccf7a8e0000000000000000000000000000000000000000000000000000000081526004810182905273ffffffffffffffffffffffffffffffffffffffff8d169063cccf7a8e90602401602060405180830381865afa15801561250f573d6000803e3d6000fd5b505050506040513d601f19601f82011682018060405250810190612533919061514d565b612545576000955050505050506125f9565b6040517f1ab06ee5000000000000000000000000000000000000000000000000000000008152600481018890526024810183905273ffffffffffffffffffffffffffffffffffffffff8e1690631ab06ee590604401600060405180830381600087803b1580156125b457600080fd5b505af11580156125c8573d6000803e3d6000fd5b50505050600083836125da919061516f565b6125e49087615182565b9050848111156125f15750835b955050505050505b979650505050505050565b6000828260405160200161264792919091825260601b7fffffffffffffffffffffffffffffffffffffffff00000000000000000000000016602082015260340190565b604080517fffffffffffffffffffffffffffffffffffffffffffffffffffffffffffffffe081840301815291905280516020909101209392505050565b60006126908484612b32565b905073ffffffffffffffffffffffffffffffffffffffff8416631ab06ee5846126b98585615199565b6040517fffffffff0000000000000000000000000000000000000000000000000000000060e085901b16815260048101929092526024820152604401600060405180830381600087803b15801561270f57600080fd5b505af1158015611b8a573d6000803e3d6000fd5b611c0d81612c5e565b60008061273883612d0a565b9050601d811361276a57507f07655375ce2096c9534da9ea3918fa68a1986fa233d1b950a00419dbbb15f5c092915050565b6020811361279a57507fbbe3af883e8e9b61f4275c4dddebde9f04582fdecd30cec933ae16a656d990d592915050565b602381136127ca57507f1cafbee5c58b624d6bc95842fbec94d5a31096877e24b3a041942cfcdae9f0e992915050565b602781136127fa57507f67ed7cdaed36bf5a18e638f8f70dd7a0f79064f3b83c0f17fd7148ae5759c82f92915050565b6030811361282a57507f06898e103bcce6be68da6c0657f791e4087d9e86510ec0a8ef24308cb25b8ff592915050565b6033811361285a57507f9c352c650b1492b243aae8b60c7c1c13d94ee1688465f2567227e23fefd04cc492915050565b507f9c352c650b1492b243aae8b60c7c1c13d94ee1688465f2567227e23fefd04cc492915050565b60008061288e83612d65565b905061070881121580156128a4575061071c8113155b156128d157507f9182d0838cda5b8b8d04b7fdb048ae0d49c90dd4f4ef46ab0958cf6328dfb2ca92915050565b6107d081121580156128e557506107d68113155b1561291257507f17025afdea42119548a0a5f9ec0cdbdcb19e7a9f4b475913071021a3cdbb5bfd92915050565b610960811215801561292657506109728113155b1561295357507f88897217b7ca352fa62012bfb0aa451ebca6a6ff9208f9698f717331232152a792915050565b610546811361298457507f416cd867e38826680c4261f20f5285dd44a10270a8118bdeec1383c9a089cf0492915050565b610a2881121580156129985750610a2a8113155b156129c557507fb533b87fd579e6a4bd7adf53c6573acece50e469a2a3480b5694a32c710af29192915050565b610c1781121580156129d95750610c1c8113155b15612a0657507f6c4cf968092a55522769ad001f5a4d068bbdc6ea30a7d8f460833f83e9c9727c92915050565b610d488112158015612a1a5750610d668113155b15612a4757507ff22d62753c9bef149557affda667bdaa3aff1e69179b0c09e101bfc462bf4fae92915050565b610aa08112158015612a5b5750610aa18113155b15612a8857507fae6e54a2162e6ef6bb60a2555b10f3160acb04e5d6181837025ff5cdd9df7ff192915050565b610c948112158015612a9c5750610c968113155b15612ac957507f32c232ca8907667a2c1ce8c69c3cc8ff5db78af1eff931677d8c7e80099fd7ad92915050565b610e248112158015612add5750610e268113155b15612b0a57507f3d837ba14aa69d4ce9d10c4792c57f1e6daca62171e4c75025c4420d205804c492915050565b507fcd02281adf97b6f29c53f269ef4fa9ed4071a1b1a66cc6056f030582da6ec5f592915050565b6040517fcccf7a8e0000000000000000000000000000000000000000000000000000000081526004810182905260009073ffffffffffffffffffffffffffffffffffffffff84169063cccf7a8e90602401602060405180830381865afa158015612ba0573d6000803e3d6000fd5b505050506040513d601f19601f82011682018060405250810190612bc4919061514d565b612bcf5760006122d8565b6040517f0ff4c9160000000000000000000000000000000000000000000000000000000081526004810183905273ffffffffffffffffffffffffffffffffffffffff841690630ff4c91690602401602060405180830381865afa158015612c3a573d6000803e3d6000fd5b505050506040513d601f19601f820116820180604052508101906122d89190615049565b7f8a22373512790c48b83a1fe2efdd2888d4a917bcdc24d0adf63e60f671680460805460405173ffffffffffffffffffffffffffffffffffffffff8481169216907f8be0079c531659141344cd1fd0a4f28419497f9722a3daafe3b4186f6b6457e090600090a380547fffffffffffffffffffffffff00000000000000000000000000000000000000001673ffffffffffffffffffffffffffffffffffffffff92909216919091179055565b600080612d1c8361eb225b600c612d94565b90506000612d2d8462012135612d15565b90506000612d3d8561cf64612d15565b90506000612d4d866143ae612d15565b9050612d5b84848484612dd3565b9695505050505050565b600080612d778361eb225b6008612d94565b90506000612d888462012135612d70565b9050611e098282612e11565b600080612dca84866000015160030b612dad91906151ac565b85876020015160030b612dc091906151ac565b6000866040612e3e565b95945050505050565b600080612df2612dec612de688886133a7565b866133a7565b846133a7565b9050612d5b612e0a82680500000000000000006133fc565b6064613474565b600080612e1e84846133a7565b9050611e09612e3682680400000000000000006133fc565b612710613474565b604080516102e081018252600080825260208201819052918101829052606081018290526080810182905260a0810182905260c0810182905260e08101829052610100810182905261012081018290526101408101829052610160810182905261018081018290526101a081018290526101c081018290526101e08101829052610200810182905261022081018290526102408101829052610260810182905261028081018290526102a081018290526102c08101829052612f0087856135a6565b600f0b610200820152612f1386856135a6565b600f0b610220820152612f2685856135a6565b600f0b610240820152610200810151612f4290600f0b60401d90565b60ff1660010b8152610220810151600f0b60401d60ff1660010b6020820152610240810151600f0b60401d60ff1660010b6040820152610200810151612f9090612f8b8161364e565b613668565b600f0b610200820152610220810151612fac90612f8b8161364e565b600f0b610220820152610240810151612fc890612f8b8161364e565b600f0b610240820152610200810151612fe0906136bc565b600f0b610260820152610220810151612ff8906136bc565b600f0b610280820152610240810151613010906136bc565b600f0b6102a082015280516130249061370a565b60010b610120820181905260208201516130409160081d6151cc565b60010b606082018190526130539061370a565b60010b6101408201819052604082015161306f9160081d6151cc565b60010b6080820152604081015161014082015160ff1661308f91906151cc565b60010b60a0820152602081015161012082015160ff166130af91906151cc565b60010b60c082018190526130c29061370a565b60010b610160820181905260408201516130de9160081d6151cc565b60010b60e0820152604081015161016082015160ff166130fe91906151cc565b60010b61010082015260808101516131159061370a565b60010b61018082015260a081015161312c9061370a565b60010b6101a082015260e08101516131439061370a565b60010b6101c082015261010081015161315b9061370a565b816101e0019060010b908160010b81525050613356816102a001516132668361028001516131ed8561026001516131b461319d88610180015160010b60081d90565b8861020001518961022001518a6102400151613718565b6131e86131c9896101c0015160010b60081d90565b6131d78a6102000151613876565b8a61022001518b6102400151613718565b61388b565b6131e886610260015161322a61320b896101a0015160010b60081d90565b89610200015161321f8b6102200151613876565b8b6102400151613718565b6131e861323f8a6101e0015160010b60081d90565b61324d8b6102000151613876565b61325b8c6102200151613876565b8c6102400151613718565b6131e88461028001516132dd8661026001516132a961328a89610180015160ff1690565b8961020001518a61022001516132a48c6102400151613876565b613718565b6131e86132bb8a6101c0015160ff1690565b6132c98b6102000151613876565b8b61022001516132a48d6102400151613876565b6131e887610260015161331a6132f88a6101a0015160ff1690565b8a610200015161330c8c6102200151613876565b6132a48d6102400151613876565b6131e861332c8b6101e0015160ff1690565b61333a8c6102000151613876565b6133488d6102200151613876565b6132a48e6102400151613876565b600f0b6102c082015261336a83604061520c565b60ff16613397613388836102c00151680100000000000000006133a7565b680200000000000000006133fc565b600f0b901d979650505050505050565b6000600f83810b9083900b017fffffffffffffffffffffffffffffffff8000000000000000000000000000000081128015906133f357506f7fffffffffffffffffffffffffffffff8113155b6122d857600080fd5b600081600f0b60000361340e57600080fd5b600082600f0b604085600f0b901b8161342957613429615225565b0590507fffffffffffffffffffffffffffffffff8000000000000000000000000000000081128015906133f357506f7fffffffffffffffffffffffffffffff8113156122d857600080fd5b60006f80000000000000000000000000000000600f84900b016134f1577fffffffffffffffff00000000000000000000000000000000000000000000000182121580156134da575078010000000000000000000000000000000000000000000000008213155b6134e357600080fd5b506000819003603f1b61160d565b60008084600f0b121561350957836000039350600190505b600083121561351b5760009290920391155b600061352785856138a4565b90508115613568577f800000000000000000000000000000000000000000000000000000000000000081111561355c57600080fd5b600003915061160d9050565b7f7fffffffffffffffffffffffffffffffffffffffffffffffffffffffffffffff81111561359557600080fd5b915061160d9050565b505092915050565b6000816000036135b557600080fd5b6000808412156135ca57836000039350600190505b60008312156135dc5760009290920391155b60006135e88585613929565b9050811561361f576f80000000000000000000000000000000816fffffffffffffffffffffffffffffffff16111561355c57600080fd5b6f7fffffffffffffffffffffffffffffff816fffffffffffffffffffffffffffffffff16111561359557600080fd5b600061160d61366083600f0b60401d90565b60070b613aba565b6000600f82810b9084900b037fffffffffffffffffffffffffffffffff8000000000000000000000000000000081128015906133f357506f7fffffffffffffffffffffffffffffff8113156122d857600080fd5b600061160d826136f6846136f6866136f66136fb896136f66136e78c68060000000000000000613b04565b680f0000000000000000613668565b613b04565b680a00000000000000006133a7565b600061160d8260010b613b5b565b6000600f85166007600182900b136137df5760038160010b1361378e5760018160010b13613767578060010b60000361375d5761375585856133a7565b915050611e09565b6137558486613668565b8060010b60020361377c576137558585613668565b61375561378886614c57565b85613668565b60058160010b136137b8578060010b6004036137ae5761375585846133a7565b6137558386613668565b8060010b6006036137cd576137558584613668565b6137556137d986614c57565b84613668565b600b8160010b136138355760098160010b13613814578060010b60080361380a5761375584846133a7565b6137558385613668565b8060010b600a03613829576137558484613668565b6137556137d985614c57565b600d8160010b13613861578060010b600c036138555761375584866133a7565b613755612dec85614c57565b8060010b600e03613829576137558486613668565b600061160d8268010000000000000000613668565b6000611e098361389f866136f68688613668565b6133a7565b6000816000036138b65750600061160d565b600083600f0b12156138c757600080fd5b600f83900b6fffffffffffffffffffffffffffffffff8316810260401c90608084901c0277ffffffffffffffffffffffffffffffffffffffffffffffff81111561391057600080fd5b60401b811981111561392157600080fd5b019392505050565b60008160000361393857600080fd5b600077ffffffffffffffffffffffffffffffffffffffffffffffff84116139745782604085901b8161396c5761396c615225565b049050613a9d565b60c084811c640100000000811061398d576020918201911c5b62010000811061399f576010918201911c5b61010081106139b0576008918201911c5b601081106139c0576004918201911c5b600481106139d0576002918201911c5b600281106139df576001820191505b60bf820360018603901c6001018260ff0387901b81613a0057613a00615225565b0492506fffffffffffffffffffffffffffffffff831115613a2057600080fd5b608085901c83026fffffffffffffffffffffffffffffffff8616840260c088901c604089901b82811015613a55576001820391505b608084901b92900382811015613a6c576001820391505b829003608084901c8214613a8257613a82615254565b888181613a9157613a91615225565b04870196505050505050505b6fffffffffffffffffffffffffffffffff8111156122d857600080fd5b60007fffffffffffffffffffffffffffffffffffffffffffffffff80000000000000008212158015613af45750677fffffffffffffff8213155b613afd57600080fd5b5060401b90565b6000600f83810b9083900b0260401d7fffffffffffffffffffffffffffffffff8000000000000000000000000000000081128015906133f357506f7fffffffffffffffffffffffffffffff8113156122d857600080fd5b60ff166000607f82136143df57603f8213613fa757601f8213613d9057600f8213613c885760078213613c085760038213613bcc5760018213613bb25781600003613ba957506197a0919050565b5061a089919050565b81600203613bc3575061895b919050565b50615b5a919050565b60058213613bee5781600403613be55750615a0f919050565b50610f83919050565b81600603613bff575061830d919050565b50610dc9919050565b600b8213613c4c5760098213613c325781600803613c29575061c95f919050565b50615f60919050565b81600a03613c435750616035919050565b506135c2919050565b600d8213613c6e5781600c03613c65575061c2e9919050565b5061e907919050565b81600e03613c7f57506107e1919050565b5061e18c919050565b60178213613d105760138213613cd45760118213613cba5781601003613cb15750618c24919050565b50612467919050565b81601203613ccb575061671e919050565b50611e45919050565b60158213613cf65781601403613ced575061458e919050565b50618e08919050565b81601603613d075750610863919050565b50616325919050565b601b8213613d545760198213613d3a5781601803613d3157506125f0919050565b5061f015919050565b81601a03613d4b575061150a919050565b50610a17919050565b601d8213613d765781601c03613d6d57506117be919050565b5061be06919050565b81601e03613d875750610694919050565b506194f7919050565b602f8213613e9f5760278213613e1f5760238213613de45760218213613dca5781602003613dc1575061f778919050565b506178ea919050565b81602203613ddb575061ea4b919050565b50614b00919050565b60258213613e055781602403613dfc5750601a919050565b50611ac5919050565b81602603613e16575061c53e919050565b50613e5e919050565b602b8213613e635760298213613e495781602803613e405750615efc919050565b5061fcdb919050565b81602a03613e5a575061dbcb919050565b5061cb75919050565b602d8213613e855781602c03613e7c5750617523919050565b5061230b919050565b81602e03613e965750610b20919050565b50612039919050565b60378213613f275760338213613eeb5760318213613ed15781603003613ec857506139b1919050565b5061b121919050565b81603203613ee25750612158919050565b506158ed919050565b60358213613f0d5781603403613f04575061ed95919050565b50619538919050565b81603603613f1e5750613857919050565b506157ae919050565b603b8213613f6b5760398213613f515781603803613f48575061ae14919050565b5061147d919050565b81603a03613f625750617d88919050565b506188ab919050565b603d8213613f8d5781603c03613f84575061aba8919050565b5061a844919050565b81603e03613f9e57506144af919050565b5061af4a919050565b605f82136141c757604f82136140bf576047821361403f57604382136140035760418213613fe95781604003613fe05750614aa5919050565b5061a547919050565b81604203613ffa5750614786919050565b5061868b919050565b60458213614025578160440361401c5750618b30919050565b5061301b919050565b816046036140365750611ba6919050565b5061a64d919050565b604b8213614083576049821361406957816048036140605750614d92919050565b5061929e919050565b81604a0361407a5750619ee7919050565b5061e753919050565b604d82136140a55781604c0361409c575061536f919050565b50616fe5919050565b81604e036140b6575061e57a919050565b50617a3c919050565b60578213614147576053821361410b57605182136140f157816050036140e85750613cd3919050565b5061d385919050565b8160520361410257506185e6919050565b5061e6dc919050565b6055821361412d5781605403614124575061dc69919050565b5061695c919050565b8160560361413e5750615c29919050565b50612937919050565b605b821361418b57605982136141715781605803614168575061372e919050565b50612ef5919050565b81605a03614182575061f528919050565b506128f4919050565b605d82136141ad5781605c036141a4575061f466919050565b5061668f919050565b81605e036141be5750618f36919050565b50613641919050565b606f82136142d75760678213614257576063821361421b576061821361420157816060036141f85750614119919050565b5061193f919050565b816062036142125750613fa1919050565b5061a101919050565b6065821361423d578160640361423457506101d8919050565b5061d850919050565b8160660361424e5750615049919050565b506149d1919050565b606b821361429b57606982136142815781606803614278575061d14c919050565b50614c84919050565b81606a0361429257506184bb919050565b5061bbd0919050565b606d82136142bd5781606c036142b4575061d059919050565b50615912919050565b81606e036142ce57506112a9919050565b5061a9c8919050565b6077821361435f576073821361432357607182136143095781607003614300575061c8c4919050565b5061c487919050565b8160720361431a5750618782919050565b50618274919050565b60758213614345578160740361433c57506174bc919050565b5061bc9f919050565b816076036143565750619f56919050565b506156a4919050565b607b82136143a357607982136143895781607803614380575061a464919050565b5061646d919050565b81607a0361439a5750616dc6919050565b5061c6ad919050565b607d82136143c55781607c036143bc575061adba919050565b5061ba03919050565b81607e036143d65750610340919050565b50614034919050565b60bf821361481f57609f821361460757608f82136144ff576087821361447f57608382136144435760818213614429578160800361442057506134d9919050565b5061d9e2919050565b8160820361443a575061e2fa919050565b5061fa7c919050565b60858213614465578160840361445c5750617c7b919050565b50617b05919050565b8160860361447657506105ca919050565b5061ca26919050565b608b82136144c357608982136144a957816088036144a05750612693919050565b50619376919050565b81608a036144ba575061767e919050565b50617eff919050565b608d82136144e55781608c036144dc575061ff52919050565b50615255919050565b81608e036144f657506155d4919050565b5061d4cf919050565b60978213614587576093821361454b57609182136145315781609003614528575061cfce919050565b5061ce3b919050565b816092036145425750613be3919050565b5061e32f919050565b6095821361456d57816094036145645750612f10919050565b5061103a919050565b8160960361457e5750613a11919050565b506111b6919050565b609b82136145cb57609982136145b157816098036145a8575061b6bd919050565b5061bd1c919050565b81609a036145c25750611c2a919050565b50612adf919050565b609d82136145ed5781609c036145e4575061dfb7919050565b5061b7aa919050565b81609e036145fe575061aad5919050565b5061d577919050565b60af82136147175760a782136146975760a3821361465b5760a18213614641578160a00361463857506177f8919050565b5061f898919050565b8160a2036146525750619802919050565b5061022c919050565b60a5821361467d578160a4036146745750612c9a919050565b50619aa3919050565b8160a60361468e575061a346919050565b506146dd919050565b60ab82136146db5760a982136146c1578160a8036146b8575061dd99919050565b50619965919050565b8160aa036146d2575061659b919050565b50619ba7919050565b60ad82136146fd578160ac036146f4575061a72b919050565b50612bac919050565b8160ae0361470e575061ac09919050565b50610981919050565b60b7821361479f5760b382136147635760b18213614749578160b0036147405750618116919050565b50611627919050565b8160b20361475a57506127fd919050565b5061fd13919050565b60b58213614785578160b40361477c5750611362919050565b5061626c919050565b8160b6036147965750616c6e919050565b50616e4f919050565b60bb82136147e35760b982136147c9578160b8036147c05750614f71919050565b506171e0919050565b8160ba036147da575061e0e8919050565b5061e8b2919050565b60bd8213614805578160bc036147fc575061b2b9919050565b5061b970919050565b8160be036148165750617068919050565b506168da919050565b60df8213614a3f5760cf82136149375760c782136148b75760c3821361487b5760c18213614861578160c003614858575061daf6919050565b5061f661919050565b8160c20361487257506161e4919050565b5061e4fb919050565b60c5821361489d578160c403614894575061fb22919050565b506122f2919050565b8160c6036148ae575061f2c1919050565b5061c1ee919050565b60cb82136148fb5760c982136148e1578160c8036148d8575061eed2919050565b5061d290919050565b8160ca036148f2575061900c919050565b50610cbf919050565b60cd821361491d578160cc03614914575061bfb3919050565b5061b3a2919050565b8160ce0361492e575061a2f1919050565b5061f151919050565b60d782136149bf5760d382136149835760d18213614969578160d0036149605750615133919050565b50613391919050565b8160d20361497a57506191eb919050565b5061ebf9919050565b60d582136149a5578160d40361499c575061f90e919050565b50610eef919050565b8160d6036149b6575061ef6b919050565b50616b31919050565b60db8213614a035760d982136149e9578160d8036149e057506131c0919050565b5061c0d6919050565b8160da036149fa575061d61f919050565b50611fb5919050565b60dd8213614a25578160dc03614a1c575061b5c7919050565b5061c76a919050565b8160de03614a365750616a9d919050565b50619db8919050565b60ef8213614b4f5760e78213614acf5760e38213614a935760e18213614a79578160e003614a70575061b854919050565b506154cc919050565b8160e203614a8a575061ccb0919050565b5061b073919050565b60e58213614ab5578160e403614aac5750617379919050565b50617932919050565b8160e603614ac6575061322d919050565b50612d7f919050565b60eb8213614b135760e98213614af9578160e803614af05750617f04919050565b50610496919050565b8160ea03614b0a57506196fe919050565b5061fe8a919050565b60ed8213614b35578160ec03614b2c5750618aec919050565b5061eccd919050565b8160ee03614b46575061cd5d919050565b50615dde919050565b60f78213614bd75760f38213614b9b5760f18213614b81578160f003614b78575061de72919050565b50617243919050565b8160f203614b92575061431d919050565b50611d18919050565b60f58213614bbd578160f403614bb45750611848919050565b506148f3919050565b8160f603614bce575061f38d919050565b50618d80919050565b60fb8213614c1b5760f98213614c01578160f803614bf857506180c3919050565b5061c34e919050565b8160fa03614c125750614e42919050565b506142d7919050565b60fd8213614c3d578160fc03614c34575061d73d919050565b50613d9c919050565b8160fe03614c4e5750619cb4919050565b5061b497919050565b60006f80000000000000000000000000000000600f83900b01614c7957600080fd5b5060000390565b7f4e487b7100000000000000000000000000000000000000000000000000000000600052604160045260246000fd5b604051601f82017fffffffffffffffffffffffffffffffffffffffffffffffffffffffffffffffe016810167ffffffffffffffff81118282101715614cf657614cf6614c80565b604052919050565b60006020808385031215614d1157600080fd5b823567ffffffffffffffff80821115614d2957600080fd5b818501915085601f830112614d3d57600080fd5b813581811115614d4f57614d4f614c80565b614d7f847fffffffffffffffffffffffffffffffffffffffffffffffffffffffffffffffe0601f84011601614caf565b91508082528684828501011115614d9557600080fd5b8084840185840137600090820190930192909252509392505050565b600060208083528351808285015260005b81811015614dde57858101830151858201604001528201614dc2565b5060006040828601015260407fffffffffffffffffffffffffffffffffffffffffffffffffffffffffffffffe0601f8301168501019250505092915050565b8060030b8114611c0d57600080fd5b600060408284031215614e3e57600080fd5b6040516040810181811067ffffffffffffffff82111715614e6157614e61614c80565b6040529050808235614e7281614e1d565b81526020830135614e8281614e1d565b6020919091015292915050565b600080600060808486031215614ea457600080fd5b614eae8585614e2c565b95604085013595506060909401359392505050565b600060408284031215614ed557600080fd5b6122d88383614e2c565b600060208284031215614ef157600080fd5b813573ffffffffffffffffffffffffffffffffffffffff811681146122d857600080fd5b600060408284031215614f2757600080fd5b6040516040810181811067ffffffffffffffff82111715614f4a57614f4a614c80565b6040528251614f5881614e1d565b81526020830151614f6881614e1d565b60208201529392505050565b60006020808385031215614f8757600080fd5b825167ffffffffffffffff80821115614f9f57600080fd5b818501915085601f830112614fb357600080fd5b815181811115614fc557614fc5614c80565b8060051b9150614fd6848301614caf565b8181529183018401918481019088841115614ff057600080fd5b938501935b8385101561500e57845182529385019390850190614ff5565b98975050505050505050565b7f4e487b7100000000000000000000000000000000000000000000000000000000600052603260045260246000fd5b60006020828403121561505b57600080fd5b5051919050565b7f4e487b7100000000000000000000000000000000000000000000000000000000600052601160045260246000fd5b600382810b9082900b037fffffffffffffffffffffffffffffffffffffffffffffffffffffffff800000008112637fffffff8213171561160d5761160d615062565b600381810b9083900b01637fffffff81137fffffffffffffffffffffffffffffffffffffffffffffffffffffffff800000008212171561160d5761160d615062565b60007fffffffffffffffffffffffffffffffffffffffffffffffffffffffffffffffff820361514657615146615062565b5060010190565b60006020828403121561515f57600080fd5b815180151581146122d857600080fd5b8181038181111561160d5761160d615062565b808202811582820484141761160d5761160d615062565b8082018082111561160d5761160d615062565b808201828112600083128015821682158216171561359e5761359e615062565b600181810b9083900b01617fff81137fffffffffffffffffffffffffffffffffffffffffffffffffffffffffffff80008212171561160d5761160d615062565b60ff828116828216039081111561160d5761160d615062565b7f4e487b7100000000000000000000000000000000000000000000000000000000600052601260045260246000fd5b7f4e487b7100000000000000000000000000000000000000000000000000000000600052600160045260246000fdfea264697066735822122062df03aab2795d0c2bb91e762ce393cc027ed803df1d0aa6e8350abecca141f764736f6c63430008110033",
    "linkReferences": {}
  },
  "methodIdentifiers": {
    "claimAdjacentBuildings((int32,int32),uint256,uint256)": "2542d63e",
    "claimAdjacentConveyorTiles((int32,int32),uint256,uint256)": "4c021bef",
    "claimBuilding((int32,int32),uint256,uint256)": "52ada480",
    "claimConveyorTile((int32,int32),uint256,uint256)": "dd83ed2b",
    "execute(bytes)": "09c5eabe",
    "executeTyped((int32,int32))": "cb6cbba7",
    "owner()": "8da5cb5b",
    "transferOwnership(address)": "f2fde38b"
  },
  "id": 113
}