{
  "abi": [
    {
      "inputs": [
        {
          "internalType": "contract IWorld",
          "name": "_world",
          "type": "address"
        },
        {
          "internalType": "address",
          "name": "_components",
          "type": "address"
        }
      ],
      "stateMutability": "nonpayable",
      "type": "constructor"
    },
    {
      "inputs": [],
      "name": "Ownable__NotOwner",
      "type": "error"
    },
    {
      "inputs": [],
      "name": "Ownable__NotTransitiveOwner",
      "type": "error"
    },
    {
      "anonymous": false,
      "inputs": [
        {
          "indexed": true,
          "internalType": "address",
          "name": "previousOwner",
          "type": "address"
        },
        {
          "indexed": true,
          "internalType": "address",
          "name": "newOwner",
          "type": "address"
        }
      ],
      "name": "OwnershipTransferred",
      "type": "event"
    },
    {
      "inputs": [
        {
          "components": [
            {
              "internalType": "int32",
              "name": "x",
              "type": "int32"
            },
            {
              "internalType": "int32",
              "name": "y",
              "type": "int32"
            }
          ],
          "internalType": "struct Coord",
          "name": "coord",
          "type": "tuple"
        },
        {
          "internalType": "uint256",
          "name": "originEntity",
          "type": "uint256"
        },
        {
          "internalType": "uint256",
          "name": "destination",
          "type": "uint256"
        }
      ],
      "name": "claimAdjacentBuildings",
      "outputs": [],
      "stateMutability": "nonpayable",
      "type": "function"
    },
    {
      "inputs": [
        {
          "components": [
            {
              "internalType": "int32",
              "name": "x",
              "type": "int32"
            },
            {
              "internalType": "int32",
              "name": "y",
              "type": "int32"
            }
          ],
          "internalType": "struct Coord",
          "name": "coord",
          "type": "tuple"
        },
        {
          "internalType": "uint256",
          "name": "originEntity",
          "type": "uint256"
        },
        {
          "internalType": "uint256",
          "name": "destination",
          "type": "uint256"
        }
      ],
      "name": "claimAdjacentNodeTiles",
      "outputs": [],
      "stateMutability": "nonpayable",
      "type": "function"
    },
    {
      "inputs": [
        {
          "components": [
            {
              "internalType": "int32",
              "name": "x",
              "type": "int32"
            },
            {
              "internalType": "int32",
              "name": "y",
              "type": "int32"
            }
          ],
          "internalType": "struct Coord",
          "name": "coord",
          "type": "tuple"
        },
        {
          "internalType": "uint256",
          "name": "originEntity",
          "type": "uint256"
        },
        {
          "internalType": "uint256",
          "name": "destination",
          "type": "uint256"
        }
      ],
      "name": "claimBuilding",
      "outputs": [],
      "stateMutability": "nonpayable",
      "type": "function"
    },
    {
      "inputs": [
        {
          "components": [
            {
              "internalType": "int32",
              "name": "x",
              "type": "int32"
            },
            {
              "internalType": "int32",
              "name": "y",
              "type": "int32"
            }
          ],
          "internalType": "struct Coord",
          "name": "coord",
          "type": "tuple"
        },
        {
          "internalType": "uint256",
          "name": "originEntity",
          "type": "uint256"
        },
        {
          "internalType": "uint256",
          "name": "destination",
          "type": "uint256"
        }
      ],
      "name": "claimNodeTile",
      "outputs": [],
      "stateMutability": "nonpayable",
      "type": "function"
    },
    {
      "inputs": [
        {
          "internalType": "bytes",
          "name": "args",
          "type": "bytes"
        }
      ],
      "name": "execute",
      "outputs": [
        {
          "internalType": "bytes",
          "name": "",
          "type": "bytes"
        }
      ],
      "stateMutability": "nonpayable",
      "type": "function"
    },
    {
      "inputs": [
        {
          "components": [
            {
              "internalType": "int32",
              "name": "x",
              "type": "int32"
            },
            {
              "internalType": "int32",
              "name": "y",
              "type": "int32"
            }
          ],
          "internalType": "struct Coord",
          "name": "coord",
          "type": "tuple"
        }
      ],
      "name": "executeTyped",
      "outputs": [
        {
          "internalType": "bytes",
          "name": "",
          "type": "bytes"
        }
      ],
      "stateMutability": "nonpayable",
      "type": "function"
    },
    {
      "inputs": [],
      "name": "owner",
      "outputs": [
        {
          "internalType": "address",
          "name": "",
          "type": "address"
        }
      ],
      "stateMutability": "view",
      "type": "function"
    },
    {
      "inputs": [
        {
          "internalType": "address",
          "name": "account",
          "type": "address"
        }
      ],
      "name": "transferOwnership",
      "outputs": [],
      "stateMutability": "nonpayable",
      "type": "function"
    }
  ],
  "bytecode": {
    "object": "0x60806040523480156200001157600080fd5b50604051620058da380380620058da8339810160408190526200003491620001dc565b8181620000413362000149565b6001600160a01b03811615620000585780620000bd565b816001600160a01b031663ba62fbe46040518163ffffffff1660e01b8152600401602060405180830381865afa15801562000097573d6000803e3d6000fd5b505050506040513d601f19601f82011682018060405250810190620000bd91906200021b565b600080546001600160a01b039283166001600160a01b0319918216811790925560018054938616938216841790557ff67304f10c7772c78e439bc5cb07781db345424de8878c18100fdaa64d197a87805482169093179092557ff67304f10c7772c78e439bc5cb07781db345424de8878c18100fdaa64d197a8680549092161790555050505062000242565b7f8a22373512790c48b83a1fe2efdd2888d4a917bcdc24d0adf63e60f67168046080546040516001600160a01b038481169216907f8be0079c531659141344cd1fd0a4f28419497f9722a3daafe3b4186f6b6457e090600090a380546001600160a01b0319166001600160a01b0392909216919091179055565b6001600160a01b0381168114620001d957600080fd5b50565b60008060408385031215620001f057600080fd5b8251620001fd81620001c3565b60208401519092506200021081620001c3565b809150509250929050565b6000602082840312156200022e57600080fd5b81516200023b81620001c3565b9392505050565b61568880620002526000396000f3fe608060405234801561001057600080fd5b50600436106100885760003560e01c8063cb6cbba71161005b578063cb6cbba71461010b578063e4146a971461011e578063f2fde38b14610131578063fbfd820f1461014457600080fd5b806309c5eabe1461008d5780632542d63e146100b657806352ada480146100cb5780638da5cb5b146100de575b600080fd5b6100a061009b36600461502b565b610157565b6040516100ad91906150de565b60405180910390f35b6100c96100c436600461519b565b610917565b005b6100c96100d936600461519b565b6109d8565b6100e66112e8565b60405173ffffffffffffffffffffffffffffffffffffffff90911681526020016100ad565b6100a06101193660046151cf565b61132d565b6100c961012c36600461519b565b611376565b6100c961013f3660046151eb565b611432565b6100c961015236600461519b565b6114ae565b6040805160808101909152600080546060929081906101ac9073ffffffffffffffffffffffffffffffffffffffff167f30f1c358b0a577824afcc8e464bcbd763eba254820a547b425765e75cc511f1e611952565b73ffffffffffffffffffffffffffffffffffffffff90811682526000546020909201916101fa91167faf90be6cd7aa92d6569a9ae629178b74e1b0fbdd1097c27ec1dfffd2dc4c7540611952565b73ffffffffffffffffffffffffffffffffffffffff908116825260005460209092019161024891167fe95fc307e3922a4ed7e1a9d135b2e79aad91e806428d8c7ec9a376dfc8aede5e611952565b73ffffffffffffffffffffffffffffffffffffffff908116825260005460209092019161029691167f2fc9fa89c3e33fdaa5feead211018b3d0b1d3edd613228f7f320915fddd8d039611952565b73ffffffffffffffffffffffffffffffffffffffff1681525090506000838060200190518101906102c79190615221565b9050600061030a826040518060400160405280600881526020017f6275696c64696e67000000000000000000000000000000000000000000000000815250611a9e565b83516040517fcccf7a8e0000000000000000000000000000000000000000000000000000000081526004810183905291925073ffffffffffffffffffffffffffffffffffffffff169063cccf7a8e90602401602060405180830381865afa158015610379573d6000803e3d6000fd5b505050506040513d601f19601f8201168201806040525081019061039d9190615262565b610455576040517f08c379a0000000000000000000000000000000000000000000000000000000008152602060048201526044602482018190527f5b436c61696d46726f6d4d696e6553797374656d5d2043616e6e6f7420636c61908201527f696d2066726f6d206d696e6573206f6e20616e20656d70747920636f6f72646960648201527f6e61746500000000000000000000000000000000000000000000000000000000608482015260a4015b60405180910390fd5b60208301516040517f0ff4c9160000000000000000000000000000000000000000000000000000000081526004810183905260009173ffffffffffffffffffffffffffffffffffffffff1690630ff4c91690602401602060405180830381865afa1580156104c7573d6000803e3d6000fd5b505050506040513d601f19601f820116820180604052508101906104eb9190615284565b90503381146105a2576040517f08c379a000000000000000000000000000000000000000000000000000000000815260206004820152604660248201527f5b436c61696d46726f6d4d696e6553797374656d5d2043616e6e6f7420636c6160448201527f696d2066726f6d206d696e6573206f6e20612074696c6520796f7520646f206e60648201527f6f74206f776e0000000000000000000000000000000000000000000000000000608482015260a40161044c565b6105b0846060015183611b37565b610662576040517f08c379a000000000000000000000000000000000000000000000000000000000815260206004820152604860248201527f5b436c61696d46726f6d4d696e6553797374656d5d2043616e6e6f7420636c6160448201527f696d2066726f6d206d696e6573206f6e20612074696c652077697468207a657260648201527f6f206865616c7468000000000000000000000000000000000000000000000000608482015260a40161044c565b60408481015190517f1ab06ee50000000000000000000000000000000000000000000000000000000081526004810184905243602482018190529173ffffffffffffffffffffffffffffffffffffffff1690631ab06ee590604401600060405180830381600087803b1580156106d757600080fd5b505af11580156106eb573d6000803e3d6000fd5b505086516040517f0ff4c916000000000000000000000000000000000000000000000000000000008152600481018790527fd1951468cf9e9494d5703385454c036cef4267b4bf50da6ae1b4239c5fa946d3935073ffffffffffffffffffffffffffffffffffffffff9091169150630ff4c91690602401602060405180830381865afa15801561077f573d6000803e3d6000fd5b505050506040513d601f19601f820116820180604052508101906107a39190615284565b036107b8576107b3848433611376565b6108f0565b84516040517f0ff4c916000000000000000000000000000000000000000000000000000000008152600481018590526108519173ffffffffffffffffffffffffffffffffffffffff1690630ff4c91690602401602060405180830381865afa158015610828573d6000803e3d6000fd5b505050506040513d601f19601f8201168201806040525081019061084c9190615284565b611c6f565b156108685782610862858280611376565b506108f0565b6040517f08c379a000000000000000000000000000000000000000000000000000000000815260206004820152603960248201527f5b436c61696d46726f6d4d696e6553797374656d5d2043616e6e6f742073746f60448201527f7265206974656d7320696e2073656c65637465642074696c6500000000000000606482015260840161044c565b60408051600060208201520160405160208183030381529060405295505050505050919050565b61095060405180604001604052806001866000015161093691906152cc565b60030b8152602001856020015160030b81525083836109d8565b61096f604051806040016040528085600001516001610936919061530e565b6109a76040518060400160405280856000015160030b81526020018560200151600161099b919061530e565b60030b905283836109d8565b6109d36040518060400160405280856000015160030b81526020016001866020015161099b91906152cc565b505050565b6040805160808101909152600080549091908190610a2c9073ffffffffffffffffffffffffffffffffffffffff167f30f1c358b0a577824afcc8e464bcbd763eba254820a547b425765e75cc511f1e611952565b73ffffffffffffffffffffffffffffffffffffffff9081168252600054602090920191610a7a91167faf90be6cd7aa92d6569a9ae629178b74e1b0fbdd1097c27ec1dfffd2dc4c7540611952565b73ffffffffffffffffffffffffffffffffffffffff9081168252600054602090920191610ac891167fe95fc307e3922a4ed7e1a9d135b2e79aad91e806428d8c7ec9a376dfc8aede5e611952565b73ffffffffffffffffffffffffffffffffffffffff9081168252600054602090920191610b1691167f2fc9fa89c3e33fdaa5feead211018b3d0b1d3edd613228f7f320915fddd8d039611952565b73ffffffffffffffffffffffffffffffffffffffff9081169091526000805492935091610b6491167f3ee10300fdf6d2b8c2d0e95fa7b5b8c50aa50e011ba55c2da6a5bccfeafb0340611952565b6000805491925090610bac9073ffffffffffffffffffffffffffffffffffffffff167fe082307e43314cb08ba9c88fe7cb7bb84208415d656da41d199ff8c1c7b0adce611952565b90506000610bef876040518060400160405280600881526020017f6275696c64696e67000000000000000000000000000000000000000000000000815250611a9e565b905060003385516040517fcccf7a8e0000000000000000000000000000000000000000000000000000000081526004810185905291925073ffffffffffffffffffffffffffffffffffffffff169063cccf7a8e90602401602060405180830381865afa158015610c63573d6000803e3d6000fd5b505050506040513d601f19601f82011682018060405250810190610c879190615262565b156112de57610c9a856060015183611b37565b610d00576040517f08c379a000000000000000000000000000000000000000000000000000000000815260206004820152601260248201527f6865616c7468206973206e6f74207a65726f0000000000000000000000000000604482015260640161044c565b868203610d11575050505050505050565b60208501516040517f0ff4c9160000000000000000000000000000000000000000000000000000000081526004810184905260009173ffffffffffffffffffffffffffffffffffffffff1690630ff4c91690602401602060405180830381865afa158015610d83573d6000803e3d6000fd5b505050506040513d601f19601f82011682018060405250810190610da79190615284565b9050818114610dbb57505050505050505050565b85516040517f0ff4c916000000000000000000000000000000000000000000000000000000008152600481018590527f15acbad8bb5d229c84e3aaeb8cbd8e364b5d0451254865ef4b5f206d4df1a4c59173ffffffffffffffffffffffffffffffffffffffff1690630ff4c91690602401602060405180830381865afa158015610e49573d6000803e3d6000fd5b505050506040513d601f19601f82011682018060405250810190610e6d9190615284565b1480610f28575085516040517f0ff4c916000000000000000000000000000000000000000000000000000000008152600481018590527f7c2b38e44a35ee8d16b0c3780dc10b14624e0dfc9c7d997bd7b2017018c0bdfd9173ffffffffffffffffffffffffffffffffffffffff1690630ff4c91690602401602060405180830381865afa158015610f02573d6000803e3d6000fd5b505050506040513d601f19601f82011682018060405250810190610f269190615284565b145b80610fe2575085516040517f0ff4c916000000000000000000000000000000000000000000000000000000008152600481018590527f51b4064f315a9285418817af4bb9378b30747b5f7e1d79413c5c7035c783e2819173ffffffffffffffffffffffffffffffffffffffff1690630ff4c91690602401602060405180830381865afa158015610fbc573d6000803e3d6000fd5b505050506040513d601f19601f82011682018060405250810190610fe09190615284565b145b8061109c575085516040517f0ff4c916000000000000000000000000000000000000000000000000000000008152600481018590527f13a481631ba1249ac750d2ad108f78a8c956c66fd1d62cd2c0b446a3c865bb2b9173ffffffffffffffffffffffffffffffffffffffff1690630ff4c91690602401602060405180830381865afa158015611076573d6000803e3d6000fd5b505050506040513d601f19601f8201168201806040525081019061109a9190615284565b145b80611156575085516040517f0ff4c916000000000000000000000000000000000000000000000000000000008152600481018590527f83fccdf257c1bc6218e3e9694bfb04533ac2d275f5b8cb462477a6f02da9aedb9173ffffffffffffffffffffffffffffffffffffffff1690630ff4c91690602401602060405180830381865afa158015611130573d6000803e3d6000fd5b505050506040513d601f19601f820116820180604052508101906111549190615284565b145b156112dc5760006111668a611fde565b604088015160008054929350916112579190899089906111bc9073ffffffffffffffffffffffffffffffffffffffff167f260499b7630a3093f2f4ce16a340a578c70fc65603511dac57ee1b24a87e1ecd611952565b8c516040517f0ff4c916000000000000000000000000000000000000000000000000000000008152600481018c905273ffffffffffffffffffffffffffffffffffffffff90911690630ff4c91690602401602060405180830381865afa15801561122a573d6000803e3d6000fd5b505050506040513d601f19601f8201168201806040525081019061124e9190615284565b87888b8d612052565b6000549091506112cf906112a19073ffffffffffffffffffffffffffffffffffffffff167ffba48a04766694c16713a414735f83be9cb20bbb29b5e18846cc8f1510640845611952565b6040805160208082018790528183018e90528251808303840181526060909201909252805191012083612663565b5050505050505050505050565b505b5050505050505050565b60006113287f8a22373512790c48b83a1fe2efdd2888d4a917bcdc24d0adf63e60f6716804605473ffffffffffffffffffffffffffffffffffffffff1690565b905090565b60606113708260405160200161135c91908151600390810b8252602092830151900b9181019190915260400190565b604051602081830303815290604052610157565b92915050565b6113af60405180604001604052806001866000015161139591906152cc565b60030b8152602001856020015160030b81525083836114ae565b6113ce604051806040016040528085600001516001611395919061530e565b6114066040518060400160405280856000015160030b8152602001856020015160016113fa919061530e565b60030b905283836114ae565b6109d36040518060400160405280856000015160030b8152602001600186602001516113fa91906152cc565b7f8a22373512790c48b83a1fe2efdd2888d4a917bcdc24d0adf63e60f6716804605473ffffffffffffffffffffffffffffffffffffffff1633146114a2576040517f2f7a8ee100000000000000000000000000000000000000000000000000000000815260040160405180910390fd5b6114ab81612702565b50565b600080546114f29073ffffffffffffffffffffffffffffffffffffffff167f30f1c358b0a577824afcc8e464bcbd763eba254820a547b425765e75cc511f1e611952565b600080549192509061153a9073ffffffffffffffffffffffffffffffffffffffff167f0d469bcaf5f43a6290ca2906ecdeb5ef80d7723e8cad27045bddb6e1eb9da435611952565b60008054919250906115829073ffffffffffffffffffffffffffffffffffffffff167f2fc9fa89c3e33fdaa5feead211018b3d0b1d3edd613228f7f320915fddd8d039611952565b905060006115c5876040518060400160405280600881526020017f6275696c64696e67000000000000000000000000000000000000000000000000815250611a9e565b6040517fcccf7a8e0000000000000000000000000000000000000000000000000000000081526004810182905290915073ffffffffffffffffffffffffffffffffffffffff85169063cccf7a8e90602401602060405180830381865afa158015611633573d6000803e3d6000fd5b505050506040513d601f19601f820116820180604052508101906116579190615262565b80156117c957506040517f0ff4c916000000000000000000000000000000000000000000000000000000008152600481018290527fa46f07eacbf4d6e00c069dad9b4c9bc8743bfbbc08b881083f59c909623871dd9073ffffffffffffffffffffffffffffffffffffffff861690630ff4c91690602401602060405180830381865afa1580156116eb573d6000803e3d6000fd5b505050506040513d601f19601f8201168201806040525081019061170f9190615284565b14806117c957506040517f0ff4c916000000000000000000000000000000000000000000000000000000008152600481018290527f5dc2e1711c35bb96dbc441e9a8d2ca6965863dde6c810317df7a657d469a7a539073ffffffffffffffffffffffffffffffffffffffff861690630ff4c91690602401602060405180830381865afa1580156117a3573d6000803e3d6000fd5b505050506040513d601f19601f820116820180604052508101906117c79190615284565b145b15611949576117d88282611b37565b61183e576040517f08c379a000000000000000000000000000000000000000000000000000000000815260206004820152601260248201527f6865616c7468206973206e6f74207a65726f0000000000000000000000000000604482015260640161044c565b611849878787610917565b6040517ffbdfa1ea0000000000000000000000000000000000000000000000000000000081526004810182905260009073ffffffffffffffffffffffffffffffffffffffff85169063fbdfa1ea90602401600060405180830381865afa1580156118b7573d6000803e3d6000fd5b505050506040513d6000823e601f3d9081017fffffffffffffffffffffffffffffffffffffffffffffffffffffffffffffffe01682016040526118fd9190810190615350565b905060005b81518110156112dc57611937611930838381518110611923576119236153f6565b602002602001015161270b565b89896114ae565b8061194181615425565b915050611902565b50505050505050565b6040517ffbdfa1ea00000000000000000000000000000000000000000000000000000000815260048101829052600090819073ffffffffffffffffffffffffffffffffffffffff85169063fbdfa1ea90602401600060405180830381865afa1580156119c2573d6000803e3d6000fd5b505050506040513d6000823e601f3d9081017fffffffffffffffffffffffffffffffffffffffffffffffffffffffffffffffe0168201604052611a089190810190615350565b90508051600003611a75576040517f08c379a000000000000000000000000000000000000000000000000000000000815260206004820152601160248201527f6964206e6f742072656769737465726564000000000000000000000000000000604482015260640161044c565b611a9681600081518110611a8b57611a8b6153f6565b602002602001015190565b949350505050565b6000826000015160e01b836020015160e01b83611aba9061545d565b604080517fffffffff0000000000000000000000000000000000000000000000000000000094851660208201529390921660248401527fffffffffffffffffffffffffffffffffffffffffffffffff000000000000000016602883015201604051602081830303815290604052611b30906154ad565b9392505050565b6040517fcccf7a8e0000000000000000000000000000000000000000000000000000000081526004810182905260009073ffffffffffffffffffffffffffffffffffffffff84169063cccf7a8e90602401602060405180830381865afa158015611ba5573d6000803e3d6000fd5b505050506040513d601f19601f82011682018060405250810190611bc99190615262565b611bd557506001611370565b6040517f0ff4c9160000000000000000000000000000000000000000000000000000000081526004810183905260009073ffffffffffffffffffffffffffffffffffffffff851690630ff4c91690602401602060405180830381865afa158015611c43573d6000803e3d6000fd5b505050506040513d601f19601f82011682018060405250810190611c679190615284565b119050611370565b60007f9d47592473d41327e0ccb0bb0dc69c74c6ac29b77beb0fc78a1c84d6f0bcf87b821480611cbe57507f02fcfa4b1578384291174d276cbf45b9ac04481dd20e0e1051d17c6fa0028ce382145b80611ce857507fc21aa058984e15d171bb2700beb69b4647d2526ebb432e9a3aee422dd64f038f82145b80611d1257507f5e81ec12aa8c2bb4493ce21f35dff56bf746562d8ebf1185b42b173bc80bcace82145b80611d3c57507f9794860cce6121893962dba8949d43114cb9f47063158452a8495d9f41ac14fa82145b80611d6657507fca256d02eff068cb848bbd6ac96fb95b98adc5396d2d6e5f8c75e35cf2a11d3a82145b80611d9057507fc5b2723c9f5ebeba49bd048804f6b7427f3d1d14fe2ddde79a8368b46739c69c82145b80611dba57507f83fccdf257c1bc6218e3e9694bfb04533ac2d275f5b8cb462477a6f02da9aedb82145b80611de457507fcd4c83c6e4baad660288e899134b848be43d250ebe563a35a7440fe6f9420da182145b80611e0e57507fbf16ee459ff450e19286f18a5254f689662eba512e1106efa83ea886d6e8821c82145b80611e3857507f4250341db0b18fc0ae00a738f16aeb77fe5059ea1e4098b78488b807d408d56e82145b80611e6257507f13a481631ba1249ac750d2ad108f78a8c956c66fd1d62cd2c0b446a3c865bb2b82145b80611e8c57507f32e6f87aceaa4c2d319159525e4fac7cd17c3e4ceede167599303bd1d5f7729e82145b80611eb657507f161b72002b69ab81a251be29e8036f8a58aa6748539c1c7069ec87528ef4122782145b80611ee057507fd8a643fa318db8acc88940eb9acac255a3e4f548e97580eb7f2ddde0b5cb611682145b80611f0a57507ff9c605cb8149d0ae8a5d9cd09945aec188d2a15377677572b521bfb0be5c80ed82145b80611f3457507f256c9a7f845a3a11dcb51c159d88557005a005a679ce6cd10a583b028e9d368b82145b80611f5e57507fcfb56e2ea348454073fc6d4fe422a5963dc9b1be76c7f4e4e6bc8cfde39ad2b982145b80611f8857507fc29111c1b03ec36b7ed76742c49be3e45c7472f5cdc4036eb832638f3d23f5ad82145b80611fb257507f289820e95a6c3cf395995d62838f0bbba15a6ec752a76e93cb97b7987a6c693582145b806113705750507f8354814bff380a814aa9c24aa870ea78a3087fff7347465e1c0cfc24cea101331490565b600080611fea83612822565b90506000611ff784612978565b90507fcd02281adf97b6f29c53f269ef4fa9ed4071a1b1a66cc6056f030582da6ec5f581148061204657507f07655375ce2096c9534da9ea3918fa68a1986fa233d1b950a00419dbbb15f5c082145b15611b30575092915050565b6000600a6127107f15acbad8bb5d229c84e3aaeb8cbd8e364b5d0451254865ef4b5f206d4df1a4c58814806120a657507f7c2b38e44a35ee8d16b0c3780dc10b14624e0dfc9c7d997bd7b2017018c0bdfd88145b156120b457600a915061214c565b7fae4bf9b0cea56d7abe77e850b446c874cf8b84a081e286bec3a38fca387c1d7f88016120e85750600190506103e861214c565b7f7c03320da83e439de71c1696b404fbacc53d2d8a0a4734b9db88590fd2565125880161211c5750600290506107d061214c565b7fe9e48dffd496547e5dae41d617fc9075a75598b7ac63e38f961378ad710bedd9880161214c575060039050610bb85b6040805160208082018990528183018890528251808303840181526060909201909252805191012061217d88612c28565b612220576040517fcccf7a8e0000000000000000000000000000000000000000000000000000000081526004810182905273ffffffffffffffffffffffffffffffffffffffff8b169063cccf7a8e90602401602060405180830381865afa1580156121ec573d6000803e3d6000fd5b505050506040513d601f19601f820116820180604052508101906122109190615262565b6122205760009350505050612656565b6040517fcccf7a8e0000000000000000000000000000000000000000000000000000000081526004810186905260009073ffffffffffffffffffffffffffffffffffffffff8f169063cccf7a8e90602401602060405180830381865afa15801561228e573d6000803e3d6000fd5b505050506040513d601f19601f820116820180604052508101906122b29190615262565b61251c576122bf89612c28565b612486576040517fcccf7a8e0000000000000000000000000000000000000000000000000000000081526004810183905273ffffffffffffffffffffffffffffffffffffffff8d169063cccf7a8e90602401602060405180830381865afa15801561232e573d6000803e3d6000fd5b505050506040513d601f19601f820116820180604052508101906123529190615262565b15612486576040517f0ff4c9160000000000000000000000000000000000000000000000000000000081526004810183905260009073ffffffffffffffffffffffffffffffffffffffff8e1690630ff4c91690602401602060405180830381865afa1580156123c5573d6000803e3d6000fd5b505050506040513d601f19601f820116820180604052508101906123e99190615284565b905060008e73ffffffffffffffffffffffffffffffffffffffff16630ff4c916896040518263ffffffff1660e01b815260040161242891815260200190565b602060405180830381865afa158015612445573d6000803e3d6000fd5b505050506040513d601f19601f820116820180604052508101906124699190615284565b90508082111561247b5781925061247f565b8092505b50506125ae565b6040517f0ff4c9160000000000000000000000000000000000000000000000000000000081526004810187905273ffffffffffffffffffffffffffffffffffffffff8e1690630ff4c91690602401602060405180830381865afa1580156124f1573d6000803e3d6000fd5b505050506040513d601f19601f820116820180604052508101906125159190615284565b90506125ae565b6040517f0ff4c9160000000000000000000000000000000000000000000000000000000081526004810187905273ffffffffffffffffffffffffffffffffffffffff8f1690630ff4c91690602401602060405180830381865afa158015612587573d6000803e3d6000fd5b505050506040513d601f19601f820116820180604052508101906125ab9190615284565b90505b60004390508e73ffffffffffffffffffffffffffffffffffffffff16631ab06ee588836040518363ffffffff1660e01b81526004016125f7929190918252602082015260400190565b600060405180830381600087803b15801561261157600080fd5b505af1158015612625573d6000803e3d6000fd5b505050506000828261263791906154f2565b6126419087615505565b90508481111561264e5750835b955050505050505b9998505050505050505050565b600061266f8484612c79565b905073ffffffffffffffffffffffffffffffffffffffff8416631ab06ee584612698858561551c565b6040517fffffffff0000000000000000000000000000000000000000000000000000000060e085901b16815260048101929092526024820152604401600060405180830381600087803b1580156126ee57600080fd5b505af11580156112de573d6000803e3d6000fd5b6114ab81612da5565b60408051808201825260008082526020808301829052835180820186905284518082039092018252600281860181815260a08301875294959294929091606001908036833701905050905060048160008151811061276b5761276b6153f6565b602002602001019060ff16908160ff1681525050600481600181518110612794576127946153f6565b602002602001019060ff16908160ff168152505060006127b48383612e51565b90506040518060400160405280826000815181106127d4576127d46153f6565b60200260200101516127e59061552f565b60e01c60030b815260200182600181518110612803576128036153f6565b60200260200101516128149061552f565b60e01d905295945050505050565b60008061282e8361300e565b9050601d811361286057507f07655375ce2096c9534da9ea3918fa68a1986fa233d1b950a00419dbbb15f5c092915050565b6020811361289057507fbbe3af883e8e9b61f4275c4dddebde9f04582fdecd30cec933ae16a656d990d592915050565b602381136128c057507f1cafbee5c58b624d6bc95842fbec94d5a31096877e24b3a041942cfcdae9f0e992915050565b602781136128f057507f67ed7cdaed36bf5a18e638f8f70dd7a0f79064f3b83c0f17fd7148ae5759c82f92915050565b6030811361292057507f06898e103bcce6be68da6c0657f791e4087d9e86510ec0a8ef24308cb25b8ff592915050565b6033811361295057507f9c352c650b1492b243aae8b60c7c1c13d94ee1688465f2567227e23fefd04cc492915050565b507f9c352c650b1492b243aae8b60c7c1c13d94ee1688465f2567227e23fefd04cc492915050565b60008061298483613069565b9050610708811215801561299a575061071c8113155b156129c757507f9182d0838cda5b8b8d04b7fdb048ae0d49c90dd4f4ef46ab0958cf6328dfb2ca92915050565b6107d081121580156129db57506107d68113155b15612a0857507f17025afdea42119548a0a5f9ec0cdbdcb19e7a9f4b475913071021a3cdbb5bfd92915050565b6109608112158015612a1c57506109728113155b15612a4957507f88897217b7ca352fa62012bfb0aa451ebca6a6ff9208f9698f717331232152a792915050565b6105468113612a7a57507f416cd867e38826680c4261f20f5285dd44a10270a8118bdeec1383c9a089cf0492915050565b610a288112158015612a8e5750610a2a8113155b15612abb57507fb533b87fd579e6a4bd7adf53c6573acece50e469a2a3480b5694a32c710af29192915050565b610c178112158015612acf5750610c1c8113155b15612afc57507f6c4cf968092a55522769ad001f5a4d068bbdc6ea30a7d8f460833f83e9c9727c92915050565b610d488112158015612b105750610d668113155b15612b3d57507ff22d62753c9bef149557affda667bdaa3aff1e69179b0c09e101bfc462bf4fae92915050565b610aa08112158015612b515750610aa18113155b15612b7e57507fae6e54a2162e6ef6bb60a2555b10f3160acb04e5d6181837025ff5cdd9df7ff192915050565b610c948112158015612b925750610c968113155b15612bbf57507f32c232ca8907667a2c1ce8c69c3cc8ff5db78af1eff931677d8c7e80099fd7ad92915050565b610e248112158015612bd35750610e268113155b15612c0057507f3d837ba14aa69d4ce9d10c4792c57f1e6daca62171e4c75025c4420d205804c492915050565b507fcd02281adf97b6f29c53f269ef4fa9ed4071a1b1a66cc6056f030582da6ec5f592915050565b60007f88897217b7ca352fa62012bfb0aa451ebca6a6ff9208f9698f717331232152a78214806113705750507f9182d0838cda5b8b8d04b7fdb048ae0d49c90dd4f4ef46ab0958cf6328dfb2ca1490565b6040517fcccf7a8e0000000000000000000000000000000000000000000000000000000081526004810182905260009073ffffffffffffffffffffffffffffffffffffffff84169063cccf7a8e90602401602060405180830381865afa158015612ce7573d6000803e3d6000fd5b505050506040513d601f19601f82011682018060405250810190612d0b9190615262565b612d16576000611b30565b6040517f0ff4c9160000000000000000000000000000000000000000000000000000000081526004810183905273ffffffffffffffffffffffffffffffffffffffff841690630ff4c91690602401602060405180830381865afa158015612d81573d6000803e3d6000fd5b505050506040513d601f19601f82011682018060405250810190611b309190615284565b7f8a22373512790c48b83a1fe2efdd2888d4a917bcdc24d0adf63e60f671680460805460405173ffffffffffffffffffffffffffffffffffffffff8481169216907f8be0079c531659141344cd1fd0a4f28419497f9722a3daafe3b4186f6b6457e090600090a380547fffffffffffffffffffffffff00000000000000000000000000000000000000001673ffffffffffffffffffffffffffffffffffffffff92909216919091179055565b60606000825167ffffffffffffffff811115612e6f57612e6f614f84565b604051908082528060200260200182016040528015612ea257816020015b6060815260200190600190039081612e8d5790505b5090506000805b845181101561300457848181518110612ec457612ec46153f6565b602002602001015160ff1667ffffffffffffffff811115612ee757612ee7614f84565b6040519080825280601f01601f191660200182016040528015612f11576020820181803683370190505b50838281518110612f2457612f246153f6565b602002602001018190525060005b858281518110612f4457612f446153f6565b602002602001015160ff16811015612fd7578681840181518110612f6a57612f6a6153f6565b602001015160f81c60f81b848381518110612f8757612f876153f6565b60200260200101518281518110612fa057612fa06153f6565b60200101907effffffffffffffffffffffffffffffffffffffffffffffffffffffffffffff1916908160001a905350600101612f32565b50848181518110612fea57612fea6153f6565b602002602001015160ff1682019150600181019050612ea9565b5090949350505050565b6000806130208361eb225b600c613098565b905060006130318462012135613019565b905060006130418561cf64613019565b90506000613051866143ae613019565b905061305f848484846130d7565b9695505050505050565b60008061307b8361eb225b6008613098565b9050600061308c8462012135613074565b9050611a968282613115565b6000806130ce84866000015160030b6130b1919061557b565b85876020015160030b6130c4919061557b565b6000866040613142565b95945050505050565b6000806130f66130f06130ea88886136ab565b866136ab565b846136ab565b905061305f61310e8268050000000000000000613700565b6064613778565b60008061312284846136ab565b9050611a9661313a8268040000000000000000613700565b612710613778565b604080516102e081018252600080825260208201819052918101829052606081018290526080810182905260a0810182905260c0810182905260e08101829052610100810182905261012081018290526101408101829052610160810182905261018081018290526101a081018290526101c081018290526101e08101829052610200810182905261022081018290526102408101829052610260810182905261028081018290526102a081018290526102c0810182905261320487856138aa565b600f0b61020082015261321786856138aa565b600f0b61022082015261322a85856138aa565b600f0b61024082015261020081015161324690600f0b60401d90565b60ff1660010b8152610220810151600f0b60401d60ff1660010b6020820152610240810151600f0b60401d60ff1660010b60408201526102008101516132949061328f81613952565b61396c565b600f0b6102008201526102208101516132b09061328f81613952565b600f0b6102208201526102408101516132cc9061328f81613952565b600f0b6102408201526102008101516132e4906139c0565b600f0b6102608201526102208101516132fc906139c0565b600f0b610280820152610240810151613314906139c0565b600f0b6102a0820152805161332890613a0e565b60010b610120820181905260208201516133449160081d61559b565b60010b6060820181905261335790613a0e565b60010b610140820181905260408201516133739160081d61559b565b60010b6080820152604081015161014082015160ff16613393919061559b565b60010b60a0820152602081015161012082015160ff166133b3919061559b565b60010b60c082018190526133c690613a0e565b60010b610160820181905260408201516133e29160081d61559b565b60010b60e0820152604081015161016082015160ff16613402919061559b565b60010b610100820152608081015161341990613a0e565b60010b61018082015260a081015161343090613a0e565b60010b6101a082015260e081015161344790613a0e565b60010b6101c082015261010081015161345f90613a0e565b816101e0019060010b908160010b8152505061365a816102a0015161356a8361028001516134f18561026001516134b86134a188610180015160010b60081d90565b8861020001518961022001518a6102400151613a1c565b6134ec6134cd896101c0015160010b60081d90565b6134db8a6102000151613b7a565b8a61022001518b6102400151613a1c565b613b8f565b6134ec86610260015161352e61350f896101a0015160010b60081d90565b8961020001516135238b6102200151613b7a565b8b6102400151613a1c565b6134ec6135438a6101e0015160010b60081d90565b6135518b6102000151613b7a565b61355f8c6102200151613b7a565b8c6102400151613a1c565b6134ec8461028001516135e18661026001516135ad61358e89610180015160ff1690565b8961020001518a61022001516135a88c6102400151613b7a565b613a1c565b6134ec6135bf8a6101c0015160ff1690565b6135cd8b6102000151613b7a565b8b61022001516135a88d6102400151613b7a565b6134ec87610260015161361e6135fc8a6101a0015160ff1690565b8a61020001516136108c6102200151613b7a565b6135a88d6102400151613b7a565b6134ec6136308b6101e0015160ff1690565b61363e8c6102000151613b7a565b61364c8d6102200151613b7a565b6135a88e6102400151613b7a565b600f0b6102c082015261366e8360406155db565b60ff1661369b61368c836102c00151680100000000000000006136ab565b68020000000000000000613700565b600f0b901d979650505050505050565b6000600f83810b9083900b017fffffffffffffffffffffffffffffffff8000000000000000000000000000000081128015906136f757506f7fffffffffffffffffffffffffffffff8113155b611b3057600080fd5b600081600f0b60000361371257600080fd5b600082600f0b604085600f0b901b8161372d5761372d6155f4565b0590507fffffffffffffffffffffffffffffffff8000000000000000000000000000000081128015906136f757506f7fffffffffffffffffffffffffffffff811315611b3057600080fd5b60006f80000000000000000000000000000000600f84900b016137f5577fffffffffffffffff00000000000000000000000000000000000000000000000182121580156137de575078010000000000000000000000000000000000000000000000008213155b6137e757600080fd5b506000819003603f1b611370565b60008084600f0b121561380d57836000039350600190505b600083121561381f5760009290920391155b600061382b8585613ba8565b9050811561386c577f800000000000000000000000000000000000000000000000000000000000000081111561386057600080fd5b60000391506113709050565b7f7fffffffffffffffffffffffffffffffffffffffffffffffffffffffffffffff81111561389957600080fd5b91506113709050565b505092915050565b6000816000036138b957600080fd5b6000808412156138ce57836000039350600190505b60008312156138e05760009290920391155b60006138ec8585613c2d565b90508115613923576f80000000000000000000000000000000816fffffffffffffffffffffffffffffffff16111561386057600080fd5b6f7fffffffffffffffffffffffffffffff816fffffffffffffffffffffffffffffffff16111561389957600080fd5b600061137061396483600f0b60401d90565b60070b613dbe565b6000600f82810b9084900b037fffffffffffffffffffffffffffffffff8000000000000000000000000000000081128015906136f757506f7fffffffffffffffffffffffffffffff811315611b3057600080fd5b6000611370826139fa846139fa866139fa6139ff896139fa6139eb8c68060000000000000000613e08565b680f000000000000000061396c565b613e08565b680a00000000000000006136ab565b60006113708260010b613e5f565b6000600f85166007600182900b13613ae35760038160010b13613a925760018160010b13613a6b578060010b600003613a6157613a5985856136ab565b915050611a96565b613a59848661396c565b8060010b600203613a8057613a59858561396c565b613a59613a8c86614f5b565b8561396c565b60058160010b13613abc578060010b600403613ab257613a5985846136ab565b613a59838661396c565b8060010b600603613ad157613a59858461396c565b613a59613add86614f5b565b8461396c565b600b8160010b13613b395760098160010b13613b18578060010b600803613b0e57613a5984846136ab565b613a59838561396c565b8060010b600a03613b2d57613a59848461396c565b613a59613add85614f5b565b600d8160010b13613b65578060010b600c03613b5957613a5984866136ab565b613a596130f085614f5b565b8060010b600e03613b2d57613a59848661396c565b6000611370826801000000000000000061396c565b6000611a9683613ba3866139fa868861396c565b6136ab565b600081600003613bba57506000611370565b600083600f0b1215613bcb57600080fd5b600f83900b6fffffffffffffffffffffffffffffffff8316810260401c90608084901c0277ffffffffffffffffffffffffffffffffffffffffffffffff811115613c1457600080fd5b60401b8119811115613c2557600080fd5b019392505050565b600081600003613c3c57600080fd5b600077ffffffffffffffffffffffffffffffffffffffffffffffff8411613c785782604085901b81613c7057613c706155f4565b049050613da1565b60c084811c6401000000008110613c91576020918201911c5b620100008110613ca3576010918201911c5b6101008110613cb4576008918201911c5b60108110613cc4576004918201911c5b60048110613cd4576002918201911c5b60028110613ce3576001820191505b60bf820360018603901c6001018260ff0387901b81613d0457613d046155f4565b0492506fffffffffffffffffffffffffffffffff831115613d2457600080fd5b608085901c83026fffffffffffffffffffffffffffffffff8616840260c088901c604089901b82811015613d59576001820391505b608084901b92900382811015613d70576001820391505b829003608084901c8214613d8657613d86615623565b888181613d9557613d956155f4565b04870196505050505050505b6fffffffffffffffffffffffffffffffff811115611b3057600080fd5b60007fffffffffffffffffffffffffffffffffffffffffffffffff80000000000000008212158015613df85750677fffffffffffffff8213155b613e0157600080fd5b5060401b90565b6000600f83810b9083900b0260401d7fffffffffffffffffffffffffffffffff8000000000000000000000000000000081128015906136f757506f7fffffffffffffffffffffffffffffff811315611b3057600080fd5b60ff166000607f82136146e357603f82136142ab57601f821361409457600f8213613f8c5760078213613f0c5760038213613ed05760018213613eb65781600003613ead57506197a0919050565b5061a089919050565b81600203613ec7575061895b919050565b50615b5a919050565b60058213613ef25781600403613ee95750615a0f919050565b50610f83919050565b81600603613f03575061830d919050565b50610dc9919050565b600b8213613f505760098213613f365781600803613f2d575061c95f919050565b50615f60919050565b81600a03613f475750616035919050565b506135c2919050565b600d8213613f725781600c03613f69575061c2e9919050565b5061e907919050565b81600e03613f8357506107e1919050565b5061e18c919050565b601782136140145760138213613fd85760118213613fbe5781601003613fb55750618c24919050565b50612467919050565b81601203613fcf575061671e919050565b50611e45919050565b60158213613ffa5781601403613ff1575061458e919050565b50618e08919050565b8160160361400b5750610863919050565b50616325919050565b601b8213614058576019821361403e578160180361403557506125f0919050565b5061f015919050565b81601a0361404f575061150a919050565b50610a17919050565b601d821361407a5781601c0361407157506117be919050565b5061be06919050565b81601e0361408b5750610694919050565b506194f7919050565b602f82136141a3576027821361412357602382136140e857602182136140ce57816020036140c5575061f778919050565b506178ea919050565b816022036140df575061ea4b919050565b50614b00919050565b6025821361410957816024036141005750601a919050565b50611ac5919050565b8160260361411a575061c53e919050565b50613e5e919050565b602b8213614167576029821361414d57816028036141445750615efc919050565b5061fcdb919050565b81602a0361415e575061dbcb919050565b5061cb75919050565b602d82136141895781602c036141805750617523919050565b5061230b919050565b81602e0361419a5750610b20919050565b50612039919050565b6037821361422b57603382136141ef57603182136141d557816030036141cc57506139b1919050565b5061b121919050565b816032036141e65750612158919050565b506158ed919050565b603582136142115781603403614208575061ed95919050565b50619538919050565b816036036142225750613857919050565b506157ae919050565b603b821361426f5760398213614255578160380361424c575061ae14919050565b5061147d919050565b81603a036142665750617d88919050565b506188ab919050565b603d82136142915781603c03614288575061aba8919050565b5061a844919050565b81603e036142a257506144af919050565b5061af4a919050565b605f82136144cb57604f82136143c35760478213614343576043821361430757604182136142ed57816040036142e45750614aa5919050565b5061a547919050565b816042036142fe5750614786919050565b5061868b919050565b6045821361432957816044036143205750618b30919050565b5061301b919050565b8160460361433a5750611ba6919050565b5061a64d919050565b604b8213614387576049821361436d57816048036143645750614d92919050565b5061929e919050565b81604a0361437e5750619ee7919050565b5061e753919050565b604d82136143a95781604c036143a0575061536f919050565b50616fe5919050565b81604e036143ba575061e57a919050565b50617a3c919050565b6057821361444b576053821361440f57605182136143f557816050036143ec5750613cd3919050565b5061d385919050565b8160520361440657506185e6919050565b5061e6dc919050565b605582136144315781605403614428575061dc69919050565b5061695c919050565b816056036144425750615c29919050565b50612937919050565b605b821361448f5760598213614475578160580361446c575061372e919050565b50612ef5919050565b81605a03614486575061f528919050565b506128f4919050565b605d82136144b15781605c036144a8575061f466919050565b5061668f919050565b81605e036144c25750618f36919050565b50613641919050565b606f82136145db576067821361455b576063821361451f576061821361450557816060036144fc5750614119919050565b5061193f919050565b816062036145165750613fa1919050565b5061a101919050565b60658213614541578160640361453857506101d8919050565b5061d850919050565b816066036145525750615049919050565b506149d1919050565b606b821361459f5760698213614585578160680361457c575061d14c919050565b50614c84919050565b81606a0361459657506184bb919050565b5061bbd0919050565b606d82136145c15781606c036145b8575061d059919050565b50615912919050565b81606e036145d257506112a9919050565b5061a9c8919050565b607782136146635760738213614627576071821361460d5781607003614604575061c8c4919050565b5061c487919050565b8160720361461e5750618782919050565b50618274919050565b60758213614649578160740361464057506174bc919050565b5061bc9f919050565b8160760361465a5750619f56919050565b506156a4919050565b607b82136146a7576079821361468d5781607803614684575061a464919050565b5061646d919050565b81607a0361469e5750616dc6919050565b5061c6ad919050565b607d82136146c95781607c036146c0575061adba919050565b5061ba03919050565b81607e036146da5750610340919050565b50614034919050565b60bf8213614b2357609f821361490b57608f821361480357608782136147835760838213614747576081821361472d578160800361472457506134d9919050565b5061d9e2919050565b8160820361473e575061e2fa919050565b5061fa7c919050565b6085821361476957816084036147605750617c7b919050565b50617b05919050565b8160860361477a57506105ca919050565b5061ca26919050565b608b82136147c757608982136147ad57816088036147a45750612693919050565b50619376919050565b81608a036147be575061767e919050565b50617eff919050565b608d82136147e95781608c036147e0575061ff52919050565b50615255919050565b81608e036147fa57506155d4919050565b5061d4cf919050565b6097821361488b576093821361484f5760918213614835578160900361482c575061cfce919050565b5061ce3b919050565b816092036148465750613be3919050565b5061e32f919050565b6095821361487157816094036148685750612f10919050565b5061103a919050565b816096036148825750613a11919050565b506111b6919050565b609b82136148cf57609982136148b557816098036148ac575061b6bd919050565b5061bd1c919050565b81609a036148c65750611c2a919050565b50612adf919050565b609d82136148f15781609c036148e8575061dfb7919050565b5061b7aa919050565b81609e03614902575061aad5919050565b5061d577919050565b60af8213614a1b5760a7821361499b5760a3821361495f5760a18213614945578160a00361493c57506177f8919050565b5061f898919050565b8160a2036149565750619802919050565b5061022c919050565b60a58213614981578160a4036149785750612c9a919050565b50619aa3919050565b8160a603614992575061a346919050565b506146dd919050565b60ab82136149df5760a982136149c5578160a8036149bc575061dd99919050565b50619965919050565b8160aa036149d6575061659b919050565b50619ba7919050565b60ad8213614a01578160ac036149f8575061a72b919050565b50612bac919050565b8160ae03614a12575061ac09919050565b50610981919050565b60b78213614aa35760b38213614a675760b18213614a4d578160b003614a445750618116919050565b50611627919050565b8160b203614a5e57506127fd919050565b5061fd13919050565b60b58213614a89578160b403614a805750611362919050565b5061626c919050565b8160b603614a9a5750616c6e919050565b50616e4f919050565b60bb8213614ae75760b98213614acd578160b803614ac45750614f71919050565b506171e0919050565b8160ba03614ade575061e0e8919050565b5061e8b2919050565b60bd8213614b09578160bc03614b00575061b2b9919050565b5061b970919050565b8160be03614b1a5750617068919050565b506168da919050565b60df8213614d435760cf8213614c3b5760c78213614bbb5760c38213614b7f5760c18213614b65578160c003614b5c575061daf6919050565b5061f661919050565b8160c203614b7657506161e4919050565b5061e4fb919050565b60c58213614ba1578160c403614b98575061fb22919050565b506122f2919050565b8160c603614bb2575061f2c1919050565b5061c1ee919050565b60cb8213614bff5760c98213614be5578160c803614bdc575061eed2919050565b5061d290919050565b8160ca03614bf6575061900c919050565b50610cbf919050565b60cd8213614c21578160cc03614c18575061bfb3919050565b5061b3a2919050565b8160ce03614c32575061a2f1919050565b5061f151919050565b60d78213614cc35760d38213614c875760d18213614c6d578160d003614c645750615133919050565b50613391919050565b8160d203614c7e57506191eb919050565b5061ebf9919050565b60d58213614ca9578160d403614ca0575061f90e919050565b50610eef919050565b8160d603614cba575061ef6b919050565b50616b31919050565b60db8213614d075760d98213614ced578160d803614ce457506131c0919050565b5061c0d6919050565b8160da03614cfe575061d61f919050565b50611fb5919050565b60dd8213614d29578160dc03614d20575061b5c7919050565b5061c76a919050565b8160de03614d3a5750616a9d919050565b50619db8919050565b60ef8213614e535760e78213614dd35760e38213614d975760e18213614d7d578160e003614d74575061b854919050565b506154cc919050565b8160e203614d8e575061ccb0919050565b5061b073919050565b60e58213614db9578160e403614db05750617379919050565b50617932919050565b8160e603614dca575061322d919050565b50612d7f919050565b60eb8213614e175760e98213614dfd578160e803614df45750617f04919050565b50610496919050565b8160ea03614e0e57506196fe919050565b5061fe8a919050565b60ed8213614e39578160ec03614e305750618aec919050565b5061eccd919050565b8160ee03614e4a575061cd5d919050565b50615dde919050565b60f78213614edb5760f38213614e9f5760f18213614e85578160f003614e7c575061de72919050565b50617243919050565b8160f203614e96575061431d919050565b50611d18919050565b60f58213614ec1578160f403614eb85750611848919050565b506148f3919050565b8160f603614ed2575061f38d919050565b50618d80919050565b60fb8213614f1f5760f98213614f05578160f803614efc57506180c3919050565b5061c34e919050565b8160fa03614f165750614e42919050565b506142d7919050565b60fd8213614f41578160fc03614f38575061d73d919050565b50613d9c919050565b8160fe03614f525750619cb4919050565b5061b497919050565b60006f80000000000000000000000000000000600f83900b01614f7d57600080fd5b5060000390565b7f4e487b7100000000000000000000000000000000000000000000000000000000600052604160045260246000fd5b6040805190810167ffffffffffffffff81118282101715614fd657614fd6614f84565b60405290565b604051601f82017fffffffffffffffffffffffffffffffffffffffffffffffffffffffffffffffe016810167ffffffffffffffff8111828210171561502357615023614f84565b604052919050565b6000602080838503121561503e57600080fd5b823567ffffffffffffffff8082111561505657600080fd5b818501915085601f83011261506a57600080fd5b81358181111561507c5761507c614f84565b6150ac847fffffffffffffffffffffffffffffffffffffffffffffffffffffffffffffffe0601f84011601614fdc565b915080825286848285010111156150c257600080fd5b8084840185840137600090820190930192909252509392505050565b600060208083528351808285015260005b8181101561510b578581018301518582016040015282016150ef565b5060006040828601015260407fffffffffffffffffffffffffffffffffffffffffffffffffffffffffffffffe0601f8301168501019250505092915050565b8060030b81146114ab57600080fd5b60006040828403121561516b57600080fd5b615173614fb3565b905081356151808161514a565b815260208201356151908161514a565b602082015292915050565b6000806000608084860312156151b057600080fd5b6151ba8585615159565b95604085013595506060909401359392505050565b6000604082840312156151e157600080fd5b611b308383615159565b6000602082840312156151fd57600080fd5b813573ffffffffffffffffffffffffffffffffffffffff81168114611b3057600080fd5b60006040828403121561523357600080fd5b61523b614fb3565b82516152468161514a565b815260208301516152568161514a565b60208201529392505050565b60006020828403121561527457600080fd5b81518015158114611b3057600080fd5b60006020828403121561529657600080fd5b5051919050565b7f4e487b7100000000000000000000000000000000000000000000000000000000600052601160045260246000fd5b600382810b9082900b037fffffffffffffffffffffffffffffffffffffffffffffffffffffffff800000008112637fffffff821317156113705761137061529d565b600381810b9083900b01637fffffff81137fffffffffffffffffffffffffffffffffffffffffffffffffffffffff80000000821217156113705761137061529d565b6000602080838503121561536357600080fd5b825167ffffffffffffffff8082111561537b57600080fd5b818501915085601f83011261538f57600080fd5b8151818111156153a1576153a1614f84565b8060051b91506153b2848301614fdc565b81815291830184019184810190888411156153cc57600080fd5b938501935b838510156153ea578451825293850193908501906153d1565b98975050505050505050565b7f4e487b7100000000000000000000000000000000000000000000000000000000600052603260045260246000fd5b60007fffffffffffffffffffffffffffffffffffffffffffffffffffffffffffffffff82036154565761545661529d565b5060010190565b6000815160208301517fffffffffffffffffffffffffffffffffffffffffffffffff0000000000000000808216935060188310156154a55780818460180360031b1b83161693505b505050919050565b805160208083015191908110156154ec577fffffffffffffffffffffffffffffffffffffffffffffffffffffffffffffffff8160200360031b1b821691505b50919050565b818103818111156113705761137061529d565b80820281158282048414176113705761137061529d565b808201808211156113705761137061529d565b6000815160208301517fffffffff00000000000000000000000000000000000000000000000000000000808216935060048310156154a55760049290920360031b82901b161692915050565b80820182811260008312801582168215821617156138a2576138a261529d565b600181810b9083900b01617fff81137fffffffffffffffffffffffffffffffffffffffffffffffffffffffffffff8000821217156113705761137061529d565b60ff82811682821603908111156113705761137061529d565b7f4e487b7100000000000000000000000000000000000000000000000000000000600052601260045260246000fd5b7f4e487b7100000000000000000000000000000000000000000000000000000000600052600160045260246000fdfea26469706673582212204714427582931d351848171f5714a4a7ab9d78e6f84df4f035df3eda8d13d26664736f6c63430008130033",
    "linkReferences": {}
  },
  "methodIdentifiers": {
    "claimAdjacentBuildings((int32,int32),uint256,uint256)": "2542d63e",
    "claimAdjacentNodeTiles((int32,int32),uint256,uint256)": "e4146a97",
    "claimBuilding((int32,int32),uint256,uint256)": "52ada480",
    "claimNodeTile((int32,int32),uint256,uint256)": "fbfd820f",
    "execute(bytes)": "09c5eabe",
    "executeTyped((int32,int32))": "cb6cbba7",
    "owner()": "8da5cb5b",
    "transferOwnership(address)": "f2fde38b"
  },
  "id": 115
}