{
  "abi": [
    {
      "inputs": [
        {
          "internalType": "contract IWorld",
          "name": "_world",
          "type": "address"
        },
        {
          "internalType": "address",
          "name": "_components",
          "type": "address"
        }
      ],
      "stateMutability": "nonpayable",
      "type": "constructor"
    },
    {
      "inputs": [],
      "name": "Ownable__NotOwner",
      "type": "error"
    },
    {
      "inputs": [],
      "name": "Ownable__NotTransitiveOwner",
      "type": "error"
    },
    {
      "anonymous": false,
      "inputs": [
        {
          "indexed": true,
          "internalType": "address",
          "name": "previousOwner",
          "type": "address"
        },
        {
          "indexed": true,
          "internalType": "address",
          "name": "newOwner",
          "type": "address"
        }
      ],
      "name": "OwnershipTransferred",
      "type": "event"
    },
    {
      "inputs": [
        {
          "internalType": "bytes",
          "name": "args",
          "type": "bytes"
        }
      ],
      "name": "execute",
      "outputs": [
        {
          "internalType": "bytes",
          "name": "",
          "type": "bytes"
        }
      ],
      "stateMutability": "nonpayable",
      "type": "function"
    },
    {
      "inputs": [
        {
          "internalType": "uint256",
          "name": "componentId",
          "type": "uint256"
        },
        {
          "internalType": "uint256",
          "name": "entity",
          "type": "uint256"
        },
        {
          "internalType": "bytes",
          "name": "value",
          "type": "bytes"
        }
      ],
      "name": "executeTyped",
      "outputs": [
        {
          "internalType": "bytes",
          "name": "",
          "type": "bytes"
        }
      ],
      "stateMutability": "nonpayable",
      "type": "function"
    },
    {
      "inputs": [],
      "name": "owner",
      "outputs": [
        {
          "internalType": "address",
          "name": "",
          "type": "address"
        }
      ],
      "stateMutability": "view",
      "type": "function"
    },
    {
      "inputs": [
        {
          "internalType": "address",
          "name": "account",
          "type": "address"
        }
      ],
      "name": "transferOwnership",
      "outputs": [],
      "stateMutability": "nonpayable",
      "type": "function"
    }
  ],
  "bytecode": {
    "object": "0x608060405234801561001057600080fd5b50604051610b9f380380610b9f83398101604081905261002f916101ce565b818161003a3361013c565b6001600160a01b0381161561004f57806100b1565b816001600160a01b031663ba62fbe46040518163ffffffff1660e01b8152600401602060405180830381865afa15801561008d573d6000803e3d6000fd5b505050506040513d601f19601f820116820180604052508101906100b19190610208565b600080546001600160a01b039283166001600160a01b0319918216811790925560018054938616938216841790557ff67304f10c7772c78e439bc5cb07781db345424de8878c18100fdaa64d197a87805482169093179092557ff67304f10c7772c78e439bc5cb07781db345424de8878c18100fdaa64d197a8680549092161790555050505061022c565b7f8a22373512790c48b83a1fe2efdd2888d4a917bcdc24d0adf63e60f67168046080546040516001600160a01b038481169216907f8be0079c531659141344cd1fd0a4f28419497f9722a3daafe3b4186f6b6457e090600090a380546001600160a01b0319166001600160a01b0392909216919091179055565b6001600160a01b03811681146101cb57600080fd5b50565b600080604083850312156101e157600080fd5b82516101ec816101b6565b60208401519092506101fd816101b6565b809150509250929050565b60006020828403121561021a57600080fd5b8151610225816101b6565b9392505050565b6109648061023b6000396000f3fe608060405234801561001057600080fd5b506004361061004c5760003560e01c806309c5eabe1461005157806334830fd71461007a5780638da5cb5b1461008d578063f2fde38b146100ad575b600080fd5b61006461005f366004610645565b6100c2565b60405161007191906106ca565b60405180910390f35b6100646100883660046106e4565b610261565b610095610297565b6040516001600160a01b039091168152602001610071565b6100c06100bb366004610749565b6102cf565b005b6001546060906100da906001600160a01b0316610325565b6101375760405162461bcd60e51b8152602060048201526024808201527f5b436f6d706f6e656e7444657653797374656d5d3a206e6f74206465627567206044820152636d6f646560e01b60648201526084015b60405180910390fd5b6000806000848060200190518101906101509190610766565b60008054939650919450925090610170906001600160a01b031685610424565b905081516000036101da57604051634cc8221560e01b8152600481018490526001600160a01b03821690634cc8221590602401600060405180830381600087803b1580156101bd57600080fd5b505af11580156101d1573d6000803e3d6000fd5b5050505061023b565b604051638b28294760e01b81526001600160a01b03821690638b2829479061020890869086906004016107f2565b600060405180830381600087803b15801561022257600080fd5b505af1158015610236573d6000803e3d6000fd5b505050505b604080516020810185905201604051602081830303815290604052945050505050919050565b606061028f84848460405160200161027b9392919061080b565b6040516020818303038152906040526100c2565b949350505050565b60006102ca7f8a22373512790c48b83a1fe2efdd2888d4a917bcdc24d0adf63e60f671680460546001600160a01b031690565b905090565b7f8a22373512790c48b83a1fe2efdd2888d4a917bcdc24d0adf63e60f671680460546001600160a01b0316331461031957604051632f7a8ee160e01b815260040160405180910390fd5b610322816104fe565b50565b60006103b2826001600160a01b031663ba62fbe46040518163ffffffff1660e01b8152600401602060405180830381865afa158015610368573d6000803e3d6000fd5b505050506040513d601f19601f8201168201806040525081019061038c9190610833565b7fc3e18fdee44dca3d8fa1615250f268046d17fbc35f417d176d5c09d7ca8d3202610424565b604051636667bd4760e11b815261060d60048201526001600160a01b03919091169063cccf7a8e90602401602060405180830381865afa1580156103fa573d6000803e3d6000fd5b505050506040513d601f19601f8201168201806040525081019061041e9190610850565b92915050565b604051637defd0f560e11b81526004810182905260009081906001600160a01b0385169063fbdfa1ea90602401600060405180830381865afa15801561046e573d6000803e3d6000fd5b505050506040513d6000823e601f3d908101601f191682016040526104969190810190610872565b905080516000036104dd5760405162461bcd60e51b81526020600482015260116024820152701a59081b9bdd081c9959da5cdd195c9959607a1b604482015260640161012e565b61028f816000815181106104f3576104f3610918565b602002602001015190565b7f8a22373512790c48b83a1fe2efdd2888d4a917bcdc24d0adf63e60f671680460805460405161032292849290916001600160a01b038085169216907f8be0079c531659141344cd1fd0a4f28419497f9722a3daafe3b4186f6b6457e090600090a380546001600160a01b0319166001600160a01b0392909216919091179055565b634e487b7160e01b600052604160045260246000fd5b604051601f8201601f1916810167ffffffffffffffff811182821017156105bf576105bf610580565b604052919050565b600067ffffffffffffffff8211156105e1576105e1610580565b50601f01601f191660200190565b600082601f83011261060057600080fd5b813561061361060e826105c7565b610596565b81815284602083860101111561062857600080fd5b816020850160208301376000918101602001919091529392505050565b60006020828403121561065757600080fd5b813567ffffffffffffffff81111561066e57600080fd5b61028f848285016105ef565b60005b8381101561069557818101518382015260200161067d565b50506000910152565b600081518084526106b681602086016020860161067a565b601f01601f19169290920160200192915050565b6020815260006106dd602083018461069e565b9392505050565b6000806000606084860312156106f957600080fd5b8335925060208401359150604084013567ffffffffffffffff81111561071e57600080fd5b61072a868287016105ef565b9150509250925092565b6001600160a01b038116811461032257600080fd5b60006020828403121561075b57600080fd5b81356106dd81610734565b60008060006060848603121561077b57600080fd5b8351925060208401519150604084015167ffffffffffffffff8111156107a057600080fd5b8401601f810186136107b157600080fd5b80516107bf61060e826105c7565b8181528760208385010111156107d457600080fd5b6107e582602083016020860161067a565b8093505050509250925092565b82815260406020820152600061028f604083018461069e565b83815282602082015260606040820152600061082a606083018461069e565b95945050505050565b60006020828403121561084557600080fd5b81516106dd81610734565b60006020828403121561086257600080fd5b815180151581146106dd57600080fd5b6000602080838503121561088557600080fd5b825167ffffffffffffffff8082111561089d57600080fd5b818501915085601f8301126108b157600080fd5b8151818111156108c3576108c3610580565b8060051b91506108d4848301610596565b81815291830184019184810190888411156108ee57600080fd5b938501935b8385101561090c578451825293850193908501906108f3565b98975050505050505050565b634e487b7160e01b600052603260045260246000fdfea264697066735822122008fddd6ab7c327e3453c0ee2722dcfa409fec7cc685c23e94ab87f39cd46956564736f6c63430008130033",
    "linkReferences": {}
  },
  "methodIdentifiers": {
    "execute(bytes)": "09c5eabe",
    "executeTyped(uint256,uint256,bytes)": "34830fd7",
    "owner()": "8da5cb5b",
    "transferOwnership(address)": "f2fde38b"
  },
  "id": 193
}