{
  "abi": [
    {
      "inputs": [
        {
          "internalType": "contract IWorld",
          "name": "_world",
          "type": "address"
        },
        {
          "internalType": "address",
          "name": "_components",
          "type": "address"
        }
      ],
      "stateMutability": "nonpayable",
      "type": "constructor"
    },
    {
      "inputs": [],
      "name": "Ownable__NotOwner",
      "type": "error"
    },
    {
      "inputs": [],
      "name": "Ownable__NotTransitiveOwner",
      "type": "error"
    },
    {
      "anonymous": false,
      "inputs": [
        {
          "indexed": true,
          "internalType": "address",
          "name": "previousOwner",
          "type": "address"
        },
        {
          "indexed": true,
          "internalType": "address",
          "name": "newOwner",
          "type": "address"
        }
      ],
      "name": "OwnershipTransferred",
      "type": "event"
    },
    {
      "inputs": [
        {
          "internalType": "bytes",
          "name": "args",
          "type": "bytes"
        }
      ],
      "name": "execute",
      "outputs": [
        {
          "internalType": "bytes",
          "name": "",
          "type": "bytes"
        }
      ],
      "stateMutability": "nonpayable",
      "type": "function"
    },
    {
      "inputs": [
        {
          "internalType": "uint256",
          "name": "resourceId",
          "type": "uint256"
        },
        {
          "internalType": "uint256",
          "name": "amount",
          "type": "uint256"
        }
      ],
      "name": "executeTyped",
      "outputs": [
        {
          "internalType": "bytes",
          "name": "",
          "type": "bytes"
        }
      ],
      "stateMutability": "nonpayable",
      "type": "function"
    },
    {
      "inputs": [],
      "name": "owner",
      "outputs": [
        {
          "internalType": "address",
          "name": "",
          "type": "address"
        }
      ],
      "stateMutability": "view",
      "type": "function"
    },
    {
      "inputs": [
        {
          "internalType": "address",
          "name": "account",
          "type": "address"
        }
      ],
      "name": "transferOwnership",
      "outputs": [],
      "stateMutability": "nonpayable",
      "type": "function"
    }
  ],
  "bytecode": {
    "object": "0x608060405234801561001057600080fd5b50604051610d23380380610d2383398101604081905261002f916101ce565b818161003a3361013c565b6001600160a01b0381161561004f57806100b1565b816001600160a01b031663ba62fbe46040518163ffffffff1660e01b8152600401602060405180830381865afa15801561008d573d6000803e3d6000fd5b505050506040513d601f19601f820116820180604052508101906100b19190610208565b600080546001600160a01b039283166001600160a01b0319918216811790925560018054938616938216841790557ff67304f10c7772c78e439bc5cb07781db345424de8878c18100fdaa64d197a87805482169093179092557ff67304f10c7772c78e439bc5cb07781db345424de8878c18100fdaa64d197a8680549092161790555050505061022c565b7f8a22373512790c48b83a1fe2efdd2888d4a917bcdc24d0adf63e60f67168046080546040516001600160a01b038481169216907f8be0079c531659141344cd1fd0a4f28419497f9722a3daafe3b4186f6b6457e090600090a380546001600160a01b0319166001600160a01b0392909216919091179055565b6001600160a01b03811681146101cb57600080fd5b50565b600080604083850312156101e157600080fd5b82516101ec816101b6565b60208401519092506101fd816101b6565b809150509250929050565b60006020828403121561021a57600080fd5b8151610225816101b6565b9392505050565b610ae88061023b6000396000f3fe608060405234801561001057600080fd5b506004361061004c5760003560e01c806309c5eabe146100515780638da5cb5b1461007a578063915657fb146100a7578063f2fde38b146100ba575b600080fd5b61006461005f3660046107c6565b6100cf565b6040516100719190610879565b60405180910390f35b61008261031d565b60405173ffffffffffffffffffffffffffffffffffffffff9091168152602001610071565b6100646100b53660046108e5565b610362565b6100cd6100c8366004610907565b6103a0565b005b6060600080838060200190518101906100e89190610944565b915091506100f4600190565b61015f576040517f08c379a000000000000000000000000000000000000000000000000000000000815260206004820152601160248201527f4e6f7420696e206465627567206d6f646500000000000000000000000000000060448201526064015b60405180910390fd5b600080546101a39073ffffffffffffffffffffffffffffffffffffffff167ffba48a04766694c16713a414735f83be9cb20bbb29b5e18846cc8f151064084561041c565b60408051602080820187905233828401528251808303840181526060909201909252805191012090915073ffffffffffffffffffffffffffffffffffffffff821690631ab06ee59061021c565b604080516020808201949094528082019290925280518083038201815260609092019052805191012090565b6040805160208082018990523382840152825180830384018152606090920190925280519101208590610255908690610568565b610568565b61025f9190610968565b6040517fffffffff0000000000000000000000000000000000000000000000000000000060e085901b16815260048101929092526024820152604401600060405180830381600087803b1580156102b557600080fd5b505af11580156102c9573d6000803e3d6000fd5b505050506102f281610250856101f03373ffffffffffffffffffffffffffffffffffffffff1690565b60405160200161030491815260200190565b6040516020818303038152906040529350505050919050565b600061035d7f8a22373512790c48b83a1fe2efdd2888d4a917bcdc24d0adf63e60f6716804605473ffffffffffffffffffffffffffffffffffffffff1690565b905090565b60606103978383604051602001610383929190918252602082015260400190565b6040516020818303038152906040526100cf565b90505b92915050565b7f8a22373512790c48b83a1fe2efdd2888d4a917bcdc24d0adf63e60f6716804605473ffffffffffffffffffffffffffffffffffffffff163314610410576040517f2f7a8ee100000000000000000000000000000000000000000000000000000000815260040160405180910390fd5b61041981610694565b50565b6040517ffbdfa1ea00000000000000000000000000000000000000000000000000000000815260048101829052600090819073ffffffffffffffffffffffffffffffffffffffff85169063fbdfa1ea90602401600060405180830381865afa15801561048c573d6000803e3d6000fd5b505050506040513d6000823e601f3d9081017fffffffffffffffffffffffffffffffffffffffffffffffffffffffffffffffe01682016040526104d291908101906109a2565b9050805160000361053f576040517f08c379a000000000000000000000000000000000000000000000000000000000815260206004820152601160248201527f6964206e6f7420726567697374657265640000000000000000000000000000006044820152606401610156565b6105608160008151811061055557610555610a48565b602002602001015190565b949350505050565b6040517fcccf7a8e0000000000000000000000000000000000000000000000000000000081526004810182905260009073ffffffffffffffffffffffffffffffffffffffff84169063cccf7a8e90602401602060405180830381865afa1580156105d6573d6000803e3d6000fd5b505050506040513d601f19601f820116820180604052508101906105fa9190610a77565b610605576000610397565b6040517f0ff4c9160000000000000000000000000000000000000000000000000000000081526004810183905273ffffffffffffffffffffffffffffffffffffffff841690630ff4c91690602401602060405180830381865afa158015610670573d6000803e3d6000fd5b505050506040513d601f19601f820116820180604052508101906103979190610a99565b7f8a22373512790c48b83a1fe2efdd2888d4a917bcdc24d0adf63e60f6716804608054604051610419928492909173ffffffffffffffffffffffffffffffffffffffff8085169216907f8be0079c531659141344cd1fd0a4f28419497f9722a3daafe3b4186f6b6457e090600090a380547fffffffffffffffffffffffff00000000000000000000000000000000000000001673ffffffffffffffffffffffffffffffffffffffff92909216919091179055565b7f4e487b7100000000000000000000000000000000000000000000000000000000600052604160045260246000fd5b604051601f82017fffffffffffffffffffffffffffffffffffffffffffffffffffffffffffffffe016810167ffffffffffffffff811182821017156107be576107be610748565b604052919050565b600060208083850312156107d957600080fd5b823567ffffffffffffffff808211156107f157600080fd5b818501915085601f83011261080557600080fd5b81358181111561081757610817610748565b610847847fffffffffffffffffffffffffffffffffffffffffffffffffffffffffffffffe0601f84011601610777565b9150808252868482850101111561085d57600080fd5b8084840185840137600090820190930192909252509392505050565b600060208083528351808285015260005b818110156108a65785810183015185820160400152820161088a565b5060006040828601015260407fffffffffffffffffffffffffffffffffffffffffffffffffffffffffffffffe0601f8301168501019250505092915050565b600080604083850312156108f857600080fd5b50508035926020909101359150565b60006020828403121561091957600080fd5b813573ffffffffffffffffffffffffffffffffffffffff8116811461093d57600080fd5b9392505050565b6000806040838503121561095757600080fd5b505080516020909101519092909150565b8082018082111561039a577f4e487b7100000000000000000000000000000000000000000000000000000000600052601160045260246000fd5b600060208083850312156109b557600080fd5b825167ffffffffffffffff808211156109cd57600080fd5b818501915085601f8301126109e157600080fd5b8151818111156109f3576109f3610748565b8060051b9150610a04848301610777565b8181529183018401918481019088841115610a1e57600080fd5b938501935b83851015610a3c57845182529385019390850190610a23565b98975050505050505050565b7f4e487b7100000000000000000000000000000000000000000000000000000000600052603260045260246000fd5b600060208284031215610a8957600080fd5b8151801515811461093d57600080fd5b600060208284031215610aab57600080fd5b505191905056fea26469706673582212206c8895e3ace7f5fce5951cd67c1ddf0bf13065afc21518f0ec1eae8dccd9c55064736f6c63430008130033",
    "linkReferences": {}
  },
  "methodIdentifiers": {
    "execute(bytes)": "09c5eabe",
    "executeTyped(uint256,uint256)": "915657fb",
    "owner()": "8da5cb5b",
    "transferOwnership(address)": "f2fde38b"
  },
  "id": 162
}