{
  "abi": [
    {
      "inputs": [
        {
          "internalType": "contract IWorld",
          "name": "_world",
          "type": "address"
        },
        {
          "internalType": "address",
          "name": "_components",
          "type": "address"
        }
      ],
      "stateMutability": "nonpayable",
      "type": "constructor"
    },
    {
      "inputs": [],
      "name": "Ownable__NotOwner",
      "type": "error"
    },
    {
      "inputs": [],
      "name": "Ownable__NotTransitiveOwner",
      "type": "error"
    },
    {
      "anonymous": false,
      "inputs": [
        {
          "indexed": true,
          "internalType": "address",
          "name": "previousOwner",
          "type": "address"
        },
        {
          "indexed": true,
          "internalType": "address",
          "name": "newOwner",
          "type": "address"
        }
      ],
      "name": "OwnershipTransferred",
      "type": "event"
    },
    {
      "inputs": [
        {
          "internalType": "bytes",
          "name": "args",
          "type": "bytes"
        }
      ],
      "name": "execute",
      "outputs": [
        {
          "internalType": "bytes",
          "name": "",
          "type": "bytes"
        }
      ],
      "stateMutability": "nonpayable",
      "type": "function"
    },
    {
      "inputs": [
        {
          "internalType": "uint256",
          "name": "buildingId",
          "type": "uint256"
        }
      ],
      "name": "executeTyped",
      "outputs": [
        {
          "internalType": "bytes",
          "name": "",
          "type": "bytes"
        }
      ],
      "stateMutability": "nonpayable",
      "type": "function"
    },
    {
      "inputs": [],
      "name": "owner",
      "outputs": [
        {
          "internalType": "address",
          "name": "",
          "type": "address"
        }
      ],
      "stateMutability": "view",
      "type": "function"
    },
    {
      "inputs": [
        {
          "internalType": "uint256",
          "name": "buildingId",
          "type": "uint256"
        },
        {
          "internalType": "uint256",
          "name": "level",
          "type": "uint256"
        }
      ],
      "name": "removeRequiredResourcesAndTechnologyConditionsForUpgradingBuildingIdLevel",
      "outputs": [
        {
          "internalType": "bytes",
          "name": "",
          "type": "bytes"
        }
      ],
      "stateMutability": "nonpayable",
      "type": "function"
    },
    {
      "inputs": [
        {
          "internalType": "address",
          "name": "account",
          "type": "address"
        }
      ],
      "name": "transferOwnership",
      "outputs": [],
      "stateMutability": "nonpayable",
      "type": "function"
    }
  ],
  "bytecode": {
    "object": "0x608060405234801561001057600080fd5b506040516108a83803806108a883398101604081905261002f916101ce565b818161003a3361013c565b6001600160a01b0381161561004f57806100b1565b816001600160a01b031663ba62fbe46040518163ffffffff1660e01b8152600401602060405180830381865afa15801561008d573d6000803e3d6000fd5b505050506040513d601f19601f820116820180604052508101906100b19190610208565b600080546001600160a01b039283166001600160a01b0319918216811790925560018054938616938216841790557ff67304f10c7772c78e439bc5cb07781db345424de8878c18100fdaa64d197a87805482169093179092557ff67304f10c7772c78e439bc5cb07781db345424de8878c18100fdaa64d197a8680549092161790555050505061022c565b7f8a22373512790c48b83a1fe2efdd2888d4a917bcdc24d0adf63e60f67168046080546040516001600160a01b038481169216907f8be0079c531659141344cd1fd0a4f28419497f9722a3daafe3b4186f6b6457e090600090a380546001600160a01b0319166001600160a01b0392909216919091179055565b6001600160a01b03811681146101cb57600080fd5b50565b600080604083850312156101e157600080fd5b82516101ec816101b6565b60208401519092506101fd816101b6565b809150509250929050565b60006020828403121561021a57600080fd5b8151610225816101b6565b9392505050565b61066d8061023b6000396000f3fe608060405234801561001057600080fd5b50600436106100675760003560e01c8063596317c811610050578063596317c8146100a85780638da5cb5b146100bb578063f2fde38b146100e857600080fd5b806309c5eabe1461006c5780633e991df314610095575b600080fd5b61007f61007a36600461041c565b6100fd565b60405161008c91906104cf565b60405180910390f35b61007f6100a336600461053b565b610193565b61007f6100b6366004610554565b6101c5565b6100c3610229565b60405173ffffffffffffffffffffffffffffffffffffffff909116815260200161008c565b6100fb6100f6366004610576565b61026e565b005b60606040517f08c379a000000000000000000000000000000000000000000000000000000000815260206004820152601160248201527f4e6f7420696e206465627567206d6f646500000000000000000000000000000060448201526064015b60405180910390fd5b606481101561018c5761017982826101c5565b5080610184816105b3565b915050610166565b5050919050565b60606101bf826040516020016101ab91815260200190565b6040516020818303038152906040526100fd565b92915050565b60606040517f08c379a000000000000000000000000000000000000000000000000000000000815260206004820152601160248201527f4e6f7420696e206465627567206d6f6465000000000000000000000000000000604482015260640161015d565b60006102697f8a22373512790c48b83a1fe2efdd2888d4a917bcdc24d0adf63e60f6716804605473ffffffffffffffffffffffffffffffffffffffff1690565b905090565b7f8a22373512790c48b83a1fe2efdd2888d4a917bcdc24d0adf63e60f6716804605473ffffffffffffffffffffffffffffffffffffffff1633146102de576040517f2f7a8ee100000000000000000000000000000000000000000000000000000000815260040160405180910390fd5b6102e7816102ea565b50565b7f8a22373512790c48b83a1fe2efdd2888d4a917bcdc24d0adf63e60f67168046080546040516102e7928492909173ffffffffffffffffffffffffffffffffffffffff8085169216907f8be0079c531659141344cd1fd0a4f28419497f9722a3daafe3b4186f6b6457e090600090a380547fffffffffffffffffffffffff00000000000000000000000000000000000000001673ffffffffffffffffffffffffffffffffffffffff92909216919091179055565b7f4e487b7100000000000000000000000000000000000000000000000000000000600052604160045260246000fd5b604051601f82017fffffffffffffffffffffffffffffffffffffffffffffffffffffffffffffffe016810167ffffffffffffffff811182821017156104145761041461039e565b604052919050565b6000602080838503121561042f57600080fd5b823567ffffffffffffffff8082111561044757600080fd5b818501915085601f83011261045b57600080fd5b81358181111561046d5761046d61039e565b61049d847fffffffffffffffffffffffffffffffffffffffffffffffffffffffffffffffe0601f840116016103cd565b915080825286848285010111156104b357600080fd5b8084840185840137600090820190930192909252509392505050565b600060208083528351808285015260005b818110156104fc578581018301518582016040015282016104e0565b5060006040828601015260407fffffffffffffffffffffffffffffffffffffffffffffffffffffffffffffffe0601f8301168501019250505092915050565b60006020828403121561054d57600080fd5b5035919050565b6000806040838503121561056757600080fd5b50508035926020909101359150565b60006020828403121561058857600080fd5b813573ffffffffffffffffffffffffffffffffffffffff811681146105ac57600080fd5b9392505050565b60007fffffffffffffffffffffffffffffffffffffffffffffffffffffffffffffffff820361060b577f4e487b7100000000000000000000000000000000000000000000000000000000600052601160045260246000fd5b5060010190565b8385101561062b57845182529385019390850190610612565b9897505050505050505056fea2646970667358221220caa052d03e7acf65b472e29f3aa299eb6cdbb1ffd9766af58e88ad889f2203aa64736f6c63430008130033",
    "linkReferences": {}
  },
  "methodIdentifiers": {
    "execute(bytes)": "09c5eabe",
    "executeTyped(uint256)": "3e991df3",
    "owner()": "8da5cb5b",
    "removeRequiredResourcesAndTechnologyConditionsForUpgradingBuildingIdLevel(uint256,uint256)": "596317c8",
    "transferOwnership(address)": "f2fde38b"
  },
  "id": 152
}