{
  "abi": [
    {
      "inputs": [
        {
          "internalType": "contract IWorld",
          "name": "_world",
          "type": "address"
        },
        {
          "internalType": "address",
          "name": "_components",
          "type": "address"
        }
      ],
      "stateMutability": "nonpayable",
      "type": "constructor"
    },
    {
      "inputs": [],
      "name": "Ownable__NotOwner",
      "type": "error"
    },
    {
      "inputs": [],
      "name": "Ownable__NotTransitiveOwner",
      "type": "error"
    },
    {
      "anonymous": false,
      "inputs": [
        {
          "indexed": true,
          "internalType": "address",
          "name": "previousOwner",
          "type": "address"
        },
        {
          "indexed": true,
          "internalType": "address",
          "name": "newOwner",
          "type": "address"
        }
      ],
      "name": "OwnershipTransferred",
      "type": "event"
    },
    {
      "inputs": [
        {
          "internalType": "bytes",
          "name": "args",
          "type": "bytes"
        }
      ],
      "name": "execute",
      "outputs": [
        {
          "internalType": "bytes",
          "name": "",
          "type": "bytes"
        }
      ],
      "stateMutability": "nonpayable",
      "type": "function"
    },
    {
      "inputs": [
        {
          "components": [
            {
              "internalType": "int32",
              "name": "x",
              "type": "int32"
            },
            {
              "internalType": "int32",
              "name": "y",
              "type": "int32"
            }
          ],
          "internalType": "struct Coord",
          "name": "coord",
          "type": "tuple"
        }
      ],
      "name": "executeTyped",
      "outputs": [
        {
          "internalType": "bytes",
          "name": "",
          "type": "bytes"
        }
      ],
      "stateMutability": "nonpayable",
      "type": "function"
    },
    {
      "inputs": [],
      "name": "owner",
      "outputs": [
        {
          "internalType": "address",
          "name": "",
          "type": "address"
        }
      ],
      "stateMutability": "view",
      "type": "function"
    },
    {
      "inputs": [
        {
          "internalType": "address",
          "name": "account",
          "type": "address"
        }
      ],
      "name": "transferOwnership",
      "outputs": [],
      "stateMutability": "nonpayable",
      "type": "function"
    }
  ],
  "bytecode": {
    "object": "0x60806040523480156200001157600080fd5b506040516200296a3803806200296a8339810160408190526200003491620001e0565b8181818162000043336200014d565b6001600160a01b038116156200005a5780620000bf565b816001600160a01b031663ba62fbe46040518163ffffffff1660e01b8152600401602060405180830381865afa15801562000099573d6000803e3d6000fd5b505050506040513d601f19601f82011682018060405250810190620000bf91906200021f565b600080546001600160a01b039283166001600160a01b0319918216811790925560018054938616938216841790557ff67304f10c7772c78e439bc5cb07781db345424de8878c18100fdaa64d197a87805482169093179092557ff67304f10c7772c78e439bc5cb07781db345424de8878c18100fdaa64d197a86805490921617905550505050505062000246565b7f8a22373512790c48b83a1fe2efdd2888d4a917bcdc24d0adf63e60f67168046080546040516001600160a01b038481169216907f8be0079c531659141344cd1fd0a4f28419497f9722a3daafe3b4186f6b6457e090600090a380546001600160a01b0319166001600160a01b0392909216919091179055565b6001600160a01b0381168114620001dd57600080fd5b50565b60008060408385031215620001f457600080fd5b82516200020181620001c7565b60208401519092506200021481620001c7565b809150509250929050565b6000602082840312156200023257600080fd5b81516200023f81620001c7565b9392505050565b61271480620002566000396000f3fe608060405234801561001057600080fd5b506004361061004c5760003560e01c806309c5eabe146100515780638da5cb5b1461007a578063cb6cbba7146100a7578063f2fde38b146100ba575b600080fd5b61006461005f366004612203565b6100cf565b60405161007191906122a7565b60405180910390f35b6100826112aa565b60405173ffffffffffffffffffffffffffffffffffffffff9091168152602001610071565b6100646100b5366004612307565b6112ef565b6100cd6100c836600461236a565b611338565b005b60606000828060200190518101906100e79190612387565b905060006101147f7562ebb298d855e68fb2922ace89e271e36c031fb473ee4be72f900215d523c56113b4565b905060006101417f0d469bcaf5f43a6290ca2906ecdeb5ef80d7723e8cad27045bddb6e1eb9da4356113b4565b9050600061016e7faf90be6cd7aa92d6569a9ae629178b74e1b0fbdd1097c27ec1dfffd2dc4c75406113b4565b9050600061019b7ff0cb43e036bae834910fad0a5f691ed43d8c3edb41f55275901bc5d576f8f4916113b4565b905060006101c87fa9e984bffddba7b0bfcbb60177bfd3796adb20261c2985083484254f9159d2946113b4565b60008054919250906102109073ffffffffffffffffffffffffffffffffffffffff167fbd262b900b9f3e3d6078d7a8e45d1bee5f4fd9547063f524ac4cbf611d37b44e6113d4565b9050600061021d88611520565b90506000336040517f0ff4c9160000000000000000000000000000000000000000000000000000000081526004810184905290915060009073ffffffffffffffffffffffffffffffffffffffff8a1690630ff4c91690602401602060405180830381865afa158015610293573d6000803e3d6000fd5b505050506040513d601f19601f820116820180604052508101906102b791906123bc565b90506102c2836116d8565b6103ec576040517f08c379a00000000000000000000000000000000000000000000000000000000081526020600482015260b260248201527f5b44657374726f7953797374656d5d2063616e206e6f7420646573746f72792060448201527f70617373697665207265736f757263652070726f64756374696f6e206275696c60648201527f64696e6720696620726571756972656d656e747320617265206e6f74206d657460848201527f2c2064657374726f792070617373697665207265736f7572636520636f6e737560a48201527f6d657273206669727374206f7220696e6372656173652070617373697665207260c48201527f65736f757263652070726f64756374696f6e000000000000000000000000000060e4820152610104015b60405180910390fd5b6040517f0ff4c91600000000000000000000000000000000000000000000000000000000815260048101849052829073ffffffffffffffffffffffffffffffffffffffff891690630ff4c91690602401602060405180830381865afa158015610459573d6000803e3d6000fd5b505050506040513d601f19601f8201168201806040525081019061047d91906123bc565b1461050a576040517f08c379a000000000000000000000000000000000000000000000000000000000815260206004820152602b60248201527f5b44657374726f795d203a206f6e6c79206f776e65722063616e20646573747260448201527f6f79206275696c64696e6700000000000000000000000000000000000000000060648201526084016103e3565b6040517f0ff4c9160000000000000000000000000000000000000000000000000000000081526004810184905260009073ffffffffffffffffffffffffffffffffffffffff881690630ff4c91690602401600060405180830381865afa158015610578573d6000803e3d6000fd5b505050506040513d6000823e601f3d9081017fffffffffffffffffffffffffffffffffffffffffffffffffffffffffffffffe01682016040526105be91908101906123d5565b6040517f4cc822150000000000000000000000000000000000000000000000000000000081526004810186905290915073ffffffffffffffffffffffffffffffffffffffff881690634cc8221590602401600060405180830381600087803b15801561062957600080fd5b505af115801561063d573d6000803e3d6000fd5b5050505060005b815181101561068257610670898383815181106106635761066361247b565b6020026020010151611af4565b8061067a816124d9565b915050610644565b506040517f4cc822150000000000000000000000000000000000000000000000000000000081526004810185905273ffffffffffffffffffffffffffffffffffffffff881690634cc8221590602401600060405180830381600087803b1580156106eb57600080fd5b505af11580156106ff573d6000803e3d6000fd5b50506040517fcccf7a8e0000000000000000000000000000000000000000000000000000000081526004810187905273ffffffffffffffffffffffffffffffffffffffff8c16925063cccf7a8e9150602401602060405180830381865afa15801561076e573d6000803e3d6000fd5b505050506040513d601f19601f820116820180604052508101906107929190612511565b1561098f57600154604080517f0d59332e00000000000000000000000000000000000000000000000000000000815290516108529273ffffffffffffffffffffffffffffffffffffffff1691630d59332e9160048083019260209291908290030181865afa158015610808573d6000803e3d6000fd5b505050506040513d601f19601f8201168201806040525081019061082c9190612533565b7ff6dc4067cf5c610574708281fd648f50f087cc45920255b2437fb0ff72e6a38f6113d4565b6040517f6ad0ccab0000000000000000000000000000000000000000000000000000000081523360048201526024810186905273ffffffffffffffffffffffffffffffffffffffff9190911690636ad0ccab906044016000604051808303816000875af11580156108c7573d6000803e3d6000fd5b505050506040513d6000823e601f3d9081017fffffffffffffffffffffffffffffffffffffffffffffffffffffffffffffffe016820160405261090d9190810190612550565b506040517f4cc822150000000000000000000000000000000000000000000000000000000081526004810185905273ffffffffffffffffffffffffffffffffffffffff8a1690634cc8221590602401600060405180830381600087803b15801561097657600080fd5b505af115801561098a573d6000803e3d6000fd5b505050505b6040517ffbdfa1ea0000000000000000000000000000000000000000000000000000000081526004810185905260009073ffffffffffffffffffffffffffffffffffffffff8b169063fbdfa1ea90602401600060405180830381865afa1580156109fd573d6000803e3d6000fd5b505050506040513d6000823e601f3d9081017fffffffffffffffffffffffffffffffffffffffffffffffffffffffffffffffe0168201604052610a4391908101906123d5565b805190915015610c3f5760005b8151811015610c3d57600154604080517f0d59332e0000000000000000000000000000000000000000000000000000000081529051610aca9273ffffffffffffffffffffffffffffffffffffffff1691630d59332e9160048083019260209291908290030181865afa158015610808573d6000803e3d6000fd5b73ffffffffffffffffffffffffffffffffffffffff16636ad0ccab33848481518110610af857610af861247b565b60200260200101516040518363ffffffff1660e01b8152600401610b3e92919073ffffffffffffffffffffffffffffffffffffffff929092168252602082015260400190565b6000604051808303816000875af1158015610b5d573d6000803e3d6000fd5b505050506040513d6000823e601f3d9081017fffffffffffffffffffffffffffffffffffffffffffffffffffffffffffffffe0168201604052610ba39190810190612550565b508a73ffffffffffffffffffffffffffffffffffffffff16634cc82215838381518110610bd257610bd261247b565b60200260200101516040518263ffffffff1660e01b8152600401610bf891815260200190565b600060405180830381600087803b158015610c1257600080fd5b505af1158015610c26573d6000803e3d6000fd5b505050508080610c35906124d9565b915050610a50565b505b7f2e6aeb9730616b6b2a8fcc7abab3fc9310bd984b40af25951e4bdc63a056b92d8301610d16576000610c917f84dcd47dfd0ba519a03bd44d032054d6f29f79700587b112a577b94d6440fa666113b4565b6040517f4cc822150000000000000000000000000000000000000000000000000000000081526004810187905290915073ffffffffffffffffffffffffffffffffffffffff821690634cc8221590602401600060405180830381600087803b158015610cfc57600080fd5b505af1158015610d10573d6000803e3d6000fd5b50505050505b610d3f7f5ceb6515ed98d13c424cf71200ed3a18f9d8499e8d3e67d9ef7924b68de3e8cf6113b4565b73ffffffffffffffffffffffffffffffffffffffff1663cccf7a8e846040518263ffffffff1660e01b8152600401610d7991815260200190565b602060405180830381865afa158015610d96573d6000803e3d6000fd5b505050506040513d601f19601f82011682018060405250810190610dba9190612511565b610e66578673ffffffffffffffffffffffffffffffffffffffff1663d923c3c4856001610de78b89611c93565b610df191906125c7565b6040517fffffffff0000000000000000000000000000000000000000000000000000000060e085901b168152600481019290925263ffffffff166024820152604401600060405180830381600087803b158015610e4d57600080fd5b505af1158015610e61573d6000803e3d6000fd5b505050505b600154604080517f0d59332e0000000000000000000000000000000000000000000000000000000081529051610f219273ffffffffffffffffffffffffffffffffffffffff1691630d59332e9160048083019260209291908290030181865afa158015610ed7573d6000803e3d6000fd5b505050506040513d601f19601f82011682018060405250810190610efb9190612533565b7f7f64917d89754770f346f1fbb22571451283ce7e7176dd95c0d9dd16715d98286113d4565b6040517f6ad0ccab0000000000000000000000000000000000000000000000000000000081523360048201526024810187905273ffffffffffffffffffffffffffffffffffffffff9190911690636ad0ccab906044016000604051808303816000875af1158015610f96573d6000803e3d6000fd5b505050506040513d6000823e601f3d9081017fffffffffffffffffffffffffffffffffffffffffffffffffffffffffffffffe0168201604052610fdc9190810190612550565b506040517f4cc822150000000000000000000000000000000000000000000000000000000081526004810186905273ffffffffffffffffffffffffffffffffffffffff871690634cc8221590602401600060405180830381600087803b15801561104557600080fd5b505af1158015611059573d6000803e3d6000fd5b50506040517f4cc822150000000000000000000000000000000000000000000000000000000081526004810188905273ffffffffffffffffffffffffffffffffffffffff8e169250634cc822159150602401600060405180830381600087803b1580156110c557600080fd5b505af11580156110d9573d6000803e3d6000fd5b50506040517f4cc822150000000000000000000000000000000000000000000000000000000081526004810188905273ffffffffffffffffffffffffffffffffffffffff8c169250634cc822159150602401600060405180830381600087803b15801561114557600080fd5b505af1158015611159573d6000803e3d6000fd5b505050506111897fe95fc307e3922a4ed7e1a9d135b2e79aad91e806428d8c7ec9a376dfc8aede5e60001c6113b4565b73ffffffffffffffffffffffffffffffffffffffff16634cc82215866040518263ffffffff1660e01b81526004016111c391815260200190565b600060405180830381600087803b1580156111dd57600080fd5b505af11580156111f1573d6000803e3d6000fd5b50506040517f4cc822150000000000000000000000000000000000000000000000000000000081526004810188905273ffffffffffffffffffffffffffffffffffffffff8b169250634cc822159150602401600060405180830381600087803b15801561125d57600080fd5b505af1158015611271573d6000803e3d6000fd5b505050508460405160200161128891815260200190565b6040516020818303038152906040529c50505050505050505050505050919050565b60006112ea7f8a22373512790c48b83a1fe2efdd2888d4a917bcdc24d0adf63e60f6716804605473ffffffffffffffffffffffffffffffffffffffff1690565b905090565b60606113328260405160200161131e91908151600390810b8252602092830151900b9181019190915260400190565b6040516020818303038152906040526100cf565b92915050565b7f8a22373512790c48b83a1fe2efdd2888d4a917bcdc24d0adf63e60f6716804605473ffffffffffffffffffffffffffffffffffffffff1633146113a8576040517f2f7a8ee100000000000000000000000000000000000000000000000000000000815260040160405180910390fd5b6113b181611dc6565b50565b600080546113329073ffffffffffffffffffffffffffffffffffffffff16835b6040517ffbdfa1ea00000000000000000000000000000000000000000000000000000000815260048101829052600090819073ffffffffffffffffffffffffffffffffffffffff85169063fbdfa1ea90602401600060405180830381865afa158015611444573d6000803e3d6000fd5b505050506040513d6000823e601f3d9081017fffffffffffffffffffffffffffffffffffffffffffffffffffffffffffffffe016820160405261148a91908101906123d5565b905080516000036114f7576040517f08c379a000000000000000000000000000000000000000000000000000000000815260206004820152601160248201527f6964206e6f74207265676973746572656400000000000000000000000000000060448201526064016103e3565b6115188160008151811061150d5761150d61247b565b602002602001015190565b949350505050565b6000805481906115669073ffffffffffffffffffffffffffffffffffffffff167faf90be6cd7aa92d6569a9ae629178b74e1b0fbdd1097c27ec1dfffd2dc4c75406113d4565b905060006115a9846040518060400160405280600d81526020017f6275696c64696e672e74696c6500000000000000000000000000000000000000815250611dcf565b6040517fcccf7a8e0000000000000000000000000000000000000000000000000000000081526004810182905290915073ffffffffffffffffffffffffffffffffffffffff83169063cccf7a8e90602401602060405180830381865afa158015611617573d6000803e3d6000fd5b505050506040513d601f19601f8201168201806040525081019061163b9190612511565b611649575060009392505050565b6040517f0ff4c9160000000000000000000000000000000000000000000000000000000081526004810182905273ffffffffffffffffffffffffffffffffffffffff831690630ff4c91690602401602060405180830381865afa1580156116b4573d6000803e3d6000fd5b505050506040513d601f19601f8201168201806040525081019061151891906123bc565b60008054819061171e9073ffffffffffffffffffffffffffffffffffffffff167f2f51bb3db6fee58a002d21e1cd28ae3babf34dd1f46f8ed1e48748a2f7e58db66113d4565b60008054919250906117669073ffffffffffffffffffffffffffffffffffffffff167f7562ebb298d855e68fb2922ace89e271e36c031fb473ee4be72f900215d523c56113d4565b60008054919250906117ae9073ffffffffffffffffffffffffffffffffffffffff167fbd262b900b9f3e3d6078d7a8e45d1bee5f4fd9547063f524ac4cbf611d37b44e6113d4565b905060006118f28373ffffffffffffffffffffffffffffffffffffffff16630ff4c916886040518263ffffffff1660e01b81526004016117f091815260200190565b602060405180830381865afa15801561180d573d6000803e3d6000fd5b505050506040513d601f19601f8201168201806040525081019061183191906123bc565b6040517f0ff4c9160000000000000000000000000000000000000000000000000000000081526004810189905273ffffffffffffffffffffffffffffffffffffffff851690630ff4c91690602401602060405180830381865afa15801561189c573d6000803e3d6000fd5b505050506040513d601f19601f820116820180604052508101906118c09190612604565b63ffffffff16604080516020808201949094528082019290925280518083038201815260609092019052805191012090565b6040517fcccf7a8e0000000000000000000000000000000000000000000000000000000081526004810182905290915073ffffffffffffffffffffffffffffffffffffffff85169063cccf7a8e90602401602060405180830381865afa158015611960573d6000803e3d6000fd5b505050506040513d601f19601f820116820180604052508101906119849190612511565b15611ae8576040517f0ff4c9160000000000000000000000000000000000000000000000000000000081526004810182905273ffffffffffffffffffffffffffffffffffffffff851690630ff4c916906024016040805180830381865afa1580156119f3573d6000803e3d6000fd5b505050506040513d601f19601f82011682018060405250810190611a17919061261f565b6020015160015463ffffffff90911690611ad69073ffffffffffffffffffffffffffffffffffffffff16336040517f0ff4c9160000000000000000000000000000000000000000000000000000000081526004810186905273ffffffffffffffffffffffffffffffffffffffff891690630ff4c916906024016040805180830381865afa158015611aac573d6000803e3d6000fd5b505050506040513d601f19601f82011682018060405250810190611ad0919061261f565b51611e61565b63ffffffff1610159695505050505050565b50600195945050505050565b6040517fcccf7a8e0000000000000000000000000000000000000000000000000000000081526004810182905273ffffffffffffffffffffffffffffffffffffffff83169063cccf7a8e90602401602060405180830381865afa158015611b5f573d6000803e3d6000fd5b505050506040513d601f19601f82011682018060405250810190611b839190612511565b611c0f576040517f08c379a000000000000000000000000000000000000000000000000000000000815260206004820152603160248201527f5b44657374726f7953797374656d5d2043616e6e6f742064657374726f79207560448201527f6e6f776e656420636f6f7264696e61746500000000000000000000000000000060648201526084016103e3565b6040517f4cc822150000000000000000000000000000000000000000000000000000000081526004810182905273ffffffffffffffffffffffffffffffffffffffff831690634cc8221590602401600060405180830381600087803b158015611c7757600080fd5b505af1158015611c8b573d6000803e3d6000fd5b505050505050565b6040517fcccf7a8e0000000000000000000000000000000000000000000000000000000081526004810182905260009073ffffffffffffffffffffffffffffffffffffffff84169063cccf7a8e90602401602060405180830381865afa158015611d01573d6000803e3d6000fd5b505050506040513d601f19601f82011682018060405250810190611d259190612511565b611d30576000611dbf565b6040517f0ff4c9160000000000000000000000000000000000000000000000000000000081526004810183905273ffffffffffffffffffffffffffffffffffffffff841690630ff4c91690602401602060405180830381865afa158015611d9b573d6000803e3d6000fd5b505050506040513d601f19601f82011682018060405250810190611dbf9190612604565b9392505050565b6113b181611f88565b6000826000015160e01b836020015160e01b83611deb90612649565b604080517fffffffff0000000000000000000000000000000000000000000000000000000094851660208201529390921660248401527fffffffffffffffffffffffffffffffffffffffffffffffff000000000000000016602883015201604051602081830303815290604052611dbf90612699565b600080611e6f858585612034565b6040517f4f27da180000000000000000000000000000000000000000000000000000000081527ffba48a04766694c16713a414735f83be9cb20bbb29b5e18846cc8f15106408456004820152909150600090611f549073ffffffffffffffffffffffffffffffffffffffff881690634f27da1890602401602060405180830381865afa158015611f03573d6000803e3d6000fd5b505050506040513d601f19601f82011682018060405250810190611f279190612533565b6040805160208082018990528183018a905282518083038401815260609092019092528051910120611c93565b90508063ffffffff168263ffffffff1611611f7457600092505050611dbf565b611f7e81836125c7565b9695505050505050565b7f8a22373512790c48b83a1fe2efdd2888d4a917bcdc24d0adf63e60f671680460805460405173ffffffffffffffffffffffffffffffffffffffff8481169216907f8be0079c531659141344cd1fd0a4f28419497f9722a3daafe3b4186f6b6457e090600090a380547fffffffffffffffffffffffff00000000000000000000000000000000000000001673ffffffffffffffffffffffffffffffffffffffff92909216919091179055565b6040517f4f27da180000000000000000000000000000000000000000000000000000000081527f211ec405e276c4670499c53a5acad168c5576b06d549dd3a610b8d516174e2d960048201526000906115189073ffffffffffffffffffffffffffffffffffffffff861690634f27da1890602401602060405180830381865afa1580156120c5573d6000803e3d6000fd5b505050506040513d601f19601f820116820180604052508101906120e99190612533565b60408051602080820187905281830188905282518083038401815260609092019092528051910120611c93565b7f4e487b7100000000000000000000000000000000000000000000000000000000600052604160045260246000fd5b6040805190810167ffffffffffffffff8111828210171561216857612168612116565b60405290565b604051601f82017fffffffffffffffffffffffffffffffffffffffffffffffffffffffffffffffe016810167ffffffffffffffff811182821017156121b5576121b5612116565b604052919050565b600067ffffffffffffffff8211156121d7576121d7612116565b50601f017fffffffffffffffffffffffffffffffffffffffffffffffffffffffffffffffe01660200190565b60006020828403121561221557600080fd5b813567ffffffffffffffff81111561222c57600080fd5b8201601f8101841361223d57600080fd5b803561225061224b826121bd565b61216e565b81815285602083850101111561226557600080fd5b81602084016020830137600091810160200191909152949350505050565b60005b8381101561229e578181015183820152602001612286565b50506000910152565b60208152600082518060208401526122c6816040850160208701612283565b601f017fffffffffffffffffffffffffffffffffffffffffffffffffffffffffffffffe0169190910160400192915050565b8060030b81146113b157600080fd5b60006040828403121561231957600080fd5b612321612145565b823561232c816122f8565b8152602083013561233c816122f8565b60208201529392505050565b73ffffffffffffffffffffffffffffffffffffffff811681146113b157600080fd5b60006020828403121561237c57600080fd5b8135611dbf81612348565b60006040828403121561239957600080fd5b6123a1612145565b82516123ac816122f8565b8152602083015161233c816122f8565b6000602082840312156123ce57600080fd5b5051919050565b600060208083850312156123e857600080fd5b825167ffffffffffffffff8082111561240057600080fd5b818501915085601f83011261241457600080fd5b81518181111561242657612426612116565b8060051b915061243784830161216e565b818152918301840191848101908884111561245157600080fd5b938501935b8385101561246f57845182529385019390850190612456565b98975050505050505050565b7f4e487b7100000000000000000000000000000000000000000000000000000000600052603260045260246000fd5b7f4e487b7100000000000000000000000000000000000000000000000000000000600052601160045260246000fd5b60007fffffffffffffffffffffffffffffffffffffffffffffffffffffffffffffffff820361250a5761250a6124aa565b5060010190565b60006020828403121561252357600080fd5b81518015158114611dbf57600080fd5b60006020828403121561254557600080fd5b8151611dbf81612348565b60006020828403121561256257600080fd5b815167ffffffffffffffff81111561257957600080fd5b8201601f8101841361258a57600080fd5b805161259861224b826121bd565b8181528560208385010111156125ad57600080fd5b6125be826020830160208601612283565b95945050505050565b63ffffffff8281168282160390808211156125e4576125e46124aa565b5092915050565b805163ffffffff811681146125ff57600080fd5b919050565b60006020828403121561261657600080fd5b611dbf826125eb565b60006040828403121561263157600080fd5b612639612145565b8251815261233c602084016125eb565b6000815160208301517fffffffffffffffffffffffffffffffffffffffffffffffff0000000000000000808216935060188310156126915780818460180360031b1b83161693505b505050919050565b805160208083015191908110156126d8577fffffffffffffffffffffffffffffffffffffffffffffffffffffffffffffffff8160200360031b1b821691505b5091905056fea2646970667358221220ecf421b7e1dd8092ee3b5e234c5960af1340e6a64e3deda2e10de00896eda10c64736f6c63430008130033",
    "linkReferences": {}
  },
  "methodIdentifiers": {
    "execute(bytes)": "09c5eabe",
    "executeTyped((int32,int32))": "cb6cbba7",
    "owner()": "8da5cb5b",
    "transferOwnership(address)": "f2fde38b"
  },
  "id": 153
}