{
  "abi": [
    {
      "inputs": [
        {
          "internalType": "address",
          "name": "world",
          "type": "address"
        }
      ],
      "stateMutability": "nonpayable",
      "type": "constructor"
    },
    {
      "inputs": [],
      "name": "BareComponent__NotImplemented",
      "type": "error"
    },
    {
      "inputs": [],
      "name": "OwnableWritable__NotWriter",
      "type": "error"
    },
    {
      "inputs": [],
      "name": "Ownable__NotOwner",
      "type": "error"
    },
    {
      "inputs": [],
      "name": "Ownable__NotTransitiveOwner",
      "type": "error"
    },
    {
      "anonymous": false,
      "inputs": [
        {
          "indexed": true,
          "internalType": "address",
          "name": "previousOwner",
          "type": "address"
        },
        {
          "indexed": true,
          "internalType": "address",
          "name": "newOwner",
          "type": "address"
        }
      ],
      "name": "OwnershipTransferred",
      "type": "event"
    },
    {
      "inputs": [
        {
          "internalType": "address",
          "name": "writer",
          "type": "address"
        }
      ],
      "name": "authorizeWriter",
      "outputs": [],
      "stateMutability": "nonpayable",
      "type": "function"
    },
    {
      "inputs": [],
      "name": "getEntities",
      "outputs": [
        {
          "internalType": "uint256[]",
          "name": "",
          "type": "uint256[]"
        }
      ],
      "stateMutability": "view",
      "type": "function"
    },
    {
      "inputs": [
        {
          "internalType": "bool",
          "name": "value",
          "type": "bool"
        }
      ],
      "name": "getEntitiesWithValue",
      "outputs": [
        {
          "internalType": "uint256[]",
          "name": "",
          "type": "uint256[]"
        }
      ],
      "stateMutability": "view",
      "type": "function"
    },
    {
      "inputs": [
        {
          "internalType": "bytes",
          "name": "value",
          "type": "bytes"
        }
      ],
      "name": "getEntitiesWithValue",
      "outputs": [
        {
          "internalType": "uint256[]",
          "name": "",
          "type": "uint256[]"
        }
      ],
      "stateMutability": "view",
      "type": "function"
    },
    {
      "inputs": [
        {
          "internalType": "uint256",
          "name": "entity",
          "type": "uint256"
        }
      ],
      "name": "getRawValue",
      "outputs": [
        {
          "internalType": "bytes",
          "name": "",
          "type": "bytes"
        }
      ],
      "stateMutability": "view",
      "type": "function"
    },
    {
      "inputs": [],
      "name": "getSchema",
      "outputs": [
        {
          "internalType": "string[]",
          "name": "keys",
          "type": "string[]"
        },
        {
          "internalType": "enum LibTypes.SchemaValue[]",
          "name": "values",
          "type": "uint8[]"
        }
      ],
      "stateMutability": "pure",
      "type": "function"
    },
    {
      "inputs": [
        {
          "internalType": "uint256",
          "name": "entity",
          "type": "uint256"
        }
      ],
      "name": "getValue",
      "outputs": [
        {
          "internalType": "bool",
          "name": "",
          "type": "bool"
        }
      ],
      "stateMutability": "view",
      "type": "function"
    },
    {
      "inputs": [
        {
          "internalType": "uint256",
          "name": "entity",
          "type": "uint256"
        }
      ],
      "name": "has",
      "outputs": [
        {
          "internalType": "bool",
          "name": "",
          "type": "bool"
        }
      ],
      "stateMutability": "view",
      "type": "function"
    },
    {
      "inputs": [],
      "name": "id",
      "outputs": [
        {
          "internalType": "uint256",
          "name": "",
          "type": "uint256"
        }
      ],
      "stateMutability": "view",
      "type": "function"
    },
    {
      "inputs": [],
      "name": "owner",
      "outputs": [
        {
          "internalType": "address",
          "name": "",
          "type": "address"
        }
      ],
      "stateMutability": "view",
      "type": "function"
    },
    {
      "inputs": [
        {
          "internalType": "address",
          "name": "indexer",
          "type": "address"
        }
      ],
      "name": "registerIndexer",
      "outputs": [],
      "stateMutability": "nonpayable",
      "type": "function"
    },
    {
      "inputs": [
        {
          "internalType": "address",
          "name": "_world",
          "type": "address"
        }
      ],
      "name": "registerWorld",
      "outputs": [],
      "stateMutability": "nonpayable",
      "type": "function"
    },
    {
      "inputs": [
        {
          "internalType": "uint256",
          "name": "entity",
          "type": "uint256"
        }
      ],
      "name": "remove",
      "outputs": [],
      "stateMutability": "nonpayable",
      "type": "function"
    },
    {
      "inputs": [
        {
          "internalType": "uint256",
          "name": "entity",
          "type": "uint256"
        }
      ],
      "name": "set",
      "outputs": [],
      "stateMutability": "nonpayable",
      "type": "function"
    },
    {
      "inputs": [
        {
          "internalType": "uint256",
          "name": "entity",
          "type": "uint256"
        },
        {
          "internalType": "bytes",
          "name": "value",
          "type": "bytes"
        }
      ],
      "name": "set",
      "outputs": [],
      "stateMutability": "nonpayable",
      "type": "function"
    },
    {
      "inputs": [
        {
          "internalType": "address",
          "name": "account",
          "type": "address"
        }
      ],
      "name": "transferOwnership",
      "outputs": [],
      "stateMutability": "nonpayable",
      "type": "function"
    },
    {
      "inputs": [
        {
          "internalType": "address",
          "name": "writer",
          "type": "address"
        }
      ],
      "name": "unauthorizeWriter",
      "outputs": [],
      "stateMutability": "nonpayable",
      "type": "function"
    },
    {
      "inputs": [],
      "name": "world",
      "outputs": [
        {
          "internalType": "address",
          "name": "",
          "type": "address"
        }
      ],
      "stateMutability": "view",
      "type": "function"
    },
    {
      "inputs": [
        {
          "internalType": "address",
          "name": "operator",
          "type": "address"
        }
      ],
      "name": "writeAccess",
      "outputs": [
        {
          "internalType": "bool",
          "name": "",
          "type": "bool"
        }
      ],
      "stateMutability": "view",
      "type": "function"
    }
  ],
  "bytecode": {
    "object": "0x60806040523480156200001157600080fd5b506040516200261438038062002614833981016040819052620000349162000266565b807fcac70f64f2c43ee6b17f4ff03bae772a913c7198090af99d8b3ebb1c25a8641e8181818162000065336200012b565b60028190556001600160a01b038216156200008557620000858262000194565b505060405162000095906200024a565b604051809103906000f080158015620000b2573d6000803e3d6000fd5b50600380546001600160a01b0319166001600160a01b0392909216919091179055604051620000e19062000258565b604051809103906000f080158015620000fe573d6000803e3d6000fd5b50600480546001600160a01b0319166001600160a01b039290921691909117905550620002989350505050565b600080516020620025f483398151915280546040516001600160a01b038481169216907f8be0079c531659141344cd1fd0a4f28419497f9722a3daafe3b4186f6b6457e090600090a380546001600160a01b0319166001600160a01b0392909216919091179055565b600080516020620025f4833981519152546001600160a01b03163314620001ce57604051632f7a8ee160e01b815260040160405180910390fd5b600080546001600160a01b0319166001600160a01b038316908117909155600254604051630f30347760e41b8152306004820152602481019190915263f303477090604401600060405180830381600087803b1580156200022e57600080fd5b505af115801562000243573d6000803e3d6000fd5b5050505050565b6106c9806200182083390190565b61070b8062001ee983390190565b6000602082840312156200027957600080fd5b81516001600160a01b03811681146200029157600080fd5b9392505050565b61157880620002a86000396000f3fe608060405234801561001057600080fd5b50600436106101205760003560e01c8063861eb905116100ad578063b361be4611610071578063b361be4614610260578063b8bc073d14610273578063bf4fe57e14610293578063cccf7a8e146102a6578063f2fde38b146102b957600080fd5b8063861eb905146102085780638b2829471461021b5780638da5cb5b1461022e5780639d2c76b414610236578063af640d0f1461024957600080fd5b80634cc82215116100f45780634cc82215146101a45780634fef6a38146101b957806360fe47b1146101cc5780636b122fe0146101df57806375c0669c146101f557600080fd5b80621326ab146101255780630ff4c9161461014e57806330b67baa1461017157806331b933b91461019c575b600080fd5b610138610133366004610f54565b6102cc565b6040516101459190610f71565b60405180910390f35b61016161015c366004610fb5565b610300565b6040519015158152602001610145565b600054610184906001600160a01b031681565b6040516001600160a01b039091168152602001610145565b610138610326565b6101b76101b2366004610fb5565b61039d565b005b6101b76101c7366004610fce565b6103cf565b6101b76101da366004610fb5565b61044b565b6101e7610471565b604051610145929190611053565b6101b7610203366004610fce565b610545565b610161610216366004610fce565b6105bd565b6101b76102293660046111c3565b610620565b610184610654565b6101b7610244366004610fce565b61065e565b61025260025481565b604051908152602001610145565b61013861026e36600461120a565b610712565b610286610281366004610fb5565b61078b565b6040516101459190611247565b6101b76102a1366004610fce565b61082d565b6101616102b4366004610fb5565b6108a6565b6101b76102c7366004610fce565b610914565b60606102fa826040516020016102e6911515815260200190565b604051602081830303815290604052610712565b92915050565b60008061030c8361078b565b80602001905181019061031f919061125a565b9392505050565b60035460408051631043567360e21b815290516060926001600160a01b03169163410d59cc9160048083019260009291908290030181865afa158015610370573d6000803e3d6000fd5b505050506040513d6000823e601f3d908101601f191682016040526103989190810190611277565b905090565b6103a6336105bd565b6103c35760405163203769ed60e11b815260040160405180910390fd5b6103cc81610956565b50565b6103d7610b7f565b6001600160a01b0316336001600160a01b03161461040857604051632f7a8ee160e01b815260040160405180910390fd5b6001600160a01b031660009081527f8ffeadc5cba727b8cc3cdef48739619490ea317fdb3baae1259089d06f92c90960205260409020805460ff19166001179055565b60408051600160208201526103cc91839101604051602081830303815290604052610620565b604080516001808252818301909252606091829190816020015b606081526020019060019003908161048b575050604080516001808252818301909252919350602080830190803683370190505090506040518060400160405280600581526020016476616c756560d81b815250826000815181106104f2576104f261131d565b60200260200101819052506000816000815181106105125761051261131d565b6020026020010190602181111561052b5761052b61103d565b9081602181111561053e5761053e61103d565b9052509091565b61054e336105bd565b61056b5760405163203769ed60e11b815260040160405180910390fd5b600580546001810182556000919091527f036b6384b5eca791c62761152d0c79bb0604c104a5fb6f4eb0703f3154bb3db00180546001600160a01b0319166001600160a01b0392909216919091179055565b6001600160a01b03811660009081527f8ffeadc5cba727b8cc3cdef48739619490ea317fdb3baae1259089d06f92c909602052604081205460ff16806102fa5750610606610654565b6001600160a01b0316826001600160a01b03161492915050565b610629336105bd565b6106465760405163203769ed60e11b815260040160405180910390fd5b6106508282610bad565b5050565b6000610398610b7f565b610666610b7f565b6001600160a01b0316336001600160a01b03161461069757604051632f7a8ee160e01b815260040160405180910390fd5b600080546001600160a01b0319166001600160a01b038316908117909155600254604051630f30347760e41b8152306004820152602481019190915263f3034770906044015b600060405180830381600087803b1580156106f757600080fd5b505af115801561070b573d6000803e3d6000fd5b5050505050565b6004805482516020840120604051631e5b17a560e21b8152928301526060916001600160a01b039091169063796c5e9490602401600060405180830381865afa158015610763573d6000803e3d6000fd5b505050506040513d6000823e601f3d908101601f191682016040526102fa9190810190611277565b60008181526001602052604090208054606091906107a890611333565b80601f01602080910402602001604051908101604052809291908181526020018280546107d490611333565b80156108215780601f106107f657610100808354040283529160200191610821565b820191906000526020600020905b81548152906001019060200180831161080457829003601f168201915b50505050509050919050565b610835610b7f565b6001600160a01b0316336001600160a01b03161461086657604051632f7a8ee160e01b815260040160405180910390fd5b6001600160a01b031660009081527f8ffeadc5cba727b8cc3cdef48739619490ea317fdb3baae1259089d06f92c90960205260409020805460ff19169055565b600354604051636667bd4760e11b8152600481018390526000916001600160a01b03169063cccf7a8e90602401602060405180830381865afa1580156108f0573d6000803e3d6000fd5b505050506040513d601f19601f820116820180604052508101906102fa919061125a565b61091c610b7f565b6001600160a01b0316336001600160a01b03161461094d57604051632f7a8ee160e01b815260040160405180910390fd5b6103cc81610dac565b6004546000828152600160205260409081902090516001600160a01b03909216916385edea13916109869161136d565b60405190819003812060e083901b6001600160e01b03191682526004820152602401602060405180830381865afa1580156109c5573d6000803e3d6000fd5b505050506040513d601f19601f820116820180604052508101906109e991906113e3565b6000036109f35750565b6004546000828152600160205260409081902090516001600160a01b0390921691636526db7a91610a239161136d565b60405190819003812060e083901b6001600160e01b0319168252600482015260248101849052604401600060405180830381600087803b158015610a6657600080fd5b505af1158015610a7a573d6000803e3d6000fd5b5050600354604051634cc8221560e01b8152600481018590526001600160a01b039091169250634cc822159150602401600060405180830381600087803b158015610ac457600080fd5b505af1158015610ad8573d6000803e3d6000fd5b50505050610ae581610db5565b60005b6005548110156106505760058181548110610b0557610b0561131d565b600091825260209091200154604051634cc8221560e01b8152600481018490526001600160a01b0390911690634cc8221590602401600060405180830381600087803b158015610b5457600080fd5b505af1158015610b68573d6000803e3d6000fd5b505050508080610b77906113fc565b915050610ae8565b7f8a22373512790c48b83a1fe2efdd2888d4a917bcdc24d0adf63e60f671680460546001600160a01b031690565b600354604051630801f16960e11b8152600481018490526001600160a01b0390911690631003e2d290602401600060405180830381600087803b158015610bf357600080fd5b505af1158015610c07573d6000803e3d6000fd5b50506004546000858152600160205260409081902090516001600160a01b039092169350636526db7a9250610c3b9161136d565b60405190819003812060e083901b6001600160e01b0319168252600482015260248101859052604401600060405180830381600087803b158015610c7e57600080fd5b505af1158015610c92573d6000803e3d6000fd5b5050600480548451602086012060405163771602f760e01b815292830152602482018690526001600160a01b0316925063771602f79150604401600060405180830381600087803b158015610ce657600080fd5b505af1158015610cfa573d6000803e3d6000fd5b50505050610d088282610dfd565b60005b600554811015610da75760058181548110610d2857610d2861131d565b6000918252602090912001546040516242d70760e31b81526001600160a01b0390911690630216b83890610d629086908690600401611423565b600060405180830381600087803b158015610d7c57600080fd5b505af1158015610d90573d6000803e3d6000fd5b505050508080610d9f906113fc565b915050610d0b565b505050565b6103cc81610e7e565b6000818152600160205260408120610dcc91610ef8565b600054604051630de3b7b560e01b8152600481018390526001600160a01b0390911690630de3b7b5906024016106dd565b6000828152600160205260409020610e158282611482565b5060005460405163cfd3c57f60e01b81526001600160a01b039091169063cfd3c57f90610e489085908590600401611423565b600060405180830381600087803b158015610e6257600080fd5b505af1158015610e76573d6000803e3d6000fd5b505050505050565b7f8a22373512790c48b83a1fe2efdd2888d4a917bcdc24d0adf63e60f67168046080546040516001600160a01b038481169216907f8be0079c531659141344cd1fd0a4f28419497f9722a3daafe3b4186f6b6457e090600090a380546001600160a01b0319166001600160a01b0392909216919091179055565b508054610f0490611333565b6000825580601f10610f14575050565b601f0160209004906000526020600020908101906103cc91905b80821115610f425760008155600101610f2e565b5090565b80151581146103cc57600080fd5b600060208284031215610f6657600080fd5b813561031f81610f46565b6020808252825182820181905260009190848201906040850190845b81811015610fa957835183529284019291840191600101610f8d565b50909695505050505050565b600060208284031215610fc757600080fd5b5035919050565b600060208284031215610fe057600080fd5b81356001600160a01b038116811461031f57600080fd5b6000815180845260005b8181101561101d57602081850181015186830182015201611001565b506000602082860101526020601f19601f83011685010191505092915050565b634e487b7160e01b600052602160045260246000fd5b6000604082016040835280855180835260608501915060608160051b8601019250602080880160005b838110156110aa57605f19888703018552611098868351610ff7565b9550938201939082019060010161107c565b50508584038187015286518085528782019482019350915060005b828110156110ff578451602281106110ed57634e487b7160e01b600052602160045260246000fd5b845293810193928101926001016110c5565b5091979650505050505050565b634e487b7160e01b600052604160045260246000fd5b604051601f8201601f1916810167ffffffffffffffff8111828210171561114b5761114b61110c565b604052919050565b600082601f83011261116457600080fd5b813567ffffffffffffffff81111561117e5761117e61110c565b611191601f8201601f1916602001611122565b8181528460208386010111156111a657600080fd5b816020850160208301376000918101602001919091529392505050565b600080604083850312156111d657600080fd5b82359150602083013567ffffffffffffffff8111156111f457600080fd5b61120085828601611153565b9150509250929050565b60006020828403121561121c57600080fd5b813567ffffffffffffffff81111561123357600080fd5b61123f84828501611153565b949350505050565b60208152600061031f6020830184610ff7565b60006020828403121561126c57600080fd5b815161031f81610f46565b6000602080838503121561128a57600080fd5b825167ffffffffffffffff808211156112a257600080fd5b818501915085601f8301126112b657600080fd5b8151818111156112c8576112c861110c565b8060051b91506112d9848301611122565b81815291830184019184810190888411156112f357600080fd5b938501935b83851015611311578451825293850193908501906112f8565b98975050505050505050565b634e487b7160e01b600052603260045260246000fd5b600181811c9082168061134757607f821691505b60208210810361136757634e487b7160e01b600052602260045260246000fd5b50919050565b600080835461137b81611333565b6001828116801561139357600181146113a8576113d7565b60ff19841687528215158302870194506113d7565b8760005260208060002060005b858110156113ce5781548a8201529084019082016113b5565b50505082870194505b50929695505050505050565b6000602082840312156113f557600080fd5b5051919050565b60006001820161141c57634e487b7160e01b600052601160045260246000fd5b5060010190565b82815260406020820152600061123f6040830184610ff7565b601f821115610da757600081815260208120601f850160051c810160208610156114635750805b601f850160051c820191505b81811015610e765782815560010161146f565b815167ffffffffffffffff81111561149c5761149c61110c565b6114b0816114aa8454611333565b8461143c565b602080601f8311600181146114e557600084156114cd5750858301515b600019600386901b1c1916600185901b178555610e76565b600085815260208120601f198616915b82811015611514578886015182559484019460019091019084016114f5565b50858210156115325787850151600019600388901b60f8161c191681555b5050505050600190811b0190555056fea2646970667358221220ef2b4b5ae22ca3b07292b5088f9dcad94dbf8f4fd995dbb6aa43211c32ea276664736f6c63430008130033608060405234801561001057600080fd5b5061001a3361001f565b610099565b7f8a22373512790c48b83a1fe2efdd2888d4a917bcdc24d0adf63e60f67168046080546040516001600160a01b038481169216907f8be0079c531659141344cd1fd0a4f28419497f9722a3daafe3b4186f6b6457e090600090a380546001600160a01b0319166001600160a01b0392909216919091179055565b610621806100a86000396000f3fe608060405234801561001057600080fd5b50600436106100885760003560e01c80638e7cb6e11161005b5780638e7cb6e1146100f3578063949d225d1461011d578063cccf7a8e1461012e578063f2fde38b1461015157600080fd5b80631003e2d21461008d578063410d59cc146100a25780634cc82215146100c05780638da5cb5b146100d3575b600080fd5b6100a061009b36600461050b565b610164565b005b6100aa6101ef565b6040516100b79190610524565b60405180910390f35b6100a06100ce36600461050b565b610247565b6100db610374565b6040516001600160a01b0390911681526020016100b7565b61010661010136600461050b565b610383565b6040805192151583526020830191909152016100b7565b6000546040519081526020016100b7565b61014161013c36600461050b565b6103b6565b60405190151581526020016100b7565b6100a061015f366004610568565b610419565b61016c61045b565b6001600160a01b0316336001600160a01b03161461019d57604051632f7a8ee160e01b815260040160405180910390fd5b6101a6816103b6565b6101ec57600080548282526001602081905260408320829055810182559080527f290decd9548b62a8d60345a988386fc84ba6bc95484008f6362f93160ef3e563018190555b50565b6060600080548060200260200160405190810160405280929190818152602001828054801561023d57602002820191906000526020600020905b815481526020019060010190808311610229575b5050505050905090565b61024f61045b565b6001600160a01b0316336001600160a01b03161461028057604051632f7a8ee160e01b815260040160405180910390fd5b610289816103b6565b156101ec576000805461029e90600190610598565b815481106102ae576102ae6105bf565b906000526020600020015460006001600084815260200190815260200160002054815481106102df576102df6105bf565b60009182526020808320909101929092558281526001918290526040812054815490929190819084908110610316576103166105bf565b90600052602060002001548152602001908152602001600020819055506001600082815260200190815260200160002060009055600080548061035b5761035b6105d5565b6001900381819060005260206000200160009055905550565b600061037e61045b565b905090565b60008061038f836103b6565b61039e57506000928392509050565b50506000908152600160208190526040909120549091565b6000805481036103c857506000919050565b60008281526001602052604081205490036104045781600080815481106103f1576103f16105bf565b9060005260206000200154149050919050565b50600090815260016020526040902054151590565b61042161045b565b6001600160a01b0316336001600160a01b03161461045257604051632f7a8ee160e01b815260040160405180910390fd5b6101ec81610489565b7f8a22373512790c48b83a1fe2efdd2888d4a917bcdc24d0adf63e60f671680460546001600160a01b031690565b7f8a22373512790c48b83a1fe2efdd2888d4a917bcdc24d0adf63e60f67168046080546040516101ec92849290916001600160a01b038085169216907f8be0079c531659141344cd1fd0a4f28419497f9722a3daafe3b4186f6b6457e090600090a380546001600160a01b0319166001600160a01b0392909216919091179055565b60006020828403121561051d57600080fd5b5035919050565b6020808252825182820181905260009190848201906040850190845b8181101561055c57835183529284019291840191600101610540565b50909695505050505050565b60006020828403121561057a57600080fd5b81356001600160a01b038116811461059157600080fd5b9392505050565b818103818111156105b957634e487b7160e01b600052601160045260246000fd5b92915050565b634e487b7160e01b600052603260045260246000fd5b634e487b7160e01b600052603160045260246000fdfea2646970667358221220e26b625121584afbfcdd5a7c76a89bd07c2a082781c4635c0fc11c4dffdf9aed64736f6c63430008130033608060405234801561001057600080fd5b5061001a3361001f565b610099565b7f8a22373512790c48b83a1fe2efdd2888d4a917bcdc24d0adf63e60f67168046080546040516001600160a01b038481169216907f8be0079c531659141344cd1fd0a4f28419497f9722a3daafe3b4186f6b6457e090600090a380546001600160a01b0319166001600160a01b0392909216919091179055565b610663806100a86000396000f3fe608060405234801561001057600080fd5b506004361061007d5760003560e01c806385edea131161005b57806385edea13146100d35780638da5cb5b14610101578063a0265ff814610121578063f2fde38b1461014457600080fd5b80636526db7a14610082578063771602f714610097578063796c5e94146100aa575b600080fd5b610095610090366004610531565b610157565b005b6100956100a5366004610531565b6102bd565b6100bd6100b8366004610553565b61033a565b6040516100ca919061056c565b60405180910390f35b6100f36100e1366004610553565b60009081526020819052604090205490565b6040519081526020016100ca565b61010961039a565b6040516001600160a01b0390911681526020016100ca565b61013461012f366004610531565b6103a9565b60405190151581526020016100ca565b6100956101523660046105b0565b61043c565b61015f610481565b6001600160a01b0316336001600160a01b03161461019057604051632f7a8ee160e01b815260040160405180910390fd5b61019a82826103a9565b156102b957600082815260208190526040902080546101bb906001906105e0565b815481106101cb576101cb610601565b6000918252602080832090910154848352828252604080842060018452818520868652909352909220548154811061020557610205610601565b60009182526020808320909101929092558381526001825260408082208483528084528183205486845283855291832085845293819052835491939092918490811061025357610253610601565b600091825260208083209091015483528281019390935260409182018120939093558483526001825280832084845282528083208390558483529082905290208054806102a2576102a2610617565b600190038181906000526020600020016000905590555b5050565b6102c5610481565b6001600160a01b0316336001600160a01b0316146102f657604051632f7a8ee160e01b815260040160405180910390fd5b61030082826103a9565b6102b95760009182526020828152604080842080546001808552838720868852855292862081905585845291820181558452922090910155565b6000818152602081815260409182902080548351818402810184019094528084526060939283018282801561038e57602002820191906000526020600020905b81548152602001906001019080831161037a575b50505050509050919050565b60006103a4610481565b905090565b60008281526020819052604081205481036103c657506000610436565b60008381526001602090815260408083208584529091528120549003610418576000838152602081905260408120805484929061040557610405610601565b9060005260206000200154149050610436565b50600082815260016020908152604080832084845290915290205415155b92915050565b610444610481565b6001600160a01b0316336001600160a01b03161461047557604051632f7a8ee160e01b815260040160405180910390fd5b61047e816104af565b50565b7f8a22373512790c48b83a1fe2efdd2888d4a917bcdc24d0adf63e60f671680460546001600160a01b031690565b7f8a22373512790c48b83a1fe2efdd2888d4a917bcdc24d0adf63e60f671680460805460405161047e92849290916001600160a01b038085169216907f8be0079c531659141344cd1fd0a4f28419497f9722a3daafe3b4186f6b6457e090600090a380546001600160a01b0319166001600160a01b0392909216919091179055565b6000806040838503121561054457600080fd5b50508035926020909101359150565b60006020828403121561056557600080fd5b5035919050565b6020808252825182820181905260009190848201906040850190845b818110156105a457835183529284019291840191600101610588565b50909695505050505050565b6000602082840312156105c257600080fd5b81356001600160a01b03811681146105d957600080fd5b9392505050565b8181038181111561043657634e487b7160e01b600052601160045260246000fd5b634e487b7160e01b600052603260045260246000fd5b634e487b7160e01b600052603160045260246000fdfea264697066735822122074d2dbc3f020a29d6081fb9fcf69e8e3c85026be8658abafc11ba431c108e33464736f6c634300081300338a22373512790c48b83a1fe2efdd2888d4a917bcdc24d0adf63e60f671680460",
    "linkReferences": {}
  },
  "methodIdentifiers": {
    "authorizeWriter(address)": "4fef6a38",
    "getEntities()": "31b933b9",
    "getEntitiesWithValue(bool)": "001326ab",
    "getEntitiesWithValue(bytes)": "b361be46",
    "getRawValue(uint256)": "b8bc073d",
    "getSchema()": "6b122fe0",
    "getValue(uint256)": "0ff4c916",
    "has(uint256)": "cccf7a8e",
    "id()": "af640d0f",
    "owner()": "8da5cb5b",
    "registerIndexer(address)": "75c0669c",
    "registerWorld(address)": "9d2c76b4",
    "remove(uint256)": "4cc82215",
    "set(uint256)": "60fe47b1",
    "set(uint256,bytes)": "8b282947",
    "transferOwnership(address)": "f2fde38b",
    "unauthorizeWriter(address)": "bf4fe57e",
    "world()": "30b67baa",
    "writeAccess(address)": "861eb905"
  },
  "id": 102
}