{
  "abi": [
    {
      "inputs": [
        {
          "internalType": "address",
          "name": "world",
          "type": "address"
        }
      ],
      "stateMutability": "nonpayable",
      "type": "constructor"
    },
    {
      "inputs": [],
      "name": "BareComponent__NotImplemented",
      "type": "error"
    },
    {
      "inputs": [],
      "name": "OwnableWritable__NotWriter",
      "type": "error"
    },
    {
      "inputs": [],
      "name": "Ownable__NotOwner",
      "type": "error"
    },
    {
      "inputs": [],
      "name": "Ownable__NotTransitiveOwner",
      "type": "error"
    },
    {
      "anonymous": false,
      "inputs": [
        {
          "indexed": true,
          "internalType": "address",
          "name": "previousOwner",
          "type": "address"
        },
        {
          "indexed": true,
          "internalType": "address",
          "name": "newOwner",
          "type": "address"
        }
      ],
      "name": "OwnershipTransferred",
      "type": "event"
    },
    {
      "inputs": [
        {
          "internalType": "address",
          "name": "writer",
          "type": "address"
        }
      ],
      "name": "authorizeWriter",
      "outputs": [],
      "stateMutability": "nonpayable",
      "type": "function"
    },
    {
      "inputs": [],
      "name": "getEntities",
      "outputs": [
        {
          "internalType": "uint256[]",
          "name": "",
          "type": "uint256[]"
        }
      ],
      "stateMutability": "view",
      "type": "function"
    },
    {
      "inputs": [
        {
          "internalType": "bytes",
          "name": "value",
          "type": "bytes"
        }
      ],
      "name": "getEntitiesWithValue",
      "outputs": [
        {
          "internalType": "uint256[]",
          "name": "",
          "type": "uint256[]"
        }
      ],
      "stateMutability": "view",
      "type": "function"
    },
    {
      "inputs": [
        {
          "components": [
            {
              "internalType": "enum EMotherlodeSize",
              "name": "size",
              "type": "uint8"
            },
            {
              "internalType": "enum EMotherlodeType",
              "name": "motherlodeType",
              "type": "uint8"
            },
            {
              "internalType": "uint256",
              "name": "cooldownBlocks",
              "type": "uint256"
            }
          ],
          "internalType": "struct Motherlode",
          "name": "motherlode",
          "type": "tuple"
        }
      ],
      "name": "getEntitiesWithValue",
      "outputs": [
        {
          "internalType": "uint256[]",
          "name": "",
          "type": "uint256[]"
        }
      ],
      "stateMutability": "view",
      "type": "function"
    },
    {
      "inputs": [
        {
          "internalType": "uint256",
          "name": "entity",
          "type": "uint256"
        }
      ],
      "name": "getRawValue",
      "outputs": [
        {
          "internalType": "bytes",
          "name": "",
          "type": "bytes"
        }
      ],
      "stateMutability": "view",
      "type": "function"
    },
    {
      "inputs": [],
      "name": "getSchema",
      "outputs": [
        {
          "internalType": "string[]",
          "name": "keys",
          "type": "string[]"
        },
        {
          "internalType": "enum LibTypes.SchemaValue[]",
          "name": "values",
          "type": "uint8[]"
        }
      ],
      "stateMutability": "pure",
      "type": "function"
    },
    {
      "inputs": [
        {
          "internalType": "uint256",
          "name": "entity",
          "type": "uint256"
        }
      ],
      "name": "getValue",
      "outputs": [
        {
          "components": [
            {
              "internalType": "enum EMotherlodeSize",
              "name": "size",
              "type": "uint8"
            },
            {
              "internalType": "enum EMotherlodeType",
              "name": "motherlodeType",
              "type": "uint8"
            },
            {
              "internalType": "uint256",
              "name": "cooldownBlocks",
              "type": "uint256"
            }
          ],
          "internalType": "struct Motherlode",
          "name": "",
          "type": "tuple"
        }
      ],
      "stateMutability": "view",
      "type": "function"
    },
    {
      "inputs": [
        {
          "internalType": "uint256",
          "name": "entity",
          "type": "uint256"
        }
      ],
      "name": "has",
      "outputs": [
        {
          "internalType": "bool",
          "name": "",
          "type": "bool"
        }
      ],
      "stateMutability": "view",
      "type": "function"
    },
    {
      "inputs": [],
      "name": "id",
      "outputs": [
        {
          "internalType": "uint256",
          "name": "",
          "type": "uint256"
        }
      ],
      "stateMutability": "view",
      "type": "function"
    },
    {
      "inputs": [],
      "name": "owner",
      "outputs": [
        {
          "internalType": "address",
          "name": "",
          "type": "address"
        }
      ],
      "stateMutability": "view",
      "type": "function"
    },
    {
      "inputs": [
        {
          "internalType": "address",
          "name": "indexer",
          "type": "address"
        }
      ],
      "name": "registerIndexer",
      "outputs": [],
      "stateMutability": "nonpayable",
      "type": "function"
    },
    {
      "inputs": [
        {
          "internalType": "address",
          "name": "_world",
          "type": "address"
        }
      ],
      "name": "registerWorld",
      "outputs": [],
      "stateMutability": "nonpayable",
      "type": "function"
    },
    {
      "inputs": [
        {
          "internalType": "uint256",
          "name": "entity",
          "type": "uint256"
        }
      ],
      "name": "remove",
      "outputs": [],
      "stateMutability": "nonpayable",
      "type": "function"
    },
    {
      "inputs": [
        {
          "internalType": "uint256",
          "name": "entity",
          "type": "uint256"
        },
        {
          "internalType": "bytes",
          "name": "value",
          "type": "bytes"
        }
      ],
      "name": "set",
      "outputs": [],
      "stateMutability": "nonpayable",
      "type": "function"
    },
    {
      "inputs": [
        {
          "internalType": "uint256",
          "name": "entity",
          "type": "uint256"
        },
        {
          "components": [
            {
              "internalType": "enum EMotherlodeSize",
              "name": "size",
              "type": "uint8"
            },
            {
              "internalType": "enum EMotherlodeType",
              "name": "motherlodeType",
              "type": "uint8"
            },
            {
              "internalType": "uint256",
              "name": "cooldownBlocks",
              "type": "uint256"
            }
          ],
          "internalType": "struct Motherlode",
          "name": "motherlode",
          "type": "tuple"
        }
      ],
      "name": "set",
      "outputs": [],
      "stateMutability": "nonpayable",
      "type": "function"
    },
    {
      "inputs": [
        {
          "internalType": "address",
          "name": "account",
          "type": "address"
        }
      ],
      "name": "transferOwnership",
      "outputs": [],
      "stateMutability": "nonpayable",
      "type": "function"
    },
    {
      "inputs": [
        {
          "internalType": "address",
          "name": "writer",
          "type": "address"
        }
      ],
      "name": "unauthorizeWriter",
      "outputs": [],
      "stateMutability": "nonpayable",
      "type": "function"
    },
    {
      "inputs": [],
      "name": "world",
      "outputs": [
        {
          "internalType": "address",
          "name": "",
          "type": "address"
        }
      ],
      "stateMutability": "view",
      "type": "function"
    },
    {
      "inputs": [
        {
          "internalType": "address",
          "name": "operator",
          "type": "address"
        }
      ],
      "name": "writeAccess",
      "outputs": [
        {
          "internalType": "bool",
          "name": "",
          "type": "bool"
        }
      ],
      "stateMutability": "view",
      "type": "function"
    }
  ],
  "bytecode": {
    "object": "0x60806040523480156200001157600080fd5b506040516200298538038062002985833981016040819052620000349162000262565b807f6f733d142822cfa9cdcf200e380f3eedc04430f17210ad049967eb996d43a8cc8181620000633362000127565b60028190556001600160a01b038216156200008357620000838262000190565b5050604051620000939062000246565b604051809103906000f080158015620000b0573d6000803e3d6000fd5b50600380546001600160a01b0319166001600160a01b0392909216919091179055604051620000df9062000254565b604051809103906000f080158015620000fc573d6000803e3d6000fd5b50600480546001600160a01b0319166001600160a01b03929092169190911790555062000294915050565b6000805160206200296583398151915280546040516001600160a01b038481169216907f8be0079c531659141344cd1fd0a4f28419497f9722a3daafe3b4186f6b6457e090600090a380546001600160a01b0319166001600160a01b0392909216919091179055565b60008051602062002965833981519152546001600160a01b03163314620001ca57604051632f7a8ee160e01b815260040160405180910390fd5b600080546001600160a01b0319166001600160a01b038316908117909155600254604051630f30347760e41b8152306004820152602481019190915263f303477090604401600060405180830381600087803b1580156200022a57600080fd5b505af11580156200023f573d6000803e3d6000fd5b5050505050565b6106c98062001b9183390190565b61070b806200225a83390190565b6000602082840312156200027557600080fd5b81516001600160a01b03811681146200028d57600080fd5b9392505050565b6118ed80620002a46000396000f3fe608060405234801561001057600080fd5b50600436106101215760003560e01c80638da5cb5b116100ad578063bf4fe57e11610071578063bf4fe57e1461027b578063cccf7a8e1461028e578063d3e0f834146102a1578063e74526e5146102b4578063f2fde38b146102c757600080fd5b80638da5cb5b146102165780639d2c76b41461021e578063af640d0f14610231578063b361be4614610248578063b8bc073d1461025b57600080fd5b80634fef6a38116100f45780634fef6a38146101a45780636b122fe0146101b757806375c0669c146101cd578063861eb905146101e05780638b2829471461020357600080fd5b80630ff4c9161461012657806330b67baa1461014f57806331b933b91461017a5780634cc822151461018f575b600080fd5b61013961013436600461114e565b6102da565b60405161014691906111a1565b60405180910390f35b600054610162906001600160a01b031681565b6040516001600160a01b039091168152602001610146565b610182610399565b60405161014691906111d5565b6101a261019d36600461114e565b610410565b005b6101a26101b2366004611219565b610442565b6101bf6104be565b60405161014692919061128f565b6101a26101db366004611219565b6106a7565b6101f36101ee366004611219565b61071f565b6040519015158152602001610146565b6101a26102113660046113f1565b610783565b6101626107b7565b6101a261022c366004611219565b6107c1565b61023a60025481565b604051908152602001610146565b610182610256366004611438565b610875565b61026e61026936600461114e565b6108ee565b6040516101469190611475565b6101a2610289366004611219565b610990565b6101f361029c36600461114e565b610a09565b6101826102af3660046114a0565b610a77565b6101a26102c23660046114bc565b610aa1565b6101a26102d5366004611219565b610b1c565b6102ff6040805160608101909152806000815260200160008152602001600081525090565b600080600061030d856108ee565b8060200190518101906103209190611502565b92509250925060405180606001604052808463ffffffff16600281111561034957610349611167565b600281111561035a5761035a611167565b81526020018363ffffffff16600381111561037757610377611167565b600381111561038857610388611167565b815260200191909152949350505050565b60035460408051631043567360e21b815290516060926001600160a01b03169163410d59cc9160048083019260009291908290030181865afa1580156103e3573d6000803e3d6000fd5b505050506040513d6000823e601f3d908101601f1916820160405261040b919081019061153e565b905090565b6104193361071f565b6104365760405163203769ed60e11b815260040160405180910390fd5b61043f81610b5e565b50565b61044a610d87565b6001600160a01b0316336001600160a01b03161461047b57604051632f7a8ee160e01b815260040160405180910390fd5b6001600160a01b031660009081527f8ffeadc5cba727b8cc3cdef48739619490ea317fdb3baae1259089d06f92c90960205260409020805460ff19166001179055565b60408051600380825260808201909252606091829190816020015b60608152602001906001900390816104d957505060408051600380825260808201909252919350602082016060803683370190505090506040518060400160405280600481526020016373697a6560e01b81525082600081518110610540576105406115e4565b6020026020010181905250600881600081518110610560576105606115e4565b6020026020010190602181111561057957610579611167565b9081602181111561058c5761058c611167565b815250506040518060400160405280600e81526020016d6d6f746865726c6f64655479706560901b815250826001815181106105ca576105ca6115e4565b60200260200101819052506008816001815181106105ea576105ea6115e4565b6020026020010190602181111561060357610603611167565b9081602181111561061657610616611167565b815250506040518060400160405280600e81526020016d636f6f6c646f776e426c6f636b7360901b81525082600281518110610654576106546115e4565b6020026020010181905250600d81600281518110610674576106746115e4565b6020026020010190602181111561068d5761068d611167565b908160218111156106a0576106a0611167565b9052509091565b6106b03361071f565b6106cd5760405163203769ed60e11b815260040160405180910390fd5b600580546001810182556000919091527f036b6384b5eca791c62761152d0c79bb0604c104a5fb6f4eb0703f3154bb3db00180546001600160a01b0319166001600160a01b0392909216919091179055565b6001600160a01b03811660009081527f8ffeadc5cba727b8cc3cdef48739619490ea317fdb3baae1259089d06f92c909602052604081205460ff168061077d57506107686107b7565b6001600160a01b0316826001600160a01b0316145b92915050565b61078c3361071f565b6107a95760405163203769ed60e11b815260040160405180910390fd5b6107b38282610db5565b5050565b600061040b610d87565b6107c9610d87565b6001600160a01b0316336001600160a01b0316146107fa57604051632f7a8ee160e01b815260040160405180910390fd5b600080546001600160a01b0319166001600160a01b038316908117909155600254604051630f30347760e41b8152306004820152602481019190915263f3034770906044015b600060405180830381600087803b15801561085a57600080fd5b505af115801561086e573d6000803e3d6000fd5b5050505050565b6004805482516020840120604051631e5b17a560e21b8152928301526060916001600160a01b039091169063796c5e9490602401600060405180830381865afa1580156108c6573d6000803e3d6000fd5b505050506040513d6000823e601f3d908101601f1916820160405261077d919081019061153e565b600081815260016020526040902080546060919061090b906115fa565b80601f0160208091040260200160405190810160405280929190818152602001828054610937906115fa565b80156109845780601f1061095957610100808354040283529160200191610984565b820191906000526020600020905b81548152906001019060200180831161096757829003601f168201915b50505050509050919050565b610998610d87565b6001600160a01b0316336001600160a01b0316146109c957604051632f7a8ee160e01b815260040160405180910390fd5b6001600160a01b031660009081527f8ffeadc5cba727b8cc3cdef48739619490ea317fdb3baae1259089d06f92c90960205260409020805460ff19169055565b600354604051636667bd4760e11b8152600481018390526000916001600160a01b03169063cccf7a8e90602401602060405180830381865afa158015610a53573d6000803e3d6000fd5b505050506040513d601f19601f8201168201806040525081019061077d919061162e565b606061077d82604051602001610a8d919061166e565b604051602081830303815290604052610875565b6107b382610ab260208401846116ac565b6002811115610ac357610ac3611167565b610ad360408501602086016116c7565b6003811115610ae457610ae4611167565b6040805163ffffffff938416602082015292909116828201528401356060820152608001604051602081830303815290604052610783565b610b24610d87565b6001600160a01b0316336001600160a01b031614610b5557604051632f7a8ee160e01b815260040160405180910390fd5b61043f81610fb4565b6004546000828152600160205260409081902090516001600160a01b03909216916385edea1391610b8e916116e2565b60405190819003812060e083901b6001600160e01b03191682526004820152602401602060405180830381865afa158015610bcd573d6000803e3d6000fd5b505050506040513d601f19601f82011682018060405250810190610bf19190611758565b600003610bfb5750565b6004546000828152600160205260409081902090516001600160a01b0390921691636526db7a91610c2b916116e2565b60405190819003812060e083901b6001600160e01b0319168252600482015260248101849052604401600060405180830381600087803b158015610c6e57600080fd5b505af1158015610c82573d6000803e3d6000fd5b5050600354604051634cc8221560e01b8152600481018590526001600160a01b039091169250634cc822159150602401600060405180830381600087803b158015610ccc57600080fd5b505af1158015610ce0573d6000803e3d6000fd5b50505050610ced81610fbd565b60005b6005548110156107b35760058181548110610d0d57610d0d6115e4565b600091825260209091200154604051634cc8221560e01b8152600481018490526001600160a01b0390911690634cc8221590602401600060405180830381600087803b158015610d5c57600080fd5b505af1158015610d70573d6000803e3d6000fd5b505050508080610d7f90611771565b915050610cf0565b7f8a22373512790c48b83a1fe2efdd2888d4a917bcdc24d0adf63e60f671680460546001600160a01b031690565b600354604051630801f16960e11b8152600481018490526001600160a01b0390911690631003e2d290602401600060405180830381600087803b158015610dfb57600080fd5b505af1158015610e0f573d6000803e3d6000fd5b50506004546000858152600160205260409081902090516001600160a01b039092169350636526db7a9250610e43916116e2565b60405190819003812060e083901b6001600160e01b0319168252600482015260248101859052604401600060405180830381600087803b158015610e8657600080fd5b505af1158015610e9a573d6000803e3d6000fd5b5050600480548451602086012060405163771602f760e01b815292830152602482018690526001600160a01b0316925063771602f79150604401600060405180830381600087803b158015610eee57600080fd5b505af1158015610f02573d6000803e3d6000fd5b50505050610f108282611005565b60005b600554811015610faf5760058181548110610f3057610f306115e4565b6000918252602090912001546040516242d70760e31b81526001600160a01b0390911690630216b83890610f6a9086908690600401611798565b600060405180830381600087803b158015610f8457600080fd5b505af1158015610f98573d6000803e3d6000fd5b505050508080610fa790611771565b915050610f13565b505050565b61043f81611086565b6000818152600160205260408120610fd491611100565b600054604051630de3b7b560e01b8152600481018390526001600160a01b0390911690630de3b7b590602401610840565b600082815260016020526040902061101d82826117f7565b5060005460405163cfd3c57f60e01b81526001600160a01b039091169063cfd3c57f906110509085908590600401611798565b600060405180830381600087803b15801561106a57600080fd5b505af115801561107e573d6000803e3d6000fd5b505050505050565b7f8a22373512790c48b83a1fe2efdd2888d4a917bcdc24d0adf63e60f67168046080546040516001600160a01b038481169216907f8be0079c531659141344cd1fd0a4f28419497f9722a3daafe3b4186f6b6457e090600090a380546001600160a01b0319166001600160a01b0392909216919091179055565b50805461110c906115fa565b6000825580601f1061111c575050565b601f01602090049060005260206000209081019061043f91905b8082111561114a5760008155600101611136565b5090565b60006020828403121561116057600080fd5b5035919050565b634e487b7160e01b600052602160045260246000fd5b6003811061118d5761118d611167565b9052565b6004811061118d5761118d611167565b60006060820190506111b482845161117d565b60208301516111c66020840182611191565b50604092830151919092015290565b6020808252825182820181905260009190848201906040850190845b8181101561120d578351835292840192918401916001016111f1565b50909695505050505050565b60006020828403121561122b57600080fd5b81356001600160a01b038116811461124257600080fd5b9392505050565b6000815180845260005b8181101561126f57602081850181015186830182015201611253565b506000602082860101526020601f19601f83011685010191505092915050565b6000604082016040835280855180835260608501915060608160051b8601019250602080880160005b838110156112e657605f198887030185526112d4868351611249565b955093820193908201906001016112b8565b50508584038187015286518085528782019482019350915060005b8281101561132d5784516022811061131b5761131b611167565b84529381019392810192600101611301565b5091979650505050505050565b634e487b7160e01b600052604160045260246000fd5b604051601f8201601f1916810167ffffffffffffffff811182821017156113795761137961133a565b604052919050565b600082601f83011261139257600080fd5b813567ffffffffffffffff8111156113ac576113ac61133a565b6113bf601f8201601f1916602001611350565b8181528460208386010111156113d457600080fd5b816020850160208301376000918101602001919091529392505050565b6000806040838503121561140457600080fd5b82359150602083013567ffffffffffffffff81111561142257600080fd5b61142e85828601611381565b9150509250929050565b60006020828403121561144a57600080fd5b813567ffffffffffffffff81111561146157600080fd5b61146d84828501611381565b949350505050565b6020815260006112426020830184611249565b60006060828403121561149a57600080fd5b50919050565b6000606082840312156114b257600080fd5b6112428383611488565b600080608083850312156114cf57600080fd5b823591506114e08460208501611488565b90509250929050565b805163ffffffff811681146114fd57600080fd5b919050565b60008060006060848603121561151757600080fd5b611520846114e9565b925061152e602085016114e9565b9150604084015190509250925092565b6000602080838503121561155157600080fd5b825167ffffffffffffffff8082111561156957600080fd5b818501915085601f83011261157d57600080fd5b81518181111561158f5761158f61133a565b8060051b91506115a0848301611350565b81815291830184019184810190888411156115ba57600080fd5b938501935b838510156115d8578451825293850193908501906115bf565b98975050505050505050565b634e487b7160e01b600052603260045260246000fd5b600181811c9082168061160e57607f821691505b60208210810361149a57634e487b7160e01b600052602260045260246000fd5b60006020828403121561164057600080fd5b8151801515811461124257600080fd5b8035600381106114fd57600080fd5b8035600481106114fd57600080fd5b606081016116848261167f85611650565b61117d565b6116906020840161165f565b61169d6020840182611191565b50604092830135919092015290565b6000602082840312156116be57600080fd5b61124282611650565b6000602082840312156116d957600080fd5b6112428261165f565b60008083546116f0816115fa565b60018281168015611708576001811461171d5761174c565b60ff198416875282151583028701945061174c565b8760005260208060002060005b858110156117435781548a82015290840190820161172a565b50505082870194505b50929695505050505050565b60006020828403121561176a57600080fd5b5051919050565b60006001820161179157634e487b7160e01b600052601160045260246000fd5b5060010190565b82815260406020820152600061146d6040830184611249565b601f821115610faf57600081815260208120601f850160051c810160208610156117d85750805b601f850160051c820191505b8181101561107e578281556001016117e4565b815167ffffffffffffffff8111156118115761181161133a565b6118258161181f84546115fa565b846117b1565b602080601f83116001811461185a57600084156118425750858301515b600019600386901b1c1916600185901b17855561107e565b600085815260208120601f198616915b828110156118895788860151825594840194600190910190840161186a565b50858210156118a75787850151600019600388901b60f8161c191681555b5050505050600190811b0190555056fea2646970667358221220c7fa9f9f68ae1f17fba7056bc54e55bde027b9dc3afd87170a649e3984869a7b64736f6c63430008130033608060405234801561001057600080fd5b5061001a3361001f565b610099565b7f8a22373512790c48b83a1fe2efdd2888d4a917bcdc24d0adf63e60f67168046080546040516001600160a01b038481169216907f8be0079c531659141344cd1fd0a4f28419497f9722a3daafe3b4186f6b6457e090600090a380546001600160a01b0319166001600160a01b0392909216919091179055565b610621806100a86000396000f3fe608060405234801561001057600080fd5b50600436106100885760003560e01c80638e7cb6e11161005b5780638e7cb6e1146100f3578063949d225d1461011d578063cccf7a8e1461012e578063f2fde38b1461015157600080fd5b80631003e2d21461008d578063410d59cc146100a25780634cc82215146100c05780638da5cb5b146100d3575b600080fd5b6100a061009b36600461050b565b610164565b005b6100aa6101ef565b6040516100b79190610524565b60405180910390f35b6100a06100ce36600461050b565b610247565b6100db610374565b6040516001600160a01b0390911681526020016100b7565b61010661010136600461050b565b610383565b6040805192151583526020830191909152016100b7565b6000546040519081526020016100b7565b61014161013c36600461050b565b6103b6565b60405190151581526020016100b7565b6100a061015f366004610568565b610419565b61016c61045b565b6001600160a01b0316336001600160a01b03161461019d57604051632f7a8ee160e01b815260040160405180910390fd5b6101a6816103b6565b6101ec57600080548282526001602081905260408320829055810182559080527f290decd9548b62a8d60345a988386fc84ba6bc95484008f6362f93160ef3e563018190555b50565b6060600080548060200260200160405190810160405280929190818152602001828054801561023d57602002820191906000526020600020905b815481526020019060010190808311610229575b5050505050905090565b61024f61045b565b6001600160a01b0316336001600160a01b03161461028057604051632f7a8ee160e01b815260040160405180910390fd5b610289816103b6565b156101ec576000805461029e90600190610598565b815481106102ae576102ae6105bf565b906000526020600020015460006001600084815260200190815260200160002054815481106102df576102df6105bf565b60009182526020808320909101929092558281526001918290526040812054815490929190819084908110610316576103166105bf565b90600052602060002001548152602001908152602001600020819055506001600082815260200190815260200160002060009055600080548061035b5761035b6105d5565b6001900381819060005260206000200160009055905550565b600061037e61045b565b905090565b60008061038f836103b6565b61039e57506000928392509050565b50506000908152600160208190526040909120549091565b6000805481036103c857506000919050565b60008281526001602052604081205490036104045781600080815481106103f1576103f16105bf565b9060005260206000200154149050919050565b50600090815260016020526040902054151590565b61042161045b565b6001600160a01b0316336001600160a01b03161461045257604051632f7a8ee160e01b815260040160405180910390fd5b6101ec81610489565b7f8a22373512790c48b83a1fe2efdd2888d4a917bcdc24d0adf63e60f671680460546001600160a01b031690565b7f8a22373512790c48b83a1fe2efdd2888d4a917bcdc24d0adf63e60f67168046080546040516101ec92849290916001600160a01b038085169216907f8be0079c531659141344cd1fd0a4f28419497f9722a3daafe3b4186f6b6457e090600090a380546001600160a01b0319166001600160a01b0392909216919091179055565b60006020828403121561051d57600080fd5b5035919050565b6020808252825182820181905260009190848201906040850190845b8181101561055c57835183529284019291840191600101610540565b50909695505050505050565b60006020828403121561057a57600080fd5b81356001600160a01b038116811461059157600080fd5b9392505050565b818103818111156105b957634e487b7160e01b600052601160045260246000fd5b92915050565b634e487b7160e01b600052603260045260246000fd5b634e487b7160e01b600052603160045260246000fdfea2646970667358221220e26b625121584afbfcdd5a7c76a89bd07c2a082781c4635c0fc11c4dffdf9aed64736f6c63430008130033608060405234801561001057600080fd5b5061001a3361001f565b610099565b7f8a22373512790c48b83a1fe2efdd2888d4a917bcdc24d0adf63e60f67168046080546040516001600160a01b038481169216907f8be0079c531659141344cd1fd0a4f28419497f9722a3daafe3b4186f6b6457e090600090a380546001600160a01b0319166001600160a01b0392909216919091179055565b610663806100a86000396000f3fe608060405234801561001057600080fd5b506004361061007d5760003560e01c806385edea131161005b57806385edea13146100d35780638da5cb5b14610101578063a0265ff814610121578063f2fde38b1461014457600080fd5b80636526db7a14610082578063771602f714610097578063796c5e94146100aa575b600080fd5b610095610090366004610531565b610157565b005b6100956100a5366004610531565b6102bd565b6100bd6100b8366004610553565b61033a565b6040516100ca919061056c565b60405180910390f35b6100f36100e1366004610553565b60009081526020819052604090205490565b6040519081526020016100ca565b61010961039a565b6040516001600160a01b0390911681526020016100ca565b61013461012f366004610531565b6103a9565b60405190151581526020016100ca565b6100956101523660046105b0565b61043c565b61015f610481565b6001600160a01b0316336001600160a01b03161461019057604051632f7a8ee160e01b815260040160405180910390fd5b61019a82826103a9565b156102b957600082815260208190526040902080546101bb906001906105e0565b815481106101cb576101cb610601565b6000918252602080832090910154848352828252604080842060018452818520868652909352909220548154811061020557610205610601565b60009182526020808320909101929092558381526001825260408082208483528084528183205486845283855291832085845293819052835491939092918490811061025357610253610601565b600091825260208083209091015483528281019390935260409182018120939093558483526001825280832084845282528083208390558483529082905290208054806102a2576102a2610617565b600190038181906000526020600020016000905590555b5050565b6102c5610481565b6001600160a01b0316336001600160a01b0316146102f657604051632f7a8ee160e01b815260040160405180910390fd5b61030082826103a9565b6102b95760009182526020828152604080842080546001808552838720868852855292862081905585845291820181558452922090910155565b6000818152602081815260409182902080548351818402810184019094528084526060939283018282801561038e57602002820191906000526020600020905b81548152602001906001019080831161037a575b50505050509050919050565b60006103a4610481565b905090565b60008281526020819052604081205481036103c657506000610436565b60008381526001602090815260408083208584529091528120549003610418576000838152602081905260408120805484929061040557610405610601565b9060005260206000200154149050610436565b50600082815260016020908152604080832084845290915290205415155b92915050565b610444610481565b6001600160a01b0316336001600160a01b03161461047557604051632f7a8ee160e01b815260040160405180910390fd5b61047e816104af565b50565b7f8a22373512790c48b83a1fe2efdd2888d4a917bcdc24d0adf63e60f671680460546001600160a01b031690565b7f8a22373512790c48b83a1fe2efdd2888d4a917bcdc24d0adf63e60f671680460805460405161047e92849290916001600160a01b038085169216907f8be0079c531659141344cd1fd0a4f28419497f9722a3daafe3b4186f6b6457e090600090a380546001600160a01b0319166001600160a01b0392909216919091179055565b6000806040838503121561054457600080fd5b50508035926020909101359150565b60006020828403121561056557600080fd5b5035919050565b6020808252825182820181905260009190848201906040850190845b818110156105a457835183529284019291840191600101610588565b50909695505050505050565b6000602082840312156105c257600080fd5b81356001600160a01b03811681146105d957600080fd5b9392505050565b8181038181111561043657634e487b7160e01b600052601160045260246000fd5b634e487b7160e01b600052603260045260246000fd5b634e487b7160e01b600052603160045260246000fdfea264697066735822122074d2dbc3f020a29d6081fb9fcf69e8e3c85026be8658abafc11ba431c108e33464736f6c634300081300338a22373512790c48b83a1fe2efdd2888d4a917bcdc24d0adf63e60f671680460",
    "linkReferences": {}
  },
  "methodIdentifiers": {
    "authorizeWriter(address)": "4fef6a38",
    "getEntities()": "31b933b9",
    "getEntitiesWithValue((uint8,uint8,uint256))": "d3e0f834",
    "getEntitiesWithValue(bytes)": "b361be46",
    "getRawValue(uint256)": "b8bc073d",
    "getSchema()": "6b122fe0",
    "getValue(uint256)": "0ff4c916",
    "has(uint256)": "cccf7a8e",
    "id()": "af640d0f",
    "owner()": "8da5cb5b",
    "registerIndexer(address)": "75c0669c",
    "registerWorld(address)": "9d2c76b4",
    "remove(uint256)": "4cc82215",
    "set(uint256,(uint8,uint8,uint256))": "e74526e5",
    "set(uint256,bytes)": "8b282947",
    "transferOwnership(address)": "f2fde38b",
    "unauthorizeWriter(address)": "bf4fe57e",
    "world()": "30b67baa",
    "writeAccess(address)": "861eb905"
  },
  "id": 111
}