{
  "abi": [
    {
      "inputs": [
        {
          "internalType": "address",
          "name": "world",
          "type": "address"
        }
      ],
      "stateMutability": "nonpayable",
      "type": "constructor"
    },
    {
      "inputs": [],
      "name": "BareComponent__NotImplemented",
      "type": "error"
    },
    {
      "inputs": [],
      "name": "OwnableWritable__NotWriter",
      "type": "error"
    },
    {
      "inputs": [],
      "name": "Ownable__NotOwner",
      "type": "error"
    },
    {
      "inputs": [],
      "name": "Ownable__NotTransitiveOwner",
      "type": "error"
    },
    {
      "anonymous": false,
      "inputs": [
        {
          "indexed": true,
          "internalType": "address",
          "name": "previousOwner",
          "type": "address"
        },
        {
          "indexed": true,
          "internalType": "address",
          "name": "newOwner",
          "type": "address"
        }
      ],
      "name": "OwnershipTransferred",
      "type": "event"
    },
    {
      "inputs": [
        {
          "internalType": "address",
          "name": "writer",
          "type": "address"
        }
      ],
      "name": "authorizeWriter",
      "outputs": [],
      "stateMutability": "nonpayable",
      "type": "function"
    },
    {
      "inputs": [],
      "name": "getEntities",
      "outputs": [
        {
          "internalType": "uint256[]",
          "name": "",
          "type": "uint256[]"
        }
      ],
      "stateMutability": "view",
      "type": "function"
    },
    {
      "inputs": [
        {
          "internalType": "bytes",
          "name": "value",
          "type": "bytes"
        }
      ],
      "name": "getEntitiesWithValue",
      "outputs": [
        {
          "internalType": "uint256[]",
          "name": "",
          "type": "uint256[]"
        }
      ],
      "stateMutability": "view",
      "type": "function"
    },
    {
      "inputs": [
        {
          "internalType": "uint32[]",
          "name": "value",
          "type": "uint32[]"
        }
      ],
      "name": "getEntitiesWithValue",
      "outputs": [
        {
          "internalType": "uint256[]",
          "name": "",
          "type": "uint256[]"
        }
      ],
      "stateMutability": "view",
      "type": "function"
    },
    {
      "inputs": [
        {
          "internalType": "uint256",
          "name": "entity",
          "type": "uint256"
        }
      ],
      "name": "getRawValue",
      "outputs": [
        {
          "internalType": "bytes",
          "name": "",
          "type": "bytes"
        }
      ],
      "stateMutability": "view",
      "type": "function"
    },
    {
      "inputs": [],
      "name": "getSchema",
      "outputs": [
        {
          "internalType": "string[]",
          "name": "keys",
          "type": "string[]"
        },
        {
          "internalType": "enum LibTypes.SchemaValue[]",
          "name": "values",
          "type": "uint8[]"
        }
      ],
      "stateMutability": "pure",
      "type": "function"
    },
    {
      "inputs": [
        {
          "internalType": "uint256",
          "name": "entity",
          "type": "uint256"
        }
      ],
      "name": "getValue",
      "outputs": [
        {
          "internalType": "int32[]",
          "name": "",
          "type": "int32[]"
        }
      ],
      "stateMutability": "view",
      "type": "function"
    },
    {
      "inputs": [
        {
          "internalType": "uint256",
          "name": "entity",
          "type": "uint256"
        }
      ],
      "name": "has",
      "outputs": [
        {
          "internalType": "bool",
          "name": "",
          "type": "bool"
        }
      ],
      "stateMutability": "view",
      "type": "function"
    },
    {
      "inputs": [],
      "name": "id",
      "outputs": [
        {
          "internalType": "uint256",
          "name": "",
          "type": "uint256"
        }
      ],
      "stateMutability": "view",
      "type": "function"
    },
    {
      "inputs": [],
      "name": "owner",
      "outputs": [
        {
          "internalType": "address",
          "name": "",
          "type": "address"
        }
      ],
      "stateMutability": "view",
      "type": "function"
    },
    {
      "inputs": [
        {
          "internalType": "address",
          "name": "indexer",
          "type": "address"
        }
      ],
      "name": "registerIndexer",
      "outputs": [],
      "stateMutability": "nonpayable",
      "type": "function"
    },
    {
      "inputs": [
        {
          "internalType": "address",
          "name": "_world",
          "type": "address"
        }
      ],
      "name": "registerWorld",
      "outputs": [],
      "stateMutability": "nonpayable",
      "type": "function"
    },
    {
      "inputs": [
        {
          "internalType": "uint256",
          "name": "entity",
          "type": "uint256"
        }
      ],
      "name": "remove",
      "outputs": [],
      "stateMutability": "nonpayable",
      "type": "function"
    },
    {
      "inputs": [
        {
          "internalType": "uint256",
          "name": "entity",
          "type": "uint256"
        },
        {
          "internalType": "bytes",
          "name": "value",
          "type": "bytes"
        }
      ],
      "name": "set",
      "outputs": [],
      "stateMutability": "nonpayable",
      "type": "function"
    },
    {
      "inputs": [
        {
          "internalType": "uint256",
          "name": "entity",
          "type": "uint256"
        },
        {
          "internalType": "int32[]",
          "name": "value",
          "type": "int32[]"
        }
      ],
      "name": "set",
      "outputs": [],
      "stateMutability": "nonpayable",
      "type": "function"
    },
    {
      "inputs": [
        {
          "internalType": "address",
          "name": "account",
          "type": "address"
        }
      ],
      "name": "transferOwnership",
      "outputs": [],
      "stateMutability": "nonpayable",
      "type": "function"
    },
    {
      "inputs": [
        {
          "internalType": "address",
          "name": "writer",
          "type": "address"
        }
      ],
      "name": "unauthorizeWriter",
      "outputs": [],
      "stateMutability": "nonpayable",
      "type": "function"
    },
    {
      "inputs": [],
      "name": "world",
      "outputs": [
        {
          "internalType": "address",
          "name": "",
          "type": "address"
        }
      ],
      "stateMutability": "view",
      "type": "function"
    },
    {
      "inputs": [
        {
          "internalType": "address",
          "name": "operator",
          "type": "address"
        }
      ],
      "name": "writeAccess",
      "outputs": [
        {
          "internalType": "bool",
          "name": "",
          "type": "bool"
        }
      ],
      "stateMutability": "view",
      "type": "function"
    }
  ],
  "bytecode": {
    "object": "0x60806040523480156200001157600080fd5b506040516200286038038062002860833981016040819052620000349162000262565b807f29ea2e15d03ff393df6dfe165be7e61208c58ffcace6ef0eb6f37ef912f8f8b28181620000633362000127565b60028190556001600160a01b038216156200008357620000838262000190565b5050604051620000939062000246565b604051809103906000f080158015620000b0573d6000803e3d6000fd5b50600380546001600160a01b0319166001600160a01b0392909216919091179055604051620000df9062000254565b604051809103906000f080158015620000fc573d6000803e3d6000fd5b50600480546001600160a01b0319166001600160a01b03929092169190911790555062000294915050565b6000805160206200284083398151915280546040516001600160a01b038481169216907f8be0079c531659141344cd1fd0a4f28419497f9722a3daafe3b4186f6b6457e090600090a380546001600160a01b0319166001600160a01b0392909216919091179055565b60008051602062002840833981519152546001600160a01b03163314620001ca57604051632f7a8ee160e01b815260040160405180910390fd5b600080546001600160a01b0319166001600160a01b038316908117909155600254604051630f30347760e41b8152306004820152602481019190915263f303477090604401600060405180830381600087803b1580156200022a57600080fd5b505af11580156200023f573d6000803e3d6000fd5b5050505050565b6106c98062001a6c83390190565b61070b806200213583390190565b6000602082840312156200027557600080fd5b81516001600160a01b03811681146200028d57600080fd5b9392505050565b6117c880620002a46000396000f3fe608060405234801561001057600080fd5b50600436106101215760003560e01c80638da5cb5b116100ad578063bd2746e711610071578063bd2746e71461027b578063bf4fe57e1461028e578063c3efb537146102a1578063cccf7a8e146102b4578063f2fde38b146102c757600080fd5b80638da5cb5b146102165780639d2c76b41461021e578063af640d0f14610231578063b361be4614610248578063b8bc073d1461025b57600080fd5b80634fef6a38116100f45780634fef6a38146101a45780636b122fe0146101b757806375c0669c146101cd578063861eb905146101e05780638b2829471461020357600080fd5b80630ff4c9161461012657806330b67baa1461014f57806331b933b91461017a5780634cc822151461018f575b600080fd5b610139610134366004610f4b565b6102da565b6040516101469190610f64565b60405180910390f35b600054610162906001600160a01b031681565b6040516001600160a01b039091168152602001610146565b6101826102fe565b6040516101469190610fab565b6101a261019d366004610f4b565b610375565b005b6101a26101b2366004610fe3565b6103a7565b6101bf610423565b60405161014692919061106f565b6101a26101db366004610fe3565b6104f7565b6101f36101ee366004610fe3565b61056f565b6040519015158152602001610146565b6101a26102113660046111df565b6105d2565b610162610606565b6101a261022c366004610fe3565b610610565b61023a60025481565b604051908152602001610146565b610182610256366004611226565b6106c4565b61026e610269366004610f4b565b61073d565b6040516101469190611263565b61018261028936600461129a565b6107df565b6101a261029c366004610fe3565b610809565b6101a26102af366004611352565b610882565b6101f36102c2366004610f4b565b6108ab565b6101a26102d5366004610fe3565b610919565b60606102e58261073d565b8060200190518101906102f891906113f8565b92915050565b60035460408051631043567360e21b815290516060926001600160a01b03169163410d59cc9160048083019260009291908290030181865afa158015610348573d6000803e3d6000fd5b505050506040513d6000823e601f3d908101601f191682016040526103709190810190611487565b905090565b61037e3361056f565b61039b5760405163203769ed60e11b815260040160405180910390fd5b6103a48161095b565b50565b6103af610b84565b6001600160a01b0316336001600160a01b0316146103e057604051632f7a8ee160e01b815260040160405180910390fd5b6001600160a01b031660009081527f8ffeadc5cba727b8cc3cdef48739619490ea317fdb3baae1259089d06f92c90960205260409020805460ff19166001179055565b604080516001808252818301909252606091829190816020015b606081526020019060019003908161043d575050604080516001808252818301909252919350602080830190803683370190505090506040518060400160405280600581526020016476616c756560d81b815250826000815181106104a4576104a461150d565b60200260200101819052506015816000815181106104c4576104c461150d565b602002602001019060218111156104dd576104dd611059565b908160218111156104f0576104f0611059565b9052509091565b6105003361056f565b61051d5760405163203769ed60e11b815260040160405180910390fd5b600580546001810182556000919091527f036b6384b5eca791c62761152d0c79bb0604c104a5fb6f4eb0703f3154bb3db00180546001600160a01b0319166001600160a01b0392909216919091179055565b6001600160a01b03811660009081527f8ffeadc5cba727b8cc3cdef48739619490ea317fdb3baae1259089d06f92c909602052604081205460ff16806102f857506105b8610606565b6001600160a01b0316826001600160a01b03161492915050565b6105db3361056f565b6105f85760405163203769ed60e11b815260040160405180910390fd5b6106028282610bb2565b5050565b6000610370610b84565b610618610b84565b6001600160a01b0316336001600160a01b03161461064957604051632f7a8ee160e01b815260040160405180910390fd5b600080546001600160a01b0319166001600160a01b038316908117909155600254604051630f30347760e41b8152306004820152602481019190915263f3034770906044015b600060405180830381600087803b1580156106a957600080fd5b505af11580156106bd573d6000803e3d6000fd5b5050505050565b6004805482516020840120604051631e5b17a560e21b8152928301526060916001600160a01b039091169063796c5e9490602401600060405180830381865afa158015610715573d6000803e3d6000fd5b505050506040513d6000823e601f3d908101601f191682016040526102f89190810190611487565b600081815260016020526040902080546060919061075a90611523565b80601f016020809104026020016040519081016040528092919081815260200182805461078690611523565b80156107d35780601f106107a8576101008083540402835291602001916107d3565b820191906000526020600020905b8154815290600101906020018083116107b657829003601f168201915b50505050509050919050565b60606102f8826040516020016107f5919061155d565b6040516020818303038152906040526106c4565b610811610b84565b6001600160a01b0316336001600160a01b03161461084257604051632f7a8ee160e01b815260040160405180910390fd5b6001600160a01b031660009081527f8ffeadc5cba727b8cc3cdef48739619490ea317fdb3baae1259089d06f92c90960205260409020805460ff19169055565b61060282826040516020016108979190610f64565b6040516020818303038152906040526105d2565b600354604051636667bd4760e11b8152600481018390526000916001600160a01b03169063cccf7a8e90602401602060405180830381865afa1580156108f5573d6000803e3d6000fd5b505050506040513d601f19601f820116820180604052508101906102f8919061159b565b610921610b84565b6001600160a01b0316336001600160a01b03161461095257604051632f7a8ee160e01b815260040160405180910390fd5b6103a481610db1565b6004546000828152600160205260409081902090516001600160a01b03909216916385edea139161098b916115bd565b60405190819003812060e083901b6001600160e01b03191682526004820152602401602060405180830381865afa1580156109ca573d6000803e3d6000fd5b505050506040513d601f19601f820116820180604052508101906109ee9190611633565b6000036109f85750565b6004546000828152600160205260409081902090516001600160a01b0390921691636526db7a91610a28916115bd565b60405190819003812060e083901b6001600160e01b0319168252600482015260248101849052604401600060405180830381600087803b158015610a6b57600080fd5b505af1158015610a7f573d6000803e3d6000fd5b5050600354604051634cc8221560e01b8152600481018590526001600160a01b039091169250634cc822159150602401600060405180830381600087803b158015610ac957600080fd5b505af1158015610add573d6000803e3d6000fd5b50505050610aea81610dba565b60005b6005548110156106025760058181548110610b0a57610b0a61150d565b600091825260209091200154604051634cc8221560e01b8152600481018490526001600160a01b0390911690634cc8221590602401600060405180830381600087803b158015610b5957600080fd5b505af1158015610b6d573d6000803e3d6000fd5b505050508080610b7c9061164c565b915050610aed565b7f8a22373512790c48b83a1fe2efdd2888d4a917bcdc24d0adf63e60f671680460546001600160a01b031690565b600354604051630801f16960e11b8152600481018490526001600160a01b0390911690631003e2d290602401600060405180830381600087803b158015610bf857600080fd5b505af1158015610c0c573d6000803e3d6000fd5b50506004546000858152600160205260409081902090516001600160a01b039092169350636526db7a9250610c40916115bd565b60405190819003812060e083901b6001600160e01b0319168252600482015260248101859052604401600060405180830381600087803b158015610c8357600080fd5b505af1158015610c97573d6000803e3d6000fd5b5050600480548451602086012060405163771602f760e01b815292830152602482018690526001600160a01b0316925063771602f79150604401600060405180830381600087803b158015610ceb57600080fd5b505af1158015610cff573d6000803e3d6000fd5b50505050610d0d8282610e02565b60005b600554811015610dac5760058181548110610d2d57610d2d61150d565b6000918252602090912001546040516242d70760e31b81526001600160a01b0390911690630216b83890610d679086908690600401611673565b600060405180830381600087803b158015610d8157600080fd5b505af1158015610d95573d6000803e3d6000fd5b505050508080610da49061164c565b915050610d10565b505050565b6103a481610e83565b6000818152600160205260408120610dd191610efd565b600054604051630de3b7b560e01b8152600481018390526001600160a01b0390911690630de3b7b59060240161068f565b6000828152600160205260409020610e1a82826116d2565b5060005460405163cfd3c57f60e01b81526001600160a01b039091169063cfd3c57f90610e4d9085908590600401611673565b600060405180830381600087803b158015610e6757600080fd5b505af1158015610e7b573d6000803e3d6000fd5b505050505050565b7f8a22373512790c48b83a1fe2efdd2888d4a917bcdc24d0adf63e60f67168046080546040516001600160a01b038481169216907f8be0079c531659141344cd1fd0a4f28419497f9722a3daafe3b4186f6b6457e090600090a380546001600160a01b0319166001600160a01b0392909216919091179055565b508054610f0990611523565b6000825580601f10610f19575050565b601f0160209004906000526020600020908101906103a491905b80821115610f475760008155600101610f33565b5090565b600060208284031215610f5d57600080fd5b5035919050565b6020808252825182820181905260009190848201906040850190845b81811015610f9f57835160030b83529284019291840191600101610f80565b50909695505050505050565b6020808252825182820181905260009190848201906040850190845b81811015610f9f57835183529284019291840191600101610fc7565b600060208284031215610ff557600080fd5b81356001600160a01b038116811461100c57600080fd5b9392505050565b6000815180845260005b818110156110395760208185018101518683018201520161101d565b506000602082860101526020601f19601f83011685010191505092915050565b634e487b7160e01b600052602160045260246000fd5b6000604082016040835280855180835260608501915060608160051b8601019250602080880160005b838110156110c657605f198887030185526110b4868351611013565b95509382019390820190600101611098565b50508584038187015286518085528782019482019350915060005b8281101561111b5784516022811061110957634e487b7160e01b600052602160045260246000fd5b845293810193928101926001016110e1565b5091979650505050505050565b634e487b7160e01b600052604160045260246000fd5b604051601f8201601f1916810167ffffffffffffffff8111828210171561116757611167611128565b604052919050565b600082601f83011261118057600080fd5b813567ffffffffffffffff81111561119a5761119a611128565b6111ad601f8201601f191660200161113e565b8181528460208386010111156111c257600080fd5b816020850160208301376000918101602001919091529392505050565b600080604083850312156111f257600080fd5b82359150602083013567ffffffffffffffff81111561121057600080fd5b61121c8582860161116f565b9150509250929050565b60006020828403121561123857600080fd5b813567ffffffffffffffff81111561124f57600080fd5b61125b8482850161116f565b949350505050565b60208152600061100c6020830184611013565b600067ffffffffffffffff82111561129057611290611128565b5060051b60200190565b600060208083850312156112ad57600080fd5b823567ffffffffffffffff8111156112c457600080fd5b8301601f810185136112d557600080fd5b80356112e86112e382611276565b61113e565b81815260059190911b8201830190838101908783111561130757600080fd5b928401925b8284101561133857833563ffffffff811681146113295760008081fd5b8252928401929084019061130c565b979650505050505050565b8060030b81146103a457600080fd5b6000806040838503121561136557600080fd5b8235915060208084013567ffffffffffffffff81111561138457600080fd5b8401601f8101861361139557600080fd5b80356113a36112e382611276565b81815260059190911b820183019083810190888311156113c257600080fd5b928401925b828410156113e95783356113da81611343565b825292840192908401906113c7565b80955050505050509250929050565b6000602080838503121561140b57600080fd5b825167ffffffffffffffff81111561142257600080fd5b8301601f8101851361143357600080fd5b80516114416112e382611276565b81815260059190911b8201830190838101908783111561146057600080fd5b928401925b8284101561133857835161147881611343565b82529284019290840190611465565b6000602080838503121561149a57600080fd5b825167ffffffffffffffff8111156114b157600080fd5b8301601f810185136114c257600080fd5b80516114d06112e382611276565b81815260059190911b820183019083810190878311156114ef57600080fd5b928401925b82841015611338578351825292840192908401906114f4565b634e487b7160e01b600052603260045260246000fd5b600181811c9082168061153757607f821691505b60208210810361155757634e487b7160e01b600052602260045260246000fd5b50919050565b6020808252825182820181905260009190848201906040850190845b81811015610f9f57835163ffffffff1683529284019291840191600101611579565b6000602082840312156115ad57600080fd5b8151801515811461100c57600080fd5b60008083546115cb81611523565b600182811680156115e357600181146115f857611627565b60ff1984168752821515830287019450611627565b8760005260208060002060005b8581101561161e5781548a820152908401908201611605565b50505082870194505b50929695505050505050565b60006020828403121561164557600080fd5b5051919050565b60006001820161166c57634e487b7160e01b600052601160045260246000fd5b5060010190565b82815260406020820152600061125b6040830184611013565b601f821115610dac57600081815260208120601f850160051c810160208610156116b35750805b601f850160051c820191505b81811015610e7b578281556001016116bf565b815167ffffffffffffffff8111156116ec576116ec611128565b611700816116fa8454611523565b8461168c565b602080601f831160018114611735576000841561171d5750858301515b600019600386901b1c1916600185901b178555610e7b565b600085815260208120601f198616915b8281101561176457888601518255948401946001909101908401611745565b50858210156117825787850151600019600388901b60f8161c191681555b5050505050600190811b0190555056fea2646970667358221220724008d18faa5499a41b70efe07018317242f2b3c3de08bd4e2463b922c0c7dd64736f6c63430008130033608060405234801561001057600080fd5b5061001a3361001f565b610099565b7f8a22373512790c48b83a1fe2efdd2888d4a917bcdc24d0adf63e60f67168046080546040516001600160a01b038481169216907f8be0079c531659141344cd1fd0a4f28419497f9722a3daafe3b4186f6b6457e090600090a380546001600160a01b0319166001600160a01b0392909216919091179055565b610621806100a86000396000f3fe608060405234801561001057600080fd5b50600436106100885760003560e01c80638e7cb6e11161005b5780638e7cb6e1146100f3578063949d225d1461011d578063cccf7a8e1461012e578063f2fde38b1461015157600080fd5b80631003e2d21461008d578063410d59cc146100a25780634cc82215146100c05780638da5cb5b146100d3575b600080fd5b6100a061009b36600461050b565b610164565b005b6100aa6101ef565b6040516100b79190610524565b60405180910390f35b6100a06100ce36600461050b565b610247565b6100db610374565b6040516001600160a01b0390911681526020016100b7565b61010661010136600461050b565b610383565b6040805192151583526020830191909152016100b7565b6000546040519081526020016100b7565b61014161013c36600461050b565b6103b6565b60405190151581526020016100b7565b6100a061015f366004610568565b610419565b61016c61045b565b6001600160a01b0316336001600160a01b03161461019d57604051632f7a8ee160e01b815260040160405180910390fd5b6101a6816103b6565b6101ec57600080548282526001602081905260408320829055810182559080527f290decd9548b62a8d60345a988386fc84ba6bc95484008f6362f93160ef3e563018190555b50565b6060600080548060200260200160405190810160405280929190818152602001828054801561023d57602002820191906000526020600020905b815481526020019060010190808311610229575b5050505050905090565b61024f61045b565b6001600160a01b0316336001600160a01b03161461028057604051632f7a8ee160e01b815260040160405180910390fd5b610289816103b6565b156101ec576000805461029e90600190610598565b815481106102ae576102ae6105bf565b906000526020600020015460006001600084815260200190815260200160002054815481106102df576102df6105bf565b60009182526020808320909101929092558281526001918290526040812054815490929190819084908110610316576103166105bf565b90600052602060002001548152602001908152602001600020819055506001600082815260200190815260200160002060009055600080548061035b5761035b6105d5565b6001900381819060005260206000200160009055905550565b600061037e61045b565b905090565b60008061038f836103b6565b61039e57506000928392509050565b50506000908152600160208190526040909120549091565b6000805481036103c857506000919050565b60008281526001602052604081205490036104045781600080815481106103f1576103f16105bf565b9060005260206000200154149050919050565b50600090815260016020526040902054151590565b61042161045b565b6001600160a01b0316336001600160a01b03161461045257604051632f7a8ee160e01b815260040160405180910390fd5b6101ec81610489565b7f8a22373512790c48b83a1fe2efdd2888d4a917bcdc24d0adf63e60f671680460546001600160a01b031690565b7f8a22373512790c48b83a1fe2efdd2888d4a917bcdc24d0adf63e60f67168046080546040516101ec92849290916001600160a01b038085169216907f8be0079c531659141344cd1fd0a4f28419497f9722a3daafe3b4186f6b6457e090600090a380546001600160a01b0319166001600160a01b0392909216919091179055565b60006020828403121561051d57600080fd5b5035919050565b6020808252825182820181905260009190848201906040850190845b8181101561055c57835183529284019291840191600101610540565b50909695505050505050565b60006020828403121561057a57600080fd5b81356001600160a01b038116811461059157600080fd5b9392505050565b818103818111156105b957634e487b7160e01b600052601160045260246000fd5b92915050565b634e487b7160e01b600052603260045260246000fd5b634e487b7160e01b600052603160045260246000fdfea26469706673582212209120bb0a2a9936c2c457117a2d6e08d1b5892ce4c2794940e794c00e17bf899964736f6c63430008130033608060405234801561001057600080fd5b5061001a3361001f565b610099565b7f8a22373512790c48b83a1fe2efdd2888d4a917bcdc24d0adf63e60f67168046080546040516001600160a01b038481169216907f8be0079c531659141344cd1fd0a4f28419497f9722a3daafe3b4186f6b6457e090600090a380546001600160a01b0319166001600160a01b0392909216919091179055565b610663806100a86000396000f3fe608060405234801561001057600080fd5b506004361061007d5760003560e01c806385edea131161005b57806385edea13146100d35780638da5cb5b14610101578063a0265ff814610121578063f2fde38b1461014457600080fd5b80636526db7a14610082578063771602f714610097578063796c5e94146100aa575b600080fd5b610095610090366004610531565b610157565b005b6100956100a5366004610531565b6102bd565b6100bd6100b8366004610553565b61033a565b6040516100ca919061056c565b60405180910390f35b6100f36100e1366004610553565b60009081526020819052604090205490565b6040519081526020016100ca565b61010961039a565b6040516001600160a01b0390911681526020016100ca565b61013461012f366004610531565b6103a9565b60405190151581526020016100ca565b6100956101523660046105b0565b61043c565b61015f610481565b6001600160a01b0316336001600160a01b03161461019057604051632f7a8ee160e01b815260040160405180910390fd5b61019a82826103a9565b156102b957600082815260208190526040902080546101bb906001906105e0565b815481106101cb576101cb610601565b6000918252602080832090910154848352828252604080842060018452818520868652909352909220548154811061020557610205610601565b60009182526020808320909101929092558381526001825260408082208483528084528183205486845283855291832085845293819052835491939092918490811061025357610253610601565b600091825260208083209091015483528281019390935260409182018120939093558483526001825280832084845282528083208390558483529082905290208054806102a2576102a2610617565b600190038181906000526020600020016000905590555b5050565b6102c5610481565b6001600160a01b0316336001600160a01b0316146102f657604051632f7a8ee160e01b815260040160405180910390fd5b61030082826103a9565b6102b95760009182526020828152604080842080546001808552838720868852855292862081905585845291820181558452922090910155565b6000818152602081815260409182902080548351818402810184019094528084526060939283018282801561038e57602002820191906000526020600020905b81548152602001906001019080831161037a575b50505050509050919050565b60006103a4610481565b905090565b60008281526020819052604081205481036103c657506000610436565b60008381526001602090815260408083208584529091528120549003610418576000838152602081905260408120805484929061040557610405610601565b9060005260206000200154149050610436565b50600082815260016020908152604080832084845290915290205415155b92915050565b610444610481565b6001600160a01b0316336001600160a01b03161461047557604051632f7a8ee160e01b815260040160405180910390fd5b61047e816104af565b50565b7f8a22373512790c48b83a1fe2efdd2888d4a917bcdc24d0adf63e60f671680460546001600160a01b031690565b7f8a22373512790c48b83a1fe2efdd2888d4a917bcdc24d0adf63e60f671680460805460405161047e92849290916001600160a01b038085169216907f8be0079c531659141344cd1fd0a4f28419497f9722a3daafe3b4186f6b6457e090600090a380546001600160a01b0319166001600160a01b0392909216919091179055565b6000806040838503121561054457600080fd5b50508035926020909101359150565b60006020828403121561056557600080fd5b5035919050565b6020808252825182820181905260009190848201906040850190845b818110156105a457835183529284019291840191600101610588565b50909695505050505050565b6000602082840312156105c257600080fd5b81356001600160a01b03811681146105d957600080fd5b9392505050565b8181038181111561043657634e487b7160e01b600052601160045260246000fd5b634e487b7160e01b600052603260045260246000fd5b634e487b7160e01b600052603160045260246000fdfea26469706673582212204fe0e51f850fe860844b3ef4690dbe2f4106d195a4c983b0ea09e2b1f7ab027564736f6c634300081300338a22373512790c48b83a1fe2efdd2888d4a917bcdc24d0adf63e60f671680460",
    "linkReferences": {}
  },
  "methodIdentifiers": {
    "authorizeWriter(address)": "4fef6a38",
    "getEntities()": "31b933b9",
    "getEntitiesWithValue(bytes)": "b361be46",
    "getEntitiesWithValue(uint32[])": "bd2746e7",
    "getRawValue(uint256)": "b8bc073d",
    "getSchema()": "6b122fe0",
    "getValue(uint256)": "0ff4c916",
    "has(uint256)": "cccf7a8e",
    "id()": "af640d0f",
    "owner()": "8da5cb5b",
    "registerIndexer(address)": "75c0669c",
    "registerWorld(address)": "9d2c76b4",
    "remove(uint256)": "4cc82215",
    "set(uint256,bytes)": "8b282947",
    "set(uint256,int32[])": "c3efb537",
    "transferOwnership(address)": "f2fde38b",
    "unauthorizeWriter(address)": "bf4fe57e",
    "world()": "30b67baa",
    "writeAccess(address)": "861eb905"
  },
  "id": 110
}