{
  "abi": [
    {
      "inputs": [
        {
          "internalType": "address",
          "name": "world",
          "type": "address"
        }
      ],
      "stateMutability": "nonpayable",
      "type": "constructor"
    },
    {
      "inputs": [],
      "name": "BareComponent__NotImplemented",
      "type": "error"
    },
    {
      "inputs": [],
      "name": "OwnableWritable__NotWriter",
      "type": "error"
    },
    {
      "inputs": [],
      "name": "Ownable__NotOwner",
      "type": "error"
    },
    {
      "inputs": [],
      "name": "Ownable__NotTransitiveOwner",
      "type": "error"
    },
    {
      "anonymous": false,
      "inputs": [
        {
          "indexed": true,
          "internalType": "address",
          "name": "previousOwner",
          "type": "address"
        },
        {
          "indexed": true,
          "internalType": "address",
          "name": "newOwner",
          "type": "address"
        }
      ],
      "name": "OwnershipTransferred",
      "type": "event"
    },
    {
      "inputs": [
        {
          "internalType": "address",
          "name": "writer",
          "type": "address"
        }
      ],
      "name": "authorizeWriter",
      "outputs": [],
      "stateMutability": "nonpayable",
      "type": "function"
    },
    {
      "inputs": [],
      "name": "getEntities",
      "outputs": [
        {
          "internalType": "uint256[]",
          "name": "",
          "type": "uint256[]"
        }
      ],
      "stateMutability": "view",
      "type": "function"
    },
    {
      "inputs": [
        {
          "internalType": "bytes",
          "name": "value",
          "type": "bytes"
        }
      ],
      "name": "getEntitiesWithValue",
      "outputs": [
        {
          "internalType": "uint256[]",
          "name": "",
          "type": "uint256[]"
        }
      ],
      "stateMutability": "view",
      "type": "function"
    },
    {
      "inputs": [
        {
          "components": [
            {
              "internalType": "int32",
              "name": "x",
              "type": "int32"
            },
            {
              "internalType": "int32",
              "name": "y",
              "type": "int32"
            },
            {
              "internalType": "uint256",
              "name": "parent",
              "type": "uint256"
            }
          ],
          "internalType": "struct Coord",
          "name": "coord",
          "type": "tuple"
        }
      ],
      "name": "getEntitiesWithValue",
      "outputs": [
        {
          "internalType": "uint256[]",
          "name": "",
          "type": "uint256[]"
        }
      ],
      "stateMutability": "view",
      "type": "function"
    },
    {
      "inputs": [
        {
          "internalType": "uint256",
          "name": "entity",
          "type": "uint256"
        }
      ],
      "name": "getRawValue",
      "outputs": [
        {
          "internalType": "bytes",
          "name": "",
          "type": "bytes"
        }
      ],
      "stateMutability": "view",
      "type": "function"
    },
    {
      "inputs": [],
      "name": "getSchema",
      "outputs": [
        {
          "internalType": "string[]",
          "name": "keys",
          "type": "string[]"
        },
        {
          "internalType": "enum LibTypes.SchemaValue[]",
          "name": "values",
          "type": "uint8[]"
        }
      ],
      "stateMutability": "pure",
      "type": "function"
    },
    {
      "inputs": [
        {
          "internalType": "uint256",
          "name": "entity",
          "type": "uint256"
        }
      ],
      "name": "getValue",
      "outputs": [
        {
          "components": [
            {
              "internalType": "int32",
              "name": "x",
              "type": "int32"
            },
            {
              "internalType": "int32",
              "name": "y",
              "type": "int32"
            },
            {
              "internalType": "uint256",
              "name": "parent",
              "type": "uint256"
            }
          ],
          "internalType": "struct Coord",
          "name": "",
          "type": "tuple"
        }
      ],
      "stateMutability": "view",
      "type": "function"
    },
    {
      "inputs": [
        {
          "internalType": "uint256",
          "name": "entity",
          "type": "uint256"
        }
      ],
      "name": "has",
      "outputs": [
        {
          "internalType": "bool",
          "name": "",
          "type": "bool"
        }
      ],
      "stateMutability": "view",
      "type": "function"
    },
    {
      "inputs": [],
      "name": "id",
      "outputs": [
        {
          "internalType": "uint256",
          "name": "",
          "type": "uint256"
        }
      ],
      "stateMutability": "view",
      "type": "function"
    },
    {
      "inputs": [],
      "name": "owner",
      "outputs": [
        {
          "internalType": "address",
          "name": "",
          "type": "address"
        }
      ],
      "stateMutability": "view",
      "type": "function"
    },
    {
      "inputs": [
        {
          "internalType": "address",
          "name": "indexer",
          "type": "address"
        }
      ],
      "name": "registerIndexer",
      "outputs": [],
      "stateMutability": "nonpayable",
      "type": "function"
    },
    {
      "inputs": [
        {
          "internalType": "address",
          "name": "_world",
          "type": "address"
        }
      ],
      "name": "registerWorld",
      "outputs": [],
      "stateMutability": "nonpayable",
      "type": "function"
    },
    {
      "inputs": [
        {
          "internalType": "uint256",
          "name": "entity",
          "type": "uint256"
        }
      ],
      "name": "remove",
      "outputs": [],
      "stateMutability": "nonpayable",
      "type": "function"
    },
    {
      "inputs": [
        {
          "internalType": "uint256",
          "name": "entity",
          "type": "uint256"
        },
        {
          "internalType": "int32",
          "name": "x",
          "type": "int32"
        },
        {
          "internalType": "int32",
          "name": "y",
          "type": "int32"
        },
        {
          "internalType": "uint256",
          "name": "parent",
          "type": "uint256"
        }
      ],
      "name": "set",
      "outputs": [],
      "stateMutability": "nonpayable",
      "type": "function"
    },
    {
      "inputs": [
        {
          "internalType": "uint256",
          "name": "entity",
          "type": "uint256"
        },
        {
          "internalType": "bytes",
          "name": "value",
          "type": "bytes"
        }
      ],
      "name": "set",
      "outputs": [],
      "stateMutability": "nonpayable",
      "type": "function"
    },
    {
      "inputs": [
        {
          "internalType": "uint256",
          "name": "entity",
          "type": "uint256"
        },
        {
          "components": [
            {
              "internalType": "int32",
              "name": "x",
              "type": "int32"
            },
            {
              "internalType": "int32",
              "name": "y",
              "type": "int32"
            },
            {
              "internalType": "uint256",
              "name": "parent",
              "type": "uint256"
            }
          ],
          "internalType": "struct Coord",
          "name": "value",
          "type": "tuple"
        }
      ],
      "name": "set",
      "outputs": [],
      "stateMutability": "nonpayable",
      "type": "function"
    },
    {
      "inputs": [
        {
          "internalType": "address",
          "name": "account",
          "type": "address"
        }
      ],
      "name": "transferOwnership",
      "outputs": [],
      "stateMutability": "nonpayable",
      "type": "function"
    },
    {
      "inputs": [
        {
          "internalType": "address",
          "name": "writer",
          "type": "address"
        }
      ],
      "name": "unauthorizeWriter",
      "outputs": [],
      "stateMutability": "nonpayable",
      "type": "function"
    },
    {
      "inputs": [],
      "name": "world",
      "outputs": [
        {
          "internalType": "address",
          "name": "",
          "type": "address"
        }
      ],
      "stateMutability": "view",
      "type": "function"
    },
    {
      "inputs": [
        {
          "internalType": "address",
          "name": "operator",
          "type": "address"
        }
      ],
      "name": "writeAccess",
      "outputs": [
        {
          "internalType": "bool",
          "name": "",
          "type": "bool"
        }
      ],
      "stateMutability": "view",
      "type": "function"
    }
  ],
  "bytecode": {
    "object": "0x60806040523480156200001157600080fd5b506040516200323538038062003235833981016040819052620000349162000262565b807f49a4584d9706380e35459e1f31e673445371b5bac20aa516f8ba8650b18431068181620000633362000127565b60028190556001600160a01b038216156200008357620000838262000190565b5050604051620000939062000246565b604051809103906000f080158015620000b0573d6000803e3d6000fd5b50600380546001600160a01b0319166001600160a01b0392909216919091179055604051620000df9062000254565b604051809103906000f080158015620000fc573d6000803e3d6000fd5b50600480546001600160a01b0319166001600160a01b03929092169190911790555062000294915050565b6000805160206200321583398151915280546040516001600160a01b038481169216907f8be0079c531659141344cd1fd0a4f28419497f9722a3daafe3b4186f6b6457e090600090a380546001600160a01b0319166001600160a01b0392909216919091179055565b60008051602062003215833981519152546001600160a01b03163314620001ca57604051632f7a8ee160e01b815260040160405180910390fd5b600080546001600160a01b0319166001600160a01b038316908117909155600254604051630f30347760e41b8152306004820152602481019190915263f303477090604401600060405180830381600087803b1580156200022a57600080fd5b505af11580156200023f573d6000803e3d6000fd5b5050505050565b61080880620021be83390190565b61084f80620029c683390190565b6000602082840312156200027557600080fd5b81516001600160a01b03811681146200028d57600080fd5b9392505050565b611f1a80620002a46000396000f3fe608060405234801561001057600080fd5b506004361061016c5760003560e01c80638d10d6de116100cd578063b8bc073d11610081578063cccf7a8e11610066578063cccf7a8e14610332578063e8c1773414610345578063f2fde38b1461035857600080fd5b8063b8bc073d146102ff578063bf4fe57e1461031f57600080fd5b80639d2c76b4116100b25780639d2c76b4146102c2578063af640d0f146102d5578063b361be46146102ec57600080fd5b80638d10d6de146102a75780638da5cb5b146102ba57600080fd5b80634fef6a381161012457806375c0669c1161010957806375c0669c1461025e578063861eb905146102715780638b2829471461029457600080fd5b80634fef6a38146102355780636b122fe01461024857600080fd5b806330b67baa1161015557806330b67baa146101c857806331b933b91461020d5780634cc822151461022257600080fd5b80630ff4c916146101715780632e780b0d146101b3575b600080fd5b61018461017f366004611624565b61036b565b604080518251600390810b825260208085015190910b9082015291810151908201526060015b60405180910390f35b6101c66101c136600461164c565b6103d0565b005b6000546101e89073ffffffffffffffffffffffffffffffffffffffff1681565b60405173ffffffffffffffffffffffffffffffffffffffff90911681526020016101aa565b610215610435565b6040516101aa9190611694565b6101c6610230366004611624565b6104f0565b6101c66102433660046116d8565b61053b565b610250610619565b6040516101aa9291906117a8565b6101c661026c3660046116d8565b610839565b61028461027f3660046116d8565b6108ef565b60405190151581526020016101aa565b6101c66102a23660046119a4565b61097a565b6101c66102b5366004611a03565b6109c7565b6101e86109dc565b6101c66102d03660046116d8565b610a1c565b6102de60025481565b6040519081526020016101aa565b6102156102fa366004611a30565b610b45565b61031261030d366004611624565b610c02565b6040516101aa9190611a6d565b6101c661032d3660046116d8565b610ca4565b610284610340366004611624565b610d7f565b610215610353366004611a80565b610e13565b6101c66103663660046116d8565b610e3d565b6040805160608101825260008082526020820181905291810182905290808061039385610c02565b8060200190518101906103a69190611a9c565b60408051606081018252600394850b81529290930b60208301529181019190915295945050505050565b6040805160608082018352600386810b80845286820b60208086019182529486018781528651958601929092525190910b9383019390935291519181019190915261042f9085906080015b60405160208183030381529060405261097a565b50505050565b600354604080517f410d59cc000000000000000000000000000000000000000000000000000000008152905160609273ffffffffffffffffffffffffffffffffffffffff169163410d59cc9160048083019260009291908290030181865afa1580156104a5573d6000803e3d6000fd5b505050506040513d6000823e601f3d9081017fffffffffffffffffffffffffffffffffffffffffffffffffffffffffffffffe01682016040526104eb9190810190611adf565b905090565b6104f9336108ef565b61052f576040517f406ed3da00000000000000000000000000000000000000000000000000000000815260040160405180910390fd5b61053881610eb6565b50565b7f8a22373512790c48b83a1fe2efdd2888d4a917bcdc24d0adf63e60f6716804605473ffffffffffffffffffffffffffffffffffffffff1633146105ab576040517f2f7a8ee100000000000000000000000000000000000000000000000000000000815260040160405180910390fd5b73ffffffffffffffffffffffffffffffffffffffff1660009081527f8ffeadc5cba727b8cc3cdef48739619490ea317fdb3baae1259089d06f92c9096020526040902080547fffffffffffffffffffffffffffffffffffffffffffffffffffffffffffffff00166001179055565b60408051600380825260808201909252606091829190816020015b606081526020019060019003908161063457505060408051600380825260808201909252919350602082016060803683370190505090506040518060400160405280600181526020017f7800000000000000000000000000000000000000000000000000000000000000815250826000815181106106b4576106b4611b85565b60200260200101819052506003816000815181106106d4576106d4611b85565b602002602001019060218111156106ed576106ed611779565b9081602181111561070057610700611779565b815250506040518060400160405280600181526020017f79000000000000000000000000000000000000000000000000000000000000008152508260018151811061074d5761074d611b85565b602002602001018190525060038160018151811061076d5761076d611b85565b6020026020010190602181111561078657610786611779565b9081602181111561079957610799611779565b815250506040518060400160405280600681526020017f706172656e740000000000000000000000000000000000000000000000000000815250826002815181106107e6576107e6611b85565b6020026020010181905250600d8160028151811061080657610806611b85565b6020026020010190602181111561081f5761081f611779565b9081602181111561083257610832611779565b9052509091565b610842336108ef565b610878576040517f406ed3da00000000000000000000000000000000000000000000000000000000815260040160405180910390fd5b600580546001810182556000919091527f036b6384b5eca791c62761152d0c79bb0604c104a5fb6f4eb0703f3154bb3db00180547fffffffffffffffffffffffff00000000000000000000000000000000000000001673ffffffffffffffffffffffffffffffffffffffff92909216919091179055565b73ffffffffffffffffffffffffffffffffffffffff811660009081527f8ffeadc5cba727b8cc3cdef48739619490ea317fdb3baae1259089d06f92c909602052604081205460ff168061097457506109456109dc565b73ffffffffffffffffffffffffffffffffffffffff168273ffffffffffffffffffffffffffffffffffffffff16145b92915050565b610983336108ef565b6109b9576040517f406ed3da00000000000000000000000000000000000000000000000000000000815260040160405180910390fd5b6109c38282611175565b5050565b6109c3828260405160200161041b9190611bb4565b60006104eb7f8a22373512790c48b83a1fe2efdd2888d4a917bcdc24d0adf63e60f6716804605473ffffffffffffffffffffffffffffffffffffffff1690565b7f8a22373512790c48b83a1fe2efdd2888d4a917bcdc24d0adf63e60f6716804605473ffffffffffffffffffffffffffffffffffffffff163314610a8c576040517f2f7a8ee100000000000000000000000000000000000000000000000000000000815260040160405180910390fd5b600080547fffffffffffffffffffffffff00000000000000000000000000000000000000001673ffffffffffffffffffffffffffffffffffffffff83169081179091556002546040517ff3034770000000000000000000000000000000000000000000000000000000008152306004820152602481019190915263f3034770906044015b600060405180830381600087803b158015610b2a57600080fd5b505af1158015610b3e573d6000803e3d6000fd5b5050505050565b60048054825160208401206040517f796c5e940000000000000000000000000000000000000000000000000000000081529283015260609173ffffffffffffffffffffffffffffffffffffffff9091169063796c5e9490602401600060405180830381865afa158015610bbc573d6000803e3d6000fd5b505050506040513d6000823e601f3d9081017fffffffffffffffffffffffffffffffffffffffffffffffffffffffffffffffe01682016040526109749190810190611adf565b6000818152600160205260409020805460609190610c1f90611bf0565b80601f0160208091040260200160405190810160405280929190818152602001828054610c4b90611bf0565b8015610c985780601f10610c6d57610100808354040283529160200191610c98565b820191906000526020600020905b815481529060010190602001808311610c7b57829003601f168201915b50505050509050919050565b7f8a22373512790c48b83a1fe2efdd2888d4a917bcdc24d0adf63e60f6716804605473ffffffffffffffffffffffffffffffffffffffff163314610d14576040517f2f7a8ee100000000000000000000000000000000000000000000000000000000815260040160405180910390fd5b73ffffffffffffffffffffffffffffffffffffffff1660009081527f8ffeadc5cba727b8cc3cdef48739619490ea317fdb3baae1259089d06f92c9096020526040902080547fffffffffffffffffffffffffffffffffffffffffffffffffffffffffffffff00169055565b6003546040517fcccf7a8e0000000000000000000000000000000000000000000000000000000081526004810183905260009173ffffffffffffffffffffffffffffffffffffffff169063cccf7a8e90602401602060405180830381865afa158015610def573d6000803e3d6000fd5b505050506040513d601f19601f820116820180604052508101906109749190611c3d565b606061097482604051602001610e299190611bb4565b604051602081830303815290604052610b45565b7f8a22373512790c48b83a1fe2efdd2888d4a917bcdc24d0adf63e60f6716804605473ffffffffffffffffffffffffffffffffffffffff163314610ead576040517f2f7a8ee100000000000000000000000000000000000000000000000000000000815260040160405180910390fd5b6105388161140c565b60045460008281526001602052604090819020905173ffffffffffffffffffffffffffffffffffffffff909216916385edea1391610ef391611c5f565b60405190819003812060e083901b7fffffffff000000000000000000000000000000000000000000000000000000001682526004820152602401602060405180830381865afa158015610f4a573d6000803e3d6000fd5b505050506040513d601f19601f82011682018060405250810190610f6e9190611cf3565b600003610f785750565b60045460008281526001602052604090819020905173ffffffffffffffffffffffffffffffffffffffff90921691636526db7a91610fb591611c5f565b60405190819003812060e083901b7fffffffff00000000000000000000000000000000000000000000000000000000168252600482015260248101849052604401600060405180830381600087803b15801561101057600080fd5b505af1158015611024573d6000803e3d6000fd5b50506003546040517f4cc822150000000000000000000000000000000000000000000000000000000081526004810185905273ffffffffffffffffffffffffffffffffffffffff9091169250634cc822159150602401600060405180830381600087803b15801561109457600080fd5b505af11580156110a8573d6000803e3d6000fd5b505050506110b581611415565b60005b6005548110156109c357600581815481106110d5576110d5611b85565b6000918252602090912001546040517f4cc822150000000000000000000000000000000000000000000000000000000081526004810184905273ffffffffffffffffffffffffffffffffffffffff90911690634cc8221590602401600060405180830381600087803b15801561114a57600080fd5b505af115801561115e573d6000803e3d6000fd5b50505050808061116d90611d0c565b9150506110b8565b6003546040517f1003e2d20000000000000000000000000000000000000000000000000000000081526004810184905273ffffffffffffffffffffffffffffffffffffffff90911690631003e2d290602401600060405180830381600087803b1580156111e157600080fd5b505af11580156111f5573d6000803e3d6000fd5b505060045460008581526001602052604090819020905173ffffffffffffffffffffffffffffffffffffffff9092169350636526db7a925061123691611c5f565b60405190819003812060e083901b7fffffffff00000000000000000000000000000000000000000000000000000000168252600482015260248101859052604401600060405180830381600087803b15801561129157600080fd5b505af11580156112a5573d6000803e3d6000fd5b505060048054845160208601206040517f771602f7000000000000000000000000000000000000000000000000000000008152928301526024820186905273ffffffffffffffffffffffffffffffffffffffff16925063771602f79150604401600060405180830381600087803b15801561131f57600080fd5b505af1158015611333573d6000803e3d6000fd5b505050506113418282611483565b60005b600554811015611407576005818154811061136157611361611b85565b6000918252602090912001546040517f0216b83800000000000000000000000000000000000000000000000000000000815273ffffffffffffffffffffffffffffffffffffffff90911690630216b838906113c29086908690600401611d6b565b600060405180830381600087803b1580156113dc57600080fd5b505af11580156113f0573d6000803e3d6000fd5b5050505080806113ff90611d0c565b915050611344565b505050565b6105388161152a565b600081815260016020526040812061142c916115d6565b6000546040517f0de3b7b50000000000000000000000000000000000000000000000000000000081526004810183905273ffffffffffffffffffffffffffffffffffffffff90911690630de3b7b590602401610b10565b600082815260016020526040902061149b8282611dca565b506000546040517fcfd3c57f00000000000000000000000000000000000000000000000000000000815273ffffffffffffffffffffffffffffffffffffffff9091169063cfd3c57f906114f49085908590600401611d6b565b600060405180830381600087803b15801561150e57600080fd5b505af1158015611522573d6000803e3d6000fd5b505050505050565b7f8a22373512790c48b83a1fe2efdd2888d4a917bcdc24d0adf63e60f671680460805460405173ffffffffffffffffffffffffffffffffffffffff8481169216907f8be0079c531659141344cd1fd0a4f28419497f9722a3daafe3b4186f6b6457e090600090a380547fffffffffffffffffffffffff00000000000000000000000000000000000000001673ffffffffffffffffffffffffffffffffffffffff92909216919091179055565b5080546115e290611bf0565b6000825580601f106115f2575050565b601f01602090049060005260206000209081019061053891905b80821115611620576000815560010161160c565b5090565b60006020828403121561163657600080fd5b5035919050565b8060030b811461053857600080fd5b6000806000806080858703121561166257600080fd5b8435935060208501356116748161163d565b925060408501356116848161163d565b9396929550929360600135925050565b6020808252825182820181905260009190848201906040850190845b818110156116cc578351835292840192918401916001016116b0565b50909695505050505050565b6000602082840312156116ea57600080fd5b813573ffffffffffffffffffffffffffffffffffffffff8116811461170e57600080fd5b9392505050565b6000815180845260005b8181101561173b5760208185018101518683018201520161171f565b5060006020828601015260207fffffffffffffffffffffffffffffffffffffffffffffffffffffffffffffffe0601f83011685010191505092915050565b7f4e487b7100000000000000000000000000000000000000000000000000000000600052602160045260246000fd5b6000604082016040835280855180835260608501915060608160051b8601019250602080880160005b8381101561181d577fffffffffffffffffffffffffffffffffffffffffffffffffffffffffffffffa088870301855261180b868351611715565b955093820193908201906001016117d1565b50508584038187015286518085528782019482019350915060005b8281101561188b57845160228110611879577f4e487b7100000000000000000000000000000000000000000000000000000000600052602160045260246000fd5b84529381019392810192600101611838565b5091979650505050505050565b7f4e487b7100000000000000000000000000000000000000000000000000000000600052604160045260246000fd5b604051601f82017fffffffffffffffffffffffffffffffffffffffffffffffffffffffffffffffe016810167ffffffffffffffff8111828210171561190e5761190e611898565b604052919050565b600082601f83011261192757600080fd5b813567ffffffffffffffff81111561194157611941611898565b61197260207fffffffffffffffffffffffffffffffffffffffffffffffffffffffffffffffe0601f840116016118c7565b81815284602083860101111561198757600080fd5b816020850160208301376000918101602001919091529392505050565b600080604083850312156119b757600080fd5b82359150602083013567ffffffffffffffff8111156119d557600080fd5b6119e185828601611916565b9150509250929050565b6000606082840312156119fd57600080fd5b50919050565b60008060808385031215611a1657600080fd5b82359150611a2784602085016119eb565b90509250929050565b600060208284031215611a4257600080fd5b813567ffffffffffffffff811115611a5957600080fd5b611a6584828501611916565b949350505050565b60208152600061170e6020830184611715565b600060608284031215611a9257600080fd5b61170e83836119eb565b600080600060608486031215611ab157600080fd5b8351611abc8161163d565b6020850151909350611acd8161163d565b80925050604084015190509250925092565b60006020808385031215611af257600080fd5b825167ffffffffffffffff80821115611b0a57600080fd5b818501915085601f830112611b1e57600080fd5b815181811115611b3057611b30611898565b8060051b9150611b418483016118c7565b8181529183018401918481019088841115611b5b57600080fd5b938501935b83851015611b7957845182529385019390850190611b60565b98975050505050505050565b7f4e487b7100000000000000000000000000000000000000000000000000000000600052603260045260246000fd5b606081018235611bc38161163d565b60030b82526020830135611bd68161163d565b8060030b6020840152506040830135604083015292915050565b600181811c90821680611c0457607f821691505b6020821081036119fd577f4e487b7100000000000000000000000000000000000000000000000000000000600052602260045260246000fd5b600060208284031215611c4f57600080fd5b8151801515811461170e57600080fd5b6000808354611c6d81611bf0565b60018281168015611c855760018114611cb857611ce7565b7fffffffffffffffffffffffffffffffffffffffffffffffffffffffffffffff0084168752821515830287019450611ce7565b8760005260208060002060005b85811015611cde5781548a820152908401908201611cc5565b50505082870194505b50929695505050505050565b600060208284031215611d0557600080fd5b5051919050565b60007fffffffffffffffffffffffffffffffffffffffffffffffffffffffffffffffff8203611d64577f4e487b7100000000000000000000000000000000000000000000000000000000600052601160045260246000fd5b5060010190565b828152604060208201526000611a656040830184611715565b601f82111561140757600081815260208120601f850160051c81016020861015611dab5750805b601f850160051c820191505b8181101561152257828155600101611db7565b815167ffffffffffffffff811115611de457611de4611898565b611df881611df28454611bf0565b84611d84565b602080601f831160018114611e4b5760008415611e155750858301515b7fffffffffffffffffffffffffffffffffffffffffffffffffffffffffffffffff600386901b1c1916600185901b178555611522565b6000858152602081207fffffffffffffffffffffffffffffffffffffffffffffffffffffffffffffffe08616915b82811015611e9857888601518255948401946001909101908401611e79565b5085821015611ed457878501517fffffffffffffffffffffffffffffffffffffffffffffffffffffffffffffffff600388901b60f8161c191681555b5050505050600190811b0190555056fea264697066735822122073b357cbeabbc1b2ded474f38cb3be40823f56e4f9b871257675e2ebe80d420e64736f6c63430008130033608060405234801561001057600080fd5b5061001a3361001f565b610099565b7f8a22373512790c48b83a1fe2efdd2888d4a917bcdc24d0adf63e60f67168046080546040516001600160a01b038481169216907f8be0079c531659141344cd1fd0a4f28419497f9722a3daafe3b4186f6b6457e090600090a380546001600160a01b0319166001600160a01b0392909216919091179055565b610760806100a86000396000f3fe608060405234801561001057600080fd5b50600436106100885760003560e01c80638e7cb6e11161005b5780638e7cb6e114610100578063949d225d1461012a578063cccf7a8e1461013b578063f2fde38b1461015e57600080fd5b80631003e2d21461008d578063410d59cc146100a25780634cc82215146100c05780638da5cb5b146100d3575b600080fd5b6100a061009b3660046105f2565b610171565b005b6100aa610233565b6040516100b7919061060b565b60405180910390f35b6100a06100ce3660046105f2565b61028b565b6100db6103ef565b60405173ffffffffffffffffffffffffffffffffffffffff90911681526020016100b7565b61011361010e3660046105f2565b610434565b6040805192151583526020830191909152016100b7565b6000546040519081526020016100b7565b61014e6101493660046105f2565b610467565b60405190151581526020016100b7565b6100a061016c36600461064f565b6104ca565b7f8a22373512790c48b83a1fe2efdd2888d4a917bcdc24d0adf63e60f6716804605473ffffffffffffffffffffffffffffffffffffffff1633146101e1576040517f2f7a8ee100000000000000000000000000000000000000000000000000000000815260040160405180910390fd5b6101ea81610467565b61023057600080548282526001602081905260408320829055810182559080527f290decd9548b62a8d60345a988386fc84ba6bc95484008f6362f93160ef3e563018190555b50565b6060600080548060200260200160405190810160405280929190818152602001828054801561028157602002820191906000526020600020905b81548152602001906001019080831161026d575b5050505050905090565b7f8a22373512790c48b83a1fe2efdd2888d4a917bcdc24d0adf63e60f6716804605473ffffffffffffffffffffffffffffffffffffffff1633146102fb576040517f2f7a8ee100000000000000000000000000000000000000000000000000000000815260040160405180910390fd5b61030481610467565b1561023057600080546103199060019061068c565b81548110610329576103296106cc565b9060005260206000200154600060016000848152602001908152602001600020548154811061035a5761035a6106cc565b60009182526020808320909101929092558281526001918290526040812054815490929190819084908110610391576103916106cc565b9060005260206000200154815260200190815260200160002081905550600160008281526020019081526020016000206000905560008054806103d6576103d66106fb565b6001900381819060005260206000200160009055905550565b600061042f7f8a22373512790c48b83a1fe2efdd2888d4a917bcdc24d0adf63e60f6716804605473ffffffffffffffffffffffffffffffffffffffff1690565b905090565b60008061044083610467565b61044f57506000928392509050565b50506000908152600160208190526040909120549091565b60008054810361047957506000919050565b60008281526001602052604081205490036104b55781600080815481106104a2576104a26106cc565b9060005260206000200154149050919050565b50600090815260016020526040902054151590565b7f8a22373512790c48b83a1fe2efdd2888d4a917bcdc24d0adf63e60f6716804605473ffffffffffffffffffffffffffffffffffffffff16331461053a576040517f2f7a8ee100000000000000000000000000000000000000000000000000000000815260040160405180910390fd5b610230817f8a22373512790c48b83a1fe2efdd2888d4a917bcdc24d0adf63e60f6716804608054604051610230928492909173ffffffffffffffffffffffffffffffffffffffff8085169216907f8be0079c531659141344cd1fd0a4f28419497f9722a3daafe3b4186f6b6457e090600090a380547fffffffffffffffffffffffff00000000000000000000000000000000000000001673ffffffffffffffffffffffffffffffffffffffff92909216919091179055565b60006020828403121561060457600080fd5b5035919050565b6020808252825182820181905260009190848201906040850190845b8181101561064357835183529284019291840191600101610627565b50909695505050505050565b60006020828403121561066157600080fd5b813573ffffffffffffffffffffffffffffffffffffffff8116811461068557600080fd5b9392505050565b818103818111156106c6577f4e487b7100000000000000000000000000000000000000000000000000000000600052601160045260246000fd5b92915050565b7f4e487b7100000000000000000000000000000000000000000000000000000000600052603260045260246000fd5b7f4e487b7100000000000000000000000000000000000000000000000000000000600052603160045260246000fdfea26469706673582212208376a7e0401692d59a5472ac89a0e7e4128083ce175c9ba341545004fdabc71864736f6c63430008130033608060405234801561001057600080fd5b5061001a3361001f565b610099565b7f8a22373512790c48b83a1fe2efdd2888d4a917bcdc24d0adf63e60f67168046080546040516001600160a01b038481169216907f8be0079c531659141344cd1fd0a4f28419497f9722a3daafe3b4186f6b6457e090600090a380546001600160a01b0319166001600160a01b0392909216919091179055565b6107a7806100a86000396000f3fe608060405234801561001057600080fd5b506004361061007d5760003560e01c806385edea131161005b57806385edea13146100d35780638da5cb5b14610101578063a0265ff81461012e578063f2fde38b1461015157600080fd5b80636526db7a14610082578063771602f714610097578063796c5e94146100aa575b600080fd5b61009561009036600461061d565b610164565b005b6100956100a536600461061d565b610301565b6100bd6100b836600461063f565b6103b5565b6040516100ca9190610658565b60405180910390f35b6100f36100e136600461063f565b60009081526020819052604090205490565b6040519081526020016100ca565b610109610415565b60405173ffffffffffffffffffffffffffffffffffffffff90911681526020016100ca565b61014161013c36600461061d565b61045a565b60405190151581526020016100ca565b61009561015f36600461069c565b6104ed565b7f8a22373512790c48b83a1fe2efdd2888d4a917bcdc24d0adf63e60f6716804605473ffffffffffffffffffffffffffffffffffffffff1633146101d4576040517f2f7a8ee100000000000000000000000000000000000000000000000000000000815260040160405180910390fd5b6101de828261045a565b156102fd57600082815260208190526040902080546101ff906001906106d9565b8154811061020f5761020f610713565b6000918252602080832090910154848352828252604080842060018452818520868652909352909220548154811061024957610249610713565b60009182526020808320909101929092558381526001825260408082208483528084528183205486845283855291832085845293819052835491939092918490811061029757610297610713565b600091825260208083209091015483528281019390935260409182018120939093558483526001825280832084845282528083208390558483529082905290208054806102e6576102e6610742565b600190038181906000526020600020016000905590555b5050565b7f8a22373512790c48b83a1fe2efdd2888d4a917bcdc24d0adf63e60f6716804605473ffffffffffffffffffffffffffffffffffffffff163314610371576040517f2f7a8ee100000000000000000000000000000000000000000000000000000000815260040160405180910390fd5b61037b828261045a565b6102fd5760009182526020828152604080842080546001808552838720868852855292862081905585845291820181558452922090910155565b6000818152602081815260409182902080548351818402810184019094528084526060939283018282801561040957602002820191906000526020600020905b8154815260200190600101908083116103f5575b50505050509050919050565b60006104557f8a22373512790c48b83a1fe2efdd2888d4a917bcdc24d0adf63e60f6716804605473ffffffffffffffffffffffffffffffffffffffff1690565b905090565b6000828152602081905260408120548103610477575060006104e7565b600083815260016020908152604080832085845290915281205490036104c957600083815260208190526040812080548492906104b6576104b6610713565b90600052602060002001541490506104e7565b50600082815260016020908152604080832084845290915290205415155b92915050565b7f8a22373512790c48b83a1fe2efdd2888d4a917bcdc24d0adf63e60f6716804605473ffffffffffffffffffffffffffffffffffffffff16331461055d576040517f2f7a8ee100000000000000000000000000000000000000000000000000000000815260040160405180910390fd5b61056681610569565b50565b7f8a22373512790c48b83a1fe2efdd2888d4a917bcdc24d0adf63e60f6716804608054604051610566928492909173ffffffffffffffffffffffffffffffffffffffff8085169216907f8be0079c531659141344cd1fd0a4f28419497f9722a3daafe3b4186f6b6457e090600090a380547fffffffffffffffffffffffff00000000000000000000000000000000000000001673ffffffffffffffffffffffffffffffffffffffff92909216919091179055565b6000806040838503121561063057600080fd5b50508035926020909101359150565b60006020828403121561065157600080fd5b5035919050565b6020808252825182820181905260009190848201906040850190845b8181101561069057835183529284019291840191600101610674565b50909695505050505050565b6000602082840312156106ae57600080fd5b813573ffffffffffffffffffffffffffffffffffffffff811681146106d257600080fd5b9392505050565b818103818111156104e7577f4e487b7100000000000000000000000000000000000000000000000000000000600052601160045260246000fd5b7f4e487b7100000000000000000000000000000000000000000000000000000000600052603260045260246000fd5b7f4e487b7100000000000000000000000000000000000000000000000000000000600052603160045260246000fdfea26469706673582212207a1245568005055446e762bc1e1bb0c92e55cfb387e50143b65d6848b835a86464736f6c634300081300338a22373512790c48b83a1fe2efdd2888d4a917bcdc24d0adf63e60f671680460",
    "linkReferences": {}
  },
  "methodIdentifiers": {
    "authorizeWriter(address)": "4fef6a38",
    "getEntities()": "31b933b9",
    "getEntitiesWithValue((int32,int32,uint256))": "e8c17734",
    "getEntitiesWithValue(bytes)": "b361be46",
    "getRawValue(uint256)": "b8bc073d",
    "getSchema()": "6b122fe0",
    "getValue(uint256)": "0ff4c916",
    "has(uint256)": "cccf7a8e",
    "id()": "af640d0f",
    "owner()": "8da5cb5b",
    "registerIndexer(address)": "75c0669c",
    "registerWorld(address)": "9d2c76b4",
    "remove(uint256)": "4cc82215",
    "set(uint256,(int32,int32,uint256))": "8d10d6de",
    "set(uint256,bytes)": "8b282947",
    "set(uint256,int32,int32,uint256)": "2e780b0d",
    "transferOwnership(address)": "f2fde38b",
    "unauthorizeWriter(address)": "bf4fe57e",
    "world()": "30b67baa",
    "writeAccess(address)": "861eb905"
  },
  "id": 113
}