{
  "abi": [
    {
      "inputs": [
        {
          "internalType": "address",
          "name": "world",
          "type": "address"
        }
      ],
      "stateMutability": "nonpayable",
      "type": "constructor"
    },
    {
      "inputs": [],
      "name": "BareComponent__NotImplemented",
      "type": "error"
    },
    {
      "inputs": [],
      "name": "OwnableWritable__NotWriter",
      "type": "error"
    },
    {
      "inputs": [],
      "name": "Ownable__NotOwner",
      "type": "error"
    },
    {
      "inputs": [],
      "name": "Ownable__NotTransitiveOwner",
      "type": "error"
    },
    {
      "anonymous": false,
      "inputs": [
        {
          "indexed": true,
          "internalType": "address",
          "name": "previousOwner",
          "type": "address"
        },
        {
          "indexed": true,
          "internalType": "address",
          "name": "newOwner",
          "type": "address"
        }
      ],
      "name": "OwnershipTransferred",
      "type": "event"
    },
    {
      "inputs": [
        {
          "internalType": "address",
          "name": "writer",
          "type": "address"
        }
      ],
      "name": "authorizeWriter",
      "outputs": [],
      "stateMutability": "nonpayable",
      "type": "function"
    },
    {
      "inputs": [],
      "name": "getEntities",
      "outputs": [
        {
          "internalType": "uint256[]",
          "name": "",
          "type": "uint256[]"
        }
      ],
      "stateMutability": "view",
      "type": "function"
    },
    {
      "inputs": [
        {
          "internalType": "bytes",
          "name": "value",
          "type": "bytes"
        }
      ],
      "name": "getEntitiesWithValue",
      "outputs": [
        {
          "internalType": "uint256[]",
          "name": "",
          "type": "uint256[]"
        }
      ],
      "stateMutability": "view",
      "type": "function"
    },
    {
      "inputs": [
        {
          "components": [
            {
              "internalType": "int32",
              "name": "x",
              "type": "int32"
            },
            {
              "internalType": "int32",
              "name": "y",
              "type": "int32"
            },
            {
              "internalType": "uint256",
              "name": "parent",
              "type": "uint256"
            }
          ],
          "internalType": "struct Coord",
          "name": "coord",
          "type": "tuple"
        }
      ],
      "name": "getEntitiesWithValue",
      "outputs": [
        {
          "internalType": "uint256[]",
          "name": "",
          "type": "uint256[]"
        }
      ],
      "stateMutability": "view",
      "type": "function"
    },
    {
      "inputs": [
        {
          "internalType": "uint256",
          "name": "entity",
          "type": "uint256"
        }
      ],
      "name": "getRawValue",
      "outputs": [
        {
          "internalType": "bytes",
          "name": "",
          "type": "bytes"
        }
      ],
      "stateMutability": "view",
      "type": "function"
    },
    {
      "inputs": [],
      "name": "getSchema",
      "outputs": [
        {
          "internalType": "string[]",
          "name": "keys",
          "type": "string[]"
        },
        {
          "internalType": "enum LibTypes.SchemaValue[]",
          "name": "values",
          "type": "uint8[]"
        }
      ],
      "stateMutability": "pure",
      "type": "function"
    },
    {
      "inputs": [
        {
          "internalType": "uint256",
          "name": "entity",
          "type": "uint256"
        }
      ],
      "name": "getValue",
      "outputs": [
        {
          "components": [
            {
              "internalType": "int32",
              "name": "x",
              "type": "int32"
            },
            {
              "internalType": "int32",
              "name": "y",
              "type": "int32"
            },
            {
              "internalType": "uint256",
              "name": "parent",
              "type": "uint256"
            }
          ],
          "internalType": "struct Coord",
          "name": "",
          "type": "tuple"
        }
      ],
      "stateMutability": "view",
      "type": "function"
    },
    {
      "inputs": [
        {
          "internalType": "uint256",
          "name": "entity",
          "type": "uint256"
        }
      ],
      "name": "has",
      "outputs": [
        {
          "internalType": "bool",
          "name": "",
          "type": "bool"
        }
      ],
      "stateMutability": "view",
      "type": "function"
    },
    {
      "inputs": [],
      "name": "id",
      "outputs": [
        {
          "internalType": "uint256",
          "name": "",
          "type": "uint256"
        }
      ],
      "stateMutability": "view",
      "type": "function"
    },
    {
      "inputs": [],
      "name": "owner",
      "outputs": [
        {
          "internalType": "address",
          "name": "",
          "type": "address"
        }
      ],
      "stateMutability": "view",
      "type": "function"
    },
    {
      "inputs": [
        {
          "internalType": "address",
          "name": "indexer",
          "type": "address"
        }
      ],
      "name": "registerIndexer",
      "outputs": [],
      "stateMutability": "nonpayable",
      "type": "function"
    },
    {
      "inputs": [
        {
          "internalType": "address",
          "name": "_world",
          "type": "address"
        }
      ],
      "name": "registerWorld",
      "outputs": [],
      "stateMutability": "nonpayable",
      "type": "function"
    },
    {
      "inputs": [
        {
          "internalType": "uint256",
          "name": "entity",
          "type": "uint256"
        }
      ],
      "name": "remove",
      "outputs": [],
      "stateMutability": "nonpayable",
      "type": "function"
    },
    {
      "inputs": [
        {
          "internalType": "uint256",
          "name": "entity",
          "type": "uint256"
        },
        {
          "internalType": "int32",
          "name": "x",
          "type": "int32"
        },
        {
          "internalType": "int32",
          "name": "y",
          "type": "int32"
        },
        {
          "internalType": "uint256",
          "name": "parent",
          "type": "uint256"
        }
      ],
      "name": "set",
      "outputs": [],
      "stateMutability": "nonpayable",
      "type": "function"
    },
    {
      "inputs": [
        {
          "internalType": "uint256",
          "name": "entity",
          "type": "uint256"
        },
        {
          "internalType": "bytes",
          "name": "value",
          "type": "bytes"
        }
      ],
      "name": "set",
      "outputs": [],
      "stateMutability": "nonpayable",
      "type": "function"
    },
    {
      "inputs": [
        {
          "internalType": "uint256",
          "name": "entity",
          "type": "uint256"
        },
        {
          "components": [
            {
              "internalType": "int32",
              "name": "x",
              "type": "int32"
            },
            {
              "internalType": "int32",
              "name": "y",
              "type": "int32"
            },
            {
              "internalType": "uint256",
              "name": "parent",
              "type": "uint256"
            }
          ],
          "internalType": "struct Coord",
          "name": "value",
          "type": "tuple"
        }
      ],
      "name": "set",
      "outputs": [],
      "stateMutability": "nonpayable",
      "type": "function"
    },
    {
      "inputs": [
        {
          "internalType": "address",
          "name": "account",
          "type": "address"
        }
      ],
      "name": "transferOwnership",
      "outputs": [],
      "stateMutability": "nonpayable",
      "type": "function"
    },
    {
      "inputs": [
        {
          "internalType": "address",
          "name": "writer",
          "type": "address"
        }
      ],
      "name": "unauthorizeWriter",
      "outputs": [],
      "stateMutability": "nonpayable",
      "type": "function"
    },
    {
      "inputs": [],
      "name": "world",
      "outputs": [
        {
          "internalType": "address",
          "name": "",
          "type": "address"
        }
      ],
      "stateMutability": "view",
      "type": "function"
    },
    {
      "inputs": [
        {
          "internalType": "address",
          "name": "operator",
          "type": "address"
        }
      ],
      "name": "writeAccess",
      "outputs": [
        {
          "internalType": "bool",
          "name": "",
          "type": "bool"
        }
      ],
      "stateMutability": "view",
      "type": "function"
    }
  ],
  "bytecode": {
    "object": "0x60806040523480156200001157600080fd5b50604051620028ee380380620028ee833981016040819052620000349162000262565b807f49a4584d9706380e35459e1f31e673445371b5bac20aa516f8ba8650b18431068181620000633362000127565b60028190556001600160a01b038216156200008357620000838262000190565b5050604051620000939062000246565b604051809103906000f080158015620000b0573d6000803e3d6000fd5b50600380546001600160a01b0319166001600160a01b0392909216919091179055604051620000df9062000254565b604051809103906000f080158015620000fc573d6000803e3d6000fd5b50600480546001600160a01b0319166001600160a01b03929092169190911790555062000294915050565b600080516020620028ce83398151915280546040516001600160a01b038481169216907f8be0079c531659141344cd1fd0a4f28419497f9722a3daafe3b4186f6b6457e090600090a380546001600160a01b0319166001600160a01b0392909216919091179055565b600080516020620028ce833981519152546001600160a01b03163314620001ca57604051632f7a8ee160e01b815260040160405180910390fd5b600080546001600160a01b0319166001600160a01b038316908117909155600254604051630f30347760e41b8152306004820152602481019190915263f303477090604401600060405180830381600087803b1580156200022a57600080fd5b505af11580156200023f573d6000803e3d6000fd5b5050505050565b6106c98062001afa83390190565b61070b80620021c383390190565b6000602082840312156200027557600080fd5b81516001600160a01b03811681146200028d57600080fd5b9392505050565b61185680620002a46000396000f3fe608060405234801561001057600080fd5b506004361061012c5760003560e01c80638d10d6de116100ad578063b8bc073d11610071578063b8bc073d146102a5578063bf4fe57e146102c5578063cccf7a8e146102d8578063e8c17734146102eb578063f2fde38b146102fe57600080fd5b80638d10d6de1461024d5780638da5cb5b146102605780639d2c76b414610268578063af640d0f1461027b578063b361be461461029257600080fd5b80634fef6a38116100f45780634fef6a38146101db5780636b122fe0146101ee57806375c0669c14610204578063861eb905146102175780638b2829471461023a57600080fd5b80630ff4c916146101315780632e780b0d1461017357806330b67baa1461018857806331b933b9146101b35780634cc82215146101c8575b600080fd5b61014461013f366004611112565b610311565b604080518251600390810b825260208085015190910b9082015291810151908201526060015b60405180910390f35b61018661018136600461113a565b610376565b005b60005461019b906001600160a01b031681565b6040516001600160a01b03909116815260200161016a565b6101bb6103db565b60405161016a9190611182565b6101866101d6366004611112565b610452565b6101866101e93660046111c6565b610484565b6101f6610500565b60405161016a929190611252565b6101866102123660046111c6565b6106d1565b61022a6102253660046111c6565b610749565b604051901515815260200161016a565b6101866102483660046113c2565b6107ad565b61018661025b366004611421565b6107e1565b61019b6107f6565b6101866102763660046111c6565b610800565b61028460025481565b60405190815260200161016a565b6101bb6102a036600461144e565b6108b4565b6102b86102b3366004611112565b61092d565b60405161016a919061148b565b6101866102d33660046111c6565b6109cf565b61022a6102e6366004611112565b610a48565b6101bb6102f936600461149e565b610ab6565b61018661030c3660046111c6565b610ae0565b604080516060810182526000808252602082018190529181018290529080806103398561092d565b80602001905181019061034c91906114ba565b60408051606081018252600394850b81529290930b60208301529181019190915295945050505050565b6040805160608082018352600386810b80845286820b60208086019182529486018781528651958601929092525190910b938301939093529151918101919091526103d59085906080015b6040516020818303038152906040526107ad565b50505050565b60035460408051631043567360e21b815290516060926001600160a01b03169163410d59cc9160048083019260009291908290030181865afa158015610425573d6000803e3d6000fd5b505050506040513d6000823e601f3d908101601f1916820160405261044d91908101906114fd565b905090565b61045b33610749565b6104785760405163203769ed60e11b815260040160405180910390fd5b61048181610b22565b50565b61048c610d4b565b6001600160a01b0316336001600160a01b0316146104bd57604051632f7a8ee160e01b815260040160405180910390fd5b6001600160a01b031660009081527f8ffeadc5cba727b8cc3cdef48739619490ea317fdb3baae1259089d06f92c90960205260409020805460ff19166001179055565b60408051600380825260808201909252606091829190816020015b606081526020019060019003908161051b5750506040805160038082526080820190925291935060208201606080368337019050509050604051806040016040528060018152602001600f60fb1b8152508260008151811061057f5761057f6115a3565b602002602001018190525060038160008151811061059f5761059f6115a3565b602002602001019060218111156105b8576105b861123c565b908160218111156105cb576105cb61123c565b81525050604051806040016040528060018152602001607960f81b815250826001815181106105fc576105fc6115a3565b602002602001018190525060038160018151811061061c5761061c6115a3565b602002602001019060218111156106355761063561123c565b908160218111156106485761064861123c565b81525050604051806040016040528060068152602001651c185c995b9d60d21b8152508260028151811061067e5761067e6115a3565b6020026020010181905250600d8160028151811061069e5761069e6115a3565b602002602001019060218111156106b7576106b761123c565b908160218111156106ca576106ca61123c565b9052509091565b6106da33610749565b6106f75760405163203769ed60e11b815260040160405180910390fd5b600580546001810182556000919091527f036b6384b5eca791c62761152d0c79bb0604c104a5fb6f4eb0703f3154bb3db00180546001600160a01b0319166001600160a01b0392909216919091179055565b6001600160a01b03811660009081527f8ffeadc5cba727b8cc3cdef48739619490ea317fdb3baae1259089d06f92c909602052604081205460ff16806107a757506107926107f6565b6001600160a01b0316826001600160a01b0316145b92915050565b6107b633610749565b6107d35760405163203769ed60e11b815260040160405180910390fd5b6107dd8282610d79565b5050565b6107dd82826040516020016103c191906115b9565b600061044d610d4b565b610808610d4b565b6001600160a01b0316336001600160a01b03161461083957604051632f7a8ee160e01b815260040160405180910390fd5b600080546001600160a01b0319166001600160a01b038316908117909155600254604051630f30347760e41b8152306004820152602481019190915263f3034770906044015b600060405180830381600087803b15801561089957600080fd5b505af11580156108ad573d6000803e3d6000fd5b5050505050565b6004805482516020840120604051631e5b17a560e21b8152928301526060916001600160a01b039091169063796c5e9490602401600060405180830381865afa158015610905573d6000803e3d6000fd5b505050506040513d6000823e601f3d908101601f191682016040526107a791908101906114fd565b600081815260016020526040902080546060919061094a906115f5565b80601f0160208091040260200160405190810160405280929190818152602001828054610976906115f5565b80156109c35780601f10610998576101008083540402835291602001916109c3565b820191906000526020600020905b8154815290600101906020018083116109a657829003601f168201915b50505050509050919050565b6109d7610d4b565b6001600160a01b0316336001600160a01b031614610a0857604051632f7a8ee160e01b815260040160405180910390fd5b6001600160a01b031660009081527f8ffeadc5cba727b8cc3cdef48739619490ea317fdb3baae1259089d06f92c90960205260409020805460ff19169055565b600354604051636667bd4760e11b8152600481018390526000916001600160a01b03169063cccf7a8e90602401602060405180830381865afa158015610a92573d6000803e3d6000fd5b505050506040513d601f19601f820116820180604052508101906107a79190611629565b60606107a782604051602001610acc91906115b9565b6040516020818303038152906040526108b4565b610ae8610d4b565b6001600160a01b0316336001600160a01b031614610b1957604051632f7a8ee160e01b815260040160405180910390fd5b61048181610f78565b6004546000828152600160205260409081902090516001600160a01b03909216916385edea1391610b529161164b565b60405190819003812060e083901b6001600160e01b03191682526004820152602401602060405180830381865afa158015610b91573d6000803e3d6000fd5b505050506040513d601f19601f82011682018060405250810190610bb591906116c1565b600003610bbf5750565b6004546000828152600160205260409081902090516001600160a01b0390921691636526db7a91610bef9161164b565b60405190819003812060e083901b6001600160e01b0319168252600482015260248101849052604401600060405180830381600087803b158015610c3257600080fd5b505af1158015610c46573d6000803e3d6000fd5b5050600354604051634cc8221560e01b8152600481018590526001600160a01b039091169250634cc822159150602401600060405180830381600087803b158015610c9057600080fd5b505af1158015610ca4573d6000803e3d6000fd5b50505050610cb181610f81565b60005b6005548110156107dd5760058181548110610cd157610cd16115a3565b600091825260209091200154604051634cc8221560e01b8152600481018490526001600160a01b0390911690634cc8221590602401600060405180830381600087803b158015610d2057600080fd5b505af1158015610d34573d6000803e3d6000fd5b505050508080610d43906116da565b915050610cb4565b7f8a22373512790c48b83a1fe2efdd2888d4a917bcdc24d0adf63e60f671680460546001600160a01b031690565b600354604051630801f16960e11b8152600481018490526001600160a01b0390911690631003e2d290602401600060405180830381600087803b158015610dbf57600080fd5b505af1158015610dd3573d6000803e3d6000fd5b50506004546000858152600160205260409081902090516001600160a01b039092169350636526db7a9250610e079161164b565b60405190819003812060e083901b6001600160e01b0319168252600482015260248101859052604401600060405180830381600087803b158015610e4a57600080fd5b505af1158015610e5e573d6000803e3d6000fd5b5050600480548451602086012060405163771602f760e01b815292830152602482018690526001600160a01b0316925063771602f79150604401600060405180830381600087803b158015610eb257600080fd5b505af1158015610ec6573d6000803e3d6000fd5b50505050610ed48282610fc9565b60005b600554811015610f735760058181548110610ef457610ef46115a3565b6000918252602090912001546040516242d70760e31b81526001600160a01b0390911690630216b83890610f2e9086908690600401611701565b600060405180830381600087803b158015610f4857600080fd5b505af1158015610f5c573d6000803e3d6000fd5b505050508080610f6b906116da565b915050610ed7565b505050565b6104818161104a565b6000818152600160205260408120610f98916110c4565b600054604051630de3b7b560e01b8152600481018390526001600160a01b0390911690630de3b7b59060240161087f565b6000828152600160205260409020610fe18282611760565b5060005460405163cfd3c57f60e01b81526001600160a01b039091169063cfd3c57f906110149085908590600401611701565b600060405180830381600087803b15801561102e57600080fd5b505af1158015611042573d6000803e3d6000fd5b505050505050565b7f8a22373512790c48b83a1fe2efdd2888d4a917bcdc24d0adf63e60f67168046080546040516001600160a01b038481169216907f8be0079c531659141344cd1fd0a4f28419497f9722a3daafe3b4186f6b6457e090600090a380546001600160a01b0319166001600160a01b0392909216919091179055565b5080546110d0906115f5565b6000825580601f106110e0575050565b601f01602090049060005260206000209081019061048191905b8082111561110e57600081556001016110fa565b5090565b60006020828403121561112457600080fd5b5035919050565b8060030b811461048157600080fd5b6000806000806080858703121561115057600080fd5b8435935060208501356111628161112b565b925060408501356111728161112b565b9396929550929360600135925050565b6020808252825182820181905260009190848201906040850190845b818110156111ba5783518352928401929184019160010161119e565b50909695505050505050565b6000602082840312156111d857600080fd5b81356001600160a01b03811681146111ef57600080fd5b9392505050565b6000815180845260005b8181101561121c57602081850181015186830182015201611200565b506000602082860101526020601f19601f83011685010191505092915050565b634e487b7160e01b600052602160045260246000fd5b6000604082016040835280855180835260608501915060608160051b8601019250602080880160005b838110156112a957605f198887030185526112978683516111f6565b9550938201939082019060010161127b565b50508584038187015286518085528782019482019350915060005b828110156112fe578451602281106112ec57634e487b7160e01b600052602160045260246000fd5b845293810193928101926001016112c4565b5091979650505050505050565b634e487b7160e01b600052604160045260246000fd5b604051601f8201601f1916810167ffffffffffffffff8111828210171561134a5761134a61130b565b604052919050565b600082601f83011261136357600080fd5b813567ffffffffffffffff81111561137d5761137d61130b565b611390601f8201601f1916602001611321565b8181528460208386010111156113a557600080fd5b816020850160208301376000918101602001919091529392505050565b600080604083850312156113d557600080fd5b82359150602083013567ffffffffffffffff8111156113f357600080fd5b6113ff85828601611352565b9150509250929050565b60006060828403121561141b57600080fd5b50919050565b6000806080838503121561143457600080fd5b823591506114458460208501611409565b90509250929050565b60006020828403121561146057600080fd5b813567ffffffffffffffff81111561147757600080fd5b61148384828501611352565b949350505050565b6020815260006111ef60208301846111f6565b6000606082840312156114b057600080fd5b6111ef8383611409565b6000806000606084860312156114cf57600080fd5b83516114da8161112b565b60208501519093506114eb8161112b565b80925050604084015190509250925092565b6000602080838503121561151057600080fd5b825167ffffffffffffffff8082111561152857600080fd5b818501915085601f83011261153c57600080fd5b81518181111561154e5761154e61130b565b8060051b915061155f848301611321565b818152918301840191848101908884111561157957600080fd5b938501935b838510156115975784518252938501939085019061157e565b98975050505050505050565b634e487b7160e01b600052603260045260246000fd5b6060810182356115c88161112b565b60030b825260208301356115db8161112b565b8060030b6020840152506040830135604083015292915050565b600181811c9082168061160957607f821691505b60208210810361141b57634e487b7160e01b600052602260045260246000fd5b60006020828403121561163b57600080fd5b815180151581146111ef57600080fd5b6000808354611659816115f5565b600182811680156116715760018114611686576116b5565b60ff19841687528215158302870194506116b5565b8760005260208060002060005b858110156116ac5781548a820152908401908201611693565b50505082870194505b50929695505050505050565b6000602082840312156116d357600080fd5b5051919050565b6000600182016116fa57634e487b7160e01b600052601160045260246000fd5b5060010190565b82815260406020820152600061148360408301846111f6565b601f821115610f7357600081815260208120601f850160051c810160208610156117415750805b601f850160051c820191505b818110156110425782815560010161174d565b815167ffffffffffffffff81111561177a5761177a61130b565b61178e8161178884546115f5565b8461171a565b602080601f8311600181146117c357600084156117ab5750858301515b600019600386901b1c1916600185901b178555611042565b600085815260208120601f198616915b828110156117f2578886015182559484019460019091019084016117d3565b50858210156118105787850151600019600388901b60f8161c191681555b5050505050600190811b0190555056fea264697066735822122015f1f2614c375c8ce6dad796e9844b8e88b6af1908d24f29e19437bff867aa1364736f6c63430008130033608060405234801561001057600080fd5b5061001a3361001f565b610099565b7f8a22373512790c48b83a1fe2efdd2888d4a917bcdc24d0adf63e60f67168046080546040516001600160a01b038481169216907f8be0079c531659141344cd1fd0a4f28419497f9722a3daafe3b4186f6b6457e090600090a380546001600160a01b0319166001600160a01b0392909216919091179055565b610621806100a86000396000f3fe608060405234801561001057600080fd5b50600436106100885760003560e01c80638e7cb6e11161005b5780638e7cb6e1146100f3578063949d225d1461011d578063cccf7a8e1461012e578063f2fde38b1461015157600080fd5b80631003e2d21461008d578063410d59cc146100a25780634cc82215146100c05780638da5cb5b146100d3575b600080fd5b6100a061009b36600461050b565b610164565b005b6100aa6101ef565b6040516100b79190610524565b60405180910390f35b6100a06100ce36600461050b565b610247565b6100db610374565b6040516001600160a01b0390911681526020016100b7565b61010661010136600461050b565b610383565b6040805192151583526020830191909152016100b7565b6000546040519081526020016100b7565b61014161013c36600461050b565b6103b6565b60405190151581526020016100b7565b6100a061015f366004610568565b610419565b61016c61045b565b6001600160a01b0316336001600160a01b03161461019d57604051632f7a8ee160e01b815260040160405180910390fd5b6101a6816103b6565b6101ec57600080548282526001602081905260408320829055810182559080527f290decd9548b62a8d60345a988386fc84ba6bc95484008f6362f93160ef3e563018190555b50565b6060600080548060200260200160405190810160405280929190818152602001828054801561023d57602002820191906000526020600020905b815481526020019060010190808311610229575b5050505050905090565b61024f61045b565b6001600160a01b0316336001600160a01b03161461028057604051632f7a8ee160e01b815260040160405180910390fd5b610289816103b6565b156101ec576000805461029e90600190610598565b815481106102ae576102ae6105bf565b906000526020600020015460006001600084815260200190815260200160002054815481106102df576102df6105bf565b60009182526020808320909101929092558281526001918290526040812054815490929190819084908110610316576103166105bf565b90600052602060002001548152602001908152602001600020819055506001600082815260200190815260200160002060009055600080548061035b5761035b6105d5565b6001900381819060005260206000200160009055905550565b600061037e61045b565b905090565b60008061038f836103b6565b61039e57506000928392509050565b50506000908152600160208190526040909120549091565b6000805481036103c857506000919050565b60008281526001602052604081205490036104045781600080815481106103f1576103f16105bf565b9060005260206000200154149050919050565b50600090815260016020526040902054151590565b61042161045b565b6001600160a01b0316336001600160a01b03161461045257604051632f7a8ee160e01b815260040160405180910390fd5b6101ec81610489565b7f8a22373512790c48b83a1fe2efdd2888d4a917bcdc24d0adf63e60f671680460546001600160a01b031690565b7f8a22373512790c48b83a1fe2efdd2888d4a917bcdc24d0adf63e60f67168046080546040516101ec92849290916001600160a01b038085169216907f8be0079c531659141344cd1fd0a4f28419497f9722a3daafe3b4186f6b6457e090600090a380546001600160a01b0319166001600160a01b0392909216919091179055565b60006020828403121561051d57600080fd5b5035919050565b6020808252825182820181905260009190848201906040850190845b8181101561055c57835183529284019291840191600101610540565b50909695505050505050565b60006020828403121561057a57600080fd5b81356001600160a01b038116811461059157600080fd5b9392505050565b818103818111156105b957634e487b7160e01b600052601160045260246000fd5b92915050565b634e487b7160e01b600052603260045260246000fd5b634e487b7160e01b600052603160045260246000fdfea26469706673582212209120bb0a2a9936c2c457117a2d6e08d1b5892ce4c2794940e794c00e17bf899964736f6c63430008130033608060405234801561001057600080fd5b5061001a3361001f565b610099565b7f8a22373512790c48b83a1fe2efdd2888d4a917bcdc24d0adf63e60f67168046080546040516001600160a01b038481169216907f8be0079c531659141344cd1fd0a4f28419497f9722a3daafe3b4186f6b6457e090600090a380546001600160a01b0319166001600160a01b0392909216919091179055565b610663806100a86000396000f3fe608060405234801561001057600080fd5b506004361061007d5760003560e01c806385edea131161005b57806385edea13146100d35780638da5cb5b14610101578063a0265ff814610121578063f2fde38b1461014457600080fd5b80636526db7a14610082578063771602f714610097578063796c5e94146100aa575b600080fd5b610095610090366004610531565b610157565b005b6100956100a5366004610531565b6102bd565b6100bd6100b8366004610553565b61033a565b6040516100ca919061056c565b60405180910390f35b6100f36100e1366004610553565b60009081526020819052604090205490565b6040519081526020016100ca565b61010961039a565b6040516001600160a01b0390911681526020016100ca565b61013461012f366004610531565b6103a9565b60405190151581526020016100ca565b6100956101523660046105b0565b61043c565b61015f610481565b6001600160a01b0316336001600160a01b03161461019057604051632f7a8ee160e01b815260040160405180910390fd5b61019a82826103a9565b156102b957600082815260208190526040902080546101bb906001906105e0565b815481106101cb576101cb610601565b6000918252602080832090910154848352828252604080842060018452818520868652909352909220548154811061020557610205610601565b60009182526020808320909101929092558381526001825260408082208483528084528183205486845283855291832085845293819052835491939092918490811061025357610253610601565b600091825260208083209091015483528281019390935260409182018120939093558483526001825280832084845282528083208390558483529082905290208054806102a2576102a2610617565b600190038181906000526020600020016000905590555b5050565b6102c5610481565b6001600160a01b0316336001600160a01b0316146102f657604051632f7a8ee160e01b815260040160405180910390fd5b61030082826103a9565b6102b95760009182526020828152604080842080546001808552838720868852855292862081905585845291820181558452922090910155565b6000818152602081815260409182902080548351818402810184019094528084526060939283018282801561038e57602002820191906000526020600020905b81548152602001906001019080831161037a575b50505050509050919050565b60006103a4610481565b905090565b60008281526020819052604081205481036103c657506000610436565b60008381526001602090815260408083208584529091528120549003610418576000838152602081905260408120805484929061040557610405610601565b9060005260206000200154149050610436565b50600082815260016020908152604080832084845290915290205415155b92915050565b610444610481565b6001600160a01b0316336001600160a01b03161461047557604051632f7a8ee160e01b815260040160405180910390fd5b61047e816104af565b50565b7f8a22373512790c48b83a1fe2efdd2888d4a917bcdc24d0adf63e60f671680460546001600160a01b031690565b7f8a22373512790c48b83a1fe2efdd2888d4a917bcdc24d0adf63e60f671680460805460405161047e92849290916001600160a01b038085169216907f8be0079c531659141344cd1fd0a4f28419497f9722a3daafe3b4186f6b6457e090600090a380546001600160a01b0319166001600160a01b0392909216919091179055565b6000806040838503121561054457600080fd5b50508035926020909101359150565b60006020828403121561056557600080fd5b5035919050565b6020808252825182820181905260009190848201906040850190845b818110156105a457835183529284019291840191600101610588565b50909695505050505050565b6000602082840312156105c257600080fd5b81356001600160a01b03811681146105d957600080fd5b9392505050565b8181038181111561043657634e487b7160e01b600052601160045260246000fd5b634e487b7160e01b600052603260045260246000fd5b634e487b7160e01b600052603160045260246000fdfea26469706673582212204fe0e51f850fe860844b3ef4690dbe2f4106d195a4c983b0ea09e2b1f7ab027564736f6c634300081300338a22373512790c48b83a1fe2efdd2888d4a917bcdc24d0adf63e60f671680460",
    "linkReferences": {}
  },
  "methodIdentifiers": {
    "authorizeWriter(address)": "4fef6a38",
    "getEntities()": "31b933b9",
    "getEntitiesWithValue((int32,int32,uint256))": "e8c17734",
    "getEntitiesWithValue(bytes)": "b361be46",
    "getRawValue(uint256)": "b8bc073d",
    "getSchema()": "6b122fe0",
    "getValue(uint256)": "0ff4c916",
    "has(uint256)": "cccf7a8e",
    "id()": "af640d0f",
    "owner()": "8da5cb5b",
    "registerIndexer(address)": "75c0669c",
    "registerWorld(address)": "9d2c76b4",
    "remove(uint256)": "4cc82215",
    "set(uint256,(int32,int32,uint256))": "8d10d6de",
    "set(uint256,bytes)": "8b282947",
    "set(uint256,int32,int32,uint256)": "2e780b0d",
    "transferOwnership(address)": "f2fde38b",
    "unauthorizeWriter(address)": "bf4fe57e",
    "world()": "30b67baa",
    "writeAccess(address)": "861eb905"
  },
  "id": 138
}