{
  "abi": [
    {
      "inputs": [
        {
          "internalType": "contract IWorld",
          "name": "_world",
          "type": "address"
        },
        {
          "internalType": "address",
          "name": "_components",
          "type": "address"
        }
      ],
      "stateMutability": "nonpayable",
      "type": "constructor"
    },
    {
      "inputs": [],
      "name": "Ownable__NotOwner",
      "type": "error"
    },
    {
      "inputs": [],
      "name": "Ownable__NotTransitiveOwner",
      "type": "error"
    },
    {
      "anonymous": false,
      "inputs": [
        {
          "indexed": true,
          "internalType": "address",
          "name": "previousOwner",
          "type": "address"
        },
        {
          "indexed": true,
          "internalType": "address",
          "name": "newOwner",
          "type": "address"
        }
      ],
      "name": "OwnershipTransferred",
      "type": "event"
    },
    {
      "inputs": [
        {
          "internalType": "bytes",
          "name": "args",
          "type": "bytes"
        }
      ],
      "name": "execute",
      "outputs": [
        {
          "internalType": "bytes",
          "name": "",
          "type": "bytes"
        }
      ],
      "stateMutability": "nonpayable",
      "type": "function"
    },
    {
      "inputs": [
        {
          "internalType": "address",
          "name": "playerAddress",
          "type": "address"
        },
        {
          "internalType": "uint256",
          "name": "buildingEntity",
          "type": "uint256"
        }
      ],
      "name": "executeTyped",
      "outputs": [
        {
          "internalType": "bytes",
          "name": "",
          "type": "bytes"
        }
      ],
      "stateMutability": "nonpayable",
      "type": "function"
    },
    {
      "inputs": [],
      "name": "owner",
      "outputs": [
        {
          "internalType": "address",
          "name": "",
          "type": "address"
        }
      ],
      "stateMutability": "view",
      "type": "function"
    },
    {
      "inputs": [
        {
          "internalType": "address",
          "name": "account",
          "type": "address"
        }
      ],
      "name": "transferOwnership",
      "outputs": [],
      "stateMutability": "nonpayable",
      "type": "function"
    }
  ],
  "bytecode": {
    "object": "0x60806040523480156200001157600080fd5b506040516200278c3803806200278c8339810160408190526200003491620001dc565b8181620000413362000149565b6001600160a01b03811615620000585780620000bd565b816001600160a01b031663ba62fbe46040518163ffffffff1660e01b8152600401602060405180830381865afa15801562000097573d6000803e3d6000fd5b505050506040513d601f19601f82011682018060405250810190620000bd91906200021b565b600080546001600160a01b039283166001600160a01b0319918216811790925560018054938616938216841790557ff67304f10c7772c78e439bc5cb07781db345424de8878c18100fdaa64d197a87805482169093179092557ff67304f10c7772c78e439bc5cb07781db345424de8878c18100fdaa64d197a8680549092161790555050505062000242565b7f8a22373512790c48b83a1fe2efdd2888d4a917bcdc24d0adf63e60f67168046080546040516001600160a01b038481169216907f8be0079c531659141344cd1fd0a4f28419497f9722a3daafe3b4186f6b6457e090600090a380546001600160a01b0319166001600160a01b0392909216919091179055565b6001600160a01b0381168114620001d957600080fd5b50565b60008060408385031215620001f057600080fd5b8251620001fd81620001c3565b60208401519092506200021081620001c3565b809150509250929050565b6000602082840312156200022e57600080fd5b81516200023b81620001c3565b9392505050565b61253a80620002526000396000f3fe608060405234801561001057600080fd5b506004361061004c5760003560e01c806309c5eabe146100515780636ad0ccab1461007a5780638da5cb5b1461008d578063f2fde38b146100ba575b600080fd5b61006461005f3660046120b4565b6100cf565b6040516100719190612167565b60405180910390f35b6100646100883660046121f5565b6102b5565b610095610301565b60405173ffffffffffffffffffffffffffffffffffffffff9091168152602001610071565b6100cd6100c8366004612221565b610346565b005b606061018b600160009054906101000a900473ffffffffffffffffffffffffffffffffffffffff1673ffffffffffffffffffffffffffffffffffffffff16630d59332e6040518163ffffffff1660e01b8152600401602060405180830381865afa158015610141573d6000803e3d6000fd5b505050506040513d601f19601f82011682018060405250810190610165919061223e565b7f4da6f081491c6405fbf6124fb31464485c6014c63905afcb67dc5016c543a3b26103c2565b73ffffffffffffffffffffffffffffffffffffffff163373ffffffffffffffffffffffffffffffffffffffff161461024a576040517f08c379a000000000000000000000000000000000000000000000000000000000815260206004820152603c60248201527f506f73745570677261646553797374656d3a204f6e6c7920557067726164655360448201527f797374656d2063616e2063616c6c20746869732066756e6374696f6e0000000060648201526084015b60405180910390fd5b60008083806020019051810190610261919061225b565b9150915060006102848373ffffffffffffffffffffffffffffffffffffffff1690565b9050610290818361050e565b6040805160208101849052016040516020818303038152906040529350505050919050565b6040805173ffffffffffffffffffffffffffffffffffffffff841660208201529081018290526060906102f89082016040516020818303038152906040526100cf565b90505b92915050565b60006103417f8a22373512790c48b83a1fe2efdd2888d4a917bcdc24d0adf63e60f6716804605473ffffffffffffffffffffffffffffffffffffffff1690565b905090565b7f8a22373512790c48b83a1fe2efdd2888d4a917bcdc24d0adf63e60f6716804605473ffffffffffffffffffffffffffffffffffffffff1633146103b6576040517f2f7a8ee100000000000000000000000000000000000000000000000000000000815260040160405180910390fd5b6103bf81610daf565b50565b6040517ffbdfa1ea00000000000000000000000000000000000000000000000000000000815260048101829052600090819073ffffffffffffffffffffffffffffffffffffffff85169063fbdfa1ea90602401600060405180830381865afa158015610432573d6000803e3d6000fd5b505050506040513d6000823e601f3d9081017fffffffffffffffffffffffffffffffffffffffffffffffffffffffffffffffe01682016040526104789190810190612289565b905080516000036104e5576040517f08c379a000000000000000000000000000000000000000000000000000000000815260206004820152601160248201527f6964206e6f7420726567697374657265640000000000000000000000000000006044820152606401610241565b610506816000815181106104fb576104fb61232f565b602002602001015190565b949350505050565b600080546105529073ffffffffffffffffffffffffffffffffffffffff167fcd21223913df34354e53714bb49095fd4d6a8c8d2ac1fe38f8a14e9fd673e77c6103c2565b600080549192509061059a9073ffffffffffffffffffffffffffffffffffffffff167fbd262b900b9f3e3d6078d7a8e45d1bee5f4fd9547063f524ac4cbf611d37b44e6103c2565b60008054919250906105e29073ffffffffffffffffffffffffffffffffffffffff167f7562ebb298d855e68fb2922ace89e271e36c031fb473ee4be72f900215d523c56103c2565b6040517fcccf7a8e0000000000000000000000000000000000000000000000000000000081526004810186905290915073ffffffffffffffffffffffffffffffffffffffff84169063cccf7a8e90602401602060405180830381865afa158015610650573d6000803e3d6000fd5b505050506040513d601f19601f82011682018060405250810190610674919061235e565b61067f575050505050565b600080546106c39073ffffffffffffffffffffffffffffffffffffffff167f222d9674c2fee077bc82c84232803a9168906e2be25c4560d094c76895b8a4326103c2565b905060006108078373ffffffffffffffffffffffffffffffffffffffff16630ff4c916886040518263ffffffff1660e01b815260040161070591815260200190565b602060405180830381865afa158015610722573d6000803e3d6000fd5b505050506040513d601f19601f820116820180604052508101906107469190612380565b6040517f0ff4c9160000000000000000000000000000000000000000000000000000000081526004810189905273ffffffffffffffffffffffffffffffffffffffff871690630ff4c91690602401602060405180830381865afa1580156107b1573d6000803e3d6000fd5b505050506040513d601f19601f820116820180604052508101906107d591906123b2565b63ffffffff16604080516020808201949094528082019290925280518083038201815260609092019052805191012090565b6001546040517f0ff4c916000000000000000000000000000000000000000000000000000000008152600481018390529192506108ac9173ffffffffffffffffffffffffffffffffffffffff918216918a9190861690630ff4c916906024016040805180830381865afa158015610882573d6000803e3d6000fd5b505050506040513d601f19601f820116820180604052508101906108a691906123cd565b51610db8565b60008273ffffffffffffffffffffffffffffffffffffffff16630ff4c9166109e58673ffffffffffffffffffffffffffffffffffffffff16630ff4c9168b6040518263ffffffff1660e01b815260040161090891815260200190565b602060405180830381865afa158015610925573d6000803e3d6000fd5b505050506040513d601f19601f820116820180604052508101906109499190612380565b6040517f0ff4c916000000000000000000000000000000000000000000000000000000008152600481018c905260019073ffffffffffffffffffffffffffffffffffffffff8b1690630ff4c91690602401602060405180830381865afa1580156109b7573d6000803e3d6000fd5b505050506040513d601f19601f820116820180604052508101906109db91906123b2565b6107d59190612450565b6040518263ffffffff1660e01b8152600401610a0391815260200190565b6040805180830381865afa158015610a1f573d6000803e3d6000fd5b505050506040513d601f19601f82011682018060405250810190610a4391906123cd565b8051604080516020808201939093528082018c90528151808203830181526060909101909152805191012060005491925090610ac39088908890610abd9073ffffffffffffffffffffffffffffffffffffffff167f0d469bcaf5f43a6290ca2906ecdeb5ef80d7723e8cad27045bddb6e1eb9da4356103c2565b8b611488565b15610c4a5760015460208301516040517f0ff4c91600000000000000000000000000000000000000000000000000000000815260048101869052610c459273ffffffffffffffffffffffffffffffffffffffff9081169285929091891690630ff4c916906024016040805180830381865afa158015610b46573d6000803e3d6000fd5b505050506040513d601f19601f82011682018060405250810190610b6a91906123cd565b60200151610b789190612450565b600054610bbb9073ffffffffffffffffffffffffffffffffffffffff167f3dfdde75f9971afc18a000a5725bade43b0032029a6a77c9c8039c28ed5ff0d06103c2565b73ffffffffffffffffffffffffffffffffffffffff16630ff4c916866040518263ffffffff1660e01b8152600401610bf591815260200190565b602060405180830381865afa158015610c12573d6000803e3d6000fd5b505050506040513d601f19601f82011682018060405250810190610c3691906123b2565b610c409190612474565b61173c565b610da4565b6040517f4cc822150000000000000000000000000000000000000000000000000000000081526004810189905273ffffffffffffffffffffffffffffffffffffffff881690634cc8221590602401600060405180830381600087803b158015610cb257600080fd5b505af1158015610cc6573d6000803e3d6000fd5b50506001546020850151600054610da4945073ffffffffffffffffffffffffffffffffffffffff92831693508592610d1f91167f3dfdde75f9971afc18a000a5725bade43b0032029a6a77c9c8039c28ed5ff0d06103c2565b73ffffffffffffffffffffffffffffffffffffffff16630ff4c916866040518263ffffffff1660e01b8152600401610d5991815260200190565b602060405180830381865afa158015610d76573d6000803e3d6000fd5b505050506040513d601f19601f82011682018060405250810190610d9a91906123b2565b610c409190612450565b505050505050505050565b6103bf81611b27565b6040517f4f27da180000000000000000000000000000000000000000000000000000000081527f28af5d27f505af4c2623e23765f78ddc3a122099072ad9e28ef93b476bccb6c7600482015260009073ffffffffffffffffffffffffffffffffffffffff851690634f27da1890602401602060405180830381865afa158015610e45573d6000803e3d6000fd5b505050506040513d601f19601f82011682018060405250810190610e69919061223e565b6040517f4f27da180000000000000000000000000000000000000000000000000000000081527fe95fc307e3922a4ed7e1a9d135b2e79aad91e806428d8c7ec9a376dfc8aede5e600482015290915060009073ffffffffffffffffffffffffffffffffffffffff861690634f27da1890602401602060405180830381865afa158015610ef9573d6000803e3d6000fd5b505050506040513d601f19601f82011682018060405250810190610f1d919061223e565b6040517f4f27da180000000000000000000000000000000000000000000000000000000081527f3dfdde75f9971afc18a000a5725bade43b0032029a6a77c9c8039c28ed5ff0d0600482015290915060009073ffffffffffffffffffffffffffffffffffffffff871690634f27da1890602401602060405180830381865afa158015610fad573d6000803e3d6000fd5b505050506040513d601f19601f82011682018060405250810190610fd1919061223e565b604080516020808201889052818301899052825180830384018152606090920190925280519101209091506000906040517fcccf7a8e0000000000000000000000000000000000000000000000000000000081526004810182905290915073ffffffffffffffffffffffffffffffffffffffff84169063cccf7a8e90602401602060405180830381865afa15801561106d573d6000803e3d6000fd5b505050506040513d601f19601f82011682018060405250810190611091919061235e565b611124576040517f1ab06ee50000000000000000000000000000000000000000000000000000000081526004810182905243602482015273ffffffffffffffffffffffffffffffffffffffff841690631ab06ee590604401600060405180830381600087803b15801561110357600080fd5b505af1158015611117573d6000803e3d6000fd5b5050505050505050505050565b6040517f0ff4c91600000000000000000000000000000000000000000000000000000000815260048101829052439073ffffffffffffffffffffffffffffffffffffffff851690630ff4c91690602401602060405180830381865afa158015611191573d6000803e3d6000fd5b505050506040513d601f19601f820116820180604052508101906111b59190612380565b036111c35750505050505050565b60006111cf8383611bd3565b905060008163ffffffff161161126f576040517f1ab06ee50000000000000000000000000000000000000000000000000000000081526004810183905243602482015273ffffffffffffffffffffffffffffffffffffffff851690631ab06ee590604401600060405180830381600087803b15801561124d57600080fd5b505af1158015611261573d6000803e3d6000fd5b505050505050505050505050565b600061127c898989611cff565b905060008163ffffffff161161131d576040517f1ab06ee50000000000000000000000000000000000000000000000000000000081526004810184905243602482015273ffffffffffffffffffffffffffffffffffffffff861690631ab06ee590604401600060405180830381600087803b1580156112fa57600080fd5b505af115801561130e573d6000803e3d6000fd5b50505050505050505050505050565b60006113298685611e28565b6113339043612491565b61133d90846124a4565b6113478886611bd3565b6113519190612474565b90508063ffffffff168263ffffffff16101561136a5750805b6040517f1ab06ee50000000000000000000000000000000000000000000000000000000081526004810185905243602482015273ffffffffffffffffffffffffffffffffffffffff871690631ab06ee590604401600060405180830381600087803b1580156113d857600080fd5b505af11580156113ec573d6000803e3d6000fd5b50506040517fd923c3c40000000000000000000000000000000000000000000000000000000081526004810187905263ffffffff8416602482015273ffffffffffffffffffffffffffffffffffffffff8a16925063d923c3c49150604401600060405180830381600087803b15801561146457600080fd5b505af1158015611478573d6000803e3d6000fd5b5050505050505050505050505050565b6040517fcccf7a8e0000000000000000000000000000000000000000000000000000000081526004810182905260009073ffffffffffffffffffffffffffffffffffffffff86169063cccf7a8e90602401602060405180830381865afa1580156114f6573d6000803e3d6000fd5b505050506040513d601f19601f8201168201806040525081019061151a919061235e565b61152657506000610506565b6040517f0ff4c9160000000000000000000000000000000000000000000000000000000081526004810183905260009073ffffffffffffffffffffffffffffffffffffffff861690630ff4c91690602401602060405180830381865afa158015611594573d6000803e3d6000fd5b505050506040513d601f19601f820116820180604052508101906115b891906123b2565b63ffffffff16905060008473ffffffffffffffffffffffffffffffffffffffff1663fbdfa1ea856040518263ffffffff1660e01b81526004016115fd91815260200190565b600060405180830381865afa15801561161a573d6000803e3d6000fd5b505050506040513d6000823e601f3d9081017fffffffffffffffffffffffffffffffffffffffffffffffffffffffffffffffe01682016040526116609190810190612289565b905060005b815181101561172e57828773ffffffffffffffffffffffffffffffffffffffff16630ff4c91684848151811061169d5761169d61232f565b60200260200101516040518263ffffffff1660e01b81526004016116c391815260200190565b602060405180830381865afa1580156116e0573d6000803e3d6000fd5b505050506040513d601f19601f8201168201806040525081019061170491906123b2565b63ffffffff16101561171c5760009350505050610506565b80611726816124cc565b915050611665565b506001979650505050505050565b6040517f4f27da180000000000000000000000000000000000000000000000000000000081527f3dfdde75f9971afc18a000a5725bade43b0032029a6a77c9c8039c28ed5ff0d0600482015260009073ffffffffffffffffffffffffffffffffffffffff851690634f27da1890602401602060405180830381865afa1580156117c9573d6000803e3d6000fd5b505050506040513d601f19601f820116820180604052508101906117ed919061223e565b6040517f4f27da180000000000000000000000000000000000000000000000000000000081527fe95fc307e3922a4ed7e1a9d135b2e79aad91e806428d8c7ec9a376dfc8aede5e600482015290915060009073ffffffffffffffffffffffffffffffffffffffff861690634f27da1890602401602060405180830381865afa15801561187d573d6000803e3d6000fd5b505050506040513d601f19601f820116820180604052508101906118a1919061223e565b90508263ffffffff166000036119ae576040517f4cc822150000000000000000000000000000000000000000000000000000000081526004810185905273ffffffffffffffffffffffffffffffffffffffff821690634cc8221590602401600060405180830381600087803b15801561191957600080fd5b505af115801561192d573d6000803e3d6000fd5b50506040517f4cc822150000000000000000000000000000000000000000000000000000000081526004810187905273ffffffffffffffffffffffffffffffffffffffff85169250634cc8221591506024015b600060405180830381600087803b15801561199a57600080fd5b505af1158015610da4573d6000803e3d6000fd5b6040517fcccf7a8e0000000000000000000000000000000000000000000000000000000081526004810185905273ffffffffffffffffffffffffffffffffffffffff82169063cccf7a8e90602401602060405180830381865afa158015611a19573d6000803e3d6000fd5b505050506040513d601f19601f82011682018060405250810190611a3d919061235e565b611ac8576040517f1ab06ee50000000000000000000000000000000000000000000000000000000081526004810185905243602482015273ffffffffffffffffffffffffffffffffffffffff821690631ab06ee590604401600060405180830381600087803b158015611aaf57600080fd5b505af1158015611ac3573d6000803e3d6000fd5b505050505b6040517fd923c3c40000000000000000000000000000000000000000000000000000000081526004810185905263ffffffff8416602482015273ffffffffffffffffffffffffffffffffffffffff83169063d923c3c490604401611980565b7f8a22373512790c48b83a1fe2efdd2888d4a917bcdc24d0adf63e60f671680460805460405173ffffffffffffffffffffffffffffffffffffffff8481169216907f8be0079c531659141344cd1fd0a4f28419497f9722a3daafe3b4186f6b6457e090600090a380547fffffffffffffffffffffffff00000000000000000000000000000000000000001673ffffffffffffffffffffffffffffffffffffffff92909216919091179055565b6040517fcccf7a8e0000000000000000000000000000000000000000000000000000000081526004810182905260009073ffffffffffffffffffffffffffffffffffffffff84169063cccf7a8e90602401602060405180830381865afa158015611c41573d6000803e3d6000fd5b505050506040513d601f19601f82011682018060405250810190611c65919061235e565b611c705760006102f8565b6040517f0ff4c9160000000000000000000000000000000000000000000000000000000081526004810183905273ffffffffffffffffffffffffffffffffffffffff841690630ff4c91690602401602060405180830381865afa158015611cdb573d6000803e3d6000fd5b505050506040513d601f19601f820116820180604052508101906102f891906123b2565b600080611d0d858585611f54565b6040517f4f27da180000000000000000000000000000000000000000000000000000000081527ffba48a04766694c16713a414735f83be9cb20bbb29b5e18846cc8f15106408456004820152909150600090611df29073ffffffffffffffffffffffffffffffffffffffff881690634f27da1890602401602060405180830381865afa158015611da1573d6000803e3d6000fd5b505050506040513d601f19601f82011682018060405250810190611dc5919061223e565b6040805160208082018990528183018a905282518083038401815260609092019092528051910120611bd3565b90508063ffffffff168263ffffffff1611611e1257600092505050611e21565b611e1c8183612450565b925050505b9392505050565b6040517fcccf7a8e0000000000000000000000000000000000000000000000000000000081526004810182905260009073ffffffffffffffffffffffffffffffffffffffff84169063cccf7a8e90602401602060405180830381865afa158015611e96573d6000803e3d6000fd5b505050506040513d601f19601f82011682018060405250810190611eba919061235e565b611ec55760006102f8565b6040517f0ff4c9160000000000000000000000000000000000000000000000000000000081526004810183905273ffffffffffffffffffffffffffffffffffffffff841690630ff4c91690602401602060405180830381865afa158015611f30573d6000803e3d6000fd5b505050506040513d601f19601f820116820180604052508101906102f89190612380565b6040517f4f27da180000000000000000000000000000000000000000000000000000000081527f211ec405e276c4670499c53a5acad168c5576b06d549dd3a610b8d516174e2d960048201526000906105069073ffffffffffffffffffffffffffffffffffffffff861690634f27da1890602401602060405180830381865afa158015611fe5573d6000803e3d6000fd5b505050506040513d601f19601f82011682018060405250810190612009919061223e565b60408051602080820187905281830188905282518083038401815260609092019092528051910120611bd3565b7f4e487b7100000000000000000000000000000000000000000000000000000000600052604160045260246000fd5b604051601f82017fffffffffffffffffffffffffffffffffffffffffffffffffffffffffffffffe016810167ffffffffffffffff811182821017156120ac576120ac612036565b604052919050565b600060208083850312156120c757600080fd5b823567ffffffffffffffff808211156120df57600080fd5b818501915085601f8301126120f357600080fd5b81358181111561210557612105612036565b612135847fffffffffffffffffffffffffffffffffffffffffffffffffffffffffffffffe0601f84011601612065565b9150808252868482850101111561214b57600080fd5b8084840185840137600090820190930192909252509392505050565b600060208083528351808285015260005b8181101561219457858101830151858201604001528201612178565b5060006040828601015260407fffffffffffffffffffffffffffffffffffffffffffffffffffffffffffffffe0601f8301168501019250505092915050565b73ffffffffffffffffffffffffffffffffffffffff811681146103bf57600080fd5b6000806040838503121561220857600080fd5b8235612213816121d3565b946020939093013593505050565b60006020828403121561223357600080fd5b8135611e21816121d3565b60006020828403121561225057600080fd5b8151611e21816121d3565b6000806040838503121561226e57600080fd5b8251612279816121d3565b6020939093015192949293505050565b6000602080838503121561229c57600080fd5b825167ffffffffffffffff808211156122b457600080fd5b818501915085601f8301126122c857600080fd5b8151818111156122da576122da612036565b8060051b91506122eb848301612065565b818152918301840191848101908884111561230557600080fd5b938501935b838510156123235784518252938501939085019061230a565b98975050505050505050565b7f4e487b7100000000000000000000000000000000000000000000000000000000600052603260045260246000fd5b60006020828403121561237057600080fd5b81518015158114611e2157600080fd5b60006020828403121561239257600080fd5b5051919050565b805163ffffffff811681146123ad57600080fd5b919050565b6000602082840312156123c457600080fd5b6102f882612399565b6000604082840312156123df57600080fd5b6040516040810181811067ffffffffffffffff8211171561240257612402612036565b6040528251815261241560208401612399565b60208201529392505050565b7f4e487b7100000000000000000000000000000000000000000000000000000000600052601160045260246000fd5b63ffffffff82811682821603908082111561246d5761246d612421565b5092915050565b63ffffffff81811683821601908082111561246d5761246d612421565b818103818111156102fb576102fb612421565b63ffffffff8181168382160280821691908281146124c4576124c4612421565b505092915050565b60007fffffffffffffffffffffffffffffffffffffffffffffffffffffffffffffffff82036124fd576124fd612421565b506001019056fea2646970667358221220b4ffc4a0ec0fdc7a989deb3b14cf360f950064b7d2f4bd780f3ddbbb2da9ad7564736f6c63430008130033",
    "linkReferences": {}
  },
  "methodIdentifiers": {
    "execute(bytes)": "09c5eabe",
    "executeTyped(address,uint256)": "6ad0ccab",
    "owner()": "8da5cb5b",
    "transferOwnership(address)": "f2fde38b"
  },
  "id": 159
}