{
  "abi": [
    {
      "inputs": [
        {
          "internalType": "contract IWorld",
          "name": "_world",
          "type": "address"
        },
        {
          "internalType": "address",
          "name": "_components",
          "type": "address"
        }
      ],
      "stateMutability": "nonpayable",
      "type": "constructor"
    },
    {
      "inputs": [],
      "name": "Ownable__NotOwner",
      "type": "error"
    },
    {
      "inputs": [],
      "name": "Ownable__NotTransitiveOwner",
      "type": "error"
    },
    {
      "anonymous": false,
      "inputs": [
        {
          "indexed": true,
          "internalType": "address",
          "name": "previousOwner",
          "type": "address"
        },
        {
          "indexed": true,
          "internalType": "address",
          "name": "newOwner",
          "type": "address"
        }
      ],
      "name": "OwnershipTransferred",
      "type": "event"
    },
    {
      "inputs": [
        {
          "internalType": "bytes",
          "name": "args",
          "type": "bytes"
        }
      ],
      "name": "execute",
      "outputs": [
        {
          "internalType": "bytes",
          "name": "",
          "type": "bytes"
        }
      ],
      "stateMutability": "nonpayable",
      "type": "function"
    },
    {
      "inputs": [],
      "name": "owner",
      "outputs": [
        {
          "internalType": "address",
          "name": "",
          "type": "address"
        }
      ],
      "stateMutability": "view",
      "type": "function"
    },
    {
      "inputs": [
        {
          "internalType": "address",
          "name": "account",
          "type": "address"
        }
      ],
      "name": "transferOwnership",
      "outputs": [],
      "stateMutability": "nonpayable",
      "type": "function"
    }
  ],
  "bytecode": {
    "object": "0x608060405234801561001057600080fd5b5060405161056b38038061056b83398101604081905261002f916101ce565b818161003a3361013c565b6001600160a01b0381161561004f57806100b1565b816001600160a01b031663ba62fbe46040518163ffffffff1660e01b8152600401602060405180830381865afa15801561008d573d6000803e3d6000fd5b505050506040513d601f19601f820116820180604052508101906100b19190610208565b600080546001600160a01b039283166001600160a01b0319918216811790925560018054938616938216841790557ff67304f10c7772c78e439bc5cb07781db345424de8878c18100fdaa64d197a87805482169093179092557ff67304f10c7772c78e439bc5cb07781db345424de8878c18100fdaa64d197a8680549092161790555050505061022c565b7f8a22373512790c48b83a1fe2efdd2888d4a917bcdc24d0adf63e60f67168046080546040516001600160a01b038481169216907f8be0079c531659141344cd1fd0a4f28419497f9722a3daafe3b4186f6b6457e090600090a380546001600160a01b0319166001600160a01b0392909216919091179055565b6001600160a01b03811681146101cb57600080fd5b50565b600080604083850312156101e157600080fd5b82516101ec816101b6565b60208401519092506101fd816101b6565b809150509250929050565b60006020828403121561021a57600080fd5b8151610225816101b6565b9392505050565b6103308061023b6000396000f3fe608060405234801561001057600080fd5b50600436106100415760003560e01c806309c5eabe146100465780638da5cb5b14610070578063f2fde38b14610090575b600080fd5b61005a6100543660046101cb565b50606090565b604051610067919061027c565b60405180910390f35b6100786100a5565b6040516001600160a01b039091168152602001610067565b6100a361009e3660046102ca565b6100dd565b005b60006100d87f8a22373512790c48b83a1fe2efdd2888d4a917bcdc24d0adf63e60f671680460546001600160a01b031690565b905090565b7f8a22373512790c48b83a1fe2efdd2888d4a917bcdc24d0adf63e60f671680460546001600160a01b0316331461012757604051632f7a8ee160e01b815260040160405180910390fd5b61013081610133565b50565b7f8a22373512790c48b83a1fe2efdd2888d4a917bcdc24d0adf63e60f671680460805460405161013092849290916001600160a01b038085169216907f8be0079c531659141344cd1fd0a4f28419497f9722a3daafe3b4186f6b6457e090600090a380546001600160a01b0319166001600160a01b0392909216919091179055565b634e487b7160e01b600052604160045260246000fd5b6000602082840312156101dd57600080fd5b813567ffffffffffffffff808211156101f557600080fd5b818401915084601f83011261020957600080fd5b81358181111561021b5761021b6101b5565b604051601f8201601f19908116603f01168101908382118183101715610243576102436101b5565b8160405282815287602084870101111561025c57600080fd5b826020860160208301376000928101602001929092525095945050505050565b600060208083528351808285015260005b818110156102a95785810183015185820160400152820161028d565b506000604082860101526040601f19601f8301168501019250505092915050565b6000602082840312156102dc57600080fd5b81356001600160a01b03811681146102f357600080fd5b939250505056fea26469706673582212208b357e1689c5fa9dc9f6e7286010dd38e7fd29bd79cf4503f470630a66a1e03164736f6c63430008130033",
    "linkReferences": {}
  },
  "methodIdentifiers": {
    "execute(bytes)": "09c5eabe",
    "owner()": "8da5cb5b",
    "transferOwnership(address)": "f2fde38b"
  },
  "id": 254
}