{
  "abi": [
    {
      "inputs": [
        {
          "internalType": "contract IWorld",
          "name": "_world",
          "type": "address"
        },
        {
          "internalType": "address",
          "name": "_components",
          "type": "address"
        }
      ],
      "stateMutability": "nonpayable",
      "type": "constructor"
    },
    {
      "inputs": [],
      "name": "Ownable__NotOwner",
      "type": "error"
    },
    {
      "inputs": [],
      "name": "Ownable__NotTransitiveOwner",
      "type": "error"
    },
    {
      "anonymous": false,
      "inputs": [
        {
          "indexed": true,
          "internalType": "address",
          "name": "previousOwner",
          "type": "address"
        },
        {
          "indexed": true,
          "internalType": "address",
          "name": "newOwner",
          "type": "address"
        }
      ],
      "name": "OwnershipTransferred",
      "type": "event"
    },
    {
      "inputs": [
        {
          "internalType": "bytes",
          "name": "args",
          "type": "bytes"
        }
      ],
      "name": "execute",
      "outputs": [
        {
          "internalType": "bytes",
          "name": "",
          "type": "bytes"
        }
      ],
      "stateMutability": "nonpayable",
      "type": "function"
    },
    {
      "inputs": [
        {
          "internalType": "uint256",
          "name": "rockEntity",
          "type": "uint256"
        }
      ],
      "name": "executeTyped",
      "outputs": [
        {
          "internalType": "bytes",
          "name": "",
          "type": "bytes"
        }
      ],
      "stateMutability": "nonpayable",
      "type": "function"
    },
    {
      "inputs": [],
      "name": "owner",
      "outputs": [
        {
          "internalType": "address",
          "name": "",
          "type": "address"
        }
      ],
      "stateMutability": "view",
      "type": "function"
    },
    {
      "inputs": [
        {
          "internalType": "address",
          "name": "account",
          "type": "address"
        }
      ],
      "name": "transferOwnership",
      "outputs": [],
      "stateMutability": "nonpayable",
      "type": "function"
    }
  ],
  "bytecode": {
    "object": "0x60806040523480156200001157600080fd5b5060405162003c5f38038062003c5f8339810160408190526200003491620001e0565b8181818162000043336200014d565b6001600160a01b038116156200005a5780620000bf565b816001600160a01b031663ba62fbe46040518163ffffffff1660e01b8152600401602060405180830381865afa15801562000099573d6000803e3d6000fd5b505050506040513d601f19601f82011682018060405250810190620000bf91906200021f565b600080546001600160a01b039283166001600160a01b0319918216811790925560018054938616938216841790557ff67304f10c7772c78e439bc5cb07781db345424de8878c18100fdaa64d197a87805482169093179092557ff67304f10c7772c78e439bc5cb07781db345424de8878c18100fdaa64d197a86805490921617905550505050505062000246565b7f8a22373512790c48b83a1fe2efdd2888d4a917bcdc24d0adf63e60f67168046080546040516001600160a01b038481169216907f8be0079c531659141344cd1fd0a4f28419497f9722a3daafe3b4186f6b6457e090600090a380546001600160a01b0319166001600160a01b0392909216919091179055565b6001600160a01b0381168114620001dd57600080fd5b50565b60008060408385031215620001f457600080fd5b82516200020181620001c7565b60208401519092506200021481620001c7565b809150509250929050565b6000602082840312156200023257600080fd5b81516200023f81620001c7565b9392505050565b613a0980620002566000396000f3fe608060405234801561001057600080fd5b506004361061004c5760003560e01c806309c5eabe146100515780633e991df31461007a5780638da5cb5b1461008d578063f2fde38b146100ad575b600080fd5b61006461005f3660046131d8565b6100c2565b604051610071919061327b565b60405180910390f35b6100646100883660046132ae565b610342565b610095610374565b6040516001600160a01b039091168152602001610071565b6100c06100bb3660046132dc565b6103ac565b005b60606000828060200190518101906100da91906132f9565b905060006101077faf90be6cd7aa92d6569a9ae629178b74e1b0fbdd1097c27ec1dfffd2dc4c7540610402565b604051636667bd4760e11b8152600481018490529091506001600160a01b0382169063cccf7a8e90602401602060405180830381865afa15801561014f573d6000803e3d6000fd5b505050506040513d601f19601f820116820180604052508101906101739190613312565b1561030757600154604080516306ac999760e11b8152905161020d926001600160a01b031691630d59332e9160048083019260209291908290030181865afa1580156101c3573d6000803e3d6000fd5b505050506040513d601f19601f820116820180604052508101906101e79190613334565b7f23f1f9079cb71316c5eb52dd7b962c701570062c868964f0a09f40cb1f882281610415565b6001600160a01b0316636ad0ccab610290836001600160a01b0316630ff4c916866040518263ffffffff1660e01b815260040161024c91815260200190565b602060405180830381865afa158015610269573d6000803e3d6000fd5b505050506040513d601f19601f8201168201806040525081019061028d91906132f9565b90565b6040516001600160e01b031960e084901b1681526001600160a01b039091166004820152602481018590526044016000604051808303816000875af11580156102dd573d6000803e3d6000fd5b505050506040513d6000823e601f3d908101601f191682016040526103059190810190613351565b505b60015461031e906001600160a01b031633846104fc565b60408051602081018490520160405160208183030381529060405292505050919050565b606061036e8260405160200161035a91815260200190565b6040516020818303038152906040526100c2565b92915050565b60006103a77f8a22373512790c48b83a1fe2efdd2888d4a917bcdc24d0adf63e60f671680460546001600160a01b031690565b905090565b7f8a22373512790c48b83a1fe2efdd2888d4a917bcdc24d0adf63e60f671680460546001600160a01b031633146103f657604051632f7a8ee160e01b815260040160405180910390fd5b6103ff81610c23565b50565b6000805461036e906001600160a01b0316835b604051637defd0f560e11b81526004810182905260009081906001600160a01b0385169063fbdfa1ea90602401600060405180830381865afa15801561045f573d6000803e3d6000fd5b505050506040513d6000823e601f3d908101601f191682016040526104879190810190613450565b905080516000036104d35760405162461bcd60e51b81526020600482015260116024820152701a59081b9bdd081c9959da5cdd195c9959607a1b60448201526064015b60405180910390fd5b6104f4816000815181106104e9576104e9613484565b602002602001015190565b949350505050565b6040516309e4fb4360e31b81527faf90be6cd7aa92d6569a9ae629178b74e1b0fbdd1097c27ec1dfffd2dc4c754060048201526000906001600160a01b03851690634f27da1890602401602060405180830381865afa158015610563573d6000803e3d6000fd5b505050506040513d601f19601f820116820180604052508101906105879190613334565b905060006105958343610c2c565b6040516309e4fb4360e31b81527f54503ed0adc1ee183e210d2dafda9a19dbe669eaef7621753179cec7de6492f560048201529091506001600160a01b03861690634f27da1890602401602060405180830381865afa1580156105fc573d6000803e3d6000fd5b505050506040513d601f19601f820116820180604052508101906106209190613334565b604051631ab06ee560e01b815260048101839052602481018590526001600160a01b039190911690631ab06ee590604401600060405180830381600087803b15801561066b57600080fd5b505af115801561067f573d6000803e3d6000fd5b506001925061068c915050565b6040516309e4fb4360e31b81527ff18c85dc8044969168fe68af2b3239ad68b185f16d2fa46ca0d19909255133f960048201526001600160a01b03871690634f27da1890602401602060405180830381865afa1580156106f0573d6000803e3d6000fd5b505050506040513d601f19601f820116820180604052508101906107149190613334565b6001600160a01b0316630ff4c916856040518263ffffffff1660e01b815260040161074191815260200190565b602060405180830381865afa15801561075e573d6000803e3d6000fd5b505050506040513d601f19601f8201168201806040525081019061078291906134cd565b60028111156107935761079361349a565b146107e05760405162461bcd60e51b815260206004820181905260248201527f4c6962526169643a2063616e206f6e6c7920726169642061737465726f69647360448201526064016104ca565b6107ee858286866001610c58565b604051636667bd4760e11b8152600481018490526000906001600160a01b0384169063cccf7a8e90602401602060405180830381865afa158015610836573d6000803e3d6000fd5b505050506040513d601f19601f8201168201806040525081019061085a9190613312565b15610992576040516307fa648b60e11b81526004810185905285906001600160a01b03851690630ff4c91690602401602060405180830381865afa1580156108a6573d6000803e3d6000fd5b505050506040513d601f19601f820116820180604052508101906108ca91906132f9565b036109225760405162461bcd60e51b815260206004820152602260248201527f5b526169645d3a2063616e206e6f74207261696420796f7572206f776e20726f604482015261636b60f01b60648201526084016104ca565b6040516307fa648b60e11b8152600481018590526001600160a01b03841690630ff4c91690602401602060405180830381865afa158015610967573d6000803e3d6000fd5b505050506040513d601f19601f8201168201806040525081019061098b91906132f9565b90506109e5565b60405162461bcd60e51b815260206004820152602260248201527f4c6962526169643a2063616e206e6f74207261696420756e6f776e656420726f604482015261636b60f01b60648201526084016104ca565b6109f18683838761112f565b610a7c866001600160a01b0316630d59332e6040518163ffffffff1660e01b8152600401602060405180830381865afa158015610a32573d6000803e3d6000fd5b505050506040513d601f19601f82011682018060405250810190610a569190613334565b7f818be63b04ffbd644aad8b326e11f40756facd1043d3c817144d6256bd816b8a610415565b6001600160a01b0316636ad0ccab866040516001600160e01b031960e084901b1681526001600160a01b039091166004820152602481018590526044016000604051808303816000875af1158015610ad8573d6000803e3d6000fd5b505050506040513d6000823e601f3d908101601f19168201604052610b009190810190613351565b50610b8c866001600160a01b0316630d59332e6040518163ffffffff1660e01b8152600401602060405180830381865afa158015610b42573d6000803e3d6000fd5b505050506040513d601f19601f82011682018060405250810190610b669190613334565b7f5c408342932b25f6b6ba6226ee59fdfadb0c339ccb8db944d59afca4c5c15260610415565b6001600160a01b0316636ad0ccab866040516001600160e01b031960e084901b1681526001600160a01b039091166004820152602481018590526044016000604051808303816000875af1158015610be8573d6000803e3d6000fd5b505050506040513d6000823e601f3d908101601f19168201604052610c109190810190613351565b50610c1b86836114a3565b505050505050565b6103ff81611aca565b604080516020808201949094528082019290925280518083038201815260609092019052805191012090565b6040516309e4fb4360e31b81527f36b0c3b8398693329455058d1e1551eb4ed06a51e8f6e8cffc5da55872caccd860048201526000906001600160a01b03871690634f27da1890602401602060405180830381865afa158015610cbf573d6000803e3d6000fd5b505050506040513d601f19601f82011682018060405250810190610ce39190613334565b9050610d106040518060800160405280600081526020016060815260200160608152602001606081525090565b8481526040516309e4fb4360e31b81527f1637987787e4c0e1b376a0a4c44d9803d16014ee56d45bdca1e885d52368752460048201526001600160a01b03881690634f27da1890602401602060405180830381865afa158015610d77573d6000803e3d6000fd5b505050506040513d601f19601f82011682018060405250810190610d9b9190613334565b6001600160a01b03166331b933b96040518163ffffffff1660e01b8152600401600060405180830381865afa158015610dd8573d6000803e3d6000fd5b505050506040513d6000823e601f3d908101601f19168201604052610e009190810190613450565b60208201819052516001600160401b03811115610e1f57610e1f6130ff565b604051908082528060200260200182016040528015610e48578160200160208202803683370190505b5060608201526020810151516001600160401b03811115610e6b57610e6b6130ff565b604051908082528060200260200182016040528015610e94578160200160208202803683370190505b50604082015260005b816020015151811015610f0f57610ed2888784602001518481518110610ec557610ec5613484565b6020026020010151611b44565b82604001518281518110610ee857610ee8613484565b63ffffffff9092166020928302919091019091015280610f0781613500565b915050610e9d565b506000610f1c8686610c2c565b6040516309e4fb4360e31b81527fd45fdfed2b19493f9c0dea49312c61e65de5d4865d541980330c47bdce57e1456004820152909150600090610fb4906001600160a01b038b1690634f27da1890602401602060405180830381865afa158015610f8a573d6000803e3d6000fd5b505050506040513d601f19601f82011682018060405250810190610fae9190613334565b83611bf2565b63ffffffff16905060005b818110156110c3576000610fd48b8584611cd2565b9050866002811115610fe857610fe861349a565b81516002811115610ffb57610ffb61349a565b14611013578161100a81613500565b92505050610fbf565b438160400151116110b35760005b816020015151811015611095578160200151818151811061104457611044613484565b6020026020010151602001518660600151828151811061106657611066613484565b6020026020010181815161107a9190613519565b63ffffffff169052508061108d81613500565b915050611021565b506110a18b8584611fe4565b826110ab8161353d565b9350506110bd565b8161100a81613500565b50610fbf565b604051635af59b8560e01b81526001600160a01b03861690635af59b85906110f1908c908890600401613595565b600060405180830381600087803b15801561110b57600080fd5b505af115801561111f573d6000803e3d6000fd5b5050505050505050505050505050565b6040516309e4fb4360e31b81527ff9768ca34b9927c41f0ddbd0cce635ef12f645937c14ca934428e6a9c05e48da60048201526000906001600160a01b03861690634f27da1890602401602060405180830381865afa158015611196573d6000803e3d6000fd5b505050506040513d601f19601f820116820180604052508101906111ba9190613334565b90506111e76040518060800160405280600081526020016060815260200160608152602001606081525090565b8381526040516309e4fb4360e31b81527f1637987787e4c0e1b376a0a4c44d9803d16014ee56d45bdca1e885d52368752460048201526001600160a01b03871690634f27da1890602401602060405180830381865afa15801561124e573d6000803e3d6000fd5b505050506040513d601f19601f820116820180604052508101906112729190613334565b604051621326ab60e01b8152600160048201526001600160a01b039190911690621326ab90602401600060405180830381865afa1580156112b7573d6000803e3d6000fd5b505050506040513d6000823e601f3d908101601f191682016040526112df9190810190613450565b60208201819052516001600160401b038111156112fe576112fe6130ff565b604051908082528060200260200182016040528015611327578160200160208202803683370190505b5060608201526020810151516001600160401b0381111561134a5761134a6130ff565b604051908082528060200260200182016040528015611373578160200160208202803683370190505b50604082015260005b81602001515181101561143a576113b2878686856020015185815181106113a5576113a5613484565b602002602001015161242b565b826060015182815181106113c8576113c8613484565b602002602001019063ffffffff16908163ffffffff16815250506113fd878684602001518481518110610ec557610ec5613484565b8260400151828151811061141357611413613484565b63ffffffff909216602092830291909101909101528061143281613500565b91505061137c565b50604051635af59b8560e01b81526001600160a01b03831690635af59b85906114699088908590600401613595565b600060405180830381600087803b15801561148357600080fd5b505af1158015611497573d6000803e3d6000fd5b50505050505050505050565b60006114af83836124b8565b90508063ffffffff166000036114c457505050565b6040516309e4fb4360e31b81527ff9768ca34b9927c41f0ddbd0cce635ef12f645937c14ca934428e6a9c05e48da60048201526000906001600160a01b03851690634f27da1890602401602060405180830381865afa15801561152b573d6000803e3d6000fd5b505050506040513d601f19601f8201168201806040525081019061154f9190613334565b6001600160a01b0316630ff4c916846040518263ffffffff1660e01b815260040161157c91815260200190565b600060405180830381865afa158015611599573d6000803e3d6000fd5b505050506040513d6000823e601f3d908101601f191682016040526115c191908101906136ad565b90506000806115d4868460000151612798565b915091508163ffffffff166000036115ee57505050505050565b6040516309e4fb4360e31b81527f36b0c3b8398693329455058d1e1551eb4ed06a51e8f6e8cffc5da55872caccd860048201526000906001600160a01b03881690634f27da1890602401602060405180830381865afa158015611655573d6000803e3d6000fd5b505050506040513d601f19601f820116820180604052508101906116799190613334565b6001600160a01b0316630ff4c916876040518263ffffffff1660e01b81526004016116a691815260200190565b600060405180830381865afa1580156116c3573d6000803e3d6000fd5b505050506040513d6000823e601f3d908101601f191682016040526116eb91908101906136ad565b9050611778876001600160a01b0316630d59332e6040518163ffffffff1660e01b8152600401602060405180830381865afa15801561172e573d6000803e3d6000fd5b505050506040513d601f19601f820116820180604052508101906117529190613334565b7f40ee8c39d5cf0b3c6e07793b5cfd23330619cdc22f94ffb15aba9396f261525f610415565b6001600160a01b031663240b27e6611791866000015190565b6040516001600160e01b031960e084901b1681526001600160a01b0390911660048201526024016000604051808303816000875af11580156117d7573d6000803e3d6000fd5b505050506040513d6000823e601f3d908101601f191682016040526117ff9190810190613351565b50611841876001600160a01b0316630d59332e6040518163ffffffff1660e01b8152600401602060405180830381865afa15801561172e573d6000803e3d6000fd5b6001600160a01b031663240b27e661185a836000015190565b6040516001600160e01b031960e084901b1681526001600160a01b0390911660048201526024016000604051808303816000875af11580156118a0573d6000803e3d6000fd5b505050506040513d6000823e601f3d908101601f191682016040526118c89190810190613351565b506040516309e4fb4360e31b81527f72887d78bbad0f2696fb431d6367da7b429df07154724db7df055e27fb64080f60048201526000906001600160a01b03891690634f27da1890602401602060405180830381865afa158015611930573d6000803e3d6000fd5b505050506040513d601f19601f820116820180604052508101906119549190613334565b85516040516307fa648b60e11b81526001600160a01b039290921691630ff4c916916119869160040190815260200190565b600060405180830381865afa1580156119a3573d6000803e3d6000fd5b505050506040513d6000823e601f3d908101601f191682016040526119cb9190810190613450565b905060005b8351811015611abf576000858583815181106119ee576119ee613484565b602002602001015189611a01919061376b565b611a0b9190613793565b90508063ffffffff16858381518110611a2657611a26613484565b602002602001015163ffffffff161015611a5757848281518110611a4c57611a4c613484565b602002602001015190505b611a808a8560000151858581518110611a7257611a72613484565b602002602001015184612a11565b50611aaa8a8860000151858581518110611a9c57611a9c613484565b602002602001015184612b10565b50508080611ab790613500565b9150506119d0565b505050505050505050565b7f8a22373512790c48b83a1fe2efdd2888d4a917bcdc24d0adf63e60f67168046080546040516001600160a01b038481169216907f8be0079c531659141344cd1fd0a4f28419497f9722a3daafe3b4186f6b6457e090600090a380546001600160a01b0319166001600160a01b0392909216919091179055565b600080611b518385610c2c565b6040516309e4fb4360e31b81527fbd262b900b9f3e3d6078d7a8e45d1bee5f4fd9547063f524ac4cbf611d37b44e6004820152909150611be7906001600160a01b03871690634f27da18906024015b602060405180830381865afa158015611bbd573d6000803e3d6000fd5b505050506040513d601f19601f82011682018060405250810190611be19190613334565b82611bf2565b9150505b9392505050565b604051636667bd4760e11b8152600481018290526000906001600160a01b0384169063cccf7a8e90602401602060405180830381865afa158015611c3a573d6000803e3d6000fd5b505050506040513d601f19601f82011682018060405250810190611c5e9190613312565b611c69576000611beb565b6040516307fa648b60e11b8152600481018390526001600160a01b03841690630ff4c91690602401602060405180830381865afa158015611cae573d6000803e3d6000fd5b505050506040513d601f19601f82011682018060405250810190611beb91906137c4565b611d136040805160e0810190915280600081526020016060815260200160008152602001600081526020016000815260200160008152602001600081525090565b6040516309e4fb4360e31b81527fd45fdfed2b19493f9c0dea49312c61e65de5d4865d541980330c47bdce57e14560048201526000906001600160a01b03861690634f27da1890602401602060405180830381865afa158015611d7a573d6000803e3d6000fd5b505050506040513d601f19601f82011682018060405250810190611d9e9190613334565b90506000611dac8286611bf2565b90508063ffffffff168410611dd35760405162461bcd60e51b81526004016104ca906137df565b6000611ddf8686610c2c565b6040516309e4fb4360e31b81527ffa4a0d59b8b1e16e79fdb8b2d0a8b06b5189b664b4ac382b586c64014469098e60048201529091506000906001600160a01b03891690634f27da1890602401602060405180830381865afa158015611e49573d6000803e3d6000fd5b505050506040513d601f19601f82011682018060405250810190611e6d9190613334565b6001600160a01b0316630ff4c916836040518263ffffffff1660e01b8152600401611e9a91815260200190565b602060405180830381865afa158015611eb7573d6000803e3d6000fd5b505050506040513d601f19601f82011682018060405250810190611edb91906132f9565b6040516309e4fb4360e31b81527f8e9099e75678919c8e1307fac4366e095ace966d09bb54991618c1fa0d72bf3360048201529091506001600160a01b03891690634f27da1890602401602060405180830381865afa158015611f42573d6000803e3d6000fd5b505050506040513d601f19601f82011682018060405250810190611f669190613334565b6001600160a01b0316630ff4c916826040518263ffffffff1660e01b8152600401611f9391815260200190565b600060405180830381865afa158015611fb0573d6000803e3d6000fd5b505050506040513d6000823e601f3d908101601f19168201604052611fd891908101906138a7565b98975050505050505050565b6040516309e4fb4360e31b81527fd45fdfed2b19493f9c0dea49312c61e65de5d4865d541980330c47bdce57e14560048201526000906001600160a01b03851690634f27da1890602401602060405180830381865afa15801561204b573d6000803e3d6000fd5b505050506040513d601f19601f8201168201806040525081019061206f9190613334565b6040516309e4fb4360e31b81527ffa4a0d59b8b1e16e79fdb8b2d0a8b06b5189b664b4ac382b586c64014469098e60048201529091506000906001600160a01b03861690634f27da1890602401602060405180830381865afa1580156120d9573d6000803e3d6000fd5b505050506040513d601f19601f820116820180604052508101906120fd9190613334565b9050600061210b8386611bf2565b90508063ffffffff1684106121325760405162461bcd60e51b81526004016104ca906137df565b600061214e86612143600185613959565b63ffffffff16610c2c565b6040516307fa648b60e11b8152600481018290529091506000906001600160a01b03851690630ff4c91690602401602060405180830381865afa158015612199573d6000803e3d6000fd5b505050506040513d601f19601f820116820180604052508101906121bd91906132f9565b905060006121cb8888610c2c565b6040516307fa648b60e11b8152600481018290529091506000906001600160a01b03871690630ff4c91690602401602060405180830381865afa158015612216573d6000803e3d6000fd5b505050506040513d601f19601f8201168201806040525081019061223a91906132f9565b604051631ab06ee560e01b815260048101849052602481018590529091506001600160a01b03871690631ab06ee590604401600060405180830381600087803b15801561228657600080fd5b505af115801561229a573d6000803e3d6000fd5b5050604051634cc8221560e01b8152600481018790526001600160a01b0389169250634cc822159150602401600060405180830381600087803b1580156122e057600080fd5b505af11580156122f4573d6000803e3d6000fd5b50506040516309e4fb4360e31b81527f8e9099e75678919c8e1307fac4366e095ace966d09bb54991618c1fa0d72bf3360048201526001600160a01b038d169250634f27da189150602401602060405180830381865afa15801561235c573d6000803e3d6000fd5b505050506040513d601f19601f820116820180604052508101906123809190613334565b6001600160a01b0316634cc82215826040518263ffffffff1660e01b81526004016123ad91815260200190565b600060405180830381600087803b1580156123c757600080fd5b505af11580156123db573d6000803e3d6000fd5b50505050866001600160a01b031663d923c3c48a6001886123fc9190613959565b6040516001600160e01b031960e085901b168152600481019290925263ffffffff1660248201526044016110f1565b604080516020808201849052818301869052606080830186905283518084039091018152608083019384905280519101206309e4fb4360e31b9092527f8bd637b568ed540cabc10b49a9f3688fe5b7e4b706298b6cd07c2e1ed5600e936084820152600091906124ae906001600160a01b03881690634f27da189060a401611ba0565b9695505050505050565b6040516309e4fb4360e31b81527f599ba4f498db499c3d65955cccdb49ec5849ea3e14dc235526a15d98a09e9644600482015260009081906001600160a01b03851690634f27da1890602401602060405180830381865afa158015612521573d6000803e3d6000fd5b505050506040513d601f19601f820116820180604052508101906125459190613334565b6040516309e4fb4360e31b81527f36b0c3b8398693329455058d1e1551eb4ed06a51e8f6e8cffc5da55872caccd860048201529091506000906001600160a01b03861690634f27da1890602401602060405180830381865afa1580156125af573d6000803e3d6000fd5b505050506040513d601f19601f820116820180604052508101906125d39190613334565b6040516307fa648b60e11b8152600481018690529091506000906001600160a01b03831690630ff4c91690602401600060405180830381865afa15801561261e573d6000803e3d6000fd5b505050506040513d6000823e601f3d908101601f1916820160405261264691908101906136ad565b90506000935060005b81602001515181101561278e578160600151818151811061267257612672613484565b602002602001015163ffffffff166000031561277c5760006126a988846000015185602001518581518110610ec557610ec5613484565b9050846001600160a01b0316630ff4c9166126e7856020015185815181106126d3576126d3613484565b60200260200101518463ffffffff16610c2c565b6040518263ffffffff1660e01b815260040161270591815260200190565b602060405180830381865afa158015612722573d6000803e3d6000fd5b505050506040513d601f19601f8201168201806040525081019061274691906137c4565b8360600151838151811061275c5761275c613484565b602002602001015161276e919061376b565b6127789087613519565b9550505b8061278681613500565b91505061264f565b5050505092915050565b6040516309e4fb4360e31b81526000805160206139b4833981519152600482015260009060609082906001600160a01b03861690634f27da1890602401602060405180830381865afa1580156127f2573d6000803e3d6000fd5b505050506040513d601f19601f820116820180604052508101906128169190613334565b6040516309e4fb4360e31b81527f72887d78bbad0f2696fb431d6367da7b429df07154724db7df055e27fb64080f60048201529091506000906001600160a01b03871690634f27da1890602401602060405180830381865afa158015612880573d6000803e3d6000fd5b505050506040513d601f19601f820116820180604052508101906128a49190613334565b6040516307fa648b60e11b8152600481018790529091506000906001600160a01b03831690630ff4c91690602401600060405180830381865afa1580156128ef573d6000803e3d6000fd5b505050506040513d6000823e601f3d908101601f191682016040526129179190810190613450565b905080516001600160401b03811115612932576129326130ff565b60405190808252806020026020018201604052801561295b578160200160208202803683370190505b5093506000945060005b8151811015612a0657600061299383838151811061298557612985613484565b602002602001015189610c2c565b905061299f8582611bf2565b8683815181106129b1576129b1613484565b602002602001019063ffffffff16908163ffffffff16815250508582815181106129dd576129dd613484565b6020026020010151876129f09190613519565b96505080806129fe90613500565b915050612965565b505050509250929050565b6040516309e4fb4360e31b81526000805160206139b4833981519152600482015260009081906001600160a01b03871690634f27da1890602401602060405180830381865afa158015612a68573d6000803e3d6000fd5b505050506040513d601f19601f82011682018060405250810190612a8c9190613334565b90506000612a9a8587610c2c565b90506000612aa9888888612be5565b90508463ffffffff168163ffffffff161115612aeb57612adf88888888612ad08888611bf2565b612ada9190613519565b612cac565b600093505050506104f4565b612afc88888884612ad08888611bf2565b612b068186613959565b93505050506104f4565b6040516309e4fb4360e31b81526000805160206139b4833981519152600482015260009081906001600160a01b03871690634f27da1890602401602060405180830381865afa158015612b67573d6000803e3d6000fd5b505050506040513d601f19601f82011682018060405250810190612b8b9190613334565b90506000612b998587610c2c565b90506000612ba78383611bf2565b90508463ffffffff168163ffffffff161115612bd857612adf88888888612bce8888611bf2565b612ada9190613959565b612afc8888886000612cac565b600080612bf3858585612f86565b6040516309e4fb4360e31b81526000805160206139b48339815191526004820152909150600090612c82906001600160a01b03881690634f27da1890602401602060405180830381865afa158015612c4f573d6000803e3d6000fd5b505050506040513d601f19601f82011682018060405250810190612c739190613334565b612c7d8688610c2c565b611bf2565b90508063ffffffff168263ffffffff1611612ca257600092505050611beb565b6124ae8183613959565b6040516309e4fb4360e31b81526000805160206139b483398151915260048201526000906001600160a01b03861690634f27da1890602401602060405180830381865afa158015612d01573d6000803e3d6000fd5b505050506040513d601f19601f82011682018060405250810190612d259190613334565b6040516309e4fb4360e31b81527f8d5746953402e95fa35ce71ddaa7efe7922c48a307985b7d64ea3f27abcb14f960048201529091506000906001600160a01b03871690634f27da1890602401602060405180830381865afa158015612d8f573d6000803e3d6000fd5b505050506040513d601f19601f82011682018060405250810190612db39190613334565b90506000612dc18587610c2c565b90506000612dcf8483611bf2565b90506000612ddd848961301f565b6040516309e4fb4360e31b81527fd9603ec917f4576302b3c02b1fa235f8e01465fbf139aba994a05da60796f53e6004820152909150600090612e75906001600160a01b038c1690634f27da1890602401602060405180830381865afa158015612e4b573d6000803e3d6000fd5b505050506040513d601f19601f82011682018060405250810190612e6f9190613334565b8961301f565b90508263ffffffff168763ffffffff161015612ec357612e958784613959565b612ea59063ffffffff1682613976565b905081811115612eb25750805b612ebc818361398d565b9150612eec565b612ecd8388613959565b612edd9063ffffffff1682613976565b9050612ee981836139a0565b91505b604051631ab06ee560e01b8152600481018a9052602481018390526001600160a01b03861690631ab06ee590604401600060405180830381600087803b158015612f3557600080fd5b505af1158015612f49573d6000803e3d6000fd5b5050604051633648f0f160e21b81526004810187905263ffffffff8a1660248201526001600160a01b038916925063d923c3c491506044016110f1565b6040516309e4fb4360e31b81527f16b501788471b0e2be7833a8d54a049f02ca15b837831d34c5bc534a33e5a1f760048201526000906104f4906001600160a01b03861690634f27da1890602401602060405180830381865afa158015612ff1573d6000803e3d6000fd5b505050506040513d601f19601f820116820180604052508101906130159190613334565b612c7d8486610c2c565b604051636667bd4760e11b8152600481018290526000906001600160a01b0384169063cccf7a8e90602401602060405180830381865afa158015613067573d6000803e3d6000fd5b505050506040513d601f19601f8201168201806040525081019061308b9190613312565b613096576000611beb565b6040516307fa648b60e11b8152600481018390526001600160a01b03841690630ff4c91690602401602060405180830381865afa1580156130db573d6000803e3d6000fd5b505050506040513d601f19601f82011682018060405250810190611beb91906132f9565b634e487b7160e01b600052604160045260246000fd5b604051608081016001600160401b0381118282101715613137576131376130ff565b60405290565b604080519081016001600160401b0381118282101715613137576131376130ff565b60405160e081016001600160401b0381118282101715613137576131376130ff565b604051601f8201601f191681016001600160401b03811182821017156131a9576131a96130ff565b604052919050565b60006001600160401b038211156131ca576131ca6130ff565b50601f01601f191660200190565b6000602082840312156131ea57600080fd5b81356001600160401b0381111561320057600080fd5b8201601f8101841361321157600080fd5b803561322461321f826131b1565b613181565b81815285602083850101111561323957600080fd5b81602084016020830137600091810160200191909152949350505050565b60005b8381101561327257818101518382015260200161325a565b50506000910152565b602081526000825180602084015261329a816040850160208701613257565b601f01601f19169190910160400192915050565b6000602082840312156132c057600080fd5b5035919050565b6001600160a01b03811681146103ff57600080fd5b6000602082840312156132ee57600080fd5b8135611beb816132c7565b60006020828403121561330b57600080fd5b5051919050565b60006020828403121561332457600080fd5b81518015158114611beb57600080fd5b60006020828403121561334657600080fd5b8151611beb816132c7565b60006020828403121561336357600080fd5b81516001600160401b0381111561337957600080fd5b8201601f8101841361338a57600080fd5b805161339861321f826131b1565b8181528560208385010111156133ad57600080fd5b6133be826020830160208601613257565b95945050505050565b60006001600160401b038211156133e0576133e06130ff565b5060051b60200190565b600082601f8301126133fb57600080fd5b8151602061340b61321f836133c7565b82815260059290921b8401810191818101908684111561342a57600080fd5b8286015b84811015613445578051835291830191830161342e565b509695505050505050565b60006020828403121561346257600080fd5b81516001600160401b0381111561347857600080fd5b6104f4848285016133ea565b634e487b7160e01b600052603260045260246000fd5b634e487b7160e01b600052602160045260246000fd5b600381106103ff57600080fd5b80516134c8816134b0565b919050565b6000602082840312156134df57600080fd5b8151611beb816134b0565b634e487b7160e01b600052601160045260246000fd5b600060018201613512576135126134ea565b5060010190565b63ffffffff818116838216019080821115613536576135366134ea565b5092915050565b60008161354c5761354c6134ea565b506000190190565b600081518084526020808501945080840160005b8381101561358a57815163ffffffff1687529582019590820190600101613568565b509495945050505050565b8281526000602060408184015260c0830184516040850152818501516080606086015281815180845260e0870191508483019350600092505b808310156135ee57835182529284019260019290920191908401906135ce565b5060408701519350603f1992508286820301608087015261360f8185613554565b935050506060850151818584030160a086015261362c8382613554565b979650505050505050565b805163ffffffff811681146134c857600080fd5b600082601f83011261365c57600080fd5b8151602061366c61321f836133c7565b82815260059290921b8401810191818101908684111561368b57600080fd5b8286015b84811015613445576136a081613637565b835291830191830161368f565b6000602082840312156136bf57600080fd5b81516001600160401b03808211156136d657600080fd5b90830190608082860312156136ea57600080fd5b6136f2613115565b8251815260208301518281111561370857600080fd5b613714878286016133ea565b60208301525060408301518281111561372c57600080fd5b6137388782860161364b565b60408301525060608301518281111561375057600080fd5b61375c8782860161364b565b60608301525095945050505050565b63ffffffff81811683821602808216919082811461378b5761378b6134ea565b505092915050565b600063ffffffff808416806137b857634e487b7160e01b600052601260045260246000fd5b92169190910492915050565b6000602082840312156137d657600080fd5b611beb82613637565b60208082526022908201527f5b4172726976616c4c6973745d3a20496e646578206f7574206f6620626f756e604082015261647360f01b606082015260800190565b600082601f83011261383257600080fd5b8151602061384261321f836133c7565b82815260069290921b8401810191818101908684111561386157600080fd5b8286015b84811015613445576040818903121561387e5760008081fd5b61388661313d565b81518152613895858301613637565b81860152835291830191604001613865565b6000602082840312156138b957600080fd5b81516001600160401b03808211156138d057600080fd5b9083019060e082860312156138e457600080fd5b6138ec61315f565b6138f5836134bd565b815260208301518281111561390957600080fd5b61391587828601613821565b60208301525060408301516040820152606083015160608201526080830151608082015260a083015160a082015260c083015160c082015280935050505092915050565b63ffffffff828116828216039080821115613536576135366134ea565b808202811582820484141761036e5761036e6134ea565b8181038181111561036e5761036e6134ea565b8082018082111561036e5761036e6134ea56fefba48a04766694c16713a414735f83be9cb20bbb29b5e18846cc8f1510640845a264697066735822122025338b34aa30d479e7c811c97d0deccfdf5f0be15b33c6fd52dfd1313702145164736f6c63430008130033",
    "linkReferences": {}
  },
  "methodIdentifiers": {
    "execute(bytes)": "09c5eabe",
    "executeTyped(uint256)": "3e991df3",
    "owner()": "8da5cb5b",
    "transferOwnership(address)": "f2fde38b"
  },
  "id": 199
}