{
  "abi": [
    {
      "inputs": [
        {
          "internalType": "contract IWorld",
          "name": "_world",
          "type": "address"
        },
        {
          "internalType": "address",
          "name": "_components",
          "type": "address"
        }
      ],
      "stateMutability": "nonpayable",
      "type": "constructor"
    },
    {
      "inputs": [],
      "name": "Ownable__NotOwner",
      "type": "error"
    },
    {
      "inputs": [],
      "name": "Ownable__NotTransitiveOwner",
      "type": "error"
    },
    {
      "anonymous": false,
      "inputs": [
        {
          "indexed": true,
          "internalType": "address",
          "name": "previousOwner",
          "type": "address"
        },
        {
          "indexed": true,
          "internalType": "address",
          "name": "newOwner",
          "type": "address"
        }
      ],
      "name": "OwnershipTransferred",
      "type": "event"
    },
    {
      "inputs": [
        {
          "internalType": "bytes",
          "name": "args",
          "type": "bytes"
        }
      ],
      "name": "execute",
      "outputs": [
        {
          "internalType": "bytes",
          "name": "",
          "type": "bytes"
        }
      ],
      "stateMutability": "nonpayable",
      "type": "function"
    },
    {
      "inputs": [
        {
          "internalType": "uint256",
          "name": "rockEntity",
          "type": "uint256"
        },
        {
          "internalType": "uint256",
          "name": "arrivalIndex",
          "type": "uint256"
        }
      ],
      "name": "executeTyped",
      "outputs": [
        {
          "internalType": "bytes",
          "name": "",
          "type": "bytes"
        }
      ],
      "stateMutability": "nonpayable",
      "type": "function"
    },
    {
      "inputs": [],
      "name": "owner",
      "outputs": [
        {
          "internalType": "address",
          "name": "",
          "type": "address"
        }
      ],
      "stateMutability": "view",
      "type": "function"
    },
    {
      "inputs": [
        {
          "internalType": "address",
          "name": "account",
          "type": "address"
        }
      ],
      "name": "transferOwnership",
      "outputs": [],
      "stateMutability": "nonpayable",
      "type": "function"
    }
  ],
  "bytecode": {
    "object": "0x60806040523480156200001157600080fd5b5060405162002708380380620027088339810160408190526200003491620001e0565b8181818162000043336200014d565b6001600160a01b038116156200005a5780620000bf565b816001600160a01b031663ba62fbe46040518163ffffffff1660e01b8152600401602060405180830381865afa15801562000099573d6000803e3d6000fd5b505050506040513d601f19601f82011682018060405250810190620000bf91906200021f565b600080546001600160a01b039283166001600160a01b0319918216811790925560018054938616938216841790557ff67304f10c7772c78e439bc5cb07781db345424de8878c18100fdaa64d197a87805482169093179092557ff67304f10c7772c78e439bc5cb07781db345424de8878c18100fdaa64d197a86805490921617905550505050505062000246565b7f8a22373512790c48b83a1fe2efdd2888d4a917bcdc24d0adf63e60f67168046080546040516001600160a01b038481169216907f8be0079c531659141344cd1fd0a4f28419497f9722a3daafe3b4186f6b6457e090600090a380546001600160a01b0319166001600160a01b0392909216919091179055565b6001600160a01b0381168114620001dd57600080fd5b50565b60008060408385031215620001f457600080fd5b82516200020181620001c7565b60208401519092506200021481620001c7565b809150509250929050565b6000602082840312156200023257600080fd5b81516200023f81620001c7565b9392505050565b6124b280620002566000396000f3fe608060405234801561001057600080fd5b506004361061004c5760003560e01c806309c5eabe146100515780638da5cb5b1461007a578063915657fb1461009a578063f2fde38b146100ad575b600080fd5b61006461005f366004611e4c565b6100c2565b6040516100719190611ef0565b60405180910390f35b6100826104d0565b6040516001600160a01b039091168152602001610071565b6100646100a8366004611f23565b610508565b6100c06100bb366004611f5a565b610544565b005b6060600080838060200190518101906100db9190611f77565b90925090503361010a7faf90be6cd7aa92d6569a9ae629178b74e1b0fbdd1097c27ec1dfffd2dc4c754061059a565b6001600160a01b0316630ff4c916846040518263ffffffff1660e01b815260040161013791815260200190565b602060405180830381865afa158015610154573d6000803e3d6000fd5b505050506040513d601f19601f820116820180604052508101906101789190611f9b565b146102045760405162461bcd60e51b815260206004820152604b60248201527f5b526563656976655265696e666f7263656d656e745d3a206f6e6c792074686560448201527f206f776e6572206f66206120726f636b2063616e20726563656976652072656960648201526a6e666f7263656d656e747360a81b608482015260a4015b60405180910390fd5b600061022f7faf90be6cd7aa92d6569a9ae629178b74e1b0fbdd1097c27ec1dfffd2dc4c754061059a565b604051636667bd4760e11b8152600481018590529091506001600160a01b0382169063cccf7a8e90602401602060405180830381865afa158015610277573d6000803e3d6000fd5b505050506040513d601f19601f8201168201806040525081019061029b9190611fb4565b1561043357600154604080516306ac999760e11b81529051610335926001600160a01b031691630d59332e9160048083019260209291908290030181865afa1580156102eb573d6000803e3d6000fd5b505050506040513d601f19601f8201168201806040525081019061030f9190611fd6565b7f23f1f9079cb71316c5eb52dd7b962c701570062c868964f0a09f40cb1f8822816105b7565b6001600160a01b0316636ad0ccab6103b8836001600160a01b0316630ff4c916876040518263ffffffff1660e01b815260040161037491815260200190565b602060405180830381865afa158015610391573d6000803e3d6000fd5b505050506040513d601f19601f820116820180604052508101906103b59190611f9b565b90565b6040516001600160e01b031960e084901b1681526001600160a01b039091166004820152602481018690526044016000604051808303816000875af1158015610405573d6000803e3d6000fd5b505050506040513d6000823e601f3d908101601f1916820160405261042d9190810190611ff3565b50610493565b60405162461bcd60e51b815260206004820152602f60248201527f5b526563656976655265696e666f7263656d656e745d3a20726f636b456e746960448201526e3a3c903430b99037379037bbb732b960891b60648201526084016101fb565b6001546104ab906001600160a01b0316338585610699565b6040805160208101859052016040516020818303038152906040529350505050919050565b60006105037f8a22373512790c48b83a1fe2efdd2888d4a917bcdc24d0adf63e60f671680460546001600160a01b031690565b905090565b606061053d8383604051602001610529929190918252602082015260400190565b6040516020818303038152906040526100c2565b9392505050565b7f8a22373512790c48b83a1fe2efdd2888d4a917bcdc24d0adf63e60f671680460546001600160a01b0316331461058e57604051632f7a8ee160e01b815260040160405180910390fd5b61059781610929565b50565b600080546105b1906001600160a01b0316836105b7565b92915050565b604051637defd0f560e11b81526004810182905260009081906001600160a01b0385169063fbdfa1ea90602401600060405180830381865afa158015610601573d6000803e3d6000fd5b505050506040513d6000823e601f3d908101601f1916820160405261062991908101906120eb565b905080516000036106705760405162461bcd60e51b81526020600482015260116024820152701a59081b9bdd081c9959da5cdd195c9959607a1b60448201526064016101fb565b6106918160008151811061068657610686612120565b602002602001015190565b949350505050565b60006106a58484610932565b905060006106b486838561095e565b905084816060015114610768576106d086868360200151610c70565b6107685760405162461bcd60e51b815260206004820152605e60248201527f5b5265696e666f7263656d656e745d3a20596f7520646f206e6f74206861766560448201527f2074686520726571756972656420486f7573696e6720616e642f6f722056657360648201527f73656c7320746f2072656365697665207265696e666f7263656d656e74730000608482015260a4016101fb565b60005b81602001515181101561087d578160200151818151811061078e5761078e612120565b60200260200101516020015163ffffffff166000031561086b576000826020015182815181106107c0576107c0612120565b60200260200101516020015190506107fc888888866020015186815181106107ea576107ea612120565b60200260200101516000015185610cee565b868360600151146108695761083688888560200151858151811061082257610822612120565b602002602001015160000151846001610dcb565b6108698884606001518560200151858151811061085557610855612120565b602002602001015160000151846000610dcb565b505b806108758161214c565b91505061076b565b506040516309e4fb4360e31b81527fd45fdfed2b19493f9c0dea49312c61e65de5d4865d541980330c47bdce57e1456004820152610916906001600160a01b03881690634f27da1890602401602060405180830381865afa1580156108e6573d6000803e3d6000fd5b505050506040513d601f19601f8201168201806040525081019061090a9190611fd6565b8260600151600161124b565b610921868385611331565b505050505050565b610597816117b1565b604080516020808201949094528082019290925280518083038201815260609092019052805191012090565b61099f6040805160e0810190915280600081526020016060815260200160008152602001600081526020016000815260200160008152602001600081525090565b6040516309e4fb4360e31b81527fd45fdfed2b19493f9c0dea49312c61e65de5d4865d541980330c47bdce57e14560048201526000906001600160a01b03861690634f27da1890602401602060405180830381865afa158015610a06573d6000803e3d6000fd5b505050506040513d601f19601f82011682018060405250810190610a2a9190611fd6565b90506000610a38828661182b565b90508063ffffffff168410610a5f5760405162461bcd60e51b81526004016101fb90612165565b6000610a6b8686610932565b6040516309e4fb4360e31b81527ffa4a0d59b8b1e16e79fdb8b2d0a8b06b5189b664b4ac382b586c64014469098e60048201529091506000906001600160a01b03891690634f27da1890602401602060405180830381865afa158015610ad5573d6000803e3d6000fd5b505050506040513d601f19601f82011682018060405250810190610af99190611fd6565b6001600160a01b0316630ff4c916836040518263ffffffff1660e01b8152600401610b2691815260200190565b602060405180830381865afa158015610b43573d6000803e3d6000fd5b505050506040513d601f19601f82011682018060405250810190610b679190611f9b565b6040516309e4fb4360e31b81527f8e9099e75678919c8e1307fac4366e095ace966d09bb54991618c1fa0d72bf3360048201529091506001600160a01b03891690634f27da1890602401602060405180830381865afa158015610bce573d6000803e3d6000fd5b505050506040513d601f19601f82011682018060405250810190610bf29190611fd6565b6001600160a01b0316630ff4c916826040518263ffffffff1660e01b8152600401610c1f91815260200190565b600060405180830381865afa158015610c3c573d6000803e3d6000fd5b505050506040513d6000823e601f3d908101601f19168201604052610c649190810190612255565b98975050505050505050565b6000805b8251811015610ce357610cc38585858481518110610c9457610c94612120565b602002602001015160000151868581518110610cb257610cb2612120565b60200260200101516020015161190b565b610cd157600091505061053d565b80610cdb8161214c565b915050610c74565b506001949350505050565b63ffffffff811615610dc457604080516020808201859052818301879052606080830187905283518084039091018152608090920190925280519101206000906040516309e4fb4360e31b81527f8bd637b568ed540cabc10b49a9f3688fe5b7e4b706298b6cd07c2e1ed5600e936004820152909150610921906001600160a01b03881690634f27da1890602401602060405180830381865afa158015610d99573d6000803e3d6000fd5b505050506040513d601f19601f82011682018060405250810190610dbd9190611fd6565b8284611bc1565b5050505050565b63ffffffff821615610dc4576040516309e4fb4360e31b81527f391ed979ad48ef48aa0e385aaffe280328c830054d2153bba1cf3da0b7bf45ab60048201526000906001600160a01b03871690634f27da1890602401602060405180830381865afa158015610e3e573d6000803e3d6000fd5b505050506040513d601f19601f82011682018060405250810190610e629190611fd6565b90506000610e71878787611be9565b90506000610e85868363ffffffff16610932565b604051636667bd4760e11b8152600481018290529091506001600160a01b0384169063cccf7a8e90602401602060405180830381865afa158015610ecd573d6000803e3d6000fd5b505050506040513d601f19601f82011682018060405250810190610ef19190611fb4565b610efd57505050610dc4565b6040516309e4fb4360e31b81527f4f2e352c22f4d6e8661eee4a98890fa6dfead6e74bc680ee4c52da1cc198d7c960048201526000906001600160a01b038a1690634f27da1890602401602060405180830381865afa158015610f64573d6000803e3d6000fd5b505050506040513d601f19601f82011682018060405250810190610f889190611fd6565b6040516307fa648b60e11b8152600481018490529091506000906001600160a01b03861690630ff4c91690602401600060405180830381865afa158015610fd3573d6000803e3d6000fd5b505050506040513d6000823e601f3d908101601f19168201604052610ffb9190810190612308565b516040516307fa648b60e11b8152600481018590529091506000906001600160a01b03871690630ff4c91690602401600060405180830381865afa158015611047573d6000803e3d6000fd5b505050506040513d6000823e601f3d908101601f1916820160405261106f9190810190612308565b60200151905060005b825181101561123d5781818151811061109357611093612120565b602002602001015163ffffffff166000031561122b576000898383815181106110be576110be612120565b60200260200101516110d091906123f8565b905060006110f78584815181106110e9576110e9612120565b60200260200101518e610932565b9050891561118557856001600160a01b031663d923c3c4828461111a8a8661182b565b6111249190612420565b6040516001600160e01b031960e085901b168152600481019290925263ffffffff166024820152604401600060405180830381600087803b15801561116857600080fd5b505af115801561117c573d6000803e3d6000fd5b50505050611228565b61118f868261182b565b63ffffffff168263ffffffff16116111c657856001600160a01b031663d923c3c482846111bc8a8661182b565b6111249190612444565b604051633648f0f160e21b815260048101829052600060248201526001600160a01b0387169063d923c3c490604401600060405180830381600087803b15801561120f57600080fd5b505af1158015611223573d6000803e3d6000fd5b505050505b50505b806112358161214c565b915050611078565b505050505050505050505050565b6000611257848461182b565b90508163ffffffff168163ffffffff1610156112b55760405162461bcd60e51b815260206004820152601c60248201527f6e6f7420656e6f7567682076616c756520746f2073756274726163740000000060448201526064016101fb565b6001600160a01b03841663d923c3c4846112cf8585612444565b6040516001600160e01b031960e085901b168152600481019290925263ffffffff166024820152604401600060405180830381600087803b15801561131357600080fd5b505af1158015611327573d6000803e3d6000fd5b5050505050505050565b6040516309e4fb4360e31b81527fd45fdfed2b19493f9c0dea49312c61e65de5d4865d541980330c47bdce57e14560048201526000906001600160a01b03851690634f27da1890602401602060405180830381865afa158015611398573d6000803e3d6000fd5b505050506040513d601f19601f820116820180604052508101906113bc9190611fd6565b6040516309e4fb4360e31b81527ffa4a0d59b8b1e16e79fdb8b2d0a8b06b5189b664b4ac382b586c64014469098e60048201529091506000906001600160a01b03861690634f27da1890602401602060405180830381865afa158015611426573d6000803e3d6000fd5b505050506040513d601f19601f8201168201806040525081019061144a9190611fd6565b90506000611458838661182b565b90508063ffffffff16841061147f5760405162461bcd60e51b81526004016101fb90612165565b600061149b86611490600185612444565b63ffffffff16610932565b6040516307fa648b60e11b8152600481018290529091506000906001600160a01b03851690630ff4c91690602401602060405180830381865afa1580156114e6573d6000803e3d6000fd5b505050506040513d601f19601f8201168201806040525081019061150a9190611f9b565b905060006115188888610932565b6040516307fa648b60e11b8152600481018290529091506000906001600160a01b03871690630ff4c91690602401602060405180830381865afa158015611563573d6000803e3d6000fd5b505050506040513d601f19601f820116820180604052508101906115879190611f9b565b604051631ab06ee560e01b815260048101849052602481018590529091506001600160a01b03871690631ab06ee590604401600060405180830381600087803b1580156115d357600080fd5b505af11580156115e7573d6000803e3d6000fd5b5050604051634cc8221560e01b8152600481018790526001600160a01b0389169250634cc822159150602401600060405180830381600087803b15801561162d57600080fd5b505af1158015611641573d6000803e3d6000fd5b50506040516309e4fb4360e31b81527f8e9099e75678919c8e1307fac4366e095ace966d09bb54991618c1fa0d72bf3360048201526001600160a01b038d169250634f27da189150602401602060405180830381865afa1580156116a9573d6000803e3d6000fd5b505050506040513d601f19601f820116820180604052508101906116cd9190611fd6565b6001600160a01b0316634cc82215826040518263ffffffff1660e01b81526004016116fa91815260200190565b600060405180830381600087803b15801561171457600080fd5b505af1158015611728573d6000803e3d6000fd5b50505050866001600160a01b031663d923c3c48a6001886117499190612444565b6040516001600160e01b031960e085901b168152600481019290925263ffffffff166024820152604401600060405180830381600087803b15801561178d57600080fd5b505af11580156117a1573d6000803e3d6000fd5b5050505050505050505050505050565b7f8a22373512790c48b83a1fe2efdd2888d4a917bcdc24d0adf63e60f67168046080546040516001600160a01b038481169216907f8be0079c531659141344cd1fd0a4f28419497f9722a3daafe3b4186f6b6457e090600090a380546001600160a01b0319166001600160a01b0392909216919091179055565b604051636667bd4760e11b8152600481018290526000906001600160a01b0384169063cccf7a8e90602401602060405180830381865afa158015611873573d6000803e3d6000fd5b505050506040513d601f19601f820116820180604052508101906118979190611fb4565b6118a257600061053d565b6040516307fa648b60e11b8152600481018390526001600160a01b03841690630ff4c91690602401602060405180830381865afa1580156118e7573d6000803e3d6000fd5b505050506040513d601f19601f8201168201806040525081019061053d9190612461565b6040516309e4fb4360e31b81527f391ed979ad48ef48aa0e385aaffe280328c830054d2153bba1cf3da0b7bf45ab600482015260009081906001600160a01b03871690634f27da1890602401602060405180830381865afa158015611974573d6000803e3d6000fd5b505050506040513d601f19601f820116820180604052508101906119989190611fd6565b905060006119a7878787611be9565b905060006119bb868363ffffffff16610932565b604051636667bd4760e11b8152600481018290529091506001600160a01b0384169063cccf7a8e90602401602060405180830381865afa158015611a03573d6000803e3d6000fd5b505050506040513d601f19601f82011682018060405250810190611a279190611fb4565b611a375760019350505050610691565b6040516307fa648b60e11b8152600481018290526000906001600160a01b03851690630ff4c91690602401600060405180830381865afa158015611a7f573d6000803e3d6000fd5b505050506040513d6000823e601f3d908101601f19168201604052611aa79190810190612308565b516040516307fa648b60e11b8152600481018490529091506000906001600160a01b03861690630ff4c91690602401600060405180830381865afa158015611af3573d6000803e3d6000fd5b505050506040513d6000823e601f3d908101601f19168201604052611b1b9190810190612308565b60200151905060005b8251811015611bb057600088838381518110611b4257611b42612120565b6020026020010151611b5491906123f8565b90508063ffffffff16611b818d8d878681518110611b7457611b74612120565b6020026020010151611c95565b63ffffffff161015611b9d576000975050505050505050610691565b5080611ba88161214c565b915050611b24565b5060019a9950505050505050505050565b6000611bcd848461182b565b90506001600160a01b03841663d923c3c4846112cf8585612420565b600080611bf68385610932565b6040516309e4fb4360e31b81527fbd262b900b9f3e3d6078d7a8e45d1bee5f4fd9547063f524ac4cbf611d37b44e6004820152909150611c8c906001600160a01b03871690634f27da18906024015b602060405180830381865afa158015611c62573d6000803e3d6000fd5b505050506040513d601f19601f82011682018060405250810190611c869190611fd6565b8261182b565b95945050505050565b600080611ca28385610932565b6040516309e4fb4360e31b81527f4f2e352c22f4d6e8661eee4a98890fa6dfead6e74bc680ee4c52da1cc198d7c96004820152909150611cf5906001600160a01b03871690634f27da1890602401611c45565b6040516309e4fb4360e31b81527fe3a8010d924b064ccb2378dcbee6dbdeb5bbd9716eb2cffb16c3df92a53e84956004820152611d87906001600160a01b03881690634f27da1890602401602060405180830381865afa158015611d5d573d6000803e3d6000fd5b505050506040513d601f19601f82011682018060405250810190611d819190611fd6565b8361182b565b611c8c9190612444565b634e487b7160e01b600052604160045260246000fd5b6040805190810167ffffffffffffffff81118282101715611dca57611dca611d91565b60405290565b60405160e0810167ffffffffffffffff81118282101715611dca57611dca611d91565b604051601f8201601f1916810167ffffffffffffffff81118282101715611e1c57611e1c611d91565b604052919050565b600067ffffffffffffffff821115611e3e57611e3e611d91565b50601f01601f191660200190565b600060208284031215611e5e57600080fd5b813567ffffffffffffffff811115611e7557600080fd5b8201601f81018413611e8657600080fd5b8035611e99611e9482611e24565b611df3565b818152856020838501011115611eae57600080fd5b81602084016020830137600091810160200191909152949350505050565b60005b83811015611ee7578181015183820152602001611ecf565b50506000910152565b6020815260008251806020840152611f0f816040850160208701611ecc565b601f01601f19169190910160400192915050565b60008060408385031215611f3657600080fd5b50508035926020909101359150565b6001600160a01b038116811461059757600080fd5b600060208284031215611f6c57600080fd5b813561053d81611f45565b60008060408385031215611f8a57600080fd5b505080516020909101519092909150565b600060208284031215611fad57600080fd5b5051919050565b600060208284031215611fc657600080fd5b8151801515811461053d57600080fd5b600060208284031215611fe857600080fd5b815161053d81611f45565b60006020828403121561200557600080fd5b815167ffffffffffffffff81111561201c57600080fd5b8201601f8101841361202d57600080fd5b805161203b611e9482611e24565b81815285602083850101111561205057600080fd5b611c8c826020830160208601611ecc565b600067ffffffffffffffff82111561207b5761207b611d91565b5060051b60200190565b600082601f83011261209657600080fd5b815160206120a6611e9483612061565b82815260059290921b840181019181810190868411156120c557600080fd5b8286015b848110156120e057805183529183019183016120c9565b509695505050505050565b6000602082840312156120fd57600080fd5b815167ffffffffffffffff81111561211457600080fd5b61069184828501612085565b634e487b7160e01b600052603260045260246000fd5b634e487b7160e01b600052601160045260246000fd5b60006001820161215e5761215e612136565b5060010190565b60208082526022908201527f5b4172726976616c4c6973745d3a20496e646578206f7574206f6620626f756e604082015261647360f01b606082015260800190565b8051600381106121b657600080fd5b919050565b805163ffffffff811681146121b657600080fd5b600082601f8301126121e057600080fd5b815160206121f0611e9483612061565b82815260069290921b8401810191818101908684111561220f57600080fd5b8286015b848110156120e0576040818903121561222c5760008081fd5b612234611da7565b815181526122438583016121bb565b81860152835291830191604001612213565b60006020828403121561226757600080fd5b815167ffffffffffffffff8082111561227f57600080fd5b9083019060e0828603121561229357600080fd5b61229b611dd0565b6122a4836121a7565b81526020830151828111156122b857600080fd5b6122c4878286016121cf565b60208301525060408301516040820152606083015160608201526080830151608082015260a083015160a082015260c083015160c082015280935050505092915050565b6000602080838503121561231b57600080fd5b825167ffffffffffffffff8082111561233357600080fd5b908401906040828703121561234757600080fd5b61234f611da7565b82518281111561235e57600080fd5b61236a88828601612085565b825250838301518281111561237e57600080fd5b80840193505086601f84011261239357600080fd5b825191506123a3611e9483612061565b82815260059290921b830184019184810190888411156123c257600080fd5b938501935b838510156123e7576123d8856121bb565b825293850193908501906123c7565b948201949094529695505050505050565b63ffffffff81811683821602808216919082811461241857612418612136565b505092915050565b63ffffffff81811683821601908082111561243d5761243d612136565b5092915050565b63ffffffff82811682821603908082111561243d5761243d612136565b60006020828403121561247357600080fd5b61053d826121bb56fea2646970667358221220a0b8b8e5d22392edc36ee6ff8aebdf2f305a99addadb97d2b7b506b14252e92e64736f6c63430008130033",
    "linkReferences": {}
  },
  "methodIdentifiers": {
    "execute(bytes)": "09c5eabe",
    "executeTyped(uint256,uint256)": "915657fb",
    "owner()": "8da5cb5b",
    "transferOwnership(address)": "f2fde38b"
  },
  "id": 229
}