{
  "abi": [
    {
      "inputs": [
        {
          "internalType": "contract IWorld",
          "name": "_world",
          "type": "address"
        },
        {
          "internalType": "address",
          "name": "_components",
          "type": "address"
        }
      ],
      "stateMutability": "nonpayable",
      "type": "constructor"
    },
    {
      "inputs": [],
      "name": "Ownable__NotOwner",
      "type": "error"
    },
    {
      "inputs": [],
      "name": "Ownable__NotTransitiveOwner",
      "type": "error"
    },
    {
      "anonymous": false,
      "inputs": [
        {
          "indexed": true,
          "internalType": "address",
          "name": "previousOwner",
          "type": "address"
        },
        {
          "indexed": true,
          "internalType": "address",
          "name": "newOwner",
          "type": "address"
        }
      ],
      "name": "OwnershipTransferred",
      "type": "event"
    },
    {
      "inputs": [
        {
          "internalType": "bytes",
          "name": "args",
          "type": "bytes"
        }
      ],
      "name": "execute",
      "outputs": [
        {
          "internalType": "bytes",
          "name": "",
          "type": "bytes"
        }
      ],
      "stateMutability": "nonpayable",
      "type": "function"
    },
    {
      "inputs": [
        {
          "internalType": "uint256",
          "name": "researchItem",
          "type": "uint256"
        }
      ],
      "name": "executeTyped",
      "outputs": [
        {
          "internalType": "bytes",
          "name": "",
          "type": "bytes"
        }
      ],
      "stateMutability": "nonpayable",
      "type": "function"
    },
    {
      "inputs": [],
      "name": "owner",
      "outputs": [
        {
          "internalType": "address",
          "name": "",
          "type": "address"
        }
      ],
      "stateMutability": "view",
      "type": "function"
    },
    {
      "inputs": [
        {
          "internalType": "address",
          "name": "account",
          "type": "address"
        }
      ],
      "name": "transferOwnership",
      "outputs": [],
      "stateMutability": "nonpayable",
      "type": "function"
    }
  ],
  "bytecode": {
    "object": "0x60806040523480156200001157600080fd5b506040516200291f3803806200291f83398101604081905262000034916200022c565b818162000041336200010f565b6001600160a01b03811615620000585780620000bd565b816001600160a01b031663ba62fbe46040518163ffffffff1660e01b8152600401602060405180830381865afa15801562000097573d6000803e3d6000fd5b505050506040513d601f19601f82011682018060405250810190620000bd91906200026b565b600080546001600160a01b03199081166001600160a01b0393841690811790925560018054909116928516928317905562000105919062000183602090811b620012e117901c565b5050505062000292565b600062000126620001ef60201b620013721760201c565b80546040519192506001600160a01b03808516929116907f8be0079c531659141344cd1fd0a4f28419497f9722a3daafe3b4186f6b6457e090600090a380546001600160a01b0319166001600160a01b0392909216919091179055565b7ff67304f10c7772c78e439bc5cb07781db345424de8878c18100fdaa64d197a8780546001600160a01b039384166001600160a01b0319918216179091557ff67304f10c7772c78e439bc5cb07781db345424de8878c18100fdaa64d197a868054929093169116179055565b7f8a22373512790c48b83a1fe2efdd2888d4a917bcdc24d0adf63e60f67168046090565b6001600160a01b03811681146200022957600080fd5b50565b600080604083850312156200024057600080fd5b82516200024d8162000213565b6020840151909250620002608162000213565b809150509250929050565b6000602082840312156200027e57600080fd5b81516200028b8162000213565b9392505050565b61267d80620002a26000396000f3fe608060405234801561001057600080fd5b506004361061004c5760003560e01c806309c5eabe146100515780633e991df31461007a5780638da5cb5b1461008d578063f2fde38b146100ba575b600080fd5b61006461005f36600461239b565b6100cf565b604051610071919061244e565b60405180910390f35b6100646100883660046124ba565b6111ee565b610095611220565b60405173ffffffffffffffffffffffffffffffffffffffff9091168152602001610071565b6100cd6100c83660046124d3565b611265565b005b60606000828060200190518101906100e79190612509565b600080549192509061012f9073ffffffffffffffffffffffffffffffffffffffff167ffba48a04766694c16713a414735f83be9cb20bbb29b5e18846cc8f1510640845611396565b60008054919250906101779073ffffffffffffffffffffffffffffffffffffffff167f260499b7630a3093f2f4ce16a340a578c70fc65603511dac57ee1b24a87e1ecd611396565b60008054919250906101bf9073ffffffffffffffffffffffffffffffffffffffff167fe082307e43314cb08ba9c88fe7cb7bb84208415d656da41d199ff8c1c7b0adce611396565b90507fa76b0a8624b618a15773713f58418d4cc4c5505bd56dc8efe81b06af1aa07cc8840361025f5761025983837f88897217b7ca352fa62012bfb0aa451ebca6a6ff9208f9698f717331232152a760647f9182d0838cda5b8b8d04b7fdb048ae0d49c90dd4f4ef46ab0958cf6328dfb2ca817fa76b0a8624b618a15773713f58418d4cc4c5505bd56dc8efe81b06af1aa07cc8336114e2565b506111bd565b7f9182d0838cda5b8b8d04b7fdb048ae0d49c90dd4f4ef46ab0958cf6328dfb2ca84036102d55761025983837f88897217b7ca352fa62012bfb0aa451ebca6a6ff9208f9698f717331232152a760c87f9182d0838cda5b8b8d04b7fdb048ae0d49c90dd4f4ef46ab0958cf6328dfb2ca33611843565b7f235c0901ecb2d6be3116bd81303b4c1c88c7ea0f2bfbce19266cc8d1854d757f840361036d5761025983837f88897217b7ca352fa62012bfb0aa451ebca6a6ff9208f9698f717331232152a760c87f9182d0838cda5b8b8d04b7fdb048ae0d49c90dd4f4ef46ab0958cf6328dfb2ca817f235c0901ecb2d6be3116bd81303b4c1c88c7ea0f2bfbce19266cc8d1854d757f336114e2565b7f17025afdea42119548a0a5f9ec0cdbdcb19e7a9f4b475913071021a3cdbb5bfd84036103e35761025983837f7deaae6bb7615fd1b4e86953f0141ba774ea3adbdd6e2ee244147bfb86aaace560147f17025afdea42119548a0a5f9ec0cdbdcb19e7a9f4b475913071021a3cdbb5bfd33611843565b7f4f040f57979596afd571cde8f3c29efd19e1326e0844c8426e782921dda59110840361047c5761025983837f7deaae6bb7615fd1b4e86953f0141ba774ea3adbdd6e2ee244147bfb86aaace560327f17025afdea42119548a0a5f9ec0cdbdcb19e7a9f4b475913071021a3cdbb5bfd60647f4f040f57979596afd571cde8f3c29efd19e1326e0844c8426e782921dda59110336114e2565b7fea204a6ce29dba9c40f28e8975853a12b8cb6347ab8709032307f46064f0112c84036105155761025983837fbbf0e151801f18e0d112665520a2c0dc8c9590ce85e2851f7f78de30c4c6d51a60327f88897217b7ca352fa62012bfb0aa451ebca6a6ff9208f9698f717331232152a760647fea204a6ce29dba9c40f28e8975853a12b8cb6347ab8709032307f46064f0112c336114e2565b7f416cd867e38826680c4261f20f5285dd44a10270a8118bdeec1383c9a089cf04840361058b5761025983837fbbf0e151801f18e0d112665520a2c0dc8c9590ce85e2851f7f78de30c4c6d51a60327f416cd867e38826680c4261f20f5285dd44a10270a8118bdeec1383c9a089cf0433611843565b7fffd1fcb03374404e7de4d818d237d911fe2e1d80cf3879d71f2626b819d4b87584036106255761025983837fbbf0e151801f18e0d112665520a2c0dc8c9590ce85e2851f7f78de30c4c6d51a60327f416cd867e38826680c4261f20f5285dd44a10270a8118bdeec1383c9a089cf046101f47fffd1fcb03374404e7de4d818d237d911fe2e1d80cf3879d71f2626b819d4b875336114e2565b7fb95924e6875f04c5a3a4f2d0229e2b96e1ed5a8d3e46cf904aef2780d874cb8a84036106e25761025983837f416cd867e38826680c4261f20f5285dd44a10270a8118bdeec1383c9a089cf0460c87f7deaae6bb7615fd1b4e86953f0141ba774ea3adbdd6e2ee244147bfb86aaace56101f47fbbf0e151801f18e0d112665520a2c0dc8c9590ce85e2851f7f78de30c4c6d51a60327fb95924e6875f04c5a3a4f2d0229e2b96e1ed5a8d3e46cf904aef2780d874cb8a33611ade565b7f6c4cf968092a55522769ad001f5a4d068bbdc6ea30a7d8f460833f83e9c9727c84036107595761025983837f416cd867e38826680c4261f20f5285dd44a10270a8118bdeec1383c9a089cf0461012c7f6c4cf968092a55522769ad001f5a4d068bbdc6ea30a7d8f460833f83e9c9727c33611843565b7ffc26536609d31ba7df64ebe6672ae6bfb37e36e18e66208d8a58b89a70b633c884036108155761025983837f6c4cf968092a55522769ad001f5a4d068bbdc6ea30a7d8f460833f83e9c9727c60647f416cd867e38826680c4261f20f5285dd44a10270a8118bdeec1383c9a089cf0461012c7fbbf0e151801f18e0d112665520a2c0dc8c9590ce85e2851f7f78de30c4c6d51a837ffc26536609d31ba7df64ebe6672ae6bfb37e36e18e66208d8a58b89a70b633c833611ade565b7fd1c83bdf63c0b447986d120a774ab7ac5386de233bb9e439ba87c015cdd62b0084036108d25761025983837f6c4cf968092a55522769ad001f5a4d068bbdc6ea30a7d8f460833f83e9c9727c60c87f7deaae6bb7615fd1b4e86953f0141ba774ea3adbdd6e2ee244147bfb86aaace560647f416cd867e38826680c4261f20f5285dd44a10270a8118bdeec1383c9a089cf046101907fd1c83bdf63c0b447986d120a774ab7ac5386de233bb9e439ba87c015cdd62b0033611ade565b7ff22d62753c9bef149557affda667bdaa3aff1e69179b0c09e101bfc462bf4fae840361096b5761025983837f5affe8a57277a7102b0bbaade99cebaf060fa104c6f9b2ef54bc3d0b5009e46360647f416cd867e38826680c4261f20f5285dd44a10270a8118bdeec1383c9a089cf0460c87ff22d62753c9bef149557affda667bdaa3aff1e69179b0c09e101bfc462bf4fae336114e2565b7fd54023cead523bcfdb7c93c7143ba493534ec0f442756a4d1e6089ce015fc6598403610a275761025983837ff22d62753c9bef149557affda667bdaa3aff1e69179b0c09e101bfc462bf4fae60c87f6c4cf968092a55522769ad001f5a4d068bbdc6ea30a7d8f460833f83e9c9727c60647f19ddbba09381803c7aefa2731f58c344a8370583a0b53b4213e30ce69a4c85c060327fd54023cead523bcfdb7c93c7143ba493534ec0f442756a4d1e6089ce015fc65933611ade565b7fb533b87fd579e6a4bd7adf53c6573acece50e469a2a3480b5694a32c710af2918403610abf5761025983837f86e73de3ac620e292e280fd2df5d7acbc4c214f5d881d6a384e0de3ad7d91cd560647f6c4cf968092a55522769ad001f5a4d068bbdc6ea30a7d8f460833f83e9c9727c817fb533b87fd579e6a4bd7adf53c6573acece50e469a2a3480b5694a32c710af291336114e2565b7f87292eb387cbbcd9a9067691107c920d7d17fd8dfe1437fa5e832d66aedbacf68403610b585761025983837fb533b87fd579e6a4bd7adf53c6573acece50e469a2a3480b5694a32c710af29160c87f86e73de3ac620e292e280fd2df5d7acbc4c214f5d881d6a384e0de3ad7d91cd560647f87292eb387cbbcd9a9067691107c920d7d17fd8dfe1437fa5e832d66aedbacf6336114e2565b7ff13245ed83494d4c6fe95d3843c0970f02232874bb3f7cff30407434d0401eb18403610bf15761025983837f411675c9d4275dfb3010259013ee279130ee32a3a7d9b6372c9b3a0cf2fe007c60647fcb4b1a16e996a77db534cc9953e3a609aaf28bd5d6665555df84fa08ffc0346560147ff13245ed83494d4c6fe95d3843c0970f02232874bb3f7cff30407434d0401eb1336114e2565b7fc4dbe14fc0f902efdf42c54f2c8cf5cd4d716e2a5eb275acc5beff21e1f5f1a98403610c8a5761025983837f86e73de3ac620e292e280fd2df5d7acbc4c214f5d881d6a384e0de3ad7d91cd560c87fd9418932daa63d0584685e5e12e024d763737dd3d7987cba52901bb702a71eba60327fc4dbe14fc0f902efdf42c54f2c8cf5cd4d716e2a5eb275acc5beff21e1f5f1a9336114e2565b7fa9cb069084fa4d92fd4210cdfeb9cdfc2024d4b88cc9ca025fee1218a909fd968403610d245761025983837f6c4cf968092a55522769ad001f5a4d068bbdc6ea30a7d8f460833f83e9c9727c6101f47f19ddbba09381803c7aefa2731f58c344a8370583a0b53b4213e30ce69a4c85c060327fa9cb069084fa4d92fd4210cdfeb9cdfc2024d4b88cc9ca025fee1218a909fd96336114e2565b7fe157609bd85da8e39a6f459aa0211b3efc77ae500757df7a10f6366fe0b7a65f8403610dbd5761025983837f5affe8a57277a7102b0bbaade99cebaf060fa104c6f9b2ef54bc3d0b5009e46360647f19ddbba09381803c7aefa2731f58c344a8370583a0b53b4213e30ce69a4c85c060327fe157609bd85da8e39a6f459aa0211b3efc77ae500757df7a10f6366fe0b7a65f336114e2565b7f896a57760f9c98d29b2620819cea7ed21e44fbb91677668899fb4930870380fb8403610e565761025983837f86e73de3ac620e292e280fd2df5d7acbc4c214f5d881d6a384e0de3ad7d91cd560327f19ddbba09381803c7aefa2731f58c344a8370583a0b53b4213e30ce69a4c85c060647f896a57760f9c98d29b2620819cea7ed21e44fbb91677668899fb4930870380fb336114e2565b7fac9deee200a44d5f4210ac7c1da068ad17b9083e8a7f14172f6a25b4f3460d318403610eef5761025983837f411675c9d4275dfb3010259013ee279130ee32a3a7d9b6372c9b3a0cf2fe007c60c87f19ddbba09381803c7aefa2731f58c344a8370583a0b53b4213e30ce69a4c85c060967fac9deee200a44d5f4210ac7c1da068ad17b9083e8a7f14172f6a25b4f3460d31336114e2565b7f187eed5b6ee1a8a71730c9ced07e70fc9a7b2e61ad2958ab8e225726ae5f5b498403610f655761025983837f411675c9d4275dfb3010259013ee279130ee32a3a7d9b6372c9b3a0cf2fe007c60c87f187eed5b6ee1a8a71730c9ced07e70fc9a7b2e61ad2958ab8e225726ae5f5b4933611843565b7f6af32c86ed1659c55ab853a935afe62bba1e42db9f98b210a164802c3e56824e8403610ffe5761025983837f411675c9d4275dfb3010259013ee279130ee32a3a7d9b6372c9b3a0cf2fe007c60c87f86e73de3ac620e292e280fd2df5d7acbc4c214f5d881d6a384e0de3ad7d91cd560647f6af32c86ed1659c55ab853a935afe62bba1e42db9f98b210a164802c3e56824e336114e2565b7fae6e54a2162e6ef6bb60a2555b10f3160acb04e5d6181837025ff5cdd9df7ff184036110965761025983837f411675c9d4275dfb3010259013ee279130ee32a3a7d9b6372c9b3a0cf2fe007c60647ff22d62753c9bef149557affda667bdaa3aff1e69179b0c09e101bfc462bf4fae817fae6e54a2162e6ef6bb60a2555b10f3160acb04e5d6181837025ff5cdd9df7ff1336114e2565b7f93db5cedec79d00f6b02e8013d875b5a214b76ef307fb53397239429d6c54cee84036111305761025983837f411675c9d4275dfb3010259013ee279130ee32a3a7d9b6372c9b3a0cf2fe007c61012c7fcb4b1a16e996a77db534cc9953e3a609aaf28bd5d6665555df84fa08ffc0346560147f93db5cedec79d00f6b02e8013d875b5a214b76ef307fb53397239429d6c54cee336114e2565b6040517f08c379a000000000000000000000000000000000000000000000000000000000815260206004820152603260248201527f5b526573656172636853797374656d5d204e6f7420612076616c69642072657360448201527f6561726368206f626a656374697665204944000000000000000000000000000060648201526084015b60405180910390fd5b6111c8818533611ef2565b604080516001602082015201604051602081830303815290604052945050505050919050565b606061121a8260405160200161120691815260200190565b6040516020818303038152906040526100cf565b92915050565b60006112607f8a22373512790c48b83a1fe2efdd2888d4a917bcdc24d0adf63e60f6716804605473ffffffffffffffffffffffffffffffffffffffff1690565b905090565b7f8a22373512790c48b83a1fe2efdd2888d4a917bcdc24d0adf63e60f6716804605473ffffffffffffffffffffffffffffffffffffffff1633146112d5576040517f2f7a8ee100000000000000000000000000000000000000000000000000000000815260040160405180910390fd5b6112de81611f8d565b50565b7ff67304f10c7772c78e439bc5cb07781db345424de8878c18100fdaa64d197a87805473ffffffffffffffffffffffffffffffffffffffff9384167fffffffffffffffffffffffff0000000000000000000000000000000000000000918216179091557ff67304f10c7772c78e439bc5cb07781db345424de8878c18100fdaa64d197a868054929093169116179055565b7f8a22373512790c48b83a1fe2efdd2888d4a917bcdc24d0adf63e60f67168046090565b6040517ffbdfa1ea00000000000000000000000000000000000000000000000000000000815260048101829052600090819073ffffffffffffffffffffffffffffffffffffffff85169063fbdfa1ea90602401600060405180830381865afa158015611406573d6000803e3d6000fd5b505050506040513d6000823e601f3d9081017fffffffffffffffffffffffffffffffffffffffffffffffffffffffffffffffe016820160405261144c9190810190612522565b905080516000036114b9576040517f08c379a000000000000000000000000000000000000000000000000000000000815260206004820152601160248201527f6964206e6f74207265676973746572656400000000000000000000000000000060448201526064016111b4565b6114da816000815181106114cf576114cf6125bc565b602002602001015190565b949350505050565b606060006114f58484611f96565b611f96565b90506115018982612016565b1561158e576040517f08c379a000000000000000000000000000000000000000000000000000000000815260206004820152602860248201527f5b526573656172636853797374656d5d204974656d20616c726561647920726560448201527f736561726368656400000000000000000000000000000000000000000000000060648201526084016111b4565b60006115a38b61159e8b87611f96565b612145565b905060006115b58c61159e8a88611f96565b9050888210806115c457508681105b15611651576040517f08c379a000000000000000000000000000000000000000000000000000000000815260206004820152602560248201527f5b526573656172636853797374656d5d204e6f7420656e6f756768207265736f60448201527f757263657300000000000000000000000000000000000000000000000000000060648201526084016111b4565b6040517f60fe47b10000000000000000000000000000000000000000000000000000000081526004810184905273ffffffffffffffffffffffffffffffffffffffff8c16906360fe47b190602401600060405180830381600087803b1580156116b957600080fd5b505af11580156116cd573d6000803e3d6000fd5b505050508b73ffffffffffffffffffffffffffffffffffffffff16631ab06ee56116f88c6114f08990565b6117028c866125eb565b6040517fffffffff0000000000000000000000000000000000000000000000000000000060e085901b16815260048101929092526024820152604401600060405180830381600087803b15801561175857600080fd5b505af115801561176c573d6000803e3d6000fd5b505050508b73ffffffffffffffffffffffffffffffffffffffff16631ab06ee56117978a6114f08990565b6117a18a856125eb565b6040517fffffffff0000000000000000000000000000000000000000000000000000000060e085901b16815260048101929092526024820152604401600060405180830381600087803b1580156117f757600080fd5b505af115801561180b573d6000803e3d6000fd5b505060408051600160208201520191506118229050565b60405160208183030381529060405293505050505b98975050505050505050565b606060006118518484611f96565b905061185d8782612016565b156118ea576040517f08c379a000000000000000000000000000000000000000000000000000000000815260206004820152602860248201527f5b526573656172636853797374656d5d204974656d20616c726561647920726560448201527f736561726368656400000000000000000000000000000000000000000000000060648201526084016111b4565b60006118f68785611f96565b905060006119048a83612145565b905086811015611996576040517f08c379a000000000000000000000000000000000000000000000000000000000815260206004820152602560248201527f5b526573656172636853797374656d5d204e6f7420656e6f756768207265736f60448201527f757263657300000000000000000000000000000000000000000000000000000060648201526084016111b4565b6040517f60fe47b10000000000000000000000000000000000000000000000000000000081526004810184905273ffffffffffffffffffffffffffffffffffffffff8a16906360fe47b190602401600060405180830381600087803b1580156119fe57600080fd5b505af1158015611a12573d6000803e3d6000fd5b505050508973ffffffffffffffffffffffffffffffffffffffff16631ab06ee5838984611a3f91906125eb565b6040517fffffffff0000000000000000000000000000000000000000000000000000000060e085901b16815260048101929092526024820152604401600060405180830381600087803b158015611a9557600080fd5b505af1158015611aa9573d6000803e3d6000fd5b50506040805160016020820152019150611ac09050565b60405160208183030381529060405293505050509695505050505050565b60606000611aec8484611f96565b9050611af88b82612016565b15611b85576040517f08c379a000000000000000000000000000000000000000000000000000000000815260206004820152602860248201527f5b526573656172636853797374656d5d204974656d20616c726561647920726560448201527f736561726368656400000000000000000000000000000000000000000000000060648201526084016111b4565b6000611b958d61159e8d87611f96565b90506000611ba78e61159e8c88611f96565b90506000611bb98f61159e8b89611f96565b90508b831080611bc857508982105b80611bd257508781105b15611c5f576040517f08c379a000000000000000000000000000000000000000000000000000000000815260206004820152602560248201527f5b526573656172636853797374656d5d204e6f7420656e6f756768207265736f60448201527f757263657300000000000000000000000000000000000000000000000000000060648201526084016111b4565b6040517f60fe47b10000000000000000000000000000000000000000000000000000000081526004810185905273ffffffffffffffffffffffffffffffffffffffff8f16906360fe47b190602401600060405180830381600087803b158015611cc757600080fd5b505af1158015611cdb573d6000803e3d6000fd5b505050508e73ffffffffffffffffffffffffffffffffffffffff16631ab06ee5611d068f6114f08a90565b611d108f876125eb565b6040517fffffffff0000000000000000000000000000000000000000000000000000000060e085901b16815260048101929092526024820152604401600060405180830381600087803b158015611d6657600080fd5b505af1158015611d7a573d6000803e3d6000fd5b505050508e73ffffffffffffffffffffffffffffffffffffffff16631ab06ee5611da58d6114f08a90565b611daf8d866125eb565b6040517fffffffff0000000000000000000000000000000000000000000000000000000060e085901b16815260048101929092526024820152604401600060405180830381600087803b158015611e0557600080fd5b505af1158015611e19573d6000803e3d6000fd5b505050508e73ffffffffffffffffffffffffffffffffffffffff16631ab06ee5611e448b6114f08a90565b611e4e8b856125eb565b6040517fffffffff0000000000000000000000000000000000000000000000000000000060e085901b16815260048101929092526024820152604401600060405180830381600087803b158015611ea457600080fd5b505af1158015611eb8573d6000803e3d6000fd5b50506040805160016020820152019150611ecf9050565b6040516020818303038152906040529450505050509a9950505050505050505050565b6000611efe8383611f96565b6040517f1ab06ee50000000000000000000000000000000000000000000000000000000081526004810182905243602482015290915073ffffffffffffffffffffffffffffffffffffffff851690631ab06ee590604401600060405180830381600087803b158015611f6f57600080fd5b505af1158015611f83573d6000803e3d6000fd5b5050505050505050565b6112de81612271565b60008282604051602001611fd992919091825260601b7fffffffffffffffffffffffffffffffffffffffff00000000000000000000000016602082015260340190565b604080517fffffffffffffffffffffffffffffffffffffffffffffffffffffffffffffffe081840301815291905280516020909101209392505050565b6040517fcccf7a8e0000000000000000000000000000000000000000000000000000000081526004810182905260009073ffffffffffffffffffffffffffffffffffffffff84169063cccf7a8e90602401602060405180830381865afa158015612084573d6000803e3d6000fd5b505050506040513d601f19601f820116820180604052508101906120a89190612625565b801561213e57506040517f0ff4c9160000000000000000000000000000000000000000000000000000000081526004810183905273ffffffffffffffffffffffffffffffffffffffff841690630ff4c91690602401602060405180830381865afa15801561211a573d6000803e3d6000fd5b505050506040513d601f19601f8201168201806040525081019061213e9190612625565b9392505050565b6040517fcccf7a8e0000000000000000000000000000000000000000000000000000000081526004810182905260009073ffffffffffffffffffffffffffffffffffffffff84169063cccf7a8e90602401602060405180830381865afa1580156121b3573d6000803e3d6000fd5b505050506040513d601f19601f820116820180604052508101906121d79190612625565b6121e257600061213e565b6040517f0ff4c9160000000000000000000000000000000000000000000000000000000081526004810183905273ffffffffffffffffffffffffffffffffffffffff841690630ff4c91690602401602060405180830381865afa15801561224d573d6000803e3d6000fd5b505050506040513d601f19601f8201168201806040525081019061213e9190612509565b7f8a22373512790c48b83a1fe2efdd2888d4a917bcdc24d0adf63e60f671680460805460405173ffffffffffffffffffffffffffffffffffffffff8481169216907f8be0079c531659141344cd1fd0a4f28419497f9722a3daafe3b4186f6b6457e090600090a380547fffffffffffffffffffffffff00000000000000000000000000000000000000001673ffffffffffffffffffffffffffffffffffffffff92909216919091179055565b7f4e487b7100000000000000000000000000000000000000000000000000000000600052604160045260246000fd5b604051601f82017fffffffffffffffffffffffffffffffffffffffffffffffffffffffffffffffe016810167ffffffffffffffff811182821017156123935761239361231d565b604052919050565b600060208083850312156123ae57600080fd5b823567ffffffffffffffff808211156123c657600080fd5b818501915085601f8301126123da57600080fd5b8135818111156123ec576123ec61231d565b61241c847fffffffffffffffffffffffffffffffffffffffffffffffffffffffffffffffe0601f8401160161234c565b9150808252868482850101111561243257600080fd5b8084840185840137600090820190930192909252509392505050565b600060208083528351808285015260005b8181101561247b5785810183015185820160400152820161245f565b5060006040828601015260407fffffffffffffffffffffffffffffffffffffffffffffffffffffffffffffffe0601f8301168501019250505092915050565b6000602082840312156124cc57600080fd5b5035919050565b6000602082840312156124e557600080fd5b813573ffffffffffffffffffffffffffffffffffffffff8116811461213e57600080fd5b60006020828403121561251b57600080fd5b5051919050565b6000602080838503121561253557600080fd5b825167ffffffffffffffff8082111561254d57600080fd5b818501915085601f83011261256157600080fd5b8151818111156125735761257361231d565b8060051b915061258484830161234c565b818152918301840191848101908884111561259e57600080fd5b938501935b83851015611837578451825293850193908501906125a3565b7f4e487b7100000000000000000000000000000000000000000000000000000000600052603260045260246000fd5b8181038181111561121a577f4e487b7100000000000000000000000000000000000000000000000000000000600052601160045260246000fd5b60006020828403121561263757600080fd5b8151801515811461213e57600080fdfea26469706673582212208f05761f618b170ec3a7ba3694aeddb7f17befcf9f2ef04a0994e438525e0e8964736f6c63430008110033",
    "linkReferences": {}
  },
  "methodIdentifiers": {
    "execute(bytes)": "09c5eabe",
    "executeTyped(uint256)": "3e991df3",
    "owner()": "8da5cb5b",
    "transferOwnership(address)": "f2fde38b"
  },
  "id": 120
}