{
  "abi": [
    {
      "inputs": [
        {
          "internalType": "contract IWorld",
          "name": "_world",
          "type": "address"
        },
        {
          "internalType": "address",
          "name": "_components",
          "type": "address"
        }
      ],
      "stateMutability": "nonpayable",
      "type": "constructor"
    },
    {
      "inputs": [],
      "name": "Ownable__NotOwner",
      "type": "error"
    },
    {
      "inputs": [],
      "name": "Ownable__NotTransitiveOwner",
      "type": "error"
    },
    {
      "anonymous": false,
      "inputs": [
        {
          "indexed": true,
          "internalType": "address",
          "name": "previousOwner",
          "type": "address"
        },
        {
          "indexed": true,
          "internalType": "address",
          "name": "newOwner",
          "type": "address"
        }
      ],
      "name": "OwnershipTransferred",
      "type": "event"
    },
    {
      "inputs": [
        {
          "internalType": "bytes",
          "name": "args",
          "type": "bytes"
        }
      ],
      "name": "execute",
      "outputs": [
        {
          "internalType": "bytes",
          "name": "",
          "type": "bytes"
        }
      ],
      "stateMutability": "nonpayable",
      "type": "function"
    },
    {
      "inputs": [
        {
          "internalType": "address",
          "name": "playerAddress",
          "type": "address"
        }
      ],
      "name": "executeTyped",
      "outputs": [
        {
          "internalType": "bytes",
          "name": "",
          "type": "bytes"
        }
      ],
      "stateMutability": "nonpayable",
      "type": "function"
    },
    {
      "inputs": [],
      "name": "owner",
      "outputs": [
        {
          "internalType": "address",
          "name": "",
          "type": "address"
        }
      ],
      "stateMutability": "view",
      "type": "function"
    },
    {
      "inputs": [
        {
          "internalType": "address",
          "name": "account",
          "type": "address"
        }
      ],
      "name": "transferOwnership",
      "outputs": [],
      "stateMutability": "nonpayable",
      "type": "function"
    }
  ],
  "bytecode": {
    "object": "0x60806040523480156200001157600080fd5b5060405162002190380380620021908339810160408190526200003491620001e0565b8181818162000043336200014d565b6001600160a01b038116156200005a5780620000bf565b816001600160a01b031663ba62fbe46040518163ffffffff1660e01b8152600401602060405180830381865afa15801562000099573d6000803e3d6000fd5b505050506040513d601f19601f82011682018060405250810190620000bf91906200021f565b600080546001600160a01b039283166001600160a01b0319918216811790925560018054938616938216841790557ff67304f10c7772c78e439bc5cb07781db345424de8878c18100fdaa64d197a87805482169093179092557ff67304f10c7772c78e439bc5cb07781db345424de8878c18100fdaa64d197a86805490921617905550505050505062000246565b7f8a22373512790c48b83a1fe2efdd2888d4a917bcdc24d0adf63e60f67168046080546040516001600160a01b038481169216907f8be0079c531659141344cd1fd0a4f28419497f9722a3daafe3b4186f6b6457e090600090a380546001600160a01b0319166001600160a01b0392909216919091179055565b6001600160a01b0381168114620001dd57600080fd5b50565b60008060408385031215620001f457600080fd5b82516200020181620001c7565b60208401519092506200021481620001c7565b809150509250929050565b6000602082840312156200023257600080fd5b81516200023f81620001c7565b9392505050565b611f3a80620002566000396000f3fe608060405234801561001057600080fd5b506004361061004c5760003560e01c806309c5eabe14610051578063240b27e61461007a5780638da5cb5b1461008d578063f2fde38b146100ba575b600080fd5b61006461005f366004611ac6565b6100cf565b6040516100719190611b79565b60405180910390f35b610064610088366004611c07565b61048b565b6100956104cd565b60405173ffffffffffffffffffffffffffffffffffffffff9091168152602001610071565b6100cd6100c8366004611c07565b610512565b005b60606000828060200190518101906100e79190611c24565b90506101a3600160009054906101000a900473ffffffffffffffffffffffffffffffffffffffff1673ffffffffffffffffffffffffffffffffffffffff16630d59332e6040518163ffffffff1660e01b8152600401602060405180830381865afa158015610159573d6000803e3d6000fd5b505050506040513d601f19601f8201168201806040525081019061017d9190611c24565b7f4a74b7250a871619ca8aed2448378dc66f44f082f024aff856f74c9a5b25587061058e565b73ffffffffffffffffffffffffffffffffffffffff163373ffffffffffffffffffffffffffffffffffffffff1614806101f157503373ffffffffffffffffffffffffffffffffffffffff8216145b6102a8576040517f08c379a000000000000000000000000000000000000000000000000000000000815260206004820152605860248201527f535f436c61696d556e69747353797374656d3a204f6e6c7920547261696e556e60448201527f69747353797374656d2c206f722074686520706c61796572207468656d73656c60648201527f662063616e2063616c6c20746869732066756e6374696f6e0000000000000000608482015260a4015b60405180910390fd5b600073ffffffffffffffffffffffffffffffffffffffff82166001546040517f4f27da180000000000000000000000000000000000000000000000000000000081527f9de349a5ebb25e4948f087042ac901652bc7ca239eacb04610389265e211e527600482015291925060009173ffffffffffffffffffffffffffffffffffffffff90911690634f27da1890602401602060405180830381865afa158015610355573d6000803e3d6000fd5b505050506040513d601f19601f820116820180604052508101906103799190611c24565b73ffffffffffffffffffffffffffffffffffffffff1663fbdfa1ea836040518263ffffffff1660e01b81526004016103b391815260200190565b600060405180830381865afa1580156103d0573d6000803e3d6000fd5b505050506040513d6000823e601f3d9081017fffffffffffffffffffffffffffffffffffffffffffffffffffffffffffffffe01682016040526104169190810190611c41565b905060005b81518163ffffffff1610156104825760015482516104709173ffffffffffffffffffffffffffffffffffffffff1690849063ffffffff851690811061046257610462611ce7565b6020026020010151856106da565b8061047a81611d45565b91505061041b565b50505050919050565b6040805173ffffffffffffffffffffffffffffffffffffffff831660208201526060916104c791016040516020818303038152906040526100cf565b92915050565b600061050d7f8a22373512790c48b83a1fe2efdd2888d4a917bcdc24d0adf63e60f6716804605473ffffffffffffffffffffffffffffffffffffffff1690565b905090565b7f8a22373512790c48b83a1fe2efdd2888d4a917bcdc24d0adf63e60f6716804605473ffffffffffffffffffffffffffffffffffffffff163314610582576040517f2f7a8ee100000000000000000000000000000000000000000000000000000000815260040160405180910390fd5b61058b81610efe565b50565b6040517ffbdfa1ea00000000000000000000000000000000000000000000000000000000815260048101829052600090819073ffffffffffffffffffffffffffffffffffffffff85169063fbdfa1ea90602401600060405180830381865afa1580156105fe573d6000803e3d6000fd5b505050506040513d6000823e601f3d9081017fffffffffffffffffffffffffffffffffffffffffffffffffffffffffffffffe01682016040526106449190810190611c41565b905080516000036106b1576040517f08c379a000000000000000000000000000000000000000000000000000000000815260206004820152601160248201527f6964206e6f742072656769737465726564000000000000000000000000000000604482015260640161029f565b6106d2816000815181106106c7576106c7611ce7565b602002602001015190565b949350505050565b6040517f4f27da180000000000000000000000000000000000000000000000000000000081527f5b9d688a4f4d7f660846f39f20b66c2b0fe7a6e38d8e4ad354c58102d0fb9345600482015260009073ffffffffffffffffffffffffffffffffffffffff851690634f27da1890602401602060405180830381865afa158015610767573d6000803e3d6000fd5b505050506040513d601f19601f8201168201806040525081019061078b9190611c24565b6040517f4f27da180000000000000000000000000000000000000000000000000000000081527fe95fc307e3922a4ed7e1a9d135b2e79aad91e806428d8c7ec9a376dfc8aede5e600482015290915060009073ffffffffffffffffffffffffffffffffffffffff861690634f27da1890602401602060405180830381865afa15801561081b573d6000803e3d6000fd5b505050506040513d601f19601f8201168201806040525081019061083f9190611c24565b6040517f4f27da180000000000000000000000000000000000000000000000000000000081527f8bd637b568ed540cabc10b49a9f3688fe5b7e4b706298b6cd07c2e1ed5600e93600482015290915060009073ffffffffffffffffffffffffffffffffffffffff871690634f27da1890602401602060405180830381865afa1580156108cf573d6000803e3d6000fd5b505050506040513d601f19601f820116820180604052508101906108f39190611c24565b6040517f4f27da180000000000000000000000000000000000000000000000000000000081527fbc8e22f24f6044e355309bd5acf8876066c99bf3cf9d498a4dfea5ebf331f17b600482015290915060009073ffffffffffffffffffffffffffffffffffffffff881690634f27da1890602401602060405180830381865afa158015610983573d6000803e3d6000fd5b505050506040513d601f19601f820116820180604052508101906109a79190611c24565b6040517fcccf7a8e0000000000000000000000000000000000000000000000000000000081526004810188905290915060009073ffffffffffffffffffffffffffffffffffffffff83169063cccf7a8e90602401602060405180830381865afa158015610a18573d6000803e3d6000fd5b505050506040513d601f19601f82011682018060405250810190610a3c9190611d68565b90506000610a4a8389610f07565b90505b8115610ef3576040805160208082018b905263ffffffff841682840152825180830384018152606090920190925280519101206000906040517f0ff4c9160000000000000000000000000000000000000000000000000000000081526004810182905290915060009073ffffffffffffffffffffffffffffffffffffffff891690630ff4c916906024016040805180830381865afa158015610af3573d6000803e3d6000fd5b505050506040513d601f19601f82011682018060405250810190610b179190611da3565b90506000610b2b8c8b8d856000015161103a565b6040517f0ff4c916000000000000000000000000000000000000000000000000000000008152600481018d905290915060009073ffffffffffffffffffffffffffffffffffffffff8a1690630ff4c91690602401602060405180830381865afa158015610b9c573d6000803e3d6000fd5b505050506040513d601f19601f82011682018060405250810190610bc09190611df7565b9050600082610bcf8343611e10565b610bd99190611e23565b90506000610c1285600001518e604080516020808201949094528082019290925280518083038201815260609092019052805191012090565b905063ffffffff821615610ee357846020015163ffffffff168263ffffffff1610610cdc5784602001519150610c488f8f611447565b6040517f4cc822150000000000000000000000000000000000000000000000000000000081526004810188905290975073ffffffffffffffffffffffffffffffffffffffff8d1690634cc8221590602401600060405180830381600087803b158015610cb357600080fd5b505af1158015610cc7573d6000803e3d6000fd5b5050505060008763ffffffff16119750610d93565b600097508185602001818151610cf29190611e6d565b63ffffffff9081169091526040517f95699b3700000000000000000000000000000000000000000000000000000000815260048101899052875160248201526020880151909116604482015273ffffffffffffffffffffffffffffffffffffffff8e1691506395699b3790606401600060405180830381600087803b158015610d7a57600080fd5b505af1158015610d8e573d6000803e3d6000fd5b505050505b73ffffffffffffffffffffffffffffffffffffffff8b16631ab06ee58f610dba8786611e91565b610dca9063ffffffff1687611eb9565b6040517fffffffff0000000000000000000000000000000000000000000000000000000060e085901b16815260048101929092526024820152604401600060405180830381600087803b158015610e2057600080fd5b505af1158015610e34573d6000803e3d6000fd5b505050508973ffffffffffffffffffffffffffffffffffffffff1663d923c3c48284610e608e86610f07565b610e6a9190611ecc565b6040517fffffffff0000000000000000000000000000000000000000000000000000000060e085901b168152600481019290925263ffffffff166024820152604401600060405180830381600087803b158015610ec657600080fd5b505af1158015610eda573d6000803e3d6000fd5b50505050610ee8565b600097505b505050505050610a4d565b505050505050505050565b61058b81611721565b6040517fcccf7a8e0000000000000000000000000000000000000000000000000000000081526004810182905260009073ffffffffffffffffffffffffffffffffffffffff84169063cccf7a8e90602401602060405180830381865afa158015610f75573d6000803e3d6000fd5b505050506040513d601f19601f82011682018060405250810190610f999190611d68565b610fa4576000611033565b6040517f0ff4c9160000000000000000000000000000000000000000000000000000000081526004810183905273ffffffffffffffffffffffffffffffffffffffff841690630ff4c91690602401602060405180830381865afa15801561100f573d6000803e3d6000fd5b505050506040513d601f19601f820116820180604052508101906110339190611ee9565b9392505050565b6040517f4f27da180000000000000000000000000000000000000000000000000000000081527fe29f17e890aad3f733af05f51d95e896e530ba6a6878bde036ee1a12583ebd396004820152600090819073ffffffffffffffffffffffffffffffffffffffff871690634f27da1890602401602060405180830381865afa1580156110c9573d6000803e3d6000fd5b505050506040513d601f19601f820116820180604052508101906110ed9190611c24565b6040517f4f27da180000000000000000000000000000000000000000000000000000000081527f7562ebb298d855e68fb2922ace89e271e36c031fb473ee4be72f900215d523c5600482015290915060009073ffffffffffffffffffffffffffffffffffffffff881690634f27da1890602401602060405180830381865afa15801561117d573d6000803e3d6000fd5b505050506040513d601f19601f820116820180604052508101906111a19190611c24565b73ffffffffffffffffffffffffffffffffffffffff16630ff4c916866040518263ffffffff1660e01b81526004016111db91815260200190565b602060405180830381865afa1580156111f8573d6000803e3d6000fd5b505050506040513d601f19601f8201168201806040525081019061121c9190611df7565b6040517f4f27da180000000000000000000000000000000000000000000000000000000081527fbd262b900b9f3e3d6078d7a8e45d1bee5f4fd9547063f524ac4cbf611d37b44e600482015290915060009073ffffffffffffffffffffffffffffffffffffffff891690634f27da1890602401602060405180830381865afa1580156112ac573d6000803e3d6000fd5b505050506040513d601f19601f820116820180604052508101906112d09190611c24565b73ffffffffffffffffffffffffffffffffffffffff16630ff4c916876040518263ffffffff1660e01b815260040161130a91815260200190565b602060405180830381865afa158015611327573d6000803e3d6000fd5b505050506040513d601f19601f8201168201806040525081019061134b9190611ee9565b60408051602080820186905263ffffffff841682840152825180830384018152606090920190925280519101209091506000906040517f0ff4c9160000000000000000000000000000000000000000000000000000000081526004810182905290915060009073ffffffffffffffffffffffffffffffffffffffff861690630ff4c91690602401602060405180830381865afa1580156113ef573d6000803e3d6000fd5b505050506040513d601f19601f820116820180604052508101906114139190611ee9565b90506000816114238c8c8b6117cd565b61142e906064611e91565b6114389190611e23565b9b9a5050505050505050505050565b6040517f4f27da180000000000000000000000000000000000000000000000000000000081527fbc8e22f24f6044e355309bd5acf8876066c99bf3cf9d498a4dfea5ebf331f17b6004820152600090819073ffffffffffffffffffffffffffffffffffffffff851690634f27da1890602401602060405180830381865afa1580156114d6573d6000803e3d6000fd5b505050506040513d601f19601f820116820180604052508101906114fa9190611c24565b6040517f4f27da180000000000000000000000000000000000000000000000000000000081527ff29be3703a45a0eb1de636e3441bf1955765a4209e0846e136e7b5a0940aa959600482015290915060009073ffffffffffffffffffffffffffffffffffffffff861690634f27da1890602401602060405180830381865afa15801561158a573d6000803e3d6000fd5b505050506040513d601f19601f820116820180604052508101906115ae9190611c24565b905060006115bc8386610f07565b905060006115ca8387610f07565b90508063ffffffff168263ffffffff1610156116945773ffffffffffffffffffffffffffffffffffffffff841663d923c3c487611608856001611ecc565b6040517fffffffff0000000000000000000000000000000000000000000000000000000060e085901b168152600481019290925263ffffffff166024820152604401600060405180830381600087803b15801561166457600080fd5b505af1158015611678573d6000803e3d6000fd5b505050508160016116899190611ecc565b9450505050506104c7565b6040517f4cc822150000000000000000000000000000000000000000000000000000000081526004810187905273ffffffffffffffffffffffffffffffffffffffff851690634cc8221590602401600060405180830381600087803b1580156116fc57600080fd5b505af1158015611710573d6000803e3d6000fd5b5050505060009450505050506104c7565b7f8a22373512790c48b83a1fe2efdd2888d4a917bcdc24d0adf63e60f671680460805460405173ffffffffffffffffffffffffffffffffffffffff8481169216907f8be0079c531659141344cd1fd0a4f28419497f9722a3daafe3b4186f6b6457e090600090a380547fffffffffffffffffffffffff00000000000000000000000000000000000000001673ffffffffffffffffffffffffffffffffffffffff92909216919091179055565b6040517f4f27da180000000000000000000000000000000000000000000000000000000081527f45f3ce6f3efbfa0ea8a5ab8a9d4ba4ecf0a265d8e7752539e5203719012da5f66004820152600090819073ffffffffffffffffffffffffffffffffffffffff861690634f27da1890602401602060405180830381865afa15801561185c573d6000803e3d6000fd5b505050506040513d601f19601f820116820180604052508101906118809190611c24565b9050600061188f868686611957565b60408051602080820188905263ffffffff841682840152825180830384018152606083019384905280519101207f0ff4c91600000000000000000000000000000000000000000000000000000000909252606481019190915290915073ffffffffffffffffffffffffffffffffffffffff831690630ff4c91690608401602060405180830381865afa158015611929573d6000803e3d6000fd5b505050506040513d601f19601f8201168201806040525081019061194d9190611ee9565b9695505050505050565b6040805160208082018490528183018590528251808303840181526060909201909252805191012060009081906040517f4f27da180000000000000000000000000000000000000000000000000000000081527fbd262b900b9f3e3d6078d7a8e45d1bee5f4fd9547063f524ac4cbf611d37b44e6004820152909150611a3f9073ffffffffffffffffffffffffffffffffffffffff871690634f27da1890602401602060405180830381865afa158015611a15573d6000803e3d6000fd5b505050506040513d601f19601f82011682018060405250810190611a399190611c24565b82610f07565b95945050505050565b7f4e487b7100000000000000000000000000000000000000000000000000000000600052604160045260246000fd5b604051601f82017fffffffffffffffffffffffffffffffffffffffffffffffffffffffffffffffe016810167ffffffffffffffff81118282101715611abe57611abe611a48565b604052919050565b60006020808385031215611ad957600080fd5b823567ffffffffffffffff80821115611af157600080fd5b818501915085601f830112611b0557600080fd5b813581811115611b1757611b17611a48565b611b47847fffffffffffffffffffffffffffffffffffffffffffffffffffffffffffffffe0601f84011601611a77565b91508082528684828501011115611b5d57600080fd5b8084840185840137600090820190930192909252509392505050565b600060208083528351808285015260005b81811015611ba657858101830151858201604001528201611b8a565b5060006040828601015260407fffffffffffffffffffffffffffffffffffffffffffffffffffffffffffffffe0601f8301168501019250505092915050565b73ffffffffffffffffffffffffffffffffffffffff8116811461058b57600080fd5b600060208284031215611c1957600080fd5b813561103381611be5565b600060208284031215611c3657600080fd5b815161103381611be5565b60006020808385031215611c5457600080fd5b825167ffffffffffffffff80821115611c6c57600080fd5b818501915085601f830112611c8057600080fd5b815181811115611c9257611c92611a48565b8060051b9150611ca3848301611a77565b8181529183018401918481019088841115611cbd57600080fd5b938501935b83851015611cdb57845182529385019390850190611cc2565b98975050505050505050565b7f4e487b7100000000000000000000000000000000000000000000000000000000600052603260045260246000fd5b7f4e487b7100000000000000000000000000000000000000000000000000000000600052601160045260246000fd5b600063ffffffff808316818103611d5e57611d5e611d16565b6001019392505050565b600060208284031215611d7a57600080fd5b8151801515811461103357600080fd5b805163ffffffff81168114611d9e57600080fd5b919050565b600060408284031215611db557600080fd5b6040516040810181811067ffffffffffffffff82111715611dd857611dd8611a48565b60405282518152611deb60208401611d8a565b60208201529392505050565b600060208284031215611e0957600080fd5b5051919050565b818103818111156104c7576104c7611d16565b600063ffffffff80841680611e61577f4e487b7100000000000000000000000000000000000000000000000000000000600052601260045260246000fd5b92169190910492915050565b63ffffffff828116828216039080821115611e8a57611e8a611d16565b5092915050565b63ffffffff818116838216028082169190828114611eb157611eb1611d16565b505092915050565b808201808211156104c7576104c7611d16565b63ffffffff818116838216019080821115611e8a57611e8a611d16565b600060208284031215611efb57600080fd5b61103382611d8a56fea26469706673582212203817764a23867a40cb50b8c96f5bb01be6edc58a172d477429b166239900e9db64736f6c63430008130033",
    "linkReferences": {}
  },
  "methodIdentifiers": {
    "execute(bytes)": "09c5eabe",
    "executeTyped(address)": "240b27e6",
    "owner()": "8da5cb5b",
    "transferOwnership(address)": "f2fde38b"
  },
  "id": 168
}