{
  "abi": [
    {
      "inputs": [
        {
          "internalType": "contract IWorld",
          "name": "_world",
          "type": "address"
        },
        {
          "internalType": "address",
          "name": "_components",
          "type": "address"
        }
      ],
      "stateMutability": "nonpayable",
      "type": "constructor"
    },
    {
      "inputs": [],
      "name": "Ownable__NotOwner",
      "type": "error"
    },
    {
      "inputs": [],
      "name": "Ownable__NotTransitiveOwner",
      "type": "error"
    },
    {
      "anonymous": false,
      "inputs": [
        {
          "indexed": true,
          "internalType": "address",
          "name": "previousOwner",
          "type": "address"
        },
        {
          "indexed": true,
          "internalType": "address",
          "name": "newOwner",
          "type": "address"
        }
      ],
      "name": "OwnershipTransferred",
      "type": "event"
    },
    {
      "inputs": [
        {
          "internalType": "bytes",
          "name": "args",
          "type": "bytes"
        }
      ],
      "name": "execute",
      "outputs": [
        {
          "internalType": "bytes",
          "name": "",
          "type": "bytes"
        }
      ],
      "stateMutability": "nonpayable",
      "type": "function"
    },
    {
      "inputs": [
        {
          "internalType": "address",
          "name": "playerAddress",
          "type": "address"
        },
        {
          "internalType": "uint256",
          "name": "buildingEntity",
          "type": "uint256"
        }
      ],
      "name": "executeTyped",
      "outputs": [
        {
          "internalType": "bytes",
          "name": "",
          "type": "bytes"
        }
      ],
      "stateMutability": "nonpayable",
      "type": "function"
    },
    {
      "inputs": [],
      "name": "owner",
      "outputs": [
        {
          "internalType": "address",
          "name": "",
          "type": "address"
        }
      ],
      "stateMutability": "view",
      "type": "function"
    },
    {
      "inputs": [
        {
          "internalType": "address",
          "name": "account",
          "type": "address"
        }
      ],
      "name": "transferOwnership",
      "outputs": [],
      "stateMutability": "nonpayable",
      "type": "function"
    }
  ],
  "bytecode": {
    "object": "0x60806040523480156200001157600080fd5b5060405162001d7538038062001d758339810160408190526200003491620001e0565b8181818162000043336200014d565b6001600160a01b038116156200005a5780620000bf565b816001600160a01b031663ba62fbe46040518163ffffffff1660e01b8152600401602060405180830381865afa15801562000099573d6000803e3d6000fd5b505050506040513d601f19601f82011682018060405250810190620000bf91906200021f565b600080546001600160a01b039283166001600160a01b0319918216811790925560018054938616938216841790557ff67304f10c7772c78e439bc5cb07781db345424de8878c18100fdaa64d197a87805482169093179092557ff67304f10c7772c78e439bc5cb07781db345424de8878c18100fdaa64d197a86805490921617905550505050505062000246565b7f8a22373512790c48b83a1fe2efdd2888d4a917bcdc24d0adf63e60f67168046080546040516001600160a01b038481169216907f8be0079c531659141344cd1fd0a4f28419497f9722a3daafe3b4186f6b6457e090600090a380546001600160a01b0319166001600160a01b0392909216919091179055565b6001600160a01b0381168114620001dd57600080fd5b50565b60008060408385031215620001f457600080fd5b82516200020181620001c7565b60208401519092506200021481620001c7565b809150509250929050565b6000602082840312156200023257600080fd5b81516200023f81620001c7565b9392505050565b611b1f80620002566000396000f3fe608060405234801561001057600080fd5b506004361061004c5760003560e01c806309c5eabe146100515780636ad0ccab1461007a5780638da5cb5b1461008d578063f2fde38b146100ba575b600080fd5b61006461005f3660046113fc565b6100cf565b60405161007191906114d3565b60405180910390f35b610064610088366004611546565b6107ef565b61009561083b565b60405173ffffffffffffffffffffffffffffffffffffffff9091168152602001610071565b6100cd6100c8366004611572565b610880565b005b606061018b600160009054906101000a900473ffffffffffffffffffffffffffffffffffffffff1673ffffffffffffffffffffffffffffffffffffffff16630d59332e6040518163ffffffff1660e01b8152600401602060405180830381865afa158015610141573d6000803e3d6000fd5b505050506040513d601f19601f820116820180604052508101906101659190611596565b7f57247228bbd93ac6953378fea0f421ebc4978d448f7383f1a2816e6ca6e2894d6108fc565b73ffffffffffffffffffffffffffffffffffffffff163373ffffffffffffffffffffffffffffffffffffffff1614806102a95750600154604080517f0d59332e000000000000000000000000000000000000000000000000000000008152905161027a9273ffffffffffffffffffffffffffffffffffffffff1691630d59332e9160048083019260209291908290030181865afa158015610230573d6000803e3d6000fd5b505050506040513d601f19601f820116820180604052508101906102549190611596565b7f70fd2d99c63cf9e9a219a7907c6a0bc55a0323de6daf9c9d0b03e2d7250d73d26108fc565b73ffffffffffffffffffffffffffffffffffffffff163373ffffffffffffffffffffffffffffffffffffffff16145b610360576040517f08c379a000000000000000000000000000000000000000000000000000000000815260206004820152605360248201527f535f506c6163654275696c64696e6754696c657353797374656d3a204f6e6c7960448201527f204275696c6453797374656d20616e6420537061776e53797374656d2063616e60648201527f2063616c6c20746869732066756e6374696f6e00000000000000000000000000608482015260a4015b60405180910390fd5b6000808380602001905181019061037791906115b3565b909250905060006103a77f7562ebb298d855e68fb2922ace89e271e36c031fb473ee4be72f900215d523c5610a48565b73ffffffffffffffffffffffffffffffffffffffff16630ff4c916836040518263ffffffff1660e01b81526004016103e191815260200190565b602060405180830381865afa1580156103fe573d6000803e3d6000fd5b505050506040513d601f19601f8201168201806040525081019061042291906115e1565b9050600061044f7f49a4584d9706380e35459e1f31e673445371b5bac20aa516f8ba8650b1843106610a48565b73ffffffffffffffffffffffffffffffffffffffff16630ff4c916846040518263ffffffff1660e01b815260040161048991815260200190565b606060405180830381865afa1580156104a6573d6000803e3d6000fd5b505050506040513d601f19601f820116820180604052508101906104ca9190611611565b905060006104f77f29ea2e15d03ff393df6dfe165be7e61208c58ffcace6ef0eb6f37ef912f8f8b2610a48565b73ffffffffffffffffffffffffffffffffffffffff16630ff4c916846040518263ffffffff1660e01b815260040161053191815260200190565b600060405180830381865afa15801561054e573d6000803e3d6000fd5b505050506040513d6000823e601f3d9081017fffffffffffffffffffffffffffffffffffffffffffffffffffffffffffffffe0168201604052610594919081019061169d565b6001549091506000906105d99073ffffffffffffffffffffffffffffffffffffffff166105d48873ffffffffffffffffffffffffffffffffffffffff1690565b610a6c565b90506000600283516105eb9190611798565b67ffffffffffffffff8111156106035761060361137e565b60405190808252806020026020018201604052801561062c578160200160208202803683370190505b50905060005b83518163ffffffff16101561074d5760006040518060600160405280868463ffffffff1681518110610666576106666117ac565b602002602001015160030b81526020018684600161068491906117db565b63ffffffff168151811061069a5761069a6117ac565b602002602001015160030b81526020016000815250905060006040518060600160405280836000015189600001516106d291906117ff565b60030b8152602001836020015189602001516106ee91906117ff565b60030b81526020018860400151815250905061070b898683610e81565b84610717600286611841565b63ffffffff168151811061072d5761072d6117ac565b60209081029190910101525061074690506002826117db565b9050610632565b506107777ff0cb43e036bae834910fad0a5f691ed43d8c3edb41f55275901bc5d576f8f491610a48565b73ffffffffffffffffffffffffffffffffffffffff1663946aadc687836040518363ffffffff1660e01b81526004016107b1929190611864565b600060405180830381600087803b1580156107cb57600080fd5b505af11580156107df573d6000803e3d6000fd5b5050505050505050505050919050565b6040805173ffffffffffffffffffffffffffffffffffffffff841660208201529081018290526060906108329082016040516020818303038152906040526100cf565b90505b92915050565b600061087b7f8a22373512790c48b83a1fe2efdd2888d4a917bcdc24d0adf63e60f6716804605473ffffffffffffffffffffffffffffffffffffffff1690565b905090565b7f8a22373512790c48b83a1fe2efdd2888d4a917bcdc24d0adf63e60f6716804605473ffffffffffffffffffffffffffffffffffffffff1633146108f0576040517f2f7a8ee100000000000000000000000000000000000000000000000000000000815260040160405180910390fd5b6108f981611252565b50565b6040517ffbdfa1ea00000000000000000000000000000000000000000000000000000000815260048101829052600090819073ffffffffffffffffffffffffffffffffffffffff85169063fbdfa1ea90602401600060405180830381865afa15801561096c573d6000803e3d6000fd5b505050506040513d6000823e601f3d9081017fffffffffffffffffffffffffffffffffffffffffffffffffffffffffffffffe01682016040526109b291908101906118b2565b90508051600003610a1f576040517f08c379a000000000000000000000000000000000000000000000000000000000815260206004820152601160248201527f6964206e6f7420726567697374657265640000000000000000000000000000006044820152606401610357565b610a4081600081518110610a3557610a356117ac565b602002602001015190565b949350505050565b600080546108359073ffffffffffffffffffffffffffffffffffffffff16836108fc565b6040805160808101825260008082526020820181905291810182905260608101919091526000610b2a8473ffffffffffffffffffffffffffffffffffffffff1663ba62fbe46040518163ffffffff1660e01b8152600401602060405180830381865afa158015610ae0573d6000803e3d6000fd5b505050506040513d601f19601f82011682018060405250810190610b049190611596565b7fbd262b900b9f3e3d6078d7a8e45d1bee5f4fd9547063f524ac4cbf611d37b44e6108fc565b73ffffffffffffffffffffffffffffffffffffffff16630ff4c916846040518263ffffffff1660e01b8152600401610b6491815260200190565b602060405180830381865afa158015610b81573d6000803e3d6000fd5b505050506040513d601f19601f82011682018060405250810190610ba59190611938565b90506000610bee6040518060400160405280601281526020017f72657365617263682e457870616e73696f6e00000000000000000000000000008152508363ffffffff1661125b565b90506000610c8a8673ffffffffffffffffffffffffffffffffffffffff1663ba62fbe46040518163ffffffff1660e01b8152600401602060405180830381865afa158015610c40573d6000803e3d6000fd5b505050506040513d601f19601f82011682018060405250810190610c649190611596565b7f4d4b5854aad91ff8a49a13a08e0bd3844a69c01df18f29ff1176f4d7705e33526108fc565b6040517f0ff4c91600000000000000000000000000000000000000000000000000000000815261060d600482015290915060009073ffffffffffffffffffffffffffffffffffffffff831690630ff4c916906024016040805180830381865afa158015610cfb573d6000803e3d6000fd5b505050506040513d601f19601f82011682018060405250810190610d1f919061195e565b6040517f0ff4c9160000000000000000000000000000000000000000000000000000000081526004810185905290915060009073ffffffffffffffffffffffffffffffffffffffff841690630ff4c916906024016040805180830381865afa158015610d8f573d6000803e3d6000fd5b505050506040513d601f19601f82011682018060405250810190610db3919061195e565b90506040518060800160405280600283600001518560000151610dd691906119b9565b610de091906119fb565b60030b8152602001600283602001518560200151610dfe91906119b9565b610e0891906119fb565b60030b81526020016001600284600001518660000151610e2891906117ff565b610e3291906119fb565b610e3c91906119b9565b60030b81526020016001600284602001518660200151610e5c91906117ff565b610e6691906119fb565b610e7091906119b9565b60030b905298975050505050505050565b600080610ead7faf90be6cd7aa92d6569a9ae629178b74e1b0fbdd1097c27ec1dfffd2dc4c7540610a48565b9050610eee6040518060400160405280600d81526020017f6275696c64696e672e74696c6500000000000000000000000000000000000000815250846112ad565b6040517fcccf7a8e0000000000000000000000000000000000000000000000000000000081526004810182905290925073ffffffffffffffffffffffffffffffffffffffff82169063cccf7a8e90602401602060405180830381865afa158015610f5c573d6000803e3d6000fd5b505050506040513d601f19601f82011682018060405250810190610f809190611a6f565b1561100d576040517f08c379a000000000000000000000000000000000000000000000000000000000815260206004820152603960248201527f5b4275696c6453797374656d5d2043616e6e6f74206275696c642074696c652060448201527f6f6e2061206e6f6e2d656d70747920636f6f7264696e617465000000000000006064820152608401610357565b82518451600391820b910b138015906110345750826020015160030b846020015160030b13155b801561104e5750826000015160030b846040015160030b12155b80156110685750826020015160030b846060015160030b12155b6110f3576040517f08c379a0000000000000000000000000000000000000000000000000000000008152602060048201526024808201527f5b4275696c6453797374656d5d204275696c64696e67206f7574206f6620626f60448201527f756e6473000000000000000000000000000000000000000000000000000000006064820152608401610357565b6040517f1ab06ee5000000000000000000000000000000000000000000000000000000008152600481018390526024810186905273ffffffffffffffffffffffffffffffffffffffff821690631ab06ee590604401600060405180830381600087803b15801561116257600080fd5b505af1158015611176573d6000803e3d6000fd5b505050506111a67f49a4584d9706380e35459e1f31e673445371b5bac20aa516f8ba8650b184310660001c610a48565b604080517f8d10d6de000000000000000000000000000000000000000000000000000000008152600481018590528551600390810b60248301526020870151900b604482015290850151606482015273ffffffffffffffffffffffffffffffffffffffff9190911690638d10d6de90608401600060405180830381600087803b15801561123257600080fd5b505af1158015611246573d6000803e3d6000fd5b50505050509392505050565b6108f9816112d2565b60008282604051602001611270929190611a91565b604080517fffffffffffffffffffffffffffffffffffffffffffffffffffffffffffffffe081840301815291905280516020909101209392505050565b6000828260000151836020015184604001516040516020016112709493929190611ab3565b7f8a22373512790c48b83a1fe2efdd2888d4a917bcdc24d0adf63e60f671680460805460405173ffffffffffffffffffffffffffffffffffffffff8481169216907f8be0079c531659141344cd1fd0a4f28419497f9722a3daafe3b4186f6b6457e090600090a380547fffffffffffffffffffffffff00000000000000000000000000000000000000001673ffffffffffffffffffffffffffffffffffffffff92909216919091179055565b7f4e487b7100000000000000000000000000000000000000000000000000000000600052604160045260246000fd5b604051601f82017fffffffffffffffffffffffffffffffffffffffffffffffffffffffffffffffe016810167ffffffffffffffff811182821017156113f4576113f461137e565b604052919050565b6000602080838503121561140f57600080fd5b823567ffffffffffffffff8082111561142757600080fd5b818501915085601f83011261143b57600080fd5b81358181111561144d5761144d61137e565b61147d847fffffffffffffffffffffffffffffffffffffffffffffffffffffffffffffffe0601f840116016113ad565b9150808252868482850101111561149357600080fd5b8084840185840137600090820190930192909252509392505050565b60005b838110156114ca5781810151838201526020016114b2565b50506000910152565b60208152600082518060208401526114f28160408501602087016114af565b601f017fffffffffffffffffffffffffffffffffffffffffffffffffffffffffffffffe0169190910160400192915050565b73ffffffffffffffffffffffffffffffffffffffff811681146108f957600080fd5b6000806040838503121561155957600080fd5b823561156481611524565b946020939093013593505050565b60006020828403121561158457600080fd5b813561158f81611524565b9392505050565b6000602082840312156115a857600080fd5b815161158f81611524565b600080604083850312156115c657600080fd5b82516115d181611524565b6020939093015192949293505050565b6000602082840312156115f357600080fd5b5051919050565b8051600381900b811461160c57600080fd5b919050565b60006060828403121561162357600080fd5b6040516060810181811067ffffffffffffffff821117156116465761164661137e565b604052611652836115fa565b8152611660602084016115fa565b6020820152604083015160408201528091505092915050565b600067ffffffffffffffff8211156116935761169361137e565b5060051b60200190565b600060208083850312156116b057600080fd5b825167ffffffffffffffff8111156116c757600080fd5b8301601f810185136116d857600080fd5b80516116eb6116e682611679565b6113ad565b81815260059190911b8201830190838101908783111561170a57600080fd5b928401925b8284101561172f57611720846115fa565b8252928401929084019061170f565b979650505050505050565b7f4e487b7100000000000000000000000000000000000000000000000000000000600052601260045260246000fd5b7f4e487b7100000000000000000000000000000000000000000000000000000000600052601160045260246000fd5b6000826117a7576117a761173a565b500490565b7f4e487b7100000000000000000000000000000000000000000000000000000000600052603260045260246000fd5b63ffffffff8181168382160190808211156117f8576117f8611769565b5092915050565b600381810b9083900b01637fffffff81137fffffffffffffffffffffffffffffffffffffffffffffffffffffffff800000008212171561083557610835611769565b600063ffffffff808416806118585761185861173a565b92169190910492915050565b6000604082018483526020604081850152818551808452606086019150828701935060005b818110156118a557845183529383019391830191600101611889565b5090979650505050505050565b600060208083850312156118c557600080fd5b825167ffffffffffffffff8111156118dc57600080fd5b8301601f810185136118ed57600080fd5b80516118fb6116e682611679565b81815260059190911b8201830190838101908783111561191a57600080fd5b928401925b8284101561172f5783518252928401929084019061191f565b60006020828403121561194a57600080fd5b815163ffffffff8116811461158f57600080fd5b60006040828403121561197057600080fd5b6040516040810181811067ffffffffffffffff821117156119935761199361137e565b60405261199f836115fa565b81526119ad602084016115fa565b60208201529392505050565b600382810b9082900b037fffffffffffffffffffffffffffffffffffffffffffffffffffffffff800000008112637fffffff8213171561083557610835611769565b60008160030b8360030b80611a1257611a1261173a565b7fffffffffffffffffffffffffffffffffffffffffffffffffffffffffffffffff81147fffffffffffffffffffffffffffffffffffffffffffffffffffffffff8000000083141615611a6657611a66611769565b90059392505050565b600060208284031215611a8157600080fd5b8151801515811461158f57600080fd5b60008351611aa38184602088016114af565b9190910191825250602001919050565b60008551611ac5818460208a016114af565b60e095861b9201918252509190921b6004820152600881019190915260280191905056fea2646970667358221220ba66a14301c847da24f79d8ba8cab597fa98960fe5b8add5b6bca851ca911baa64736f6c63430008130033",
    "linkReferences": {}
  },
  "methodIdentifiers": {
    "execute(bytes)": "09c5eabe",
    "executeTyped(address,uint256)": "6ad0ccab",
    "owner()": "8da5cb5b",
    "transferOwnership(address)": "f2fde38b"
  },
  "id": 194
}