{
  "abi": [
    {
      "inputs": [
        {
          "internalType": "contract IWorld",
          "name": "_world",
          "type": "address"
        },
        {
          "internalType": "address",
          "name": "_components",
          "type": "address"
        }
      ],
      "stateMutability": "nonpayable",
      "type": "constructor"
    },
    {
      "inputs": [],
      "name": "Ownable__NotOwner",
      "type": "error"
    },
    {
      "inputs": [],
      "name": "Ownable__NotTransitiveOwner",
      "type": "error"
    },
    {
      "anonymous": false,
      "inputs": [
        {
          "indexed": true,
          "internalType": "address",
          "name": "previousOwner",
          "type": "address"
        },
        {
          "indexed": true,
          "internalType": "address",
          "name": "newOwner",
          "type": "address"
        }
      ],
      "name": "OwnershipTransferred",
      "type": "event"
    },
    {
      "inputs": [
        {
          "internalType": "bytes",
          "name": "args",
          "type": "bytes"
        }
      ],
      "name": "execute",
      "outputs": [
        {
          "internalType": "bytes",
          "name": "",
          "type": "bytes"
        }
      ],
      "stateMutability": "nonpayable",
      "type": "function"
    },
    {
      "inputs": [
        {
          "internalType": "address",
          "name": "playerAddress",
          "type": "address"
        },
        {
          "internalType": "uint256",
          "name": "targetEntity",
          "type": "uint256"
        }
      ],
      "name": "executeTyped",
      "outputs": [
        {
          "internalType": "bytes",
          "name": "",
          "type": "bytes"
        }
      ],
      "stateMutability": "nonpayable",
      "type": "function"
    },
    {
      "inputs": [
        {
          "internalType": "address",
          "name": "playerAddress",
          "type": "address"
        },
        {
          "internalType": "uint256",
          "name": "targetEntity",
          "type": "uint256"
        },
        {
          "internalType": "uint32",
          "name": "count",
          "type": "uint32"
        }
      ],
      "name": "executeTyped",
      "outputs": [
        {
          "internalType": "bytes",
          "name": "",
          "type": "bytes"
        }
      ],
      "stateMutability": "nonpayable",
      "type": "function"
    },
    {
      "inputs": [],
      "name": "owner",
      "outputs": [
        {
          "internalType": "address",
          "name": "",
          "type": "address"
        }
      ],
      "stateMutability": "view",
      "type": "function"
    },
    {
      "inputs": [
        {
          "internalType": "address",
          "name": "account",
          "type": "address"
        }
      ],
      "name": "transferOwnership",
      "outputs": [],
      "stateMutability": "nonpayable",
      "type": "function"
    }
  ],
  "bytecode": {
    "object": "0x60806040523480156200001157600080fd5b50604051620019ca380380620019ca8339810160408190526200003491620001e0565b8181818162000043336200014d565b6001600160a01b038116156200005a5780620000bf565b816001600160a01b031663ba62fbe46040518163ffffffff1660e01b8152600401602060405180830381865afa15801562000099573d6000803e3d6000fd5b505050506040513d601f19601f82011682018060405250810190620000bf91906200021f565b600080546001600160a01b039283166001600160a01b0319918216811790925560018054938616938216841790557ff67304f10c7772c78e439bc5cb07781db345424de8878c18100fdaa64d197a87805482169093179092557ff67304f10c7772c78e439bc5cb07781db345424de8878c18100fdaa64d197a86805490921617905550505050505062000246565b7f8a22373512790c48b83a1fe2efdd2888d4a917bcdc24d0adf63e60f67168046080546040516001600160a01b038481169216907f8be0079c531659141344cd1fd0a4f28419497f9722a3daafe3b4186f6b6457e090600090a380546001600160a01b0319166001600160a01b0392909216919091179055565b6001600160a01b0381168114620001dd57600080fd5b50565b60008060408385031215620001f457600080fd5b82516200020181620001c7565b60208401519092506200021481620001c7565b809150509250929050565b6000602082840312156200023257600080fd5b81516200023f81620001c7565b9392505050565b61177480620002566000396000f3fe608060405234801561001057600080fd5b50600436106100575760003560e01c806309c5eabe1461005c5780636ad0ccab146100855780636c0b7ef7146100985780638da5cb5b146100ab578063f2fde38b146100cb575b600080fd5b61006f61006a36600461120b565b6100e0565b60405161007c91906112af565b60405180910390f35b61006f6100933660046112f7565b6108d7565b61006f6100a6366004611335565b610921565b6100b361095f565b6040516001600160a01b03909116815260200161007c565b6100de6100d9366004611377565b610997565b005b6060610182600160009054906101000a90046001600160a01b03166001600160a01b0316630d59332e6040518163ffffffff1660e01b8152600401602060405180830381865afa158015610138573d6000803e3d6000fd5b505050506040513d601f19601f8201168201806040525081019061015c919061139b565b7f57247228bbd93ac6953378fea0f421ebc4978d448f7383f1a2816e6ca6e2894d6109ed565b6001600160a01b0316336001600160a01b031614806102465750600154604080516306ac999760e11b81529051610231926001600160a01b031691630d59332e9160048083019260209291908290030181865afa1580156101e7573d6000803e3d6000fd5b505050506040513d601f19601f8201168201806040525081019061020b919061139b565b7ff39d315320cdfe464ad36c5d26133acfadb3c7e2d9a6ac9e6bb331cb612f42a86109ed565b6001600160a01b0316336001600160a01b0316145b806102f65750600154604080516306ac999760e11b815290516102e1926001600160a01b031691630d59332e9160048083019260209291908290030181865afa158015610297573d6000803e3d6000fd5b505050506040513d601f19601f820116820180604052508101906102bb919061139b565b7ff0f86309ad9868d7575233553806a27ad4e97ffdea222f19dd424afab17a95836109ed565b6001600160a01b0316336001600160a01b0316145b806103a65750600154604080516306ac999760e11b81529051610391926001600160a01b031691630d59332e9160048083019260209291908290030181865afa158015610347573d6000803e3d6000fd5b505050506040513d601f19601f8201168201806040525081019061036b919061139b565b7f28bd09651c4df21cfd0b15ebacd54447608ceb8cbd648faa47fc0f028f9a22856109ed565b6001600160a01b0316336001600160a01b0316145b806104565750600154604080516306ac999760e11b81529051610441926001600160a01b031691630d59332e9160048083019260209291908290030181865afa1580156103f7573d6000803e3d6000fd5b505050506040513d601f19601f8201168201806040525081019061041b919061139b565b7f70fd2d99c63cf9e9a219a7907c6a0bc55a0323de6daf9c9d0b03e2d7250d73d26109ed565b6001600160a01b0316336001600160a01b0316145b61050a5760405162461bcd60e51b815260206004820152606e60248201527f535f5370656e6452657175697265645265736f757263657353797374656d3a2060448201527f4f6e6c79204275696c6453797374656d2c20557067726164654275696c64696e60648201527f6753797374656d2c20526573656172636853797374656d2063616e2063616c6c60848201526d103a3434b990333ab731ba34b7b760911b60a482015260c4015b60405180910390fd5b60008060008480602001905181019061052391906113b8565b925092509250600061053b846001600160a01b031690565b6001546040516309e4fb4360e31b81527ff5bd2f5cb6567cf0fa832e8e7971a94af009d0ec1e329976b883c7ab5048827860048201529192506000916001600160a01b0390911690634f27da1890602401602060405180830381865afa1580156105a9573d6000803e3d6000fd5b505050506040513d601f19601f820116820180604052508101906105cd919061139b565b604051636667bd4760e11b8152600481018690529091506001600160a01b0382169063cccf7a8e90602401602060405180830381865afa158015610615573d6000803e3d6000fd5b505050506040513d601f19601f8201168201806040525081019061063991906113f0565b61067457604080516001600160a01b038716602082015290810185905260600160405160208183030381529060405295505050505050919050565b6040516307fa648b60e11b8152600481018590526000906001600160a01b03831690630ff4c91690602401600060405180830381865afa1580156106bc573d6000803e3d6000fd5b505050506040513d6000823e601f3d908101601f191682016040526106e4919081019061149c565b905060005b81515181101561089e57600154604080516306ac999760e11b81529051610788926001600160a01b031691630d59332e9160048083019260209291908290030181865afa15801561073e573d6000803e3d6000fd5b505050506040513d601f19601f82011682018060405250810190610762919061139b565b7fbfa4e94ac46519bd16654700fe5605b990ceb82f41218bfba1018857ba5e01c06109ed565b6001600160a01b0316636ad0ccab88846000015184815181106107ad576107ad61158e565b60200260200101516040518363ffffffff1660e01b81526004016107e69291906001600160a01b03929092168252602082015260400190565b6000604051808303816000875af1158015610805573d6000803e3d6000fd5b505050506040513d6000823e601f3d908101601f1916820160405261082d91908101906115a4565b506001548251805161088b926001600160a01b0316918791859081106108555761085561158e565b602002602001015188866020015186815181106108745761087461158e565b60200260200101516108869190611631565b610ac7565b508061089681611659565b9150506106e9565b50604080516001600160a01b03881660208201529081018690526060016040516020818303038152906040529650505050505050919050565b604080516001600160a01b0384166020820152908101829052600160608281019190915290610918906080015b6040516020818303038152906040526100e0565b90505b92915050565b604080516001600160a01b038516602082015290810183905263ffffffff82166060828101919091529061095790608001610904565b949350505050565b60006109927f8a22373512790c48b83a1fe2efdd2888d4a917bcdc24d0adf63e60f671680460546001600160a01b031690565b905090565b7f8a22373512790c48b83a1fe2efdd2888d4a917bcdc24d0adf63e60f671680460546001600160a01b031633146109e157604051632f7a8ee160e01b815260040160405180910390fd5b6109ea81610bf0565b50565b604051637defd0f560e11b81526004810182905260009081906001600160a01b0385169063fbdfa1ea90602401600060405180830381865afa158015610a37573d6000803e3d6000fd5b505050506040513d6000823e601f3d908101601f19168201604052610a5f9190810190611672565b90508051600003610aa65760405162461bcd60e51b81526020600482015260116024820152701a59081b9bdd081c9959da5cdd195c9959607a1b6044820152606401610501565b61095781600081518110610abc57610abc61158e565b602002602001015190565b6040516309e4fb4360e31b81527ffba48a04766694c16713a414735f83be9cb20bbb29b5e18846cc8f1510640845600482015260009081906001600160a01b03871690634f27da1890602401602060405180830381865afa158015610b30573d6000803e3d6000fd5b505050506040513d601f19601f82011682018060405250810190610b54919061139b565b604080516020808201889052818301899052825180830384018152606090920190925280519101209091506000610b8b8383610bf9565b90508463ffffffff168163ffffffff161115610bcd57610bc188888888610bb28888610bf9565b610bbc91906116a7565b610cd9565b60009350505050610957565b610bda8888886000610cd9565b610be481866116a7565b98975050505050505050565b6109ea81611019565b604051636667bd4760e11b8152600481018290526000906001600160a01b0384169063cccf7a8e90602401602060405180830381865afa158015610c41573d6000803e3d6000fd5b505050506040513d601f19601f82011682018060405250810190610c6591906113f0565b610c70576000610918565b6040516307fa648b60e11b8152600481018390526001600160a01b03841690630ff4c91690602401602060405180830381865afa158015610cb5573d6000803e3d6000fd5b505050506040513d601f19601f8201168201806040525081019061091891906116cb565b6040516309e4fb4360e31b81527ffba48a04766694c16713a414735f83be9cb20bbb29b5e18846cc8f151064084560048201526000906001600160a01b03861690634f27da1890602401602060405180830381865afa158015610d40573d6000803e3d6000fd5b505050506040513d601f19601f82011682018060405250810190610d64919061139b565b6040516309e4fb4360e31b81527f8d5746953402e95fa35ce71ddaa7efe7922c48a307985b7d64ea3f27abcb14f960048201529091506000906001600160a01b03871690634f27da1890602401602060405180830381865afa158015610dce573d6000803e3d6000fd5b505050506040513d601f19601f82011682018060405250810190610df2919061139b565b604080516020808201889052818301899052825180830384018152606090920190925280519101209091506000610e298483610bf9565b90506000610e378489611093565b6040516309e4fb4360e31b81527fd9603ec917f4576302b3c02b1fa235f8e01465fbf139aba994a05da60796f53e6004820152909150600090610ecf906001600160a01b038c1690634f27da1890602401602060405180830381865afa158015610ea5573d6000803e3d6000fd5b505050506040513d601f19601f82011682018060405250810190610ec9919061139b565b89611093565b90508263ffffffff168763ffffffff161015610f1d57610eef87846116a7565b610eff9063ffffffff16826116e8565b905081811115610f0c5750805b610f1681836116ff565b9150610f46565b610f2783886116a7565b610f379063ffffffff16826116e8565b9050610f438183611712565b91505b604051631ab06ee560e01b8152600481018a9052602481018390526001600160a01b03861690631ab06ee590604401600060405180830381600087803b158015610f8f57600080fd5b505af1158015610fa3573d6000803e3d6000fd5b5050604051633648f0f160e21b81526004810187905263ffffffff8a1660248201526001600160a01b038916925063d923c3c49150604401600060405180830381600087803b158015610ff557600080fd5b505af1158015611009573d6000803e3d6000fd5b5050505050505050505050505050565b7f8a22373512790c48b83a1fe2efdd2888d4a917bcdc24d0adf63e60f67168046080546040516001600160a01b038481169216907f8be0079c531659141344cd1fd0a4f28419497f9722a3daafe3b4186f6b6457e090600090a380546001600160a01b0319166001600160a01b0392909216919091179055565b604051636667bd4760e11b8152600481018290526000906001600160a01b0384169063cccf7a8e90602401602060405180830381865afa1580156110db573d6000803e3d6000fd5b505050506040513d601f19601f820116820180604052508101906110ff91906113f0565b61110a576000610918565b6040516307fa648b60e11b8152600481018390526001600160a01b03841690630ff4c91690602401602060405180830381865afa15801561114f573d6000803e3d6000fd5b505050506040513d601f19601f820116820180604052508101906109189190611725565b634e487b7160e01b600052604160045260246000fd5b6040805190810167ffffffffffffffff811182821017156111ac576111ac611173565b60405290565b604051601f8201601f1916810167ffffffffffffffff811182821017156111db576111db611173565b604052919050565b600067ffffffffffffffff8211156111fd576111fd611173565b50601f01601f191660200190565b60006020828403121561121d57600080fd5b813567ffffffffffffffff81111561123457600080fd5b8201601f8101841361124557600080fd5b8035611258611253826111e3565b6111b2565b81815285602083850101111561126d57600080fd5b81602084016020830137600091810160200191909152949350505050565b60005b838110156112a657818101518382015260200161128e565b50506000910152565b60208152600082518060208401526112ce81604085016020870161128b565b601f01601f19169190910160400192915050565b6001600160a01b03811681146109ea57600080fd5b6000806040838503121561130a57600080fd5b8235611315816112e2565b946020939093013593505050565b63ffffffff811681146109ea57600080fd5b60008060006060848603121561134a57600080fd5b8335611355816112e2565b925060208401359150604084013561136c81611323565b809150509250925092565b60006020828403121561138957600080fd5b8135611394816112e2565b9392505050565b6000602082840312156113ad57600080fd5b8151611394816112e2565b6000806000606084860312156113cd57600080fd5b83516113d8816112e2565b60208501516040860151919450925061136c81611323565b60006020828403121561140257600080fd5b8151801515811461139457600080fd5b600067ffffffffffffffff82111561142c5761142c611173565b5060051b60200190565b600082601f83011261144757600080fd5b8151602061145761125383611412565b82815260059290921b8401810191818101908684111561147657600080fd5b8286015b84811015611491578051835291830191830161147a565b509695505050505050565b600060208083850312156114af57600080fd5b825167ffffffffffffffff808211156114c757600080fd5b90840190604082870312156114db57600080fd5b6114e3611189565b8251828111156114f257600080fd5b6114fe88828601611436565b825250838301518281111561151257600080fd5b80840193505086601f84011261152757600080fd5b8251915061153761125383611412565b82815260059290921b8301840191848101908884111561155657600080fd5b938501935b8385101561157d57845161156e81611323565b8252938501939085019061155b565b948201949094529695505050505050565b634e487b7160e01b600052603260045260246000fd5b6000602082840312156115b657600080fd5b815167ffffffffffffffff8111156115cd57600080fd5b8201601f810184136115de57600080fd5b80516115ec611253826111e3565b81815285602083850101111561160157600080fd5b61161282602083016020860161128b565b95945050505050565b634e487b7160e01b600052601160045260246000fd5b63ffffffff8181168382160280821691908281146116515761165161161b565b505092915050565b60006001820161166b5761166b61161b565b5060010190565b60006020828403121561168457600080fd5b815167ffffffffffffffff81111561169b57600080fd5b61095784828501611436565b63ffffffff8281168282160390808211156116c4576116c461161b565b5092915050565b6000602082840312156116dd57600080fd5b815161139481611323565b808202811582820484141761091b5761091b61161b565b8181038181111561091b5761091b61161b565b8082018082111561091b5761091b61161b565b60006020828403121561173757600080fd5b505191905056fea2646970667358221220e8347ef7ef599e868d1599f879bfe2fa9332ec4bc7c9e6daa511d3f38b037a6d64736f6c63430008130033",
    "linkReferences": {}
  },
  "methodIdentifiers": {
    "execute(bytes)": "09c5eabe",
    "executeTyped(address,uint256)": "6ad0ccab",
    "executeTyped(address,uint256,uint32)": "6c0b7ef7",
    "owner()": "8da5cb5b",
    "transferOwnership(address)": "f2fde38b"
  },
  "id": 208
}