{
  "abi": [
    {
      "inputs": [
        {
          "internalType": "contract IWorld",
          "name": "_world",
          "type": "address"
        },
        {
          "internalType": "address",
          "name": "_components",
          "type": "address"
        }
      ],
      "stateMutability": "nonpayable",
      "type": "constructor"
    },
    {
      "inputs": [],
      "name": "Ownable__NotOwner",
      "type": "error"
    },
    {
      "inputs": [],
      "name": "Ownable__NotTransitiveOwner",
      "type": "error"
    },
    {
      "anonymous": false,
      "inputs": [
        {
          "indexed": true,
          "internalType": "address",
          "name": "previousOwner",
          "type": "address"
        },
        {
          "indexed": true,
          "internalType": "address",
          "name": "newOwner",
          "type": "address"
        }
      ],
      "name": "OwnershipTransferred",
      "type": "event"
    },
    {
      "inputs": [
        {
          "internalType": "bytes",
          "name": "args",
          "type": "bytes"
        }
      ],
      "name": "execute",
      "outputs": [
        {
          "internalType": "bytes",
          "name": "",
          "type": "bytes"
        }
      ],
      "stateMutability": "nonpayable",
      "type": "function"
    },
    {
      "inputs": [
        {
          "internalType": "address",
          "name": "playerAddress",
          "type": "address"
        },
        {
          "internalType": "uint256",
          "name": "targetEntity",
          "type": "uint256"
        }
      ],
      "name": "executeTyped",
      "outputs": [
        {
          "internalType": "bytes",
          "name": "",
          "type": "bytes"
        }
      ],
      "stateMutability": "nonpayable",
      "type": "function"
    },
    {
      "inputs": [
        {
          "internalType": "address",
          "name": "playerAddress",
          "type": "address"
        },
        {
          "internalType": "uint256",
          "name": "targetEntity",
          "type": "uint256"
        },
        {
          "internalType": "uint32",
          "name": "count",
          "type": "uint32"
        }
      ],
      "name": "executeTyped",
      "outputs": [
        {
          "internalType": "bytes",
          "name": "",
          "type": "bytes"
        }
      ],
      "stateMutability": "nonpayable",
      "type": "function"
    },
    {
      "inputs": [],
      "name": "owner",
      "outputs": [
        {
          "internalType": "address",
          "name": "",
          "type": "address"
        }
      ],
      "stateMutability": "view",
      "type": "function"
    },
    {
      "inputs": [
        {
          "internalType": "address",
          "name": "account",
          "type": "address"
        }
      ],
      "name": "transferOwnership",
      "outputs": [],
      "stateMutability": "nonpayable",
      "type": "function"
    }
  ],
  "bytecode": {
    "object": "0x60806040523480156200001157600080fd5b5060405162001f8738038062001f878339810160408190526200003491620001e0565b8181818162000043336200014d565b6001600160a01b038116156200005a5780620000bf565b816001600160a01b031663ba62fbe46040518163ffffffff1660e01b8152600401602060405180830381865afa15801562000099573d6000803e3d6000fd5b505050506040513d601f19601f82011682018060405250810190620000bf91906200021f565b600080546001600160a01b039283166001600160a01b0319918216811790925560018054938616938216841790557ff67304f10c7772c78e439bc5cb07781db345424de8878c18100fdaa64d197a87805482169093179092557ff67304f10c7772c78e439bc5cb07781db345424de8878c18100fdaa64d197a86805490921617905550505050505062000246565b7f8a22373512790c48b83a1fe2efdd2888d4a917bcdc24d0adf63e60f67168046080546040516001600160a01b038481169216907f8be0079c531659141344cd1fd0a4f28419497f9722a3daafe3b4186f6b6457e090600090a380546001600160a01b0319166001600160a01b0392909216919091179055565b6001600160a01b0381168114620001dd57600080fd5b50565b60008060408385031215620001f457600080fd5b82516200020181620001c7565b60208401519092506200021481620001c7565b809150509250929050565b6000602082840312156200023257600080fd5b81516200023f81620001c7565b9392505050565b611d3180620002566000396000f3fe608060405234801561001057600080fd5b50600436106100675760003560e01c80636c0b7ef7116100505780636c0b7ef7146100a85780638da5cb5b146100bb578063f2fde38b146100e857600080fd5b806309c5eabe1461006c5780636ad0ccab14610095575b600080fd5b61007f61007a36600461174c565b6100fd565b60405161008c91906117f0565b60405180910390f35b61007f6100a3366004611863565b610cad565b61007f6100b63660046118a1565b610d04565b6100c3610d4f565b60405173ffffffffffffffffffffffffffffffffffffffff909116815260200161008c565b6100fb6100f63660046118e3565b610d94565b005b60606101b9600160009054906101000a900473ffffffffffffffffffffffffffffffffffffffff1673ffffffffffffffffffffffffffffffffffffffff16630d59332e6040518163ffffffff1660e01b8152600401602060405180830381865afa15801561016f573d6000803e3d6000fd5b505050506040513d601f19601f820116820180604052508101906101939190611907565b7f57247228bbd93ac6953378fea0f421ebc4978d448f7383f1a2816e6ca6e2894d610e10565b73ffffffffffffffffffffffffffffffffffffffff163373ffffffffffffffffffffffffffffffffffffffff1614806102d75750600154604080517f0d59332e00000000000000000000000000000000000000000000000000000000815290516102a89273ffffffffffffffffffffffffffffffffffffffff1691630d59332e9160048083019260209291908290030181865afa15801561025e573d6000803e3d6000fd5b505050506040513d601f19601f820116820180604052508101906102829190611907565b7ff39d315320cdfe464ad36c5d26133acfadb3c7e2d9a6ac9e6bb331cb612f42a8610e10565b73ffffffffffffffffffffffffffffffffffffffff163373ffffffffffffffffffffffffffffffffffffffff16145b806103c75750600154604080517f0d59332e00000000000000000000000000000000000000000000000000000000815290516103989273ffffffffffffffffffffffffffffffffffffffff1691630d59332e9160048083019260209291908290030181865afa15801561034e573d6000803e3d6000fd5b505050506040513d601f19601f820116820180604052508101906103729190611907565b7ff0f86309ad9868d7575233553806a27ad4e97ffdea222f19dd424afab17a9583610e10565b73ffffffffffffffffffffffffffffffffffffffff163373ffffffffffffffffffffffffffffffffffffffff16145b806104b75750600154604080517f0d59332e00000000000000000000000000000000000000000000000000000000815290516104889273ffffffffffffffffffffffffffffffffffffffff1691630d59332e9160048083019260209291908290030181865afa15801561043e573d6000803e3d6000fd5b505050506040513d601f19601f820116820180604052508101906104629190611907565b7f28bd09651c4df21cfd0b15ebacd54447608ceb8cbd648faa47fc0f028f9a2285610e10565b73ffffffffffffffffffffffffffffffffffffffff163373ffffffffffffffffffffffffffffffffffffffff16145b806105a75750600154604080517f0d59332e00000000000000000000000000000000000000000000000000000000815290516105789273ffffffffffffffffffffffffffffffffffffffff1691630d59332e9160048083019260209291908290030181865afa15801561052e573d6000803e3d6000fd5b505050506040513d601f19601f820116820180604052508101906105529190611907565b7f70fd2d99c63cf9e9a219a7907c6a0bc55a0323de6daf9c9d0b03e2d7250d73d2610e10565b73ffffffffffffffffffffffffffffffffffffffff163373ffffffffffffffffffffffffffffffffffffffff16145b610684576040517f08c379a000000000000000000000000000000000000000000000000000000000815260206004820152606e60248201527f535f5370656e6452657175697265645265736f757263657353797374656d3a2060448201527f4f6e6c79204275696c6453797374656d2c20557067726164654275696c64696e60648201527f6753797374656d2c20526573656172636853797374656d2063616e2063616c6c60848201527f20746869732066756e6374696f6e00000000000000000000000000000000000060a482015260c4015b60405180910390fd5b60008060008480602001905181019061069d9190611924565b92509250925060006106c28473ffffffffffffffffffffffffffffffffffffffff1690565b6001546040517f4f27da180000000000000000000000000000000000000000000000000000000081527ff5bd2f5cb6567cf0fa832e8e7971a94af009d0ec1e329976b883c7ab50488278600482015291925060009173ffffffffffffffffffffffffffffffffffffffff90911690634f27da1890602401602060405180830381865afa158015610756573d6000803e3d6000fd5b505050506040513d601f19601f8201168201806040525081019061077a9190611907565b6001546040517f4f27da180000000000000000000000000000000000000000000000000000000081527ffba48a04766694c16713a414735f83be9cb20bbb29b5e18846cc8f1510640845600482015291925060009173ffffffffffffffffffffffffffffffffffffffff90911690634f27da1890602401602060405180830381865afa15801561080e573d6000803e3d6000fd5b505050506040513d601f19601f820116820180604052508101906108329190611907565b6040517fcccf7a8e0000000000000000000000000000000000000000000000000000000081526004810187905290915073ffffffffffffffffffffffffffffffffffffffff83169063cccf7a8e90602401602060405180830381865afa1580156108a0573d6000803e3d6000fd5b505050506040513d601f19601f820116820180604052508101906108c4919061195c565b61091e576040805173ffffffffffffffffffffffffffffffffffffffff88166020820152908101869052606001604080517fffffffffffffffffffffffffffffffffffffffffffffffffffffffffffffffe0818403019052525b6040517f0ff4c9160000000000000000000000000000000000000000000000000000000081526004810186905260009073ffffffffffffffffffffffffffffffffffffffff841690630ff4c91690602401600060405180830381865afa15801561098c573d6000803e3d6000fd5b505050506040513d6000823e601f3d9081017fffffffffffffffffffffffffffffffffffffffffffffffffffffffffffffffe01682016040526109d29190810190611a08565b905060005b815151811015610c66576000610a31836000015183815181106109fc576109fc611afa565b602002602001015187604080516020808201949094528082019290925280518083038201815260609092019052805191012090565b9050610aed600160009054906101000a900473ffffffffffffffffffffffffffffffffffffffff1673ffffffffffffffffffffffffffffffffffffffff16630d59332e6040518163ffffffff1660e01b8152600401602060405180830381865afa158015610aa3573d6000803e3d6000fd5b505050506040513d601f19601f82011682018060405250810190610ac79190611907565b7fbfa4e94ac46519bd16654700fe5605b990ceb82f41218bfba1018857ba5e01c0610e10565b73ffffffffffffffffffffffffffffffffffffffff16636ad0ccab8a85600001518581518110610b1f57610b1f611afa565b60200260200101516040518363ffffffff1660e01b8152600401610b6592919073ffffffffffffffffffffffffffffffffffffffff929092168252602082015260400190565b6000604051808303816000875af1158015610b84573d6000803e3d6000fd5b505050506040513d6000823e601f3d9081017fffffffffffffffffffffffffffffffffffffffffffffffffffffffffffffffe0168201604052610bca9190810190611b29565b506000610bd78583610f54565b60015485518051929350610c519273ffffffffffffffffffffffffffffffffffffffff909216918a919087908110610c1157610c11611afa565b60200260200101518b88602001518881518110610c3057610c30611afa565b6020026020010151610c429190611bcf565b610c4c9086611bf7565b611080565b50508080610c5e90611c1b565b9150506109d7565b506040805173ffffffffffffffffffffffffffffffffffffffff89166020820152908101879052606001604051602081830303815290604052975050505050505050919050565b6040805173ffffffffffffffffffffffffffffffffffffffff84166020820152908101829052600160608281019190915290610cfb906080015b6040516020818303038152906040526100fd565b90505b92915050565b6040805173ffffffffffffffffffffffffffffffffffffffff8516602082015290810183905263ffffffff821660608281019190915290610d4790608001610ce7565b949350505050565b6000610d8f7f8a22373512790c48b83a1fe2efdd2888d4a917bcdc24d0adf63e60f6716804605473ffffffffffffffffffffffffffffffffffffffff1690565b905090565b7f8a22373512790c48b83a1fe2efdd2888d4a917bcdc24d0adf63e60f6716804605473ffffffffffffffffffffffffffffffffffffffff163314610e04576040517f2f7a8ee100000000000000000000000000000000000000000000000000000000815260040160405180910390fd5b610e0d8161147e565b50565b6040517ffbdfa1ea00000000000000000000000000000000000000000000000000000000815260048101829052600090819073ffffffffffffffffffffffffffffffffffffffff85169063fbdfa1ea90602401600060405180830381865afa158015610e80573d6000803e3d6000fd5b505050506040513d6000823e601f3d9081017fffffffffffffffffffffffffffffffffffffffffffffffffffffffffffffffe0168201604052610ec69190810190611c53565b90508051600003610f33576040517f08c379a000000000000000000000000000000000000000000000000000000000815260206004820152601160248201527f6964206e6f742072656769737465726564000000000000000000000000000000604482015260640161067b565b610d4781600081518110610f4957610f49611afa565b602002602001015190565b6040517fcccf7a8e0000000000000000000000000000000000000000000000000000000081526004810182905260009073ffffffffffffffffffffffffffffffffffffffff84169063cccf7a8e90602401602060405180830381865afa158015610fc2573d6000803e3d6000fd5b505050506040513d601f19601f82011682018060405250810190610fe6919061195c565b610ff1576000610cfb565b6040517f0ff4c9160000000000000000000000000000000000000000000000000000000081526004810183905273ffffffffffffffffffffffffffffffffffffffff841690630ff4c91690602401602060405180830381865afa15801561105c573d6000803e3d6000fd5b505050506040513d601f19601f82011682018060405250810190610cfb9190611c88565b6040517f4f27da180000000000000000000000000000000000000000000000000000000081527ffba48a04766694c16713a414735f83be9cb20bbb29b5e18846cc8f1510640845600482015260009073ffffffffffffffffffffffffffffffffffffffff861690634f27da1890602401602060405180830381865afa15801561110d573d6000803e3d6000fd5b505050506040513d601f19601f820116820180604052508101906111319190611907565b6040517f4f27da180000000000000000000000000000000000000000000000000000000081527f8d5746953402e95fa35ce71ddaa7efe7922c48a307985b7d64ea3f27abcb14f9600482015290915060009073ffffffffffffffffffffffffffffffffffffffff871690634f27da1890602401602060405180830381865afa1580156111c1573d6000803e3d6000fd5b505050506040513d601f19601f820116820180604052508101906111e59190611907565b60408051602080820188905281830189905282518083038401815260609092019092528051910120909150600061121c8483610f54565b9050600061122a8489611487565b6040517f4f27da180000000000000000000000000000000000000000000000000000000081527fd9603ec917f4576302b3c02b1fa235f8e01465fbf139aba994a05da60796f53e60048201529091506000906112e89073ffffffffffffffffffffffffffffffffffffffff8c1690634f27da1890602401602060405180830381865afa1580156112be573d6000803e3d6000fd5b505050506040513d601f19601f820116820180604052508101906112e29190611907565b89611487565b90508263ffffffff168763ffffffff161015611336576113088784611bf7565b6113189063ffffffff1682611ca5565b9050818111156113255750805b61132f8183611cbc565b915061135f565b6113408388611bf7565b6113509063ffffffff1682611ca5565b905061135c8183611ccf565b91505b6040517f1ab06ee5000000000000000000000000000000000000000000000000000000008152600481018a90526024810183905273ffffffffffffffffffffffffffffffffffffffff861690631ab06ee590604401600060405180830381600087803b1580156113ce57600080fd5b505af11580156113e2573d6000803e3d6000fd5b50506040517fd923c3c40000000000000000000000000000000000000000000000000000000081526004810187905263ffffffff8a16602482015273ffffffffffffffffffffffffffffffffffffffff8916925063d923c3c49150604401600060405180830381600087803b15801561145a57600080fd5b505af115801561146e573d6000803e3d6000fd5b5050505050505050505050505050565b610e0d816115b3565b6040517fcccf7a8e0000000000000000000000000000000000000000000000000000000081526004810182905260009073ffffffffffffffffffffffffffffffffffffffff84169063cccf7a8e90602401602060405180830381865afa1580156114f5573d6000803e3d6000fd5b505050506040513d601f19601f82011682018060405250810190611519919061195c565b611524576000610cfb565b6040517f0ff4c9160000000000000000000000000000000000000000000000000000000081526004810183905273ffffffffffffffffffffffffffffffffffffffff841690630ff4c91690602401602060405180830381865afa15801561158f573d6000803e3d6000fd5b505050506040513d601f19601f82011682018060405250810190610cfb9190611ce2565b7f8a22373512790c48b83a1fe2efdd2888d4a917bcdc24d0adf63e60f671680460805460405173ffffffffffffffffffffffffffffffffffffffff8481169216907f8be0079c531659141344cd1fd0a4f28419497f9722a3daafe3b4186f6b6457e090600090a380547fffffffffffffffffffffffff00000000000000000000000000000000000000001673ffffffffffffffffffffffffffffffffffffffff92909216919091179055565b7f4e487b7100000000000000000000000000000000000000000000000000000000600052604160045260246000fd5b6040805190810167ffffffffffffffff811182821017156116b1576116b161165f565b60405290565b604051601f82017fffffffffffffffffffffffffffffffffffffffffffffffffffffffffffffffe016810167ffffffffffffffff811182821017156116fe576116fe61165f565b604052919050565b600067ffffffffffffffff8211156117205761172061165f565b50601f017fffffffffffffffffffffffffffffffffffffffffffffffffffffffffffffffe01660200190565b60006020828403121561175e57600080fd5b813567ffffffffffffffff81111561177557600080fd5b8201601f8101841361178657600080fd5b803561179961179482611706565b6116b7565b8181528560208385010111156117ae57600080fd5b81602084016020830137600091810160200191909152949350505050565b60005b838110156117e75781810151838201526020016117cf565b50506000910152565b602081526000825180602084015261180f8160408501602087016117cc565b601f017fffffffffffffffffffffffffffffffffffffffffffffffffffffffffffffffe0169190910160400192915050565b73ffffffffffffffffffffffffffffffffffffffff81168114610e0d57600080fd5b6000806040838503121561187657600080fd5b823561188181611841565b946020939093013593505050565b63ffffffff81168114610e0d57600080fd5b6000806000606084860312156118b657600080fd5b83356118c181611841565b92506020840135915060408401356118d88161188f565b809150509250925092565b6000602082840312156118f557600080fd5b813561190081611841565b9392505050565b60006020828403121561191957600080fd5b815161190081611841565b60008060006060848603121561193957600080fd5b835161194481611841565b6020850151604086015191945092506118d88161188f565b60006020828403121561196e57600080fd5b8151801515811461190057600080fd5b600067ffffffffffffffff8211156119985761199861165f565b5060051b60200190565b600082601f8301126119b357600080fd5b815160206119c36117948361197e565b82815260059290921b840181019181810190868411156119e257600080fd5b8286015b848110156119fd57805183529183019183016119e6565b509695505050505050565b60006020808385031215611a1b57600080fd5b825167ffffffffffffffff80821115611a3357600080fd5b9084019060408287031215611a4757600080fd5b611a4f61168e565b825182811115611a5e57600080fd5b611a6a888286016119a2565b8252508383015182811115611a7e57600080fd5b80840193505086601f840112611a9357600080fd5b82519150611aa36117948361197e565b82815260059290921b83018401918481019088841115611ac257600080fd5b938501935b83851015611ae9578451611ada8161188f565b82529385019390850190611ac7565b948201949094529695505050505050565b7f4e487b7100000000000000000000000000000000000000000000000000000000600052603260045260246000fd5b600060208284031215611b3b57600080fd5b815167ffffffffffffffff811115611b5257600080fd5b8201601f81018413611b6357600080fd5b8051611b7161179482611706565b818152856020838501011115611b8657600080fd5b611b978260208301602086016117cc565b95945050505050565b7f4e487b7100000000000000000000000000000000000000000000000000000000600052601160045260246000fd5b63ffffffff818116838216028082169190828114611bef57611bef611ba0565b505092915050565b63ffffffff828116828216039080821115611c1457611c14611ba0565b5092915050565b60007fffffffffffffffffffffffffffffffffffffffffffffffffffffffffffffffff8203611c4c57611c4c611ba0565b5060010190565b600060208284031215611c6557600080fd5b815167ffffffffffffffff811115611c7c57600080fd5b610d47848285016119a2565b600060208284031215611c9a57600080fd5b81516119008161188f565b8082028115828204841417610cfe57610cfe611ba0565b81810381811115610cfe57610cfe611ba0565b80820180821115610cfe57610cfe611ba0565b600060208284031215611cf457600080fd5b505191905056fea2646970667358221220a7cda3dd8b38cacba58f0692ec16a013e199bcf48fd2ed3ff689467a710a52df64736f6c63430008130033",
    "linkReferences": {}
  },
  "methodIdentifiers": {
    "execute(bytes)": "09c5eabe",
    "executeTyped(address,uint256)": "6ad0ccab",
    "executeTyped(address,uint256,uint32)": "6c0b7ef7",
    "owner()": "8da5cb5b",
    "transferOwnership(address)": "f2fde38b"
  },
  "id": 196
}