{
  "abi": [
    {
      "inputs": [
        {
          "internalType": "contract IWorld",
          "name": "_world",
          "type": "address"
        },
        {
          "internalType": "address",
          "name": "_components",
          "type": "address"
        }
      ],
      "stateMutability": "nonpayable",
      "type": "constructor"
    },
    {
      "inputs": [],
      "name": "Ownable__NotOwner",
      "type": "error"
    },
    {
      "inputs": [],
      "name": "Ownable__NotTransitiveOwner",
      "type": "error"
    },
    {
      "anonymous": false,
      "inputs": [
        {
          "indexed": true,
          "internalType": "address",
          "name": "previousOwner",
          "type": "address"
        },
        {
          "indexed": true,
          "internalType": "address",
          "name": "newOwner",
          "type": "address"
        }
      ],
      "name": "OwnershipTransferred",
      "type": "event"
    },
    {
      "inputs": [
        {
          "internalType": "bytes",
          "name": "args",
          "type": "bytes"
        }
      ],
      "name": "execute",
      "outputs": [
        {
          "internalType": "bytes",
          "name": "",
          "type": "bytes"
        }
      ],
      "stateMutability": "nonpayable",
      "type": "function"
    },
    {
      "inputs": [
        {
          "components": [
            {
              "internalType": "uint256",
              "name": "unitType",
              "type": "uint256"
            },
            {
              "internalType": "uint32",
              "name": "count",
              "type": "uint32"
            }
          ],
          "internalType": "struct ArrivalUnit[]",
          "name": "arrivalUnits",
          "type": "tuple[]"
        },
        {
          "internalType": "enum ESendType",
          "name": "sendType",
          "type": "uint8"
        },
        {
          "components": [
            {
              "internalType": "int32",
              "name": "x",
              "type": "int32"
            },
            {
              "internalType": "int32",
              "name": "y",
              "type": "int32"
            },
            {
              "internalType": "uint256",
              "name": "parent",
              "type": "uint256"
            }
          ],
          "internalType": "struct Coord",
          "name": "origin",
          "type": "tuple"
        },
        {
          "components": [
            {
              "internalType": "int32",
              "name": "x",
              "type": "int32"
            },
            {
              "internalType": "int32",
              "name": "y",
              "type": "int32"
            },
            {
              "internalType": "uint256",
              "name": "parent",
              "type": "uint256"
            }
          ],
          "internalType": "struct Coord",
          "name": "destination",
          "type": "tuple"
        },
        {
          "internalType": "uint256",
          "name": "to",
          "type": "uint256"
        }
      ],
      "name": "executeTyped",
      "outputs": [
        {
          "internalType": "bytes",
          "name": "",
          "type": "bytes"
        }
      ],
      "stateMutability": "nonpayable",
      "type": "function"
    },
    {
      "inputs": [],
      "name": "owner",
      "outputs": [
        {
          "internalType": "address",
          "name": "",
          "type": "address"
        }
      ],
      "stateMutability": "view",
      "type": "function"
    },
    {
      "inputs": [
        {
          "internalType": "address",
          "name": "account",
          "type": "address"
        }
      ],
      "name": "transferOwnership",
      "outputs": [],
      "stateMutability": "nonpayable",
      "type": "function"
    }
  ],
  "bytecode": {
    "object": "0x60806040523480156200001157600080fd5b50604051620047ae380380620047ae8339810160408190526200003491620001e0565b8181818162000043336200014d565b6001600160a01b038116156200005a5780620000bf565b816001600160a01b031663ba62fbe46040518163ffffffff1660e01b8152600401602060405180830381865afa15801562000099573d6000803e3d6000fd5b505050506040513d601f19601f82011682018060405250810190620000bf91906200021f565b600080546001600160a01b039283166001600160a01b0319918216811790925560018054938616938216841790557ff67304f10c7772c78e439bc5cb07781db345424de8878c18100fdaa64d197a87805482169093179092557ff67304f10c7772c78e439bc5cb07781db345424de8878c18100fdaa64d197a86805490921617905550505050505062000246565b7f8a22373512790c48b83a1fe2efdd2888d4a917bcdc24d0adf63e60f67168046080546040516001600160a01b038481169216907f8be0079c531659141344cd1fd0a4f28419497f9722a3daafe3b4186f6b6457e090600090a380546001600160a01b0319166001600160a01b0392909216919091179055565b6001600160a01b0381168114620001dd57600080fd5b50565b60008060408385031215620001f457600080fd5b82516200020181620001c7565b60208401519092506200021481620001c7565b809150509250929050565b6000602082840312156200023257600080fd5b81516200023f81620001c7565b9392505050565b61455880620002566000396000f3fe608060405234801561001057600080fd5b506004361061004c5760003560e01c806309c5eabe146100515780638da5cb5b1461007a578063b56abf971461009a578063f2fde38b146100ad575b600080fd5b61006461005f3660046134cd565b6100c2565b6040516100719190613571565b60405180910390f35b61008261076d565b6040516001600160a01b039091168152602001610071565b6100646100a8366004613619565b6107a5565b6100c06100bb3660046136e0565b610863565b005b60606000828060200190518101906100da91906137c5565b905060006101077ffd0400b15deb1a9f87a3f641204c00e430386b3fcc3c180875148d6c204290986108b9565b905060006101347f3c9e6dae60821f1b0c1ab743344cc227a021afc69723580e6bb147ad39ca09bc6108b9565b90506000816001600160a01b0316630ff4c9166101718660600151805160209182015167ffffffff000000009190921b1663ffffffff9091161790565b6040518263ffffffff1660e01b815260040161018f91815260200190565b602060405180830381865afa1580156101ac573d6000803e3d6000fd5b505050506040513d601f19601f820116820180604052508101906101d091906138d3565b6080850151604051636667bd4760e11b81529192506001600160a01b0385169163cccf7a8e916102069160040190815260200190565b602060405180830381865afa158015610223573d6000803e3d6000fd5b505050506040513d601f19601f8201168201806040525081019061024791906138ec565b1561035557610255336108d6565b61027e7faf90be6cd7aa92d6569a9ae629178b74e1b0fbdd1097c27ec1dfffd2dc4c75406108b9565b6001600160a01b0316630ff4c916836040518263ffffffff1660e01b81526004016102ab91815260200190565b602060405180830381865afa1580156102c8573d6000803e3d6000fd5b505050506040513d601f19601f820116820180604052508101906102ec91906138d3565b146103555760405162461bcd60e51b815260206004820152602e60248201527f796f752063616e6e6f742073656e6420756e69747320746f2061206e6f6e207060448201526d6572736f6e616c2070697261746560901b60648201526084015b60405180910390fd5b604084015180516020918201516000926001600160a01b03861692630ff4c9169263ffffffff16911b67ffffffff0000000016176040518263ffffffff1660e01b81526004016103a791815260200190565b602060405180830381865afa1580156103c4573d6000803e3d6000fd5b505050506040513d601f19601f820116820180604052508101906103e891906138d3565b905061048a600160009054906101000a90046001600160a01b03166001600160a01b0316630d59332e6040518163ffffffff1660e01b8152600401602060405180830381865afa158015610440573d6000803e3d6000fd5b505050506040513d601f19601f82011682018060405250810190610464919061390e565b7f23f1f9079cb71316c5eb52dd7b962c701570062c868964f0a09f40cb1f882281610900565b604051636ad0ccab60e01b8152336004820152602481018390526001600160a01b039190911690636ad0ccab906044016000604051808303816000875af11580156104d9573d6000803e3d6000fd5b505050506040513d6000823e601f3d908101601f19168201604052610501919081019061392b565b50826001600160a01b031663cccf7a8e61053b8760600151805160209182015167ffffffff000000009190921b1663ffffffff9091161790565b6040518263ffffffff1660e01b815260040161055991815260200190565b602060405180830381865afa158015610576573d6000803e3d6000fd5b505050506040513d601f19601f8201168201806040525081019061059a91906138ec565b6105bb5760015460608601516105b9916001600160a01b0316906109e2565b505b60003390506105d582848389608001518a60200151610efd565b6000805b8751518110156106a55787518051829081106105f7576105f7613999565b60200260200101516020015163ffffffff16600003156106935761068e61063d7f8bd637b568ed540cabc10b49a9f3688fe5b7e4b706298b6cd07c2e1ed5600e936108b9565b6106698a60000151848151811061065657610656613999565b602002602001015160000151868861186e565b8a5180518590811061067d5761067d613999565b6020026020010151602001516118a7565b600191505b8061069d816139c5565b9150506105d9565b506001546040880151606089015189516000936106d1936001600160a01b03909116929091879061198d565b905060006040518060e001604052808a6020015160028111156106f6576106f66139de565b81528a51602082015260408101849052606081018690526080808c01519082015260a0810187905260c00187905260015490915061073d906001600160a01b031682611bf0565b8060405160200161074e9190613ab8565b6040516020818303038152906040529950505050505050505050919050565b60006107a07f8a22373512790c48b83a1fe2efdd2888d4a917bcdc24d0adf63e60f671680460546001600160a01b031690565b905090565b60606108586040518060a001604052808989808060200260200160405190810160405280939291908181526020016000905b82821015610803576107f460408302860136819003810190613acb565b815260200190600101906107d7565b5050505050815260200187600281111561081f5761081f6139de565b8152602001868152602001858152602001848152506040516020016108449190613b03565b6040516020818303038152906040526100c2565b979650505050505050565b7f8a22373512790c48b83a1fe2efdd2888d4a917bcdc24d0adf63e60f671680460546001600160a01b031633146108ad57604051632f7a8ee160e01b815260040160405180910390fd5b6108b681611cdf565b50565b600080546108d0906001600160a01b031683610900565b92915050565b60006108d06040518060400160405280600681526020016570697261746560d01b81525083611ce8565b604051637defd0f560e11b81526004810182905260009081906001600160a01b0385169063fbdfa1ea90602401600060405180830381865afa15801561094a573d6000803e3d6000fd5b505050506040513d6000823e601f3d908101601f191682016040526109729190810190613ba3565b905080516000036109b95760405162461bcd60e51b81526020600482015260116024820152701a59081b9bdd081c9959da5cdd195c9959607a1b604482015260640161034c565b6109da816000815181106109cf576109cf613999565b602002602001015190565b949350505050565b6040516309e4fb4360e31b81527f3c9e6dae60821f1b0c1ab743344cc227a021afc69723580e6bb147ad39ca09bc600482015260009081906001600160a01b03851690634f27da1890602401602060405180830381865afa158015610a4b573d6000803e3d6000fd5b505050506040513d601f19601f82011682018060405250810190610a6f919061390e565b6040516309e4fb4360e31b81527fee6335467814bca6e120dfa0a8125ce649e003559f84314882ca48e87e9bd3cc60048201529091506000906001600160a01b03861690634f27da1890602401602060405180830381865afa158015610ad9573d6000803e3d6000fd5b505050506040513d601f19601f82011682018060405250810190610afd919061390e565b6040516307fa648b60e11b815261060d60048201526001600160a01b039190911690630ff4c91690602401608060405180830381865afa158015610b45573d6000803e3d6000fd5b505050506040513d601f19601f82011682018060405250810190610b699190613c29565b6040516309e4fb4360e31b81527ff18c85dc8044969168fe68af2b3239ad68b185f16d2fa46ca0d19909255133f960048201529091506000906001600160a01b03871690634f27da1890602401602060405180830381865afa158015610bd3573d6000803e3d6000fd5b505050506040513d601f19601f82011682018060405250810190610bf7919061390e565b905060005b826040015163ffffffff168163ffffffff161015610ebe576000610c298285602001518660400151611d1c565b90506000610c9560405180606001604052808a600001518560000151610c4f9190613ca5565b60030b81526020018a602001518560200151610c6b9190613ca5565b60030b8152600060209182015281519181015163ffffffff1691901b67ffffffff00000000161790565b604051636667bd4760e11b8152600481018290529091506001600160a01b0387169063cccf7a8e90602401602060405180830381865afa158015610cdd573d6000803e3d6000fd5b505050506040513d601f19601f82011682018060405250810190610d0191906138ec565b610d0c575050610eac565b6040516307fa648b60e11b8152600481018290526000906001600160a01b03881690630ff4c91690602401602060405180830381865afa158015610d54573d6000803e3d6000fd5b505050506040513d601f19601f82011682018060405250810190610d7891906138d3565b905060026040516307fa648b60e11b8152600481018390526001600160a01b03871690630ff4c91690602401602060405180830381865afa158015610dc1573d6000803e3d6000fd5b505050506040513d601f19601f82011682018060405250810190610de59190613ccc565b6002811115610df657610df66139de565b03610e0357505050610eac565b88516020808b0151604051600093610e56938693919201928352608060208401819052600a90840152696d6f746865726c6f646560b01b60a0840152600391820b6040840152900b606082015260c00190565b6040516020818303038152906040528051906020012060001c9050610e8581886060015163ffffffff16611d59565b610e925750505050610eac565b610e9d8b8b83611d80565b97506108d09650505050505050565b80610eb681613ce9565b915050610bfc565b5060405162461bcd60e51b81526020600482015260136024820152721b9bc81b5bdd1a195c9b1bd91948199bdd5b99606a1b604482015260640161034c565b6000610f287faf90be6cd7aa92d6569a9ae629178b74e1b0fbdd1097c27ec1dfffd2dc4c75406108b9565b90506000610f557ff18c85dc8044969168fe68af2b3239ad68b185f16d2fa46ca0d19909255133f96108b9565b604051636667bd4760e11b8152600481018990529091506001600160a01b0382169063cccf7a8e90602401602060405180830381865afa158015610f9d573d6000803e3d6000fd5b505050506040513d601f19601f82011682018060405250810190610fc191906138ec565b80156110315750604051636667bd4760e11b8152600481018790526001600160a01b0382169063cccf7a8e90602401602060405180830381865afa15801561100d573d6000803e3d6000fd5b505050506040513d601f19601f8201168201806040525081019061103191906138ec565b6110a35760405162461bcd60e51b815260206004820152603e60248201527f5b53656e64556e69747353797374656d5d204d7573742074726176656c20626560448201527f747765656e2061737465726f696473206f72206d6f746865726c6f6465730000606482015260840161034c565b6040516307fa648b60e11b8152600481018890526000906001600160a01b03831690630ff4c91690602401602060405180830381865afa1580156110eb573d6000803e3d6000fd5b505050506040513d601f19601f8201168201806040525081019061110f9190613ccc565b6040516307fa648b60e11b8152600481018990529091506000906001600160a01b03841690630ff4c91690602401602060405180830381865afa15801561115a573d6000803e3d6000fd5b505050506040513d601f19601f8201168201806040525081019061117e9190613ccc565b90506002856002811115611194576111946139de565b14806111b1575060018560028111156111af576111af6139de565b145b156112a657604051636667bd4760e11b8152600481018990526001600160a01b0385169063cccf7a8e90602401602060405180830381865afa1580156111fb573d6000803e3d6000fd5b505050506040513d601f19601f8201168201806040525081019061121f91906138ec565b6112a65760405162461bcd60e51b815260206004820152604c60248201527f5b53656e64556e69747353797374656d5d205265696e666f72636520616e642060448201527f726169642064657374696e6174696f6e73206d7573742062652061206f776e6560648201526b3210313c90383630bcb2b91760a11b608482015260a40161034c565b60006112da6112d47fd45fdfed2b19493f9c0dea49312c61e65de5d4865d541980330c47bdce57e1456108b9565b896125ae565b63ffffffff16905060006113166113107f7651874c1aa517de3f92126b41a38b36bad6f30fe5bbff80095c761374b273036108b9565b8a6125ae565b90508063ffffffff1682106113ce5760405162461bcd60e51b815260206004820152606c60248201527f5b53656e64556e69747353797374656d5d20596f75206861766520726561636860448201527f656420796f7572206d6178206d6f766520636f756e742e204275696c64206f7260648201527f207570677261646520796f757220737461726d617070657220746f206d616b6560848201526b1036b7b9329036b7bb32b99760a11b60a482015260c40161034c565b898b036114435760405162461bcd60e51b815260206004820152603c60248201527f5b53656e64556e69747353797374656d5d204f726967696e20616e642064657360448201527f74696e6174696f6e2063616e6e6f74206265207468652073616d652e00000000606482015260840161034c565b6001846002811115611457576114576139de565b0361153a576040516307fa648b60e11b8152600481018c905289906001600160a01b03881690630ff4c91690602401602060405180830381865afa1580156114a3573d6000803e3d6000fd5b505050506040513d601f19601f820116820180604052508101906114c791906138d3565b1461153a5760405162461bcd60e51b815260206004820152603d60248201527f5b53656e64556e69747353797374656d5d20596f752063616e206f6e6c79206d60448201527f6f76652066726f6d20616e2061737465726f696420796f75206f776e2e000000606482015260840161034c565b600283600281111561154e5761154e6139de565b036115d3576002846002811115611567576115676139de565b036115d35760405162461bcd60e51b815260206004820152603660248201527f5b53656e64556e69747353797374656d5d20596f752063616e6e6f74206d6f7660448201527532903132ba3bb2b2b71036b7ba3432b93637b232b99760511b606482015260840161034c565b60008760028111156115e7576115e76139de565b036116a15787890361163b5760405162461bcd60e51b815260206004820152601a60248201527f796f752063616e6e6f7420696e7661646520796f757273656c66000000000000604482015260640161034c565b600283600281111561164f5761164f6139de565b1461169c5760405162461bcd60e51b815260206004820181905260248201527f796f752063616e206f6e6c7920696e766164652061206d6f746865726c6f6465604482015260640161034c565b611861565b60018760028111156116b5576116b56139de565b0361176a578789036117095760405162461bcd60e51b815260206004820152601860248201527f796f752063616e6e6f74207261696420796f757273656c660000000000000000604482015260640161034c565b600183600281111561171d5761171d6139de565b1461169c5760405162461bcd60e51b815260206004820152601e60248201527f796f752063616e206f6e6c7920726169642061206d6f746865726c6f64650000604482015260640161034c565b600287600281111561177e5761177e6139de565b03611861576040516307fa648b60e11b8152600481018b905288906001600160a01b03881690630ff4c91690602401602060405180830381865afa1580156117ca573d6000803e3d6000fd5b505050506040513d601f19601f820116820180604052508101906117ee91906138d3565b146118615760405162461bcd60e51b815260206004820152603860248201527f796f752063616e206f6e6c79207265696e666f7263652074686520637572726560448201527f6e74206f776e6572206f662061206d6f746865726c6f64650000000000000000606482015260840161034c565b5050505050505050505050565b604080516020808201869052818301859052606080830185905283518084039091018152608090920190925280519101205b9392505050565b60006118b384846125ae565b90508163ffffffff168163ffffffff1610156119115760405162461bcd60e51b815260206004820152601c60248201527f6e6f7420656e6f7567682076616c756520746f20737562747261637400000000604482015260640161034c565b6001600160a01b03841663d923c3c48461192b8585613d0c565b6040516001600160e01b031960e085901b168152600481019290925263ffffffff166024820152604401600060405180830381600087803b15801561196f57600080fd5b505af1158015611983573d6000803e3d6000fd5b5050505050505050565b6040516309e4fb4360e31b81527fee6335467814bca6e120dfa0a8125ce649e003559f84314882ca48e87e9bd3cc600482015260009081906001600160a01b03881690634f27da1890602401602060405180830381865afa1580156119f6573d6000803e3d6000fd5b505050506040513d601f19601f82011682018060405250810190611a1a919061390e565b6040516307fa648b60e11b815261060d60048201526001600160a01b039190911690630ff4c91690602401608060405180830381865afa158015611a62573d6000803e3d6000fd5b505050506040513d601f19601f82011682018060405250810190611a869190613c29565b5190506000611a9688868661268e565b6040516309e4fb4360e31b81527f6ea3fcb6089077d06696f55d6cbeeaaa38f22c62099211f6123ebd6dcb8a88a460048201529091506000906001600160a01b038a1690634f27da1890602401602060405180830381865afa158015611b00573d6000803e3d6000fd5b505050506040513d601f19601f82011682018060405250810190611b24919061390e565b6040516307fa648b60e11b815261060d60048201526001600160a01b039190911690630ff4c91690602401602060405180830381865afa158015611b6c573d6000803e3d6000fd5b505050506040513d601f19601f82011682018060405250810190611b9091906138d3565b9050611b9e61271080613d30565b818484611bab8c8c61298b565b63ffffffff16611bbb9190613d30565b611bc59190613d30565b611bcf9190613d30565b611bd99190613d5d565b611be39043613d71565b9998505050505050505050565b6000600282516002811115611c0757611c076139de565b14611c2357611c1e82606001518360c001516129f0565b611c35565b611c3582608001518360c001516129f0565b9050611c42838284612a0c565b506040516309e4fb4360e31b81527fd45fdfed2b19493f9c0dea49312c61e65de5d4865d541980330c47bdce57e1456004820152611cd9906001600160a01b03851690634f27da1890602401602060405180830381865afa158015611cab573d6000803e3d6000fd5b505050506040513d601f19601f82011682018060405250810190611ccf919061390e565b8360600151612d6a565b50505050565b6108b681612df3565b60008282604051602001611cfd929190613d84565b60408051601f1981840301815291905280516020909101209392505050565b60408051606081018252600080825260208201819052918101919091526109da8383611d4a87610168613da6565b611d549190613dce565b612e6d565b600080611d698460066080612fb0565b9050611d758382613df1565b600114949350505050565b6000806000611d8e84612fd1565b9250925092506000611d9f83613008565b90506000611dac8561304d565b6040516309e4fb4360e31b81527f6f733d142822cfa9cdcf200e380f3eedc04430f17210ad049967eb996d43a8cc60048201529091506001600160a01b03891690634f27da1890602401602060405180830381865afa158015611e13573d6000803e3d6000fd5b505050506040513d601f19601f82011682018060405250810190611e37919061390e565b6001600160a01b031663e74526e5876040518060600160405280856002811115611e6357611e636139de565b8152602001866003811115611e7a57611e7a6139de565b8152602001878152506040518363ffffffff1660e01b8152600401611ea0929190613e05565b600060405180830381600087803b158015611eba57600080fd5b505af1158015611ece573d6000803e3d6000fd5b505088516020808b01516000945063ffffffff1691901b67ffffffff00000000161790506040516309e4fb4360e31b81527f49a4584d9706380e35459e1f31e673445371b5bac20aa516f8ba8650b184310660048201529091506001600160a01b038a1690634f27da1890602401602060405180830381865afa158015611f59573d6000803e3d6000fd5b505050506040513d601f19601f82011682018060405250810190611f7d919061390e565b6001600160a01b0316638d10d6de888a6040518363ffffffff1660e01b8152600401611faa929190613e4c565b600060405180830381600087803b158015611fc457600080fd5b505af1158015611fd8573d6000803e3d6000fd5b50506040516309e4fb4360e31b81527f3c9e6dae60821f1b0c1ab743344cc227a021afc69723580e6bb147ad39ca09bc60048201526001600160a01b038c169250634f27da189150602401602060405180830381865afa158015612040573d6000803e3d6000fd5b505050506040513d601f19601f82011682018060405250810190612064919061390e565b604051631ab06ee560e01b815260048101839052602481018990526001600160a01b039190911690631ab06ee590604401600060405180830381600087803b1580156120af57600080fd5b505af11580156120c3573d6000803e3d6000fd5b50506040516309e4fb4360e31b81527fa673798c6f2cc52a8fb8d280455700602e395ebada51bdf179c537759747442960048201526001600160a01b038c169250634f27da189150602401602060405180830381865afa15801561212b573d6000803e3d6000fd5b505050506040513d601f19601f8201168201806040525081019061214f919061390e565b604051631ab06ee560e01b8152600481018990524360248201526001600160a01b039190911690631ab06ee590604401600060405180830381600087803b15801561219957600080fd5b505af11580156121ad573d6000803e3d6000fd5b50506040516309e4fb4360e31b81527fe95fc307e3922a4ed7e1a9d135b2e79aad91e806428d8c7ec9a376dfc8aede5e60048201526001600160a01b038c169250634f27da189150602401602060405180830381865afa158015612215573d6000803e3d6000fd5b505050506040513d601f19601f82011682018060405250810190612239919061390e565b604051631ab06ee560e01b8152600481018990524360248201526001600160a01b039190911690631ab06ee590604401600060405180830381600087803b15801561228357600080fd5b505af1158015612297573d6000803e3d6000fd5b50506040516309e4fb4360e31b81527ff043dec8498c297f9c001ac8766010cd99b9744912415c1d80bcc6914c3a53a26004820152600092506001600160a01b038c169150634f27da1890602401602060405180830381865afa158015612302573d6000803e3d6000fd5b505050506040513d601f19601f82011682018060405250810190612326919061390e565b6001600160a01b0316630ff4c916612360866003811115612349576123496139de565b86600281111561235b5761235b6139de565b6129f0565b6040518263ffffffff1660e01b815260040161237e91815260200190565b6040805180830381865afa15801561239a573d6000803e3d6000fd5b505050506040513d601f19601f820116820180604052508101906123be9190613e7d565b516040516309e4fb4360e31b81527f4afb375aed0aee6589972f4e1bae535391e59c671590890a0ce22b864497e06460048201529091506001600160a01b038b1690634f27da1890602401602060405180830381865afa158015612426573d6000803e3d6000fd5b505050506040513d601f19601f8201168201806040525081019061244a919061390e565b6001600160a01b031663d923c3c4612462838b6129f0565b6040516001600160e01b031960e084901b168152600481019190915260006024820152604401600060405180830381600087803b1580156124a257600080fd5b505af11580156124b6573d6000803e3d6000fd5b50506040516309e4fb4360e31b81527ff18c85dc8044969168fe68af2b3239ad68b185f16d2fa46ca0d19909255133f960048201526001600160a01b038d169250634f27da189150602401602060405180830381865afa15801561251e573d6000803e3d6000fd5b505050506040513d601f19601f82011682018060405250810190612542919061390e565b6001600160a01b031663f419df728960026040518363ffffffff1660e01b8152600401612570929190613e99565b600060405180830381600087803b15801561258a57600080fd5b505af115801561259e573d6000803e3d6000fd5b5050505050505050505050505050565b604051636667bd4760e11b8152600481018290526000906001600160a01b0384169063cccf7a8e90602401602060405180830381865afa1580156125f6573d6000803e3d6000fd5b505050506040513d601f19601f8201168201806040525081019061261a91906138ec565b6126255760006118a0565b6040516307fa648b60e11b8152600481018390526001600160a01b03841690630ff4c91690602401602060405180830381865afa15801561266a573d6000803e3d6000fd5b505050506040513d601f19601f820116820180604052508101906118a09190613eb6565b6000808251116126fc5760405162461bcd60e51b815260206004820152603360248201527f4c696253656e643a206172726976616c556e697473206c656e677468206d75736044820152720742062652067726561746572207468616e203606c1b606482015260840161034c565b6040516309e4fb4360e31b81527fea0dbc19230a1d26fdbbab416508b828d0ef00bad2e0fc9be7b7fa55da74633660048201526000906001600160a01b03861690634f27da1890602401602060405180830381865afa158015612763573d6000803e3d6000fd5b505050506040513d601f19601f82011682018060405250810190612787919061390e565b9050600019915060005b8351811015612982578381815181106127ac576127ac613999565b60200260200101516020015163ffffffff166000031561297057600061281c8583815181106127dd576127dd613999565b602002602001015160000151612811898989878151811061280057612800613999565b60200260200101516000015161307d565b63ffffffff166129f0565b604051636667bd4760e11b8152600481018290529091506001600160a01b0384169063cccf7a8e90602401602060405180830381865afa158015612864573d6000803e3d6000fd5b505050506040513d601f19601f8201168201806040525081019061288891906138ec565b6128ed5760405162461bcd60e51b815260206004820152603060248201527f4c696253656e643a20756e6974207479706520646f6573206e6f74206861766560448201526f081cdc1959590818dbdb5c1bdb995b9d60821b606482015260840161034c565b6040516307fa648b60e11b8152600481018290526000906001600160a01b03851690630ff4c91690602401602060405180830381865afa158015612935573d6000803e3d6000fd5b505050506040513d601f19601f820116820180604052508101906129599190613eb6565b63ffffffff1690508481101561296d578094505b50505b8061297a816139c5565b915050612791565b50509392505050565b6000806002836020015185602001516129a49190613ed3565b6129ae919061401f565b835185516002916129be91613ed3565b6129c8919061401f565b6129d29190613ca5565b60030b90506109da6129eb6129e683613128565b61315b565b61317d565b6040805160208101849052908101829052600090606001611cfd565b6040516309e4fb4360e31b81527fd45fdfed2b19493f9c0dea49312c61e65de5d4865d541980330c47bdce57e145600482015260009081906001600160a01b03861690634f27da1890602401602060405180830381865afa158015612a75573d6000803e3d6000fd5b505050506040513d601f19601f82011682018060405250810190612a99919061390e565b90506000612aa782866125ae565b90506000612abb868363ffffffff166129f0565b905084604051602001612ace9190613ab8565b60408051808303601f190181529082905280516020909101206309e4fb4360e31b82527ffa4a0d59b8b1e16e79fdb8b2d0a8b06b5189b664b4ac382b586c64014469098e600483015294506001600160a01b03881690634f27da1890602401602060405180830381865afa158015612b4a573d6000803e3d6000fd5b505050506040513d601f19601f82011682018060405250810190612b6e919061390e565b6001600160a01b0316631ab06ee58287604051602001612b8e9190613ab8565b60408051601f198184030181529082905280516020909101206001600160e01b031960e085901b168252612bce9291600401918252602082015260400190565b600060405180830381600087803b158015612be857600080fd5b505af1158015612bfc573d6000803e3d6000fd5b50506040516309e4fb4360e31b81527f8e9099e75678919c8e1307fac4366e095ace966d09bb54991618c1fa0d72bf3360048201526001600160a01b038a169250634f27da189150602401602060405180830381865afa158015612c64573d6000803e3d6000fd5b505050506040513d601f19601f82011682018060405250810190612c88919061390e565b6001600160a01b031663bb3822c785876040518363ffffffff1660e01b8152600401612cb5929190614031565b600060405180830381600087803b158015612ccf57600080fd5b505af1158015612ce3573d6000803e3d6000fd5b50505050826001600160a01b031663d923c3c487846001612d04919061404a565b6040516001600160e01b031960e085901b168152600481019290925263ffffffff166024820152604401600060405180830381600087803b158015612d4857600080fd5b505af1158015612d5c573d6000803e3d6000fd5b505050505050509392505050565b600080612d7784846125ae565b612d8290600161404a565b604051633648f0f160e21b81526004810185905263ffffffff821660248201529091506001600160a01b0385169063d923c3c490604401600060405180830381600087803b158015612dd357600080fd5b505af1158015612de7573d6000803e3d6000fd5b50929695505050505050565b7f8a22373512790c48b83a1fe2efdd2888d4a917bcdc24d0adf63e60f67168046080546040516001600160a01b038481169216907f8be0079c531659141344cd1fd0a4f28419497f9722a3daafe3b4186f6b6457e090600090a380546001600160a01b0319166001600160a01b0392909216919091179055565b6040805160608101825260008082526020820181905291810191909152612e9661016883614067565b915060b463ffffffff831681111590612eaf9084614067565b92506000612ebf846106d1613da6565b63ffffffff1690506000612edc672b992ddfa23249d66002613d30565b612eec836509184e72a000613d30565b612ef69190613d71565b905060008660030b612f0783613199565b612f11919061408a565b905060008760030b612f22846131aa565b612f2c919061408a565b90506000612f42670de0b6b3a7640000846140ba565b90506000612f58670de0b6b3a7640000846140ba565b9050604051806060016040528088612f705783612f79565b612f79846140e8565b60030b815260200188612f8c5782612f95565b612f95836140e8565b60030b815260006020909101529a9950505050505050505050565b60008082612fc1600180871b61410b565b901b9490941690911c9392505050565b6000806000612fe38460056000612fb0565b9250612ff184600580612fb0565b9150613000846006600a612fb0565b929491935050565b6000600b8260ff161161301d57506000919050565b60158260ff16101561303157506001919050565b601b8260ff16101561304557506002919050565b506003919050565b600060108260ff161161306257506000919050565b601a8260ff161161307557506001919050565b506002919050565b60008061308a83856129f0565b6040516309e4fb4360e31b81527fbd262b900b9f3e3d6078d7a8e45d1bee5f4fd9547063f524ac4cbf611d37b44e600482015290915061311f906001600160a01b03871690634f27da1890602401602060405180830381865afa1580156130f5573d6000803e3d6000fd5b505050506040513d601f19601f82011682018060405250810190613119919061390e565b826125ae565b95945050505050565b6000677fffffffffffffff19821215801561314b5750677fffffffffffffff8213155b61315457600080fd5b5060401b90565b60008082600f0b121561316d57600080fd5b6108d0604083600f0b901b613274565b60008082600f0b121561318f57600080fd5b50600f0b60401d90565b60006108d06715cc96efd11924eb83015b6757325bbf446493ac9081900663400000000204600061ffff600483901c1660ff601484901c166310000000841615632000000085161515816131ef5760ff92909203915b6000604051806104400160405280610404815260200161411f610404913960046002860102818101519192509063ffffffff602082901c8116908216818103890260101c60008861324257818303613246565b8184015b90508715613252576000035b637fffffff670de0b6b3a76400008202059d9c50505050505050505050505050565b60008160000361328657506000919050565b816001600160801b821061329f5760809190911c9060401b5b6801000000000000000082106132ba5760409190911c9060201b5b64010000000082106132d15760209190911c9060101b5b6201000082106132e65760109190911c9060081b5b61010082106132fa5760089190911c9060041b5b6010821061330d5760049190911c9060021b5b600482106133195760011b5b600181858161332a5761332a613d47565b048201901c9050600181858161334257613342613d47565b048201901c9050600181858161335a5761335a613d47565b048201901c9050600181858161337257613372613d47565b048201901c9050600181858161338a5761338a613d47565b048201901c905060018185816133a2576133a2613d47565b048201901c905060018185816133ba576133ba613d47565b048201901c905060008185816133d2576133d2613d47565b0490508082106133e2578061311f565b509392505050565b919050565b634e487b7160e01b600052604160045260246000fd5b6040516060810167ffffffffffffffff81118282101715613428576134286133ef565b60405290565b6040805190810167ffffffffffffffff81118282101715613428576134286133ef565b60405160a0810167ffffffffffffffff81118282101715613428576134286133ef565b604051601f8201601f1916810167ffffffffffffffff8111828210171561349d5761349d6133ef565b604052919050565b600067ffffffffffffffff8211156134bf576134bf6133ef565b50601f01601f191660200190565b6000602082840312156134df57600080fd5b813567ffffffffffffffff8111156134f657600080fd5b8201601f8101841361350757600080fd5b803561351a613515826134a5565b613474565b81815285602083850101111561352f57600080fd5b81602084016020830137600091810160200191909152949350505050565b60005b83811015613568578181015183820152602001613550565b50506000910152565b602081526000825180602084015261359081604085016020870161354d565b601f01601f19169190910160400192915050565b600381106108b657600080fd5b80356133ea816135a4565b8060030b81146108b657600080fd5b6000606082840312156135dd57600080fd5b6135e5613405565b905081356135f2816135bc565b81526020820135613602816135bc565b806020830152506040820135604082015292915050565b600080600080600080610120878903121561363357600080fd5b863567ffffffffffffffff8082111561364b57600080fd5b818901915089601f83011261365f57600080fd5b81358181111561366e57600080fd5b8a60208260061b850101111561368357600080fd5b60209283019850965061369991890190506135b1565b93506136a888604089016135cb565b92506136b78860a089016135cb565b915061010087013590509295509295509295565b6001600160a01b03811681146108b657600080fd5b6000602082840312156136f257600080fd5b81356118a0816136cb565b600067ffffffffffffffff821115613717576137176133ef565b5060051b60200190565b63ffffffff811681146108b657600080fd5b60006040828403121561374557600080fd5b61374d61342e565b905081518152602082015161376181613721565b602082015292915050565b80516133ea816135a4565b60006060828403121561378957600080fd5b613791613405565b9050815161379e816135bc565b815260208201516137ae816135bc565b806020830152506040820151604082015292915050565b600060208083850312156137d857600080fd5b825167ffffffffffffffff808211156137f057600080fd5b90840190610120828703121561380557600080fd5b61380d613451565b82518281111561381c57600080fd5b83019150601f8201871361382f57600080fd5b815161383d613515826136fd565b81815260069190911b8301850190858101908983111561385c57600080fd5b938601935b82851015613885576138738a86613733565b82528682019150604085019450613861565b835250613895905083850161376c565b848201526138a68760408501613777565b60408201526138b88760a08501613777565b60608201526101009290920151608083015250949350505050565b6000602082840312156138e557600080fd5b5051919050565b6000602082840312156138fe57600080fd5b815180151581146118a057600080fd5b60006020828403121561392057600080fd5b81516118a0816136cb565b60006020828403121561393d57600080fd5b815167ffffffffffffffff81111561395457600080fd5b8201601f8101841361396557600080fd5b8051613973613515826134a5565b81815285602083850101111561398857600080fd5b61311f82602083016020860161354d565b634e487b7160e01b600052603260045260246000fd5b634e487b7160e01b600052601160045260246000fd5b6000600182016139d7576139d76139af565b5060010190565b634e487b7160e01b600052602160045260246000fd5b600381106108b6576108b66139de565b600081518084526020808501945080840160005b83811015613a455781518051885283015163ffffffff168388015260409096019590820190600101613a18565b509495945050505050565b60008151613a5d816139f4565b80845250602082015160e06020850152613a7a60e0850182613a04565b905060408301516040850152606083015160608501526080830151608085015260a083015160a085015260c083015160c08501528091505092915050565b6020815260006118a06020830184613a50565b600060408284031215613add57600080fd5b613ae561342e565b823581526020830135613af781613721565b60208201529392505050565b6020815260008251610120806020850152613b22610140850183613a04565b91506020850151613b32816139f4565b806040860152506040850151613b686060860182805160030b8252602081015160030b6020830152604081015160408301525050565b5060608501518051600390810b60c08701526020820151900b60e0860152604001516101008501526080909401519390920192909252919050565b60006020808385031215613bb657600080fd5b825167ffffffffffffffff811115613bcd57600080fd5b8301601f81018513613bde57600080fd5b8051613bec613515826136fd565b81815260059190911b82018301908381019087831115613c0b57600080fd5b928401925b8284101561085857835182529284019290840190613c10565b600060808284031215613c3b57600080fd5b6040516080810181811067ffffffffffffffff82111715613c5e57613c5e6133ef565b604052825181526020830151613c7381613721565b60208201526040830151613c8681613721565b60408201526060830151613c9981613721565b60608201529392505050565b600381810b9083900b01637fffffff8113637fffffff19821217156108d0576108d06139af565b600060208284031215613cde57600080fd5b81516118a0816135a4565b600063ffffffff808316818103613d0257613d026139af565b6001019392505050565b63ffffffff828116828216039080821115613d2957613d296139af565b5092915050565b80820281158282048414176108d0576108d06139af565b634e487b7160e01b600052601260045260246000fd5b600082613d6c57613d6c613d47565b500490565b808201808211156108d0576108d06139af565b60008351613d9681846020880161354d565b9190910191825250602001919050565b63ffffffff818116838216028082169190828114613dc657613dc66139af565b505092915050565b600063ffffffff80841680613de557613de5613d47565b92169190910492915050565b600082613e0057613e00613d47565b500690565b82815281516080820190613e18816139f4565b80602084015250602083015160048110613e3457613e346139de565b80604084015250604083015160608301529392505050565b828152608081016118a06020830184805160030b8252602081015160030b6020830152604081015160408301525050565b600060408284031215613e8f57600080fd5b6118a08383613733565b82815260408101613ea9836139f4565b8260208301529392505050565b600060208284031215613ec857600080fd5b81516118a081613721565b600382810b9082900b03637fffffff198112637fffffff821317156108d0576108d06139af565b80825b6001808611613f0c5750613f3b565b81637fffffff04821115613f2257613f226139af565b80861615613f2f57918102915b9490941c938002613efd565b935093915050565b6000828015613f595760018114613f6357613f6c565b60019150506108d0565b829150506108d0565b5081613f7a575060006108d0565b50600160008213808214613f93578015613fae57613fc4565b82637fffffff04831115613fa957613fa96139af565b613fc4565b82637fffffff05831215613fc457613fc46139af565b5080831615613fd05750805b613fe08360011c83840283613efa565b80637fffffff048211600083131615613ffb57613ffb6139af565b80637fffffff19058212600083121615614017576140176139af565b029392505050565b60006118a060ff84168360030b613f43565b8281526040602082015260006109da6040830184613a50565b63ffffffff818116838216019080821115613d2957613d296139af565b600063ffffffff8084168061407e5761407e613d47565b92169190910692915050565b80820260008212600160ff1b841416156140a6576140a66139af565b81810583148215176108d0576108d06139af565b6000826140c9576140c9613d47565b600160ff1b8214600019841416156140e3576140e36139af565b500590565b60008160030b637fffffff198103614102576141026139af565b60000392915050565b818103818111156108d0576108d06139af56fe0000000000c90f8801921d20025b26d703242abf03ed26e604b6195d057f00350647d97c0710a34507d95b9e08a2009a096a90490a3308bc0afb68050bc3ac350c8bd35e0d53db920e1bc2e40ee387660fab272b1072a0481139f0cf120116d512c8106e138edbb1145576b1151bdf8515e2144416a81305176dd9de183366e818f8b83c19bdcbf31a82a0251b4732ef1c0b826a1ccf8cb31d934fe51e56ca1e1f19f97b1fdcdc1b209f701c2161b39f2223a4c522e541af23a6887e2467775725280c5d25e845b626a8218527679df42826b92828e5714a29a3c4852a61b1012b1f34eb2bdc4e6f2c98fbba2d553afb2e110a622ecc681e2f8752623041c76030fbc54d31b54a5d326e54c73326e2c233def2873496824f354d905636041ad936ba2013376f9e46382493b038d8fe93398cdd323a402dd13af2eeb73ba51e293c56ba703d07c1d53db832a53e680b2c3f1749b73fc5ec974073f21d4121589a41ce1e64427a41d04325c13543d09aec447acd50452456bc45cd358f46756827471cece647c3c22e4869e664490f57ee49b415334a581c9d4afb6c974b9e038f4c3fdff34ce100344d8162c34e2106174ebfe8a44f5e08e24ffb654c5097fc5e5133cc9451ced46e5269126e53028517539b2aef5433027d54ca0a4a556040e255f5a4d2568a34a9571deef957b0d2555842dd5458d40e8c5964649759f3de125a8279995b1035ce5b9d11535c290acc5cb420df5d3e52365dc79d7b5e50015d5ed77c895f5e0db25fe3b38d60686cce60ec382f616f146b61f1003e6271fa6862f201ac637114cc63ef328f646c59bf64e889256563bf9165ddfbd266573cbb66cf811f6746c7d767bd0fbc683257aa68a69e806919e31f698c246b69fd614a6a6d98a36adcc9646b4af2786bb812d06c24295f6c8f351b6cf934fb6d6227f96dca0d146e30e3496e96a99c6efb5f116f5f02b16fc1938470231099708378fe70e2cbc571410804719e2cd171fa394872552c8472af05a67307c3cf735f662573b5ebd0740b53fa745f9dd074b2c8837504d3447555bd4b75a585ce75f42c0a7641af3c768e0ea576d9498877235f2c776c4eda77b417df77fab988784033287884841378c7aba17909a92c794a7c11798a23b079c89f6d7a05eeac7a4210d87a7d055a7ab6cba37aef63237b26cb4e7b5d039d7b920b887bc5e28f7bf8882f7c29fbed7c5a3d4f7c894bdd7cb727237ce3ceb17d0f42177d3980eb7d628ac57d8a5f3f7db0fdf77dd6668e7dfa98a77e1d93e97e3f57fe7e5fe4927e7f39567e9d55fb7eba3a387ed5e5c57ef0585f7f0991c37f2191b37f3857f57f4de4507f62368e7f754e7f7f872bf27f97cebc7fa736b37fb563b27fc255957fce0c3d7fd8878d7fe1c76a7fe9cbbf7ff094777ff621817ffa72d07ffd88597fff62157fffffffa264697066735822122088e63dd5949ebd3b65d01814bbad102db8770f6d098ec0a3448d60fb698710ef64736f6c63430008130033",
    "linkReferences": {}
  },
  "methodIdentifiers": {
    "execute(bytes)": "09c5eabe",
    "executeTyped((uint256,uint32)[],uint8,(int32,int32,uint256),(int32,int32,uint256),uint256)": "b56abf97",
    "owner()": "8da5cb5b",
    "transferOwnership(address)": "f2fde38b"
  },
  "id": 249
}