{
  "abi": [
    {
      "inputs": [
        {
          "internalType": "contract IWorld",
          "name": "_world",
          "type": "address"
        },
        {
          "internalType": "address",
          "name": "_components",
          "type": "address"
        }
      ],
      "stateMutability": "nonpayable",
      "type": "constructor"
    },
    {
      "inputs": [],
      "name": "Ownable__NotOwner",
      "type": "error"
    },
    {
      "inputs": [],
      "name": "Ownable__NotTransitiveOwner",
      "type": "error"
    },
    {
      "anonymous": false,
      "inputs": [
        {
          "indexed": true,
          "internalType": "address",
          "name": "previousOwner",
          "type": "address"
        },
        {
          "indexed": true,
          "internalType": "address",
          "name": "newOwner",
          "type": "address"
        }
      ],
      "name": "OwnershipTransferred",
      "type": "event"
    },
    {
      "inputs": [
        {
          "internalType": "bytes",
          "name": "args",
          "type": "bytes"
        }
      ],
      "name": "execute",
      "outputs": [
        {
          "internalType": "bytes",
          "name": "",
          "type": "bytes"
        }
      ],
      "stateMutability": "nonpayable",
      "type": "function"
    },
    {
      "inputs": [
        {
          "components": [
            {
              "internalType": "uint256",
              "name": "unitType",
              "type": "uint256"
            },
            {
              "internalType": "uint32",
              "name": "count",
              "type": "uint32"
            }
          ],
          "internalType": "struct ArrivalUnit[]",
          "name": "arrivalUnits",
          "type": "tuple[]"
        },
        {
          "internalType": "enum ESendType",
          "name": "sendType",
          "type": "uint8"
        },
        {
          "internalType": "uint256",
          "name": "origin",
          "type": "uint256"
        },
        {
          "internalType": "uint256",
          "name": "destination",
          "type": "uint256"
        },
        {
          "internalType": "address",
          "name": "to",
          "type": "address"
        }
      ],
      "name": "executeTyped",
      "outputs": [
        {
          "internalType": "bytes",
          "name": "",
          "type": "bytes"
        }
      ],
      "stateMutability": "nonpayable",
      "type": "function"
    },
    {
      "inputs": [],
      "name": "owner",
      "outputs": [
        {
          "internalType": "address",
          "name": "",
          "type": "address"
        }
      ],
      "stateMutability": "view",
      "type": "function"
    },
    {
      "inputs": [
        {
          "internalType": "address",
          "name": "account",
          "type": "address"
        }
      ],
      "name": "transferOwnership",
      "outputs": [],
      "stateMutability": "nonpayable",
      "type": "function"
    }
  ],
  "bytecode": {
    "object": "0x60806040523480156200001157600080fd5b5060405162004b6438038062004b648339810160408190526200003491620001e0565b8181818162000043336200014d565b6001600160a01b038116156200005a5780620000bf565b816001600160a01b031663ba62fbe46040518163ffffffff1660e01b8152600401602060405180830381865afa15801562000099573d6000803e3d6000fd5b505050506040513d601f19601f82011682018060405250810190620000bf91906200021f565b600080546001600160a01b039283166001600160a01b0319918216811790925560018054938616938216841790557ff67304f10c7772c78e439bc5cb07781db345424de8878c18100fdaa64d197a87805482169093179092557ff67304f10c7772c78e439bc5cb07781db345424de8878c18100fdaa64d197a86805490921617905550505050505062000246565b7f8a22373512790c48b83a1fe2efdd2888d4a917bcdc24d0adf63e60f67168046080546040516001600160a01b038481169216907f8be0079c531659141344cd1fd0a4f28419497f9722a3daafe3b4186f6b6457e090600090a380546001600160a01b0319166001600160a01b0392909216919091179055565b6001600160a01b0381168114620001dd57600080fd5b50565b60008060408385031215620001f457600080fd5b82516200020181620001c7565b60208401519092506200021481620001c7565b809150509250929050565b6000602082840312156200023257600080fd5b81516200023f81620001c7565b9392505050565b61490e80620002566000396000f3fe608060405234801561001057600080fd5b506004361061004c5760003560e01c806309c5eabe146100515780638da5cb5b1461007a578063de5b4264146100a7578063f2fde38b146100ba575b600080fd5b61006461005f3660046137f1565b6100cf565b6040516100719190613895565b60405180910390f35b6100826107eb565b60405173ffffffffffffffffffffffffffffffffffffffff9091168152602001610071565b6100646100b536600461392b565b610830565b6100cd6100c83660046139d2565b61086f565b005b60606000806000806000868060200190518101906100ed9190613a97565b945094509450945094506101b1600160009054906101000a900473ffffffffffffffffffffffffffffffffffffffff1673ffffffffffffffffffffffffffffffffffffffff16630d59332e6040518163ffffffff1660e01b8152600401602060405180830381865afa158015610167573d6000803e3d6000fd5b505050506040513d601f19601f8201168201806040525081019061018b9190613b69565b7f23f1f9079cb71316c5eb52dd7b962c701570062c868964f0a09f40cb1f8822816108eb565b6040517f6ad0ccab0000000000000000000000000000000000000000000000000000000081523360048201526024810185905273ffffffffffffffffffffffffffffffffffffffff9190911690636ad0ccab906044016000604051808303816000875af1158015610226573d6000803e3d6000fd5b505050506040513d6000823e601f3d9081017fffffffffffffffffffffffffffffffffffffffffffffffffffffffffffffffe016820160405261026c9190810190613b86565b503360006102997f49a4584d9706380e35459e1f31e673445371b5bac20aa516f8ba8650b1843106610a39565b6040517f0ff4c9160000000000000000000000000000000000000000000000000000000081526004810187905290915060009073ffffffffffffffffffffffffffffffffffffffff831690630ff4c91690602401606060405180830381865afa15801561030a573d6000803e3d6000fd5b505050506040513d601f19601f8201168201806040525081019061032e9190613c06565b6040517f0ff4c9160000000000000000000000000000000000000000000000000000000081526004810187905290915060009073ffffffffffffffffffffffffffffffffffffffff841690630ff4c91690602401606060405180830381865afa15801561039f573d6000803e3d6000fd5b505050506040513d601f19601f820116820180604052508101906103c39190613c06565b90506103ee7ff18c85dc8044969168fe68af2b3239ad68b185f16d2fa46ca0d19909255133f9610a39565b73ffffffffffffffffffffffffffffffffffffffff1663cccf7a8e876040518263ffffffff1660e01b815260040161042891815260200190565b602060405180830381865afa158015610445573d6000803e3d6000fd5b505050506040513d601f19601f820116820180604052508101906104699190613c6e565b610492576001546104909073ffffffffffffffffffffffffffffffffffffffff1682610a5d565b505b61049f878786888c6110b9565b60006104ca7f8bd637b568ed540cabc10b49a9f3688fe5b7e4b706298b6cd07c2e1ed5600e93610a39565b905060005b8a518110156105fd5760008b82815181106104ec576104ec613c90565b60200260200101516020015163ffffffff161161056a576040517f08c379a000000000000000000000000000000000000000000000000000000000815260206004820152601b60248201527f756e697420636f756e74206d75737420626520706f736974697665000000000060448201526064015b60405180910390fd5b60006105c08c838151811061058157610581613c90565b6020908102919091018101515160408051808401929092528181018b905260608083018f90528151808403909101815260809092019052805191012090565b90506105ea83828e85815181106105d9576105d9613c90565b6020026020010151602001516119ec565b50806105f581613cee565b9150506104cf565b506001546000906106249073ffffffffffffffffffffffffffffffffffffffff168c611b11565b905060006106517fee6335467814bca6e120dfa0a8125ce649e003559f84314882ca48e87e9bd3cc610a39565b6040517f0ff4c91600000000000000000000000000000000000000000000000000000000815261060d600482015273ffffffffffffffffffffffffffffffffffffffff9190911690630ff4c91690602401608060405180830381865afa1580156106bf573d6000803e3d6000fd5b505050506040513d601f19601f820116820180604052508101906106e39190613d26565b60000151905060006040518060e001604052808d600181111561070857610708613da2565b81526020018e815260200160648085876107228c8c611e72565b63ffffffff166107329190613dd1565b61073c9190613dd1565b6107469190613e17565b6107509190613e17565b61075a9043613e2b565b81526020018981526020016107828b73ffffffffffffffffffffffffffffffffffffffff1690565b8152602081018d90526040018b90526001549091506107b79073ffffffffffffffffffffffffffffffffffffffff1682611ed7565b806040516020016107c89190613ef3565b6040516020818303038152906040529d5050505050505050505050505050919050565b600061082b7f8a22373512790c48b83a1fe2efdd2888d4a917bcdc24d0adf63e60f6716804605473ffffffffffffffffffffffffffffffffffffffff1690565b905090565b606061086487878787878760405160200161085096959493929190613f06565b6040516020818303038152906040526100cf565b979650505050505050565b7f8a22373512790c48b83a1fe2efdd2888d4a917bcdc24d0adf63e60f6716804605473ffffffffffffffffffffffffffffffffffffffff1633146108df576040517f2f7a8ee100000000000000000000000000000000000000000000000000000000815260040160405180910390fd5b6108e881611fe2565b50565b6040517ffbdfa1ea00000000000000000000000000000000000000000000000000000000815260048101829052600090819073ffffffffffffffffffffffffffffffffffffffff85169063fbdfa1ea90602401600060405180830381865afa15801561095b573d6000803e3d6000fd5b505050506040513d6000823e601f3d9081017fffffffffffffffffffffffffffffffffffffffffffffffffffffffffffffffe01682016040526109a19190810190613f95565b90508051600003610a0e576040517f08c379a000000000000000000000000000000000000000000000000000000000815260206004820152601160248201527f6964206e6f7420726567697374657265640000000000000000000000000000006044820152606401610561565b610a2f81600081518110610a2457610a24613c90565b602002602001015190565b9150505b92915050565b60008054610a339073ffffffffffffffffffffffffffffffffffffffff16836108eb565b6040517f4f27da180000000000000000000000000000000000000000000000000000000081527f3c9e6dae60821f1b0c1ab743344cc227a021afc69723580e6bb147ad39ca09bc6004820152600090819073ffffffffffffffffffffffffffffffffffffffff851690634f27da1890602401602060405180830381865afa158015610aec573d6000803e3d6000fd5b505050506040513d601f19601f82011682018060405250810190610b109190613b69565b6040517f4f27da180000000000000000000000000000000000000000000000000000000081527fee6335467814bca6e120dfa0a8125ce649e003559f84314882ca48e87e9bd3cc600482015290915060009073ffffffffffffffffffffffffffffffffffffffff861690634f27da1890602401602060405180830381865afa158015610ba0573d6000803e3d6000fd5b505050506040513d601f19601f82011682018060405250810190610bc49190613b69565b6040517f0ff4c91600000000000000000000000000000000000000000000000000000000815261060d600482015273ffffffffffffffffffffffffffffffffffffffff9190911690630ff4c91690602401608060405180830381865afa158015610c32573d6000803e3d6000fd5b505050506040513d601f19601f82011682018060405250810190610c569190613d26565b6040517f4f27da180000000000000000000000000000000000000000000000000000000081527ff18c85dc8044969168fe68af2b3239ad68b185f16d2fa46ca0d19909255133f9600482015290915060009073ffffffffffffffffffffffffffffffffffffffff871690634f27da1890602401602060405180830381865afa158015610ce6573d6000803e3d6000fd5b505050506040513d601f19601f82011682018060405250810190610d0a9190613b69565b905060005b826040015163ffffffff168163ffffffff161015611056576000610d3c8285602001518660400151611feb565b90506000610da860405180606001604052808a600001518560000151610d62919061401b565b60030b81526020018a602001518560200151610d7e919061401b565b60030b8152600060209182015281519181015163ffffffff1691901b67ffffffff00000000161790565b6040517fcccf7a8e0000000000000000000000000000000000000000000000000000000081526004810182905290915073ffffffffffffffffffffffffffffffffffffffff87169063cccf7a8e90602401602060405180830381865afa158015610e16573d6000803e3d6000fd5b505050506040513d601f19601f82011682018060405250810190610e3a9190613c6e565b610e45575050611044565b6040517f0ff4c9160000000000000000000000000000000000000000000000000000000081526004810182905260009073ffffffffffffffffffffffffffffffffffffffff881690630ff4c91690602401602060405180830381865afa158015610eb3573d6000803e3d6000fd5b505050506040513d601f19601f82011682018060405250810190610ed7919061405d565b905060026040517f0ff4c9160000000000000000000000000000000000000000000000000000000081526004810183905273ffffffffffffffffffffffffffffffffffffffff871690630ff4c91690602401602060405180830381865afa158015610f46573d6000803e3d6000fd5b505050506040513d601f19601f82011682018060405250810190610f6a9190614076565b6002811115610f7b57610f7b613da2565b03610f8857505050611044565b88516020808b0151604051600093610fee938693919201928352608060208401819052600a908401527f6d6f746865726c6f64650000000000000000000000000000000000000000000060a0840152600391820b6040840152900b606082015260c00190565b6040516020818303038152906040528051906020012060001c905061101d81886060015163ffffffff16612030565b61102a5750505050611044565b6110358b8b83612057565b9750610a339650505050505050565b8061104e81614097565b915050610d0f565b506040517f08c379a000000000000000000000000000000000000000000000000000000000815260206004820152601360248201527f6e6f206d6f746865726c6f646520666f756e64000000000000000000000000006044820152606401610561565b60006110e47faf90be6cd7aa92d6569a9ae629178b74e1b0fbdd1097c27ec1dfffd2dc4c7540610a39565b905060006111117ff18c85dc8044969168fe68af2b3239ad68b185f16d2fa46ca0d19909255133f9610a39565b6040517fcccf7a8e0000000000000000000000000000000000000000000000000000000081526004810189905290915073ffffffffffffffffffffffffffffffffffffffff82169063cccf7a8e90602401602060405180830381865afa15801561117f573d6000803e3d6000fd5b505050506040513d601f19601f820116820180604052508101906111a39190613c6e565b801561123957506040517fcccf7a8e0000000000000000000000000000000000000000000000000000000081526004810187905273ffffffffffffffffffffffffffffffffffffffff82169063cccf7a8e90602401602060405180830381865afa158015611215573d6000803e3d6000fd5b505050506040513d601f19601f820116820180604052508101906112399190613c6e565b61129f576040517f08c379a000000000000000000000000000000000000000000000000000000000815260206004820152601f60248201527f6d7573742074726176656c206265747765656e20737061636520726f636b73006044820152606401610561565b6040517f0ff4c9160000000000000000000000000000000000000000000000000000000081526004810188905260009073ffffffffffffffffffffffffffffffffffffffff831690630ff4c91690602401602060405180830381865afa15801561130d573d6000803e3d6000fd5b505050506040513d601f19601f820116820180604052508101906113319190614076565b6040517f0ff4c9160000000000000000000000000000000000000000000000000000000081526004810189905290915060009073ffffffffffffffffffffffffffffffffffffffff841690630ff4c91690602401602060405180830381865afa1580156113a2573d6000803e3d6000fd5b505050506040513d601f19601f820116820180604052508101906113c69190614076565b905060006113fc6113f67fd45fdfed2b19493f9c0dea49312c61e65de5d4865d541980330c47bdce57e145610a39565b89612b06565b63ffffffff16905060006114386114327f7651874c1aa517de3f92126b41a38b36bad6f30fe5bbff80095c761374b27303610a39565b8a612b06565b90508063ffffffff1682106114ce576040517f08c379a0000000000000000000000000000000000000000000000000000000008152602060048201526024808201527f796f752068617665207265616368656420796f7572206d6178206d6f7665206360448201527f6f756e74000000000000000000000000000000000000000000000000000000006064820152608401610561565b898b0361155d576040517f08c379a000000000000000000000000000000000000000000000000000000000815260206004820152602960248201527f6f726967696e20616e642064657374696e6174696f6e2063616e6e6f7420626560448201527f207468652073616d6500000000000000000000000000000000000000000000006064820152608401610561565b600184600281111561157157611571613da2565b03611694576040517f0ff4c916000000000000000000000000000000000000000000000000000000008152600481018c9052899073ffffffffffffffffffffffffffffffffffffffff881690630ff4c91690602401602060405180830381865afa1580156115e3573d6000803e3d6000fd5b505050506040513d601f19601f82011682018060405250810190611607919061405d565b14611694576040517f08c379a000000000000000000000000000000000000000000000000000000000815260206004820152602a60248201527f796f752063616e206f6e6c79206d6f76652066726f6d20616e2061737465726f60448201527f696420796f75206f776e000000000000000000000000000000000000000000006064820152608401610561565b60028360028111156116a8576116a8613da2565b0361186c5760028460028111156116c1576116c1613da2565b0361174e576040517f08c379a000000000000000000000000000000000000000000000000000000000815260206004820152602360248201527f796f752063616e6e6f74206d6f7665206265747765656e206d6f746865726c6f60448201527f64657300000000000000000000000000000000000000000000000000000000006064820152608401610561565b6040517f0ff4c916000000000000000000000000000000000000000000000000000000008152600481018b9052899073ffffffffffffffffffffffffffffffffffffffff881690630ff4c91690602401602060405180830381865afa1580156117bb573d6000803e3d6000fd5b505050506040513d601f19601f820116820180604052508101906117df919061405d565b1461186c576040517f08c379a000000000000000000000000000000000000000000000000000000000815260206004820152603460248201527f796f752063616e206f6e6c79206d6f766520746f20796f75722061737465726f60448201527f69642066726f6d2061206d6f746865726c6f64650000000000000000000000006064820152608401610561565b600087600181111561188057611880613da2565b036119045773ffffffffffffffffffffffffffffffffffffffff88168903611904576040517f08c379a000000000000000000000000000000000000000000000000000000000815260206004820152601a60248201527f796f752063616e6e6f7420696e7661646520796f757273656c660000000000006044820152606401610561565b600187600181111561191857611918613da2565b036119df57600283600281111561193157611931613da2565b148015611953575073ffffffffffffffffffffffffffffffffffffffff881689145b6119df576040517f08c379a000000000000000000000000000000000000000000000000000000000815260206004820152602f60248201527f796f752063616e206f6e6c79207265696e666f72636520796f757273656c662060448201527f6f6e2061206d6f746865726c6f646500000000000000000000000000000000006064820152608401610561565b5050505050505050505050565b60006119f88484612b06565b90508163ffffffff168163ffffffff161015611a70576040517f08c379a000000000000000000000000000000000000000000000000000000000815260206004820152601c60248201527f6e6f7420656e6f7567682076616c756520746f207375627472616374000000006044820152606401610561565b73ffffffffffffffffffffffffffffffffffffffff841663d923c3c484611a9785856140ba565b6040517fffffffff0000000000000000000000000000000000000000000000000000000060e085901b168152600481019290925263ffffffff166024820152604401600060405180830381600087803b158015611af357600080fd5b505af1158015611b07573d6000803e3d6000fd5b5050505050505050565b600080825111611ba3576040517f08c379a000000000000000000000000000000000000000000000000000000000815260206004820152603360248201527f4c696253656e643a206172726976616c556e697473206c656e677468206d757360448201527f742062652067726561746572207468616e2030000000000000000000000000006064820152608401610561565b6040517f4f27da180000000000000000000000000000000000000000000000000000000081527fea0dbc19230a1d26fdbbab416508b828d0ef00bad2e0fc9be7b7fa55da746336600482015260009073ffffffffffffffffffffffffffffffffffffffff851690634f27da1890602401602060405180830381865afa158015611c30573d6000803e3d6000fd5b505050506040513d601f19601f82011682018060405250810190611c549190613b69565b90507fffffffffffffffffffffffffffffffffffffffffffffffffffffffffffffffff915060005b8351811015611e6a576000848281518110611c9957611c99613c90565b60200260200101516000015190508273ffffffffffffffffffffffffffffffffffffffff1663cccf7a8e826040518263ffffffff1660e01b8152600401611ce291815260200190565b602060405180830381865afa158015611cff573d6000803e3d6000fd5b505050506040513d601f19601f82011682018060405250810190611d239190613c6e565b611daf576040517f08c379a000000000000000000000000000000000000000000000000000000000815260206004820152603060248201527f4c696253656e643a20756e6974207479706520646f6573206e6f74206861766560448201527f20737065656420636f6d706f6e656e74000000000000000000000000000000006064820152608401610561565b6040517f0ff4c9160000000000000000000000000000000000000000000000000000000081526004810182905260009073ffffffffffffffffffffffffffffffffffffffff851690630ff4c91690602401602060405180830381865afa158015611e1d573d6000803e3d6000fd5b505050506040513d601f19601f82011682018060405250810190611e4191906140de565b63ffffffff16905084811015611e55578094505b50508080611e6290613cee565b915050611c7c565b505092915050565b600080600283602001518560200151611e8b91906140fb565b611e95919061427d565b83518551600291611ea5916140fb565b611eaf919061427d565b611eb9919061401b565b60030b9050610a2f611ed2611ecd83612c39565b612c83565b612ca5565b6000611f1282608001518360c00151604080516020808201949094528082019290925280518083038201815260609092019052805191012090565b9050611f1f838284612cc1565b506040517f4f27da180000000000000000000000000000000000000000000000000000000081527fd45fdfed2b19493f9c0dea49312c61e65de5d4865d541980330c47bdce57e1456004820152611fdc9073ffffffffffffffffffffffffffffffffffffffff851690634f27da1890602401602060405180830381865afa158015611fae573d6000803e3d6000fd5b505050506040513d601f19601f82011682018060405250810190611fd29190613b69565b836060015161313e565b50505050565b6108e8816131ed565b604080516060810182526000808252602082018190529181019190915261202883836120198761016861428f565b61202391906142af565b613299565b949350505050565b60008061204084600660806133fa565b905061204c83826142d2565b600114949350505050565b60008060006120658461341b565b925092509250600061207683613452565b9050600061208385613497565b6040517f4f27da180000000000000000000000000000000000000000000000000000000081527f6f733d142822cfa9cdcf200e380f3eedc04430f17210ad049967eb996d43a8cc600482015290915073ffffffffffffffffffffffffffffffffffffffff891690634f27da1890602401602060405180830381865afa158015612110573d6000803e3d6000fd5b505050506040513d601f19601f820116820180604052508101906121349190613b69565b73ffffffffffffffffffffffffffffffffffffffff1663e74526e587604051806060016040528085600281111561216d5761216d613da2565b815260200186600381111561218457612184613da2565b8152602001878152506040518363ffffffff1660e01b81526004016121aa9291906142f6565b600060405180830381600087803b1580156121c457600080fd5b505af11580156121d8573d6000803e3d6000fd5b505088516020808b01516000945063ffffffff1691901b67ffffffff00000000161790506040517f4f27da180000000000000000000000000000000000000000000000000000000081527f49a4584d9706380e35459e1f31e673445371b5bac20aa516f8ba8650b1843106600482015290915073ffffffffffffffffffffffffffffffffffffffff8a1690634f27da1890602401602060405180830381865afa158015612289573d6000803e3d6000fd5b505050506040513d601f19601f820116820180604052508101906122ad9190613b69565b604080517f8d10d6de000000000000000000000000000000000000000000000000000000008152600481018a90528a51600390810b602483015260208c0151900b6044820152908a0151606482015273ffffffffffffffffffffffffffffffffffffffff9190911690638d10d6de90608401600060405180830381600087803b15801561233957600080fd5b505af115801561234d573d6000803e3d6000fd5b50506040517f4f27da180000000000000000000000000000000000000000000000000000000081527f3c9e6dae60821f1b0c1ab743344cc227a021afc69723580e6bb147ad39ca09bc600482015273ffffffffffffffffffffffffffffffffffffffff8c169250634f27da189150602401602060405180830381865afa1580156123db573d6000803e3d6000fd5b505050506040513d601f19601f820116820180604052508101906123ff9190613b69565b6040517f1ab06ee5000000000000000000000000000000000000000000000000000000008152600481018390526024810189905273ffffffffffffffffffffffffffffffffffffffff9190911690631ab06ee590604401600060405180830381600087803b15801561247057600080fd5b505af1158015612484573d6000803e3d6000fd5b50506040517f4f27da180000000000000000000000000000000000000000000000000000000081527fa673798c6f2cc52a8fb8d280455700602e395ebada51bdf179c5377597474429600482015273ffffffffffffffffffffffffffffffffffffffff8c169250634f27da189150602401602060405180830381865afa158015612512573d6000803e3d6000fd5b505050506040513d601f19601f820116820180604052508101906125369190613b69565b6040517f1ab06ee50000000000000000000000000000000000000000000000000000000081526004810189905243602482015273ffffffffffffffffffffffffffffffffffffffff9190911690631ab06ee590604401600060405180830381600087803b1580156125a657600080fd5b505af11580156125ba573d6000803e3d6000fd5b50506040517f4f27da180000000000000000000000000000000000000000000000000000000081527fe95fc307e3922a4ed7e1a9d135b2e79aad91e806428d8c7ec9a376dfc8aede5e600482015273ffffffffffffffffffffffffffffffffffffffff8c169250634f27da189150602401602060405180830381865afa158015612648573d6000803e3d6000fd5b505050506040513d601f19601f8201168201806040525081019061266c9190613b69565b6040517f1ab06ee50000000000000000000000000000000000000000000000000000000081526004810189905243602482015273ffffffffffffffffffffffffffffffffffffffff9190911690631ab06ee590604401600060405180830381600087803b1580156126dc57600080fd5b505af11580156126f0573d6000803e3d6000fd5b50506040517f4f27da180000000000000000000000000000000000000000000000000000000081527ff043dec8498c297f9c001ac8766010cd99b9744912415c1d80bcc6914c3a53a260048201526000925073ffffffffffffffffffffffffffffffffffffffff8c169150634f27da1890602401602060405180830381865afa158015612781573d6000803e3d6000fd5b505050506040513d601f19601f820116820180604052508101906127a59190613b69565b73ffffffffffffffffffffffffffffffffffffffff16630ff4c9166128138660038111156127d5576127d5613da2565b8660028111156127e7576127e7613da2565b604080516020808201949094528082019290925280518083038201815260609092019052805191012090565b6040518263ffffffff1660e01b815260040161283191815260200190565b6040805180830381865afa15801561284d573d6000803e3d6000fd5b505050506040513d601f19601f82011682018060405250810190612871919061433d565b516040517f4f27da180000000000000000000000000000000000000000000000000000000081527f4afb375aed0aee6589972f4e1bae535391e59c671590890a0ce22b864497e064600482015290915073ffffffffffffffffffffffffffffffffffffffff8b1690634f27da1890602401602060405180830381865afa1580156128ff573d6000803e3d6000fd5b505050506040513d601f19601f820116820180604052508101906129239190613b69565b73ffffffffffffffffffffffffffffffffffffffff1663d923c3c461296f838b604080516020808201949094528082019290925280518083038201815260609092019052805191012090565b6040517fffffffff0000000000000000000000000000000000000000000000000000000060e084901b168152600481019190915260006024820152604401600060405180830381600087803b1580156129c757600080fd5b505af11580156129db573d6000803e3d6000fd5b50506040517f4f27da180000000000000000000000000000000000000000000000000000000081527ff18c85dc8044969168fe68af2b3239ad68b185f16d2fa46ca0d19909255133f9600482015273ffffffffffffffffffffffffffffffffffffffff8d169250634f27da189150602401602060405180830381865afa158015612a69573d6000803e3d6000fd5b505050506040513d601f19601f82011682018060405250810190612a8d9190613b69565b73ffffffffffffffffffffffffffffffffffffffff1663f419df728960026040518363ffffffff1660e01b8152600401612ac8929190614359565b600060405180830381600087803b158015612ae257600080fd5b505af1158015612af6573d6000803e3d6000fd5b5050505050505050505050505050565b6040517fcccf7a8e0000000000000000000000000000000000000000000000000000000081526004810182905260009073ffffffffffffffffffffffffffffffffffffffff84169063cccf7a8e90602401602060405180830381865afa158015612b74573d6000803e3d6000fd5b505050506040513d601f19601f82011682018060405250810190612b989190613c6e565b612ba3576000612c32565b6040517f0ff4c9160000000000000000000000000000000000000000000000000000000081526004810183905273ffffffffffffffffffffffffffffffffffffffff841690630ff4c91690602401602060405180830381865afa158015612c0e573d6000803e3d6000fd5b505050506040513d601f19601f82011682018060405250810190612c3291906140de565b9392505050565b60007fffffffffffffffffffffffffffffffffffffffffffffffff80000000000000008212158015612c735750677fffffffffffffff8213155b612c7c57600080fd5b5060401b90565b60008082600f0b1215612c9557600080fd5b610a33604083600f0b901b6134c7565b60008082600f0b1215612cb757600080fd5b50600f0b60401d90565b6040517f4f27da180000000000000000000000000000000000000000000000000000000081527fd45fdfed2b19493f9c0dea49312c61e65de5d4865d541980330c47bdce57e1456004820152600090819073ffffffffffffffffffffffffffffffffffffffff861690634f27da1890602401602060405180830381865afa158015612d50573d6000803e3d6000fd5b505050506040513d601f19601f82011682018060405250810190612d749190613b69565b90506000612d828286612b06565b60408051602080820189905263ffffffff8416828401528251808303840181526060909201909252805191012090915084604051602001612dc39190613ef3565b604080518083037fffffffffffffffffffffffffffffffffffffffffffffffffffffffffffffffe00181529082905280516020909101207f4f27da180000000000000000000000000000000000000000000000000000000082527ffa4a0d59b8b1e16e79fdb8b2d0a8b06b5189b664b4ac382b586c64014469098e6004830152945073ffffffffffffffffffffffffffffffffffffffff881690634f27da1890602401602060405180830381865afa158015612e83573d6000803e3d6000fd5b505050506040513d601f19601f82011682018060405250810190612ea79190613b69565b73ffffffffffffffffffffffffffffffffffffffff16631ab06ee58287604051602001612ed49190613ef3565b604080517fffffffffffffffffffffffffffffffffffffffffffffffffffffffffffffffe08184030181529082905280516020909101207fffffffff0000000000000000000000000000000000000000000000000000000060e085901b168252612f4a9291600401918252602082015260400190565b600060405180830381600087803b158015612f6457600080fd5b505af1158015612f78573d6000803e3d6000fd5b50506040517f4f27da180000000000000000000000000000000000000000000000000000000081527f8e9099e75678919c8e1307fac4366e095ace966d09bb54991618c1fa0d72bf33600482015273ffffffffffffffffffffffffffffffffffffffff8a169250634f27da189150602401602060405180830381865afa158015613006573d6000803e3d6000fd5b505050506040513d601f19601f8201168201806040525081019061302a9190613b69565b73ffffffffffffffffffffffffffffffffffffffff1663bb3822c785876040518363ffffffff1660e01b8152600401613064929190614376565b600060405180830381600087803b15801561307e57600080fd5b505af1158015613092573d6000803e3d6000fd5b505050508273ffffffffffffffffffffffffffffffffffffffff1663d923c3c4878460016130c0919061438f565b6040517fffffffff0000000000000000000000000000000000000000000000000000000060e085901b168152600481019290925263ffffffff166024820152604401600060405180830381600087803b15801561311c57600080fd5b505af1158015613130573d6000803e3d6000fd5b505050505050509392505050565b60008061314b8484612b06565b61315690600161438f565b6040517fd923c3c40000000000000000000000000000000000000000000000000000000081526004810185905263ffffffff8216602482015290915073ffffffffffffffffffffffffffffffffffffffff85169063d923c3c490604401600060405180830381600087803b1580156131cd57600080fd5b505af11580156131e1573d6000803e3d6000fd5b50929695505050505050565b7f8a22373512790c48b83a1fe2efdd2888d4a917bcdc24d0adf63e60f671680460805460405173ffffffffffffffffffffffffffffffffffffffff8481169216907f8be0079c531659141344cd1fd0a4f28419497f9722a3daafe3b4186f6b6457e090600090a380547fffffffffffffffffffffffff00000000000000000000000000000000000000001673ffffffffffffffffffffffffffffffffffffffff92909216919091179055565b60408051606081018252600080825260208201819052918101919091526132c2610168836143ac565b915060b463ffffffff831690811190600090605a1080156132eb575061010e8463ffffffff1611155b90506132f860b4856143ac565b93506000613308856106d161428f565b63ffffffff1690506000613325672b992ddfa23249d66002613dd1565b613335836509184e72a000613dd1565b61333f9190613e2b565b905060008760030b61335083613652565b61335a91906143cf565b905060008860030b61336b84613663565b61337591906143cf565b9050600061338b670de0b6b3a76400008461441b565b905060006133a1670de0b6b3a76400008461441b565b90506040518060600160405280886133b957836133c2565b6133c284614483565b60030b8152602001896133d557826133de565b6133de83614483565b60030b815260006020909101529b9a5050505050505050505050565b6000808261340b600180871b6144c1565b901b9490941690911c9392505050565b600080600061342d84600560006133fa565b925061343b846005806133fa565b915061344a846006600a6133fa565b929491935050565b6000600b8260ff161161346757506000919050565b60158260ff16101561347b57506001919050565b601b8260ff16101561348f57506002919050565b506003919050565b600060108260ff16116134ac57506000919050565b601a8260ff16116134bf57506001919050565b506002919050565b6000816000036134d957506000919050565b81600170010000000000000000000000000000000082106134ff5760809190911c9060401b5b68010000000000000000821061351a5760409190911c9060201b5b64010000000082106135315760209190911c9060101b5b6201000082106135465760109190911c9060081b5b610100821061355a5760089190911c9060041b5b6010821061356d5760049190911c9060021b5b600482106135795760011b5b600181858161358a5761358a613de8565b048201901c905060018185816135a2576135a2613de8565b048201901c905060018185816135ba576135ba613de8565b048201901c905060018185816135d2576135d2613de8565b048201901c905060018185816135ea576135ea613de8565b048201901c9050600181858161360257613602613de8565b048201901c9050600181858161361a5761361a613de8565b048201901c9050600081858161363257613632613de8565b0490508082106136425780613644565b815b95945050505050565b919050565b6000610a336715cc96efd11924eb83015b6757325bbf446493ac9081900663400000000204600061ffff600483901c1660ff601484901c166310000000841615632000000085161515816136a85760ff92909203915b600060405180610440016040528061040481526020016144d5610404913960046002860102818101519192509063ffffffff602082901c8116908216818103890260101c6000886136fb578183036136ff565b8184015b9050871561370b576000035b637fffffff670de0b6b3a76400008202059d9c50505050505050505050505050565b7f4e487b7100000000000000000000000000000000000000000000000000000000600052604160045260246000fd5b604051601f82017fffffffffffffffffffffffffffffffffffffffffffffffffffffffffffffffe016810167ffffffffffffffff811182821017156137a3576137a361372d565b604052919050565b600067ffffffffffffffff8211156137c5576137c561372d565b50601f017fffffffffffffffffffffffffffffffffffffffffffffffffffffffffffffffe01660200190565b60006020828403121561380357600080fd5b813567ffffffffffffffff81111561381a57600080fd5b8201601f8101841361382b57600080fd5b803561383e613839826137ab565b61375c565b81815285602083850101111561385357600080fd5b81602084016020830137600091810160200191909152949350505050565b60005b8381101561388c578181015183820152602001613874565b50506000910152565b60208152600082518060208401526138b4816040850160208701613871565b601f017fffffffffffffffffffffffffffffffffffffffffffffffffffffffffffffffe0169190910160400192915050565b600281106108e857600080fd5b803561364d816138e6565b73ffffffffffffffffffffffffffffffffffffffff811681146108e857600080fd5b803561364d816138fe565b60008060008060008060a0878903121561394457600080fd5b863567ffffffffffffffff8082111561395c57600080fd5b818901915089601f83011261397057600080fd5b81358181111561397f57600080fd5b8a60208260061b850101111561399457600080fd5b6020928301985096506139aa91890190506138f3565b935060408701359250606087013591506139c660808801613920565b90509295509295509295565b6000602082840312156139e457600080fd5b8135612c32816138fe565b600067ffffffffffffffff821115613a0957613a0961372d565b5060051b60200190565b63ffffffff811681146108e857600080fd5b600060408284031215613a3757600080fd5b6040516040810181811067ffffffffffffffff82111715613a5a57613a5a61372d565b8060405250809150825181526020830151613a7481613a13565b6020919091015292915050565b805161364d816138e6565b805161364d816138fe565b600080600080600060a08688031215613aaf57600080fd5b855167ffffffffffffffff811115613ac657600080fd5b8601601f81018813613ad757600080fd5b80516020613ae7613839836139ef565b82815260069290921b8301810191818101908b841115613b0657600080fd5b938201935b83851015613b2f57613b1d8c86613a25565b82528282019150604085019450613b0b565b9850613b3e9050898201613a81565b96505050506040860151925060608601519150613b5d60808701613a8c565b90509295509295909350565b600060208284031215613b7b57600080fd5b8151612c32816138fe565b600060208284031215613b9857600080fd5b815167ffffffffffffffff811115613baf57600080fd5b8201601f81018413613bc057600080fd5b8051613bce613839826137ab565b818152856020838501011115613be357600080fd5b613644826020830160208601613871565b8051600381900b811461364d57600080fd5b600060608284031215613c1857600080fd5b6040516060810181811067ffffffffffffffff82111715613c3b57613c3b61372d565b604052613c4783613bf4565b8152613c5560208401613bf4565b6020820152604083015160408201528091505092915050565b600060208284031215613c8057600080fd5b81518015158114612c3257600080fd5b7f4e487b7100000000000000000000000000000000000000000000000000000000600052603260045260246000fd5b7f4e487b7100000000000000000000000000000000000000000000000000000000600052601160045260246000fd5b60007fffffffffffffffffffffffffffffffffffffffffffffffffffffffffffffffff8203613d1f57613d1f613cbf565b5060010190565b600060808284031215613d3857600080fd5b6040516080810181811067ffffffffffffffff82111715613d5b57613d5b61372d565b604052825181526020830151613d7081613a13565b60208201526040830151613d8381613a13565b60408201526060830151613d9681613a13565b60608201529392505050565b7f4e487b7100000000000000000000000000000000000000000000000000000000600052602160045260246000fd5b8082028115828204841417610a3357610a33613cbf565b7f4e487b7100000000000000000000000000000000000000000000000000000000600052601260045260246000fd5b600082613e2657613e26613de8565b500490565b80820180821115610a3357610a33613cbf565b60028110613e4e57613e4e613da2565b9052565b600060e08301613e63848451613e3e565b60208381015160e0868301528051928390528101916000906101008701905b80831015613eb35784518051835284015163ffffffff16848301529383019360019290920191604090910190613e82565b5060408601516040880152606086015160608801526080860151608088015260a086015160a088015260c086015160c08801528094505050505092915050565b602081526000612c326020830184613e52565b60a0808252810186905260008760c08301825b89811015613f505782358252602080840135613f3481613a13565b63ffffffff169083015260409283019290910190600101613f19565b509150613f6290506020830187613e3e565b84604083015283606083015273ffffffffffffffffffffffffffffffffffffffff83166080830152979650505050505050565b60006020808385031215613fa857600080fd5b825167ffffffffffffffff811115613fbf57600080fd5b8301601f81018513613fd057600080fd5b8051613fde613839826139ef565b81815260059190911b82018301908381019087831115613ffd57600080fd5b928401925b8284101561086457835182529284019290840190614002565b600381810b9083900b01637fffffff81137fffffffffffffffffffffffffffffffffffffffffffffffffffffffff8000000082121715610a3357610a33613cbf565b60006020828403121561406f57600080fd5b5051919050565b60006020828403121561408857600080fd5b815160038110612c3257600080fd5b600063ffffffff8083168181036140b0576140b0613cbf565b6001019392505050565b63ffffffff8281168282160390808211156140d7576140d7613cbf565b5092915050565b6000602082840312156140f057600080fd5b8151612c3281613a13565b600382810b9082900b037fffffffffffffffffffffffffffffffffffffffffffffffffffffffff800000008112637fffffff82131715610a3357610a33613cbf565b80825b600180861161414f575061417e565b81637fffffff0482111561416557614165613cbf565b8086161561417257918102915b9490941c938002614140565b935093915050565b600082801561419c57600181146141a6576141af565b6001915050610a33565b82915050610a33565b50816141bd57506000610a33565b506001600082138082146141d65780156141f157614207565b82637fffffff048311156141ec576141ec613cbf565b614207565b82637fffffff0583121561420757614207613cbf565b50808316156142135750805b6142238360011c8384028361413d565b80637fffffff04821160008313161561423e5761423e613cbf565b807fffffffffffffffffffffffffffffffffffffffffffffffffffffffff8000000005821260008312161561427557614275613cbf565b029392505050565b6000612c3260ff84168360030b614186565b63ffffffff818116838216028082169190828114611e6a57611e6a613cbf565b600063ffffffff808416806142c6576142c6613de8565b92169190910492915050565b6000826142e1576142e1613de8565b500690565b600381106108e8576108e8613da2565b82815281516080820190614309816142e6565b8060208401525060208301516004811061432557614325613da2565b80604084015250604083015160608301529392505050565b60006040828403121561434f57600080fd5b612c328383613a25565b82815260408101614369836142e6565b8260208301529392505050565b8281526040602082015260006120286040830184613e52565b63ffffffff8181168382160190808211156140d7576140d7613cbf565b600063ffffffff808416806143c3576143c3613de8565b92169190910692915050565b808202600082127f80000000000000000000000000000000000000000000000000000000000000008414161561440757614407613cbf565b8181058314821517610a3357610a33613cbf565b60008261442a5761442a613de8565b7fffffffffffffffffffffffffffffffffffffffffffffffffffffffffffffffff83147f80000000000000000000000000000000000000000000000000000000000000008314161561447e5761447e613cbf565b500590565b60008160030b7fffffffffffffffffffffffffffffffffffffffffffffffffffffffff8000000081036144b8576144b8613cbf565b60000392915050565b81810381811115610a3357610a33613cbf56fe0000000000c90f8801921d20025b26d703242abf03ed26e604b6195d057f00350647d97c0710a34507d95b9e08a2009a096a90490a3308bc0afb68050bc3ac350c8bd35e0d53db920e1bc2e40ee387660fab272b1072a0481139f0cf120116d512c8106e138edbb1145576b1151bdf8515e2144416a81305176dd9de183366e818f8b83c19bdcbf31a82a0251b4732ef1c0b826a1ccf8cb31d934fe51e56ca1e1f19f97b1fdcdc1b209f701c2161b39f2223a4c522e541af23a6887e2467775725280c5d25e845b626a8218527679df42826b92828e5714a29a3c4852a61b1012b1f34eb2bdc4e6f2c98fbba2d553afb2e110a622ecc681e2f8752623041c76030fbc54d31b54a5d326e54c73326e2c233def2873496824f354d905636041ad936ba2013376f9e46382493b038d8fe93398cdd323a402dd13af2eeb73ba51e293c56ba703d07c1d53db832a53e680b2c3f1749b73fc5ec974073f21d4121589a41ce1e64427a41d04325c13543d09aec447acd50452456bc45cd358f46756827471cece647c3c22e4869e664490f57ee49b415334a581c9d4afb6c974b9e038f4c3fdff34ce100344d8162c34e2106174ebfe8a44f5e08e24ffb654c5097fc5e5133cc9451ced46e5269126e53028517539b2aef5433027d54ca0a4a556040e255f5a4d2568a34a9571deef957b0d2555842dd5458d40e8c5964649759f3de125a8279995b1035ce5b9d11535c290acc5cb420df5d3e52365dc79d7b5e50015d5ed77c895f5e0db25fe3b38d60686cce60ec382f616f146b61f1003e6271fa6862f201ac637114cc63ef328f646c59bf64e889256563bf9165ddfbd266573cbb66cf811f6746c7d767bd0fbc683257aa68a69e806919e31f698c246b69fd614a6a6d98a36adcc9646b4af2786bb812d06c24295f6c8f351b6cf934fb6d6227f96dca0d146e30e3496e96a99c6efb5f116f5f02b16fc1938470231099708378fe70e2cbc571410804719e2cd171fa394872552c8472af05a67307c3cf735f662573b5ebd0740b53fa745f9dd074b2c8837504d3447555bd4b75a585ce75f42c0a7641af3c768e0ea576d9498877235f2c776c4eda77b417df77fab988784033287884841378c7aba17909a92c794a7c11798a23b079c89f6d7a05eeac7a4210d87a7d055a7ab6cba37aef63237b26cb4e7b5d039d7b920b887bc5e28f7bf8882f7c29fbed7c5a3d4f7c894bdd7cb727237ce3ceb17d0f42177d3980eb7d628ac57d8a5f3f7db0fdf77dd6668e7dfa98a77e1d93e97e3f57fe7e5fe4927e7f39567e9d55fb7eba3a387ed5e5c57ef0585f7f0991c37f2191b37f3857f57f4de4507f62368e7f754e7f7f872bf27f97cebc7fa736b37fb563b27fc255957fce0c3d7fd8878d7fe1c76a7fe9cbbf7ff094777ff621817ffa72d07ffd88597fff62157fffffffa26469706673582212201dc0d289bf77fbfcd5fe1eca2c351c8cd622018dfac1d2c6164c6b845e910b0664736f6c63430008130033",
    "linkReferences": {}
  },
  "methodIdentifiers": {
    "execute(bytes)": "09c5eabe",
    "executeTyped((uint256,uint32)[],uint8,uint256,uint256,address)": "de5b4264",
    "owner()": "8da5cb5b",
    "transferOwnership(address)": "f2fde38b"
  },
  "id": 206
}