{
  "abi": [
    {
      "inputs": [
        {
          "internalType": "contract IWorld",
          "name": "_world",
          "type": "address"
        },
        {
          "internalType": "address",
          "name": "_components",
          "type": "address"
        }
      ],
      "stateMutability": "nonpayable",
      "type": "constructor"
    },
    {
      "inputs": [],
      "name": "Ownable__NotOwner",
      "type": "error"
    },
    {
      "inputs": [],
      "name": "Ownable__NotTransitiveOwner",
      "type": "error"
    },
    {
      "anonymous": false,
      "inputs": [
        {
          "indexed": true,
          "internalType": "address",
          "name": "previousOwner",
          "type": "address"
        },
        {
          "indexed": true,
          "internalType": "address",
          "name": "newOwner",
          "type": "address"
        }
      ],
      "name": "OwnershipTransferred",
      "type": "event"
    },
    {
      "inputs": [
        {
          "internalType": "bytes",
          "name": "",
          "type": "bytes"
        }
      ],
      "name": "execute",
      "outputs": [
        {
          "internalType": "bytes",
          "name": "",
          "type": "bytes"
        }
      ],
      "stateMutability": "nonpayable",
      "type": "function"
    },
    {
      "inputs": [],
      "name": "executeTyped",
      "outputs": [
        {
          "internalType": "bytes",
          "name": "",
          "type": "bytes"
        }
      ],
      "stateMutability": "nonpayable",
      "type": "function"
    },
    {
      "inputs": [],
      "name": "owner",
      "outputs": [
        {
          "internalType": "address",
          "name": "",
          "type": "address"
        }
      ],
      "stateMutability": "view",
      "type": "function"
    },
    {
      "inputs": [
        {
          "internalType": "address",
          "name": "account",
          "type": "address"
        }
      ],
      "name": "transferOwnership",
      "outputs": [],
      "stateMutability": "nonpayable",
      "type": "function"
    }
  ],
  "bytecode": {
    "object": "0x60806040523480156200001157600080fd5b5060405162003e6038038062003e608339810160408190526200003491620001e0565b8181818162000043336200014d565b6001600160a01b038116156200005a5780620000bf565b816001600160a01b031663ba62fbe46040518163ffffffff1660e01b8152600401602060405180830381865afa15801562000099573d6000803e3d6000fd5b505050506040513d601f19601f82011682018060405250810190620000bf91906200021f565b600080546001600160a01b039283166001600160a01b0319918216811790925560018054938616938216841790557ff67304f10c7772c78e439bc5cb07781db345424de8878c18100fdaa64d197a87805482169093179092557ff67304f10c7772c78e439bc5cb07781db345424de8878c18100fdaa64d197a86805490921617905550505050505062000246565b7f8a22373512790c48b83a1fe2efdd2888d4a917bcdc24d0adf63e60f67168046080546040516001600160a01b038481169216907f8be0079c531659141344cd1fd0a4f28419497f9722a3daafe3b4186f6b6457e090600090a380546001600160a01b0319166001600160a01b0392909216919091179055565b6001600160a01b0381168114620001dd57600080fd5b50565b60008060408385031215620001f457600080fd5b82516200020181620001c7565b60208401519092506200021481620001c7565b809150509250929050565b6000602082840312156200023257600080fd5b81516200023f81620001c7565b9392505050565b613c0a80620002566000396000f3fe608060405234801561001057600080fd5b506004361061004c5760003560e01c806309c5eabe146100515780638da5cb5b1461007a578063e1df4ba6146100a7578063f2fde38b146100af575b600080fd5b61006461005f366004613509565b6100c4565b60405161007191906135ad565b60405180910390f35b6100826105a7565b60405173ffffffffffffffffffffffffffffffffffffffff9091168152602001610071565b6100646105ec565b6100c26100bd366004613620565b610606565b005b60606000336001546040517f4f27da180000000000000000000000000000000000000000000000000000000081527f49a4584d9706380e35459e1f31e673445371b5bac20aa516f8ba8650b1843106600482015291925060009173ffffffffffffffffffffffffffffffffffffffff90911690634f27da1890602401602060405180830381865afa15801561015d573d6000803e3d6000fd5b505050506040513d601f19601f82011682018060405250810190610181919061363d565b6040517fcccf7a8e0000000000000000000000000000000000000000000000000000000081526004810184905290915060009073ffffffffffffffffffffffffffffffffffffffff83169063cccf7a8e90602401602060405180830381865afa1580156101f2573d6000803e3d6000fd5b505050506040513d601f19601f82011682018060405250810190610216919061365a565b905080156102aa576040517f08c379a0000000000000000000000000000000000000000000000000000000008152602060048201526024808201527f5b537061776e53797374656d5d20506c6179657220616c72656164792073706160448201527f776e65640000000000000000000000000000000000000000000000000000000060648201526084015b60405180910390fd5b6001546000906102d09073ffffffffffffffffffffffffffffffffffffffff1685610682565b6040517f0ff4c9160000000000000000000000000000000000000000000000000000000081527fd1951468cf9e9494d5703385454c036cef4267b4bf50da6ae1b4239c5fa946d3600482015290915060009073ffffffffffffffffffffffffffffffffffffffff851690630ff4c91690602401606060405180830381865afa158015610360573d6000803e3d6000fd5b505050506040513d601f19601f820116820180604052508101906103849190613693565b90508181604001818152505060006103d16040518060400160405280600881526020017f6275696c64696e6700000000000000000000000000000000000000000000000081525083610c29565b90506103fc7f84dcd47dfd0ba519a03bd44d032054d6f29f79700587b112a577b94d6440fa66610c70565b6040517f1ab06ee5000000000000000000000000000000000000000000000000000000008152600481018890526024810183905273ffffffffffffffffffffffffffffffffffffffff9190911690631ab06ee590604401600060405180830381600087803b15801561046d57600080fd5b505af1158015610481573d6000803e3d6000fd5b505050506104b17fbd262b900b9f3e3d6078d7a8e45d1bee5f4fd9547063f524ac4cbf611d37b44e60001c610c70565b6040517fd923c3c4000000000000000000000000000000000000000000000000000000008152600481018890526001602482015273ffffffffffffffffffffffffffffffffffffffff919091169063d923c3c490604401600060405180830381600087803b15801561052257600080fd5b505af1158015610536573d6000803e3d6000fd5b505060015461057f925073ffffffffffffffffffffffffffffffffffffffff1690507fd1951468cf9e9494d5703385454c036cef4267b4bf50da6ae1b4239c5fa946d384610c94565b6040805160208101859052016040516020818303038152906040529650505050505050919050565b60006105e77f8a22373512790c48b83a1fe2efdd2888d4a917bcdc24d0adf63e60f6716804605473ffffffffffffffffffffffffffffffffffffffff1690565b905090565b60606105e7604051806020016040528060008152506100c4565b7f8a22373512790c48b83a1fe2efdd2888d4a917bcdc24d0adf63e60f6716804605473ffffffffffffffffffffffffffffffffffffffff163314610676576040517f2f7a8ee100000000000000000000000000000000000000000000000000000000815260040160405180910390fd5b61067f816125e3565b50565b600061068e83836125ec565b6040517f4f27da180000000000000000000000000000000000000000000000000000000081527ff18c85dc8044969168fe68af2b3239ad68b185f16d2fa46ca0d19909255133f9600482015290915060009073ffffffffffffffffffffffffffffffffffffffff851690634f27da1890602401602060405180830381865afa15801561071e573d6000803e3d6000fd5b505050506040513d601f19601f82011682018060405250810190610742919061363d565b6040517f4f27da180000000000000000000000000000000000000000000000000000000081527f49a4584d9706380e35459e1f31e673445371b5bac20aa516f8ba8650b1843106600482015290915060009073ffffffffffffffffffffffffffffffffffffffff861690634f27da1890602401602060405180830381865afa1580156107d2573d6000803e3d6000fd5b505050506040513d601f19601f820116820180604052508101906107f6919061363d565b6040517fcccf7a8e0000000000000000000000000000000000000000000000000000000081526004810185905290915073ffffffffffffffffffffffffffffffffffffffff83169063cccf7a8e90602401602060405180830381865afa158015610864573d6000803e3d6000fd5b505050506040513d601f19601f82011682018060405250810190610888919061365a565b15610915576040517f08c379a000000000000000000000000000000000000000000000000000000000815260206004820152602560248201527f5b4c696241737465726f69645d2061737465726f696420616c7265616479206560448201527f786973747300000000000000000000000000000000000000000000000000000060648201526084016102a1565b6000610921868661261d565b604080517f8d10d6de000000000000000000000000000000000000000000000000000000008152600481018790528251600390810b60248301526020840151900b604482015290820151606482015290915073ffffffffffffffffffffffffffffffffffffffff831690638d10d6de90608401600060405180830381600087803b1580156109ae57600080fd5b505af11580156109c2573d6000803e3d6000fd5b50506040517f1ab06ee5000000000000000000000000000000000000000000000000000000008152600481018790526001602482015273ffffffffffffffffffffffffffffffffffffffff86169250631ab06ee59150604401600060405180830381600087803b158015610a3557600080fd5b505af1158015610a49573d6000803e3d6000fd5b50506040517f2e780b0d0000000000000000000000000000000000000000000000000000000081526004810188905260006024820181905260448201526064810187905273ffffffffffffffffffffffffffffffffffffffff85169250632e780b0d9150608401600060405180830381600087803b158015610aca57600080fd5b505af1158015610ade573d6000803e3d6000fd5b505082516020808501516000945063ffffffff1691901b67ffffffff00000000161790506040517f4f27da180000000000000000000000000000000000000000000000000000000081527fcd21223913df34354e53714bb49095fd4d6a8c8d2ac1fe38f8a14e9fd673e77c600482015290915073ffffffffffffffffffffffffffffffffffffffff881690634f27da1890602401602060405180830381865afa158015610b8f573d6000803e3d6000fd5b505050506040513d601f19601f82011682018060405250810190610bb3919061363d565b73ffffffffffffffffffffffffffffffffffffffff166360fe47b1826040518263ffffffff1660e01b8152600401610bed91815260200190565b600060405180830381600087803b158015610c0757600080fd5b505af1158015610c1b573d6000803e3d6000fd5b505050505050505092915050565b600082826000015183602001518460400151604051602001610c4e94939291906136fb565b6040516020818303038152906040528051906020012060001c90505b92915050565b60008054610c6a9073ffffffffffffffffffffffffffffffffffffffff1683612985565b60003390506000610cda6040518060400160405280600881526020017f6275696c64696e6700000000000000000000000000000000000000000000000081525084610c29565b90506000610ce9856001612ad1565b6040517f4f27da180000000000000000000000000000000000000000000000000000000081527f7562ebb298d855e68fb2922ace89e271e36c031fb473ee4be72f900215d523c5600482015290915073ffffffffffffffffffffffffffffffffffffffff871690634f27da1890602401602060405180830381865afa158015610d76573d6000803e3d6000fd5b505050506040513d601f19601f82011682018060405250810190610d9a919061363d565b6040517f1ab06ee5000000000000000000000000000000000000000000000000000000008152600481018490526024810187905273ffffffffffffffffffffffffffffffffffffffff9190911690631ab06ee590604401600060405180830381600087803b158015610e0b57600080fd5b505af1158015610e1f573d6000803e3d6000fd5b50506040517f4f27da180000000000000000000000000000000000000000000000000000000081527fbd262b900b9f3e3d6078d7a8e45d1bee5f4fd9547063f524ac4cbf611d37b44e600482015273ffffffffffffffffffffffffffffffffffffffff89169250634f27da189150602401602060405180830381865afa158015610ead573d6000803e3d6000fd5b505050506040513d601f19601f82011682018060405250810190610ed1919061363d565b6040517fd923c3c4000000000000000000000000000000000000000000000000000000008152600481018490526001602482015273ffffffffffffffffffffffffffffffffffffffff919091169063d923c3c490604401600060405180830381600087803b158015610f4257600080fd5b505af1158015610f56573d6000803e3d6000fd5b50506040517f4f27da180000000000000000000000000000000000000000000000000000000081527f49a4584d9706380e35459e1f31e673445371b5bac20aa516f8ba8650b1843106600482015273ffffffffffffffffffffffffffffffffffffffff89169250634f27da189150602401602060405180830381865afa158015610fe4573d6000803e3d6000fd5b505050506040513d601f19601f82011682018060405250810190611008919061363d565b604080517f8d10d6de000000000000000000000000000000000000000000000000000000008152600481018590528651600390810b60248301526020880151900b604482015290860151606482015273ffffffffffffffffffffffffffffffffffffffff9190911690638d10d6de90608401600060405180830381600087803b15801561109457600080fd5b505af11580156110a8573d6000803e3d6000fd5b505050506111448673ffffffffffffffffffffffffffffffffffffffff16630d59332e6040518163ffffffff1660e01b8152600401602060405180830381865afa1580156110fa573d6000803e3d6000fd5b505050506040513d601f19601f8201168201806040525081019061111e919061363d565b7f55a378240b123ebf2519f902977dad8a3491eb8f78f47218ff6f072178de8532612985565b6040517f6ad0ccab0000000000000000000000000000000000000000000000000000000081523360048201526024810184905273ffffffffffffffffffffffffffffffffffffffff9190911690636ad0ccab906044016000604051808303816000875af11580156111b9573d6000803e3d6000fd5b505050506040513d6000823e601f3d9081017fffffffffffffffffffffffffffffffffffffffffffffffffffffffffffffffe01682016040526111ff9190810190613731565b506040517f4f27da180000000000000000000000000000000000000000000000000000000081527ff5bd2f5cb6567cf0fa832e8e7971a94af009d0ec1e329976b883c7ab50488278600482015273ffffffffffffffffffffffffffffffffffffffff871690634f27da1890602401602060405180830381865afa15801561128a573d6000803e3d6000fd5b505050506040513d601f19601f820116820180604052508101906112ae919061363d565b73ffffffffffffffffffffffffffffffffffffffff1663cccf7a8e826040518263ffffffff1660e01b81526004016112e891815260200190565b602060405180830381865afa158015611305573d6000803e3d6000fd5b505050506040513d601f19601f82011682018060405250810190611329919061365a565b1561151c5761133b8684836001612aed565b6113c7576040517f08c379a000000000000000000000000000000000000000000000000000000000815260206004820152603460248201527f5b4275696c6453797374656d5d20596f7520646f206e6f74206861766520746860448201527f65207265717569726564207265736f757263657300000000000000000000000060648201526084016102a1565b61145f8673ffffffffffffffffffffffffffffffffffffffff16630d59332e6040518163ffffffff1660e01b8152600401602060405180830381865afa158015611415573d6000803e3d6000fd5b505050506040513d601f19601f82011682018060405250810190611439919061363d565b7f260bed7a4ae2c80f17d6f2234fcc01f312c59c50933985489f350f675fc3ed14612985565b6040517f6ad0ccab0000000000000000000000000000000000000000000000000000000081523360048201526024810183905273ffffffffffffffffffffffffffffffffffffffff9190911690636ad0ccab906044016000604051808303816000875af11580156114d4573d6000803e3d6000fd5b505050506040513d6000823e601f3d9081017fffffffffffffffffffffffffffffffffffffffffffffffffffffffffffffffe016820160405261151a9190810190613731565b505b6040517f4f27da180000000000000000000000000000000000000000000000000000000081527faf90be6cd7aa92d6569a9ae629178b74e1b0fbdd1097c27ec1dfffd2dc4c7540600482015273ffffffffffffffffffffffffffffffffffffffff871690634f27da1890602401602060405180830381865afa1580156115a6573d6000803e3d6000fd5b505050506040513d601f19601f820116820180604052508101906115ca919061363d565b6040517f1ab06ee5000000000000000000000000000000000000000000000000000000008152600481018490526024810185905273ffffffffffffffffffffffffffffffffffffffff9190911690631ab06ee590604401600060405180830381600087803b15801561163b57600080fd5b505af115801561164f573d6000803e3d6000fd5b505050506000611660866001612ad1565b6040517f4f27da180000000000000000000000000000000000000000000000000000000081527fa9030fd5d2d8df4ef9e9a591c66869629e3031bc7112e7766b55d9f29321005d600482015290915073ffffffffffffffffffffffffffffffffffffffff881690634f27da1890602401602060405180830381865afa1580156116ed573d6000803e3d6000fd5b505050506040513d601f19601f82011682018060405250810190611711919061363d565b73ffffffffffffffffffffffffffffffffffffffff1663cccf7a8e826040518263ffffffff1660e01b815260040161174b91815260200190565b602060405180830381865afa158015611768573d6000803e3d6000fd5b505050506040513d601f19601f8201168201806040525081019061178c919061365a565b156118cd576118298773ffffffffffffffffffffffffffffffffffffffff16630d59332e6040518163ffffffff1660e01b8152600401602060405180830381865afa1580156117df573d6000803e3d6000fd5b505050506040513d601f19601f82011682018060405250810190611803919061363d565b7f660f6c71dbaa192b9bd9e00021efa67f00d608c104acfa0d0e42fa323f5f31e3612985565b73ffffffffffffffffffffffffffffffffffffffff166327b45099338560006040518463ffffffff1660e01b8152600401611866939291906137a8565b6000604051808303816000875af1158015611885573d6000803e3d6000fd5b505050506040513d6000823e601f3d9081017fffffffffffffffffffffffffffffffffffffffffffffffffffffffffffffffe01682016040526118cb9190810190613731565b505b6040517f4f27da180000000000000000000000000000000000000000000000000000000081527fd984664f54fc6fda5470509ef9c0e55b1727f163cfff0999a19085f3302d89f3600482015273ffffffffffffffffffffffffffffffffffffffff881690634f27da1890602401602060405180830381865afa158015611957573d6000803e3d6000fd5b505050506040513d601f19601f8201168201806040525081019061197b919061363d565b73ffffffffffffffffffffffffffffffffffffffff1663cccf7a8e826040518263ffffffff1660e01b81526004016119b591815260200190565b602060405180830381865afa1580156119d2573d6000803e3d6000fd5b505050506040513d601f19601f820116820180604052508101906119f6919061365a565b15611b3757611a938773ffffffffffffffffffffffffffffffffffffffff16630d59332e6040518163ffffffff1660e01b8152600401602060405180830381865afa158015611a49573d6000803e3d6000fd5b505050506040513d601f19601f82011682018060405250810190611a6d919061363d565b7f690f759f3a1f00ae23e931e20f0dd3a4c4600194af4ab836b252764cb88421ee612985565b73ffffffffffffffffffffffffffffffffffffffff166327b45099338560006040518463ffffffff1660e01b8152600401611ad0939291906137a8565b6000604051808303816000875af1158015611aef573d6000803e3d6000fd5b505050506040513d6000823e601f3d9081017fffffffffffffffffffffffffffffffffffffffffffffffffffffffffffffffe0168201604052611b359190810190613731565b505b6040517f4f27da180000000000000000000000000000000000000000000000000000000081527f391ed979ad48ef48aa0e385aaffe280328c830054d2153bba1cf3da0b7bf45ab600482015273ffffffffffffffffffffffffffffffffffffffff881690634f27da1890602401602060405180830381865afa158015611bc1573d6000803e3d6000fd5b505050506040513d601f19601f82011682018060405250810190611be5919061363d565b73ffffffffffffffffffffffffffffffffffffffff1663cccf7a8e826040518263ffffffff1660e01b8152600401611c1f91815260200190565b602060405180830381865afa158015611c3c573d6000803e3d6000fd5b505050506040513d601f19601f82011682018060405250810190611c60919061365a565b15611da157611cfd8773ffffffffffffffffffffffffffffffffffffffff16630d59332e6040518163ffffffff1660e01b8152600401602060405180830381865afa158015611cb3573d6000803e3d6000fd5b505050506040513d601f19601f82011682018060405250810190611cd7919061363d565b7f3b853fcf76b99875472d129abafa9494b9cc622934bd81349a2d0a8c03069f29612985565b73ffffffffffffffffffffffffffffffffffffffff166327b45099338560006040518463ffffffff1660e01b8152600401611d3a939291906137a8565b6000604051808303816000875af1158015611d59573d6000803e3d6000fd5b505050506040513d6000823e601f3d9081017fffffffffffffffffffffffffffffffffffffffffffffffffffffffffffffffe0168201604052611d9f9190810190613731565b505b6040517f4f27da180000000000000000000000000000000000000000000000000000000081527f72887d78bbad0f2696fb431d6367da7b429df07154724db7df055e27fb64080f600482015273ffffffffffffffffffffffffffffffffffffffff881690634f27da1890602401602060405180830381865afa158015611e2b573d6000803e3d6000fd5b505050506040513d601f19601f82011682018060405250810190611e4f919061363d565b73ffffffffffffffffffffffffffffffffffffffff1663cccf7a8e826040518263ffffffff1660e01b8152600401611e8991815260200190565b602060405180830381865afa158015611ea6573d6000803e3d6000fd5b505050506040513d601f19601f82011682018060405250810190611eca919061365a565b1561200b57611f678773ffffffffffffffffffffffffffffffffffffffff16630d59332e6040518163ffffffff1660e01b8152600401602060405180830381865afa158015611f1d573d6000803e3d6000fd5b505050506040513d601f19601f82011682018060405250810190611f41919061363d565b7faa8242bee50b0300451ea2c344f4e688de8f3fd6285f41dc966a799512ca9eb0612985565b73ffffffffffffffffffffffffffffffffffffffff166327b45099338560006040518463ffffffff1660e01b8152600401611fa4939291906137a8565b6000604051808303816000875af1158015611fc3573d6000803e3d6000fd5b505050506040513d6000823e601f3d9081017fffffffffffffffffffffffffffffffffffffffffffffffffffffffffffffffe01682016040526120099190810190613731565b505b6040517f4f27da180000000000000000000000000000000000000000000000000000000081527f3ed7887def160de572ade02c8436bfc219b818bf6aebb6881c66cc27bda2b5bf600482015273ffffffffffffffffffffffffffffffffffffffff881690634f27da1890602401602060405180830381865afa158015612095573d6000803e3d6000fd5b505050506040513d601f19601f820116820180604052508101906120b9919061363d565b73ffffffffffffffffffffffffffffffffffffffff1663cccf7a8e826040518263ffffffff1660e01b81526004016120f391815260200190565b602060405180830381865afa158015612110573d6000803e3d6000fd5b505050506040513d601f19601f82011682018060405250810190612134919061365a565b156125da576040517f4f27da180000000000000000000000000000000000000000000000000000000081527f9de349a5ebb25e4948f087042ac901652bc7ca239eacb04610389265e211e527600482015273ffffffffffffffffffffffffffffffffffffffff881690634f27da1890602401602060405180830381865afa1580156121c3573d6000803e3d6000fd5b505050506040513d601f19601f820116820180604052508101906121e7919061363d565b6040517f1ab06ee5000000000000000000000000000000000000000000000000000000008152600481018590526024810186905273ffffffffffffffffffffffffffffffffffffffff9190911690631ab06ee590604401600060405180830381600087803b15801561225857600080fd5b505af115801561226c573d6000803e3d6000fd5b50506040517f4f27da180000000000000000000000000000000000000000000000000000000081527f3ed7887def160de572ade02c8436bfc219b818bf6aebb6881c66cc27bda2b5bf60048201526000925073ffffffffffffffffffffffffffffffffffffffff8a169150634f27da1890602401602060405180830381865afa1580156122fd573d6000803e3d6000fd5b505050506040513d601f19601f82011682018060405250810190612321919061363d565b73ffffffffffffffffffffffffffffffffffffffff16630ff4c916836040518263ffffffff1660e01b815260040161235b91815260200190565b600060405180830381865afa158015612378573d6000803e3d6000fd5b505050506040513d6000823e601f3d9081017fffffffffffffffffffffffffffffffffffffffffffffffffffffffffffffffe01682016040526123be919081019061389b565b6040517f4f27da180000000000000000000000000000000000000000000000000000000081527fbd262b900b9f3e3d6078d7a8e45d1bee5f4fd9547063f524ac4cbf611d37b44e600482015290915060009073ffffffffffffffffffffffffffffffffffffffff8a1690634f27da1890602401602060405180830381865afa15801561244e573d6000803e3d6000fd5b505050506040513d601f19601f82011682018060405250810190612472919061363d565b905060005b82518110156125d65760006124a5848381518110612497576124976138d0565b602002602001015189612ad1565b6040517fcccf7a8e0000000000000000000000000000000000000000000000000000000081526004810182905290915073ffffffffffffffffffffffffffffffffffffffff84169063cccf7a8e90602401602060405180830381865afa158015612513573d6000803e3d6000fd5b505050506040513d601f19601f82011682018060405250810190612537919061365a565b6125c3576040517fd923c3c4000000000000000000000000000000000000000000000000000000008152600481018290526001602482015273ffffffffffffffffffffffffffffffffffffffff84169063d923c3c490604401600060405180830381600087803b1580156125aa57600080fd5b505af11580156125be573d6000803e3d6000fd5b505050505b50806125ce8161392e565b915050612477565b5050505b50505050505050565b61067f816130a5565b6040805173ffffffffffffffffffffffffffffffffffffffff84166020820152908101829052600090606001610c4e565b60408051606081018252600080825260208201819052918101919091526040517f4f27da180000000000000000000000000000000000000000000000000000000081527fcd21223913df34354e53714bb49095fd4d6a8c8d2ac1fe38f8a14e9fd673e77c600482015260009073ffffffffffffffffffffffffffffffffffffffff851690634f27da1890602401602060405180830381865afa1580156126c7573d6000803e3d6000fd5b505050506040513d601f19601f820116820180604052508101906126eb919061363d565b6040517f4f27da180000000000000000000000000000000000000000000000000000000081527f4d4b5854aad91ff8a49a13a08e0bd3844a69c01df18f29ff1176f4d7705e3352600482015290915060009073ffffffffffffffffffffffffffffffffffffffff861690634f27da1890602401602060405180830381865afa15801561277b573d6000803e3d6000fd5b505050506040513d601f19601f8201168201806040525081019061279f919061363d565b6040517f0ff4c91600000000000000000000000000000000000000000000000000000000815261060d600482015273ffffffffffffffffffffffffffffffffffffffff9190911690630ff4c916906024016040805180830381865afa15801561280c573d6000803e3d6000fd5b505050506040513d601f19601f820116820180604052508101906128309190613966565b905063ffffffff841660005b61287c61284883613151565b60408051606081018252600091810191909152602082811c600390810b835263ffffffff90931690920b9181019190915290565b835181519196506128969161289191906139a3565b6131a2565b60030b8552602080840151908601516128b291612891916139a3565b60030b602086015273ffffffffffffffffffffffffffffffffffffffff841663cccf7a8e6128fc87805160209182015167ffffffff000000009190921b1663ffffffff9091161790565b6040518263ffffffff1660e01b815260040161291a91815260200190565b602060405180830381865afa158015612937573d6000803e3d6000fd5b505050506040513d601f19601f8201168201806040525081019061295b919061365a565b61296757506001612975565b6129728260016139ec565b91505b801561283c575050505092915050565b6040517ffbdfa1ea00000000000000000000000000000000000000000000000000000000815260048101829052600090819073ffffffffffffffffffffffffffffffffffffffff85169063fbdfa1ea90602401600060405180830381865afa1580156129f5573d6000803e3d6000fd5b505050506040513d6000823e601f3d9081017fffffffffffffffffffffffffffffffffffffffffffffffffffffffffffffffe0168201604052612a3b919081019061389b565b90508051600003612aa8576040517f08c379a000000000000000000000000000000000000000000000000000000000815260206004820152601160248201527f6964206e6f74207265676973746572656400000000000000000000000000000060448201526064016102a1565b612ac981600081518110612abe57612abe6138d0565b602002602001015190565b949350505050565b6040805160208101849052908101829052600090606001610c4e565b6040517f4f27da180000000000000000000000000000000000000000000000000000000081527ff5bd2f5cb6567cf0fa832e8e7971a94af009d0ec1e329976b883c7ab504882786004820152600090819073ffffffffffffffffffffffffffffffffffffffff871690634f27da1890602401602060405180830381865afa158015612b7c573d6000803e3d6000fd5b505050506040513d601f19601f82011682018060405250810190612ba0919061363d565b6040517f4f27da180000000000000000000000000000000000000000000000000000000081527ffba48a04766694c16713a414735f83be9cb20bbb29b5e18846cc8f1510640845600482015290915060009073ffffffffffffffffffffffffffffffffffffffff881690634f27da1890602401602060405180830381865afa158015612c30573d6000803e3d6000fd5b505050506040513d601f19601f82011682018060405250810190612c54919061363d565b6040517fcccf7a8e0000000000000000000000000000000000000000000000000000000081526004810187905290915073ffffffffffffffffffffffffffffffffffffffff83169063cccf7a8e90602401602060405180830381865afa158015612cc2573d6000803e3d6000fd5b505050506040513d601f19601f82011682018060405250810190612ce6919061365a565b612cf557600192505050612ac9565b6040517f4f27da180000000000000000000000000000000000000000000000000000000081527f222d9674c2fee077bc82c84232803a9168906e2be25c4560d094c76895b8a432600482015260009073ffffffffffffffffffffffffffffffffffffffff891690634f27da1890602401602060405180830381865afa158015612d82573d6000803e3d6000fd5b505050506040513d601f19601f82011682018060405250810190612da6919061363d565b6040517f4f27da180000000000000000000000000000000000000000000000000000000081527fe95fc307e3922a4ed7e1a9d135b2e79aad91e806428d8c7ec9a376dfc8aede5e600482015290915060009073ffffffffffffffffffffffffffffffffffffffff8a1690634f27da1890602401602060405180830381865afa158015612e36573d6000803e3d6000fd5b505050506040513d601f19601f82011682018060405250810190612e5a919061363d565b6040517f0ff4c9160000000000000000000000000000000000000000000000000000000081526004810189905290915060009073ffffffffffffffffffffffffffffffffffffffff861690630ff4c91690602401600060405180830381865afa158015612ecb573d6000803e3d6000fd5b505050506040513d6000823e601f3d9081017fffffffffffffffffffffffffffffffffffffffffffffffffffffffffffffffe0168201604052612f119190810190613a13565b905060005b8151518110156130945760008883602001518381518110612f3957612f396138d0565b6020026020010151612f4b9190613b03565b90506000612f7684600001518481518110612f6857612f686138d0565b60200260200101518d612ad1565b90506000612f8488836131bd565b90506000612f9288846131bd565b63ffffffff16111561305857612fa886836132f0565b612fb29043613b2b565b6040517f0ff4c9160000000000000000000000000000000000000000000000000000000081526004810184905273ffffffffffffffffffffffffffffffffffffffff891690630ff4c91690602401602060405180830381865afa15801561301d573d6000803e3d6000fd5b505050506040513d601f19601f820116820180604052508101906130419190613b3e565b61304b9190613b03565b6130559082613b59565b90505b8063ffffffff168363ffffffff16111561307e5760009950505050505050505050612ac9565b505050808061308c9061392e565b915050612f16565b5060019a9950505050505050505050565b7f8a22373512790c48b83a1fe2efdd2888d4a917bcdc24d0adf63e60f671680460805460405173ffffffffffffffffffffffffffffffffffffffff8481169216907f8be0079c531659141344cd1fd0a4f28419497f9722a3daafe3b4186f6b6457e090600090a380547fffffffffffffffffffffffff00000000000000000000000000000000000000001673ffffffffffffffffffffffffffffffffffffffff92909216919091179055565b60008160405160200161316691815260200190565b604080517fffffffffffffffffffffffffffffffffffffffffffffffffffffffffffffffe0818403018152919052805160209091012092915050565b6000808260030b126131b45781610c6a565b610c6a82613b7d565b6040517fcccf7a8e0000000000000000000000000000000000000000000000000000000081526004810182905260009073ffffffffffffffffffffffffffffffffffffffff84169063cccf7a8e90602401602060405180830381865afa15801561322b573d6000803e3d6000fd5b505050506040513d601f19601f8201168201806040525081019061324f919061365a565b61325a5760006132e9565b6040517f0ff4c9160000000000000000000000000000000000000000000000000000000081526004810183905273ffffffffffffffffffffffffffffffffffffffff841690630ff4c91690602401602060405180830381865afa1580156132c5573d6000803e3d6000fd5b505050506040513d601f19601f820116820180604052508101906132e99190613b3e565b9392505050565b6040517fcccf7a8e0000000000000000000000000000000000000000000000000000000081526004810182905260009073ffffffffffffffffffffffffffffffffffffffff84169063cccf7a8e90602401602060405180830381865afa15801561335e573d6000803e3d6000fd5b505050506040513d601f19601f82011682018060405250810190613382919061365a565b61338d5760006132e9565b6040517f0ff4c9160000000000000000000000000000000000000000000000000000000081526004810183905273ffffffffffffffffffffffffffffffffffffffff841690630ff4c91690602401602060405180830381865afa1580156133f8573d6000803e3d6000fd5b505050506040513d601f19601f820116820180604052508101906132e99190613bbb565b7f4e487b7100000000000000000000000000000000000000000000000000000000600052604160045260246000fd5b6040805190810167ffffffffffffffff8111828210171561346e5761346e61341c565b60405290565b604051601f82017fffffffffffffffffffffffffffffffffffffffffffffffffffffffffffffffe016810167ffffffffffffffff811182821017156134bb576134bb61341c565b604052919050565b600067ffffffffffffffff8211156134dd576134dd61341c565b50601f017fffffffffffffffffffffffffffffffffffffffffffffffffffffffffffffffe01660200190565b60006020828403121561351b57600080fd5b813567ffffffffffffffff81111561353257600080fd5b8201601f8101841361354357600080fd5b8035613556613551826134c3565b613474565b81815285602083850101111561356b57600080fd5b81602084016020830137600091810160200191909152949350505050565b60005b838110156135a457818101518382015260200161358c565b50506000910152565b60208152600082518060208401526135cc816040850160208701613589565b601f017fffffffffffffffffffffffffffffffffffffffffffffffffffffffffffffffe0169190910160400192915050565b73ffffffffffffffffffffffffffffffffffffffff8116811461067f57600080fd5b60006020828403121561363257600080fd5b81356132e9816135fe565b60006020828403121561364f57600080fd5b81516132e9816135fe565b60006020828403121561366c57600080fd5b815180151581146132e957600080fd5b8051600381900b811461368e57600080fd5b919050565b6000606082840312156136a557600080fd5b6040516060810181811067ffffffffffffffff821117156136c8576136c861341c565b6040526136d48361367c565b81526136e26020840161367c565b6020820152604083015160408201528091505092915050565b6000855161370d818460208a01613589565b60e095861b9201918252509190921b60048201526008810191909152602801919050565b60006020828403121561374357600080fd5b815167ffffffffffffffff81111561375a57600080fd5b8201601f8101841361376b57600080fd5b8051613779613551826134c3565b81815285602083850101111561378e57600080fd5b61379f826020830160208601613589565b95945050505050565b73ffffffffffffffffffffffffffffffffffffffff84168152602081018390526060810160038310613803577f4e487b7100000000000000000000000000000000000000000000000000000000600052602160045260246000fd5b826040830152949350505050565b600067ffffffffffffffff82111561382b5761382b61341c565b5060051b60200190565b600082601f83011261384657600080fd5b8151602061385661355183613811565b82815260059290921b8401810191818101908684111561387557600080fd5b8286015b848110156138905780518352918301918301613879565b509695505050505050565b6000602082840312156138ad57600080fd5b815167ffffffffffffffff8111156138c457600080fd5b612ac984828501613835565b7f4e487b7100000000000000000000000000000000000000000000000000000000600052603260045260246000fd5b7f4e487b7100000000000000000000000000000000000000000000000000000000600052601160045260246000fd5b60007fffffffffffffffffffffffffffffffffffffffffffffffffffffffffffffffff820361395f5761395f6138ff565b5060010190565b60006040828403121561397857600080fd5b61398061344b565b6139898361367c565b81526139976020840161367c565b60208201529392505050565b60008260030b806139dd577f4e487b7100000000000000000000000000000000000000000000000000000000600052601260045260246000fd5b808360030b0791505092915050565b80820180821115610c6a57610c6a6138ff565b805163ffffffff8116811461368e57600080fd5b60006020808385031215613a2657600080fd5b825167ffffffffffffffff80821115613a3e57600080fd5b9084019060408287031215613a5257600080fd5b613a5a61344b565b825182811115613a6957600080fd5b613a7588828601613835565b8252508383015182811115613a8957600080fd5b80840193505086601f840112613a9e57600080fd5b82519150613aae61355183613811565b82815260059290921b83018401918481019088841115613acd57600080fd5b938501935b83851015613af257613ae3856139ff565b82529385019390850190613ad2565b948201949094529695505050505050565b63ffffffff818116838216028082169190828114613b2357613b236138ff565b505092915050565b81810381811115610c6a57610c6a6138ff565b600060208284031215613b5057600080fd5b6132e9826139ff565b63ffffffff818116838216019080821115613b7657613b766138ff565b5092915050565b60008160030b7fffffffffffffffffffffffffffffffffffffffffffffffffffffffff800000008103613bb257613bb26138ff565b60000392915050565b600060208284031215613bcd57600080fd5b505191905056fea2646970667358221220435d70151bc4d38d7b2e7f9283230edb2bf1a36177d5e11e19288508ae6a3d5b64736f6c63430008130033",
    "linkReferences": {}
  },
  "methodIdentifiers": {
    "execute(bytes)": "09c5eabe",
    "executeTyped()": "e1df4ba6",
    "owner()": "8da5cb5b",
    "transferOwnership(address)": "f2fde38b"
  },
  "id": 179
}