{
  "abi": [
    {
      "inputs": [
        {
          "internalType": "contract IWorld",
          "name": "_world",
          "type": "address"
        },
        {
          "internalType": "address",
          "name": "_components",
          "type": "address"
        }
      ],
      "stateMutability": "nonpayable",
      "type": "constructor"
    },
    {
      "inputs": [],
      "name": "Ownable__NotOwner",
      "type": "error"
    },
    {
      "inputs": [],
      "name": "Ownable__NotTransitiveOwner",
      "type": "error"
    },
    {
      "anonymous": false,
      "inputs": [
        {
          "indexed": true,
          "internalType": "address",
          "name": "previousOwner",
          "type": "address"
        },
        {
          "indexed": true,
          "internalType": "address",
          "name": "newOwner",
          "type": "address"
        }
      ],
      "name": "OwnershipTransferred",
      "type": "event"
    },
    {
      "inputs": [
        {
          "internalType": "bytes",
          "name": "args",
          "type": "bytes"
        }
      ],
      "name": "execute",
      "outputs": [
        {
          "internalType": "bytes",
          "name": "",
          "type": "bytes"
        }
      ],
      "stateMutability": "nonpayable",
      "type": "function"
    },
    {
      "inputs": [
        {
          "internalType": "uint256",
          "name": "buildingEntity",
          "type": "uint256"
        },
        {
          "internalType": "uint256",
          "name": "unitType",
          "type": "uint256"
        },
        {
          "internalType": "uint32",
          "name": "count",
          "type": "uint32"
        }
      ],
      "name": "executeTyped",
      "outputs": [
        {
          "internalType": "bytes",
          "name": "",
          "type": "bytes"
        }
      ],
      "stateMutability": "nonpayable",
      "type": "function"
    },
    {
      "inputs": [],
      "name": "owner",
      "outputs": [
        {
          "internalType": "address",
          "name": "",
          "type": "address"
        }
      ],
      "stateMutability": "view",
      "type": "function"
    },
    {
      "inputs": [
        {
          "internalType": "address",
          "name": "account",
          "type": "address"
        }
      ],
      "name": "transferOwnership",
      "outputs": [],
      "stateMutability": "nonpayable",
      "type": "function"
    }
  ],
  "bytecode": {
    "object": "0x60806040523480156200001157600080fd5b50604051620033e1380380620033e18339810160408190526200003491620001e0565b8181818162000043336200014d565b6001600160a01b038116156200005a5780620000bf565b816001600160a01b031663ba62fbe46040518163ffffffff1660e01b8152600401602060405180830381865afa15801562000099573d6000803e3d6000fd5b505050506040513d601f19601f82011682018060405250810190620000bf91906200021f565b600080546001600160a01b039283166001600160a01b0319918216811790925560018054938616938216841790557ff67304f10c7772c78e439bc5cb07781db345424de8878c18100fdaa64d197a87805482169093179092557ff67304f10c7772c78e439bc5cb07781db345424de8878c18100fdaa64d197a86805490921617905550505050505062000246565b7f8a22373512790c48b83a1fe2efdd2888d4a917bcdc24d0adf63e60f67168046080546040516001600160a01b038481169216907f8be0079c531659141344cd1fd0a4f28419497f9722a3daafe3b4186f6b6457e090600090a380546001600160a01b0319166001600160a01b0392909216919091179055565b6001600160a01b0381168114620001dd57600080fd5b50565b60008060408385031215620001f457600080fd5b82516200020181620001c7565b60208401519092506200021481620001c7565b809150509250929050565b6000602082840312156200023257600080fd5b81516200023f81620001c7565b9392505050565b61318b80620002566000396000f3fe608060405234801561001057600080fd5b506004361061004c5760003560e01c806309c5eabe14610051578063313dbb191461007a5780638da5cb5b1461008d578063f2fde38b146100ba575b600080fd5b61006461005f366004612c02565b6100cf565b6040516100719190612ca6565b60405180910390f35b610064610088366004612d09565b610d0e565b610095610d55565b60405173ffffffffffffffffffffffffffffffffffffffff9091168152602001610071565b6100cd6100c8366004612d64565b610d9a565b005b60606000806000848060200190518101906100ea9190612d81565b6001549295509093509150339060009061011b9073ffffffffffffffffffffffffffffffffffffffff168386610e16565b60015463ffffffff91909116915061014a9073ffffffffffffffffffffffffffffffffffffffff168686610f02565b6101db576040517f08c379a000000000000000000000000000000000000000000000000000000000815260206004820152602f60248201527f5b547261696e556e69747353797374656d5d204275696c64696e672063616e6e60448201527f6f742070726f6475636520756e6974000000000000000000000000000000000060648201526084015b60405180910390fd5b6001546102009073ffffffffffffffffffffffffffffffffffffffff168386866113fc565b6102b2576040517f08c379a000000000000000000000000000000000000000000000000000000000815260206004820152604160248201527f5b547261696e556e69747353797374656d5d20596f7520646f206e6f7420686160448201527f766520746865207265717569726564205574696c697479207265736f7572636560648201527f7300000000000000000000000000000000000000000000000000000000000000608482015260a4016101d2565b6102db7ff5bd2f5cb6567cf0fa832e8e7971a94af009d0ec1e329976b883c7ab504882786118f7565b73ffffffffffffffffffffffffffffffffffffffff1663cccf7a8e826040518263ffffffff1660e01b815260040161031591815260200190565b602060405180830381865afa158015610332573d6000803e3d6000fd5b505050506040513d601f19601f820116820180604052508101906103569190612daf565b15610590576001546103809073ffffffffffffffffffffffffffffffffffffffff16838386611921565b61040c576040517f08c379a000000000000000000000000000000000000000000000000000000000815260206004820152603960248201527f5b547261696e556e69747353797374656d5d20596f7520646f206e6f7420686160448201527f766520746865207265717569726564207265736f75726365730000000000000060648201526084016101d2565b600154604080517f0d59332e00000000000000000000000000000000000000000000000000000000815290516104c79273ffffffffffffffffffffffffffffffffffffffff1691630d59332e9160048083019260209291908290030181865afa15801561047d573d6000803e3d6000fd5b505050506040513d601f19601f820116820180604052508101906104a19190612dd1565b7f260bed7a4ae2c80f17d6f2234fcc01f312c59c50933985489f350f675fc3ed14611eef565b6040517f6c0b7ef70000000000000000000000000000000000000000000000000000000081523360048201526024810183905263ffffffff8516604482015273ffffffffffffffffffffffffffffffffffffffff9190911690636c0b7ef7906064016000604051808303816000875af1158015610548573d6000803e3d6000fd5b505050506040513d6000823e601f3d9081017fffffffffffffffffffffffffffffffffffffffffffffffffffffffffffffffe016820160405261058e9190810190612dee565b505b6105b97f391ed979ad48ef48aa0e385aaffe280328c830054d2153bba1cf3da0b7bf45ab6118f7565b73ffffffffffffffffffffffffffffffffffffffff1663cccf7a8e826040518263ffffffff1660e01b81526004016105f391815260200190565b602060405180830381865afa158015610610573d6000803e3d6000fd5b505050506040513d601f19601f820116820180604052508101906106349190612daf565b1561066957610669600160009054906101000a900473ffffffffffffffffffffffffffffffffffffffff168386866001612033565b60006106947ff29be3703a45a0eb1de636e3441bf1955765a4209e0846e136e7b5a0940aa9596118f7565b905060006106c17fbc8e22f24f6044e355309bd5acf8876066c99bf3cf9d498a4dfea5ebf331f17b6118f7565b6040517fcccf7a8e0000000000000000000000000000000000000000000000000000000081526004810189905290915073ffffffffffffffffffffffffffffffffffffffff82169063cccf7a8e90602401602060405180830381865afa15801561072f573d6000803e3d6000fd5b505050506040513d601f19601f820116820180604052508101906107539190612daf565b156108d457600154604080517f0d59332e00000000000000000000000000000000000000000000000000000000815290516108139273ffffffffffffffffffffffffffffffffffffffff1691630d59332e9160048083019260209291908290030181865afa1580156107c9573d6000803e3d6000fd5b505050506040513d601f19601f820116820180604052508101906107ed9190612dd1565b7f1c8c4c0d7070613dcc85882b83124208d48db8fc94e31f95aa2cfa248c732015611eef565b6040517f6ad0ccab0000000000000000000000000000000000000000000000000000000081523360048201526024810189905273ffffffffffffffffffffffffffffffffffffffff9190911690636ad0ccab906044016000604051808303816000875af1158015610888573d6000803e3d6000fd5b505050506040513d6000823e601f3d9081017fffffffffffffffffffffffffffffffffffffffffffffffffffffffffffffffe01682016040526108ce9190810190612dee565b50610986565b6108fd7fe95fc307e3922a4ed7e1a9d135b2e79aad91e806428d8c7ec9a376dfc8aede5e6118f7565b6040517f1ab06ee50000000000000000000000000000000000000000000000000000000081526004810189905243602482015273ffffffffffffffffffffffffffffffffffffffff9190911690631ab06ee590604401600060405180830381600087803b15801561096d57600080fd5b505af1158015610981573d6000803e3d6000fd5b505050505b6040517fcccf7a8e0000000000000000000000000000000000000000000000000000000081526004810188905260009073ffffffffffffffffffffffffffffffffffffffff83169063cccf7a8e90602401602060405180830381865afa1580156109f4573d6000803e3d6000fd5b505050506040513d601f19601f82011682018060405250810190610a189190612daf565b15610abe576040517f0ff4c9160000000000000000000000000000000000000000000000000000000081526004810189905273ffffffffffffffffffffffffffffffffffffffff841690630ff4c91690602401602060405180830381865afa158015610a88573d6000803e3d6000fd5b505050506040513d601f19601f82011682018060405250810190610aac9190612e5c565b610ab7906001612ea8565b9050610b4b565b6040517fd923c3c40000000000000000000000000000000000000000000000000000000081526004810189905263ffffffff8216602482015273ffffffffffffffffffffffffffffffffffffffff83169063d923c3c490604401600060405180830381600087803b158015610b3257600080fd5b505af1158015610b46573d6000803e3d6000fd5b505050505b6040517fd923c3c40000000000000000000000000000000000000000000000000000000081526004810189905263ffffffff8216602482015273ffffffffffffffffffffffffffffffffffffffff84169063d923c3c490604401600060405180830381600087803b158015610bbf57600080fd5b505af1158015610bd3573d6000803e3d6000fd5b50506040805160208082018d905263ffffffff861682840152825180830384018152606090920190925280519101209150610c2f90507f5b9d688a4f4d7f660846f39f20b66c2b0fe7a6e38d8e4ad354c58102d0fb93456118f7565b6040805180820182528a815263ffffffff808b166020830190815292517f95699b3700000000000000000000000000000000000000000000000000000000815260048101869052915160248301529151909116604482015273ffffffffffffffffffffffffffffffffffffffff91909116906395699b3790606401600060405180830381600087803b158015610cc457600080fd5b505af1158015610cd8573d6000803e3d6000fd5b5050505088604051602001610cef91815260200190565b6040516020818303038152906040529950505050505050505050919050565b604080516020810185905290810183905263ffffffff821660608281019190915290610d4b906080016040516020818303038152906040526100cf565b90505b9392505050565b6000610d957f8a22373512790c48b83a1fe2efdd2888d4a917bcdc24d0adf63e60f6716804605473ffffffffffffffffffffffffffffffffffffffff1690565b905090565b7f8a22373512790c48b83a1fe2efdd2888d4a917bcdc24d0adf63e60f6716804605473ffffffffffffffffffffffffffffffffffffffff163314610e0a576040517f2f7a8ee100000000000000000000000000000000000000000000000000000000815260040160405180910390fd5b610e13816126a6565b50565b604080516020808201849052818301859052825180830384018152606083019384905280519101207f4f27da18000000000000000000000000000000000000000000000000000000009092527fbd262b900b9f3e3d6078d7a8e45d1bee5f4fd9547063f524ac4cbf611d37b44e606482015260009190610ef99073ffffffffffffffffffffffffffffffffffffffff871690634f27da18906084015b602060405180830381865afa158015610ecf573d6000803e3d6000fd5b505050506040513d601f19601f82011682018060405250810190610ef39190612dd1565b826126af565b95945050505050565b6040517f4f27da180000000000000000000000000000000000000000000000000000000081527f3ed7887def160de572ade02c8436bfc219b818bf6aebb6881c66cc27bda2b5bf6004820152600090819073ffffffffffffffffffffffffffffffffffffffff861690634f27da1890602401602060405180830381865afa158015610f91573d6000803e3d6000fd5b505050506040513d601f19601f82011682018060405250810190610fb59190612dd1565b6040517f4f27da180000000000000000000000000000000000000000000000000000000081527f7562ebb298d855e68fb2922ace89e271e36c031fb473ee4be72f900215d523c5600482015290915060009073ffffffffffffffffffffffffffffffffffffffff871690634f27da1890602401602060405180830381865afa158015611045573d6000803e3d6000fd5b505050506040513d601f19601f820116820180604052508101906110699190612dd1565b73ffffffffffffffffffffffffffffffffffffffff16630ff4c916866040518263ffffffff1660e01b81526004016110a391815260200190565b602060405180830381865afa1580156110c0573d6000803e3d6000fd5b505050506040513d601f19601f820116820180604052508101906110e49190612ecc565b6040517f4f27da180000000000000000000000000000000000000000000000000000000081527fbd262b900b9f3e3d6078d7a8e45d1bee5f4fd9547063f524ac4cbf611d37b44e600482015290915060009073ffffffffffffffffffffffffffffffffffffffff881690634f27da1890602401602060405180830381865afa158015611174573d6000803e3d6000fd5b505050506040513d601f19601f820116820180604052508101906111989190612dd1565b73ffffffffffffffffffffffffffffffffffffffff16630ff4c916876040518263ffffffff1660e01b81526004016111d291815260200190565b602060405180830381865afa1580156111ef573d6000803e3d6000fd5b505050506040513d601f19601f820116820180604052508101906112139190612e5c565b60408051602080820186905263ffffffff841682840152825180830384018152606090920190925280519101209091506000906040517fcccf7a8e0000000000000000000000000000000000000000000000000000000081526004810182905290915073ffffffffffffffffffffffffffffffffffffffff85169063cccf7a8e90602401602060405180830381865afa1580156112b4573d6000803e3d6000fd5b505050506040513d601f19601f820116820180604052508101906112d89190612daf565b6112e9576000945050505050610d4e565b6040517f0ff4c9160000000000000000000000000000000000000000000000000000000081526004810182905260009073ffffffffffffffffffffffffffffffffffffffff861690630ff4c91690602401600060405180830381865afa158015611357573d6000803e3d6000fd5b505050506040513d6000823e601f3d9081017fffffffffffffffffffffffffffffffffffffffffffffffffffffffffffffffe016820160405261139d9190810190612f6f565b905060005b81518110156113ec57878282815181106113be576113be612fa4565b6020026020010151036113da5760019650505050505050610d4e565b806113e481612fd3565b9150506113a2565b5060009998505050505050505050565b6040517f4f27da180000000000000000000000000000000000000000000000000000000081527f391ed979ad48ef48aa0e385aaffe280328c830054d2153bba1cf3da0b7bf45ab6004820152600090819073ffffffffffffffffffffffffffffffffffffffff871690634f27da1890602401602060405180830381865afa15801561148b573d6000803e3d6000fd5b505050506040513d601f19601f820116820180604052508101906114af9190612dd1565b6040517f4f27da180000000000000000000000000000000000000000000000000000000081527fbd262b900b9f3e3d6078d7a8e45d1bee5f4fd9547063f524ac4cbf611d37b44e600482015290915060009073ffffffffffffffffffffffffffffffffffffffff881690634f27da1890602401602060405180830381865afa15801561153f573d6000803e3d6000fd5b505050506040513d601f19601f820116820180604052508101906115639190612dd1565b73ffffffffffffffffffffffffffffffffffffffff16630ff4c9166115af8789604080516020808201949094528082019290925280518083038201815260609092019052805191012090565b6040518263ffffffff1660e01b81526004016115cd91815260200190565b602060405180830381865afa1580156115ea573d6000803e3d6000fd5b505050506040513d601f19601f8201168201806040525081019061160e9190612e5c565b60408051602080820189905263ffffffff841682840152825180830384018152606090920190925280519101209091506000906040517fcccf7a8e0000000000000000000000000000000000000000000000000000000081526004810182905290915073ffffffffffffffffffffffffffffffffffffffff84169063cccf7a8e90602401602060405180830381865afa1580156116af573d6000803e3d6000fd5b505050506040513d601f19601f820116820180604052508101906116d39190612daf565b6116e357600193505050506118ef565b6040517f0ff4c9160000000000000000000000000000000000000000000000000000000081526004810182905260009073ffffffffffffffffffffffffffffffffffffffff851690630ff4c91690602401600060405180830381865afa158015611751573d6000803e3d6000fd5b505050506040513d6000823e601f3d9081017fffffffffffffffffffffffffffffffffffffffffffffffffffffffffffffffe0168201604052611797919081019061300b565b516040517f0ff4c9160000000000000000000000000000000000000000000000000000000081526004810184905290915060009073ffffffffffffffffffffffffffffffffffffffff861690630ff4c91690602401600060405180830381865afa158015611809573d6000803e3d6000fd5b505050506040513d6000823e601f3d9081017fffffffffffffffffffffffffffffffffffffffffffffffffffffffffffffffe016820160405261184f919081019061300b565b60200151905060005b82518110156118e45760008883838151811061187657611876612fa4565b602002602001015161188891906130fd565b90508063ffffffff166118b58d8d8786815181106118a8576118a8612fa4565b60200260200101516127db565b63ffffffff1610156118d15760009750505050505050506118ef565b50806118dc81612fd3565b915050611858565b506001955050505050505b949350505050565b6000805461191b9073ffffffffffffffffffffffffffffffffffffffff1683611eef565b92915050565b6040517f4f27da180000000000000000000000000000000000000000000000000000000081527ff5bd2f5cb6567cf0fa832e8e7971a94af009d0ec1e329976b883c7ab504882786004820152600090819073ffffffffffffffffffffffffffffffffffffffff871690634f27da1890602401602060405180830381865afa1580156119b0573d6000803e3d6000fd5b505050506040513d601f19601f820116820180604052508101906119d49190612dd1565b6040517f4f27da180000000000000000000000000000000000000000000000000000000081527ffba48a04766694c16713a414735f83be9cb20bbb29b5e18846cc8f1510640845600482015290915060009073ffffffffffffffffffffffffffffffffffffffff881690634f27da1890602401602060405180830381865afa158015611a64573d6000803e3d6000fd5b505050506040513d601f19601f82011682018060405250810190611a889190612dd1565b6040517fcccf7a8e0000000000000000000000000000000000000000000000000000000081526004810187905290915073ffffffffffffffffffffffffffffffffffffffff83169063cccf7a8e90602401602060405180830381865afa158015611af6573d6000803e3d6000fd5b505050506040513d601f19601f82011682018060405250810190611b1a9190612daf565b611b29576001925050506118ef565b6040517f4f27da180000000000000000000000000000000000000000000000000000000081527f222d9674c2fee077bc82c84232803a9168906e2be25c4560d094c76895b8a432600482015260009073ffffffffffffffffffffffffffffffffffffffff891690634f27da1890602401602060405180830381865afa158015611bb6573d6000803e3d6000fd5b505050506040513d601f19601f82011682018060405250810190611bda9190612dd1565b6040517f4f27da180000000000000000000000000000000000000000000000000000000081527fe95fc307e3922a4ed7e1a9d135b2e79aad91e806428d8c7ec9a376dfc8aede5e600482015290915060009073ffffffffffffffffffffffffffffffffffffffff8a1690634f27da1890602401602060405180830381865afa158015611c6a573d6000803e3d6000fd5b505050506040513d601f19601f82011682018060405250810190611c8e9190612dd1565b6040517f0ff4c9160000000000000000000000000000000000000000000000000000000081526004810189905290915060009073ffffffffffffffffffffffffffffffffffffffff861690630ff4c91690602401600060405180830381865afa158015611cff573d6000803e3d6000fd5b505050506040513d6000823e601f3d9081017fffffffffffffffffffffffffffffffffffffffffffffffffffffffffffffffe0168201604052611d45919081019061300b565b905060005b8151518110156118e45760008883602001518381518110611d6d57611d6d612fa4565b6020026020010151611d7f91906130fd565b90506000611dd184600001518481518110611d9c57611d9c612fa4565b60200260200101518d604080516020808201949094528082019290925280518083038201815260609092019052805191012090565b90506000611ddf88836126af565b90506000611ded88846126af565b63ffffffff161115611eb357611e03868361293d565b611e0d9043613125565b6040517f0ff4c9160000000000000000000000000000000000000000000000000000000081526004810184905273ffffffffffffffffffffffffffffffffffffffff891690630ff4c91690602401602060405180830381865afa158015611e78573d6000803e3d6000fd5b505050506040513d601f19601f82011682018060405250810190611e9c9190612e5c565b611ea691906130fd565b611eb09082612ea8565b90505b8063ffffffff168363ffffffff161115611ed957600099505050505050505050506118ef565b5050508080611ee790612fd3565b915050611d4a565b6040517ffbdfa1ea00000000000000000000000000000000000000000000000000000000815260048101829052600090819073ffffffffffffffffffffffffffffffffffffffff85169063fbdfa1ea90602401600060405180830381865afa158015611f5f573d6000803e3d6000fd5b505050506040513d6000823e601f3d9081017fffffffffffffffffffffffffffffffffffffffffffffffffffffffffffffffe0168201604052611fa59190810190612f6f565b90508051600003612012576040517f08c379a000000000000000000000000000000000000000000000000000000000815260206004820152601160248201527f6964206e6f74207265676973746572656400000000000000000000000000000060448201526064016101d2565b6118ef8160008151811061202857612028612fa4565b602002602001015190565b6040517f4f27da180000000000000000000000000000000000000000000000000000000081527f391ed979ad48ef48aa0e385aaffe280328c830054d2153bba1cf3da0b7bf45ab600482015260009073ffffffffffffffffffffffffffffffffffffffff871690634f27da1890602401602060405180830381865afa1580156120c0573d6000803e3d6000fd5b505050506040513d601f19601f820116820180604052508101906120e49190612dd1565b6040517f4f27da180000000000000000000000000000000000000000000000000000000081527fbd262b900b9f3e3d6078d7a8e45d1bee5f4fd9547063f524ac4cbf611d37b44e600482015290915060009073ffffffffffffffffffffffffffffffffffffffff881690634f27da1890602401602060405180830381865afa158015612174573d6000803e3d6000fd5b505050506040513d601f19601f820116820180604052508101906121989190612dd1565b73ffffffffffffffffffffffffffffffffffffffff16630ff4c9166121e48789604080516020808201949094528082019290925280518083038201815260609092019052805191012090565b6040518263ffffffff1660e01b815260040161220291815260200190565b602060405180830381865afa15801561221f573d6000803e3d6000fd5b505050506040513d601f19601f820116820180604052508101906122439190612e5c565b60408051602080820189905263ffffffff841682840152825180830384018152606090920190925280519101209091506000906040517fcccf7a8e0000000000000000000000000000000000000000000000000000000081526004810182905290915073ffffffffffffffffffffffffffffffffffffffff84169063cccf7a8e90602401602060405180830381865afa1580156122e4573d6000803e3d6000fd5b505050506040513d601f19601f820116820180604052508101906123089190612daf565b6123145750505061269f565b6040517f4f27da180000000000000000000000000000000000000000000000000000000081527f4f2e352c22f4d6e8661eee4a98890fa6dfead6e74bc680ee4c52da1cc198d7c9600482015260009073ffffffffffffffffffffffffffffffffffffffff8a1690634f27da1890602401602060405180830381865afa1580156123a1573d6000803e3d6000fd5b505050506040513d601f19601f820116820180604052508101906123c59190612dd1565b6040517f0ff4c9160000000000000000000000000000000000000000000000000000000081526004810184905290915060009073ffffffffffffffffffffffffffffffffffffffff861690630ff4c91690602401600060405180830381865afa158015612436573d6000803e3d6000fd5b505050506040513d6000823e601f3d9081017fffffffffffffffffffffffffffffffffffffffffffffffffffffffffffffffe016820160405261247c919081019061300b565b516040517f0ff4c9160000000000000000000000000000000000000000000000000000000081526004810185905290915060009073ffffffffffffffffffffffffffffffffffffffff871690630ff4c91690602401600060405180830381865afa1580156124ee573d6000803e3d6000fd5b505050506040513d6000823e601f3d9081017fffffffffffffffffffffffffffffffffffffffffffffffffffffffffffffffe0168201604052612534919081019061300b565b60200151905060005b82518110156126975760008983838151811061255b5761255b612fa4565b602002602001015161256d91906130fd565b905060006125bb85848151811061258657612586612fa4565b60200260200101518e604080516020808201949094528082019290925280518083038201815260609092019052805191012090565b90508573ffffffffffffffffffffffffffffffffffffffff1663d923c3c4828c6125f957846125ea8a866126af565b6125f49190613138565b61260e565b846126048a866126af565b61260e9190612ea8565b6040517fffffffff0000000000000000000000000000000000000000000000000000000060e085901b168152600481019290925263ffffffff166024820152604401600060405180830381600087803b15801561266a57600080fd5b505af115801561267e573d6000803e3d6000fd5b505050505050808061268f90612fd3565b91505061253d565b505050505050505b5050505050565b610e1381612a69565b6040517fcccf7a8e0000000000000000000000000000000000000000000000000000000081526004810182905260009073ffffffffffffffffffffffffffffffffffffffff84169063cccf7a8e90602401602060405180830381865afa15801561271d573d6000803e3d6000fd5b505050506040513d601f19601f820116820180604052508101906127419190612daf565b61274c576000610d4e565b6040517f0ff4c9160000000000000000000000000000000000000000000000000000000081526004810183905273ffffffffffffffffffffffffffffffffffffffff841690630ff4c91690602401602060405180830381865afa1580156127b7573d6000803e3d6000fd5b505050506040513d601f19601f82011682018060405250810190610d4e9190612e5c565b604080516020808201849052818301859052825180830384018152606083019384905280519101207f4f27da18000000000000000000000000000000000000000000000000000000009092527f4f2e352c22f4d6e8661eee4a98890fa6dfead6e74bc680ee4c52da1cc198d7c960648201526000919061287b9073ffffffffffffffffffffffffffffffffffffffff871690634f27da1890608401610eb2565b6040517f4f27da180000000000000000000000000000000000000000000000000000000081527fe3a8010d924b064ccb2378dcbee6dbdeb5bbd9716eb2cffb16c3df92a53e849560048201526129339073ffffffffffffffffffffffffffffffffffffffff881690634f27da1890602401602060405180830381865afa158015612909573d6000803e3d6000fd5b505050506040513d601f19601f8201168201806040525081019061292d9190612dd1565b836126af565b610ef99190613138565b6040517fcccf7a8e0000000000000000000000000000000000000000000000000000000081526004810182905260009073ffffffffffffffffffffffffffffffffffffffff84169063cccf7a8e90602401602060405180830381865afa1580156129ab573d6000803e3d6000fd5b505050506040513d601f19601f820116820180604052508101906129cf9190612daf565b6129da576000610d4e565b6040517f0ff4c9160000000000000000000000000000000000000000000000000000000081526004810183905273ffffffffffffffffffffffffffffffffffffffff841690630ff4c91690602401602060405180830381865afa158015612a45573d6000803e3d6000fd5b505050506040513d601f19601f82011682018060405250810190610d4e9190612ecc565b7f8a22373512790c48b83a1fe2efdd2888d4a917bcdc24d0adf63e60f671680460805460405173ffffffffffffffffffffffffffffffffffffffff8481169216907f8be0079c531659141344cd1fd0a4f28419497f9722a3daafe3b4186f6b6457e090600090a380547fffffffffffffffffffffffff00000000000000000000000000000000000000001673ffffffffffffffffffffffffffffffffffffffff92909216919091179055565b7f4e487b7100000000000000000000000000000000000000000000000000000000600052604160045260246000fd5b6040805190810167ffffffffffffffff81118282101715612b6757612b67612b15565b60405290565b604051601f82017fffffffffffffffffffffffffffffffffffffffffffffffffffffffffffffffe016810167ffffffffffffffff81118282101715612bb457612bb4612b15565b604052919050565b600067ffffffffffffffff821115612bd657612bd6612b15565b50601f017fffffffffffffffffffffffffffffffffffffffffffffffffffffffffffffffe01660200190565b600060208284031215612c1457600080fd5b813567ffffffffffffffff811115612c2b57600080fd5b8201601f81018413612c3c57600080fd5b8035612c4f612c4a82612bbc565b612b6d565b818152856020838501011115612c6457600080fd5b81602084016020830137600091810160200191909152949350505050565b60005b83811015612c9d578181015183820152602001612c85565b50506000910152565b6020815260008251806020840152612cc5816040850160208701612c82565b601f017fffffffffffffffffffffffffffffffffffffffffffffffffffffffffffffffe0169190910160400192915050565b63ffffffff81168114610e1357600080fd5b600080600060608486031215612d1e57600080fd5b83359250602084013591506040840135612d3781612cf7565b809150509250925092565b73ffffffffffffffffffffffffffffffffffffffff81168114610e1357600080fd5b600060208284031215612d7657600080fd5b8135610d4e81612d42565b600080600060608486031215612d9657600080fd5b83519250602084015191506040840151612d3781612cf7565b600060208284031215612dc157600080fd5b81518015158114610d4e57600080fd5b600060208284031215612de357600080fd5b8151610d4e81612d42565b600060208284031215612e0057600080fd5b815167ffffffffffffffff811115612e1757600080fd5b8201601f81018413612e2857600080fd5b8051612e36612c4a82612bbc565b818152856020838501011115612e4b57600080fd5b610ef9826020830160208601612c82565b600060208284031215612e6e57600080fd5b8151610d4e81612cf7565b7f4e487b7100000000000000000000000000000000000000000000000000000000600052601160045260246000fd5b63ffffffff818116838216019080821115612ec557612ec5612e79565b5092915050565b600060208284031215612ede57600080fd5b5051919050565b600067ffffffffffffffff821115612eff57612eff612b15565b5060051b60200190565b600082601f830112612f1a57600080fd5b81516020612f2a612c4a83612ee5565b82815260059290921b84018101918181019086841115612f4957600080fd5b8286015b84811015612f645780518352918301918301612f4d565b509695505050505050565b600060208284031215612f8157600080fd5b815167ffffffffffffffff811115612f9857600080fd5b6118ef84828501612f09565b7f4e487b7100000000000000000000000000000000000000000000000000000000600052603260045260246000fd5b60007fffffffffffffffffffffffffffffffffffffffffffffffffffffffffffffffff820361300457613004612e79565b5060010190565b6000602080838503121561301e57600080fd5b825167ffffffffffffffff8082111561303657600080fd5b908401906040828703121561304a57600080fd5b613052612b44565b82518281111561306157600080fd5b61306d88828601612f09565b825250838301518281111561308157600080fd5b80840193505086601f84011261309657600080fd5b825191506130a6612c4a83612ee5565b82815260059290921b830184019184810190888411156130c557600080fd5b938501935b838510156130ec5784516130dd81612cf7565b825293850193908501906130ca565b948201949094529695505050505050565b63ffffffff81811683821602808216919082811461311d5761311d612e79565b505092915050565b8181038181111561191b5761191b612e79565b63ffffffff828116828216039080821115612ec557612ec5612e7956fea264697066735822122086f9e0229da4e9cdcb46930674c052dcf4605fca08d6c78269e1169764e3abfe64736f6c63430008130033",
    "linkReferences": {}
  },
  "methodIdentifiers": {
    "execute(bytes)": "09c5eabe",
    "executeTyped(uint256,uint256,uint32)": "313dbb19",
    "owner()": "8da5cb5b",
    "transferOwnership(address)": "f2fde38b"
  },
  "id": 180
}