{
  "abi": [
    {
      "inputs": [
        {
          "internalType": "contract IWorld",
          "name": "_world",
          "type": "address"
        },
        {
          "internalType": "address",
          "name": "_components",
          "type": "address"
        }
      ],
      "stateMutability": "nonpayable",
      "type": "constructor"
    },
    {
      "inputs": [],
      "name": "Ownable__NotOwner",
      "type": "error"
    },
    {
      "inputs": [],
      "name": "Ownable__NotTransitiveOwner",
      "type": "error"
    },
    {
      "anonymous": false,
      "inputs": [
        {
          "indexed": true,
          "internalType": "address",
          "name": "previousOwner",
          "type": "address"
        },
        {
          "indexed": true,
          "internalType": "address",
          "name": "newOwner",
          "type": "address"
        }
      ],
      "name": "OwnershipTransferred",
      "type": "event"
    },
    {
      "inputs": [
        {
          "internalType": "bytes",
          "name": "args",
          "type": "bytes"
        }
      ],
      "name": "execute",
      "outputs": [
        {
          "internalType": "bytes",
          "name": "",
          "type": "bytes"
        }
      ],
      "stateMutability": "nonpayable",
      "type": "function"
    },
    {
      "inputs": [
        {
          "internalType": "uint256",
          "name": "buildingEntity",
          "type": "uint256"
        },
        {
          "internalType": "uint256",
          "name": "unitType",
          "type": "uint256"
        },
        {
          "internalType": "uint32",
          "name": "count",
          "type": "uint32"
        }
      ],
      "name": "executeTyped",
      "outputs": [
        {
          "internalType": "bytes",
          "name": "",
          "type": "bytes"
        }
      ],
      "stateMutability": "nonpayable",
      "type": "function"
    },
    {
      "inputs": [],
      "name": "owner",
      "outputs": [
        {
          "internalType": "address",
          "name": "",
          "type": "address"
        }
      ],
      "stateMutability": "view",
      "type": "function"
    },
    {
      "inputs": [
        {
          "internalType": "address",
          "name": "account",
          "type": "address"
        }
      ],
      "name": "transferOwnership",
      "outputs": [],
      "stateMutability": "nonpayable",
      "type": "function"
    }
  ],
  "bytecode": {
    "object": "0x60806040523480156200001157600080fd5b50604051620027f1380380620027f18339810160408190526200003491620001e0565b8181818162000043336200014d565b6001600160a01b038116156200005a5780620000bf565b816001600160a01b031663ba62fbe46040518163ffffffff1660e01b8152600401602060405180830381865afa15801562000099573d6000803e3d6000fd5b505050506040513d601f19601f82011682018060405250810190620000bf91906200021f565b600080546001600160a01b039283166001600160a01b0319918216811790925560018054938616938216841790557ff67304f10c7772c78e439bc5cb07781db345424de8878c18100fdaa64d197a87805482169093179092557ff67304f10c7772c78e439bc5cb07781db345424de8878c18100fdaa64d197a86805490921617905550505050505062000246565b7f8a22373512790c48b83a1fe2efdd2888d4a917bcdc24d0adf63e60f67168046080546040516001600160a01b038481169216907f8be0079c531659141344cd1fd0a4f28419497f9722a3daafe3b4186f6b6457e090600090a380546001600160a01b0319166001600160a01b0392909216919091179055565b6001600160a01b0381168114620001dd57600080fd5b50565b60008060408385031215620001f457600080fd5b82516200020181620001c7565b60208401519092506200021481620001c7565b809150509250929050565b6000602082840312156200023257600080fd5b81516200023f81620001c7565b9392505050565b61259b80620002566000396000f3fe608060405234801561001057600080fd5b506004361061004c5760003560e01c806309c5eabe14610051578063313dbb191461007a5780638da5cb5b1461008d578063f2fde38b146100ad575b600080fd5b61006461005f36600461200f565b6100c2565b60405161007191906120b3565b60405180910390f35b6100646100883660046120f8565b6109f4565b610095610a3b565b6040516001600160a01b039091168152602001610071565b6100c06100bb366004612146565b610a73565b005b60606000806000848060200190518101906100dd9190612163565b60015492955090935091503390600090610101906001600160a01b03168386610ac9565b90506000610115858363ffffffff16610b75565b90506101b7600160009054906101000a90046001600160a01b03166001600160a01b0316630d59332e6040518163ffffffff1660e01b8152600401602060405180830381865afa15801561016d573d6000803e3d6000fd5b505050506040513d601f19601f820116820180604052508101906101919190612191565b7f23f1f9079cb71316c5eb52dd7b962c701570062c868964f0a09f40cb1f882281610ba4565b6001600160a01b0316636ad0ccab336101ef7f49a4584d9706380e35459e1f31e673445371b5bac20aa516f8ba8650b1843106610c86565b6001600160a01b0316630ff4c9168a6040518263ffffffff1660e01b815260040161021c91815260200190565b606060405180830381865afa158015610239573d6000803e3d6000fd5b505050506040513d601f19601f8201168201806040525081019061025d91906121c5565b60409081015190516001600160e01b031960e085901b1681526001600160a01b03909216600483015260248201526044016000604051808303816000875af11580156102ad573d6000803e3d6000fd5b505050506040513d6000823e601f3d908101601f191682016040526102d5919081019061222d565b506001546102ed906001600160a01b03168787610c9d565b6103565760405162461bcd60e51b815260206004820152602f60248201527f5b547261696e556e69747353797374656d5d204275696c64696e672063616e6e60448201526e1bdd081c1c9bd91d58d9481d5b9a5d608a1b60648201526084015b60405180910390fd5b60015461036e906001600160a01b0316848787611082565b6103ea5760405162461bcd60e51b815260206004820152604160248201527f5b547261696e556e69747353797374656d5d20596f7520646f206e6f7420686160448201527f766520746865207265717569726564205574696c697479207265736f757263656064820152607360f81b608482015260a40161034d565b6104137ff5bd2f5cb6567cf0fa832e8e7971a94af009d0ec1e329976b883c7ab50488278610c86565b6001600160a01b031663cccf7a8e826040518263ffffffff1660e01b815260040161044091815260200190565b602060405180830381865afa15801561045d573d6000803e3d6000fd5b505050506040513d601f19601f82011682018060405250810190610481919061229b565b1561062a5760015461049e906001600160a01b0316848387611338565b6105105760405162461bcd60e51b815260206004820152603960248201527f5b547261696e556e69747353797374656d5d20596f7520646f206e6f7420686160448201527f766520746865207265717569726564207265736f757263657300000000000000606482015260840161034d565b600154604080516306ac999760e11b815290516105a5926001600160a01b031691630d59332e9160048083019260209291908290030181865afa15801561055b573d6000803e3d6000fd5b505050506040513d601f19601f8201168201806040525081019061057f9190612191565b7f260bed7a4ae2c80f17d6f2234fcc01f312c59c50933985489f350f675fc3ed14610ba4565b604051636c0b7ef760e01b81523360048201526024810183905263ffffffff861660448201526001600160a01b039190911690636c0b7ef7906064016000604051808303816000875af1158015610600573d6000803e3d6000fd5b505050506040513d6000823e601f3d908101601f19168201604052610628919081019061222d565b505b6106537f391ed979ad48ef48aa0e385aaffe280328c830054d2153bba1cf3da0b7bf45ab610c86565b6001600160a01b031663cccf7a8e826040518263ffffffff1660e01b815260040161068091815260200190565b602060405180830381865afa15801561069d573d6000803e3d6000fd5b505050506040513d601f19601f820116820180604052508101906106c1919061229b565b156106e9576106e9600160009054906101000a90046001600160a01b031684878760016117b7565b60006107147ff29be3703a45a0eb1de636e3441bf1955765a4209e0846e136e7b5a0940aa959610c86565b905060006107417fbc8e22f24f6044e355309bd5acf8876066c99bf3cf9d498a4dfea5ebf331f17b610c86565b604051636667bd4760e11b8152600481018a90529091506000906001600160a01b0383169063cccf7a8e90602401602060405180830381865afa15801561078c573d6000803e3d6000fd5b505050506040513d601f19601f820116820180604052508101906107b0919061229b565b15610830576040516307fa648b60e11b8152600481018a90526001600160a01b03841690630ff4c91690602401602060405180830381865afa1580156107fa573d6000803e3d6000fd5b505050506040513d601f19601f8201168201806040525081019061081e91906122bd565b6108299060016122f0565b9050610897565b604051633648f0f160e21b8152600481018a905263ffffffff821660248201526001600160a01b0383169063d923c3c490604401600060405180830381600087803b15801561087e57600080fd5b505af1158015610892573d6000803e3d6000fd5b505050505b604051633648f0f160e21b8152600481018a905263ffffffff821660248201526001600160a01b0384169063d923c3c490604401600060405180830381600087803b1580156108e557600080fd5b505af11580156108f9573d6000803e3d6000fd5b50505050600061090f8a8363ffffffff16610b75565b905061093a7f5b9d688a4f4d7f660846f39f20b66c2b0fe7a6e38d8e4ad354c58102d0fb9345610c86565b6040805180820182528b815263ffffffff808c166020830190815292516395699b3760e01b81526004810186905291516024830152915190911660448201526001600160a01b0391909116906395699b3790606401600060405180830381600087803b1580156109a957600080fd5b505af11580156109bd573d6000803e3d6000fd5b50505050896040516020016109d491815260200190565b6040516020818303038152906040529a5050505050505050505050919050565b604080516020810185905290810183905263ffffffff821660608281019190915290610a31906080016040516020818303038152906040526100c2565b90505b9392505050565b6000610a6e7f8a22373512790c48b83a1fe2efdd2888d4a917bcdc24d0adf63e60f671680460546001600160a01b031690565b905090565b7f8a22373512790c48b83a1fe2efdd2888d4a917bcdc24d0adf63e60f671680460546001600160a01b03163314610abd57604051632f7a8ee160e01b815260040160405180910390fd5b610ac681611c38565b50565b600080610ad68385610b75565b6040516309e4fb4360e31b81527fbd262b900b9f3e3d6078d7a8e45d1bee5f4fd9547063f524ac4cbf611d37b44e6004820152909150610b6c906001600160a01b03871690634f27da18906024015b602060405180830381865afa158015610b42573d6000803e3d6000fd5b505050506040513d601f19601f82011682018060405250810190610b669190612191565b82611c41565b95945050505050565b604080516020808201859052818301849052825180830384018152606090920190925280519101205b92915050565b604051637defd0f560e11b81526004810182905260009081906001600160a01b0385169063fbdfa1ea90602401600060405180830381865afa158015610bee573d6000803e3d6000fd5b505050506040513d6000823e601f3d908101601f19168201604052610c16919081019061239e565b90508051600003610c5d5760405162461bcd60e51b81526020600482015260116024820152701a59081b9bdd081c9959da5cdd195c9959607a1b604482015260640161034d565b610c7e81600081518110610c7357610c736123d3565b602002602001015190565b949350505050565b60008054610b9e906001600160a01b031683610ba4565b6040516309e4fb4360e31b81527f3ed7887def160de572ade02c8436bfc219b818bf6aebb6881c66cc27bda2b5bf600482015260009081906001600160a01b03861690634f27da1890602401602060405180830381865afa158015610d06573d6000803e3d6000fd5b505050506040513d601f19601f82011682018060405250810190610d2a9190612191565b6040516309e4fb4360e31b81527f7562ebb298d855e68fb2922ace89e271e36c031fb473ee4be72f900215d523c560048201529091506000906001600160a01b03871690634f27da1890602401602060405180830381865afa158015610d94573d6000803e3d6000fd5b505050506040513d601f19601f82011682018060405250810190610db89190612191565b6001600160a01b0316630ff4c916866040518263ffffffff1660e01b8152600401610de591815260200190565b602060405180830381865afa158015610e02573d6000803e3d6000fd5b505050506040513d601f19601f82011682018060405250810190610e2691906123e9565b6040516309e4fb4360e31b81527fbd262b900b9f3e3d6078d7a8e45d1bee5f4fd9547063f524ac4cbf611d37b44e60048201529091506000906001600160a01b03881690634f27da1890602401602060405180830381865afa158015610e90573d6000803e3d6000fd5b505050506040513d601f19601f82011682018060405250810190610eb49190612191565b6001600160a01b0316630ff4c916876040518263ffffffff1660e01b8152600401610ee191815260200190565b602060405180830381865afa158015610efe573d6000803e3d6000fd5b505050506040513d601f19601f82011682018060405250810190610f2291906122bd565b90506000610f36838363ffffffff16610b75565b604051636667bd4760e11b8152600481018290529091506001600160a01b0385169063cccf7a8e90602401602060405180830381865afa158015610f7e573d6000803e3d6000fd5b505050506040513d601f19601f82011682018060405250810190610fa2919061229b565b610fb3576000945050505050610a34565b6040516307fa648b60e11b8152600481018290526000906001600160a01b03861690630ff4c91690602401600060405180830381865afa158015610ffb573d6000803e3d6000fd5b505050506040513d6000823e601f3d908101601f19168201604052611023919081019061239e565b905060005b81518110156110725787828281518110611044576110446123d3565b6020026020010151036110605760019650505050505050610a34565b8061106a81612402565b915050611028565b5060009998505050505050505050565b6040516309e4fb4360e31b81527f391ed979ad48ef48aa0e385aaffe280328c830054d2153bba1cf3da0b7bf45ab600482015260009081906001600160a01b03871690634f27da1890602401602060405180830381865afa1580156110eb573d6000803e3d6000fd5b505050506040513d601f19601f8201168201806040525081019061110f9190612191565b9050600061111e878787610ac9565b90506000611132868363ffffffff16610b75565b604051636667bd4760e11b8152600481018290529091506001600160a01b0384169063cccf7a8e90602401602060405180830381865afa15801561117a573d6000803e3d6000fd5b505050506040513d601f19601f8201168201806040525081019061119e919061229b565b6111ae5760019350505050610c7e565b6040516307fa648b60e11b8152600481018290526000906001600160a01b03851690630ff4c91690602401600060405180830381865afa1580156111f6573d6000803e3d6000fd5b505050506040513d6000823e601f3d908101601f1916820160405261121e919081019061241b565b516040516307fa648b60e11b8152600481018490529091506000906001600160a01b03861690630ff4c91690602401600060405180830381865afa15801561126a573d6000803e3d6000fd5b505050506040513d6000823e601f3d908101601f19168201604052611292919081019061241b565b60200151905060005b8251811015611327576000888383815181106112b9576112b96123d3565b60200260200101516112cb919061250d565b90508063ffffffff166112f88d8d8786815181106112eb576112eb6123d3565b6020026020010151611d21565b63ffffffff161015611314576000975050505050505050610c7e565b508061131f81612402565b91505061129b565b5060019a9950505050505050505050565b6040516309e4fb4360e31b81527ff5bd2f5cb6567cf0fa832e8e7971a94af009d0ec1e329976b883c7ab50488278600482015260009081906001600160a01b03871690634f27da1890602401602060405180830381865afa1580156113a1573d6000803e3d6000fd5b505050506040513d601f19601f820116820180604052508101906113c59190612191565b6040516309e4fb4360e31b81527ffba48a04766694c16713a414735f83be9cb20bbb29b5e18846cc8f151064084560048201529091506000906001600160a01b03881690634f27da1890602401602060405180830381865afa15801561142f573d6000803e3d6000fd5b505050506040513d601f19601f820116820180604052508101906114539190612191565b604051636667bd4760e11b8152600481018790529091506001600160a01b0383169063cccf7a8e90602401602060405180830381865afa15801561149b573d6000803e3d6000fd5b505050506040513d601f19601f820116820180604052508101906114bf919061229b565b6114ce57600192505050610c7e565b6040516309e4fb4360e31b81527f222d9674c2fee077bc82c84232803a9168906e2be25c4560d094c76895b8a43260048201526000906001600160a01b03891690634f27da1890602401602060405180830381865afa158015611535573d6000803e3d6000fd5b505050506040513d601f19601f820116820180604052508101906115599190612191565b6040516309e4fb4360e31b81527fe95fc307e3922a4ed7e1a9d135b2e79aad91e806428d8c7ec9a376dfc8aede5e60048201529091506000906001600160a01b038a1690634f27da1890602401602060405180830381865afa1580156115c3573d6000803e3d6000fd5b505050506040513d601f19601f820116820180604052508101906115e79190612191565b6040516307fa648b60e11b8152600481018990529091506000906001600160a01b03861690630ff4c91690602401600060405180830381865afa158015611632573d6000803e3d6000fd5b505050506040513d6000823e601f3d908101601f1916820160405261165a919081019061241b565b905060005b8151518110156113275760008883602001518381518110611682576116826123d3565b6020026020010151611694919061250d565b905060006116bf846000015184815181106116b1576116b16123d3565b60200260200101518d610b75565b905060006116cd8883611c41565b905060006116db8884611c41565b63ffffffff16111561177b576116f18683611e1d565b6116fb9043612535565b6040516307fa648b60e11b8152600481018490526001600160a01b03891690630ff4c91690602401602060405180830381865afa158015611740573d6000803e3d6000fd5b505050506040513d601f19601f8201168201806040525081019061176491906122bd565b61176e919061250d565b61177890826122f0565b90505b8063ffffffff168363ffffffff1611156117a15760009950505050505050505050610c7e565b50505080806117af90612402565b91505061165f565b63ffffffff821615611c31576040516309e4fb4360e31b81527f391ed979ad48ef48aa0e385aaffe280328c830054d2153bba1cf3da0b7bf45ab60048201526000906001600160a01b03871690634f27da1890602401602060405180830381865afa15801561182a573d6000803e3d6000fd5b505050506040513d601f19601f8201168201806040525081019061184e9190612191565b9050600061185d878787610ac9565b90506000611871868363ffffffff16610b75565b604051636667bd4760e11b8152600481018290529091506001600160a01b0384169063cccf7a8e90602401602060405180830381865afa1580156118b9573d6000803e3d6000fd5b505050506040513d601f19601f820116820180604052508101906118dd919061229b565b6118e957505050611c31565b6040516309e4fb4360e31b81527f4f2e352c22f4d6e8661eee4a98890fa6dfead6e74bc680ee4c52da1cc198d7c960048201526000906001600160a01b038a1690634f27da1890602401602060405180830381865afa158015611950573d6000803e3d6000fd5b505050506040513d601f19601f820116820180604052508101906119749190612191565b6040516307fa648b60e11b8152600481018490529091506000906001600160a01b03861690630ff4c91690602401600060405180830381865afa1580156119bf573d6000803e3d6000fd5b505050506040513d6000823e601f3d908101601f191682016040526119e7919081019061241b565b516040516307fa648b60e11b8152600481018590529091506000906001600160a01b03871690630ff4c91690602401600060405180830381865afa158015611a33573d6000803e3d6000fd5b505050506040513d6000823e601f3d908101601f19168201604052611a5b919081019061241b565b60200151905060005b8251811015611c2957818181518110611a7f57611a7f6123d3565b602002602001015163ffffffff1660000315611c1757600089838381518110611aaa57611aaa6123d3565b6020026020010151611abc919061250d565b90506000611ae3858481518110611ad557611ad56123d3565b60200260200101518e610b75565b90508915611b7157856001600160a01b031663d923c3c48284611b068a86611c41565b611b1091906122f0565b6040516001600160e01b031960e085901b168152600481019290925263ffffffff166024820152604401600060405180830381600087803b158015611b5457600080fd5b505af1158015611b68573d6000803e3d6000fd5b50505050611c14565b611b7b8682611c41565b63ffffffff168263ffffffff1611611bb257856001600160a01b031663d923c3c48284611ba88a86611c41565b611b109190612548565b604051633648f0f160e21b815260048101829052600060248201526001600160a01b0387169063d923c3c490604401600060405180830381600087803b158015611bfb57600080fd5b505af1158015611c0f573d6000803e3d6000fd5b505050505b50505b80611c2181612402565b915050611a64565b505050505050505b5050505050565b610ac681611efd565b604051636667bd4760e11b8152600481018290526000906001600160a01b0384169063cccf7a8e90602401602060405180830381865afa158015611c89573d6000803e3d6000fd5b505050506040513d601f19601f82011682018060405250810190611cad919061229b565b611cb8576000610a34565b6040516307fa648b60e11b8152600481018390526001600160a01b03841690630ff4c91690602401602060405180830381865afa158015611cfd573d6000803e3d6000fd5b505050506040513d601f19601f82011682018060405250810190610a3491906122bd565b600080611d2e8385610b75565b6040516309e4fb4360e31b81527f4f2e352c22f4d6e8661eee4a98890fa6dfead6e74bc680ee4c52da1cc198d7c96004820152909150611d81906001600160a01b03871690634f27da1890602401610b25565b6040516309e4fb4360e31b81527fe3a8010d924b064ccb2378dcbee6dbdeb5bbd9716eb2cffb16c3df92a53e84956004820152611e13906001600160a01b03881690634f27da1890602401602060405180830381865afa158015611de9573d6000803e3d6000fd5b505050506040513d601f19601f82011682018060405250810190611e0d9190612191565b83611c41565b610b6c9190612548565b604051636667bd4760e11b8152600481018290526000906001600160a01b0384169063cccf7a8e90602401602060405180830381865afa158015611e65573d6000803e3d6000fd5b505050506040513d601f19601f82011682018060405250810190611e89919061229b565b611e94576000610a34565b6040516307fa648b60e11b8152600481018390526001600160a01b03841690630ff4c91690602401602060405180830381865afa158015611ed9573d6000803e3d6000fd5b505050506040513d601f19601f82011682018060405250810190610a3491906123e9565b7f8a22373512790c48b83a1fe2efdd2888d4a917bcdc24d0adf63e60f67168046080546040516001600160a01b038481169216907f8be0079c531659141344cd1fd0a4f28419497f9722a3daafe3b4186f6b6457e090600090a380546001600160a01b0319166001600160a01b0392909216919091179055565b634e487b7160e01b600052604160045260246000fd5b6040805190810167ffffffffffffffff81118282101715611fb057611fb0611f77565b60405290565b604051601f8201601f1916810167ffffffffffffffff81118282101715611fdf57611fdf611f77565b604052919050565b600067ffffffffffffffff82111561200157612001611f77565b50601f01601f191660200190565b60006020828403121561202157600080fd5b813567ffffffffffffffff81111561203857600080fd5b8201601f8101841361204957600080fd5b803561205c61205782611fe7565b611fb6565b81815285602083850101111561207157600080fd5b81602084016020830137600091810160200191909152949350505050565b60005b838110156120aa578181015183820152602001612092565b50506000910152565b60208152600082518060208401526120d281604085016020870161208f565b601f01601f19169190910160400192915050565b63ffffffff81168114610ac657600080fd5b60008060006060848603121561210d57600080fd5b83359250602084013591506040840135612126816120e6565b809150509250925092565b6001600160a01b0381168114610ac657600080fd5b60006020828403121561215857600080fd5b8135610a3481612131565b60008060006060848603121561217857600080fd5b83519250602084015191506040840151612126816120e6565b6000602082840312156121a357600080fd5b8151610a3481612131565b8051600381900b81146121c057600080fd5b919050565b6000606082840312156121d757600080fd5b6040516060810181811067ffffffffffffffff821117156121fa576121fa611f77565b604052612206836121ae565b8152612214602084016121ae565b6020820152604083015160408201528091505092915050565b60006020828403121561223f57600080fd5b815167ffffffffffffffff81111561225657600080fd5b8201601f8101841361226757600080fd5b805161227561205782611fe7565b81815285602083850101111561228a57600080fd5b610b6c82602083016020860161208f565b6000602082840312156122ad57600080fd5b81518015158114610a3457600080fd5b6000602082840312156122cf57600080fd5b8151610a34816120e6565b634e487b7160e01b600052601160045260246000fd5b63ffffffff81811683821601908082111561230d5761230d6122da565b5092915050565b600067ffffffffffffffff82111561232e5761232e611f77565b5060051b60200190565b600082601f83011261234957600080fd5b8151602061235961205783612314565b82815260059290921b8401810191818101908684111561237857600080fd5b8286015b84811015612393578051835291830191830161237c565b509695505050505050565b6000602082840312156123b057600080fd5b815167ffffffffffffffff8111156123c757600080fd5b610c7e84828501612338565b634e487b7160e01b600052603260045260246000fd5b6000602082840312156123fb57600080fd5b5051919050565b600060018201612414576124146122da565b5060010190565b6000602080838503121561242e57600080fd5b825167ffffffffffffffff8082111561244657600080fd5b908401906040828703121561245a57600080fd5b612462611f8d565b82518281111561247157600080fd5b61247d88828601612338565b825250838301518281111561249157600080fd5b80840193505086601f8401126124a657600080fd5b825191506124b661205783612314565b82815260059290921b830184019184810190888411156124d557600080fd5b938501935b838510156124fc5784516124ed816120e6565b825293850193908501906124da565b948201949094529695505050505050565b63ffffffff81811683821602808216919082811461252d5761252d6122da565b505092915050565b81810381811115610b9e57610b9e6122da565b63ffffffff82811682821603908082111561230d5761230d6122da56fea2646970667358221220f19b1c9c5d988d6b4673736e508f294fba39cdd7e9728da96bf1d95d55af3b7564736f6c63430008130033",
    "linkReferences": {}
  },
  "methodIdentifiers": {
    "execute(bytes)": "09c5eabe",
    "executeTyped(uint256,uint256,uint32)": "313dbb19",
    "owner()": "8da5cb5b",
    "transferOwnership(address)": "f2fde38b"
  },
  "id": 220
}