{
  "abi": [
    {
      "inputs": [
        {
          "internalType": "address",
          "name": "world",
          "type": "address"
        },
        {
          "internalType": "uint256",
          "name": "id",
          "type": "uint256"
        }
      ],
      "stateMutability": "nonpayable",
      "type": "constructor"
    },
    {
      "inputs": [],
      "name": "BareComponent__NotImplemented",
      "type": "error"
    },
    {
      "inputs": [],
      "name": "OwnableWritable__NotWriter",
      "type": "error"
    },
    {
      "inputs": [],
      "name": "Ownable__NotOwner",
      "type": "error"
    },
    {
      "inputs": [],
      "name": "Ownable__NotTransitiveOwner",
      "type": "error"
    },
    {
      "anonymous": false,
      "inputs": [
        {
          "indexed": true,
          "internalType": "address",
          "name": "previousOwner",
          "type": "address"
        },
        {
          "indexed": true,
          "internalType": "address",
          "name": "newOwner",
          "type": "address"
        }
      ],
      "name": "OwnershipTransferred",
      "type": "event"
    },
    {
      "inputs": [
        {
          "internalType": "address",
          "name": "writer",
          "type": "address"
        }
      ],
      "name": "authorizeWriter",
      "outputs": [],
      "stateMutability": "nonpayable",
      "type": "function"
    },
    {
      "inputs": [],
      "name": "getEntities",
      "outputs": [
        {
          "internalType": "uint256[]",
          "name": "",
          "type": "uint256[]"
        }
      ],
      "stateMutability": "view",
      "type": "function"
    },
    {
      "inputs": [
        {
          "internalType": "bytes",
          "name": "value",
          "type": "bytes"
        }
      ],
      "name": "getEntitiesWithValue",
      "outputs": [
        {
          "internalType": "uint256[]",
          "name": "",
          "type": "uint256[]"
        }
      ],
      "stateMutability": "view",
      "type": "function"
    },
    {
      "inputs": [
        {
          "internalType": "uint256",
          "name": "value",
          "type": "uint256"
        }
      ],
      "name": "getEntitiesWithValue",
      "outputs": [
        {
          "internalType": "uint256[]",
          "name": "",
          "type": "uint256[]"
        }
      ],
      "stateMutability": "view",
      "type": "function"
    },
    {
      "inputs": [
        {
          "internalType": "uint256",
          "name": "entity",
          "type": "uint256"
        }
      ],
      "name": "getRawValue",
      "outputs": [
        {
          "internalType": "bytes",
          "name": "",
          "type": "bytes"
        }
      ],
      "stateMutability": "view",
      "type": "function"
    },
    {
      "inputs": [],
      "name": "getSchema",
      "outputs": [
        {
          "internalType": "string[]",
          "name": "keys",
          "type": "string[]"
        },
        {
          "internalType": "enum LibTypes.SchemaValue[]",
          "name": "values",
          "type": "uint8[]"
        }
      ],
      "stateMutability": "pure",
      "type": "function"
    },
    {
      "inputs": [
        {
          "internalType": "uint256",
          "name": "entity",
          "type": "uint256"
        }
      ],
      "name": "getValue",
      "outputs": [
        {
          "internalType": "uint256[]",
          "name": "",
          "type": "uint256[]"
        }
      ],
      "stateMutability": "view",
      "type": "function"
    },
    {
      "inputs": [
        {
          "internalType": "uint256",
          "name": "entity",
          "type": "uint256"
        }
      ],
      "name": "has",
      "outputs": [
        {
          "internalType": "bool",
          "name": "",
          "type": "bool"
        }
      ],
      "stateMutability": "view",
      "type": "function"
    },
    {
      "inputs": [],
      "name": "id",
      "outputs": [
        {
          "internalType": "uint256",
          "name": "",
          "type": "uint256"
        }
      ],
      "stateMutability": "view",
      "type": "function"
    },
    {
      "inputs": [],
      "name": "owner",
      "outputs": [
        {
          "internalType": "address",
          "name": "",
          "type": "address"
        }
      ],
      "stateMutability": "view",
      "type": "function"
    },
    {
      "inputs": [
        {
          "internalType": "address",
          "name": "indexer",
          "type": "address"
        }
      ],
      "name": "registerIndexer",
      "outputs": [],
      "stateMutability": "nonpayable",
      "type": "function"
    },
    {
      "inputs": [
        {
          "internalType": "address",
          "name": "_world",
          "type": "address"
        }
      ],
      "name": "registerWorld",
      "outputs": [],
      "stateMutability": "nonpayable",
      "type": "function"
    },
    {
      "inputs": [
        {
          "internalType": "uint256",
          "name": "entity",
          "type": "uint256"
        }
      ],
      "name": "remove",
      "outputs": [],
      "stateMutability": "nonpayable",
      "type": "function"
    },
    {
      "inputs": [
        {
          "internalType": "uint256",
          "name": "entity",
          "type": "uint256"
        },
        {
          "internalType": "bytes",
          "name": "value",
          "type": "bytes"
        }
      ],
      "name": "set",
      "outputs": [],
      "stateMutability": "nonpayable",
      "type": "function"
    },
    {
      "inputs": [
        {
          "internalType": "uint256",
          "name": "entity",
          "type": "uint256"
        },
        {
          "internalType": "uint256[]",
          "name": "value",
          "type": "uint256[]"
        }
      ],
      "name": "set",
      "outputs": [],
      "stateMutability": "nonpayable",
      "type": "function"
    },
    {
      "inputs": [
        {
          "internalType": "address",
          "name": "account",
          "type": "address"
        }
      ],
      "name": "transferOwnership",
      "outputs": [],
      "stateMutability": "nonpayable",
      "type": "function"
    },
    {
      "inputs": [
        {
          "internalType": "address",
          "name": "writer",
          "type": "address"
        }
      ],
      "name": "unauthorizeWriter",
      "outputs": [],
      "stateMutability": "nonpayable",
      "type": "function"
    },
    {
      "inputs": [],
      "name": "world",
      "outputs": [
        {
          "internalType": "address",
          "name": "",
          "type": "address"
        }
      ],
      "stateMutability": "view",
      "type": "function"
    },
    {
      "inputs": [
        {
          "internalType": "address",
          "name": "operator",
          "type": "address"
        }
      ],
      "name": "writeAccess",
      "outputs": [
        {
          "internalType": "bool",
          "name": "",
          "type": "bool"
        }
      ],
      "stateMutability": "view",
      "type": "function"
    }
  ],
  "bytecode": {
    "object": "0x60806040523480156200001157600080fd5b5060405162002f8738038062002f87833981016040819052620000349162000243565b81818181620000433362000108565b60028190556001600160a01b038216156200006357620000638262000171565b5050604051620000739062000227565b604051809103906000f08015801562000090573d6000803e3d6000fd5b50600380546001600160a01b0319166001600160a01b0392909216919091179055604051620000bf9062000235565b604051809103906000f080158015620000dc573d6000803e3d6000fd5b50600480546001600160a01b0319166001600160a01b0392909216919091179055506200027f92505050565b60008051602062002f6783398151915280546040516001600160a01b038481169216907f8be0079c531659141344cd1fd0a4f28419497f9722a3daafe3b4186f6b6457e090600090a380546001600160a01b0319166001600160a01b0392909216919091179055565b60008051602062002f67833981519152546001600160a01b03163314620001ab57604051632f7a8ee160e01b815260040160405180910390fd5b600080546001600160a01b0319166001600160a01b038316908117909155600254604051630f30347760e41b8152306004820152602481019190915263f303477090604401600060405180830381600087803b1580156200020b57600080fd5b505af115801562000220573d6000803e3d6000fd5b5050505050565b6108088062001f1083390190565b61084f806200271883390190565b600080604083850312156200025757600080fd5b82516001600160a01b03811681146200026f57600080fd5b6020939093015192949293505050565b611c81806200028f6000396000f3fe608060405234801561001057600080fd5b50600436106101515760003560e01c80638da5cb5b116100cd578063b8bc073d11610081578063cccf7a8e11610066578063cccf7a8e146102de578063f2fde38b146102f1578063fbdfa1ea1461030457600080fd5b8063b8bc073d146102ab578063bf4fe57e146102cb57600080fd5b80639d2c76b4116100b25780639d2c76b41461026e578063af640d0f14610281578063b361be461461029857600080fd5b80638da5cb5b14610253578063946aadc61461025b57600080fd5b80634fef6a381161012457806375c0669c1161010957806375c0669c1461020a578063861eb9051461021d5780638b2829471461024057600080fd5b80634fef6a38146101e15780636b122fe0146101f457600080fd5b80630ff4c9161461015657806330b67baa1461017f57806331b933b9146101c45780634cc82215146101cc575b600080fd5b61016961016436600461140b565b610317565b6040516101769190611424565b60405180910390f35b60005461019f9073ffffffffffffffffffffffffffffffffffffffff1681565b60405173ffffffffffffffffffffffffffffffffffffffff9091168152602001610176565b61016961033b565b6101df6101da36600461140b565b6103f6565b005b6101df6101ef366004611468565b610441565b6101fc61051f565b604051610176929190611538565b6101df610218366004611468565b61060b565b61023061022b366004611468565b6106c1565b6040519015158152602001610176565b6101df61024e366004611734565b61074b565b61019f610798565b6101df61026936600461179f565b6107d8565b6101df61027c366004611468565b610801565b61028a60025481565b604051908152602001610176565b6101696102a6366004611841565b61092a565b6102be6102b936600461140b565b6109e7565b604051610176919061187e565b6101df6102d9366004611468565b610a89565b6102306102ec36600461140b565b610b64565b6101df6102ff366004611468565b610bf8565b61016961031236600461140b565b610c71565b6060610322826109e7565b8060200190518101906103359190611891565b92915050565b600354604080517f410d59cc000000000000000000000000000000000000000000000000000000008152905160609273ffffffffffffffffffffffffffffffffffffffff169163410d59cc9160048083019260009291908290030181865afa1580156103ab573d6000803e3d6000fd5b505050506040513d6000823e601f3d9081017fffffffffffffffffffffffffffffffffffffffffffffffffffffffffffffffe01682016040526103f19190810190611891565b905090565b6103ff336106c1565b610435576040517f406ed3da00000000000000000000000000000000000000000000000000000000815260040160405180910390fd5b61043e81610c9d565b50565b7f8a22373512790c48b83a1fe2efdd2888d4a917bcdc24d0adf63e60f6716804605473ffffffffffffffffffffffffffffffffffffffff1633146104b1576040517f2f7a8ee100000000000000000000000000000000000000000000000000000000815260040160405180910390fd5b73ffffffffffffffffffffffffffffffffffffffff1660009081527f8ffeadc5cba727b8cc3cdef48739619490ea317fdb3baae1259089d06f92c9096020526040902080547fffffffffffffffffffffffffffffffffffffffffffffffffffffffffffffff00166001179055565b604080516001808252818301909252606091829190816020015b6060815260200190600190039081610539575050604080516001808252818301909252919350602080830190803683370190505090506040518060400160405280600581526020017f76616c7565000000000000000000000000000000000000000000000000000000815250826000815181106105b8576105b8611922565b6020026020010181905250601f816000815181106105d8576105d8611922565b602002602001019060218111156105f1576105f1611509565b9081602181111561060457610604611509565b9052509091565b610614336106c1565b61064a576040517f406ed3da00000000000000000000000000000000000000000000000000000000815260040160405180910390fd5b600580546001810182556000919091527f036b6384b5eca791c62761152d0c79bb0604c104a5fb6f4eb0703f3154bb3db00180547fffffffffffffffffffffffff00000000000000000000000000000000000000001673ffffffffffffffffffffffffffffffffffffffff92909216919091179055565b73ffffffffffffffffffffffffffffffffffffffff811660009081527f8ffeadc5cba727b8cc3cdef48739619490ea317fdb3baae1259089d06f92c909602052604081205460ff16806103355750610717610798565b73ffffffffffffffffffffffffffffffffffffffff168273ffffffffffffffffffffffffffffffffffffffff161492915050565b610754336106c1565b61078a576040517f406ed3da00000000000000000000000000000000000000000000000000000000815260040160405180910390fd5b6107948282610f5c565b5050565b60006103f17f8a22373512790c48b83a1fe2efdd2888d4a917bcdc24d0adf63e60f6716804605473ffffffffffffffffffffffffffffffffffffffff1690565b61079482826040516020016107ed9190611424565b60405160208183030381529060405261074b565b7f8a22373512790c48b83a1fe2efdd2888d4a917bcdc24d0adf63e60f6716804605473ffffffffffffffffffffffffffffffffffffffff163314610871576040517f2f7a8ee100000000000000000000000000000000000000000000000000000000815260040160405180910390fd5b600080547fffffffffffffffffffffffff00000000000000000000000000000000000000001673ffffffffffffffffffffffffffffffffffffffff83169081179091556002546040517ff3034770000000000000000000000000000000000000000000000000000000008152306004820152602481019190915263f3034770906044015b600060405180830381600087803b15801561090f57600080fd5b505af1158015610923573d6000803e3d6000fd5b5050505050565b60048054825160208401206040517f796c5e940000000000000000000000000000000000000000000000000000000081529283015260609173ffffffffffffffffffffffffffffffffffffffff9091169063796c5e9490602401600060405180830381865afa1580156109a1573d6000803e3d6000fd5b505050506040513d6000823e601f3d9081017fffffffffffffffffffffffffffffffffffffffffffffffffffffffffffffffe01682016040526103359190810190611891565b6000818152600160205260409020805460609190610a0490611951565b80601f0160208091040260200160405190810160405280929190818152602001828054610a3090611951565b8015610a7d5780601f10610a5257610100808354040283529160200191610a7d565b820191906000526020600020905b815481529060010190602001808311610a6057829003601f168201915b50505050509050919050565b7f8a22373512790c48b83a1fe2efdd2888d4a917bcdc24d0adf63e60f6716804605473ffffffffffffffffffffffffffffffffffffffff163314610af9576040517f2f7a8ee100000000000000000000000000000000000000000000000000000000815260040160405180910390fd5b73ffffffffffffffffffffffffffffffffffffffff1660009081527f8ffeadc5cba727b8cc3cdef48739619490ea317fdb3baae1259089d06f92c9096020526040902080547fffffffffffffffffffffffffffffffffffffffffffffffffffffffffffffff00169055565b6003546040517fcccf7a8e0000000000000000000000000000000000000000000000000000000081526004810183905260009173ffffffffffffffffffffffffffffffffffffffff169063cccf7a8e90602401602060405180830381865afa158015610bd4573d6000803e3d6000fd5b505050506040513d601f19601f8201168201806040525081019061033591906119a4565b7f8a22373512790c48b83a1fe2efdd2888d4a917bcdc24d0adf63e60f6716804605473ffffffffffffffffffffffffffffffffffffffff163314610c68576040517f2f7a8ee100000000000000000000000000000000000000000000000000000000815260040160405180910390fd5b61043e816111f3565b606061033582604051602001610c8991815260200190565b60405160208183030381529060405261092a565b60045460008281526001602052604090819020905173ffffffffffffffffffffffffffffffffffffffff909216916385edea1391610cda916119c6565b60405190819003812060e083901b7fffffffff000000000000000000000000000000000000000000000000000000001682526004820152602401602060405180830381865afa158015610d31573d6000803e3d6000fd5b505050506040513d601f19601f82011682018060405250810190610d559190611a5a565b600003610d5f5750565b60045460008281526001602052604090819020905173ffffffffffffffffffffffffffffffffffffffff90921691636526db7a91610d9c916119c6565b60405190819003812060e083901b7fffffffff00000000000000000000000000000000000000000000000000000000168252600482015260248101849052604401600060405180830381600087803b158015610df757600080fd5b505af1158015610e0b573d6000803e3d6000fd5b50506003546040517f4cc822150000000000000000000000000000000000000000000000000000000081526004810185905273ffffffffffffffffffffffffffffffffffffffff9091169250634cc822159150602401600060405180830381600087803b158015610e7b57600080fd5b505af1158015610e8f573d6000803e3d6000fd5b50505050610e9c816111fc565b60005b6005548110156107945760058181548110610ebc57610ebc611922565b6000918252602090912001546040517f4cc822150000000000000000000000000000000000000000000000000000000081526004810184905273ffffffffffffffffffffffffffffffffffffffff90911690634cc8221590602401600060405180830381600087803b158015610f3157600080fd5b505af1158015610f45573d6000803e3d6000fd5b505050508080610f5490611a73565b915050610e9f565b6003546040517f1003e2d20000000000000000000000000000000000000000000000000000000081526004810184905273ffffffffffffffffffffffffffffffffffffffff90911690631003e2d290602401600060405180830381600087803b158015610fc857600080fd5b505af1158015610fdc573d6000803e3d6000fd5b505060045460008581526001602052604090819020905173ffffffffffffffffffffffffffffffffffffffff9092169350636526db7a925061101d916119c6565b60405190819003812060e083901b7fffffffff00000000000000000000000000000000000000000000000000000000168252600482015260248101859052604401600060405180830381600087803b15801561107857600080fd5b505af115801561108c573d6000803e3d6000fd5b505060048054845160208601206040517f771602f7000000000000000000000000000000000000000000000000000000008152928301526024820186905273ffffffffffffffffffffffffffffffffffffffff16925063771602f79150604401600060405180830381600087803b15801561110657600080fd5b505af115801561111a573d6000803e3d6000fd5b50505050611128828261126a565b60005b6005548110156111ee576005818154811061114857611148611922565b6000918252602090912001546040517f0216b83800000000000000000000000000000000000000000000000000000000815273ffffffffffffffffffffffffffffffffffffffff90911690630216b838906111a99086908690600401611ad2565b600060405180830381600087803b1580156111c357600080fd5b505af11580156111d7573d6000803e3d6000fd5b5050505080806111e690611a73565b91505061112b565b505050565b61043e81611311565b6000818152600160205260408120611213916113bd565b6000546040517f0de3b7b50000000000000000000000000000000000000000000000000000000081526004810183905273ffffffffffffffffffffffffffffffffffffffff90911690630de3b7b5906024016108f5565b60008281526001602052604090206112828282611b31565b506000546040517fcfd3c57f00000000000000000000000000000000000000000000000000000000815273ffffffffffffffffffffffffffffffffffffffff9091169063cfd3c57f906112db9085908590600401611ad2565b600060405180830381600087803b1580156112f557600080fd5b505af1158015611309573d6000803e3d6000fd5b505050505050565b7f8a22373512790c48b83a1fe2efdd2888d4a917bcdc24d0adf63e60f671680460805460405173ffffffffffffffffffffffffffffffffffffffff8481169216907f8be0079c531659141344cd1fd0a4f28419497f9722a3daafe3b4186f6b6457e090600090a380547fffffffffffffffffffffffff00000000000000000000000000000000000000001673ffffffffffffffffffffffffffffffffffffffff92909216919091179055565b5080546113c990611951565b6000825580601f106113d9575050565b601f01602090049060005260206000209081019061043e91905b8082111561140757600081556001016113f3565b5090565b60006020828403121561141d57600080fd5b5035919050565b6020808252825182820181905260009190848201906040850190845b8181101561145c57835183529284019291840191600101611440565b50909695505050505050565b60006020828403121561147a57600080fd5b813573ffffffffffffffffffffffffffffffffffffffff8116811461149e57600080fd5b9392505050565b6000815180845260005b818110156114cb576020818501810151868301820152016114af565b5060006020828601015260207fffffffffffffffffffffffffffffffffffffffffffffffffffffffffffffffe0601f83011685010191505092915050565b7f4e487b7100000000000000000000000000000000000000000000000000000000600052602160045260246000fd5b6000604082016040835280855180835260608501915060608160051b8601019250602080880160005b838110156115ad577fffffffffffffffffffffffffffffffffffffffffffffffffffffffffffffffa088870301855261159b8683516114a5565b95509382019390820190600101611561565b50508584038187015286518085528782019482019350915060005b8281101561161b57845160228110611609577f4e487b7100000000000000000000000000000000000000000000000000000000600052602160045260246000fd5b845293810193928101926001016115c8565b5091979650505050505050565b7f4e487b7100000000000000000000000000000000000000000000000000000000600052604160045260246000fd5b604051601f82017fffffffffffffffffffffffffffffffffffffffffffffffffffffffffffffffe016810167ffffffffffffffff8111828210171561169e5761169e611628565b604052919050565b600082601f8301126116b757600080fd5b813567ffffffffffffffff8111156116d1576116d1611628565b61170260207fffffffffffffffffffffffffffffffffffffffffffffffffffffffffffffffe0601f84011601611657565b81815284602083860101111561171757600080fd5b816020850160208301376000918101602001919091529392505050565b6000806040838503121561174757600080fd5b82359150602083013567ffffffffffffffff81111561176557600080fd5b611771858286016116a6565b9150509250929050565b600067ffffffffffffffff82111561179557611795611628565b5060051b60200190565b600080604083850312156117b257600080fd5b8235915060208084013567ffffffffffffffff8111156117d157600080fd5b8401601f810186136117e257600080fd5b80356117f56117f08261177b565b611657565b81815260059190911b8201830190838101908883111561181457600080fd5b928401925b8284101561183257833582529284019290840190611819565b80955050505050509250929050565b60006020828403121561185357600080fd5b813567ffffffffffffffff81111561186a57600080fd5b611876848285016116a6565b949350505050565b60208152600061149e60208301846114a5565b600060208083850312156118a457600080fd5b825167ffffffffffffffff8111156118bb57600080fd5b8301601f810185136118cc57600080fd5b80516118da6117f08261177b565b81815260059190911b820183019083810190878311156118f957600080fd5b928401925b82841015611917578351825292840192908401906118fe565b979650505050505050565b7f4e487b7100000000000000000000000000000000000000000000000000000000600052603260045260246000fd5b600181811c9082168061196557607f821691505b60208210810361199e577f4e487b7100000000000000000000000000000000000000000000000000000000600052602260045260246000fd5b50919050565b6000602082840312156119b657600080fd5b8151801515811461149e57600080fd5b60008083546119d481611951565b600182811680156119ec5760018114611a1f57611a4e565b7fffffffffffffffffffffffffffffffffffffffffffffffffffffffffffffff0084168752821515830287019450611a4e565b8760005260208060002060005b85811015611a455781548a820152908401908201611a2c565b50505082870194505b50929695505050505050565b600060208284031215611a6c57600080fd5b5051919050565b60007fffffffffffffffffffffffffffffffffffffffffffffffffffffffffffffffff8203611acb577f4e487b7100000000000000000000000000000000000000000000000000000000600052601160045260246000fd5b5060010190565b82815260406020820152600061187660408301846114a5565b601f8211156111ee57600081815260208120601f850160051c81016020861015611b125750805b601f850160051c820191505b8181101561130957828155600101611b1e565b815167ffffffffffffffff811115611b4b57611b4b611628565b611b5f81611b598454611951565b84611aeb565b602080601f831160018114611bb25760008415611b7c5750858301515b7fffffffffffffffffffffffffffffffffffffffffffffffffffffffffffffffff600386901b1c1916600185901b178555611309565b6000858152602081207fffffffffffffffffffffffffffffffffffffffffffffffffffffffffffffffe08616915b82811015611bff57888601518255948401946001909101908401611be0565b5085821015611c3b57878501517fffffffffffffffffffffffffffffffffffffffffffffffffffffffffffffffff600388901b60f8161c191681555b5050505050600190811b0190555056fea264697066735822122067f8f955622e344a5aff39e7a7b6280904ac08edfeaca107796324ac9eac0e0964736f6c63430008130033608060405234801561001057600080fd5b5061001a3361001f565b610099565b7f8a22373512790c48b83a1fe2efdd2888d4a917bcdc24d0adf63e60f67168046080546040516001600160a01b038481169216907f8be0079c531659141344cd1fd0a4f28419497f9722a3daafe3b4186f6b6457e090600090a380546001600160a01b0319166001600160a01b0392909216919091179055565b610760806100a86000396000f3fe608060405234801561001057600080fd5b50600436106100885760003560e01c80638e7cb6e11161005b5780638e7cb6e114610100578063949d225d1461012a578063cccf7a8e1461013b578063f2fde38b1461015e57600080fd5b80631003e2d21461008d578063410d59cc146100a25780634cc82215146100c05780638da5cb5b146100d3575b600080fd5b6100a061009b3660046105f2565b610171565b005b6100aa610233565b6040516100b7919061060b565b60405180910390f35b6100a06100ce3660046105f2565b61028b565b6100db6103ef565b60405173ffffffffffffffffffffffffffffffffffffffff90911681526020016100b7565b61011361010e3660046105f2565b610434565b6040805192151583526020830191909152016100b7565b6000546040519081526020016100b7565b61014e6101493660046105f2565b610467565b60405190151581526020016100b7565b6100a061016c36600461064f565b6104ca565b7f8a22373512790c48b83a1fe2efdd2888d4a917bcdc24d0adf63e60f6716804605473ffffffffffffffffffffffffffffffffffffffff1633146101e1576040517f2f7a8ee100000000000000000000000000000000000000000000000000000000815260040160405180910390fd5b6101ea81610467565b61023057600080548282526001602081905260408320829055810182559080527f290decd9548b62a8d60345a988386fc84ba6bc95484008f6362f93160ef3e563018190555b50565b6060600080548060200260200160405190810160405280929190818152602001828054801561028157602002820191906000526020600020905b81548152602001906001019080831161026d575b5050505050905090565b7f8a22373512790c48b83a1fe2efdd2888d4a917bcdc24d0adf63e60f6716804605473ffffffffffffffffffffffffffffffffffffffff1633146102fb576040517f2f7a8ee100000000000000000000000000000000000000000000000000000000815260040160405180910390fd5b61030481610467565b1561023057600080546103199060019061068c565b81548110610329576103296106cc565b9060005260206000200154600060016000848152602001908152602001600020548154811061035a5761035a6106cc565b60009182526020808320909101929092558281526001918290526040812054815490929190819084908110610391576103916106cc565b9060005260206000200154815260200190815260200160002081905550600160008281526020019081526020016000206000905560008054806103d6576103d66106fb565b6001900381819060005260206000200160009055905550565b600061042f7f8a22373512790c48b83a1fe2efdd2888d4a917bcdc24d0adf63e60f6716804605473ffffffffffffffffffffffffffffffffffffffff1690565b905090565b60008061044083610467565b61044f57506000928392509050565b50506000908152600160208190526040909120549091565b60008054810361047957506000919050565b60008281526001602052604081205490036104b55781600080815481106104a2576104a26106cc565b9060005260206000200154149050919050565b50600090815260016020526040902054151590565b7f8a22373512790c48b83a1fe2efdd2888d4a917bcdc24d0adf63e60f6716804605473ffffffffffffffffffffffffffffffffffffffff16331461053a576040517f2f7a8ee100000000000000000000000000000000000000000000000000000000815260040160405180910390fd5b610230817f8a22373512790c48b83a1fe2efdd2888d4a917bcdc24d0adf63e60f6716804608054604051610230928492909173ffffffffffffffffffffffffffffffffffffffff8085169216907f8be0079c531659141344cd1fd0a4f28419497f9722a3daafe3b4186f6b6457e090600090a380547fffffffffffffffffffffffff00000000000000000000000000000000000000001673ffffffffffffffffffffffffffffffffffffffff92909216919091179055565b60006020828403121561060457600080fd5b5035919050565b6020808252825182820181905260009190848201906040850190845b8181101561064357835183529284019291840191600101610627565b50909695505050505050565b60006020828403121561066157600080fd5b813573ffffffffffffffffffffffffffffffffffffffff8116811461068557600080fd5b9392505050565b818103818111156106c6577f4e487b7100000000000000000000000000000000000000000000000000000000600052601160045260246000fd5b92915050565b7f4e487b7100000000000000000000000000000000000000000000000000000000600052603260045260246000fd5b7f4e487b7100000000000000000000000000000000000000000000000000000000600052603160045260246000fdfea26469706673582212208376a7e0401692d59a5472ac89a0e7e4128083ce175c9ba341545004fdabc71864736f6c63430008130033608060405234801561001057600080fd5b5061001a3361001f565b610099565b7f8a22373512790c48b83a1fe2efdd2888d4a917bcdc24d0adf63e60f67168046080546040516001600160a01b038481169216907f8be0079c531659141344cd1fd0a4f28419497f9722a3daafe3b4186f6b6457e090600090a380546001600160a01b0319166001600160a01b0392909216919091179055565b6107a7806100a86000396000f3fe608060405234801561001057600080fd5b506004361061007d5760003560e01c806385edea131161005b57806385edea13146100d35780638da5cb5b14610101578063a0265ff81461012e578063f2fde38b1461015157600080fd5b80636526db7a14610082578063771602f714610097578063796c5e94146100aa575b600080fd5b61009561009036600461061d565b610164565b005b6100956100a536600461061d565b610301565b6100bd6100b836600461063f565b6103b5565b6040516100ca9190610658565b60405180910390f35b6100f36100e136600461063f565b60009081526020819052604090205490565b6040519081526020016100ca565b610109610415565b60405173ffffffffffffffffffffffffffffffffffffffff90911681526020016100ca565b61014161013c36600461061d565b61045a565b60405190151581526020016100ca565b61009561015f36600461069c565b6104ed565b7f8a22373512790c48b83a1fe2efdd2888d4a917bcdc24d0adf63e60f6716804605473ffffffffffffffffffffffffffffffffffffffff1633146101d4576040517f2f7a8ee100000000000000000000000000000000000000000000000000000000815260040160405180910390fd5b6101de828261045a565b156102fd57600082815260208190526040902080546101ff906001906106d9565b8154811061020f5761020f610713565b6000918252602080832090910154848352828252604080842060018452818520868652909352909220548154811061024957610249610713565b60009182526020808320909101929092558381526001825260408082208483528084528183205486845283855291832085845293819052835491939092918490811061029757610297610713565b600091825260208083209091015483528281019390935260409182018120939093558483526001825280832084845282528083208390558483529082905290208054806102e6576102e6610742565b600190038181906000526020600020016000905590555b5050565b7f8a22373512790c48b83a1fe2efdd2888d4a917bcdc24d0adf63e60f6716804605473ffffffffffffffffffffffffffffffffffffffff163314610371576040517f2f7a8ee100000000000000000000000000000000000000000000000000000000815260040160405180910390fd5b61037b828261045a565b6102fd5760009182526020828152604080842080546001808552838720868852855292862081905585845291820181558452922090910155565b6000818152602081815260409182902080548351818402810184019094528084526060939283018282801561040957602002820191906000526020600020905b8154815260200190600101908083116103f5575b50505050509050919050565b60006104557f8a22373512790c48b83a1fe2efdd2888d4a917bcdc24d0adf63e60f6716804605473ffffffffffffffffffffffffffffffffffffffff1690565b905090565b6000828152602081905260408120548103610477575060006104e7565b600083815260016020908152604080832085845290915281205490036104c957600083815260208190526040812080548492906104b6576104b6610713565b90600052602060002001541490506104e7565b50600082815260016020908152604080832084845290915290205415155b92915050565b7f8a22373512790c48b83a1fe2efdd2888d4a917bcdc24d0adf63e60f6716804605473ffffffffffffffffffffffffffffffffffffffff16331461055d576040517f2f7a8ee100000000000000000000000000000000000000000000000000000000815260040160405180910390fd5b61056681610569565b50565b7f8a22373512790c48b83a1fe2efdd2888d4a917bcdc24d0adf63e60f6716804608054604051610566928492909173ffffffffffffffffffffffffffffffffffffffff8085169216907f8be0079c531659141344cd1fd0a4f28419497f9722a3daafe3b4186f6b6457e090600090a380547fffffffffffffffffffffffff00000000000000000000000000000000000000001673ffffffffffffffffffffffffffffffffffffffff92909216919091179055565b6000806040838503121561063057600080fd5b50508035926020909101359150565b60006020828403121561065157600080fd5b5035919050565b6020808252825182820181905260009190848201906040850190845b8181101561069057835183529284019291840191600101610674565b50909695505050505050565b6000602082840312156106ae57600080fd5b813573ffffffffffffffffffffffffffffffffffffffff811681146106d257600080fd5b9392505050565b818103818111156104e7577f4e487b7100000000000000000000000000000000000000000000000000000000600052601160045260246000fd5b7f4e487b7100000000000000000000000000000000000000000000000000000000600052603260045260246000fd5b7f4e487b7100000000000000000000000000000000000000000000000000000000600052603160045260246000fdfea26469706673582212207a1245568005055446e762bc1e1bb0c92e55cfb387e50143b65d6848b835a86464736f6c634300081300338a22373512790c48b83a1fe2efdd2888d4a917bcdc24d0adf63e60f671680460",
    "linkReferences": {}
  },
  "methodIdentifiers": {
    "authorizeWriter(address)": "4fef6a38",
    "getEntities()": "31b933b9",
    "getEntitiesWithValue(bytes)": "b361be46",
    "getEntitiesWithValue(uint256)": "fbdfa1ea",
    "getRawValue(uint256)": "b8bc073d",
    "getSchema()": "6b122fe0",
    "getValue(uint256)": "0ff4c916",
    "has(uint256)": "cccf7a8e",
    "id()": "af640d0f",
    "owner()": "8da5cb5b",
    "registerIndexer(address)": "75c0669c",
    "registerWorld(address)": "9d2c76b4",
    "remove(uint256)": "4cc82215",
    "set(uint256,bytes)": "8b282947",
    "set(uint256,uint256[])": "946aadc6",
    "transferOwnership(address)": "f2fde38b",
    "unauthorizeWriter(address)": "bf4fe57e",
    "world()": "30b67baa",
    "writeAccess(address)": "861eb905"
  },
  "id": 27
}