{
  "abi": [
    {
      "inputs": [
        {
          "internalType": "contract IWorld",
          "name": "_world",
          "type": "address"
        },
        {
          "internalType": "address",
          "name": "_components",
          "type": "address"
        }
      ],
      "stateMutability": "nonpayable",
      "type": "constructor"
    },
    {
      "inputs": [],
      "name": "Ownable__NotOwner",
      "type": "error"
    },
    {
      "inputs": [],
      "name": "Ownable__NotTransitiveOwner",
      "type": "error"
    },
    {
      "anonymous": false,
      "inputs": [
        {
          "indexed": true,
          "internalType": "address",
          "name": "previousOwner",
          "type": "address"
        },
        {
          "indexed": true,
          "internalType": "address",
          "name": "newOwner",
          "type": "address"
        }
      ],
      "name": "OwnershipTransferred",
      "type": "event"
    },
    {
      "inputs": [
        {
          "internalType": "bytes",
          "name": "",
          "type": "bytes"
        }
      ],
      "name": "execute",
      "outputs": [
        {
          "internalType": "bytes",
          "name": "",
          "type": "bytes"
        }
      ],
      "stateMutability": "nonpayable",
      "type": "function"
    },
    {
      "inputs": [],
      "name": "executeTyped",
      "outputs": [
        {
          "internalType": "bytes",
          "name": "",
          "type": "bytes"
        }
      ],
      "stateMutability": "nonpayable",
      "type": "function"
    },
    {
      "inputs": [],
      "name": "owner",
      "outputs": [
        {
          "internalType": "address",
          "name": "",
          "type": "address"
        }
      ],
      "stateMutability": "view",
      "type": "function"
    },
    {
      "inputs": [
        {
          "internalType": "address",
          "name": "account",
          "type": "address"
        }
      ],
      "name": "transferOwnership",
      "outputs": [],
      "stateMutability": "nonpayable",
      "type": "function"
    }
  ],
  "bytecode": {
    "object": "0x60806040523480156200001157600080fd5b5060405162001a9138038062001a918339810160408190526200003491620001e0565b8181818162000043336200014d565b6001600160a01b038116156200005a5780620000bf565b816001600160a01b031663ba62fbe46040518163ffffffff1660e01b8152600401602060405180830381865afa15801562000099573d6000803e3d6000fd5b505050506040513d601f19601f82011682018060405250810190620000bf91906200021f565b600080546001600160a01b039283166001600160a01b0319918216811790925560018054938616938216841790557ff67304f10c7772c78e439bc5cb07781db345424de8878c18100fdaa64d197a87805482169093179092557ff67304f10c7772c78e439bc5cb07781db345424de8878c18100fdaa64d197a86805490921617905550505050505062000246565b7f8a22373512790c48b83a1fe2efdd2888d4a917bcdc24d0adf63e60f67168046080546040516001600160a01b038481169216907f8be0079c531659141344cd1fd0a4f28419497f9722a3daafe3b4186f6b6457e090600090a380546001600160a01b0319166001600160a01b0392909216919091179055565b6001600160a01b0381168114620001dd57600080fd5b50565b60008060408385031215620001f457600080fd5b82516200020181620001c7565b60208401519092506200021481620001c7565b809150509250929050565b6000602082840312156200023257600080fd5b81516200023f81620001c7565b9392505050565b61183b80620002566000396000f3fe608060405234801561001057600080fd5b506004361061004c5760003560e01c806309c5eabe146100515780638da5cb5b1461007a578063e1df4ba61461009a578063f2fde38b146100a2575b600080fd5b61006461005f36600461136d565b6100b7565b6040516100719190611411565b60405180910390f35b61008261061b565b6040516001600160a01b039091168152602001610071565b610064610653565b6100b56100b0366004611459565b61066e565b005b60603360006100d36000805160206117e68339815191526106c4565b6001600160a01b0316630ff4c916836040518263ffffffff1660e01b815260040161010091815260200190565b602060405180830381865afa15801561011d573d6000803e3d6000fd5b505050506040513d601f19601f82011682018060405250810190610141919061148f565b9050600061018b604051806040016040528060128152602001713932b9b2b0b931b41722bc3830b739b4b7b760711b81525083600161018091906114c0565b63ffffffff166106e1565b60008054919250906101c6906001600160a01b03167f7b57b44498c6155c2cddd885fdb0bd8919e1aaa941c53d7f9870e332c474b187610715565b604051636667bd4760e11b8152600481018490529091506001600160a01b0382169063cccf7a8e90602401602060405180830381865afa15801561020e573d6000803e3d6000fd5b505050506040513d601f19601f8201168201806040525081019061023291906114e4565b61029a5760405162461bcd60e51b815260206004820152602e60248201527f5b5570677261646552616e676553797374656d5d20546563686e6f6c6f67792060448201526d1b9bdd081c9959da5cdd195c995960921b60648201526084015b60405180910390fd5b6001546102b1906001600160a01b031685846107f7565b6103235760405162461bcd60e51b815260206004820152603760248201527f5b5570677261646552616e676553797374656d5d204d61696e42617365206c6560448201527f76656c20726571756972656d656e74206e6f74206d65740000000000000000006064820152608401610291565b600054610359906001600160a01b03167ff5bd2f5cb6567cf0fa832e8e7971a94af009d0ec1e329976b883c7ab50488278610715565b6001600160a01b031663cccf7a8e836040518263ffffffff1660e01b815260040161038691815260200190565b602060405180830381865afa1580156103a3573d6000803e3d6000fd5b505050506040513d601f19601f820116820180604052508101906103c791906114e4565b1561056157600180546103e9916001600160a01b039091169086908590610983565b6104535760405162461bcd60e51b815260206004820152603560248201527f5b5570677261646552616e676553797374656d5d204e6f7420656e6f756768206044820152740e4cae6deeae4c6cae640e8de40e4cae6cac2e4c6d605b1b6064820152608401610291565b600154604080516306ac999760e11b815290516104e8926001600160a01b031691630d59332e9160048083019260209291908290030181865afa15801561049e573d6000803e3d6000fd5b505050506040513d601f19601f820116820180604052508101906104c29190611506565b7f260bed7a4ae2c80f17d6f2234fcc01f312c59c50933985489f350f675fc3ed14610715565b604051636ad0ccab60e01b8152336004820152602481018490526001600160a01b039190911690636ad0ccab906044016000604051808303816000875af1158015610537573d6000803e3d6000fd5b505050506040513d6000823e601f3d908101601f1916820160405261055f9190810190611523565b505b6105786000805160206117e68339815191526106c4565b6001600160a01b031663d923c3c4856105928660016114c0565b6040516001600160e01b031960e085901b168152600481019290925263ffffffff166024820152604401600060405180830381600087803b1580156105d657600080fd5b505af11580156105ea573d6000803e3d6000fd5b505060408051600160208201520191506106019050565b604051602081830303815290604052945050505050919050565b600061064e7f8a22373512790c48b83a1fe2efdd2888d4a917bcdc24d0adf63e60f671680460546001600160a01b031690565b905090565b60408051600081526020810190915260609061064e906100b7565b7f8a22373512790c48b83a1fe2efdd2888d4a917bcdc24d0adf63e60f671680460546001600160a01b031633146106b857604051632f7a8ee160e01b815260040160405180910390fd5b6106c181610e13565b50565b600080546106db906001600160a01b031683610715565b92915050565b600082826040516020016106f6929190611591565b60408051601f1981840301815291905280516020909101209392505050565b604051637defd0f560e11b81526004810182905260009081906001600160a01b0385169063fbdfa1ea90602401600060405180830381865afa15801561075f573d6000803e3d6000fd5b505050506040513d6000823e601f3d908101601f19168201604052610787919081019061163d565b905080516000036107ce5760405162461bcd60e51b81526020600482015260116024820152701a59081b9bdd081c9959da5cdd195c9959607a1b6044820152606401610291565b6107ef816000815181106107e4576107e4611672565b602002602001015190565b949350505050565b600080610873856001600160a01b031663ba62fbe46040518163ffffffff1660e01b8152600401602060405180830381865afa15801561083b573d6000803e3d6000fd5b505050506040513d601f19601f8201168201806040525081019061085f9190611506565b6000805160206117e6833981519152610715565b604051636667bd4760e11b8152600481018590529091506001600160a01b0382169063cccf7a8e90602401602060405180830381865afa1580156108bb573d6000803e3d6000fd5b505050506040513d601f19601f820116820180604052508101906108df91906114e4565b6108ed57600191505061097c565b60006108f98686610e1c565b63ffffffff169050816001600160a01b0316630ff4c916856040518263ffffffff1660e01b815260040161092f91815260200190565b602060405180830381865afa15801561094c573d6000803e3d6000fd5b505050506040513d601f19601f82011682018060405250810190610970919061148f565b63ffffffff1611159150505b9392505050565b6040516309e4fb4360e31b81527ff5bd2f5cb6567cf0fa832e8e7971a94af009d0ec1e329976b883c7ab50488278600482015260009081906001600160a01b03871690634f27da1890602401602060405180830381865afa1580156109ec573d6000803e3d6000fd5b505050506040513d601f19601f82011682018060405250810190610a109190611506565b6040516309e4fb4360e31b81527ffba48a04766694c16713a414735f83be9cb20bbb29b5e18846cc8f151064084560048201529091506000906001600160a01b03881690634f27da1890602401602060405180830381865afa158015610a7a573d6000803e3d6000fd5b505050506040513d601f19601f82011682018060405250810190610a9e9190611506565b604051636667bd4760e11b8152600481018790529091506001600160a01b0383169063cccf7a8e90602401602060405180830381865afa158015610ae6573d6000803e3d6000fd5b505050506040513d601f19601f82011682018060405250810190610b0a91906114e4565b610b19576001925050506107ef565b6040516309e4fb4360e31b81527f222d9674c2fee077bc82c84232803a9168906e2be25c4560d094c76895b8a43260048201526000906001600160a01b03891690634f27da1890602401602060405180830381865afa158015610b80573d6000803e3d6000fd5b505050506040513d601f19601f82011682018060405250810190610ba49190611506565b6040516309e4fb4360e31b81527fe95fc307e3922a4ed7e1a9d135b2e79aad91e806428d8c7ec9a376dfc8aede5e60048201529091506000906001600160a01b038a1690634f27da1890602401602060405180830381865afa158015610c0e573d6000803e3d6000fd5b505050506040513d601f19601f82011682018060405250810190610c329190611506565b6040516307fa648b60e11b8152600481018990529091506000906001600160a01b03861690630ff4c91690602401600060405180830381865afa158015610c7d573d6000803e3d6000fd5b505050506040513d6000823e601f3d908101601f19168201604052610ca59190810190611688565b905060005b815151811015610e025760008883602001518381518110610ccd57610ccd611672565b6020026020010151610cdf9190611778565b90506000610d0a84600001518481518110610cfc57610cfc611672565b60200260200101518d61107f565b90506000610d18888361109b565b90506000610d26888461109b565b63ffffffff161115610dc657610d3c868361117b565b610d4690436117a0565b6040516307fa648b60e11b8152600481018490526001600160a01b03891690630ff4c91690602401602060405180830381865afa158015610d8b573d6000803e3d6000fd5b505050506040513d601f19601f82011682018060405250810190610daf919061148f565b610db99190611778565b610dc390826114c0565b90505b8063ffffffff168363ffffffff161115610dec57600099505050505050505050506107ef565b5050508080610dfa906117b3565b915050610caa565b5060019a9950505050505050505050565b6106c18161125b565b6040516309e4fb4360e31b81527f84dcd47dfd0ba519a03bd44d032054d6f29f79700587b112a577b94d6440fa66600482015260009081906001600160a01b03851690634f27da1890602401602060405180830381865afa158015610e85573d6000803e3d6000fd5b505050506040513d601f19601f82011682018060405250810190610ea99190611506565b604051636667bd4760e11b8152600481018590529091506001600160a01b0382169063cccf7a8e90602401602060405180830381865afa158015610ef1573d6000803e3d6000fd5b505050506040513d601f19601f82011682018060405250810190610f1591906114e4565b610f235760009150506106db565b6040516307fa648b60e11b8152600481018490526000906001600160a01b03831690630ff4c91690602401602060405180830381865afa158015610f6b573d6000803e3d6000fd5b505050506040513d601f19601f82011682018060405250810190610f8f91906117cc565b6040516309e4fb4360e31b81526000805160206117e683398151915260048201529091506001600160a01b03861690634f27da1890602401602060405180830381865afa158015610fe4573d6000803e3d6000fd5b505050506040513d601f19601f820116820180604052508101906110089190611506565b6001600160a01b0316630ff4c916826040518263ffffffff1660e01b815260040161103591815260200190565b602060405180830381865afa158015611052573d6000803e3d6000fd5b505050506040513d601f19601f82011682018060405250810190611076919061148f565b95945050505050565b60408051602081018490529081018290526000906060016106f6565b604051636667bd4760e11b8152600481018290526000906001600160a01b0384169063cccf7a8e90602401602060405180830381865afa1580156110e3573d6000803e3d6000fd5b505050506040513d601f19601f8201168201806040525081019061110791906114e4565b61111257600061097c565b6040516307fa648b60e11b8152600481018390526001600160a01b03841690630ff4c91690602401602060405180830381865afa158015611157573d6000803e3d6000fd5b505050506040513d601f19601f8201168201806040525081019061097c919061148f565b604051636667bd4760e11b8152600481018290526000906001600160a01b0384169063cccf7a8e90602401602060405180830381865afa1580156111c3573d6000803e3d6000fd5b505050506040513d601f19601f820116820180604052508101906111e791906114e4565b6111f257600061097c565b6040516307fa648b60e11b8152600481018390526001600160a01b03841690630ff4c91690602401602060405180830381865afa158015611237573d6000803e3d6000fd5b505050506040513d601f19601f8201168201806040525081019061097c91906117cc565b7f8a22373512790c48b83a1fe2efdd2888d4a917bcdc24d0adf63e60f67168046080546040516001600160a01b038481169216907f8be0079c531659141344cd1fd0a4f28419497f9722a3daafe3b4186f6b6457e090600090a380546001600160a01b0319166001600160a01b0392909216919091179055565b634e487b7160e01b600052604160045260246000fd5b6040805190810167ffffffffffffffff8111828210171561130e5761130e6112d5565b60405290565b604051601f8201601f1916810167ffffffffffffffff8111828210171561133d5761133d6112d5565b604052919050565b600067ffffffffffffffff82111561135f5761135f6112d5565b50601f01601f191660200190565b60006020828403121561137f57600080fd5b813567ffffffffffffffff81111561139657600080fd5b8201601f810184136113a757600080fd5b80356113ba6113b582611345565b611314565b8181528560208385010111156113cf57600080fd5b81602084016020830137600091810160200191909152949350505050565b60005b838110156114085781810151838201526020016113f0565b50506000910152565b60208152600082518060208401526114308160408501602087016113ed565b601f01601f19169190910160400192915050565b6001600160a01b03811681146106c157600080fd5b60006020828403121561146b57600080fd5b813561097c81611444565b805163ffffffff8116811461148a57600080fd5b919050565b6000602082840312156114a157600080fd5b61097c82611476565b634e487b7160e01b600052601160045260246000fd5b63ffffffff8181168382160190808211156114dd576114dd6114aa565b5092915050565b6000602082840312156114f657600080fd5b8151801515811461097c57600080fd5b60006020828403121561151857600080fd5b815161097c81611444565b60006020828403121561153557600080fd5b815167ffffffffffffffff81111561154c57600080fd5b8201601f8101841361155d57600080fd5b805161156b6113b582611345565b81815285602083850101111561158057600080fd5b6110768260208301602086016113ed565b600083516115a38184602088016113ed565b9190910191825250602001919050565b600067ffffffffffffffff8211156115cd576115cd6112d5565b5060051b60200190565b600082601f8301126115e857600080fd5b815160206115f86113b5836115b3565b82815260059290921b8401810191818101908684111561161757600080fd5b8286015b84811015611632578051835291830191830161161b565b509695505050505050565b60006020828403121561164f57600080fd5b815167ffffffffffffffff81111561166657600080fd5b6107ef848285016115d7565b634e487b7160e01b600052603260045260246000fd5b6000602080838503121561169b57600080fd5b825167ffffffffffffffff808211156116b357600080fd5b90840190604082870312156116c757600080fd5b6116cf6112eb565b8251828111156116de57600080fd5b6116ea888286016115d7565b82525083830151828111156116fe57600080fd5b80840193505086601f84011261171357600080fd5b825191506117236113b5836115b3565b82815260059290921b8301840191848101908884111561174257600080fd5b938501935b838510156117675761175885611476565b82529385019390850190611747565b948201949094529695505050505050565b63ffffffff818116838216028082169190828114611798576117986114aa565b505092915050565b818103818111156106db576106db6114aa565b6000600182016117c5576117c56114aa565b5060010190565b6000602082840312156117de57600080fd5b505191905056febd262b900b9f3e3d6078d7a8e45d1bee5f4fd9547063f524ac4cbf611d37b44ea2646970667358221220237ffc22bc9e6cdc05cec9ada0023ceef1073b66fdac0400c2b18e7407495e2664736f6c63430008130033",
    "linkReferences": {}
  },
  "methodIdentifiers": {
    "execute(bytes)": "09c5eabe",
    "executeTyped()": "e1df4ba6",
    "owner()": "8da5cb5b",
    "transferOwnership(address)": "f2fde38b"
  },
  "id": 222
}