{
  "abi": [
    {
      "inputs": [
        {
          "internalType": "contract IWorld",
          "name": "_world",
          "type": "address"
        },
        {
          "internalType": "address",
          "name": "_components",
          "type": "address"
        }
      ],
      "stateMutability": "nonpayable",
      "type": "constructor"
    },
    {
      "inputs": [],
      "name": "Ownable__NotOwner",
      "type": "error"
    },
    {
      "inputs": [],
      "name": "Ownable__NotTransitiveOwner",
      "type": "error"
    },
    {
      "anonymous": false,
      "inputs": [
        {
          "indexed": true,
          "internalType": "address",
          "name": "previousOwner",
          "type": "address"
        },
        {
          "indexed": true,
          "internalType": "address",
          "name": "newOwner",
          "type": "address"
        }
      ],
      "name": "OwnershipTransferred",
      "type": "event"
    },
    {
      "inputs": [
        {
          "internalType": "bytes",
          "name": "args",
          "type": "bytes"
        }
      ],
      "name": "execute",
      "outputs": [
        {
          "internalType": "bytes",
          "name": "",
          "type": "bytes"
        }
      ],
      "stateMutability": "nonpayable",
      "type": "function"
    },
    {
      "inputs": [
        {
          "components": [
            {
              "internalType": "int32",
              "name": "x",
              "type": "int32"
            },
            {
              "internalType": "int32",
              "name": "y",
              "type": "int32"
            },
            {
              "internalType": "uint256",
              "name": "parent",
              "type": "uint256"
            }
          ],
          "internalType": "struct Coord",
          "name": "coord",
          "type": "tuple"
        }
      ],
      "name": "executeTyped",
      "outputs": [
        {
          "internalType": "bytes",
          "name": "",
          "type": "bytes"
        }
      ],
      "stateMutability": "nonpayable",
      "type": "function"
    },
    {
      "inputs": [],
      "name": "owner",
      "outputs": [
        {
          "internalType": "address",
          "name": "",
          "type": "address"
        }
      ],
      "stateMutability": "view",
      "type": "function"
    },
    {
      "inputs": [
        {
          "internalType": "address",
          "name": "account",
          "type": "address"
        }
      ],
      "name": "transferOwnership",
      "outputs": [],
      "stateMutability": "nonpayable",
      "type": "function"
    }
  ],
  "bytecode": {
    "object": "0x60806040523480156200001157600080fd5b5060405162003259380380620032598339810160408190526200003491620001e0565b8181818162000043336200014d565b6001600160a01b038116156200005a5780620000bf565b816001600160a01b031663ba62fbe46040518163ffffffff1660e01b8152600401602060405180830381865afa15801562000099573d6000803e3d6000fd5b505050506040513d601f19601f82011682018060405250810190620000bf91906200021f565b600080546001600160a01b039283166001600160a01b0319918216811790925560018054938616938216841790557ff67304f10c7772c78e439bc5cb07781db345424de8878c18100fdaa64d197a87805482169093179092557ff67304f10c7772c78e439bc5cb07781db345424de8878c18100fdaa64d197a86805490921617905550505050505062000246565b7f8a22373512790c48b83a1fe2efdd2888d4a917bcdc24d0adf63e60f67168046080546040516001600160a01b038481169216907f8be0079c531659141344cd1fd0a4f28419497f9722a3daafe3b4186f6b6457e090600090a380546001600160a01b0319166001600160a01b0392909216919091179055565b6001600160a01b0381168114620001dd57600080fd5b50565b60008060408385031215620001f457600080fd5b82516200020181620001c7565b60208401519092506200021481620001c7565b809150509250929050565b6000602082840312156200023257600080fd5b81516200023f81620001c7565b9392505050565b61300380620002566000396000f3fe608060405234801561001057600080fd5b506004361061004c5760003560e01c806309c5eabe146100515780634f2870da1461007a5780638da5cb5b1461008d578063f2fde38b146100ba575b600080fd5b61006461005f3660046129aa565b6100cf565b6040516100719190612a4e565b60405180910390f35b610064610088366004612aae565b61182c565b610095611883565b60405173ffffffffffffffffffffffffffffffffffffffff9091168152602001610071565b6100cd6100c8366004612b1d565b6118c8565b005b60606000828060200190518101906100e79190612b3a565b600080549192509061012f9073ffffffffffffffffffffffffffffffffffffffff167f7562ebb298d855e68fb2922ace89e271e36c031fb473ee4be72f900215d523c5611944565b60008054919250906101779073ffffffffffffffffffffffffffffffffffffffff167faf90be6cd7aa92d6569a9ae629178b74e1b0fbdd1097c27ec1dfffd2dc4c7540611944565b60008054919250906101bf9073ffffffffffffffffffffffffffffffffffffffff167fbd262b900b9f3e3d6078d7a8e45d1bee5f4fd9547063f524ac4cbf611d37b44e611944565b60008054919250906102079073ffffffffffffffffffffffffffffffffffffffff167f4b4a810b1b9d1e9cbc5e2151ce528a36f909ea687f49c43c49a9fbc92c843517611944565b9050600061021486611a90565b9050806000036102ab576040517f08c379a000000000000000000000000000000000000000000000000000000000815260206004820152602e60248201527f5b5570677261646553797374656d5d206e6f206275696c64696e67206174207460448201527f68697320636f6f7264696e61746500000000000000000000000000000000000060648201526084015b60405180910390fd5b6040517fcccf7a8e0000000000000000000000000000000000000000000000000000000081526004810182905273ffffffffffffffffffffffffffffffffffffffff84169063cccf7a8e90602401602060405180830381865afa158015610316573d6000803e3d6000fd5b505050506040513d601f19601f8201168201806040525081019061033a9190612b87565b6103c6576040517f08c379a000000000000000000000000000000000000000000000000000000000815260206004820152602d60248201527f5b5570677261646553797374656d5d2043616e6e6f742075706772616465206160448201527f206e6f6e2d6275696c64696e670000000000000000000000000000000000000060648201526084016102a2565b6000336040517f0ff4c91600000000000000000000000000000000000000000000000000000000815260048101849052909150819073ffffffffffffffffffffffffffffffffffffffff871690630ff4c91690602401602060405180830381865afa158015610439573d6000803e3d6000fd5b505050506040513d601f19601f8201168201806040525081019061045d9190612ba9565b14610510576040517f08c379a000000000000000000000000000000000000000000000000000000000815260206004820152604260248201527f5b5570677261646553797374656d5d2043616e6e6f742075706772616465206160448201527f206275696c64696e672074686174206973206e6f74206f776e6564206279207960648201527f6f75000000000000000000000000000000000000000000000000000000000000608482015260a4016102a2565b6040517f0ff4c9160000000000000000000000000000000000000000000000000000000081526004810183905260009073ffffffffffffffffffffffffffffffffffffffff881690630ff4c91690602401602060405180830381865afa15801561057e573d6000803e3d6000fd5b505050506040513d601f19601f820116820180604052508101906105a29190612ba9565b6040517fcccf7a8e0000000000000000000000000000000000000000000000000000000081526004810182905290915073ffffffffffffffffffffffffffffffffffffffff85169063cccf7a8e90602401602060405180830381865afa158015610610573d6000803e3d6000fd5b505050506040513d601f19601f820116820180604052508101906106349190612b87565b801561075457506040517f0ff4c9160000000000000000000000000000000000000000000000000000000081526004810182905273ffffffffffffffffffffffffffffffffffffffff851690630ff4c91690602401602060405180830381865afa1580156106a6573d6000803e3d6000fd5b505050506040513d601f19601f820116820180604052508101906106ca9190612bdb565b63ffffffff168573ffffffffffffffffffffffffffffffffffffffff16630ff4c916856040518263ffffffff1660e01b815260040161070b91815260200190565b602060405180830381865afa158015610728573d6000803e3d6000fd5b505050506040513d601f19601f8201168201806040525081019061074c9190612bdb565b63ffffffff16105b610806576040517f08c379a000000000000000000000000000000000000000000000000000000000815260206004820152605d60248201527f5b5570677261646553797374656d5d2043616e6e6f742075706772616465206260448201527f75696c64696e67207468617420646f6573206e6f742068617665206d6178206c60648201527f6576656c206f72206861732072656163686564206d6178206c6576656c000000608482015260a4016102a2565b600061089e828773ffffffffffffffffffffffffffffffffffffffff16630ff4c916876040518263ffffffff1660e01b815260040161084791815260200190565b602060405180830381865afa158015610864573d6000803e3d6000fd5b505050506040513d601f19601f820116820180604052508101906108889190612bdb565b610893906001612c25565b63ffffffff16611c48565b6001549091506108c59073ffffffffffffffffffffffffffffffffffffffff168285611c9d565b610977576040517f08c379a000000000000000000000000000000000000000000000000000000000815260206004820152605260248201527f5b5570677261646553797374656d5d2043616e6e6f742075706772616465206160448201527f206275696c64696e67207468617420646f6573206e6f74206d6565742072657360648201527f656172636820726571756972656d656e74730000000000000000000000000000608482015260a4016102a2565b6000546109ba9073ffffffffffffffffffffffffffffffffffffffff167ff5bd2f5cb6567cf0fa832e8e7971a94af009d0ec1e329976b883c7ab50488278611944565b73ffffffffffffffffffffffffffffffffffffffff1663cccf7a8e826040518263ffffffff1660e01b81526004016109f491815260200190565b602060405180830381865afa158015610a11573d6000803e3d6000fd5b505050506040513d601f19601f82011682018060405250810190610a359190612b87565b15610c6257600154610a5e9073ffffffffffffffffffffffffffffffffffffffff168285611f80565b610aea576040517f08c379a000000000000000000000000000000000000000000000000000000000815260206004820152603660248201527f5b5570677261646553797374656d5d20596f7520646f206e6f7420686176652060448201527f746865207265717569726564207265736f75726365730000000000000000000060648201526084016102a2565b600154604080517f0d59332e0000000000000000000000000000000000000000000000000000000081529051610ba59273ffffffffffffffffffffffffffffffffffffffff1691630d59332e9160048083019260209291908290030181865afa158015610b5b573d6000803e3d6000fd5b505050506040513d601f19601f82011682018060405250810190610b7f9190612c49565b7f260bed7a4ae2c80f17d6f2234fcc01f312c59c50933985489f350f675fc3ed14611944565b6040517f6ad0ccab0000000000000000000000000000000000000000000000000000000081523360048201526024810183905273ffffffffffffffffffffffffffffffffffffffff9190911690636ad0ccab906044016000604051808303816000875af1158015610c1a573d6000803e3d6000fd5b505050506040513d6000823e601f3d9081017fffffffffffffffffffffffffffffffffffffffffffffffffffffffffffffffe0168201604052610c609190810190612c66565b505b6040517f0ff4c9160000000000000000000000000000000000000000000000000000000081526004810185905260009073ffffffffffffffffffffffffffffffffffffffff881690630ff4c91690602401602060405180830381865afa158015610cd0573d6000803e3d6000fd5b505050506040513d601f19601f82011682018060405250810190610cf49190612bdb565b610cff906001612c25565b6040517fd923c3c40000000000000000000000000000000000000000000000000000000081526004810187905263ffffffff8216602482015290915073ffffffffffffffffffffffffffffffffffffffff88169063d923c3c490604401600060405180830381600087803b158015610d7657600080fd5b505af1158015610d8a573d6000803e3d6000fd5b505050506000610da0848363ffffffff16611c48565b600054909150610de69073ffffffffffffffffffffffffffffffffffffffff167fa9030fd5d2d8df4ef9e9a591c66869629e3031bc7112e7766b55d9f29321005d611944565b73ffffffffffffffffffffffffffffffffffffffff1663cccf7a8e826040518263ffffffff1660e01b8152600401610e2091815260200190565b602060405180830381865afa158015610e3d573d6000803e3d6000fd5b505050506040513d601f19601f82011682018060405250810190610e619190612b87565b15610fc557600154604080517f0d59332e0000000000000000000000000000000000000000000000000000000081529051610f219273ffffffffffffffffffffffffffffffffffffffff1691630d59332e9160048083019260209291908290030181865afa158015610ed7573d6000803e3d6000fd5b505050506040513d601f19601f82011682018060405250810190610efb9190612c49565b7f660f6c71dbaa192b9bd9e00021efa67f00d608c104acfa0d0e42fa323f5f31e3611944565b73ffffffffffffffffffffffffffffffffffffffff166327b45099338860016040518463ffffffff1660e01b8152600401610f5e93929190612cdd565b6000604051808303816000875af1158015610f7d573d6000803e3d6000fd5b505050506040513d6000823e601f3d9081017fffffffffffffffffffffffffffffffffffffffffffffffffffffffffffffffe0168201604052610fc39190810190612c66565b505b6000546110089073ffffffffffffffffffffffffffffffffffffffff167f2444db3b2cf5ba1059ebafe0212ddf405afa28d4ca9f16e72b56afe6e5f673c8611944565b73ffffffffffffffffffffffffffffffffffffffff1663cccf7a8e826040518263ffffffff1660e01b815260040161104291815260200190565b602060405180830381865afa15801561105f573d6000803e3d6000fd5b505050506040513d601f19601f820116820180604052508101906110839190612b87565b156111e757600154604080517f0d59332e00000000000000000000000000000000000000000000000000000000815290516111439273ffffffffffffffffffffffffffffffffffffffff1691630d59332e9160048083019260209291908290030181865afa1580156110f9573d6000803e3d6000fd5b505050506040513d601f19601f8201168201806040525081019061111d9190612c49565b7ff2021642afaf65bb89c355c68b4a3fc6356dc9299686fc001113a2e2b7b600a3611944565b73ffffffffffffffffffffffffffffffffffffffff166327b45099338860016040518463ffffffff1660e01b815260040161118093929190612cdd565b6000604051808303816000875af115801561119f573d6000803e3d6000fd5b505050506040513d6000823e601f3d9081017fffffffffffffffffffffffffffffffffffffffffffffffffffffffffffffffe01682016040526111e59190810190612c66565b505b6112107f72887d78bbad0f2696fb431d6367da7b429df07154724db7df055e27fb64080f612544565b73ffffffffffffffffffffffffffffffffffffffff1663cccf7a8e826040518263ffffffff1660e01b815260040161124a91815260200190565b602060405180830381865afa158015611267573d6000803e3d6000fd5b505050506040513d601f19601f8201168201806040525081019061128b9190612b87565b156113ef57600154604080517f0d59332e000000000000000000000000000000000000000000000000000000008152905161134b9273ffffffffffffffffffffffffffffffffffffffff1691630d59332e9160048083019260209291908290030181865afa158015611301573d6000803e3d6000fd5b505050506040513d601f19601f820116820180604052508101906113259190612c49565b7faa8242bee50b0300451ea2c344f4e688de8f3fd6285f41dc966a799512ca9eb0611944565b73ffffffffffffffffffffffffffffffffffffffff166327b45099338860016040518463ffffffff1660e01b815260040161138893929190612cdd565b6000604051808303816000875af11580156113a7573d6000803e3d6000fd5b505050506040513d6000823e601f3d9081017fffffffffffffffffffffffffffffffffffffffffffffffffffffffffffffffe01682016040526113ed9190810190612c66565b505b6114187fd984664f54fc6fda5470509ef9c0e55b1727f163cfff0999a19085f3302d89f3612544565b73ffffffffffffffffffffffffffffffffffffffff1663cccf7a8e826040518263ffffffff1660e01b815260040161145291815260200190565b602060405180830381865afa15801561146f573d6000803e3d6000fd5b505050506040513d601f19601f820116820180604052508101906114939190612b87565b156115f757600154604080517f0d59332e00000000000000000000000000000000000000000000000000000000815290516115539273ffffffffffffffffffffffffffffffffffffffff1691630d59332e9160048083019260209291908290030181865afa158015611509573d6000803e3d6000fd5b505050506040513d601f19601f8201168201806040525081019061152d9190612c49565b7f690f759f3a1f00ae23e931e20f0dd3a4c4600194af4ab836b252764cb88421ee611944565b73ffffffffffffffffffffffffffffffffffffffff166327b45099338860016040518463ffffffff1660e01b815260040161159093929190612cdd565b6000604051808303816000875af11580156115af573d6000803e3d6000fd5b505050506040513d6000823e601f3d9081017fffffffffffffffffffffffffffffffffffffffffffffffffffffffffffffffe01682016040526115f59190810190612c66565b505b6116207f391ed979ad48ef48aa0e385aaffe280328c830054d2153bba1cf3da0b7bf45ab612544565b73ffffffffffffffffffffffffffffffffffffffff1663cccf7a8e826040518263ffffffff1660e01b815260040161165a91815260200190565b602060405180830381865afa158015611677573d6000803e3d6000fd5b505050506040513d601f19601f8201168201806040525081019061169b9190612b87565b156117ff57600154604080517f0d59332e000000000000000000000000000000000000000000000000000000008152905161175b9273ffffffffffffffffffffffffffffffffffffffff1691630d59332e9160048083019260209291908290030181865afa158015611711573d6000803e3d6000fd5b505050506040513d601f19601f820116820180604052508101906117359190612c49565b7f3b853fcf76b99875472d129abafa9494b9cc622934bd81349a2d0a8c03069f29611944565b73ffffffffffffffffffffffffffffffffffffffff166327b45099338860016040518463ffffffff1660e01b815260040161179893929190612cdd565b6000604051808303816000875af11580156117b7573d6000803e3d6000fd5b505050506040513d6000823e601f3d9081017fffffffffffffffffffffffffffffffffffffffffffffffffffffffffffffffe01682016040526117fd9190810190612c66565b505b6040805160208101889052016040516020818303038152906040529b505050505050505050505050919050565b606061187d8260405160200161186991906000606082019050825160030b8252602083015160030b60208301526040830151604083015292915050565b6040516020818303038152906040526100cf565b92915050565b60006118c37f8a22373512790c48b83a1fe2efdd2888d4a917bcdc24d0adf63e60f6716804605473ffffffffffffffffffffffffffffffffffffffff1690565b905090565b7f8a22373512790c48b83a1fe2efdd2888d4a917bcdc24d0adf63e60f6716804605473ffffffffffffffffffffffffffffffffffffffff163314611938576040517f2f7a8ee100000000000000000000000000000000000000000000000000000000815260040160405180910390fd5b61194181612568565b50565b6040517ffbdfa1ea00000000000000000000000000000000000000000000000000000000815260048101829052600090819073ffffffffffffffffffffffffffffffffffffffff85169063fbdfa1ea90602401600060405180830381865afa1580156119b4573d6000803e3d6000fd5b505050506040513d6000823e601f3d9081017fffffffffffffffffffffffffffffffffffffffffffffffffffffffffffffffe01682016040526119fa9190810190612dd0565b90508051600003611a67576040517f08c379a000000000000000000000000000000000000000000000000000000000815260206004820152601160248201527f6964206e6f74207265676973746572656400000000000000000000000000000060448201526064016102a2565b611a8881600081518110611a7d57611a7d612e05565b602002602001015190565b949350505050565b600080548190611ad69073ffffffffffffffffffffffffffffffffffffffff167faf90be6cd7aa92d6569a9ae629178b74e1b0fbdd1097c27ec1dfffd2dc4c7540611944565b90506000611b196040518060400160405280600d81526020017f6275696c64696e672e74696c650000000000000000000000000000000000000081525085612571565b6040517fcccf7a8e0000000000000000000000000000000000000000000000000000000081526004810182905290915073ffffffffffffffffffffffffffffffffffffffff83169063cccf7a8e90602401602060405180830381865afa158015611b87573d6000803e3d6000fd5b505050506040513d601f19601f82011682018060405250810190611bab9190612b87565b611bb9575060009392505050565b6040517f0ff4c9160000000000000000000000000000000000000000000000000000000081526004810182905273ffffffffffffffffffffffffffffffffffffffff831690630ff4c91690602401602060405180830381865afa158015611c24573d6000803e3d6000fd5b505050506040513d601f19601f82011682018060405250810190611a889190612ba9565b60408051602081018490529081018290526000906060015b604080517fffffffffffffffffffffffffffffffffffffffffffffffffffffffffffffffe081840301815291905280516020909101209392505050565b600080611d388573ffffffffffffffffffffffffffffffffffffffff1663ba62fbe46040518163ffffffff1660e01b8152600401602060405180830381865afa158015611cee573d6000803e3d6000fd5b505050506040513d601f19601f82011682018060405250810190611d129190612c49565b7fde1c65b05c7ffe64309a45c5521210871b3b7dda339e8e2921d5bea2543e2ef8611944565b6040517fcccf7a8e0000000000000000000000000000000000000000000000000000000081526004810186905290915073ffffffffffffffffffffffffffffffffffffffff82169063cccf7a8e90602401602060405180830381865afa158015611da6573d6000803e3d6000fd5b505050506040513d601f19601f82011682018060405250810190611dca9190612b87565b611dd8576001915050611f79565b6000611e728673ffffffffffffffffffffffffffffffffffffffff1663ba62fbe46040518163ffffffff1660e01b8152600401602060405180830381865afa158015611e28573d6000803e3d6000fd5b505050506040513d601f19601f82011682018060405250810190611e4c9190612c49565b7fcac70f64f2c43ee6b17f4ff03bae772a913c7198090af99d8b3ebb1c25a8641e611944565b90508073ffffffffffffffffffffffffffffffffffffffff1663cccf7a8e611f158473ffffffffffffffffffffffffffffffffffffffff16630ff4c916896040518263ffffffff1660e01b8152600401611ece91815260200190565b602060405180830381865afa158015611eeb573d6000803e3d6000fd5b505050506040513d601f19601f82011682018060405250810190611f0f9190612ba9565b87611c48565b6040518263ffffffff1660e01b8152600401611f3391815260200190565b602060405180830381865afa158015611f50573d6000803e3d6000fd5b505050506040513d601f19601f82011682018060405250810190611f749190612b87565b925050505b9392505050565b6040517f4f27da180000000000000000000000000000000000000000000000000000000081527ff5bd2f5cb6567cf0fa832e8e7971a94af009d0ec1e329976b883c7ab504882786004820152600090819073ffffffffffffffffffffffffffffffffffffffff861690634f27da1890602401602060405180830381865afa15801561200f573d6000803e3d6000fd5b505050506040513d601f19601f820116820180604052508101906120339190612c49565b6040517f4f27da180000000000000000000000000000000000000000000000000000000081527ffba48a04766694c16713a414735f83be9cb20bbb29b5e18846cc8f1510640845600482015290915060009073ffffffffffffffffffffffffffffffffffffffff871690634f27da1890602401602060405180830381865afa1580156120c3573d6000803e3d6000fd5b505050506040513d601f19601f820116820180604052508101906120e79190612c49565b6040517fcccf7a8e0000000000000000000000000000000000000000000000000000000081526004810187905290915073ffffffffffffffffffffffffffffffffffffffff83169063cccf7a8e90602401602060405180830381865afa158015612155573d6000803e3d6000fd5b505050506040513d601f19601f820116820180604052508101906121799190612b87565b61218857600192505050611f79565b6040517f4f27da180000000000000000000000000000000000000000000000000000000081527f222d9674c2fee077bc82c84232803a9168906e2be25c4560d094c76895b8a432600482015260009073ffffffffffffffffffffffffffffffffffffffff881690634f27da1890602401602060405180830381865afa158015612215573d6000803e3d6000fd5b505050506040513d601f19601f820116820180604052508101906122399190612c49565b6040517f4f27da180000000000000000000000000000000000000000000000000000000081527fe95fc307e3922a4ed7e1a9d135b2e79aad91e806428d8c7ec9a376dfc8aede5e600482015290915060009073ffffffffffffffffffffffffffffffffffffffff891690634f27da1890602401602060405180830381865afa1580156122c9573d6000803e3d6000fd5b505050506040513d601f19601f820116820180604052508101906122ed9190612c49565b6040517f0ff4c9160000000000000000000000000000000000000000000000000000000081526004810189905290915060009073ffffffffffffffffffffffffffffffffffffffff861690630ff4c91690602401600060405180830381865afa15801561235e573d6000803e3d6000fd5b505050506040513d6000823e601f3d9081017fffffffffffffffffffffffffffffffffffffffffffffffffffffffffffffffe01682016040526123a49190810190612e34565b905060005b8151518110156125345760006123eb866123e6856020015185815181106123d2576123d2612e05565b602002602001015163ffffffff168d611c48565b612596565b905060006124168460000151848151811061240857612408612e05565b60200260200101518b611c48565b905060006124248883612596565b905060006124328884612596565b63ffffffff1611156124f85761244886836126c2565b6124529043612f24565b6040517f0ff4c9160000000000000000000000000000000000000000000000000000000081526004810184905273ffffffffffffffffffffffffffffffffffffffff891690630ff4c91690602401602060405180830381865afa1580156124bd573d6000803e3d6000fd5b505050506040513d601f19601f820116820180604052508101906124e19190612bdb565b6124eb9190612f37565b6124f59082612c25565b90505b8063ffffffff168363ffffffff16111561251e5760009950505050505050505050611f79565b505050808061252c90612f5f565b9150506123a9565b5060019998505050505050505050565b6000805461187d9073ffffffffffffffffffffffffffffffffffffffff1683611944565b611941816127ee565b600082826000015183602001518460400151604051602001611c609493929190612f97565b6040517fcccf7a8e0000000000000000000000000000000000000000000000000000000081526004810182905260009073ffffffffffffffffffffffffffffffffffffffff84169063cccf7a8e90602401602060405180830381865afa158015612604573d6000803e3d6000fd5b505050506040513d601f19601f820116820180604052508101906126289190612b87565b612633576000611f79565b6040517f0ff4c9160000000000000000000000000000000000000000000000000000000081526004810183905273ffffffffffffffffffffffffffffffffffffffff841690630ff4c91690602401602060405180830381865afa15801561269e573d6000803e3d6000fd5b505050506040513d601f19601f82011682018060405250810190611f799190612bdb565b6040517fcccf7a8e0000000000000000000000000000000000000000000000000000000081526004810182905260009073ffffffffffffffffffffffffffffffffffffffff84169063cccf7a8e90602401602060405180830381865afa158015612730573d6000803e3d6000fd5b505050506040513d601f19601f820116820180604052508101906127549190612b87565b61275f576000611f79565b6040517f0ff4c9160000000000000000000000000000000000000000000000000000000081526004810183905273ffffffffffffffffffffffffffffffffffffffff841690630ff4c91690602401602060405180830381865afa1580156127ca573d6000803e3d6000fd5b505050506040513d601f19601f82011682018060405250810190611f799190612ba9565b7f8a22373512790c48b83a1fe2efdd2888d4a917bcdc24d0adf63e60f671680460805460405173ffffffffffffffffffffffffffffffffffffffff8481169216907f8be0079c531659141344cd1fd0a4f28419497f9722a3daafe3b4186f6b6457e090600090a380547fffffffffffffffffffffffff00000000000000000000000000000000000000001673ffffffffffffffffffffffffffffffffffffffff92909216919091179055565b7f4e487b7100000000000000000000000000000000000000000000000000000000600052604160045260246000fd5b6040516060810167ffffffffffffffff811182821017156128ec576128ec61289a565b60405290565b6040805190810167ffffffffffffffff811182821017156128ec576128ec61289a565b604051601f82017fffffffffffffffffffffffffffffffffffffffffffffffffffffffffffffffe016810167ffffffffffffffff8111828210171561295c5761295c61289a565b604052919050565b600067ffffffffffffffff82111561297e5761297e61289a565b50601f017fffffffffffffffffffffffffffffffffffffffffffffffffffffffffffffffe01660200190565b6000602082840312156129bc57600080fd5b813567ffffffffffffffff8111156129d357600080fd5b8201601f810184136129e457600080fd5b80356129f76129f282612964565b612915565b818152856020838501011115612a0c57600080fd5b81602084016020830137600091810160200191909152949350505050565b60005b83811015612a45578181015183820152602001612a2d565b50506000910152565b6020815260008251806020840152612a6d816040850160208701612a2a565b601f017fffffffffffffffffffffffffffffffffffffffffffffffffffffffffffffffe0169190910160400192915050565b8060030b811461194157600080fd5b600060608284031215612ac057600080fd5b612ac86128c9565b8235612ad381612a9f565b81526020830135612ae381612a9f565b60208201526040928301359281019290925250919050565b73ffffffffffffffffffffffffffffffffffffffff8116811461194157600080fd5b600060208284031215612b2f57600080fd5b8135611f7981612afb565b600060608284031215612b4c57600080fd5b612b546128c9565b8251612b5f81612a9f565b81526020830151612b6f81612a9f565b60208201526040928301519281019290925250919050565b600060208284031215612b9957600080fd5b81518015158114611f7957600080fd5b600060208284031215612bbb57600080fd5b5051919050565b805163ffffffff81168114612bd657600080fd5b919050565b600060208284031215612bed57600080fd5b611f7982612bc2565b7f4e487b7100000000000000000000000000000000000000000000000000000000600052601160045260246000fd5b63ffffffff818116838216019080821115612c4257612c42612bf6565b5092915050565b600060208284031215612c5b57600080fd5b8151611f7981612afb565b600060208284031215612c7857600080fd5b815167ffffffffffffffff811115612c8f57600080fd5b8201601f81018413612ca057600080fd5b8051612cae6129f282612964565b818152856020838501011115612cc357600080fd5b612cd4826020830160208601612a2a565b95945050505050565b73ffffffffffffffffffffffffffffffffffffffff84168152602081018390526060810160038310612d38577f4e487b7100000000000000000000000000000000000000000000000000000000600052602160045260246000fd5b826040830152949350505050565b600067ffffffffffffffff821115612d6057612d6061289a565b5060051b60200190565b600082601f830112612d7b57600080fd5b81516020612d8b6129f283612d46565b82815260059290921b84018101918181019086841115612daa57600080fd5b8286015b84811015612dc55780518352918301918301612dae565b509695505050505050565b600060208284031215612de257600080fd5b815167ffffffffffffffff811115612df957600080fd5b611a8884828501612d6a565b7f4e487b7100000000000000000000000000000000000000000000000000000000600052603260045260246000fd5b60006020808385031215612e4757600080fd5b825167ffffffffffffffff80821115612e5f57600080fd5b9084019060408287031215612e7357600080fd5b612e7b6128f2565b825182811115612e8a57600080fd5b612e9688828601612d6a565b8252508383015182811115612eaa57600080fd5b80840193505086601f840112612ebf57600080fd5b82519150612ecf6129f283612d46565b82815260059290921b83018401918481019088841115612eee57600080fd5b938501935b83851015612f1357612f0485612bc2565b82529385019390850190612ef3565b948201949094529695505050505050565b8181038181111561187d5761187d612bf6565b63ffffffff818116838216028082169190828114612f5757612f57612bf6565b505092915050565b60007fffffffffffffffffffffffffffffffffffffffffffffffffffffffffffffffff8203612f9057612f90612bf6565b5060010190565b60008551612fa9818460208a01612a2a565b60e095861b9201918252509190921b6004820152600881019190915260280191905056fea26469706673582212209cdb9e6cd2e77eb9520afcc7a32f5f7b64369c76af83e80e7b6e95b8e4db60f964736f6c63430008130033",
    "linkReferences": {}
  },
  "methodIdentifiers": {
    "execute(bytes)": "09c5eabe",
    "executeTyped((int32,int32,uint256))": "4f2870da",
    "owner()": "8da5cb5b",
    "transferOwnership(address)": "f2fde38b"
  },
  "id": 164
}