{
  "abi": [
    {
      "inputs": [],
      "stateMutability": "nonpayable",
      "type": "constructor"
    },
    {
      "anonymous": false,
      "inputs": [
        {
          "indexed": true,
          "internalType": "uint256",
          "name": "componentId",
          "type": "uint256"
        },
        {
          "indexed": true,
          "internalType": "address",
          "name": "component",
          "type": "address"
        },
        {
          "indexed": true,
          "internalType": "uint256",
          "name": "entity",
          "type": "uint256"
        }
      ],
      "name": "ComponentValueRemoved",
      "type": "event"
    },
    {
      "anonymous": false,
      "inputs": [
        {
          "indexed": true,
          "internalType": "uint256",
          "name": "componentId",
          "type": "uint256"
        },
        {
          "indexed": true,
          "internalType": "address",
          "name": "component",
          "type": "address"
        },
        {
          "indexed": true,
          "internalType": "uint256",
          "name": "entity",
          "type": "uint256"
        },
        {
          "indexed": false,
          "internalType": "bytes",
          "name": "data",
          "type": "bytes"
        }
      ],
      "name": "ComponentValueSet",
      "type": "event"
    },
    {
      "inputs": [],
      "name": "components",
      "outputs": [
        {
          "internalType": "contract IUint256Component",
          "name": "",
          "type": "address"
        }
      ],
      "stateMutability": "view",
      "type": "function"
    },
    {
      "inputs": [
        {
          "internalType": "uint256",
          "name": "id",
          "type": "uint256"
        }
      ],
      "name": "getComponent",
      "outputs": [
        {
          "internalType": "address",
          "name": "",
          "type": "address"
        }
      ],
      "stateMutability": "view",
      "type": "function"
    },
    {
      "inputs": [
        {
          "internalType": "address",
          "name": "componentAddr",
          "type": "address"
        }
      ],
      "name": "getComponentIdFromAddress",
      "outputs": [
        {
          "internalType": "uint256",
          "name": "",
          "type": "uint256"
        }
      ],
      "stateMutability": "view",
      "type": "function"
    },
    {
      "inputs": [],
      "name": "getNumEntities",
      "outputs": [
        {
          "internalType": "uint256",
          "name": "",
          "type": "uint256"
        }
      ],
      "stateMutability": "view",
      "type": "function"
    },
    {
      "inputs": [
        {
          "internalType": "uint256",
          "name": "systemId",
          "type": "uint256"
        }
      ],
      "name": "getSystemAddress",
      "outputs": [
        {
          "internalType": "address",
          "name": "",
          "type": "address"
        }
      ],
      "stateMutability": "view",
      "type": "function"
    },
    {
      "inputs": [],
      "name": "getUniqueEntityId",
      "outputs": [
        {
          "internalType": "uint256",
          "name": "",
          "type": "uint256"
        }
      ],
      "stateMutability": "view",
      "type": "function"
    },
    {
      "inputs": [
        {
          "internalType": "uint256",
          "name": "entity",
          "type": "uint256"
        }
      ],
      "name": "hasEntity",
      "outputs": [
        {
          "internalType": "bool",
          "name": "",
          "type": "bool"
        }
      ],
      "stateMutability": "view",
      "type": "function"
    },
    {
      "inputs": [],
      "name": "init",
      "outputs": [],
      "stateMutability": "nonpayable",
      "type": "function"
    },
    {
      "inputs": [
        {
          "components": [
            {
              "internalType": "enum QueryType",
              "name": "queryType",
              "type": "uint8"
            },
            {
              "internalType": "uint256",
              "name": "componentId",
              "type": "uint256"
            },
            {
              "internalType": "bytes",
              "name": "value",
              "type": "bytes"
            }
          ],
          "internalType": "struct WorldQueryFragment[]",
          "name": "worldQueryFragments",
          "type": "tuple[]"
        }
      ],
      "name": "query",
      "outputs": [
        {
          "internalType": "uint256[]",
          "name": "",
          "type": "uint256[]"
        }
      ],
      "stateMutability": "view",
      "type": "function"
    },
    {
      "inputs": [],
      "name": "register",
      "outputs": [
        {
          "internalType": "contract RegisterSystem",
          "name": "",
          "type": "address"
        }
      ],
      "stateMutability": "view",
      "type": "function"
    },
    {
      "inputs": [
        {
          "internalType": "address",
          "name": "componentAddr",
          "type": "address"
        },
        {
          "internalType": "uint256",
          "name": "id",
          "type": "uint256"
        }
      ],
      "name": "registerComponent",
      "outputs": [],
      "stateMutability": "nonpayable",
      "type": "function"
    },
    {
      "inputs": [
        {
          "internalType": "uint256",
          "name": "entity",
          "type": "uint256"
        }
      ],
      "name": "registerComponentValueRemoved",
      "outputs": [],
      "stateMutability": "nonpayable",
      "type": "function"
    },
    {
      "inputs": [
        {
          "internalType": "address",
          "name": "component",
          "type": "address"
        },
        {
          "internalType": "uint256",
          "name": "entity",
          "type": "uint256"
        }
      ],
      "name": "registerComponentValueRemoved",
      "outputs": [],
      "stateMutability": "nonpayable",
      "type": "function"
    },
    {
      "inputs": [
        {
          "internalType": "address",
          "name": "component",
          "type": "address"
        },
        {
          "internalType": "uint256",
          "name": "entity",
          "type": "uint256"
        },
        {
          "internalType": "bytes",
          "name": "data",
          "type": "bytes"
        }
      ],
      "name": "registerComponentValueSet",
      "outputs": [],
      "stateMutability": "nonpayable",
      "type": "function"
    },
    {
      "inputs": [
        {
          "internalType": "uint256",
          "name": "entity",
          "type": "uint256"
        },
        {
          "internalType": "bytes",
          "name": "data",
          "type": "bytes"
        }
      ],
      "name": "registerComponentValueSet",
      "outputs": [],
      "stateMutability": "nonpayable",
      "type": "function"
    },
    {
      "inputs": [
        {
          "internalType": "address",
          "name": "systemAddr",
          "type": "address"
        },
        {
          "internalType": "uint256",
          "name": "id",
          "type": "uint256"
        }
      ],
      "name": "registerSystem",
      "outputs": [],
      "stateMutability": "nonpayable",
      "type": "function"
    },
    {
      "inputs": [],
      "name": "systems",
      "outputs": [
        {
          "internalType": "contract IUint256Component",
          "name": "",
          "type": "address"
        }
      ],
      "stateMutability": "view",
      "type": "function"
    }
  ],
  "bytecode": {
    "object": "0x6080604052604051620000129062000295565b604051809103906000f0801580156200002f573d6000803e3d6000fd5b50600080546001600160a01b0319166001600160a01b03929092169190911790553480156200005d57600080fd5b5060007f4350dba81aa91e31664a09d24a668f006169a11b3d962b7557aed362d3252aec60001c6040516200009290620002a3565b6001600160a01b0390921682526020820152604001604051809103906000f080158015620000c4573d6000803e3d6000fd5b50600180546001600160a01b0319166001600160a01b03929092169190911790556040516000907f017c816a964927a00e050edd780dcf113ca2756dfa9e9fda94a05c140d9317b0906200011890620002a3565b6001600160a01b0390921682526020820152604001604051809103906000f0801580156200014a573d6000803e3d6000fd5b50600280546001600160a01b0319166001600160a01b03928316179055600154604051309291909116906200017f90620002b1565b6001600160a01b03928316815291166020820152604001604051809103906000f080158015620001b3573d6000803e3d6000fd5b50600380546001600160a01b0319166001600160a01b039283169081179091556002546040516309fded4760e31b8152600481019290925290911690634fef6a3890602401600060405180830381600087803b1580156200021357600080fd5b505af115801562000228573d6000803e3d6000fd5b50506001546003546040516309fded4760e31b81526001600160a01b03918216600482015291169250634fef6a389150602401600060405180830381600087803b1580156200027657600080fd5b505af11580156200028b573d6000803e3d6000fd5b50505050620002bf565b6106c980620027c383390190565b6125f28062002e8c83390190565b610e00806200547e83390190565b6124f480620002cf6000396000f3fe608060405234801561001057600080fd5b506004361061010b5760003560e01c8063af104e40116100a2578063d803064a11610071578063d803064a14610210578063e1c7392a14610223578063e3d128751461022b578063f30347701461024e578063fb3ec48b1461026157600080fd5b8063af104e40146101d1578063ba62fbe4146101e4578063cfd3c57f146101f5578063d7ecf62b1461020857600080fd5b80634f27da18116100de5780634f27da1814610175578063614bfa6e14610188578063687485a61461019e5780639f54f545146101be57600080fd5b80630d59332e146101105780630de3b7b51461013a5780631aa3a0081461014f5780631ee444b714610162575b600080fd5b6002546001600160a01b03165b6040516001600160a01b0390911681526020015b60405180910390f35b61014d610148366004611ecc565b610274565b005b60035461011d906001600160a01b031681565b61014d610170366004611f01565b61034d565b61011d610183366004611ecc565b6103f1565b610190610410565b604051908152602001610131565b6101b16101ac366004611f2b565b61046e565b6040516101319190611fa0565b6101906101cc366004611fe4565b610633565b61014d6101df366004612048565b61064c565b6001546001600160a01b031661011d565b61014d6102033660046120a2565b6107b9565b6101906108f9565b61014d61021e366004611f01565b610976565b61014d610a73565b61023e610239366004611ecc565b610bef565b6040519015158152602001610131565b61014d61025c366004611f01565b610c5d565b61011d61026f366004611ecc565b610c8a565b600154604051636667bd4760e11b81523360048201819052916001600160a01b03169063cccf7a8e90602401602060405180830381865afa1580156102bd573d6000803e3d6000fd5b505050506040513d601f19601f820116820180604052508101906102e191906120ee565b6103065760405162461bcd60e51b81526004016102fd90612110565b60405180910390fd5b60015482903390610320906001600160a01b031682610ca3565b6040517f6dd56823030ae6d8ae09cbfb8972c4e9494e67b209c4ab6300c21d73e269b35090600090a45050565b6003546040516001600160a01b03909116906309c5eabe9061037a9033906001908790879060200161215d565b6040516020818303038152906040526040518263ffffffff1660e01b81526004016103a591906121cf565b6000604051808303816000875af11580156103c4573d6000803e3d6000fd5b505050506040513d6000823e601f3d908101601f191682016040526103ec9190810190612249565b505050565b60015460009061040a906001600160a01b031683610ded565b92915050565b60008061041b6108f9565b905060005b8161042a816122f3565b9250508160405160200161044091815260200190565b6040516020818303038152906040528051906020012060001c905061046481610bef565b6104205792915050565b606060008267ffffffffffffffff81111561048b5761048b612202565b6040519080825280602002602001820160405280156104d857816020015b604080516060808201835260008083526020830152918101919091528152602001906001900390816104a95790505b50905060005b838110156106215760405180606001604052808686848181106105035761050361230c565b90506020028101906105159190612322565b610523906020810190612342565b600581111561053457610534612147565b8152600154602090910190610579906001600160a01b031688888681811061055e5761055e61230c565b90506020028101906105709190612322565b60200135610ec7565b6001600160a01b031681526020018686848181106105995761059961230c565b90506020028101906105ab9190612322565b6105b9906040810190612363565b8080601f016020809104026020016040519081016040528093929190818152602001838380828437600092019190915250505091525082518390839081106106035761060361230c565b60200260200101819052508080610619906122f3565b9150506104de565b5061062b81610ed3565b949350505050565b60015460009061040a906001600160a01b031683610ca3565b60015484906001600160a01b031663cccf7a8e61066f836001600160a01b031690565b6040518263ffffffff1660e01b815260040161068d91815260200190565b602060405180830381865afa1580156106aa573d6000803e3d6000fd5b505050506040513d601f19601f820116820180604052508101906106ce91906120ee565b6106ea5760405162461bcd60e51b81526004016102fd90612110565b336001600160a01b038616146106ff57600080fd5b600054604051630801f16960e11b8152600481018690526001600160a01b0390911690631003e2d290602401600060405180830381600087803b15801561074557600080fd5b505af1158015610759573d6000803e3d6000fd5b50506001548692506001600160a01b038089169250610779911688610ca3565b7f6ac31c38682e0128240cf68316d7ae751020d8f74c614e2a30278afcec8a607386866040516107aa9291906123aa565b60405180910390a45050505050565b600154604051636667bd4760e11b81523360048201819052916001600160a01b03169063cccf7a8e90602401602060405180830381865afa158015610802573d6000803e3d6000fd5b505050506040513d601f19601f8201168201806040525081019061082691906120ee565b6108425760405162461bcd60e51b81526004016102fd90612110565b600054604051630801f16960e11b8152600481018690526001600160a01b0390911690631003e2d290602401600060405180830381600087803b15801561088857600080fd5b505af115801561089c573d6000803e3d6000fd5b50506001548692503391506108ba906001600160a01b031682610ca3565b7f6ac31c38682e0128240cf68316d7ae751020d8f74c614e2a30278afcec8a607386866040516108eb9291906123aa565b60405180910390a450505050565b60008060009054906101000a90046001600160a01b03166001600160a01b031663949d225d6040518163ffffffff1660e01b8152600401602060405180830381865afa15801561094d573d6000803e3d6000fd5b505050506040513d601f19601f8201168201806040525081019061097191906123d9565b905090565b60015482906001600160a01b031663cccf7a8e610999836001600160a01b031690565b6040518263ffffffff1660e01b81526004016109b791815260200190565b602060405180830381865afa1580156109d4573d6000803e3d6000fd5b505050506040513d601f19601f820116820180604052508101906109f891906120ee565b610a145760405162461bcd60e51b81526004016102fd90612110565b336001600160a01b03841614610a2957600080fd5b60015482906001600160a01b0380861691610a45911686610ca3565b6040517f6dd56823030ae6d8ae09cbfb8972c4e9494e67b209c4ab6300c21d73e269b35090600090a4505050565b60015460405163274b1dad60e21b81523060048201526001600160a01b0390911690639d2c76b490602401600060405180830381600087803b158015610ab857600080fd5b505af1158015610acc573d6000803e3d6000fd5b505060025460405163274b1dad60e21b81523060048201526001600160a01b039091169250639d2c76b49150602401600060405180830381600087803b158015610b1557600080fd5b505af1158015610b29573d6000803e3d6000fd5b50506003546040516001600160a01b0390911692506309c5eabe9150610b7a90339060019085907f554d0b3fe5f19a44775dc4000490ad0bafbc48129e8e396be983226890aece999060200161215d565b6040516020818303038152906040526040518263ffffffff1660e01b8152600401610ba591906121cf565b6000604051808303816000875af1158015610bc4573d6000803e3d6000fd5b505050506040513d6000823e601f3d908101601f19168201604052610bec9190810190612249565b50565b60008054604051636667bd4760e11b8152600481018490526001600160a01b039091169063cccf7a8e90602401602060405180830381865afa158015610c39573d6000803e3d6000fd5b505050506040513d601f19601f8201168201806040525081019061040a91906120ee565b6003546040516001600160a01b03909116906309c5eabe9061037a9033906000908790879060200161215d565b60025460009061040a906001600160a01b031683610ded565b6000826001600160a01b031663cccf7a8e610cc4846001600160a01b031690565b6040518263ffffffff1660e01b8152600401610ce291815260200190565b602060405180830381865afa158015610cff573d6000803e3d6000fd5b505050506040513d601f19601f82011682018060405250810190610d2391906120ee565b610d685760405162461bcd60e51b81526020600482015260166024820152751859191c995cdcc81b9bdd081c9959da5cdd195c995960521b60448201526064016102fd565b826001600160a01b0316630ff4c916610d87846001600160a01b031690565b6040518263ffffffff1660e01b8152600401610da591815260200190565b602060405180830381865afa158015610dc2573d6000803e3d6000fd5b505050506040513d601f19601f82011682018060405250810190610de691906123d9565b9392505050565b604051637defd0f560e11b81526004810182905260009081906001600160a01b0385169063fbdfa1ea90602401600060405180830381865afa158015610e37573d6000803e3d6000fd5b505050506040513d6000823e601f3d908101601f19168201604052610e5f91908101906123f2565b90508051600003610ea65760405162461bcd60e51b81526020600482015260116024820152701a59081b9bdd081c9959da5cdd195c9959607a1b60448201526064016102fd565b61062b81600081518110610ebc57610ebc61230c565b602002602001015190565b6000610de68383610ded565b6060610edd611e59565b600160b51b8152600060208201819052600160808301525b8351811015611300576000848281518110610f1257610f1261230c565b60200260200101519050610f2581611313565b15610f7357600481516005811115610f3f57610f3f612147565b03610f4c57604083018190525b600581516005811115610f6157610f61612147565b03610f6e57606083018190525b6112ed565b82608001511561121957610f868161134e565b610fd25760405162461bcd60e51b815260206004820152601960248201527f4e454741544956455f494e495449414c5f465241474d454e540000000000000060448201526064016102fd565b6000608084018190528082516005811115610fef57610fef612147565b146110725781602001516001600160a01b031663b361be4683604001516040518263ffffffff1660e01b815260040161102891906121cf565b600060405180830381865afa158015611045573d6000803e3d6000fd5b505050506040513d6000823e601f3d908101601f1916820160405261106d91908101906123f2565b6110dc565b81602001516001600160a01b03166331b933b96040518163ffffffff1660e01b8152600401600060405180830381865afa1580156110b4573d6000803e3d6000fd5b505050506040513d6000823e601f3d908101601f191682016040526110dc91908101906123f2565b90506110e781611372565b84528051602080860191909152606085015101516001600160a01b03161580159061112d5750600084606001516040015180602001905181019061112b91906123d9565b115b156112135760005b81518110156112115760006111878383815181106111555761115561230c565b602002602001015187606001516020015188606001516040015180602001905181019061118291906123d9565b6113c7565b905060005b81518110156111fc576111d56111cd60405180604001604052808585815181106111b8576111b861230c565b60200260200101518152602001600081525090565b8851906115c0565b8752602087018051906111e7826122f3565b905250806111f4816122f3565b91505061118c565b50508080611209906122f3565b915050611135565b505b506112ed565b8251600160b51b9060009060019060601c69ffffffffffffffffffff165b81156112e257600061125b8260408051808201909152600080825260208201525090565b8051909150600061126c8289611612565b905061127a8a8984846118d8565b905080156112b8576112a86112a16040518060400160405280858152602001600081525090565b88906115c0565b9650856112b4816122f3565b9650505b6112c58a89848a8a61195d565b8b5160b01c86015191985096508015159550935061123792505050565b505090845260208401525b50806112f8816122f3565b915050610ef5565b50610de681600001518260200151611ad4565b600060048251600581111561132a5761132a612147565b148061040a575060055b8251600581111561134757611347612147565b1492915050565b6000808251600581111561136457611364612147565b148061040a57506002611334565b600160b51b60005b82518110156113c1576113ad6113a660405180604001604052808685815181106111b8576111b861230c565b83906115c0565b9150806113b9816122f3565b91505061137a565b50919050565b6060816000036113e65750604080516000815260208101909152610de6565b6000836001600160a01b031663b361be468660405160200161140a91815260200190565b6040516020818303038152906040526040518263ffffffff1660e01b815260040161143591906121cf565b600060405180830381865afa158015611452573d6000803e3d6000fd5b505050506040513d6000823e601f3d908101601f1916820160405261147a91908101906123f2565b90508260010361148b579050610de6565b600160b51b6000805b83518110156115395760006114ca8583815181106114b4576114b461230c565b60200260200101518960018a6111829190612498565b905060005b8151811015611524576115026114fb60405180604001604052808585815181106111b8576111b861230c565b86906115c0565b94508361150e816122f3565b945050808061151c906122f3565b9150506114cf565b50508080611531906122f3565b915050611494565b5060006115528385518461154d91906124ab565b611ad4565b905060005b84518110156115b4578481815181106115725761157261230c565b602002602001015182828561158791906124ab565b815181106115975761159761230c565b6020908102919091010152806115ac816122f3565b915050611557565b50979650505050505050565b6000808360501b60b01c11600181146115e5578260101b8360601b851717915061160b565b828460b01c8560a01b60b01c01528260101b6bffffffffffffffffffffffff1985161791505b5092915050565b6000808251600581111561162857611628612147565b036116a3576020820151604051636667bd4760e11b8152600481018590526001600160a01b039091169063cccf7a8e90602401602060405180830381865afa158015611678573d6000803e3d6000fd5b505050506040513d601f19601f8201168201806040525081019061169c91906120ee565b905061040a565b6002825160058111156116b8576116b8612147565b0361174b57602082015160405163b8bc073d60e01b8152600481018590526001600160a01b039091169063b8bc073d90602401600060405180830381865afa158015611708573d6000803e3d6000fd5b505050506040513d6000823e601f3d908101601f191682016040526117309190810190612249565b8051906020012082604001518051906020012014905061040a565b60018251600581111561176057611760612147565b036117dc576020820151604051636667bd4760e11b8152600481018590526001600160a01b039091169063cccf7a8e90602401602060405180830381865afa1580156117b0573d6000803e3d6000fd5b505050506040513d601f19601f820116820180604052508101906117d491906120ee565b15905061040a565b6003825160058111156117f1576117f1612147565b0361188557602082015160405163b8bc073d60e01b8152600481018590526001600160a01b039091169063b8bc073d90602401600060405180830381865afa158015611841573d6000803e3d6000fd5b505050506040513d6000823e601f3d908101601f191682016040526118699190810190612249565b805190602001208260400151805190602001201415905061040a565b61188e82611bac565b6118cf5760405162461bcd60e51b81526020600482015260126024820152711393d7d1539512551657d1949051d351539560721b60448201526064016102fd565b50600092915050565b6040840151602001516000906001600160a01b0316158015906119165750600085604001516040015180602001905181019061191491906123d9565b115b801561192957506119278285611c0b565b155b156119555760008061194085878960400151611c36565b9150915080156119525750905061062b565b50505b509392505050565b60608501516020015160009081906001600160a01b03161580159061199d5750600087606001516040015180602001905181019061199b91906123d9565b115b15611ac85760006119cd868960600151602001518a606001516040015180602001905181019061118291906123d9565b905060005b8151811015611ac55760008282815181106119ef576119ef61230c565b602002602001015190506000611a05828b611612565b905080158015611a25575060408b0151602001516001600160a01b031615155b8015611a4c575060008b6040015160400151806020019051810190611a4a91906123d9565b115b15611a7457600080611a63848d8f60400151611c36565b915091508015611a71578192505b50505b8015611ab057611aa0611a9960405180604001604052808c8152602001600081525090565b89906115c0565b975086611aac816122f3565b9750505b50508080611abd906122f3565b9150506119d2565b50505b50919590945092505050565b60608167ffffffffffffffff811115611aef57611aef612202565b604051908082528060200260200182016040528015611b18578160200160208202803683370190505b509050811561040a57600169ffffffffffffffffffff606085901c1660005b8215611ba3576000611b5b8360408051808201909152600080825260208201525090565b90508060000151858381518110611b7457611b7461230c565b602090810291909101015281611b89816122f3565b60b089901c94909401518015159550939250611b37915050565b50505092915050565b60008082516005811115611bc257611bc2612147565b1480611be05750600282516005811115611bde57611bde612147565b145b80611bfe575060015b82516005811115611bfc57611bfc612147565b145b8061040a57506003611334565b6000828015611c1e5750611c1e8261134e565b80610de6575082158015610de65750610de682611e50565b600080611c4284611bac565b611c835760405162461bcd60e51b81526020600482015260126024820152711393d7d1539512551657d1949051d351539560721b60448201526064016102fd565b600483516005811115611c9857611c98612147565b14611cde5760405162461bcd60e51b81526020600482015260166024820152751393d7d41493d61657d491505117d1949051d351539560521b60448201526064016102fd565b8460005b8460400151806020019051810190611cfa91906123d9565b811015611e41576020850151604051636667bd4760e11b8152600481018490526001600160a01b039091169063cccf7a8e90602401602060405180830381865afa158015611d4c573d6000803e3d6000fd5b505050506040513d601f19601f82011682018060405250810190611d7091906120ee565b611d80575060009150611e489050565b602085015160405163b8bc073d60e01b8152600481018490526001600160a01b039091169063b8bc073d90602401600060405180830381865afa158015611dcb573d6000803e3d6000fd5b505050506040513d6000823e601f3d908101601f19168201604052611df39190810190612249565b806020019051810190611e0691906123d9565b9150611e128287611612565b9350611e1e8487611c0b565b15611e2f575060019150611e489050565b80611e39816122f3565b915050611ce2565b5060019150505b935093915050565b60006001611be9565b6040805160a08101825260008082526020820152908101611e956040805160608101909152806000815260006020820152606060409091015290565b8152602001611ebf6040805160608101909152806000815260006020820152606060409091015290565b8152600060209091015290565b600060208284031215611ede57600080fd5b5035919050565b80356001600160a01b0381168114611efc57600080fd5b919050565b60008060408385031215611f1457600080fd5b611f1d83611ee5565b946020939093013593505050565b60008060208385031215611f3e57600080fd5b823567ffffffffffffffff80821115611f5657600080fd5b818501915085601f830112611f6a57600080fd5b813581811115611f7957600080fd5b8660208260051b8501011115611f8e57600080fd5b60209290920196919550909350505050565b6020808252825182820181905260009190848201906040850190845b81811015611fd857835183529284019291840191600101611fbc565b50909695505050505050565b600060208284031215611ff657600080fd5b610de682611ee5565b60008083601f84011261201157600080fd5b50813567ffffffffffffffff81111561202957600080fd5b60208301915083602082850101111561204157600080fd5b9250929050565b6000806000806060858703121561205e57600080fd5b61206785611ee5565b935060208501359250604085013567ffffffffffffffff81111561208a57600080fd5b61209687828801611fff565b95989497509550505050565b6000806000604084860312156120b757600080fd5b83359250602084013567ffffffffffffffff8111156120d557600080fd5b6120e186828701611fff565b9497909650939450505050565b60006020828403121561210057600080fd5b81518015158114610de657600080fd5b60208082526018908201527f636f6d706f6e656e74206e6f7420726567697374657265640000000000000000604082015260600190565b634e487b7160e01b600052602160045260246000fd5b6001600160a01b03858116825260808201906002861061218d57634e487b7160e01b600052602160045260246000fd5b85602084015280851660408401525082606083015295945050505050565b60005b838110156121c65781810151838201526020016121ae565b50506000910152565b60208152600082518060208401526121ee8160408501602087016121ab565b601f01601f19169190910160400192915050565b634e487b7160e01b600052604160045260246000fd5b604051601f8201601f1916810167ffffffffffffffff8111828210171561224157612241612202565b604052919050565b60006020828403121561225b57600080fd5b815167ffffffffffffffff8082111561227357600080fd5b818401915084601f83011261228757600080fd5b81518181111561229957612299612202565b6122ac601f8201601f1916602001612218565b91508082528560208285010111156122c357600080fd5b6122d48160208401602086016121ab565b50949350505050565b634e487b7160e01b600052601160045260246000fd5b600060018201612305576123056122dd565b5060010190565b634e487b7160e01b600052603260045260246000fd5b60008235605e1983360301811261233857600080fd5b9190910192915050565b60006020828403121561235457600080fd5b813560068110610de657600080fd5b6000808335601e1984360301811261237a57600080fd5b83018035915067ffffffffffffffff82111561239557600080fd5b60200191503681900382131561204157600080fd5b60208152816020820152818360408301376000818301604090810191909152601f909201601f19160101919050565b6000602082840312156123eb57600080fd5b5051919050565b6000602080838503121561240557600080fd5b825167ffffffffffffffff8082111561241d57600080fd5b818501915085601f83011261243157600080fd5b81518181111561244357612443612202565b8060051b9150612454848301612218565b818152918301840191848101908884111561246e57600080fd5b938501935b8385101561248c57845182529385019390850190612473565b98975050505050505050565b8181038181111561040a5761040a6122dd565b8082018082111561040a5761040a6122dd56fea2646970667358221220944a949e641a4478aefa43b201a9608593257839ef0d1545d76e18d801f5430064736f6c63430008130033608060405234801561001057600080fd5b5061001a3361001f565b610099565b7f8a22373512790c48b83a1fe2efdd2888d4a917bcdc24d0adf63e60f67168046080546040516001600160a01b038481169216907f8be0079c531659141344cd1fd0a4f28419497f9722a3daafe3b4186f6b6457e090600090a380546001600160a01b0319166001600160a01b0392909216919091179055565b610621806100a86000396000f3fe608060405234801561001057600080fd5b50600436106100885760003560e01c80638e7cb6e11161005b5780638e7cb6e1146100f3578063949d225d1461011d578063cccf7a8e1461012e578063f2fde38b1461015157600080fd5b80631003e2d21461008d578063410d59cc146100a25780634cc82215146100c05780638da5cb5b146100d3575b600080fd5b6100a061009b36600461050b565b610164565b005b6100aa6101ef565b6040516100b79190610524565b60405180910390f35b6100a06100ce36600461050b565b610247565b6100db610374565b6040516001600160a01b0390911681526020016100b7565b61010661010136600461050b565b610383565b6040805192151583526020830191909152016100b7565b6000546040519081526020016100b7565b61014161013c36600461050b565b6103b6565b60405190151581526020016100b7565b6100a061015f366004610568565b610419565b61016c61045b565b6001600160a01b0316336001600160a01b03161461019d57604051632f7a8ee160e01b815260040160405180910390fd5b6101a6816103b6565b6101ec57600080548282526001602081905260408320829055810182559080527f290decd9548b62a8d60345a988386fc84ba6bc95484008f6362f93160ef3e563018190555b50565b6060600080548060200260200160405190810160405280929190818152602001828054801561023d57602002820191906000526020600020905b815481526020019060010190808311610229575b5050505050905090565b61024f61045b565b6001600160a01b0316336001600160a01b03161461028057604051632f7a8ee160e01b815260040160405180910390fd5b610289816103b6565b156101ec576000805461029e90600190610598565b815481106102ae576102ae6105bf565b906000526020600020015460006001600084815260200190815260200160002054815481106102df576102df6105bf565b60009182526020808320909101929092558281526001918290526040812054815490929190819084908110610316576103166105bf565b90600052602060002001548152602001908152602001600020819055506001600082815260200190815260200160002060009055600080548061035b5761035b6105d5565b6001900381819060005260206000200160009055905550565b600061037e61045b565b905090565b60008061038f836103b6565b61039e57506000928392509050565b50506000908152600160208190526040909120549091565b6000805481036103c857506000919050565b60008281526001602052604081205490036104045781600080815481106103f1576103f16105bf565b9060005260206000200154149050919050565b50600090815260016020526040902054151590565b61042161045b565b6001600160a01b0316336001600160a01b03161461045257604051632f7a8ee160e01b815260040160405180910390fd5b6101ec81610489565b7f8a22373512790c48b83a1fe2efdd2888d4a917bcdc24d0adf63e60f671680460546001600160a01b031690565b7f8a22373512790c48b83a1fe2efdd2888d4a917bcdc24d0adf63e60f67168046080546040516101ec92849290916001600160a01b038085169216907f8be0079c531659141344cd1fd0a4f28419497f9722a3daafe3b4186f6b6457e090600090a380546001600160a01b0319166001600160a01b0392909216919091179055565b60006020828403121561051d57600080fd5b5035919050565b6020808252825182820181905260009190848201906040850190845b8181101561055c57835183529284019291840191600101610540565b50909695505050505050565b60006020828403121561057a57600080fd5b81356001600160a01b038116811461059157600080fd5b9392505050565b818103818111156105b957634e487b7160e01b600052601160045260246000fd5b92915050565b634e487b7160e01b600052603260045260246000fd5b634e487b7160e01b600052603160045260246000fdfea26469706673582212209120bb0a2a9936c2c457117a2d6e08d1b5892ce4c2794940e794c00e17bf899964736f6c6343000813003360806040523480156200001157600080fd5b50604051620025f2380380620025f2833981016040819052620000349162000243565b81818181620000433362000108565b60028190556001600160a01b038216156200006357620000638262000171565b5050604051620000739062000227565b604051809103906000f08015801562000090573d6000803e3d6000fd5b50600380546001600160a01b0319166001600160a01b0392909216919091179055604051620000bf9062000235565b604051809103906000f080158015620000dc573d6000803e3d6000fd5b50600480546001600160a01b0319166001600160a01b0392909216919091179055506200027f92505050565b600080516020620025d283398151915280546040516001600160a01b038481169216907f8be0079c531659141344cd1fd0a4f28419497f9722a3daafe3b4186f6b6457e090600090a380546001600160a01b0319166001600160a01b0392909216919091179055565b600080516020620025d2833981519152546001600160a01b03163314620001ab57604051632f7a8ee160e01b815260040160405180910390fd5b600080546001600160a01b0319166001600160a01b038316908117909155600254604051630f30347760e41b8152306004820152602481019190915263f303477090604401600060405180830381600087803b1580156200020b57600080fd5b505af115801562000220573d6000803e3d6000fd5b5050505050565b6106c980620017fe83390190565b61070b8062001ec783390190565b600080604083850312156200025757600080fd5b82516001600160a01b03811681146200026f57600080fd5b6020939093015192949293505050565b61156f806200028f6000396000f3fe608060405234801561001057600080fd5b50600436106101215760003560e01c80638b282947116100ad578063b8bc073d11610071578063b8bc073d1461025d578063bf4fe57e1461027d578063cccf7a8e14610290578063f2fde38b146102a3578063fbdfa1ea146102b657600080fd5b80638b282947146102135780638da5cb5b146102265780639d2c76b41461022e578063af640d0f14610241578063b361be461461024a57600080fd5b80634cc82215116100f45780634cc82215146101a15780634fef6a38146101b45780636b122fe0146101c757806375c0669c146101dd578063861eb905146101f057600080fd5b80630ff4c916146101265780631ab06ee51461014c57806330b67baa1461016157806331b933b91461018c575b600080fd5b610139610134366004610f41565b6102c9565b6040519081526020015b60405180910390f35b61015f61015a366004610f5a565b6102ef565b005b600054610174906001600160a01b031681565b6040516001600160a01b039091168152602001610143565b61019461031e565b6040516101439190610f7c565b61015f6101af366004610f41565b610395565b61015f6101c2366004610fc0565b6103c7565b6101cf610443565b604051610143929190611045565b61015f6101eb366004610fc0565b610517565b6102036101fe366004610fc0565b61058f565b6040519015158152602001610143565b61015f6102213660046111b5565b6105f3565b610174610623565b61015f61023c366004610fc0565b61062d565b61013960025481565b6101946102583660046111fc565b6106e1565b61027061026b366004610f41565b61075a565b6040516101439190611239565b61015f61028b366004610fc0565b6107fc565b61020361029e366004610f41565b610875565b61015f6102b1366004610fc0565b6108e3565b6101946102c4366004610f41565b610925565b6000806102d58361075a565b8060200190518101906102e8919061124c565b9392505050565b61031a828260405160200161030691815260200190565b6040516020818303038152906040526105f3565b5050565b60035460408051631043567360e21b815290516060926001600160a01b03169163410d59cc9160048083019260009291908290030181865afa158015610368573d6000803e3d6000fd5b505050506040513d6000823e601f3d908101601f191682016040526103909190810190611265565b905090565b61039e3361058f565b6103bb5760405163203769ed60e11b815260040160405180910390fd5b6103c481610951565b50565b6103cf610b7a565b6001600160a01b0316336001600160a01b03161461040057604051632f7a8ee160e01b815260040160405180910390fd5b6001600160a01b031660009081527f8ffeadc5cba727b8cc3cdef48739619490ea317fdb3baae1259089d06f92c90960205260409020805460ff19166001179055565b604080516001808252818301909252606091829190816020015b606081526020019060019003908161045d575050604080516001808252818301909252919350602080830190803683370190505090506040518060400160405280600581526020016476616c756560d81b815250826000815181106104c4576104c461130b565b6020026020010181905250600d816000815181106104e4576104e461130b565b602002602001019060218111156104fd576104fd61102f565b908160218111156105105761051061102f565b9052509091565b6105203361058f565b61053d5760405163203769ed60e11b815260040160405180910390fd5b600580546001810182556000919091527f036b6384b5eca791c62761152d0c79bb0604c104a5fb6f4eb0703f3154bb3db00180546001600160a01b0319166001600160a01b0392909216919091179055565b6001600160a01b03811660009081527f8ffeadc5cba727b8cc3cdef48739619490ea317fdb3baae1259089d06f92c909602052604081205460ff16806105ed57506105d8610623565b6001600160a01b0316826001600160a01b0316145b92915050565b6105fc3361058f565b6106195760405163203769ed60e11b815260040160405180910390fd5b61031a8282610ba8565b6000610390610b7a565b610635610b7a565b6001600160a01b0316336001600160a01b03161461066657604051632f7a8ee160e01b815260040160405180910390fd5b600080546001600160a01b0319166001600160a01b038316908117909155600254604051630f30347760e41b8152306004820152602481019190915263f3034770906044015b600060405180830381600087803b1580156106c657600080fd5b505af11580156106da573d6000803e3d6000fd5b5050505050565b6004805482516020840120604051631e5b17a560e21b8152928301526060916001600160a01b039091169063796c5e9490602401600060405180830381865afa158015610732573d6000803e3d6000fd5b505050506040513d6000823e601f3d908101601f191682016040526105ed9190810190611265565b600081815260016020526040902080546060919061077790611321565b80601f01602080910402602001604051908101604052809291908181526020018280546107a390611321565b80156107f05780601f106107c5576101008083540402835291602001916107f0565b820191906000526020600020905b8154815290600101906020018083116107d357829003601f168201915b50505050509050919050565b610804610b7a565b6001600160a01b0316336001600160a01b03161461083557604051632f7a8ee160e01b815260040160405180910390fd5b6001600160a01b031660009081527f8ffeadc5cba727b8cc3cdef48739619490ea317fdb3baae1259089d06f92c90960205260409020805460ff19169055565b600354604051636667bd4760e11b8152600481018390526000916001600160a01b03169063cccf7a8e90602401602060405180830381865afa1580156108bf573d6000803e3d6000fd5b505050506040513d601f19601f820116820180604052508101906105ed919061135b565b6108eb610b7a565b6001600160a01b0316336001600160a01b03161461091c57604051632f7a8ee160e01b815260040160405180910390fd5b6103c481610da7565b60606105ed8260405160200161093d91815260200190565b6040516020818303038152906040526106e1565b6004546000828152600160205260409081902090516001600160a01b03909216916385edea13916109819161137d565b60405190819003812060e083901b6001600160e01b03191682526004820152602401602060405180830381865afa1580156109c0573d6000803e3d6000fd5b505050506040513d601f19601f820116820180604052508101906109e4919061124c565b6000036109ee5750565b6004546000828152600160205260409081902090516001600160a01b0390921691636526db7a91610a1e9161137d565b60405190819003812060e083901b6001600160e01b0319168252600482015260248101849052604401600060405180830381600087803b158015610a6157600080fd5b505af1158015610a75573d6000803e3d6000fd5b5050600354604051634cc8221560e01b8152600481018590526001600160a01b039091169250634cc822159150602401600060405180830381600087803b158015610abf57600080fd5b505af1158015610ad3573d6000803e3d6000fd5b50505050610ae081610db0565b60005b60055481101561031a5760058181548110610b0057610b0061130b565b600091825260209091200154604051634cc8221560e01b8152600481018490526001600160a01b0390911690634cc8221590602401600060405180830381600087803b158015610b4f57600080fd5b505af1158015610b63573d6000803e3d6000fd5b505050508080610b72906113f3565b915050610ae3565b7f8a22373512790c48b83a1fe2efdd2888d4a917bcdc24d0adf63e60f671680460546001600160a01b031690565b600354604051630801f16960e11b8152600481018490526001600160a01b0390911690631003e2d290602401600060405180830381600087803b158015610bee57600080fd5b505af1158015610c02573d6000803e3d6000fd5b50506004546000858152600160205260409081902090516001600160a01b039092169350636526db7a9250610c369161137d565b60405190819003812060e083901b6001600160e01b0319168252600482015260248101859052604401600060405180830381600087803b158015610c7957600080fd5b505af1158015610c8d573d6000803e3d6000fd5b5050600480548451602086012060405163771602f760e01b815292830152602482018690526001600160a01b0316925063771602f79150604401600060405180830381600087803b158015610ce157600080fd5b505af1158015610cf5573d6000803e3d6000fd5b50505050610d038282610df8565b60005b600554811015610da25760058181548110610d2357610d2361130b565b6000918252602090912001546040516242d70760e31b81526001600160a01b0390911690630216b83890610d5d908690869060040161141a565b600060405180830381600087803b158015610d7757600080fd5b505af1158015610d8b573d6000803e3d6000fd5b505050508080610d9a906113f3565b915050610d06565b505050565b6103c481610e79565b6000818152600160205260408120610dc791610ef3565b600054604051630de3b7b560e01b8152600481018390526001600160a01b0390911690630de3b7b5906024016106ac565b6000828152600160205260409020610e108282611479565b5060005460405163cfd3c57f60e01b81526001600160a01b039091169063cfd3c57f90610e43908590859060040161141a565b600060405180830381600087803b158015610e5d57600080fd5b505af1158015610e71573d6000803e3d6000fd5b505050505050565b7f8a22373512790c48b83a1fe2efdd2888d4a917bcdc24d0adf63e60f67168046080546040516001600160a01b038481169216907f8be0079c531659141344cd1fd0a4f28419497f9722a3daafe3b4186f6b6457e090600090a380546001600160a01b0319166001600160a01b0392909216919091179055565b508054610eff90611321565b6000825580601f10610f0f575050565b601f0160209004906000526020600020908101906103c491905b80821115610f3d5760008155600101610f29565b5090565b600060208284031215610f5357600080fd5b5035919050565b60008060408385031215610f6d57600080fd5b50508035926020909101359150565b6020808252825182820181905260009190848201906040850190845b81811015610fb457835183529284019291840191600101610f98565b50909695505050505050565b600060208284031215610fd257600080fd5b81356001600160a01b03811681146102e857600080fd5b6000815180845260005b8181101561100f57602081850181015186830182015201610ff3565b506000602082860101526020601f19601f83011685010191505092915050565b634e487b7160e01b600052602160045260246000fd5b6000604082016040835280855180835260608501915060608160051b8601019250602080880160005b8381101561109c57605f1988870301855261108a868351610fe9565b9550938201939082019060010161106e565b50508584038187015286518085528782019482019350915060005b828110156110f1578451602281106110df57634e487b7160e01b600052602160045260246000fd5b845293810193928101926001016110b7565b5091979650505050505050565b634e487b7160e01b600052604160045260246000fd5b604051601f8201601f1916810167ffffffffffffffff8111828210171561113d5761113d6110fe565b604052919050565b600082601f83011261115657600080fd5b813567ffffffffffffffff811115611170576111706110fe565b611183601f8201601f1916602001611114565b81815284602083860101111561119857600080fd5b816020850160208301376000918101602001919091529392505050565b600080604083850312156111c857600080fd5b82359150602083013567ffffffffffffffff8111156111e657600080fd5b6111f285828601611145565b9150509250929050565b60006020828403121561120e57600080fd5b813567ffffffffffffffff81111561122557600080fd5b61123184828501611145565b949350505050565b6020815260006102e86020830184610fe9565b60006020828403121561125e57600080fd5b5051919050565b6000602080838503121561127857600080fd5b825167ffffffffffffffff8082111561129057600080fd5b818501915085601f8301126112a457600080fd5b8151818111156112b6576112b66110fe565b8060051b91506112c7848301611114565b81815291830184019184810190888411156112e157600080fd5b938501935b838510156112ff578451825293850193908501906112e6565b98975050505050505050565b634e487b7160e01b600052603260045260246000fd5b600181811c9082168061133557607f821691505b60208210810361135557634e487b7160e01b600052602260045260246000fd5b50919050565b60006020828403121561136d57600080fd5b815180151581146102e857600080fd5b600080835461138b81611321565b600182811680156113a357600181146113b8576113e7565b60ff19841687528215158302870194506113e7565b8760005260208060002060005b858110156113de5781548a8201529084019082016113c5565b50505082870194505b50929695505050505050565b60006001820161141357634e487b7160e01b600052601160045260246000fd5b5060010190565b8281526040602082015260006112316040830184610fe9565b601f821115610da257600081815260208120601f850160051c8101602086101561145a5750805b601f850160051c820191505b81811015610e7157828155600101611466565b815167ffffffffffffffff811115611493576114936110fe565b6114a7816114a18454611321565b84611433565b602080601f8311600181146114dc57600084156114c45750858301515b600019600386901b1c1916600185901b178555610e71565b600085815260208120601f198616915b8281101561150b578886015182559484019460019091019084016114ec565b50858210156115295787850151600019600388901b60f8161c191681555b5050505050600190811b0190555056fea26469706673582212206964e2a6893bad274b81ee2b6a1af4645ad7d5c57e8f2f93d9da07441c5c632c64736f6c63430008130033608060405234801561001057600080fd5b5061001a3361001f565b610099565b7f8a22373512790c48b83a1fe2efdd2888d4a917bcdc24d0adf63e60f67168046080546040516001600160a01b038481169216907f8be0079c531659141344cd1fd0a4f28419497f9722a3daafe3b4186f6b6457e090600090a380546001600160a01b0319166001600160a01b0392909216919091179055565b610621806100a86000396000f3fe608060405234801561001057600080fd5b50600436106100885760003560e01c80638e7cb6e11161005b5780638e7cb6e1146100f3578063949d225d1461011d578063cccf7a8e1461012e578063f2fde38b1461015157600080fd5b80631003e2d21461008d578063410d59cc146100a25780634cc82215146100c05780638da5cb5b146100d3575b600080fd5b6100a061009b36600461050b565b610164565b005b6100aa6101ef565b6040516100b79190610524565b60405180910390f35b6100a06100ce36600461050b565b610247565b6100db610374565b6040516001600160a01b0390911681526020016100b7565b61010661010136600461050b565b610383565b6040805192151583526020830191909152016100b7565b6000546040519081526020016100b7565b61014161013c36600461050b565b6103b6565b60405190151581526020016100b7565b6100a061015f366004610568565b610419565b61016c61045b565b6001600160a01b0316336001600160a01b03161461019d57604051632f7a8ee160e01b815260040160405180910390fd5b6101a6816103b6565b6101ec57600080548282526001602081905260408320829055810182559080527f290decd9548b62a8d60345a988386fc84ba6bc95484008f6362f93160ef3e563018190555b50565b6060600080548060200260200160405190810160405280929190818152602001828054801561023d57602002820191906000526020600020905b815481526020019060010190808311610229575b5050505050905090565b61024f61045b565b6001600160a01b0316336001600160a01b03161461028057604051632f7a8ee160e01b815260040160405180910390fd5b610289816103b6565b156101ec576000805461029e90600190610598565b815481106102ae576102ae6105bf565b906000526020600020015460006001600084815260200190815260200160002054815481106102df576102df6105bf565b60009182526020808320909101929092558281526001918290526040812054815490929190819084908110610316576103166105bf565b90600052602060002001548152602001908152602001600020819055506001600082815260200190815260200160002060009055600080548061035b5761035b6105d5565b6001900381819060005260206000200160009055905550565b600061037e61045b565b905090565b60008061038f836103b6565b61039e57506000928392509050565b50506000908152600160208190526040909120549091565b6000805481036103c857506000919050565b60008281526001602052604081205490036104045781600080815481106103f1576103f16105bf565b9060005260206000200154149050919050565b50600090815260016020526040902054151590565b61042161045b565b6001600160a01b0316336001600160a01b03161461045257604051632f7a8ee160e01b815260040160405180910390fd5b6101ec81610489565b7f8a22373512790c48b83a1fe2efdd2888d4a917bcdc24d0adf63e60f671680460546001600160a01b031690565b7f8a22373512790c48b83a1fe2efdd2888d4a917bcdc24d0adf63e60f67168046080546040516101ec92849290916001600160a01b038085169216907f8be0079c531659141344cd1fd0a4f28419497f9722a3daafe3b4186f6b6457e090600090a380546001600160a01b0319166001600160a01b0392909216919091179055565b60006020828403121561051d57600080fd5b5035919050565b6020808252825182820181905260009190848201906040850190845b8181101561055c57835183529284019291840191600101610540565b50909695505050505050565b60006020828403121561057a57600080fd5b81356001600160a01b038116811461059157600080fd5b9392505050565b818103818111156105b957634e487b7160e01b600052601160045260246000fd5b92915050565b634e487b7160e01b600052603260045260246000fd5b634e487b7160e01b600052603160045260246000fdfea26469706673582212209120bb0a2a9936c2c457117a2d6e08d1b5892ce4c2794940e794c00e17bf899964736f6c63430008130033608060405234801561001057600080fd5b5061001a3361001f565b610099565b7f8a22373512790c48b83a1fe2efdd2888d4a917bcdc24d0adf63e60f67168046080546040516001600160a01b038481169216907f8be0079c531659141344cd1fd0a4f28419497f9722a3daafe3b4186f6b6457e090600090a380546001600160a01b0319166001600160a01b0392909216919091179055565b610663806100a86000396000f3fe608060405234801561001057600080fd5b506004361061007d5760003560e01c806385edea131161005b57806385edea13146100d35780638da5cb5b14610101578063a0265ff814610121578063f2fde38b1461014457600080fd5b80636526db7a14610082578063771602f714610097578063796c5e94146100aa575b600080fd5b610095610090366004610531565b610157565b005b6100956100a5366004610531565b6102bd565b6100bd6100b8366004610553565b61033a565b6040516100ca919061056c565b60405180910390f35b6100f36100e1366004610553565b60009081526020819052604090205490565b6040519081526020016100ca565b61010961039a565b6040516001600160a01b0390911681526020016100ca565b61013461012f366004610531565b6103a9565b60405190151581526020016100ca565b6100956101523660046105b0565b61043c565b61015f610481565b6001600160a01b0316336001600160a01b03161461019057604051632f7a8ee160e01b815260040160405180910390fd5b61019a82826103a9565b156102b957600082815260208190526040902080546101bb906001906105e0565b815481106101cb576101cb610601565b6000918252602080832090910154848352828252604080842060018452818520868652909352909220548154811061020557610205610601565b60009182526020808320909101929092558381526001825260408082208483528084528183205486845283855291832085845293819052835491939092918490811061025357610253610601565b600091825260208083209091015483528281019390935260409182018120939093558483526001825280832084845282528083208390558483529082905290208054806102a2576102a2610617565b600190038181906000526020600020016000905590555b5050565b6102c5610481565b6001600160a01b0316336001600160a01b0316146102f657604051632f7a8ee160e01b815260040160405180910390fd5b61030082826103a9565b6102b95760009182526020828152604080842080546001808552838720868852855292862081905585845291820181558452922090910155565b6000818152602081815260409182902080548351818402810184019094528084526060939283018282801561038e57602002820191906000526020600020905b81548152602001906001019080831161037a575b50505050509050919050565b60006103a4610481565b905090565b60008281526020819052604081205481036103c657506000610436565b60008381526001602090815260408083208584529091528120549003610418576000838152602081905260408120805484929061040557610405610601565b9060005260206000200154149050610436565b50600082815260016020908152604080832084845290915290205415155b92915050565b610444610481565b6001600160a01b0316336001600160a01b03161461047557604051632f7a8ee160e01b815260040160405180910390fd5b61047e816104af565b50565b7f8a22373512790c48b83a1fe2efdd2888d4a917bcdc24d0adf63e60f671680460546001600160a01b031690565b7f8a22373512790c48b83a1fe2efdd2888d4a917bcdc24d0adf63e60f671680460805460405161047e92849290916001600160a01b038085169216907f8be0079c531659141344cd1fd0a4f28419497f9722a3daafe3b4186f6b6457e090600090a380546001600160a01b0319166001600160a01b0392909216919091179055565b6000806040838503121561054457600080fd5b50508035926020909101359150565b60006020828403121561056557600080fd5b5035919050565b6020808252825182820181905260009190848201906040850190845b818110156105a457835183529284019291840191600101610588565b50909695505050505050565b6000602082840312156105c257600080fd5b81356001600160a01b03811681146105d957600080fd5b9392505050565b8181038181111561043657634e487b7160e01b600052601160045260246000fd5b634e487b7160e01b600052603260045260246000fd5b634e487b7160e01b600052603160045260246000fdfea26469706673582212204fe0e51f850fe860844b3ef4690dbe2f4106d195a4c983b0ea09e2b1f7ab027564736f6c634300081300338a22373512790c48b83a1fe2efdd2888d4a917bcdc24d0adf63e60f671680460608060405234801561001057600080fd5b50604051610e00380380610e0083398101604081905261002f916101ce565b818161003a3361013c565b6001600160a01b0381161561004f57806100b1565b816001600160a01b031663ba62fbe46040518163ffffffff1660e01b8152600401602060405180830381865afa15801561008d573d6000803e3d6000fd5b505050506040513d601f19601f820116820180604052508101906100b19190610208565b600080546001600160a01b039283166001600160a01b0319918216811790925560018054938616938216841790557ff67304f10c7772c78e439bc5cb07781db345424de8878c18100fdaa64d197a87805482169093179092557ff67304f10c7772c78e439bc5cb07781db345424de8878c18100fdaa64d197a8680549092161790555050505061022c565b7f8a22373512790c48b83a1fe2efdd2888d4a917bcdc24d0adf63e60f67168046080546040516001600160a01b038481169216907f8be0079c531659141344cd1fd0a4f28419497f9722a3daafe3b4186f6b6457e090600090a380546001600160a01b0319166001600160a01b0392909216919091179055565b6001600160a01b03811681146101cb57600080fd5b50565b600080604083850312156101e157600080fd5b82516101ec816101b6565b60208401519092506101fd816101b6565b809150509250929050565b60006020828403121561021a57600080fd5b8151610225816101b6565b9392505050565b610bc58061023b6000396000f3fe608060405234801561001057600080fd5b50600436106100575760003560e01c806309c5eabe1461005c5780638b246a5b146100855780638da5cb5b14610099578063f2fde38b146100b9578063f6cd7a01146100ce575b600080fd5b61006f61006a366004610863565b6100e1565b60405161007c91906108f8565b60405180910390f35b61006f610093366004610863565b50606090565b6100a16105fc565b6040516001600160a01b03909116815260200161007c565b6100cc6100c736600461095b565b610634565b005b61006f6100dc36600461098c565b61068a565b6060600080600080858060200190518101906100fd91906109dd565b600154939750919550935091506001600160a01b031633146101725760405162461bcd60e51b815260206004820152602360248201527f73797374656d2063616e206f6e6c792062652063616c6c65642076696120576f6044820152621c9b1960ea1b60648201526084015b60405180910390fd5b600083600181111561018657610186610a30565b14806101a3575060018360018111156101a1576101a1610a30565b145b6101de5760405162461bcd60e51b815260206004820152600c60248201526b696e76616c6964207479706560a01b6044820152606401610169565b8060000361021b5760405162461bcd60e51b815260206004820152600a6024820152691a5b9d985b1a59081a5960b21b6044820152606401610169565b6001600160a01b0382166102635760405162461bcd60e51b815260206004820152600f60248201526e696e76616c6964206164647265737360881b6044820152606401610169565b60008084600181111561027857610278610a30565b146102b8576000546102b3906001600160a01b03167f017c816a964927a00e050edd780dcf113ca2756dfa9e9fda94a05c140d9317b06106c3565b6102c5565b6000546001600160a01b03165b905060006001600160a01b038416604051636667bd4760e11b8152600481018290529091506001600160a01b0383169063cccf7a8e90602401602060405180830381865afa15801561031b573d6000803e3d6000fd5b505050506040513d601f19601f8201168201806040525081019061033f9190610a46565b1561038c5760405162461bcd60e51b815260206004820152601960248201527f656e7469747920616c72656164792072656769737465726564000000000000006044820152606401610169565b604051637defd0f560e11b8152600481018490526000906001600160a01b0384169063fbdfa1ea90602401600060405180830381865afa1580156103d4573d6000803e3d6000fd5b505050506040513d6000823e601f3d908101601f191682016040526103fc9190810190610a68565b90508051600014806104ac5750805160011480156104ac5750866001600160a01b03166104408260008151811061043557610435610b0e565b602002602001015190565b6001600160a01b0316638da5cb5b6040518163ffffffff1660e01b8152600401602060405180830381865afa15801561047d573d6000803e3d6000fd5b505050506040513d601f19601f820116820180604052508101906104a19190610b24565b6001600160a01b0316145b61050b5760405162461bcd60e51b815260206004820152602a60248201527f696420616c7265616479207265676973746572656420616e642063616c6c6572604482015269103737ba1037bbb732b960b11b6064820152608401610169565b805160010361058f57826001600160a01b0316634cc822158260008151811061053657610536610b0e565b60200260200101516040518263ffffffff1660e01b815260040161055c91815260200190565b600060405180830381600087803b15801561057657600080fd5b505af115801561058a573d6000803e3d6000fd5b505050505b604051631ab06ee560e01b815260048101839052602481018590526001600160a01b03841690631ab06ee590604401600060405180830381600087803b1580156105d857600080fd5b505af11580156105ec573d6000803e3d6000fd5b5050505050505050505050919050565b600061062f7f8a22373512790c48b83a1fe2efdd2888d4a917bcdc24d0adf63e60f671680460546001600160a01b031690565b905090565b7f8a22373512790c48b83a1fe2efdd2888d4a917bcdc24d0adf63e60f671680460546001600160a01b0316331461067e57604051632f7a8ee160e01b815260040160405180910390fd5b6106878161079a565b50565b60606106ba858585856040516020016106a69493929190610b41565b6040516020818303038152906040526100e1565b95945050505050565b604051637defd0f560e11b81526004810182905260009081906001600160a01b0385169063fbdfa1ea90602401600060405180830381865afa15801561070d573d6000803e3d6000fd5b505050506040513d6000823e601f3d908101601f191682016040526107359190810190610a68565b9050805160000361077c5760405162461bcd60e51b81526020600482015260116024820152701a59081b9bdd081c9959da5cdd195c9959607a1b6044820152606401610169565b6107928160008151811061043557610435610b0e565b949350505050565b7f8a22373512790c48b83a1fe2efdd2888d4a917bcdc24d0adf63e60f671680460805460405161068792849290916001600160a01b038085169216907f8be0079c531659141344cd1fd0a4f28419497f9722a3daafe3b4186f6b6457e090600090a380546001600160a01b0319166001600160a01b0392909216919091179055565b634e487b7160e01b600052604160045260246000fd5b604051601f8201601f1916810167ffffffffffffffff8111828210171561085b5761085b61081c565b604052919050565b6000602080838503121561087657600080fd5b823567ffffffffffffffff8082111561088e57600080fd5b818501915085601f8301126108a257600080fd5b8135818111156108b4576108b461081c565b6108c6601f8201601f19168501610832565b915080825286848285010111156108dc57600080fd5b8084840185840137600090820190930192909252509392505050565b600060208083528351808285015260005b8181101561092557858101830151858201604001528201610909565b506000604082860101526040601f19601f8301168501019250505092915050565b6001600160a01b038116811461068757600080fd5b60006020828403121561096d57600080fd5b813561097881610946565b9392505050565b6002811061068757600080fd5b600080600080608085870312156109a257600080fd5b84356109ad81610946565b935060208501356109bd8161097f565b925060408501356109cd81610946565b9396929550929360600135925050565b600080600080608085870312156109f357600080fd5b84516109fe81610946565b6020860151909450610a0f8161097f565b6040860151909350610a2081610946565b6060959095015193969295505050565b634e487b7160e01b600052602160045260246000fd5b600060208284031215610a5857600080fd5b8151801515811461097857600080fd5b60006020808385031215610a7b57600080fd5b825167ffffffffffffffff80821115610a9357600080fd5b818501915085601f830112610aa757600080fd5b815181811115610ab957610ab961081c565b8060051b9150610aca848301610832565b8181529183018401918481019088841115610ae457600080fd5b938501935b83851015610b0257845182529385019390850190610ae9565b98975050505050505050565b634e487b7160e01b600052603260045260246000fd5b600060208284031215610b3657600080fd5b815161097881610946565b6001600160a01b038581168252608082019060028610610b7157634e487b7160e01b600052602160045260246000fd5b8560208401528085166040840152508260608301529594505050505056fea2646970667358221220c695ef9f57d2f3413668514fde372f11b045f8e0ae7d11103e2cf0735b9838fd64736f6c63430008130033",
    "linkReferences": {}
  },
  "methodIdentifiers": {
    "components()": "ba62fbe4",
    "getComponent(uint256)": "4f27da18",
    "getComponentIdFromAddress(address)": "9f54f545",
    "getNumEntities()": "d7ecf62b",
    "getSystemAddress(uint256)": "fb3ec48b",
    "getUniqueEntityId()": "614bfa6e",
    "hasEntity(uint256)": "e3d12875",
    "init()": "e1c7392a",
    "query((uint8,uint256,bytes)[])": "687485a6",
    "register()": "1aa3a008",
    "registerComponent(address,uint256)": "f3034770",
    "registerComponentValueRemoved(address,uint256)": "d803064a",
    "registerComponentValueRemoved(uint256)": "0de3b7b5",
    "registerComponentValueSet(address,uint256,bytes)": "af104e40",
    "registerComponentValueSet(uint256,bytes)": "cfd3c57f",
    "registerSystem(address,uint256)": "1ee444b7",
    "systems()": "0d59332e"
  },
  "id": 12
}